:100000000C942A030C9462030C9447030C9447034A
:100010000C94900D0C949C0C0C94630D0C94090D95
:100020000C94360D0C946F0C0C94DC0C0C941C0C82
:100030000C9447030C9447030C9447030C94470318
:100040000C9447030C9447030C9447030C94470308
:100050000C9447038C197819A8197C197E198019FA
:100060008419A61988198A1986199419AE198E1936
:10007000B219B619BF19B819B819B819B819B819F9
:10008000B819B819B819B819A419A219B019921940
:10009000B419BA197A19B819B819B819B819B81918
:1000A000B819B819B819B819B819B819B819B819C8
:1000B000B819B819B819B819B819B819B819B819B8
:1000C000B819B819B819B819B81996199E199A1902
:1000D00082199019AA19B819B819B819B819B81904
:1000E000B819B819B819B819B819B819B819B81988
:1000F000B819B819B819B819B819B819B819B81978
:10010000B819B819B819B819B8199819A0199C19BB
:10011000AC190000010008004000000100040000CC
:1001200001000800200040008000000100040403DA
:1001300009041C03770069006E006B0065007900FC
:100140006C006500730073002E006B0072001003DA
:1001500070007300320061007600720055001201D9
:10016000100100000008424231E1000101020001DB
:100170000902220001010080FA09040000010301C4
:100180000100092101010001225500070581030832
:10019000000A0000FC001C322123242B3433433B93
:1001A000424B3A31444D152D1B2C3C2A1D22351A49
:1001B000161E26252E363D3E46455A76660D294E9C
:1001C00055545B5D5D4C520E41494A580506040C7E
:1001D000030B830A010978077C7E7C706C7D716952
:1001E0007A746B7275774A7C7B795A69727A6B7311
:1001F000746C757D7071612F001412111F145911E8
:10020000270000373F5E48103A38302820184D1537
:100210003B34233221502B404B1C43221D0000F164
:10022000F2370F08101820283038404850575F6DBB
:100230000051136A64672700000063625F000000DA
:1002400000000000000000008A01210223022402B5
:100250002502260227022A02B500B600B700CD000B
:10026000E200E900EA00830192019401000000002D
:100270000000000000009100900066006700680028
:1002800069006A006B006C006D006E006F0070000A
:100290007100720073008500860087008800890065
:1002A0008A008B008C008D008E008F0092009300DE
:1002B00094009500960097009800464800488E8D5F
:1002C000007172738F006A6B6E6D6546494A4B4CC4
:1002D0004D4E52504F5154587172737475767778F1
:1002E000797A7B7C7D7E7F80818283848586878806
:1002F000898A8F00494C4A4D4B4E6A6E65504F5269
:1003000051540073656C656374206D6F64650031D2
:100310003A4B6579204D617070696E6700323A4DD5
:100320006163726F00333A4578697400343A626FE2
:100330006F74206D617070657200676F6F6420620A
:1003400079657E00626F6F74206D617070657220D8
:10035000737461727421004D6163726F00313A539E
:10036000656C656374204D6163726F20496E6465CE
:100370007800323A4578697400393A436C656172A5
:1003800020416C6C00363A4261636B004B6579200A
:100390004D617070657200313A4368616E67652027
:1003A0004C6179657200323A53656C656374204B19
:1003B0006579202D20696E707574206B6579636F87
:1003C000646500333A5361766520616E6420457838
:1003D000697400343A4578697420776974686F7578
:1003E0007420536176696E6700393A52657365749B
:1003F00020746F2044656661756C742028437572A3
:1004000072656E74204C6179657229007073326177
:100410007672550063686F6F7365206C61796572E1
:100420002028313A206E6F726D616C2C20323A2098
:10043000464E2C20333A20464E3229206375727284
:10044000656E743D200073656C656374206B65791F
:100450002028616E79206B657920796F752077612E
:100460006E74292000696E707574206B6579636FF6
:10047000646520286D7573742033206E756D626518
:10048000727329203A200053617665202620457832
:1004900069742C207468616E6B20796F752E00452D
:1004A00078697420776974686F7574205361766910
:1004B0006E672C2073656520796F75206C6174659B
:1004C000722E00526573657420746F2064656661D6
:1004D000756C742063757272656E74206C617965D9
:1004E0007200496E70757420436F6D6D616E64208B
:1004F0004E756D6265723A20006E6F7468696E6742
:1005000000536176652063757272656E74206C614C
:10051000796572004C6F61642063757272656E74E8
:10052000206C6179657200736176696E672E2E2E7C
:1005300000636F6C2C20726F77203A2000696E7612
:10054000616C6964206B6579636F64652C20696EEA
:1005500070757420616761696E2E00696E707574C4
:10056000204D6163726F20496E64657820283031B8
:100570007E31322C206D7573742032206E756D6261
:1005800065727329203A200045786974206D616393
:10059000726F2C2073656520796F75206C617465AE
:1005A000722E00696E707574206B657920286D61FC
:1005B00078203234206B6579732C2073746F70202F
:1005C0003A207072657373204553432064757269D5
:1005D0006E672031207365632900696E76616C69EE
:1005E0006420496E6465782C20696E707574206192
:1005F0006761696E2E00636C6561722E2E2E000598
:10060000010906A1018501050719E029E715002563
:1006100001750195088102950575010508190129E3
:10062000059102950175039103950675081500263D
:1006300091000507190029A48100C0050C0901A13A
:1006400001850219002A3C021500263C029501751D
:10065000108100C011241FBECFE5D8E0DEBFCDBFA2
:1006600010E0A0E6B0E0EAEDFDE402C005900D92D6
:10067000AE3EB107D9F715E0AEEEB0E001C01D9275
:10068000AE39B107E1F70E9472220C94EB260C946C
:100690000000A82FB92F80E090E041E050EA60957B
:1006A00030E009C02D9182279795879510F0842717
:1006B0009527305EC8F36F5FA8F30895EADF8D9346
:1006C0009D930895CF93CFB7CF93C395839BE9F7BD
:1006D000839B09C0839B07C0839B05C0839B03C08A
:1006E000839B01C0A3C0DF93C091FB03DD27CE5FD6
:1006F000DB4F839B02C0DF91EBCF2F930F931F93B0
:1007000000B32FEF03FB20F94F933F9310B34FEF4C
:10071000012703FB21F93BE031C04E7F012F10B3CD
:10072000216028C0102F4D7F2260000000B329C037
:100730004B7F2460012F000010B32BC010B3477F04
:1007400028602AC04F7E00B320612CC04F7D10B3BB
:1007500020622FC04F7B00B3206432C0422700B319
:1007600049934FEF0000102713FB20F910B31C70C2
:10077000C9F1297F91F2012703FB21F900B3237FFF
:1007800089F2315058F1102713FB22F910B3277E5C
:1007900079F2012703FB23F92F7C81F200B31027A4
:1007A00013FB24F92F7971F200C010B3012703FB6A
:1007B00025F92F7359F200C000B3102713FB26F957
:1007C000223040F200C010B3012703FB27F9243088
:1007D00028F64F77206810B30000F9CF10E41ABF55
:1007E000002719C03B503195C31BD04010E41ABFFD
:1007F0000881033CF9F00B34E9F02091F9031981E9
:10080000110F1213EDCF4A81441F093641F10D3209
:1008100011F0013E29F7009300043F914F911F9181
:100820000F912F91DF91CAB7C6FD4FCFCF91CFBFA8
:10083000CF91189520910004222379F31091FE03A3
:10084000112369F534306AF13093FE032093FA03E3
:100850001091FB033BE0311B3093FB0322C000915E
:10086000FE030130E4F40AE54F7049F4309188004A
:1008700034FD19C000938800C2EED3E018C0309157
:10088000ED0334FD10C00093ED03CEEED3E00FC0B6
:100890002795A8F45150A9F4220F0000F9CF4AE59A
:1008A00003C042ED01C0432FC4E1D0E032E011B3F8
:1008B0001C60939A11BB02B320E41CE05F930127F4
:1008C00056E002BB279520F4515021F4220FF9CFB6
:1008D000012756E000003B5A02BBD0F2279528F4CE
:1008E000515029F4220F0000F9CF012756E0279537
:1008F00002BB20F4515021F4220FF9CF012756E01A
:100900002991332302BB21F6037F1091FF03110FBE
:10091000C651D04002BB11F01093F90310E41ABF86
:10092000086011B3137F402F437F5F9100C000C068
:1009300002BB11BB42BB71CF81B3836181BB82B368
:100940008C7E82BB8E9A969808950E949C0482B3F6
:10095000836082BB88EE93E02CE231E0F9013197AD
:10096000F1F70197D9F782B38C7F82BB089580930A
:10097000030108958091030108951092F0000895F5
:100980008EB5887F8EBD08958091EE009091EF0026
:10099000892B19F08EB584608EBD0895949A80914C
:1009A000EE009091EF009BBD8ABD08959498089544
:1009B0009093EF008093EE008091EE009091EF0015
:1009C000892B51F48091640090916500892B21F06E
:1009D00094988EB5887F14C08091EE009091EF00BE
:1009E000892B79F08091640090916500892B49F4FE
:1009F0008091EE009091EF00892B19F08EB5846004
:100A00008EBD8091EE009091EF00909365008093F1
:100A1000640008959091F700992319F480E090E024
:100A200010C0913049F41092FC001092FB0010921B
:100A3000FE001092FD000895923031F48091630021
:100A400090E00E94D8040895892F83508230A0F44A
:100A500083E08093FF00943019F481E08093FF00DD
:100A60008091FF009FEF899FC00111246CE070E02E
:100A70000E9462236093000108958091F70090E046
:100A8000019665E070E00E9462238093F70081E0A8
:100A900090E09093F6008093F5000E940A05089577
:100AA000809163008E31A1F08951809363008E3173
:100AB00018F48EE1809363008091F700823011F486
:100AC0000E940A0581E090E09093F6008093F50083
:100AD0000895809163008F3FA9F090E049968F3F81
:100AE000910511F00CF08FEF809363008091F70077
:100AF000823011F40E940A0581E090E09093F600A4
:100B00008093F50008958091030190E080FF02C07A
:100B1000909A01C09098AC014270507081FF02C061
:100B2000919A01C091982091050182FF04C0969A84
:100B30002223C9F404C096982130A9F409C081E0A9
:100B400080930501452B11F485E007C084E005C0C2
:100B500010920501452B21F483E080930401089550
:100B600082E08093040108958091F7008330C1F4FE
:100B700084EF91E090930201809301018091FF0046
:100B80008C3038F58F5F8093FF009FEF899FC00105
:100B900011246CE070E00E946223609300010895CC
:100BA0008430B9F484EF91E09093020180930101C5
:100BB0008091FF00882369F081508093FF009FEFB0
:100BC000899FC00111246CE070E00E946223609351
:100BD000000108952091630030E0AC01429FC00104
:100BE000439F900D529F900D11246FEF70E00E9473
:100BF0006223CB010895CF93DF938091F70081307A
:100C000009F057C0C091FD00D091FE00209761F41B
:100C10008091FB009091FC0068E070E00E946223EC
:100C2000CB010E94EA0513C0C230D105A1F4809126
:100C3000FB009091FC0068E070E00E946223CB0111
:100C4000909581959F4F81509F4F0E94EA0590E0BB
:100C50000E94D8040FC0C130D10519F0C330D105AE
:100C600049F48091FB009091FC0001969093FC0068
:100C70008093FB008091FB009091FC00885F97407F
:100C800074F01092FC001092FB00CE01019664E01B
:100C900070E00E9462239093FE008093FD0080919B
:100CA000FB009091FC0001969093FC008093FB0068
:100CB00087C08330D1F580910101909102010097A6
:100CC00031F00197909302018093010128C0209197
:100CD00000012223F1F08091FB009091FC0001962D
:100CE0009093FC008093FB000897CCF01092FC00DE
:100CF0001092FB002150209300018FEF90E0821BA7
:100D000091096BEE7FEF0E946223645F6093FF00A6
:100D100006C01092FF001092FC001092FB00809120
:100D2000000190E00E94EA053DC0843009F03EC019
:100D30008091010190910201009731F00197909309
:100D400002018093010129C0209100012F3FF1F0A1
:100D50008091FB009091FC0001969093FC008093A1
:100D6000FB000897D4F01092FC001092FB002F5F5C
:100D7000209300018FEF90E0821B91096BEE7FEFD3
:100D80000E946223645F6093FF0007C08CE0809341
:100D9000FF001092FC001092FB008091000190E097
:100DA0000E94EA0590E00E94D8040AC01092FC005C
:100DB0001092FB0083E090E09093FE008093FD0092
:100DC000DF91CF9108950E94FB0508959098919826
:100DD00096988091F700823011F0843029F41092B7
:100DE000FC001092FB0008C0882311F0833021F42E
:100DF00081E08093FA0008951092FA0008950E940D
:100E000083050E940A050895CF93DF938091FA002D
:100E1000813029F1C091FB00D091FC00CE0168E047
:100E200070E00E946223CB01909581959F4F815085
:100E30009F4F0E94EA0590E00E94D80487E0C83FD7
:100E4000D80744F080E090E00E94D804949881E0B4
:100E50008093FA002196D093FC00C093FB00DF91B1
:100E6000CF9108951F93182F8091F000882309F4E3
:100E700089C00E941011882319F00E94040782C0C3
:100E80000E940E22882311F042E004C0113009F0C4
:100E900045C041E08091F1009091F200019690935D
:100EA000F2008093F10020916000309161002817DA
:100EB0003907DCF58091F3009091F400019690934E
:100EC000F4008093F300893C91057CF1809103014B
:100ED0009091620080FF09C0913021F482B3409567
:100EE000482307C082B3482B09C0913021F482B354
:100EF000482B42BB08C082B34095482342BB1092A6
:100F0000F2001092F1008091620091E089278093B5
:100F100062001092F4001092F30007C01092F400E7
:100F20001092F30081E0809362008091F50090912F
:100F3000F6001816190624F501969093F600809392
:100F4000F500885E9340E1F41092F6001092F500EF
:100F50006091F7008091F800681731F06093F80015
:100F60008BE090E00E94F725609163008091F9008A
:100F7000861731F06093F90089E090E00E94F72530
:100F80000E94FB051F9108958091F000882309F0CD
:100F900068C081E08093F00082E066ED74E00E941A
:100FA000F40A83E06EEC74E00E94F40A8FB58E7F41
:100FB0008FBD8FB58D7F8FBD8EB588608EBD8EB590
:100FC00080618EBD8FEF90E097BD86BD1BBC1ABCC3
:100FD00086B597B599BD88BD8FB58F778FBD8FB515
:100FE0008F7B8FBD8FB58F7D8FBD8FB58F7E8FBD72
:100FF0001DBC1CBC89B7806189BF89B7886089BF67
:101000008091EE009091EF00892B19F08EB58460ED
:101010008EBD89E090E00E94EF258093630080936D
:10102000F9008BE090E00E94EF258093F7008F3F5E
:1010300011F41092F7008091F7008093F8000E945D
:101040000A058091ED00882311F0833051F48091DE
:1010500060009091610095958795909361008093D1
:10106000600008958FEF87BB88BB1ABA14BA8BBB98
:1010700085BB8F98979A089580E090E0FC01EF552A
:10108000FC4F1082FC01ED53FC4F10820196813120
:101090009105A1F78AE080938700089581E080930D
:1010A0000801E3ECF3E08081882319F01092080135
:1010B00005C0319683E0E43DF807A9F78091080167
:1010C0000895EF92FF921F93CF93DF9360E070E05B
:1010D00081E0E82EF12CFB01ED53FC4F8081882349
:1010E000D9F120E030E0C82FD0E0162F1F5FCE01ED
:1010F000022E02C0959587950A94E2F780FF27C0DB
:10110000522F22C0CE01052E02C0959587950A94D4
:10111000E2F780FF19C0412FD701052E02C0AA0FA8
:10112000BB1F0A94E2F70EC0E42FF0E0ED53FC4F32
:10113000808190E08A239B231816190614F481E01D
:1011400012C04F5F413181F75F5F5830D8F22F5F97
:101150003F4F2830310559F66F5F7F4F6131710580
:1011600009F0B9CF80E0DF91CF911F91FF90EF9010
:10117000089582EB93E008958F929F92AF92BF9271
:10118000DF92EF92FF920F931F93CF93DF93DD24B3
:10119000C0E0D0E031E0E32EF12C27E1822E912C4B
:1011A0009FE0A92EB12C87010C2E02C0000F111F49
:1011B0000A94E2F707BB802F809588BB81E090E01E
:1011C0000E94C518E3ECF3E040E050E0302F30958A
:1011D000842F483048F429B3C701042E02C0880F79
:1011E000991F0A94E2F711C08850883018F423B38D
:1011F000C50102C020B3C401841B950BB70102C016
:10120000660F771F8A95E2F7CB01209528239081FE
:10121000802F892319F0222329F008C0222331F0DE
:10122000902B01C093239083DD24D3944F5F5F4FB5
:1012300031964131510561F62196C830D10509F04A
:10124000B2CFDD2019F01092860007C08091860091
:10125000843618F48F5F8093860090918600809189
:101260008700981711F080E024C00E94610888234D
:1012700081F020E030E0F901EE54FC4FD901AF5588
:10128000BC4F8C9180832F5F3F4F2131310599F7FF
:101290000FC020E030E0F901EE54FC4FD901AD530E
:1012A000BC4F8C9180832F5F3F4F2131310599F7DF
:1012B00081E0DF91CF911F910F91FF90EF90DF9030
:1012C000BF90AF909F908F9008951F930E94CD176D
:1012D0000E94BC08182F0E9414180E9483118111CB
:1012E00010E0812F1F9108954F925F926F927F922D
:1012F0009F92AF92BF92CF92DF92EF92FF920F93A5
:101300001F93CF93DF93EE24FF2461E0C62ED12CF0
:1013100057E1452E512C4FE0642E712C6FC00C2FDD
:10132000809107016C2F492D0E946D17182F865D43
:10133000803128F4E12FF0E0EC54F0401081812F4F
:10134000865F823060F01E3F51F0183F41F01B3F36
:1013500009F048C080910701823009F043C0A7BA64
:10136000B8BA81E090E00E94C518083048F429B36B
:10137000C6010C2E02C0880F991F0A94E2F711C013
:101380000850083018F423B3C30102C020B3C201CF
:101390008C1B9D0BA60102C0440F551F8A95E2F7D6
:1013A000CA0120952823F1F01E3F61F0183F09F48F
:1013B00044C0173F49F480910801882399F081E0E7
:1013C0008093090191E03DC0163F41F480910801EE
:1013D000882341F082E0809309012FC01B3F11F464
:1013E00090E02FC02196C131D10509F098CF089423
:1013F000E11CF11C58E0E516F10471F09E2CC601C9
:101400000E2C02C0880F991F0A94E2F7A82EB82E5E
:10141000B094C0E0D0E083CF0E944E08882311F042
:101420001092090190910901992359F480910601C4
:10143000813029F482E08093070192E002C010928B
:101440000701892FDF91CF911F910F91FF90EF90AE
:10145000DF90CF90BF90AF909F907F906F905F9004
:101460004F9008950F931F93182F062F8E3FF1F181
:101470000E948E10002399F10E94B4051C3F49F090
:1014800080910A01882391F01A3281F410920601AA
:1014900006C08091060191E0892780930601809122
:1014A0000601882319F50E94830520C0193221F412
:1014B00081E080930A011DC0882311F0193311F0D7
:1014C0001D3F19F40E943D0511C01A3F19F40E94F6
:1014D00069050CC0193F61F40E94500507C01C3F0C
:1014E00029F0193229F410920A0102C080E001C0EB
:1014F00081E01F910F910895089583B7887F8260DE
:1015000083BF12BE89B7816089BF1092D403109245
:10151000D5031092D6031092D70308958EB5887F15
:1015200083608EBD1DBC1CBC89B7846089BF0895D3
:1015300085B5887F846085BD14BC89B7806489BF08
:101540001092DC031092DD031092DE031092DF0391
:10155000089580E090E0FC01EE0FFF1FE55FFE4F75
:1015600011821082019688309105A9F70E947D0AA8
:101570000E948E0A0E94980A7894089593B7987FE3
:10158000982B93BF08959EB5987F982B9EBD089584
:1015900095B5987F982B95BD089583B7E82FF0E017
:1015A000E770F070EE0FFF1FEE5EFE4F2591349155
:1015B000C90108958EB5E82FF0E0E770F070EE0FE6
:1015C000FF1FEE5EFE4F25913491C901089585B548
:1015D000E82FF0E0E770F070EE0FFF1FE25EFE4FC5
:1015E00025913491C9010895883040F4E82FF0E046
:1015F000EE0FFF1FE55FFE4F718360830895883013
:1016000040F4E82FF0E0EE0FFF1FE55FFE4F118280
:1016100010820895EF92FF920F931F93CF93DF9361
:10162000EC0112B71092D8031092D9031092DA038A
:101630001092DB0383B7E82FF0E0E770F070EE0F55
:10164000FF1FEE5EFE4F2591349140E050E060E0D8
:101650007BE187EB90E00E947523B901CA01693BE9
:101660002DE8720726E0820720E09207A0F437E217
:10167000C131D30780F49E0140E050E00E94232353
:1016800028EE33E040E050E00E947523C901DA0102
:10169000BC01CD0121C028EE33E040E050E00E94C3
:1016A0007523CA01B9019E0140E050E00E94232346
:1016B00013C08091D8039091D903A091DA03B0911F
:1016C000DB0385B78F7885BF85B7806885BF889530
:1016D00085B78F7785BF08C09B01AC01210F311DF5
:1016E000411D511D79018A012091D8033091D90300
:1016F0004091DA035091DB0382B790E0A0E0B0E0C4
:10170000542F432F322F2227822B932BA42BB52B20
:101710008E159F05A007B10760F2DF91CF911F9151
:101720000F91FF90EF9008951092D4031092D5037B
:101730001092D6031092D70308952091D4033091CC
:10174000D5034091D6035091D703B901CA0108953A
:101750001092DC031092DD031092DE031092DF037F
:1017600008952091DC033091DD034091DE03509118
:10177000DF03B901CA010895893031F48FB5826061
:101780008FBD8FB58E7F0AC08A3019F48FB5826005
:1017900002C08FB58D7F8FBD8FB581608FBD1BBCA3
:1017A0001ABC19BC18BC08952FB52E7F2FBD2FB5BC
:1017B00022602FBD2EB528602EBD2EB520612EBD16
:1017C00097BD86BD1BBC1ABC19BC18BC08958FB54B
:1017D0008D7F8FBD8FB58E7F8FBD8FB58F778FBD7E
:1017E0008FB58F7B8FBD8FB58F7D8FBD8FB58F7E72
:1017F0008FBD08958FB580688FBD8FB58F7B8FBDEE
:1018000008958FB580628FBD8FB58F7E8FBD08958F
:101810008FB58F778FBD8FB58F7B8FBD08958FB5B7
:101820008F7D8FBD8FB58F7E8FBD08959BBD8ABD87
:10183000089599BD88BD08951F920F920FB60F921B
:1018400011242F933F934F935F936F937F938F93C5
:101850009F93AF93BF93EF93FF938091D4039091A5
:10186000D503A091D603B091D7030196A11DB11D58
:101870008093D4039093D503A093D603B093D7035A
:101880008091D8039091D903A091DA03B091DB0342
:101890000196A11DB11D8093D8039093D903A09305
:1018A000DA03B093DB0380910B0190910C01892B3B
:1018B00029F0E0910B01F0910C010995FF91EF9156
:1018C000BF91AF919F918F917F916F915F914F9158
:1018D0003F912F910F900FBE0F901F9018951F9260
:1018E0000F920FB60F9211242F933F934F935F9354
:1018F0006F937F938F939F93AF93BF93EF93FF93D8
:1019000080910D0190910E01892B29F0E0910D013C
:10191000F0910E010995FF91EF91BF91AF919F91C9
:101920008F917F916F915F914F913F912F910F9088
:101930000FBE0F901F9018951F920F920FB60F9227
:1019400011242F933F934F935F936F937F938F93C4
:101950009F93AF93BF93EF93FF938091DC0390919C
:10196000DD03A091DE03B091DF030196A11DB11D3F
:101970008093DC039093DD03A093DE03B093DF0339
:101980008091150190911601892B29F0E0911501A4
:10199000F09116010995FF91EF91BF91AF919F9141
:1019A0008F917F916F915F914F913F912F910F9008
:1019B0000FBE0F901F9018951F920F920FB60F92A7
:1019C00011242F933F934F935F936F937F938F9344
:1019D0009F93AF93BF93EF93FF93809119019091E1
:1019E0001A01892B29F0E0911901F0911A0109954A
:1019F000FF91EF91BF91AF919F918F917F916F91E7
:101A00005F914F913F912F910F900FBE0F901F90BC
:101A100018951F920F920FB60F9211242F933F9398
:101A20004F935F936F937F938F939F93AF93BF93E6
:101A3000EF93FF9380910F0190911001892B29F072
:101A4000E0910F01F09110010995FF91EF91BF9185
:101A5000AF919F918F917F916F915F914F913F9146
:101A60002F910F900FBE0F901F9018951F920F92FD
:101A70000FB60F9211242F933F934F935F936F9361
:101A80007F938F939F93AF93BF93EF93FF93809137
:101A9000110190911201892B29F0E0911101F0912F
:101AA00012010995FF91EF91BF91AF919F918F9195
:101AB0007F916F915F914F913F912F910F900FBE4A
:101AC0000F901F9018951F920F920FB60F9211242E
:101AD0002F933F934F935F936F937F938F939F9336
:101AE000AF93BF93EF93FF938091130190911401F3
:101AF000892B29F0E0911301F09114010995FF91D0
:101B0000EF91BF91AF919F918F917F916F915F9175
:101B10004F913F912F910F900FBE0F901F901895EE
:101B20001F920F920FB60F9211242F933F934F9352
:101B30005F936F937F938F939F93AF93BF93EF9335
:101B4000FF938091170190911801892B29F0E09162
:101B50001701F09118010995FF91EF91BF91AF9195
:101B60009F918F917F916F915F914F913F912F91B5
:101B70000F900FBE0F901F90189580931C01F89442
:101B80008091E1038F7E8093E1038091E10388607F
:101B90008093E10378940895F8948091E1038B7F1A
:101BA0008093E103789480911B0108958FEC84BDAC
:101BB0008091E003833000F58B98939A8091E10344
:101BC00080FF23C0829BA3C08091E003813031F06D
:101BD000813040F0823009F0F6C006C0839902C01F
:101BE0008DE096C082E094C08091E10383FFEBC05A
:101BF00093988B9A84E28CC08091E0038A3108F03C
:101C000079C08091E10380FD08C08091E10381608B
:101C10008093E1038A98929A0895829B76C080917E
:101C2000E003873140F4803118F58D3061F08F305A
:101C300009F055C00CC08831E1F1883158F1893183
:101C400009F04DC049C08091E1038D7F4DC0809166
:101C5000E1038B7F8093E103839B05C080E8809341
:101C60001B0181E014C010921E0110921B0137C0AD
:101C700080911B01869580931B01839B30C08091CE
:101C80001B01806880931B0180911E018F5F8093F0
:101C90001E0125C0839B05C080911E018F5F80932C
:101CA0001E0180911E0180FD1AC08091E1038260B7
:101CB00010C0839905C08091E10382608093E103A5
:101CC0008091E10381FD0BC093988B9A8091E10391
:101CD00084608093E10303C08B98939A6CC09298C0
:101CE0008A9A8091E1038E7F8093E1038091E003E3
:101CF0008F5F0EC08091E0038F3208F064C0809146
:101D0000E10380FF10C0829906C08B98939A81E00E
:101D10008093E00308958091E1038E7F8093E10337
:101D200092988A9A08958091E10381608093E103FB
:101D30008A98929A8091E0038C3228F4853280F45C
:101D40008432E1F507C08D3299F18D32E8F08E32A0
:101D5000A9F531C080911C0180931D0110921E01D4
:101D600080911D0180FF08C08B98939A80911E017D
:101D70008F5F80931E0102C093988B9A80911D0102
:101D8000869580931D011AC080911E0180FF03C0BB
:101D900093988B9A02C08B98939A8091E103877FE6
:101DA0008093E1038091E10380618093E10306C0A9
:101DB0008B98939A03C01092E00308958091E003FA
:101DC0008F5F8093E00308951092E00381E1809398
:101DD000E1038A98929A8B98939A0E94980A82E0DB
:101DE0000E94C80A85E066ED7DE00E94F40A8FEC4F
:101DF00084BD089585B7826085BF8BB780648BBF33
:101E00008BE48093EE038AE58093ED0308951F939E
:101E1000CF93DF930E94C0046091FE03635067FD7F
:101E2000D1C08091FB03CCE0D0E0C81BD109CE5FCC
:101E3000DB4F8091FA038D3209F0B1C0683009F0B0
:101E4000BFC083EC8093E2038AE580938800109200
:101E50001F018881807641F0CE010E94B521282F94
:101E60008F3F09F48BC091C09A811092EB03898156
:101E7000882331F41092EC038BEE93E022E079C0DA
:101E8000853019F49093FF0371C0863009F059C072
:101E90008B81813069F489B78B7F89BF0E94C00430
:101EA0008EE591E09093FD038093FC0322E145C011
:101EB000823041F480E791E09093FD038093FC032E
:101EC00022E23BC08330F9F48A81882341F48EE218
:101ED00091E09093FD038093FC0324E02EC08130B9
:101EE00041F482E391E09093FD038093FC032CE1A5
:101EF00024C0823009F58EE491E09093FD03809335
:101F0000FC0320E11AC0813241F482E891E0909311
:101F1000FD038093FC0329E010C0823269F48FEF47
:101F200095E09093FD038093FC0389B7846089BF9B
:101F30000E94C40425E501C020E080E480931F01D5
:101F400024C0883019F481E094E009C0893019F484
:101F5000909301040BC08A3021F48BEE93E021E0D2
:101F600008C08B3019F48BE48093EE038BEE93E082
:101F700020E09093FD038093FC0307C0888187FDD8
:101F80002E8180E880931F0106C08F81882319F479
:101F90008E81821708F0822F8093890011C0809172
:101FA0001F0187FF0DC0CE010E94F7218F3F21F452
:101FB0008EE18093880004C0882311F0109289007C
:101FC0001092FE038091880084FF46C080918900B2
:101FD0008F3F09F441C0182F893008F018E0811BA9
:101FE000809389008091E20398E889278093E20337
:101FF000112321F12091FC033091FD0380911F01F9
:1020000086FF0AC0912FF901A3EEB3E084918D936E
:1020100031969150D9F708C0912FD901E3EEF3E042
:102020008D9181939150E1F7C90101961150810F73
:10203000911D1F5F9093FD038093FC0383EE93E05B
:10204000612F0E945E03612F6C5F6C3019F08FEF7F
:10205000809389006093880094E180B38C7031F4A0
:102060009150D9F71092FF031092F9030E94C40413
:10207000DF91CF911F9108951F93CF93DF93EC01D0
:10208000162F0E94C0048091ED0384FF07C0809149
:10209000EE0398E889278093EE0303C08AE58093D6
:1020A000ED03912FEFEEF3E0899181939150191692
:1020B000DCF38FEE93E0612F0E945E031C5F1093B0
:1020C000ED030E94C404DF91CF911F910895809188
:1020D00023010895E82F865D803140F4809123012B
:1020E000882321F0F0E0EC54F040E0818E2F089539
:1020F00091E1899FC0011124860F911D23E0880F73
:10210000991F2A95E1F7840F911DE091AA00F091A3
:10211000AB00E80FF91FE4918E2F08951F93982FBD
:10212000865D6623D9F0803188F4809121018F5F2C
:102130008093210180912201882361F490932001F2
:1021400081E0809322011092230139C08091200107
:102150008823A9F181E08093230131C0803178F593
:1021600080912101815080932101E0912001EE2393
:1021700001F1809123018823E1F4F0E0EC53F04079
:102180001081812F0E94E118812F0E94E118109286
:1021900020010E949611882361F0812F60E040E0C9
:1021A00021E00E944A14812F60E040E020E00E947C
:1021B0004A1480912101882311F4109222011F9169
:1021C00008959C01E0912001EE2349F180912301C3
:1021D000882329F18E2F865D803120F4F0E0EC54C5
:1021E000F040E0818E2FF90109950E949611882315
:1021F000A1F0E09120018E2F865D803140F4809126
:102200002301882321F0F0E0EC54F040E0818E2F90
:1022100060E040E021E00E944A14109220010895FD
:1022200080912401089580912401882329F481E07C
:10223000809324010E94E60608958091240188235A
:1022400011F58091250190912601A0912701B0916F
:1022500028010196A11DB11D8093250190932601AF
:10226000A0932701B0932801805E9349A440B04019
:1022700054F010922501109226011092270110921D
:1022800028010E941311089580912401882321F0D0
:10229000109224010E94FF0610922501109226013F
:1022A0001092270110922801089580912F018160DA
:1022B00080932F01089580912F018170089580915E
:1022C0002F0182700895982F80912F0180FD1AC0F0
:1022D0009730A1F4109232011092310181E0809385
:1022E00030018091ED00882311F0833059F484ECA3
:1022F00099E09093E0008093DF00089510922F0101
:1023000010923001089580913301089581E0809307
:102310003301089510922F0110923701089590E033
:10232000895C8C3008F491E0892F089590E08091C9
:1023300035018B3009F491E0892F089588E20E94DD
:10234000E11888E20E94E118089580E3E9EBF4E0E7
:10235000DF01982F1D929A95E9F71092E904E9E1BF
:10236000F4E0DF011D928A95E9F710922E0108959D
:102370000F931F93FC0180810E944C198C018823CC
:1023800019F088E60E94E118812F0E94E118812F40
:102390000E94E118002319F088E60E94E1181F91BD
:1023A0000F910895CF92DF92EF92FF920F931F93B8
:1023B000DF93CF930F92CDB7DEB78C01009711F565
:1023C0002FC000D000D000D0EDB7FEB73196ADB72A
:1023D000BEB71296FC92EE921197D382C2829927D1
:1023E00087FD9095958384830E94EE238DB79EB7D9
:1023F00006960FB6F8949EBF0FBE8DBFC7010E9410
:10240000B81108C07E010894E11CF11C8CEAC82EAA
:1024100080E0D82EF8010F5F1F4F8491882389F642
:102420000F90CF91DF911F910F91FF90EF90DF9070
:10243000CF90089583EC94E00E94D2110E949E11E7
:1024400029E334E080E090E00BC01192E217F3073B
:10245000E1F701969F01285F3F4F8131910549F0D7
:10246000FC0143E0EE0FFF1F4A95E1F7EF5CFB4FE5
:10247000ECCF81E090E090933F0180933E0108957E
:1024800086EF95E00E94D2110E949E1181E0809318
:102490002D018CE0809337011092350108958091D1
:1024A0003E0190913F01892B29F410922F01109247
:1024B0003701089587E295E00E94D2110E949E1193
:1024C00081E080932D018BE080933701809135016D
:1024D000809336011092350108958CE094E00E94BB
:1024E000D2110E949E1108950E949E1187E593E0EB
:1024F0000E94D2110E949E118DE593E00E94D2119C
:102500000E949E1182E793E00E94D2110E949E11C8
:1025100085E893E00E94D2110E949E1189E793E022
:102520000E94D2110E949E1187E080933501089588
:10253000AF92BF92CF92DF92FF920F931F93DF93E0
:10254000CF930F92CDB7DEB78C01FF246E010894B4
:10255000C11CD11C5CEAA52E50E0B52E25C000D0D0
:1025600000D000D0EDB7FEB73196ADB7BEB712962A
:10257000DC92CE921197B382A282800F911FDC0170
:102580008C91992787FD9095958384830E94EE23F3
:102590008DB79EB706960FB6F8949EBF0FBE8DBF3F
:1025A000C6010E94B811F3948F2D90E0F8010190BC
:1025B0000020E9F73197E01BF10B8E179F0778F2A7
:1025C0000F90CF91DF911F910F91FF90DF90CF90EF
:1025D000BF90AF90089581E080932D0180913501E7
:1025E000893088F48730E8F5833079F1843030F42D
:1025F0008130E1F0823009F05CC024C0853059F1AF
:10260000863060F525C08B30B9F18C3030F48930DC
:1026100069F18A3009F04DC02CC08E3609F447C0EC
:10262000883789F1843609F044C038C084E194E0E9
:102630000E94D211809140018F5F0E94C1190E94B7
:1026400098121EC086E494E019C085E694E00BC0A1
:1026500087E894E025C08FE994E022C010922D0114
:1026600028C082EE94E00E94D21123C08BE595E051
:10267000FACF88E895E014C083EA95E00E94D21171
:102680000E949E1116C084E493E00E94D2110E9421
:102690009E11109235010E940A220BC08AE393E03A
:1026A0000E94D2110E949E111092350102C00E9418
:1026B000831388EE93E02CE231E0F9013197F1F7D2
:1026C0000197D9F708950E949E1183EC93E00E9430
:1026D000D2110E949E1183ED93E00E94D2110E94BC
:1026E0009E1185E893E00E94D2110E949E1189EE0E
:1026F00093E00E94D2110E949E1187E080933501E1
:102700000E94EB1208950E949E1183E093E00E94C4
:10271000D2110E949E118FE093E00E94D2110E947C
:102720009E118DE193E00E94D2110E949E1185E2DC
:1027300093E00E94D2110E949E118CE293E00E94CD
:10274000D2110E949E1188E0809335010E94EB1205
:102750000895CF93DF93C5EAD1E0CE0160E00E94F7
:10276000F725219683E0C53ED807B9F787E0809327
:1027700035010E94EB12DF91CF9108951F93CF9303
:10278000DF93809118048C30C8F4C0E0D0E010E3EF
:1027900080911804819FC00111248B559E4FFE012A
:1027A000E754FB4F8C0F9D1F60810E94F7252196F7
:1027B000C033D10569F78FEF80931804DF91CF9173
:1027C0001F9108950F931F93CF93DF93982F8C3011
:1027D000C0F480E3989FC0011124EC01CB55DE4F7B
:1027E0008C010B521E4FCE010E94EF25982F815075
:1027F0008E3F18F4892F0E94E1182196C017D10747
:1028000091F7DF91CF911F910F910895CF92DF92B1
:10281000EF92FF920F931F93CF93DF93909140011C
:1028200088E8989F700111248DE090E0E80EF91E71
:10283000CC24DD2417C0CE018E0D9F1D0E94EF25F4
:10284000F80181938F012196C830D105A1F7089432
:10285000C11CD11C88E090E0E80EF91E91E1C91678
:10286000D10459F0860163E0000F111F6A95E1F76A
:102870000F5C1B4FC0E0D0E0DECF10923F01109202
:102880003E01DF91CF911F910F91FF90EF90DF906C
:10289000CF900895AF92BF92CF92DF92EF92FF92C6
:1028A0000F931F93DF93CF9300D00F92CDB7DEB776
:1028B000B62EA42EC22E0E946A10D82E84ED8D153D
:1028C00008F484C280912D01882309F07FC2809191
:1028D00035018B3019F0CC2009F078C284ED90E0FE
:1028E0006BE04D2D0E9461187C01909135019B3069
:1028F00009F06CC080912C01882399F010922B0173
:1029000010922C018D2D0E94E118E091E904F0E075
:10291000E854FB4F10820E94BE1387E0809335017C
:1029200046C2CC2071F080912E01883108F04EC251
:102930008F5F80932E0189E194E06D2D0E94B9187C
:1029400017C009E114E0F80101900020E9F7319780
:10295000E01BF10BC8016E2F4D2D0E946118BC01C8
:102960009FEF6F3F790709F431C2C8010E948718B1
:102970008091E904E82FF0E0E754FB4FD0828F5FAD
:102980008093E9048D2D0E94E1188091E904803341
:1029900030F087E0809335010E94BE1308C2CC203E
:1029A00081F0A4EDB0E0EA0EFB1EF70180818932D0
:1029B00041F481E080932B0110922A0110922901A9
:1029C00005C210922B0110922C0100C2892F875052
:1029D000823008F0A3C0FAE0EF16F10408F0F6C167
:1029E000E0913D01F0E0E65CFE4FE08200D000D0D7
:1029F00000D0EDB7FEB731968E010F5F1F4FADB718
:102A0000BEB712961C930E9311978FEA90E09383B2
:102A10008283F582E4820E94EE23EDB7FEB73696FC
:102A20000FB6F894FEBF0FBEEDBFC8010E9498120A
:102A30000E949E1100913A0180913501883091F5F4
:102A40000130E1F4009334010E949E118CE893E080
:102A50000E94D2110E949E1187E993E00E94D21138
:102A60000E949E1186EA93E00E94D21100932D01EC
:102A70008AE0809337011092350151C1023029F468
:102A8000009334010E9474124AC1033021F4009370
:102A9000340184E633C0043009F041C100933401AD
:102AA00088E72CC0063019F48EE6809335018091BA
:102AB00034018130C9F4013011F0023019F400936F
:102AC00035012DC1033031F484E0809335010E943B
:102AD0004F1225C1043011F485E010C0093009F00F
:102AE0001EC10E941A12C4C0823009F018C1013000
:102AF00011F489E012C1023041F48AE0809335017B
:102B000010922F01109237010AC1093009F007C154
:102B10008CE0809335010E94401201C1923089F10E
:102B2000FAE0EF16F10408F051C180913D01E82F61
:102B3000F0E0E65CFE4FE0828F5F80933D0100D0C5
:102B400000D000D0EDB7FEB731968E010F5F1F4F5A
:102B5000ADB7BEB712961C930E9311978FEA90E013
:102B600093838283F582E4820E94EE23EDB7FEB761
:102B700036960FB6F894FEBF0FBEEDBFC8010E9497
:102B80009812FAE0EF16F10428F0809135018230B6
:102B900009F01CC180913501823009F46BC083308B
:102BA00020F4813009F010C131C0833009F4BAC07B
:102BB000893009F009C180913D018230E9F490919A
:102BC0003A018AE0989F9001112480913B01280FDF
:102BD000311DC90101970C9750F4822F81508093C9
:102BE00018048BE0809335010E94A511D7C00E9484
:102BF0009E118AED95E0D0C088EE93E02CE231E0A2
:102C0000F9013197F1F70197D9F7E0C090913A01B6
:102C100080914001833050F5192F1150811731F107
:102C2000133020F580913E0190913F01181619064E
:102C30006CF40E949E1181E095E00E94D2110E94E6
:102C40009E110E944F121093410169C00E949E1173
:102C500084E195E00E94D2110E949E1187E080934A
:102C60003501109340010E94061459C00E949E1124
:102C700087E053C0B0923801A092390181E395E01A
:102C80000E94D211809138018F5F0E94C1190E9469
:102C9000981282EB90E00E949812809139018F5F28
:102CA0000E94C1190E94981285EB90E00E94981230
:102CB000809140018F5F0E94C1190E9498128EEB93
:102CC00090E00E94981280914001609139014091FA
:102CD00038010E9478100E94C1190E94981288EC55
:102CE00090E00E94981280913801E0913901F0E063
:102CF000A3E0EE0FFF1FAA95E1F7E80FF11DEF5CCF
:102D0000FB4F80810E94C1190E94981282ED90E0D1
:102D10000E9498120E949E1183E0809335011092C8
:102D20003D0152C080913D01833009F043C0909134
:102D30003A0184E6989FA001112480913B012AE08A
:102D4000829FC0011124480F591F80913C01480FF8
:102D5000511D4F3F5105E4F480913801E091390154
:102D6000F0E073E0EE0FFF1F7A95E1F7E80FF11D39
:102D7000EF5CFB4F408387E08093350180913E01FB
:102D800090913F01019690933F0180933E0106C0D0
:102D90000E949E118DE395E00E94D21183E0EAE348
:102DA000F1E0DF011D928A95E9F710923D010E9442
:102DB0009E110AC088EE93E02CE231E0F9013197D0
:102DC000F1F70197D9F702C00E94EB120F900F9014
:102DD0000F90CF91DF911F910F91FF90EF90DF90B7
:102DE000CF90BF90AF900895BF92CF92DF92EF92B5
:102DF000FF920F931F93CF93DF93EE24FF24CC24F5
:102E0000DD2418E8B12E1EC0809140018B9DC001C9
:102E100011240D968C0D9D1D8C0F9D1FF801619145
:102E20008F010E94F7252196C830D10569F70894D3
:102E3000E11CF11C88E090E0C80ED91E91E1E91672
:102E4000F10459F08701B3E0000F111FBA95E1F7C3
:102E50000F5C1B4FC0E0D0E0D7CF10923F01109223
:102E60003E0180913601843039F48093350110920F
:102E70002F011092370113C0813089F40E949E11F6
:102E800084E195E00E94D2110E949E1187E0809318
:102E9000350180914101809340010E9406140E94F7
:102EA000EB12DF91CF911F910F91FF90EF90DF9088
:102EB000CF90BF90089583E0EAE3F1E0DF011D9237
:102EC0008A95E9F710923D01109240011092340169
:102ED0000E9406140E9483130895FF920F931F937C
:102EE000182F062FF42E80912F018823E1F0809176
:102EF00035018B3079F588E8189FC00111240D96B3
:102F0000262F30E053E0220F331F5A95E1F7820F4E
:102F1000931F840F911D0E94EF25982F895C8C30A0
:102F2000A8F490E013C088E8189FC00111240D9602
:102F3000262F30E043E0220F331F4A95E1F7820F3E
:102F4000931F8F0D911D0E94EF25982F892F81507F
:102F50008E3F30F0812F602F4F2D0E947810982FD8
:102F6000892F1F910F91FF9008951F93982F8091A3
:102F70002F0180FD0FC0192F195C1C3058F40E94DE
:102F80002219882339F00E94CF19812F0E94E21361
:102F900081E001C080E01F91089580912F0180FFA2
:102FA0000DC081FD0BC00E944E08882339F080912E
:102FB0002F01826080932F010E945B1708958091FA
:102FC0002F01816080932F018091ED00815082302C
:102FD00018F40E94281F08C00E94C91B84EC99E0C5
:102FE0009093E0008093DF000E946D12089580911D
:102FF0002F018823C1F4809130018823A1F08091B2
:103000003101909132010196909332018093310108
:103010002091DF003091E0002817390724F4109246
:1030200030010E94DF1708950E94F71780912F0149
:1030300081FF36C080912D018823C9F00E9431198B
:103040008823A9F0809137018B3019F40E94F4167F
:103050000CC08A3019F40E94631307C08C3019F435
:103060000E94A91302C010922D0110923701809185
:103070002B018823A9F08091290190912A010196C2
:1030800090932A0180932901895E93404CF081E05E
:1030900080932C0189E26FEF4FEF20E00E944A14E9
:1030A00008950E940E22882319F01092330108958A
:1030B00080913301813021F40E94DF171092330197
:1030C0000895FC0190E007C08191841719F4292F1D
:1030D00030E005C09F5F9617B8F32FEF3FEFC901AF
:1030E0000895FC01808140E02FEF3FEF0CC051912B
:1030F000252F30E090E02817390719F02FEF3FEF28
:1031000004C04F5F852F461790F3C90108959B01B6
:10311000FC0101900020E9F73197E81BF90B6F5F84
:103120007F4F680F791FE21BF30B820F931FAF01D4
:103130000E94BB230895FF920F931F93F42E9B01CF
:10314000DC010D900020E9F78C01060F171FA81B6A
:10315000B90BA61BB70B2F5F3F4F820F931FB80110
:10316000AD010E94BB23F801F0821F910F91FF90E7
:103170000895462FDC010D900020E9F71197A81B58
:10318000B90BBD010E949B1808950F931F930091E6
:10319000420110914301039665E070E00E944E23C6
:1031A00080E090E02CE030E040E050E00E942323FB
:1031B000060F171F10934301009342011F910F91B7
:1031C0000895282F80917A0190917B01019660E00B
:1031D00071E00E946223FC0190937B0180937A014D
:1031E00080917801909179018E179F0759F400978B
:1031F00019F48FEF90E001C0019790937B018093C9
:103200007A010895E458FE4F2083089520917801B3
:103210003091790180917A0190917B0128173907CB
:1032200011F480E00895C901019660E071E00E9408
:103230006223FC019093790180937801E458FE4F5A
:103240008081089540E0209178013091790180914A
:103250007A0190917B012817390709F441E0842F06
:10326000089580917701882319F440E050E00FC061
:1032700040E050E0209178013091790180917A010D
:1032800090917B012817390711F441E050E0842F19
:103290000895809377010895982F81568A3118F404
:1032A000292F2D5510C0892F81548A3120F4292FC0
:1032B0002D5332E009C0892F8153893010F020E06E
:1032C00002C0292F235130E0892F992787FD90953F
:1032D000A92FB92FFC01B097EF35F10508F048C0D0
:1032E000E65DFF4FEE0FFF1F0590F491E02D09946E
:1032F0002EE141C02FE13FC020E23DC021E23BC0B2
:1033000022E239C023E237C024E235C025E233C0CF
:1033100026E231C027E22FC02CE22EC02DE22CC0C5
:103320002DE229C02EE228C02EE225C02FE224C0C3
:103330002FE221C020E320C020E31DC021E31CC0F8
:1033400021E319C023E318C023E315C024E314C00C
:1033500024E311C025E310C025E30DC026E30CC013
:1033600026E309C027E308C027E305C028E304C01B
:10337000222311F428E332E0832F922F089527E2CD
:10338000FBCF0F931F9304E711E090E0B8014AE0F0
:1033900050E00E94CD23C8011F910F910895209104
:1033A00078013091790180917A0190917B01281701
:1033B000390739F480E3E4E4F1E0DF011D928A95F6
:1033C000E9F708951F93CF93DF930E940619182FF2
:1033D000C4E4D1E0882331F480E3FE0111928A95A0
:1033E000E9F712C0FE0101900020E9F73197E4549B
:1033F000F140CE016E2F412F0E946118BC0197FD54
:1034000005C0CE010E94871880E005C0CE01612F63
:103410000E94B91881E0912FDF91CF911F910895FB
:10342000282F8F3F31F410927D0281E08093870234
:1034300008958E3F21F08D3F29F410927D02109265
:103440008702089580918702882351F080917D0240
:10345000E82FF0E0EF5AFC4F20838F5F80937D02CE
:103460008091850290918602019668EC70E00E943E
:103470006223FC01909386028093850280918302EF
:10348000909184028E179F0759F4009719F487ECE6
:1034900090E001C001979093860280938502089581
:1034A000E857FD4F208308952091830230918402D4
:1034B00080918502909186022817390711F480E0E7
:1034C0000895C901019668EC70E00E946223FC0136
:1034D0009093840280938302E857FD4F8081089582
:1034E00040E0209183023091840280918502909186
:1034F00086022817390709F441E0842F08951092B5
:103500008402109283021092860210928502109219
:103510007D0210927E0210925B0310925C03109267
:103520005D0310925E03E1EAF3E0119283E0E23B77
:10353000F807D9F70895EBEEF4E0119285E0EB3946
:10354000F807D9F72AEB32E006C0FC01E551FB4F42
:10355000808182608083F901849190E02F5F3F4FEA
:10356000009799F72DEB32E006C0FC01E551FB4FC7
:10357000808184608083F901849190E02F5F3F4FC8
:10358000009799F721EC32E006C0FC01E551FB4FB2
:10359000808188608083F901849190E02F5F3F4FA4
:1035A000009799F726EC32E006C0FC01E551FB4F8D
:1035B000808181608083F901849190E02F5F3F4F8B
:1035C000009799F724EF32E006C0FC01E551FB4F6C
:1035D000808180618083F901849190E02F5F3F4F6B
:1035E000009799F7E1EAF3E0119283E0E23BF807F4
:1035F000D9F708950E94221990E0882309F491E0F8
:10360000892F089581E08093A0030E94C4070E943F
:1036100051180895FF920F931F93CF93DF93F62EC7
:10362000882309F4ADC00E946A10182F853D08F068
:10363000A7C087568830D0F4E12FF0E09091820245
:10364000FF2039F0EE0FFF1FE856F0408081982BE5
:1036500007C0EE0FFF1FE856F04080818095982349
:1036600090938202809182020E946311812F90E0E8
:10367000FC01EE56FE4F0491FF2009F450C0109358
:10368000500310925B0310925C0310925D03109242
:103690005E0310929C05EC01C551DB4F888181FFD0
:1036A0002EC0163421F0183409F06CC00EC08FEF14
:1036B0000E94101A80EE0E94101A82E10E94101AD5
:1036C00080EE0E94101A8CE726C08DEF0E94101A1F
:1036D00081EE0E94101A84E10E94101A87E70E946E
:1036E000101A81EE0E94101A80EF0E94101A84E1D5
:1036F0000E94101A80EF0E94101A87E73BC082FDDB
:1037000038C08FEF0E94101A888180FF03C080EEBE
:103710000E94101A802F0E94101A8EEF2BC08091E9
:103720005003811711F410927D02E12FF0E0E55172
:10373000FB4F808181FF13C0163421F580EE0E947B
:10374000101A80EF0E94101A8CE70E94101A80EE67
:103750000E94101A80EF0E94101A82E10BC082FDB5
:1037600011C080FF03C080EE0E94101A80EF0E94FB
:10377000101A802F0E94101A8CEF0E94101A02C09B
:1037800080E001C081E0DF91CF911F910F91FF9008
:10379000089588E660E00E940A1B87E660E00E94C8
:1037A0000A1B89E660E00E940A1B0895DF92EF92EF
:1037B000FF920F931F93182F062FE42ED22E0E94F4
:1037C000320AF82E002339F0112329F08AE09BE118
:1037D00061E00E94E1100E945B11882339F0812F83
:1037E0006E2D4D2D202F0E944A1402C0FF2011F48F
:1037F00080E005C0812F602F0E940A1B81E01F918D
:103800000F91FF90EF90DF9008954F925F926F922B
:103810007F928F929F92AF92BF92CF92DF92EF9260
:10382000FF920F931F93CF93DF930E942219882357
:1038300049F081E00E9449190E946509882309F432
:10384000CCC014C080E00E9449190E94E219813066
:1038500041F4892F61E00E940A1B8DEF0E94101A2B
:10386000BCC0892F60E00E940A1BB7C00E94740987
:10387000782E0E94B9084C0180918102871509F4C5
:1038800046C0EE24FF2441E0442E512C34C0F40104
:10389000EC0FFD1F0081FE01EF55FC4F80818B2155
:1038A000F9F0809181026C2F4C2D0E946D17D82E5B
:1038B000872D6C2F4C2D0E946D17182FD81681F074
:1038C000882371F08D2D60E04C2D2C2F0E94D61B8B
:1038D0000B2131F0812F61E04C2D2C2F0E94D61B43
:1038E0002196C131D10599F60894E11CF11C88E0BC
:1038F000E816F10461F0CE2CC2010E2C02C0880F34
:10390000991F0A94E2F7B82EC0E0D0E0C0CF7092C1
:103910008102AA24A394CC24DD2431E0432E512C2F
:103920003EC0EC2EFE01EF55FC4FF080F401EC0F91
:10393000FD1F10811621872D6C2F4B2D0E946D17B6
:10394000082F112339F0882329F00E94B517882306
:1039500009F043C0F620F116B9F00E940E22882328
:1039600039F01123A9F08E2D6B2D0E94112210C069
:10397000112319F0802F61E002C0802F60E04B2DF1
:103980002E2D0E94D61BA8222196C131D10549F6C1
:103990000894C11CD11C88E0C816D10461F0BC2C6D
:1039A000C2010C2C02C0880F991F0A94E2F7682EFE
:1039B000C0E0D0E0B6CF20E030E0F901EF55FC4F99
:1039C000D401A20FB31F8C9180832F5F3F4F213111
:1039D000310599F72A2D30E002C020E030E0C9011E
:1039E000DF91CF911F910F91FF90EF90DF90CF90DB
:1039F000BF90AF909F908F907F906F905F904F900F
:103A000008951F93162F8E3F11F080939B050E94FF
:103A1000BD0D10939C051F9108958F929F92AF92B8
:103A2000BF92CF92DF92EF92FF920F931F9388E0A5
:103A300080939C050E94E40E0E949B1A0E943C0801
:103A40000E947F1A789416E9812E99249394B5E008
:103A5000AB2EB12CC12CD12C8091ED008823F9F430
:103A60008091A0038823D9F480919E0390919F03B5
:103A7000019690939F0380939E030197815D9740E9
:103A800074F081E08093ED001F910F91FF90EF9013
:103A9000DF90CF90BF90AF909F908F9008958091CE
:103AA000E10382FFC0C080917F02909180028C3F31
:103AB000910561F02091830230918402809185020A
:103AC000909186022817390709F0ADC00E94CC0DED
:103AD000182F60919C05623009F457C0633018F4C8
:103AE000613039F44CC0663009F48DC0673009F498
:103AF00055C0133F71F1143F60F41E3EC9F01F3EE4
:103B000018F41D3EA9F522C0103FE9F0123F81F5DF
:103B100011C0163F09F1173F30F4143F09F481C07A
:103B2000153F31F57EC01E3F59F01F3F09F505C016
:103B30008EEE72C18AEF64E06FC18AEF68E06CC1FB
:103B400080919B0569C18AEF62E066C18AEF66E0F9
:103B500063C18AEF67E060C19092E100A092E20049
:103B6000B092E300C092E400D092E5000E947F1A78
:103B70008AEF60E00E94011D0E94021B6DCF853F0D
:103B800009F44FC08AEF61E047C10E947F1A1123F8
:103B900011F060E001C063E08AEF3EC1682F70E081
:103BA000CB0180769070A5E095958795AA95E1F771
:103BB0008093E100AB0148715070F3E05595479553
:103BC000FA95E1F780E090E021E030E003C0220FB9
:103BD000331F019684179507D4F367707070269F82
:103BE000C001279F900D369F900D1124AA2797FDA5
:103BF000A095BA2F8093E2009093E300A093E40095
:103C0000B093E5000EC00E94021B912F80E010FDD2
:103C100084E091FD816092FD82600E94B7040E9461
:103C200083058AEFF8C08091E10384FF15CF80916E
:103C30009C05843009F4E7C0853030F4882371F0A6
:103C4000833009F009CFDDC0883009F4E1C08C3041
:103C500009F45FC0853009F0FFCED8C020918302FF
:103C6000309184028091850290918602281739074D
:103C700011F40E94051C809106010E9432070E94E7
:103C8000541A282F30E03093800220937F022C3F7B
:103C9000310509F4E1CE232B21F060E00E94011DE3
:103CA00060C080917D02882309F4D6CE20915B0309
:103CB00030915C0340915D0350915E032F5F3F4F55
:103CC0004F4F5F4F20935B0330935C0340935D0342
:103CD00050935E038091E100889DC00111248A51B8
:103CE0009F4FAA2797FDA095BA2F281739074A0793
:103CF0005B070CF4B1CE10925B0310925C03109240
:103D00005D0310925E0310927E028CE080939C050E
:103D1000A3CE80917E02882311F40E94051C80911D
:103D200006010E94320780917D028823C1F0209114
:103D30008302309184028091850290918602281737
:103D4000390769F480915B0390915C03A0915D0356
:103D5000B0915E030197A105B10561F40FC0109207
:103D60009C0510925B0310925C0310925D0310920D
:103D70005E0372CE80917E028823A9F090917E022C
:103D8000E92FF0E0EF5AFC4F80819F5F90937E0215
:103D90006CE00E94011D60917D0280917E020E9474
:103DA000422390937E02E0905B03F0905C030091CD
:103DB0005D0310915E030894E11CF11C011D111DAF
:103DC0006091E2007091E3008091E4009091E50041
:103DD0002AE030E040E050E00E9423239B01AC0148
:103DE0002D5F3F4F4F4F5F4FC801B7010E94972390
:103DF00060935B0370935C0380935D0390935E0319
:103E00002BCE82E008C08BEA65E006C083E803C0E1
:103E10000E947F1A8AEA60E00E94011D1DCE8091F7
:103E20006103882331F40E94221920E030E08823C6
:103E300011F421E030E0822F089588E0E4E6F3E019
:103E4000DF011D928A95E9F781E08093640308956C
:103E500080E3EDE6F3E0DF011D928A95E9F708952E
:103E60000E946A10982F853D08F042C081578A3120
:103E700098F481E080935F03E92FF0E0EE0FFF1FDD
:103E8000E05AFE4F2591349182E0809364032093A1
:103E90006503309366032CC0892F8756883068F4F9
:103EA000E92FF0E0EE0FFF1FE856F040808190917F
:103EB0006503892B809365031BC09923C9F020916A
:103EC0009D052830A8F4892F8D58823248F4E92FB7
:103ED000F0E0EE0FFF1FE45AFE4F85919491982F6A
:103EE000E22FF0E0EC59FC4F90832F5F20939D056B
:103EF00080E008959F92AF92BF92CF92DF92EF92AF
:103F0000FF920F931F93CF93DF930E941D1F0E9478
:103F10005B118823D9F50E94B9087C010E947409BD
:103F2000982E00E010E051E0A52EB12C23C0F7013F
:103F3000EC0FFD1F80818D21A1F0892D6C2F4C2D60
:103F40000E946D17E82F8756883058F4F0E0EE0F86
:103F5000FF1FE856F040808190916503892B809384
:103F600065032196C131D10511F70F5F1F4F08304E
:103F7000110561F0C02EC501002E02C0880F991FE7
:103F80000A94E2F7D82EC0E0D0E0D1CF0E942219E7
:103F9000882309F045C00E94E219E4E4F1E0DF0162
:103FA0000D900020E9F71197AE1BBF0B82E08093C4
:103FB0009D05EF01EA2EFF246F01CE0CDF1C3DE6CC
:103FC000A32E33E0B32E1AC01881812F8756883074
:103FD00080F0F50101900020E9F73197ED56F340AC
:103FE0008DE693E06E2F412F0E9461188F5F9F4FE7
:103FF00021F4812F61E00E94301F219644E451E0BA
:10400000CC15DD0509F781E0809361032DE633E0EF
:10401000F7013196C901BA01AF010E94B22306C06F
:1040200080916103882311F01092610381E0DF9198
:10403000CF911F910F91FF90EF90DF90CF90BF90A5
:10404000AF909F9008952F923F924F925F926F9200
:104050007F928F929F92AF92BF92CF92DF92EF9218
:10406000FF920F931F93DF93CF930F92CDB7DEB7DD
:104070000E946509882309F4C8C00E947409682E4B
:1040800082E080939D050E941D1F0E94B9084C018B
:104090001982CC24DD2461E0462E512C73C0B22C51
:1040A000F101EF55FC4F0081F401E20DF31DF080AA
:1040B000F720862D622D4A2D0E946D17182FFF20A4
:1040C00039F0882329F00E94B517882309F09DC094
:1040D000E72CE022EF1409F440C00E940E2288234E
:1040E00049F0FF2021F08B2D6A2D0E9411220E94A1
:1040F000441141C0112309F49DC0FF2069F0812FB4
:1041000061E00E94320A082F0E94441180E39FE17F
:1041100061E00E94E11007C0812F60E00E94320A36
:10412000082FEE20C1F00E945B118823A1F0FF2030
:1041300049F0812F6A2D4B2D21E00E944A1481E025
:10414000898311C0812F6A2D4B2D20E00E944A14D3
:1041500091E0998308C0002331F0FF2021F0812FE6
:1041600061E00E94301F0894211C311CE1E12E16F1
:10417000310409F094CF0894C11CD11CF8E0CF168B
:10418000D10461F0AC2CC2010C2C02C0880F991F25
:104190000A94E2F7782E2224332481CF809164039D
:1041A000813069F49091650380916203981739F02A
:1041B000892F0E946311809165038093620380912F
:1041C0005F03882369F080916403823049F082E0C4
:1041D00080936403109265031092660310925F034C
:1041E00020E030E0F901EF55FC4FD401A20FB31FDE
:1041F0008C9180832F5F3F4F2131310599F780E00B
:104200009981913019F081E001C080E00F90CF9149
:10421000DF911F910F91FF90EF90DF90CF90BF90B3
:10422000AF909F908F907F906F905F904F903F9056
:104230002F90089501E077CFEF92FF920F931F9395
:104240000E94FA0E8B9A20E048EB5BE0CA010197CE
:10425000F1F72150D9F78B98789400E010E0EE2424
:10426000E3948091ED008130D9F48091A0038823FC
:10427000B9F480919E0390919F03019690939F03C0
:1042800080939E030197815D974054F01092ED005A
:104290008BB78F7B8BBF1F910F91FF90EF9008958D
:1042A0000E94070F002399F40E942320082F08B6CC
:1042B00000FE0FC0E8BEF0906C03FF2051F01530F7
:1042C00010F401E007C07BEFF72EF10E03C00E944F
:1042D0002320F12E8091ED0384FF2EC08091600396
:1042E000882361F0109260030E941D1F84E693E012
:1042F00068E00E943C100E9451181EC00E940F1FCF
:10430000882341F00E947A1F84E693E068E00E94CF
:104310003C1012C0002381F080916403823021F4AC
:1043200084E693E063E005C0813029F484E693E0FD
:1043300068E00E943C1000E00E941D11809106017F
:104340000E9432070E940F1F882311F080E001C0F5
:1043500081E00E9449191F2D84CF81E08093600382
:104360000E94C4070E9444110895CF93DF9321E077
:104370002093A003EC01809164038093FC031092CE
:10438000FD0388818076803271F58981813011F456
:1043900088E02AC0893041F48E819F81029719F507
:1043A000209363038FEF20C0823019F480916C0357
:1043B00014C08A3031F40E94AD218B8180936C034C
:1043C00012C0833031F48B81882369F41092E600A7
:1043D0000BC08B3041F48091E6008093FC03109277
:1043E000FD0381E001C080E0DF91CF910895FC01E1
:1043F00080916303882351F0623041F480818130E1
:1044000029F481810E94B7040E94830510926303FE
:1044100081E0089581E080939D03089580919D033C
:1044200008950F931F93082F162F87EE90E00E9498
:104430009812812F0E94C1190E94981289EE90E073
:104440000E949812802F0E94C1190E9498128BEE30
:1044500090E00E9498121F910F9108958D98959A5F
:1044600008958D9A959808951F9310E0812F0E94CA
:10447000FF0A1F5F1730D1F789B78E7F89BF89B7D1
:104480008B7F89BF89B78F7B89BF1F9108951F9349
:10449000182F0E9432080E949C0481B38C6081BB5B
:1044A00082B3837F82BB112379F08BE090E00E947E
:1044B000C51881B3837F81BB83B7856083BF0E94AA
:1044C00034228D98959A02C08D9A95981F910895DF
:1044D000F8940E94BD0410929F0310929E031092C4
:1044E000A00308958F929F92BF92CF92DF92EF9296
:1044F000FF920F931F93CF93DF938FEF8093ED0085
:104500000E94320881E090E00E94C51810E00E94ED
:10451000BC08882319F41F5F1E31C9F70E94B9082F
:104520006C01FF2400E010E081E0882E912C29C06E
:104530006C2FF601EC0FFD1F80818B21C9F0C1307B
:1045400031F481E0E81619F40E940A2211C080E0DB
:104550004E2D0E947810803119F40E94861108C0F7
:10456000883111F481E003C0833111F482E0F82A2C
:104570002196C131D105E1F60F5F1F4F08301105BB
:1045800061F0E02EC401002E02C0880F991F0A942A
:10459000E2F7B82EC0E0D0E0CBCFFF2019F0F394C3
:1045A000F092ED006091ED00643021F48CE090E039
:1045B0006FEF04C0643028F48CE090E00E94F7258F
:1045C00006C08CE090E00E94EF258093ED008A9871
:1045D000929A2091ED002430D0F080E090E0829912
:1045E00007C092FD09C08F5F863060F021E00AC0ED
:1045F000829B09C092FD02C080E004C08F5F8630BC
:1046000008F020E090B3223050F72093ED00809125
:10461000ED008150823038F40E94682281E00E94CF
:1046200047220E941C218091ED00882311F08330E5
:1046300071F70E94A5040E94682280E00E94472230
:104640000E940D1DE4CF629FD001739FF001829FF5
:10465000E00DF11D649FE00DF11D929FF00D839F11
:10466000F00D749FF00D659FF00D9927729FB00DAE
:10467000E11DF91F639FB00DE11DF91FBD01CF01C1
:1046800011240895991B79E004C0991F961708F02A
:10469000961B881F7A95C9F780950895AA1BBB1BA6
:1046A00051E107C0AA1FBB1FA617B70710F0A61B32
:1046B000B70B881F991F5A95A9F780959095BC0153
:1046C000CD01089597FB092E07260AD077FD04D067
:1046D000E5DF06D000201AF4709561957F4F0895AC
:1046E000F6F7909581959F4F0895A1E21A2EAA1B87
:1046F000BB1BFD010DC0AA1FBB1FEE1FFF1FA21792
:10470000B307E407F50720F0A21BB30BE40BF50B8E
:10471000661F771F881F991F1A9469F76095709517
:10472000809590959B01AC01BD01CF01089597FB49
:10473000092E05260ED057FD04D0D7DF0AD0001C65
:1047400038F450954095309521953F4F4F4F5F4F2E
:104750000895F6F790958095709561957F4F8F4FEE
:104760009F4F0895FB01DC0102C001900D92415062
:104770005040D8F708956817790768F4FB01DC0109
:10478000E40FF51FA40FB51F02C002900E92415016
:104790005040D8F708950C94B223FB019F01E89490
:1047A0004230C4F04532B4F44A3029F497FB1EF489
:1047B000909581959F4F642F77270E944E23805DAF
:1047C0008A330CF0895D8193CB010097A1F716F431
:1047D0005DE251931082C9010C941A26AEE0B0E05C
:1047E000E4EFF3E20C94C2260D891E8986E08C83E7
:1047F0001A8309838FEF9FE79E838D839E01275E37
:104800003F4FCE0101966F89788DA9010E94122435
:104810002F813885020F131FF80110822E96E4E0D5
:104820000C94DE26ABE0B0E0E8E1F4E20C94B426B0
:104830003C012B015A01FC0117821682838181FD04
:1048400003C06FEF7FEFC6C19AE0892E1E01089466
:10485000211C311CF3012381F20123FD859123FFEB
:1048600081912F01882309F4B2C1853239F423FDE7
:10487000859123FF81912F01853229F490E0B301C6
:104880000E942A26E7CF982FFF24EE249924FFE1E7
:10489000FF15D0F09B3269F09C3228F4903259F029
:1048A000933291F40EC09D3249F0903369F441E0A7
:1048B00024C052E0F52A84E0F82A28C098E0F92ABA
:1048C00025C0E0E1FE2A22C0F7FC29C0892F8053D1
:1048D0008A3070F4F6FE05C0989C902C1124980E36
:1048E00015C0E89CE02C1124E80EF0E2FF2A0EC06F
:1048F0009E3229F4F6FC6BC140E4F42A07C09C36D2
:1049000019F450E8F52A02C0983649F4F20123FD63
:10491000959123FF91912F01992309F0B8CF892F09
:104920008554833018F08052833038F444E050E0EE
:10493000A40EB51E5FE359830FC0933631F0933751
:1049400079F0933509F056C020C0F5018081898344
:1049500042E050E0A40EB51E610101E010E012C07B
:10496000F501C080D180F6FC03C06FEF7FEF02C07D
:10497000692D70E042E050E0A40EB51EC6010E9411
:104980000F268C015FE7F52214C0F501C080D180AD
:10499000F6FC03C06FEF7FEF02C0692D70E042E0CC
:1049A00050E0A40EB51EC6010E9404268C0150E8FA
:1049B000F52AF3FE07C01AC080E290E0B3010E941E
:1049C0002A26EA948E2D90E008171907A8F30EC046
:1049D000F601F7FC8591F7FE81916F0190E0B3013C
:1049E0000E942A26E110EA94015010400115110599
:1049F00079F7EAC0943611F0993669F5F7FE08C0E8
:104A0000F501208131814281538184E090E00AC028
:104A1000F501808191819C01442737FD4095542FF9
:104A200082E090E0A80EB91E9FE6F92257FF09C068
:104A300050954095309521953F4F4F4F5F4FE0E89F
:104A4000FE2ACA01B901A1012AE030E00E945626DF
:104A5000D82ED21840C0953729F41F2D1F7E2AE08A
:104A600030E01DC01F2D197F9F3661F0903720F474
:104A7000983509F0ACC00FC0903739F0983709F07D
:104A8000A6C004C028E030E00AC0106114FD146024
:104A900020E130E004C014FD166020E132E017FF91
:104AA00008C0F501608171818281938144E050E00A
:104AB00008C0F50180819181BC0180E090E042E076
:104AC00050E0A40EB51EA1010E945626D82ED21881
:104AD0008FE7F82EF122F6FE0BC05EEFF522D91417
:104AE00038F4F4FE07C0F2FC05C08FEEF82202C0D5
:104AF0001D2D01C0192DF4FE0DC0FE01ED0DF11D9F
:104B00008081803319F499EEF92208C01F5FF2FE0C
:104B100005C003C08F2D867809F01F5F0F2DF3FCB1
:104B200014C0F0FE0FC01E1510F09D2C0BC09D2C64
:104B30009E0C911A1E2D06C080E290E0B3010E94E7
:104B40002A261F5F1E15C0F304C01E1510F4E11ABB
:104B500001C0EE2404FF0FC080E390E0B3010E9487
:104B60002A2602FF1DC001FD03C088E790E00EC0A9
:104B700088E590E00BC0802F867891F001FF02C09D
:104B80008BE201C080E2F7FC8DE290E0B3010E946D
:104B90002A2606C080E390E0B3010E942A269A9458
:104BA000D914C0F3DA94F101ED0DF11D808190E08C
:104BB000B3010E942A26DD20A9F706C080E290E01A
:104BC000B3010E942A26EA94EE20C1F743CEF301F6
:104BD00066817781CB012B96E2E10C94D026E19996
:104BE000FECF9FBB8EBBE09A99278DB30895262FE9
:104BF000E199FECF9FBB8EBB2DBB0FB6F894E29A16
:104C0000E19A0FBE01960895FC0105906150704035
:104C10000110D8F7809590958E0F9F1F0895FC0185
:104C20006150704001900110D8F7809590958E0FDB
:104C30009F1F0895DC01FC01672F71917723E1F735
:104C4000329704C07C916D9370836291AE17BF0759
:104C5000C8F308950F931F93CF93DF938C01EB015B
:104C60008B8181FF1BC082FF0DC02E813F818C8113
:104C70009D812817390764F4E881F9810193F9834C
:104C8000E88306C0E885F985802F0995892B31F4E2
:104C90008E819F8101969F838E8302C00FEF1FEF4D
:104CA000C801DF91CF911F910F910895FA01AA27B2
:104CB000283051F1203181F1E8946F936E7F6E5F5F
:104CC0007F4F8F4F9F4FAF4FB1E03ED0B4E03CD00D
:104CD000670F781F891F9A1FA11D680F791F8A1FF0
:104CE000911DA11D6A0F711D811D911DA11D20D057
:104CF00009F468943F912AE0269F11243019305D11
:104D00003193DEF6CF010895462F4770405D419301
:104D1000B3E00FD0C9F7F6CF462F4F70405D4A334E
:104D200018F0495D31FD4052419302D0A9F7EACF16
:104D3000B4E0A6959795879577956795BA95C9F745
:104D400000976105710508959B01AC010A2E069438
:104D50005795479537952795BA95C9F7620F731FF1
:104D6000841F951FA01D08952F923F924F925F922E
:104D70006F927F928F929F92AF92BF92CF92DF926B
:104D8000EF92FF920F931F93CF93DF93CDB7DEB7D0
:104D9000CA1BDB0B0FB6F894DEBF0FBECDBF099464
:104DA0002A88398848885F846E847D848C849B84BB
:104DB000AA84B984C884DF80EE80FD800C811B81C9
:104DC000AA81B981CE0FD11D0FB6F894DEBF0FBEF8
:0A4DD000CDBFED010895F894FFCF68
:104DDA00080701FF0100010002000400080010009A
:104DEA0020004000800000010002000400080010BA
:104DFA000020004000800A055AFFFEFEF8F86C6C9D
:104E0A0068686D6D69696B6B67678E8D8E8D8E8D27
:104E1A008E8D8E8D8E8D8E8D8E8D006525630025EF
:104E2A0064002C200020286C617965723D002064A2
:104E3A00656661756C743D00206D617070696E679E
:104E4A003D002900271E1F202122232425262988E8
:0E4E5A00130205000000012D002C003D00FF9A
:00000001FF
