:100000000C946D030C94A5030C948A030C948A033E
:100010000C94940C0C94A00B0C94670C0C940D0C89
:100020000C943A0C0C94730B0C94E00B0C94200B76
:100030000C948A030C948A030C948A030C948A030C
:100040000C948A030C948A030C948A030C948A03FC
:100050000C948A03651951198119551957195919A1
:100060005D197F19611963195F196D19871967196E
:100070008B198F1998199119911991199119911931
:1000800091199119911991197D197B1989196B1978
:100090008D19931953199119911991199119911950
:1000A0009119911991199119911991199119911900
:1000B00091199119911991199119911991199119F0
:1000C000911991199119911991196F19771973193A
:1000D0005B1969198319911991199119911991193C
:1000E00091199119911991199119911991199119C0
:1000F00091199119911991199119911991199119B0
:1001000091199119911991199119711979197519F3
:1001100085190000010008004000000100040000F3
:1001200001000800200040008000000100040403DA
:1001300009041C03770069006E006B0065007900FC
:100140006C006500730073002E006B0072001003DA
:1001500070007300320061007600720055001201D9
:10016000100100000008424231E1000101020001DB
:10017000FEFEF8F86C6C68686D6D69696B6B67679B
:100180008E8D8E8D8E8D8E8D8E8D8E8D8E8D8E8D97
:100190000000FC001C322123242B3433433B424B10
:1001A0003A31444D152D1B2C3C2A1D22351A161EA2
:1001B00026252E363D3E46455A76660D294E555427
:1001C0005B5D5D4C520E41494A580506040C030B19
:1001D000830A010978077C7E7C706C7D71697A7472
:1001E0006B7275774A7C7B795A69727A6B73746C1F
:1001F000757D7071612F001412111F1459112700A1
:1002000000373F5E48103A38302820184D153B34EF
:10021000233221502B404B1C43221D0000F1F237AA
:100220000F08101820283038404850575F6D005193
:10023000136A64672700000063625F00000000002B
:100240000000000000008A0121022302240225028E
:10025000260227022A02B500B600B700CD00E20050
:10026000E900EA008301920194010000000000000F
:10027000000000009190666768696A6B6C6D6E6F34
:100280007071727385868788898A8B8C8D8E8F9228
:10029000939495969798464800488E8D0071727396
:1002A0008F006A6B6E6D6546494A4B4C4D4E5250FD
:1002B0004F5154587172737475767778797A7B7C64
:1002C0007D7E7F808182838485868788898A8F006E
:1002D000494C4A4D4B4E6A6E65504F525154007313
:1002E000656C656374206D6F646500313A4B6579A8
:1002F000204D617070696E6700323A4D6163726FB4
:1003000000333A4578697400343A626F6F74206D37
:10031000617070657200676F6F64206279657E003E
:10032000626F6F74206D617070657220737461729A
:100330007421004D6163726F00313A53656C6563DF
:1003400074204D6163726F20496E64657800323AA3
:100350004578697400393A436C65617220416C6C70
:1003600000363A4261636B004B6579204D617070D5
:10037000657200313A4368616E6765204C6179654A
:100380007200323A53656C656374204B6579202D99
:1003900020696E707574206B6579636F64650033D6
:1003A0003A5361766520616E642045786974003443
:1003B0003A4578697420776974686F757420536161
:1003C00076696E6700393A526573657420746F20E0
:1003D00044656661756C74202843757272656E742D
:1003E000204C617965722900707332617672550014
:1003F00063686F6F7365206C617965722028313A8C
:10040000206E6F726D616C2C20323A20464E2C208B
:10041000333A20464E32292063757272656E743D00
:10042000200073656C656374206B65792028616EAC
:1004300079206B657920796F752077616E7429203A
:1004400000696E707574206B6579636F6465202830
:100450006D7573742033206E756D6265727329201B
:100460003A200053617665202620457869742C2057
:100470007468616E6B20796F752E00457869742001
:10048000776974686F757420536176696E672C2084
:1004900073656520796F75206C617465722E0052EA
:1004A0006573657420746F2064656661756C742073
:1004B00063757272656E74206C6179657200496E45
:1004C00070757420436F6D6D616E64204E756D6242
:1004D00065723A20006E6F7468696E6700536176CA
:1004E000652063757272656E74206C617965720047
:1004F0004C6F61642063757272656E74206C6179F3
:10050000657200736176696E672E2E2E00636F6CC4
:100510002C20726F77203A2000696E76616C6964D6
:10052000206B6579636F64652C20696E707574202B
:10053000616761696E2E00696E707574204D61632C
:10054000726F20496E646578202830317E31322CFC
:10055000206D7573742032206E756D62657273291B
:10056000203A200045786974206D6163726F2C20F9
:1005700073656520796F75206C617465722E0069F2
:100580006E707574206B657920286D617820323427
:10059000206B6579732C2073746F70203A20707211
:1005A0006573732045534320647572696E6720310B
:1005B000207365632900696E76616C696420496EF9
:1005C0006465782C20696E70757420616761696E4E
:1005D0002E00636C6561722E2E2E0005010906A1A6
:1005E00001050719E029E715002501950875018126
:1005F000029501750881030507190029A495067560
:1006000008150026A400810095057501050819014B
:1006100029059102950175039103C005010902A105
:100620000185030901A10005091901290515002506
:100630000175019505810275039501810305010985
:100640003009311581257F75089502810609381515
:1006500081257F35004500750895018106050C0A46
:1006600038021581257F750895018106C0C00501F6
:100670000980A1018502150125B7190129B7751057
:1006800095018100C0050C0901A101850115012614
:100690009C0219012A9C02751095018100C0090273
:1006A0003B0002010080FA0904000001030101007F
:1006B0000921010100012240000705810308000A09
:1006C00009040100010300000009210101000122C9
:1006D00083000705830308000A0011241FBECFE52D
:1006E000D8E0DEBFCDBF10E0A0E6B0E0E4E8FFE474
:1006F00002C005900D92AC3CB107D9F715E0ACEC07
:10070000B0E001C01D92A938B107E1F70E94402373
:100710000C94C0270C940000A82FB92F80E090E023
:1007200041E050EA609530E009C02D91822797950D
:10073000879510F084279527305EC8F36F5FA8F384
:100740000895EADF8D939D930895CF93CFB7CF930C
:10075000C395839BE9F7839B0EC0839B0CC0839B4F
:100760000AC0839B08C0839B06C0C091DA03C3956F
:10077000C093DA03A3C0DF93C091D903DD27CF5123
:10078000DC4F839B02C0DF91E6CF2F930F931F9323
:1007900000B32FEF03FB20F94F933F9310B34FEFBC
:1007A000012703FB21F93BE031C04E7F012F10B33D
:1007B000216028C0102F4D7F2260000000B329C0A7
:1007C0004B7F2460012F000010B32BC010B3477F74
:1007D00028602AC04F7E00B320612CC04F7D10B32B
:1007E00020622FC04F7B00B3206432C0422700B389
:1007F00049934FEF0000102713FB20F910B31C7032
:10080000C9F1297F91F2012703FB21F900B3237F6E
:1008100089F2315058F1102713FB22F910B3277ECB
:1008200079F2012703FB23F92F7C81F200B3102713
:1008300013FB24F92F7971F200C010B3012703FBD9
:1008400025F92F7359F200C000B3102713FB26F9C6
:10085000223040F200C010B3012703FB27F92430F7
:1008600028F64F77206810B30000F9CF10E41ABFC4
:10087000002719C03B503195C31BD04010E41ABF6C
:100880000881033CF9F00B34E9F02091D70319817A
:10089000110F1213EDCF4A81441F093641F10D3279
:1008A00011F0013E29F70093DF033F914F911F9113
:1008B0000F912F91DF91CAB7C6FD4ACFCF91CFBF1D
:1008C000CF9118952091DF03222379F31091DD0356
:1008D0001123C1F53430C2F13093DD032093D803E6
:1008E0001091D9033BE0311B3093D9032DC0009107
:1008F000DD0301303CF50AE54F7049F430916600A4
:1009000034FD24C000936600C0ECD3E023C0433024
:1009100049F03091CB0334FD19C00093CB03CCECEC
:10092000D3E018C03091F70334FD10C00093F703F3
:10093000C8EFD3E00FC02795A8F45150A9F4220FB7
:100940000000F9CF4AE503C042ED01C0432FC4E1E6
:10095000D0E032E011B31C60939A11BB02B320E4E3
:100960001CE05F93012756E002BB279520F451500D
:1009700021F4220FF9CF012756E000003B5A02BBB9
:10098000D0F2279528F4515029F4220F0000F9CF16
:10099000012756E0279502BB20F4515021F4220F85
:1009A000F9CF012756E02991332302BB21F6037FBB
:1009B0001091DE03110FC651D04002BB11F010930D
:1009C000D70310E41ABF086011B3137F402F437F91
:1009D0005F9100C000C002BB11BB42BB66CF81B3B8
:1009E000836181BB82B38C7E82BB8E9A9698089578
:1009F0008091DF0090E0BC016170707080FF02C0E8
:100A0000909801C0909AAC014270507081FF02C072
:100A1000919801C0919A88EE93E02CE231E0F901BF
:100A20003197F1F70197D9F7672B11F0909A01C030
:100A30009098452B11F0919A08959198089580937C
:100A4000DF0008958091DF0008951092CC00089592
:100A50008091DF0080FF02C0909A01C0909881FFD2
:100A600002C0919A01C0919882FF02C0969A08959F
:100A7000969808952223A9F18091D3008330C1F480
:100A800084EF91E09093DB008093DA008091DD00A9
:100A90008C3038F58F5F8093DD009FEF899FC00118
:100AA00011246CE070E00E9437246093DC0008950C
:100AB0008430B9F484EF91E09093DB008093DA0006
:100AC0008091DD00882369F081508093DD009FEFE5
:100AD000899FC00111246CE070E00E94372460936C
:100AE000DC0008952091630030E0AC01429FC0011A
:100AF000439F900D529F900D11246FEF70E00E9464
:100B00003724CB0108959098919896988091D300BE
:100B1000823011F0843029F41092D9001092D8005C
:100B200008C0882311F0833021F481E08093DE0037
:100B300008951092DE000895089508950E941D0BF7
:100B400008958091DE00813059F18091D800909114
:100B5000D90068E070E00E943724CB019095819520
:100B60009F4F81509F4F0E94720590E00E941D0B85
:100B70008091D8009091D900885F974044F080E040
:100B800090E00E941D0B949881E08093DE0080919C
:100B9000D8009091D90001969093D9008093D80005
:100BA00008959091D300992319F480E090E010C04B
:100BB000913049F41092D9001092D8001092D700C9
:100BC0001092D6000895923031F48091630090E045
:100BD0000E941D0B0895892F83508230A0F483E07A
:100BE0008093DD00943019F481E08093DD008091E2
:100BF000DD009FEF899FC00111246CE070E00E942E
:100C000037246093DC0008950E9428050E94D105D6
:100C100008958091D30090E0019665E070E00E9415
:100C200037248093D30081E090E09093D2008093AA
:100C3000D1000E94D1050895809163008E31A1F00A
:100C40008951809363008E3118F48EE180936300A4
:100C50008091D300823011F40E94D10581E090E0B0
:100C60009093D2008093D1000895809163008F3FCC
:100C7000A9F090E049968F3F910511F00CF08FEFAD
:100C8000809363008091D300823011F40E94D105DB
:100C900081E090E09093D2008093D10008951F935B
:100CA0008091CC00882309F46FC10E94EC10882346
:100CB00019F00E94A10568C10E94121A182F0E9403
:100CC000ED19882311F042E004C0113009F045C04D
:100CD00041E08091CD009091CE0001969093CE009E
:100CE0008093CD0020916000309161002817390772
:100CF000DCF58091CF009091D00001969093D000C8
:100D00008093CF00893C91057CF18091DF00909128
:100D1000620080FF09C0913021F482B340954823DE
:100D200007C082B3482B09C0913021F482B3482B0D
:100D300042BB08C082B34095482342BB1092CE000C
:100D40001092CD008091620091E08927809362002B
:100D50001092D0001092CF0007C01092D0001092D5
:100D6000CF0081E0809362008091D1009091D20009
:100D70001816190624F501969093D2008093D1009D
:100D8000885E9340E1F41092D2001092D1006091FD
:100D9000D3008091D400681731F06093D4008BE0C9
:100DA00090E00E94CC26609163008091D500861768
:100DB00031F06093D50089E090E00E94CC268091CC
:100DC000D300813009F059C08091D6009091D700AE
:100DD000009761F48091D8009091D90068E070E0AC
:100DE0000E943724CB010E94720513C08230910506
:100DF000A1F48091D8009091D90068E070E00E9441
:100E00003724CB01909581959F4F81509F4F0E9431
:100E1000720590E00E941D0B0EC08130910511F00B
:100E2000039749F48091D8009091D900019690934E
:100E3000D9008093D8008091D8009091D900885F24
:100E400097408CF01092D9001092D8008091D60073
:100E50009091D700019664E070E00E94372490934F
:100E6000D7008093D6008091D8009091D900019648
:100E70009093D9008093D80087C08330D1F58091BA
:100E8000DA009091DB00009731F001979093DB003E
:100E90008093DA0028C02091DC002223F1F08091B9
:100EA000D8009091D90001969093D9008093D800F2
:100EB0000897CCF01092D9001092D80021502093BE
:100EC000DC008FEF90E0821B91096BEE7FEF0E94B8
:100ED0003724645F6093DD0006C01092DD0010923D
:100EE000D9001092D8008091DC0090E00E94720539
:100EF0003DC0843009F03EC08091DA009091DB0063
:100F0000009731F001979093DB008093DA0029C0BD
:100F10002091DC002F3FF1F08091D8009091D90012
:100F200001969093D9008093D8000897D4F010923E
:100F3000D9001092D8002F5F2093DC008FEF90E053
:100F4000821B91096BEE7FEF0E943724645F6093F0
:100F5000DD0007C08CE08093DD001092D900109274
:100F6000D8008091DC0090E00E94720590E00E9421
:100F70001D0B0AC01092D9001092D80083E090E0B7
:100F80009093D7008093D6001F91089589E090E058
:100F90000E94C426809363008093D5008BE090E08C
:100FA0000E94C4268093D3008F3F11F41092D30087
:100FB0008091D3008093D4000E94D1058091CB0012
:100FC000882311F0833051F480916000909161008A
:100FD0009595879590936100809360000895809126
:100FE000CC00882361F481E08093CC000E949209B8
:100FF00088E00E94C00A0E94050B0E94C60708955F
:1010000080E090E0FC01E057FC4F1082FC01EF55BE
:10101000FC4F1082019681319105A1F78AE08093FF
:10102000650008958FEF87BB88BB1ABA14BA8BBBD3
:1010300085BB8F98979A0E940008089581E080935D
:10104000E100E1EAF3E08081882319F01092E100E9
:1010500005C0319683E0E23BF807A9F78091E100F3
:10106000089581EA93E008958F929F92AF92BF9284
:10107000DF92EF92FF920F931F93CF93DF93DD24C4
:10108000C0E0D0E021E0E22EF12C97E1892E912CF6
:101090008FE0A82EB12C87010C2E02C0000F111F6B
:1010A0000A94E2F707BB802F809588BB81E090E02F
:1010B0000E949E18E1EAF3E040E050E0302F3095C6
:1010C000842F483048F429B3C701042E02C0880F8A
:1010D000991F0A94E2F711C08850883018F423B39E
:1010E000C50102C020B3C401841B950BB70102C027
:1010F000660F771F8A95E2F7CB0120952823908110
:10110000802F892319F0222329F008C0222331F0EF
:10111000902B01C093239083DD24D3944F5F5F4FC6
:1011200031964131510561F62196C830D10509F05B
:10113000B2CFDD2019F01092640007C080916400E6
:10114000843618F48F5F8093640020E090916400EF
:1011500080916500981709F421E0822FDF91CF91EB
:101160001F910F91FF90EF90DF90BF90AF909F90F5
:101170008F9008950E94340808954F925F926F9265
:101180007F929F92AF92BF92CF92DF92EF92FF92A7
:101190000F931F93CF93DF93EE24FF2451E0C52ECE
:1011A000D12C47E1442E512C3FE0632E712C68C0B6
:1011B0000C2F8091E0006C2F492D0E9442170E9455
:1011C0004010182F865F823060F01E3F51F0183FAC
:1011D00041F01B3F09F048C08091E000823009F0E7
:1011E00043C0A7BAB8BA81E090E00E949E180830C8
:1011F00048F429B3C6010C2E02C0880F991F0A9427
:10120000E2F711C00850083018F423B3C30102C03C
:1012100020B3C2018C1B9D0BA60102C0440F551FB9
:101220008A95E2F7CA0120952823F1F01E3F61F06C
:10123000183F09F444C0173F49F48091E100882326
:1012400099F081E08093E20011E03DC0163F41F447
:101250008091E100882341F082E08093E2002FC07A
:101260001B3F11F410E02FC02196C131D10509F0C8
:101270009FCF0894E11CF11C58E0E516F10471F0D1
:101280009E2CC6010E2C02C0880F991F0A94E2F70B
:10129000A82EB82EB094C0E0D0E08ACF0E941E08DD
:1012A000882311F01092E2001091E200112359F40A
:1012B0000E94121A813029F482E08093E00012E04B
:1012C00002C01092E000812FDF91CF911F910F910A
:1012D000FF90EF90DF90CF90BF90AF909F907F9066
:1012E0006F905F904F900895813011F090E006C0AC
:1012F00090E0613009F091E081E09827892F08950E
:10130000089583B7887F826083BF12BE89B78160EA
:1013100089BF1092B2031092B3031092B4031092DB
:10132000B50308958EB5887F83608EBD1DBC1CBC3F
:1013300089B7846089BF089585B5887F846085BD3D
:1013400014BC89B7806489BF1092BA031092BB03A2
:101350001092BC031092BD03089580E090E0FC0160
:10136000EE0FFF1FED51FF4F118210820196883062
:101370009105A9F70E9481090E9492090E949C0987
:101380007894089593B7987F982B93BF08959EB54E
:10139000987F982B9EBD089595B5987F982B95BD05
:1013A000089583B7E82FF0E0E770F070EE0FFF1FAD
:1013B000EE5EFE4F25913491C90108958EB5E82F58
:1013C000F0E0E770F070EE0FFF1FEE5EFE4F25912C
:1013D0003491C901089585B5E82FF0E0E770F07009
:1013E000EE0FFF1FE25EFE4F25913491C901089573
:1013F000883040F4E82FF0E0EE0FFF1FED51FF4F73
:10140000718360830895883040F4E82FF0E0EE0F98
:10141000FF1FED51FF4F118210820895EF92FF924E
:101420000F931F93CF93DF93EC0112B71092B60383
:101430001092B7031092B8031092B90383B7E82F44
:10144000F0E0E770F070EE0FFF1FEE5EFE4F2591AB
:10145000349140E050E060E07BE187EB90E00E9457
:101460004A24B901CA01693B2DE8720726E08207C8
:1014700020E09207A0F437E2C131D30780F49E0147
:1014800040E050E00E94F82328EE33E040E050E0D6
:101490000E944A24C901DA01BC01CD0121C028EE15
:1014A00033E040E050E00E944A24CA01B9019E01A5
:1014B00040E050E00E94F82313C08091B603909161
:1014C000B703A091B803B091B90385B78F7885BFF2
:1014D00085B7806885BF889585B78F7785BF08C039
:1014E0009B01AC01210F311D411D511D79018A0164
:1014F0002091B6033091B7034091B8035091B903DE
:1015000082B790E0A0E0B0E0542F432F322F222783
:10151000822B932BA42BB52B8E159F05A007B1070B
:1015200060F2DF91CF911F910F91FF90EF9008959E
:101530001092B2031092B3031092B4031092B50349
:1015400008952091B2033091B3034091B4035091B8
:10155000B503B901CA0108951092BA031092BB03F2
:101560001092BC031092BD0308952091BA033091EC
:10157000BB034091BC035091BD03B901CA0108955A
:10158000893031F48FB582608FBD8FB58E7F0AC0F0
:101590008A3019F48FB5826002C08FB58D7F8FBD00
:1015A0008FB581608FBD1BBC1ABC19BC18BC0895D7
:1015B0002FB52E7F2FBD2FB522602FBD2EB52860F1
:1015C0002EBD2EB520612EBD97BD86BD1BBC1ABC9D
:1015D00019BC18BC08958FB58D7F8FBD8FB58E7FD8
:1015E0008FBD8FB58F778FBD8FB58F7B8FBD8FB53B
:1015F0008F7D8FBD8FB58F7E8FBD08958FB580682D
:101600008FBD8FB58F7B8FBD08958FB580628FBDE5
:101610008FB58F7E8FBD08958FB58F778FBD8FB5B6
:101620008F7B8FBD08958FB58F7D8FBD8FB58F7EDA
:101630008FBD08959BBD8ABD089599BD88BD08954D
:101640001F920F920FB60F9211242F933F934F9337
:101650005F936F937F938F939F93AF93BF93EF931A
:10166000FF938091B2039091B303A091B403B09122
:10167000B5030196A11DB11D8093B2039093B303EE
:10168000A093B403B093B5038091B6039091B703D0
:10169000A091B803B091B9030196A11DB11D80932B
:1016A000B6039093B703A093B803B093B9038091A6
:1016B000E3009091E400892B29F0E091E300F091A0
:1016C000E4000995FF91EF91BF91AF919F918F91A8
:1016D0007F916F915F914F913F912F910F900FBE2E
:1016E0000F901F9018951F920F920FB60F92112412
:1016F0002F933F934F935F936F937F938F939F931A
:10170000AF93BF93EF93FF938091E5009091E60034
:10171000892B29F0E091E500F091E6000995FF9111
:10172000EF91BF91AF919F918F917F916F915F9159
:101730004F913F912F910F900FBE0F901F901895D2
:101740001F920F920FB60F9211242F933F934F9336
:101750005F936F937F938F939F93AF93BF93EF9319
:10176000FF938091BA039091BB03A091BC03B09109
:10177000BD030196A11DB11D8093BA039093BB03D5
:10178000A093BC03B093BD038091ED009091EE0057
:10179000892B29F0E091ED00F091EE000995FF9181
:1017A000EF91BF91AF919F918F917F916F915F91D9
:1017B0004F913F912F910F900FBE0F901F90189552
:1017C0001F920F920FB60F9211242F933F934F93B6
:1017D0005F936F937F938F939F93AF93BF93EF9399
:1017E000FF938091F1009091F200892B29F0E09114
:1017F000F100F091F2000995FF91EF91BF91AF9147
:101800009F918F917F916F915F914F913F912F9118
:101810000F900FBE0F901F9018951F920F920FB64A
:101820000F9211242F933F934F935F936F937F9366
:101830008F939F93AF93BF93EF93FF938091E700B4
:101840009091E800892B29F0E091E700F091E80001
:101850000995FF91EF91BF91AF919F918F917F91EA
:101860006F915F914F913F912F910F900FBE0F900D
:101870001F9018951F920F920FB60F9211242F935D
:101880003F934F935F936F937F938F939F93AF9308
:10189000BF93EF93FF938091E9009091EA00892B29
:1018A00029F0E091E900F091EA000995FF91EF91AC
:1018B000BF91AF919F918F917F916F915F914F9168
:1018C0003F912F910F900FBE0F901F9018951F9270
:1018D0000F920FB60F9211242F933F934F935F9364
:1018E0006F937F938F939F93AF93BF93EF93FF93E8
:1018F0008091EB009091EC00892B29F0E091EB00B6
:10190000F091EC000995FF91EF91BF91AF919F91FC
:101910008F917F916F915F914F913F912F910F9098
:101920000FBE0F901F9018951F920F920FB60F9237
:1019300011242F933F934F935F936F937F938F93D4
:101940009F93AF93BF93EF93FF938091EF0090919C
:10195000F000892B29F0E091EF00F091F00009955B
:10196000FF91EF91BF91AF919F918F917F916F9177
:101970005F914F913F912F910F900FBE0F901F904D
:1019800018958093F400F8948091BF038F7E809324
:10199000BF038091BF0388608093BF03789408954C
:1019A000F8948091BF038B7F8093BF0378948091DC
:1019B000F30008958FEC82BF8091BE03833000F561
:1019C0008B98939A8091BF0380FF23C0829BA3C012
:1019D0008091BE03813031F0813040F0823009F0D7
:1019E000F6C006C0839902C08DE096C082E094C024
:1019F0008091BF0383FFEBC093988B9A84E28CC0E5
:101A00008091BE038A3108F079C08091BF0380FDC8
:101A100008C08091BF0381608093BF038A98929A27
:101A20000895829B76C08091BE03873140F4803157
:101A300018F58D3061F08F3009F055C00CC0883139
:101A4000E1F1883158F1893109F04DC049C08091E8
:101A5000BF038D7F4DC08091BF038B7F8093BF03F9
:101A6000839B05C080E88093F30081E014C010924E
:101A7000F6001092F30037C08091F30086958093B2
:101A8000F300839B30C08091F30080688093F30063
:101A90008091F6008F5F8093F60025C0839B05C080
:101AA0008091F6008F5F8093F6008091F60080FDB4
:101AB0001AC08091BF03826010C0839905C08091D5
:101AC000BF0382608093BF038091BF0381FD0BC081
:101AD00093988B9A8091BF0384608093BF0303C067
:101AE0008B98939A6CC092988A9A8091BF038E7F4C
:101AF0008093BF038091BE038F5F0EC08091BE03B1
:101B00008F3208F064C08091BF0380FF10C08299BB
:101B100006C08B98939A81E08093BE0308958091CC
:101B2000BF038E7F8093BF0392988A9A0895809115
:101B3000BF0381608093BF038A98929A8091BE030D
:101B40008C3228F4853280F48432E1F507C08D327E
:101B500099F18D32E8F08E32A9F531C08091F40010
:101B60008093F5001092F6008091F50080FF08C088
:101B70008B98939A8091F6008F5F8093F60002C055
:101B800093988B9A8091F50086958093F5001AC002
:101B90008091F60080FF03C093988B9A02C08B98C7
:101BA000939A8091BF03877F8093BF038091BF0387
:101BB00080618093BF0306C08B98939A03C01092F4
:101BC000BE0308958091BE038F5F8093BE03089586
:101BD0001092BE0381E18093BF038A98929A8B98FA
:101BE000939A0E94810982E00E94C20980E06AED16
:101BF0007CE00E94F8098FEC82BF089585B782606F
:101C000085BF8BB780648BBF8BE48093CC038093BC
:101C1000F8038AE58093CB038093F70308951F931D
:101C2000CF93DF930E949C056091DD03635067FDB5
:101C3000C1C08091D903CCE0D0E0C81BD109CF51FD
:101C4000DC4F8091D8038D3209F0A1C0683009F0D3
:101C5000AFC083EC8093C0038AE580936600109246
:101C6000F7008881807629F0CE010E94A41F182FEA
:101C70007BC09A811092C9038981882321F4109234
:101C8000CA0312E06AC0853019F49093DE0364C081
:101C9000863009F04BC08B81813069F489B78B7F26
:101CA00089BF0E949C058EE591E09093DC038093B0
:101CB000DB0312E137C0823019F18330F9F48A81F5
:101CC000882341F48EE291E09093DC038093DB0360
:101CD00014E028C0813041F482E391E09093DC036A
:101CE0008093DB031CE11EC08230D9F48EE491E0C6
:101CF0009093DC038093DB0310E114C0813229F45C
:101D0000CE010E945C1F182F0DC0823251F4CE010B
:101D10000E945C1F182F89B7846089BF0E949D05AF
:101D200001C010E080E48093F7001EC0883021F4E9
:101D300011E080EE93E013C0893019F49093E00332
:101D40000BC08A3011F411E008C08B3029F48BE409
:101D50008093CC038093F80310E089EC93E0909398
:101D6000DC038093DB0309C01F3F39F4888187FDC2
:101D70001E8180E88093F70006C08F81882319F4C4
:101D80008E81811708F0812F8093670011C08091A8
:101D9000F70087FF0DC0CE010E94961F8F3F21F4F0
:101DA0008EE18093660004C0882311F010926700D2
:101DB0001092DD038091660084FF46C08091670029
:101DC0008F3F09F441C0182F893008F018E0811BBB
:101DD000809367008091C00398E889278093C003AF
:101DE000112321F12091DB033091DC038091F70076
:101DF00086FF0AC0912FF901A1ECB3E084918D9385
:101E000031969150D9F708C0912FD901E1ECF3E058
:101E10008D9181939150E1F7C90101961150810F85
:101E2000911D1F5F9093DC038093DB0381EC93E0B3
:101E3000612F0E94A103612F6C5F6C3019F08FEF4E
:101E4000809367006093660094E180B38C7031F4F6
:101E50009150D9F71092DE031092D7030E949D058E
:101E6000DF91CF911F910895EF92FF921F93CF932F
:101E7000DF937C01162FEA010E949C05888184FF74
:101E800005C0898198E88927898302C08AE588830B
:101E9000AE014E5F5F4F212FFA01D7018D917D0179
:101EA000819321501216CCF3CA01612F0E94A10325
:101EB0001C5F18830E949D05DF91CF911F91FF90B9
:101EC000EF90089547EF53E00E94340F08954BECD4
:101ED00053E00E94340F0895982F8091F90080FFFD
:101EE0000FC0993611F49AE60BC09A3611F499E6B0
:101EF00007C09D3611F49EE603C09E3609F49DE6A8
:101F0000892F08950E941910982F8091F800981732
:101F1000A1F09C3031F0903C21F0983411F09438CD
:101F200041F41092FE001092FD0082E08093FA00CE
:101F300002C01092FA009093F8004091FA004423F6
:101F400091F18091FD009091FE0001969093FE002A
:101F50008093FD002091FB003091FC002817390789
:101F600014F54230C1F40E94F8048091F90080FF1A
:101F700004C08E7F8093F9000EC081608093F900C9
:101F800088EE93E02CE231E0F9013197F1F7019707
:101F9000D9F70E94F80488E090E06091F9000E946F
:101FA000CC261092FA00089588E090E00E94C426A2
:101FB0008093F9008F3F11F41092F9008091CB00CB
:101FC000882311F0833019F484EC99E002C088E88A
:101FD00093E19093FC008093FB000895982F87561F
:101FE000883068F4E92FF0E0EE0FFF1FE656F0406E
:101FF00080819091FF00892B8093FF00089580914C
:102000000601873040F4E82FF0E0E150FF4F908365
:102010008F5F8093060108958FEF90E008958730D9
:1020200010F080E00895E82FF0E0E150FF4F80814C
:1020300008958091FF00089581E08093060187E074
:10204000EFEFF0E0DF011D928A95E9F708958091A6
:102050000B01089591E1899FC0011124860F911D04
:1020600023E0880F991F2A95E1F7840F911DE091D5
:102070008800F0918900E80FF91FE4918E2F0895F0
:10208000E82F865D803140F4F0E0E656FF4FE491A2
:102090008E2F0E946C0FE82F8E2F0895982F80911D
:1020A0000B01882321F0892F0E944010982F892F3F
:1020B00008951F93982F865D662349F18031A8F417
:1020C000809108018F5F8093080180910901882326
:1020D000D1F480910A018823B1F49093070181E043
:1020E0008093090110920B014FC080910701882352
:1020F00051F480910901882309F046C080910A01BA
:102100008F5F80930A0181E080930B013DC0803195
:10211000A0F580910801882319F08150809308016F
:10212000E0910701EE2301F180910B018823E1F496
:10213000F0E0E655FF4F1491812F0E94BA18812FCD
:102140000E94BA18109207010E944911882361F079
:10215000812F60E040E021E00E94FD13812F60E0CC
:1021600040E020E00E94FD1380910801882361F483
:102170001092090110920A0107C080910A01882378
:1021800019F0815080930A011F9108951F93CF93F6
:10219000DF93EC01162F909107019923C9F08091EC
:1021A0000B018823A9F0892F0E944E10612FFE0198
:1021B00009950E944911882349F0809107010E94E6
:1021C0004E1060E040E021E00E94FD1310920701F4
:1021D000DF91CF911F91089580910C010895809116
:1021E0000C01882329F481E080930C010E9483056F
:1021F000089580910C01882311F580910D01909133
:102200000E01A0910F01B09110010196A11DB11D09
:1022100080930D0190930E01A0930F01B0931001D4
:10222000805E9349A440B04054F010920D0110928A
:102230000E0110920F01109210010E94EF100895EC
:1022400080910C01882321F010920C010E94040659
:1022500010920D0110920E0110920F0110921001B8
:1022600008958091CB00882311F0833031F484EC01
:1022700099E09093BE008093BD000895809117016E
:102280008170089580911C01089581E080931C0164
:10229000089590E080911E018B3009F491E0892F20
:1022A000089588E20E94BA1888E20E94BA18089538
:1022B00080E3E4EAF4E0DF01982F1D929A95E9F7B4
:1022C0001092D404E4E0F4E0DF011D928A95E9F76E
:1022D0001092160108950F931F93FC0180810E94B4
:1022E00025198C01882319F088E60E94BA18812FDD
:1022F0000E94BA18812F0E94BA18002319F088E6AC
:102300000E94BA181F910F910895CF92DF92EF9219
:10231000FF920F931F93DF93CF930F92CDB7DEB74A
:102320008C01009711F52FC000D000D000D0EDB780
:10233000FEB73196ADB7BEB71296FC92EE921197EA
:10234000D382C282992787FD9095958384830E94CA
:10235000C3248DB79EB706960FB6F8949EBF0FBEE6
:102360008DBFC7010E946B1108C07E010894E11C5B
:10237000F11C8AE8C82E80E0D82EF8010F5F1F4FAD
:102380008491882389F60F90CF91DF911F910F914F
:10239000FF90EF90DF90CF9008958FE994E00E9436
:1023A00085110E94511124E234E080E090E00BC0DE
:1023B0001192E217F307E1F701969F01285F3F4F63
:1023C0008131910549F0FC0143E0EE0FFF1F4A9572
:1023D000E1F7E45EFB4FECCF81E090E090932801C1
:1023E00080932701089582ED95E00E9485110E9457
:1023F000511181E0809315018CE0809320011092AF
:102400001E0108958091270190912801892B29F4BC
:102410001092170110922001089583E095E00E9428
:1024200085110E94511181E0809315018BE080930A
:10243000200180911E0180931F0110921E010895BA
:1024400088EE93E00E9485110E94511108950E9428
:10245000511183E393E00E9485110E94511189E399
:1024600093E00E9485110E9451118EE493E00E9436
:1024700085110E94511181E693E00E9485110E940E
:10248000511185E593E00E9485110E94511187E06A
:1024900080931E010895AF92BF92CF92DF92FF9278
:1024A0000F931F93DF93CF930F92CDB7DEB78C01BD
:1024B000FF246E010894C11CD11C5AE8A52E50E0DF
:1024C000B52E25C000D000D000D0EDB7FEB73196B4
:1024D000ADB7BEB71296DC92CE921197B382A282AC
:1024E000800F911FDC018C91992787FD9095958332
:1024F00084830E94C3248DB79EB706960FB6F894C6
:102500009EBF0FBE8DBFC6010E946B11F3948F2D2D
:1025100090E0F80101900020E9F73197E01BF10B02
:102520008E179F0778F20F90CF91DF911F910F9137
:10253000FF90DF90CF90BF90AF90089581E080939F
:10254000150180911E01893088F48730E8F58330C9
:1025500079F1843030F48130E1F0823009F05CC0F0
:1025600024C0853059F1863060F525C08B30B9F133
:102570008C3030F4893069F18A3009F04DC02CC0BC
:102580008E3609F447C0883789F1843609F044C093
:1025900038C080EF93E00E948511809129018F5F00
:1025A0000E949A190E944B121EC082E294E019C048
:1025B00081E494E00BC083E694E025C08BE794E0CF
:1025C00022C01092150128C08EEB94E00E94851164
:1025D00023C087E395E0FACF84E695E014C08FE747
:1025E00095E00E9485110E94511116C080E293E08F
:1025F0000E9485110E94511110921E010E94E9193A
:102600000BC086E193E00E9485110E945111109247
:102610001E0102C00E94361388EE93E02CE231E0E6
:10262000F9013197F1F70197D9F708950E945111F7
:102630008FE993E00E9485110E9451118FEA93E087
:102640000E9485110E94511181E693E00E9485113C
:102650000E94511185EC93E00E9485110E94511156
:1026600087E080931E010E949E1208950E945111DE
:102670008FED92E00E9485110E9451118BEE92E045
:102680000E9485110E94511189EF92E00E948511EC
:102690000E94511181E093E00E9485110E94511126
:1026A00088E093E00E9485110E94511188E0809398
:1026B0001E010E949E120895CF93DF93C5EAD1E0D8
:1026C000CE0160E00E94CC26219683E0C53ED8076B
:1026D000B9F787E080931E010E949E12DF91CF918F
:1026E00008951F93CF93DF93809103048C30C8F437
:1026F000C0E0D0E010E380910304819FC001112469
:102700008B559E4FFE01EC55FB4F8C0F9D1F60813A
:102710000E94CC262196C033D10569F78FEF8093B4
:102720000304DF91CF911F9108950F931F93CF93CF
:10273000DF93982F8C30C0F480E3989FC001112460
:10274000EC01CB55DE4F8C010B521E4FCE010E9487
:10275000C426982F81508E3F18F4892F0E94BA18F2
:102760002196C017D10791F7DF91CF911F910F915B
:102770000895CF92DF92EF92FF920F931F93CF9322
:10278000DF939091290188E8989F700111248DE0D2
:1027900090E0E80EF91ECC24DD2417C0CE018E0D8A
:1027A0009F1D0E94C426F80181938F012196C83095
:1027B000D105A1F70894C11CD11C88E090E0E80E77
:1027C000F91E91E1C916D10459F0860163E0000FAA
:1027D000111F6A95E1F7045E1B4FC0E0D0E0DECF29
:1027E0001092280110922701DF91CF911F910F9134
:1027F000FF90EF90DF90CF900895AF92BF92CF926D
:10280000DF92EF92FF920F931F93DF93CF9300D04D
:102810000F92CDB7DEB7B62EA42EC22E0E944E1058
:10282000D82E80911501882309F08DC280911E0158
:102830008B3009F07EC282EB90E06BE04D2D0E9460
:102840003A187C0190911E019B3009F076C288EC09
:102850008D1508F478C280911401882399F01092A4
:102860001301109214018D2D0E94BA18E091D40426
:10287000F0E0ED55FB4F10820E94711387E08093CA
:102880001E0147C2CC2071F080911601883108F0FA
:102890005AC28F5F8093160184E094E06D2D0E94F0
:1028A000921817C004E014E0F80101900020E9F745
:1028B0003197E01BF10BC8016E2F4D2D0E943A1885
:1028C000BC019FEF6F3F790709F43DC2C8010E9428
:1028D00060188091D404E82FF0E0EC55FB4FD082D3
:1028E0008F5F8093D4048D2D0E94BA188091D404F8
:1028F000803330F087E080931E010E94711309C27B
:10290000CC2081F0A2EBB0E0EA0EFB1EF701808143
:10291000893241F481E080931301109212011092E8
:10292000110111C210921301109214010CC2FAE0AD
:10293000EF16F10408F007C2E0912601F0E0ED5D2A
:10294000FE4FE08200D000D000D0EDB7FEB7319648
:102950008E010F5F1F4FADB7BEB712961C930E933B
:1029600011978DE890E093838283F582E4820E9440
:10297000C324EDB7FEB736960FB6F894FEBF0FBE70
:10298000EDBFC8010E944B120E945111009123011A
:1029900080911E01883091F50130E1F400931D0112
:1029A0000E94511188E693E00E9485110E94511106
:1029B00083E793E00E9485110E94511182E893E021
:1029C0000E948511009315018AE0809320011092E6
:1029D0001E0157C1023029F400931D010E942712E5
:1029E00050C1033021F400931D0184E633C004304C
:1029F00009F047C100931D0188E72CC0063019F487
:102A00008EE680931E0180911D018130C9F4013052
:102A100011F0023019F400931E0133C1033031F478
:102A200084E080931E010E9402122BC1043011F435
:102A300085E010C0093009F024C10E94CD11C4C046
:102A4000823009F01EC1013011F489E018C1023052
:102A500041F48AE080931E01109217011092200128
:102A600010C1093009F00DC18CE080931E010E9455
:102A7000F31107C1923089F1FAE0EF16F10408F082
:102A800062C180912601E82FF0E0ED5DFE4FE0820B
:102A90008F5F8093260100D000D000D0EDB7FEB745
:102AA00031968E010F5F1F4FADB7BEB712961C93C4
:102AB0000E9311978DE890E093838283F582E482F0
:102AC0000E94C324EDB7FEB736960FB6F894FEBF4A
:102AD0000FBEEDBFC8010E944B12FAE0EF16F104E1
:102AE00028F080911E01823009F02DC180911E01D5
:102AF000823009F46BC0833020F4813009F016C1B4
:102B000031C0833009F4C0C0893009F00FC1809111
:102B100026018230E9F4909123018AE0989F900188
:102B2000112480912401280F311DC90101970C97B0
:102B300050F4822F8150809303048BE080931E0118
:102B40000E945811DDC00E94511186EB95E0D6C05D
:102B500088EE93E02CE231E0F9013197F1F701972B
:102B6000D9F7F1C09091230180912901833050F56C
:102B7000192F1150811731F1133020F58091270161
:102B800090912801181619066CF40E9451118DEDD0
:102B900094E00E9485110E9451110E94021210932C
:102BA0002A016FC00E94511180EF94E00E948511AC
:102BB0000E94511187E080931E01109329010E9409
:102BC000B9135FC00E94511187E059C0B092210132
:102BD000A09222018DE095E00E9485118091210153
:102BE0008F5F0E949A190E944B1280E990E00E9428
:102BF0004B12809122018F5F0E949A190E944B1202
:102C000083E990E00E944B12809129018F5F0E941E
:102C10009A190E944B128CE990E00E944B1280910D
:102C2000290160912201409121010E942A100E94F5
:102C30009A190E944B1286EA90E00E944B128091F2
:102C40002101E0912201F0E0A3E0EE0FFF1FAA9521
:102C5000E1F7E80FF11DE45EFB4F808190E08F3FCC
:102C6000910511F480E090E00E949A190E944B12A5
:102C700080EB90E00E944B120E94511183E0809300
:102C80001E011092260152C080912601833009F066
:102C900043C09091230184E6989FA0011124809164
:102CA00024012AE0829FC0011124480F591F8091FE
:102CB0002501480F511D4F3F5105E4F4809121013A
:102CC000E0912201F0E073E0EE0FFF1F7A95E1F74B
:102CD000E80FF11DE45EFB4F408387E080931E0107
:102CE000809127019091280101969093280180936B
:102CF000270106C00E94511189E195E00E948511CB
:102D000083E0E3E2F1E0DF011D928A95E9F710929A
:102D100026010E9451110AC088EE93E02CE231E0B6
:102D2000F9013197F1F70197D9F70DC00E949E1272
:102D30000AC0CC2009F47FCD06C0892F875082308D
:102D400008F098CEF4CD0F900F900F90CF91DF91B7
:102D50001F910F91FF90EF90DF90CF90BF90AF90B9
:102D60000895BF92CF92DF92EF92FF920F931F933D
:102D7000CF93DF93EE24FF24CC24DD2418E8B12E7A
:102D80001EC0809129018B9DC00111240D968C0DD0
:102D90009D1D8C0F9D1FF80161918F010E94CC2613
:102DA0002196C830D10569F70894E11CF11C88E030
:102DB00090E0C80ED91E91E1E916F10459F087019F
:102DC000B3E0000F111FBA95E1F7045E1B4FC0E09E
:102DD000D0E0D7CF109228011092270180911F01D7
:102DE000843039F480931E01109217011092200153
:102DF00013C0813089F40E94511180EF94E00E9449
:102E000085110E94511187E080931E0180912A0153
:102E1000809329010E94B9130E949E12DF91CF91E5
:102E20001F910F91FF90EF90DF90CF90BF9008958A
:102E300083E0E3E2F1E0DF011D928A95E9F7109269
:102E400026011092290110921D010E94B9130E94BF
:102E5000361308951F93982F8091170180FD0FC09E
:102E6000192F195C1C3058F40E94FB18882339F084
:102E70000E94A819812F0E94951381E001C080E073
:102E80001F910895FF920F931F93182F062FF42E72
:102E9000809117018823E1F080911E018B30E1F5CC
:102EA00088E8189FC00111240D96262F30E053E0CA
:102EB000220F331F5A95E1F7820F931F840F911D44
:102EC0000E94C426982F895C8C30A8F490E013C02F
:102ED00088E8189FC00111240D96262F30E043E0AA
:102EE000220F331F4A95E1F7820F931F8F0D911D1B
:102EF0000E94C426982F892F81508E3F30F0812F59
:102F0000602F4F2D0E942A10982F892F0E946C0F3E
:102F10001F910F91FF900895812F0E942A10F8CFE2
:102F2000809117018160809317018091CB008150BF
:102F3000823018F40E94392002C00E94F91B0E94BE
:102F4000201208950E941910982F8091170180FD7A
:102F500018C080911B019817A1F0973261F48091FD
:102F60001801882341F410921A011092190181E08E
:102F70008093180104C010921701109218019093C9
:102F80001B018091170180FF0DC081FD0BC00E94C5
:102F90001E08882339F08091170182608093170101
:102FA0000E941817809117018823C9F48091180195
:102FB0008130A9F48091190190911A0101969093A2
:102FC0001A01809319012091BD003091BE0028178D
:102FD00039072CF40E94901782E0809318018091A9
:102FE000170181FF36C0809115018823C9F00E9426
:102FF0000A198823A9F0809120018B3019F40E94CE
:10300000B1160CC08A3019F40E94161307C08C3018
:1030100019F40E945C1302C0109215011092200155
:10302000809113018823A9F08091110190911201E0
:1030300001969093120180931101895E93404CF0A8
:1030400081E08093140189E26FEF4FEF20E00E944E
:10305000FD1308950E94ED19882319F010921C01A8
:10306000089580911C01813021F40E9490171092E4
:103070001C010895FC0190E007C08191841719F4A8
:10308000292F30E005C09F5F9617B8F32FEF3FEF71
:10309000C9010895FC01808140E02FEF3FEF0CC093
:1030A0005191252F30E090E02817390719F02FEFC4
:1030B0003FEF04C04F5F852F461790F3C901089575
:1030C0009B01FC0101900020E9F73197E81BF90B07
:1030D0006F5F7F4F680F791FE21BF30B820F931F07
:1030E000AF010E9490240895FF920F931F93F42E36
:1030F0009B01DC010D900020E9F78C01060F171FE2
:10310000A81BB90BA61BB70B2F5F3F4F820F931F56
:10311000B801AD010E949024F801F0821F910F9137
:10312000FF900895462FDC010D900020E9F71197DC
:10313000A81BB90BBD010E94741808950F931F932B
:1031400000912B0110912C01039665E070E00E9424
:10315000232480E090E02CE030E040E050E00E944A
:10316000F823060F171F10932C0100932B011F91BA
:103170000F910895282F8091630190916401019629
:1031800060E071E00E943724FC0190936401809319
:10319000630180916101909162018E179F0759F43C
:1031A000009719F48FEF90E001C0019790936401AC
:1031B000809363010895EB59FE4F20830895209179
:1031C000610130916201809163019091640128173F
:1031D000390711F480E00895C901019660E071E0BB
:1031E0000E943724FC019093620180936101EB59A6
:1031F000FE4F8081089540E020916101309162018D
:1032000080916301909164012817390709F441E026
:10321000842F089580916001882319F440E050E0E4
:103220000FC040E050E02091610130916201809137
:103230006301909164012817390711F441E050E0CF
:10324000842F0895809360010895982F81568A31C4
:1032500018F4292F2D5510C0892F81548A3120F45C
:10326000292F2D5332E009C0892F8153893010F066
:1032700020E002C0292F235130E0892F992787FDB4
:103280009095A92FB92FFC01B097EF35F10508F003
:1032900048C0E65DFF4FEE0FFF1F0590F491E02D53
:1032A00009942EE141C02FE13FC020E23DC021E260
:1032B0003BC022E239C023E237C024E235C025E218
:1032C00033C026E231C027E22FC02CE22EC02DE20F
:1032D0002CC02DE229C02EE228C02EE225C02FE20C
:1032E00024C02FE221C020E320C020E31DC021E341
:1032F0001CC021E319C023E318C023E315C024E355
:1033000014C024E311C025E310C025E30DC026E35B
:103310000CC026E309C027E308C027E305C028E363
:1033200004C0222311F428E332E0832F922F089562
:1033300027E2FBCF0F931F930DE511E090E0B8015A
:103340004AE050E00E94A224C8011F910F91089505
:10335000209161013091620180916301909164013B
:103360002817390739F480E3EDE2F1E0DF011D921F
:103370008A95E9F708951F93CF93DF930E94DF1892
:10338000182FCDE2D1E0882331F480E3FE011192C1
:103390008A95E9F712C0FE0101900020E9F7319704
:1033A000ED52F140CE016E2F412F0E943A18BC0120
:1033B00097FD05C0CE010E94601880E005C0CE01D7
:1033C000612F0E94921881E0912FDF91CF911F9180
:1033D000089581E0809365020895809165020895C3
:1033E0000F931F93082F162F8FEB90E00E944B1224
:1033F000812F0E949A190E944B1281EC90E00E944A
:103400004B12802F0E949A190E944B1283EC90E07D
:103410000E944B121F910F9108950E94A2170E94C3
:10342000820F08958091670208950F931F93082FCC
:10343000122F0E943A05802F612F0E9459101123EC
:1034400089F10C3F49F080916602882391F00A329D
:1034500081F41092670206C08091670291E089278B
:103460008093670280916702882319F50E942805DE
:1034700020C0093221F481E0809366021DC08823B8
:1034800011F0093311F00D3F19F40E94090611C023
:103490000A3F19F40E9435060CC0093F61F40E94EE
:1034A0001C0607C00C3F29F0093229F4109266026D
:1034B00002C080E001C081E01F910F910895282F84
:1034C0008F3F31F41092690281E080937202089577
:1034D0008E3F21F08D3F29F4109269021092720202
:1034E000089580917202882351F080916902E82F3B
:1034F000F0E0E45CFC4F20838F5F80936902809151
:10350000700290917102019668EC70E00E9437247D
:10351000FC01909371028093700280916E029091F1
:103520006F028E179F0759F4009719F487EC90E00B
:1035300001C0019790937102809370020895ED5835
:10354000FD4F2083089520916E0230916F0280918B
:103550007002909171022817390711F480E00895E4
:10356000C901019668EC70E00E943724FC01909339
:103570006F0280936E02ED58FD4F8081089540E008
:1035800020916E0230916F028091700290917102D1
:103590002817390709F441E0842F089510926F022B
:1035A00010926E02109271021092700210926902D3
:1035B00010926A0210924603109247031092480339
:1035C00010924903E0E9F3E0119283E0E13AF80751
:1035D000D9F70895E6EDF4E0119285E0E638F807B2
:1035E000D9F726E932E006C0FC01EA52FB4F8081A0
:1035F00082608083F901849190E02F5F3F4F0097B4
:1036000099F729E932E006C0FC01EA52FB4F8081BC
:1036100084608083F901849190E02F5F3F4F009791
:1036200099F72DE932E006C0FC01EA52FB4F808198
:1036300088608083F901849190E02F5F3F4F00976D
:1036400099F722EA32E006C0FC01EA52FB4F808182
:1036500081608083F901849190E02F5F3F4F009754
:1036600099F720ED32E006C0FC01EA52FB4F808161
:1036700080618083F901849190E02F5F3F4F009734
:1036800099F7E0E9F3E0119283E0E13AF807D9F71E
:1036900008950E94FB1890E0882309F491E0892F97
:1036A000089581E080938F030E94EF070E942A18FB
:1036B00008950F931F93CF93DF93062F882309F468
:1036C00090C00E944E10982F893C08F08AC0282F85
:1036D00030E0F901E057FE4F1491002309F450C087
:1036E00080933B03109246031092470310924803C5
:1036F0001092490310928705E901CA52DB4F888175
:1037000081FF2EC0963421F0983409F06CC00EC0B1
:103710008FEF0E945F1A80EE0E945F1A82E10E9482
:103720005F1A80EE0E945F1A8CE726C08DEF0E9420
:103730005F1A81EE0E945F1A84E10E945F1A87E798
:103740000E945F1A81EE0E945F1A80EF0E945F1A4A
:1037500084E10E945F1A80EF0E945F1A87E73BC0F6
:1037600082FD38C08FEF0E945F1A888180FF03C0FE
:1037700080EE0E945F1A812F0E945F1A8EEF2BC08D
:1037800080913B03891711F410926902E92FF0E050
:10379000EA52FB4F808181FF13C0963421F580EE01
:1037A0000E945F1A80EF0E945F1A8CE70E945F1AE6
:1037B00080EE0E945F1A80EF0E945F1A82E10BC0C8
:1037C00082FD11C080FF03C080EE0E945F1A80EF6F
:1037D0000E945F1A812F0E945F1A8CEF0E945F1A6D
:1037E00002C080E001C081E0DF91CF911F910F9175
:1037F000089588E660E00E94591B87E660E00E9419
:10380000591B89E660E00E94591B8CE660E00E942B
:10381000591B08950F931F93182F062F662321F02D
:103820000E944E100E94EE0F812F602F0E94591BA4
:1038300081E01F910F910895DF92EF92FF920F9315
:103840001F93182F062FF42EE22E642F422F202FC5
:103850000E94151AD82E002339F0112329F08AE08E
:103860009CE161E00E94C6100E943E11882339F05D
:10387000812F6F2D4E2D202F0E94FD1311C000238C
:1038800039F0112329F0812F0E942A17882341F44F
:10389000DD2031F0812F602F0E940A1C81E001C0E1
:1038A00080E01F910F91FF90EF90DF9008954F926D
:1038B0005F926F927F928F929F92AF92BF92CF92C0
:1038C000DF92EF92FF920F931F93CF93DF930E94AB
:1038D000BA08882319F420E030E0AEC00E941C1022
:1038E0000E94BD08A82E0E9431084C0180916D02F3
:1038F0008A1509F446C0EE24FF2491E0692E712C4C
:1039000034C0F401EC0FFD1F0081FE01E057FC4FB5
:1039100080818B21F9F080916D026C2F4C2D0E94DB
:103920004217D82E8A2D6C2F4C2D0E944217182F2B
:10393000D81681F0882371F08D2D60E04C2D2C2F4E
:103940000E941C1C0B2131F0812F61E04C2D2C2F8B
:103950000E941C1C2196C131D10599F60894E11CE6
:10396000F11C88E0E816F10461F0CE2CC3010E2CA6
:1039700002C0880F991F0A94E2F7B82EC0E0D0E089
:10398000C0CFA0926D02BB24B394EE24FF2481E04B
:10399000482E512C34C0FE01E057FC4F10811721F6
:1039A000F401EC0FFD1F008107218A2D6C2F4C2D97
:1039B0000E944217D82E1017B9F00E94ED198823E3
:1039C00039F00023A9F08C2F6C2D0E94F01910C043
:1039D000002319F08D2D61E002C08D2D60E04C2D8B
:1039E0002C2F0E941C1CB8222196C131D10599F6BA
:1039F0000894E11CF11C88E0E816F10461F0CE2C7B
:103A0000C2010E2C02C0880F991F0A94E2F7782E8B
:103A1000C0E0D0E0C0CF20E030E0F901E057FC4F3B
:103A2000D401A20FB31F8C9180832F5F3F4F2131B0
:103A3000310599F72B2D30E0C901DF91CF911F910E
:103A40000F91FF90EF90DF90CF90BF90AF909F903D
:103A50008F907F906F905F904F9008950E94FB1819
:103A6000882339F081E00E9422190E94571C9C0192
:103A700015C080E00E9422190E94BB19813041F4D8
:103A8000892F61E00E94591B8DEF0E945F1A04C0CC
:103A9000892F60E00E94591B20E030E0C9010895A1
:103AA0001F93162F8E3F11F0809386050E94C10C44
:103AB000109387051F9108958F929F92AF92BF92A6
:103AC000CF92DF92EF92FF920F931F9388E0809343
:103AD00087050E94E80D0E94EA1A0E94CE1A789487
:103AE00016E9812E99249394B5E0AB2EB12CC12C0C
:103AF000D12C8091CB008823F9F480918F03882307
:103B0000D9F480918D0390918E03019690938E034A
:103B100080938D030197815D974074F081E08093DD
:103B2000CB001F910F91FF90EF90DF90CF90BF904F
:103B3000AF909F908F9008958091BF0382FFC0C087
:103B400080916B0290916C028C3F910561F0209105
:103B50006E0230916F02809170029091710228176D
:103B6000390709F0ADC00E94D00C182F609187056D
:103B7000623009F457C0633018F4613039F44CC036
:103B8000663009F48DC0673009F455C0133F71F1F8
:103B9000143F60F41E3EC9F01F3E18F41D3EA9F507
:103BA00022C0103FE9F0123F81F511C0163F09F124
:103BB000173F30F4143F09F481C0153F31F57EC042
:103BC0001E3F59F01F3F09F505C08EEE72C18AEF06
:103BD00064E06FC18AEF68E06CC18091860569C1BD
:103BE0008AEF62E066C18AEF66E063C18AEF67E050
:103BF00060C19092C500A092C600B092C700C0926A
:103C0000C800D092C9000E94CE1A8AEF60E00E94DC
:103C1000501D0E94511B6DCF853F09F44FC08AEFA4
:103C200061E047C10E94CE1A112311F060E001C08B
:103C300063E08AEF3EC1682F70E0CB018076907020
:103C4000A5E095958795AA95E1F78093C500AB010E
:103C500048715070F3E055954795FA95E1F780E08B
:103C600090E021E030E003C0220F331F019684175B
:103C70009507D4F367707070269FC001279F900D41
:103C8000369F900D1124AA2797FDA095BA2F8093F7
:103C9000C6009093C700A093C800B093C9000EC09F
:103CA0000E94511B912F80E010FD84E091FD816006
:103CB00092FD82600E941F050E9428058AEFF8C0CD
:103CC0008091BF0384FF15CF80918705843009F46C
:103CD000E7C0853030F4882371F0833009F009CFD4
:103CE000DDC0883009F4E1C08C3009F45FC0853054
:103CF00009F0FFCED8C020916E0230916F02809102
:103D00007002909171022817390711F40E942E1D3C
:103D10000E940D1A0E944F060E94A31A282F30E01D
:103D200030936C0220936B022C3F310509F4E1CEF5
:103D3000232B21F060E00E94501D60C08091690239
:103D4000882309F4D6CE2091460330914703409151
:103D50004803509149032F5F3F4F4F4F5F4F2093D0
:103D6000460330934703409348035093490380919F
:103D7000C500889DC00111248A519F4FAA2797FD35
:103D8000A095BA2F281739074A075B070CF4B1CE64
:103D90001092460310924703109248031092490371
:103DA00010926A028CE080938705A3CE80916A020C
:103DB000882311F40E942E1D0E940D1A0E944F06A6
:103DC000809169028823C1F020916E0230916F02C8
:103DD00080917002909171022817390769F48091DF
:103DE000460390914703A0914803B091490301977E
:103DF000A105B10561F40FC010928705109246032A
:103E000010924703109248031092490372CE80919A
:103E10006A028823A9F090916A02E92FF0E0E45C3D
:103E2000FC4F80819F5F90936A026CE00E94501D5E
:103E30006091690280916A020E94172490936A023D
:103E4000E0904603F0904703009148031091490326
:103E50000894E11CF11C011D111D6091C6007091B8
:103E6000C7008091C8009091C9002AE030E040E08E
:103E700050E00E94F8239B01AC012D5F3F4F4F4F54
:103E80005F4FC801B7010E946C2460934603709392
:103E9000470380934803909349032BCE82E008C0E8
:103EA0008BEA65E006C083E803C00E94CE1A8AEA66
:103EB00060E00E94501D1DCEFC018381813261F0C3
:103EC0008232D9F0823081F58EE996E09093DC035E
:103ED0008093DB038BE308958281882319F081307E
:103EE00019F503C080EB96E002C089EC96E0909350
:103EF000DC038093DB0389E008958481958100973A
:103F000019F0019789F408C08BED95E09093DC03DC
:103F10008093DB0380E408958BE196E09093DC03CB
:103F20008093DB0383E8089580E00895FC0180918D
:103F30005603882329F0613019F480810E94F02211
:103F40001092560381E008950F931F93CF93DF9350
:103F5000182F092F0E94F21FC12FD02F80914A03E2
:103F60008093DB031092DC03888180768032A1F598
:103F70008981813011F488E030C0893071F48A8100
:103F80009B818050924041F58C819D81892B21F548
:103F900081E0809356038FEF20C0823019F4809126
:103FA000550314C08A3031F40E94F61F8B81809330
:103FB000550312C0833031F48B81882369F4109249
:103FC000CA000BC08B3041F48091CA008093DB03A0
:103FD0001092DC0381E001C080E0DF91CF911F915E
:103FE0000F91089581E080938F03089581E080937D
:103FF0005803109259030895982F81578A3110F071
:1040000080E0089581E080935703E92FF0E0EE0F00
:10401000FF1FE25AFE4F259134918093520366238D
:1040200029F02093530330935403089510925303BF
:104030001092540381E0089580915C03882331F449
:104040000E94FB1820E030E0882311F421E030E0EA
:10405000822F089588E0EAE4F3E0DF011D928A955B
:10406000E9F783E0E2E5F3E0DF011D928A95E9F7E5
:10407000089580E3EDE5F3E0DF011D928A95E9F70D
:1040800008950E944E10982F893C60F581578A311F
:1040900048F1865F883068F4E92FF0E0EE0FFF1FEB
:1040A000E656F040808190914A03892B80934A0321
:1040B00017C09923C9F0209188052830A8F4892FCA
:1040C0008D58823228F4E92FF0E0E951FE4F9491A7
:1040D000E22FF0E0E65BFC4F90832F5F2093880592
:1040E00081E0089580E0089581E008959F92AF9265
:1040F000BF92CF92DF92EF92FF920F931F93CF93D5
:10410000DF930E942A200E943E11882309F03FC0BD
:104110000E94ED198823D9F50E9431087C010E9484
:10412000BD08982E00E010E051E0A52EB12C23C070
:10413000F701EC0FFD1F80818D21A1F0892D6C2FDF
:104140004C2D0E944217E82F8756883058F4F0E033
:10415000EE0FFF1FE656F040808190914A03892BB5
:1041600080934A032196C131D10511F70F5F1F4F8C
:104170000830110561F0C02EC501002E02C0880F65
:10418000991F0A94E2F7D82EC0E0D0E0D1CF0E9468
:10419000FB18882309F045C00E94BB19EDE2F1E04D
:1041A000DF010D900020E9F71197AE1BBF0B82E0F5
:1041B00080938805EF01EA2EFF246F01CE0CDF1CEF
:1041C0003DE5A32E33E0B32E1AC01881812F875608
:1041D000883080F0F50101900020E9F73197ED5526
:1041E000F3408DE593E06E2F412F0E943A188F5FC8
:1041F0009F4F21F4812F61E00E94412021964DE2E2
:1042000051E0CC15DD0509F781E080935C032DE5D5
:1042100033E0F7013196C901BA01AF010E9487244A
:1042200006C080915C03882311F010925C0381E04A
:10423000DF91CF911F910F91FF90EF90DF90CF9082
:10424000BF90AF909F9008950F931F93182F062F44
:10425000662321F00E944E100E94EE0F812F602FE6
:104260000E9441201F910F9108953F924F925F92BB
:104270006F927F928F929F92AF92BF92CF92DF9276
:10428000EF92FF920F931F93DF93CF9300D00F9283
:10429000CDB7DEB70E94BA08882309F4BFC00E94D8
:1042A000BD08382E82E0809388050E942A200E9453
:1042B0001C10109257030E9431083C011982AA2455
:1042C000CC24DD2461E0462E512C87C09A80EA81FF
:1042D000FB81E057FC4FE080E820EA81FB81E60D9E
:1042E000F71D00810821832D692D4B2D0E94421757
:1042F000182FE01609F442C00E94ED19882349F0F6
:10430000002321F08A816B2D0E94F0190E94201158
:104310005DC0112309F498C0002379F0812F6B2D23
:104320004A8121E00E94151AF82E0E94201184E291
:1043300091E261E00E94C61009C0812F6B2D4A8175
:1043400020E00E94151AF82EEE2021F10E943E1165
:104350008823B1F0002349F0812F6B2D492D21E0F6
:104360000E94FD1381E0898329C0812F6B2D492D87
:1043700020E00E94FD1391E0998320C0FF24F39474
:10438000002341F0112331F0812F0E942A17882346
:1043900009F044C0FF2091F0002329F0812F61E053
:1043A0000E942421A82AE01649F0002319F0812F49
:1043B00061E002C0812F60E00E94FC1FEA81FB8166
:1043C0003196FB83EA83719709F080CF0894C11C72
:1043D000D11CF8E0CF16D10461F0BC2CC2010C2C2A
:1043E00002C0880F991F0A94E2F7882E1B821A8256
:1043F0006DCF20E030E0F901E057FC4FD301A20F70
:10440000B31F8C9180832F5F3F4F2131310599F786
:104410008981813019F08A2D816001C080E00F9080
:104420000F900F90CF91DF911F910F91FF90EF9020
:10443000DF90CF90BF90AF909F908F907F906F90C4
:104440005F904F903F900895FF24F3947FCFCF92D9
:10445000DF92EF92FF920F931F930E94FE0D8B9AB3
:1044600020E048EB5BE0CA010197F1F72150D9F752
:104470008B98789400E010E0CC24C394F3E0EF2E06
:10448000E2E0DE2E8091CB008130E9F480918F0351
:104490008823C9F480918D0390918E0301969093A7
:1044A0008E0380938D030197815D974064F0109295
:1044B000CB008BB78F7B8BBF1F910F91FF90EF903D
:1044C000DF90CF9008950E940F0E002399F40E9470
:1044D0003521082F08B600FE0FC0C8BEF090550366
:1044E000FF2051F0153010F401E007C07BEFF72EEC
:1044F000F10E03C00E943521F12E0E940D1A809109
:10450000CB0384FF39C080915803813081F4D0926D
:1045100058030E942A208AE493E068E00E94670F13
:104520000E94201180915503882331F10AC08091A7
:104530005903823049F4E09259038091550388234E
:10454000D9F40E942A1818C00E941C20882341F028
:104550000E9476208AE493E068E00E94670F0CC016
:10456000002351F080915703882331F48AE493E0CB
:1045700068E00E94670F00E080915803823089F460
:1045800080915A0390915B03019690935B03809313
:104590005A030197883C910521F40E94EF07E092AD
:1045A00058038091F70384FF0CC0002351F08091E1
:1045B0005703882331F082E593E063E00E94620FA5
:1045C00000E00E94F9100E944F060E941C208823E0
:1045D00011F080E001C081E00E9422191F2D52CF0E
:1045E0000E941F050E94280580915903882319F411
:1045F00082E08093590308958D98959A08958D9A35
:10460000959808951F9310E0812F0E94030A1F5F61
:104610001730D1F789B78E7F89BF89B78B7F89BF64
:1046200089B78F7B89BF1F9108951F93182F0E9410
:1046300012080E94EF0481B38C6081BB82B3837F38
:1046400082BB112379F08BE090E00E949E1881B329
:10465000837F81BB83B7856083BF0E9402238D98CF
:10466000959A02C08D9A95981F910895F8940E948A
:10467000250510928E0310928D0310928F030895DA
:104680008F929F92BF92CF92DF92EF92FF920F9301
:104690001F93CF93DF938FEF8093CB000E9412087C
:1046A00081E090E00E949E1810E00E943408882368
:1046B00019F41F5F1E31C9F70E9431086C01FF24F5
:1046C00000E010E081E0882E912C2AC0F601EC0F6A
:1046D000FD1F80818B21D9F08E2D6C2F0E947409D3
:1046E000882319F00E94E91912C080E06C2F4E2D2A
:1046F0000E942A10803119F40E94451108C08831A7
:1047000011F481E003C0833111F482E0F82A21968C
:10471000C131D105D9F60F5F1F4F0830110561F087
:10472000E02EC401002E02C0880F991F0A94E2F700
:10473000B82EC0E0D0E0CACFFF2019F0F394F09279
:10474000CB006091CB00643021F48CE090E06FEFFF
:1047500004C0643028F48CE090E00E94CC2606C0AF
:104760008CE090E00E94C4268093CB008A98929AB5
:104770002091CB002430D0F080E090E0829907C0F7
:1047800092FD09C08F5F863060F021E00AC0829BF5
:1047900009C092FD02C080E004C08F5F863008F03F
:1047A00020E090B3223050F72093CB000E943111CB
:1047B0000E94D40F8091CB008150823038F40E9447
:1047C000362381E00E9415230E9427228091CB008E
:1047D000882311F0833071F70E94EF040E94F804DF
:1047E0000E94362380E00E9415230E945C1DE2CFC8
:1047F000629FD001739FF001829FE00DF11D649FC5
:10480000E00DF11D929FF00D839FF00D749FF00D50
:10481000659FF00D9927729FB00DE11DF91F639FF1
:10482000B00DE11DF91FBD01CF0111240895991BA1
:1048300079E004C0991F961708F0961B881F7A9597
:10484000C9F780950895AA1BBB1B51E107C0AA1F99
:10485000BB1FA617B70710F0A61BB70B881F991F21
:104860005A95A9F780959095BC01CD01089597FBC5
:10487000092E07260AD077FD04D0E5DF06D00020F8
:104880001AF4709561957F4F0895F6F7909581958C
:104890009F4F0895A1E21A2EAA1BBB1BFD010DC05C
:1048A000AA1FBB1FEE1FFF1FA217B307E407F507E0
:1048B00020F0A21BB30BE40BF50B661F771F881FBC
:1048C000991F1A9469F760957095809590959B0152
:1048D000AC01BD01CF01089597FB092E05260ED02E
:1048E00057FD04D0D7DF0AD0001C38F4509540950E
:1048F000309521953F4F4F4F5F4F0895F6F79095B4
:104900008095709561957F4F8F4F9F4F0895FB0164
:10491000DC0102C001900D9241505040D8F708953B
:104920006817790768F4FB01DC01E40FF51FA40F99
:10493000B51F02C002900E9241505040D8F7089522
:104940000C948724FB019F01E8944230C4F0453267
:10495000B4F44A3029F497FB1EF4909581959F4F4B
:10496000642F77270E942324805D8A330CF0895DB1
:104970008193CB010097A1F716F45DE25193108269
:10498000C9010C94EF26AEE0B0E0E9ECF4E20C943F
:1049900097270D891E8986E08C831A8309838FEF00
:1049A0009FE79E838D839E01275E3F4FCE01019638
:1049B0006F89788DA9010E94E7242F813885020F25
:1049C000131FF80110822E96E4E00C94B327ABE09D
:1049D000B0E0EDEEF4E20C9489273C012B015A0182
:1049E000FC0117821682838181FD03C06FEF7FEF88
:1049F000C6C19AE0892E1E010894211C311CF301C6
:104A00002381F20123FD859123FF81912F018823CA
:104A100009F4B2C1853239F423FD859123FF8191D8
:104A20002F01853229F490E0B3010E94FF26E7CFE1
:104A3000982FFF24EE249924FFE1FF15D0F09B323C
:104A400069F09C3228F4903259F0933291F40EC000
:104A50009D3249F0903369F441E024C052E0F52AD8
:104A600084E0F82A28C098E0F92A25C0E0E1FE2A6F
:104A700022C0F7FC29C0892F80538A3070F4F6FEDB
:104A800005C0989C902C1124980E15C0E89CE02C31
:104A90001124E80EF0E2FF2A0EC09E3229F4F6FC43
:104AA0006BC140E4F42A07C09C3619F450E8F52A9B
:104AB00002C0983649F4F20123FD959123FF9191AC
:104AC0002F01992309F0B8CF892F8554833018F02E
:104AD0008052833038F444E050E0A40EB51E5FE30A
:104AE00059830FC0933631F0933779F0933509F03D
:104AF00056C020C0F5018081898342E050E0A40EB9
:104B0000B51E610101E010E012C0F501C080D18046
:104B1000F6FC03C06FEF7FEF02C0692D70E042E04A
:104B200050E0A40EB51EC6010E94E4268C015FE78A
:104B3000F52214C0F501C080D180F6FC03C06FEFF0
:104B40007FEF02C0692D70E042E050E0A40EB51E78
:104B5000C6010E94D9268C0150E8F52AF3FE07C051
:104B60001AC080E290E0B3010E94FF26EA948E2DE5
:104B700090E008171907A8F30EC0F601F7FC85911D
:104B8000F7FE81916F0190E0B3010E94FF26E110D2
:104B9000EA94015010400115110579F7EAC09436E6
:104BA00011F0993669F5F7FE08C0F50120813181D1
:104BB0004281538184E090E00AC0F50180819181B7
:104BC0009C01442737FD4095542F82E090E0A80EC9
:104BD000B91E9FE6F92257FF09C0509540953095C0
:104BE00021953F4F4F4F5F4FE0E8FE2ACA01B901C0
:104BF000A1012AE030E00E942B27D82ED21840C015
:104C0000953729F41F2D1F7E2AE030E01DC01F2D8F
:104C1000197F9F3661F0903720F4983509F0ACC0C9
:104C20000FC0903739F0983709F0A6C004C028E0CB
:104C300030E00AC0106114FD146020E130E004C0CF
:104C400014FD166020E132E017FF08C0F501608115
:104C500071818281938144E050E008C0F501808138
:104C60009181BC0180E090E042E050E0A40EB51ECE
:104C7000A1010E942B27D82ED2188FE7F82EF122FF
:104C8000F6FE0BC05EEFF522D91438F4F4FE07C02F
:104C9000F2FC05C08FEEF82202C01D2D01C0192DB7
:104CA000F4FE0DC0FE01ED0DF11D8081803319F47D
:104CB00099EEF92208C01F5FF2FE05C003C08F2DD8
:104CC000867809F01F5F0F2DF3FC14C0F0FE0FC0B3
:104CD0001E1510F09D2C0BC09D2C9E0C911A1E2DA4
:104CE00006C080E290E0B3010E94FF261F5F1E1500
:104CF000C0F304C01E1510F4E11A01C0EE2404FF35
:104D00000FC080E390E0B3010E94FF2602FF1DC0A8
:104D100001FD03C088E790E00EC088E590E00BC07D
:104D2000802F867891F001FF02C08BE201C080E203
:104D3000F7FC8DE290E0B3010E94FF2606C080E3FD
:104D400090E0B3010E94FF269A94D914C0F3DA943C
:104D5000F101ED0DF11D808190E0B3010E94FF266D
:104D6000DD20A9F706C080E290E0B3010E94FF2693
:104D7000EA94EE20C1F743CEF30166817781CB013F
:104D80002B96E2E10C94A527E199FECF9FBB8EBB49
:104D9000E09A99278DB30895262FE199FECF9FBB06
:104DA0008EBB2DBB0FB6F894E29AE19A0FBE019626
:104DB0000895FC010590615070400110D8F780956E
:104DC00090958E0F9F1F0895FC01615070400190D7
:104DD0000110D8F7809590958E0F9F1F0895DC01E4
:104DE000FC01672F71917723E1F7329704C07C9122
:104DF0006D9370836291AE17BF07C8F308950F9348
:104E00001F93CF93DF938C01EB018B8181FF1BC03C
:104E100082FF0DC02E813F818C819D81281739072B
:104E200064F4E881F9810193F983E88306C0E88599
:104E3000F985802F0995892B31F48E819F81019608
:104E40009F838E8302C00FEF1FEFC801DF91CF91C8
:104E50001F910F910895FA01AA27283051F12031AE
:104E600081F1E8946F936E7F6E5F7F4F8F4F9F4FFE
:104E7000AF4FB1E03ED0B4E03CD0670F781F891F40
:104E80009A1FA11D680F791F8A1F911DA11D6A0F0E
:104E9000711D811D911DA11D20D009F468943F91C1
:104EA0002AE0269F11243019305D3193DEF6CF01C0
:104EB0000895462F4770405D4193B3E00FD0C9F786
:104EC000F6CF462F4F70405D4A3318F0495D31FDF3
:104ED0004052419302D0A9F7EACFB4E0A695979546
:104EE000879577956795BA95C9F70097610571051C
:104EF00008959B01AC010A2E069457954795379566
:104F00002795BA95C9F7620F731F841F951FA01DBF
:104F100008952F923F924F925F926F927F928F925D
:104F20009F92AF92BF92CF92DF92EF92FF920F9338
:104F30001F93CF93DF93CDB7DEB7CA1BDB0B0FB642
:104F4000F894DEBF0FBECDBF09942A8839884888FF
:104F50005F846E847D848C849B84AA84B984C88495
:104F6000DF80EE80FD800C811B81AA81B981CE0F8C
:104F7000D11D0FB6F894DEBF0FBECDBFED01089571
:044F8000F894FFCFD3
:104F8400080701FF0A055AFF010002000400080097
:104F9400100020004000800000010002000400080E
:104FA4000010002000400080006525630025640097
:104FB4002C200020286C617965723D0020646566B0
:104FC40061756C743D00206D617070696E673D00A1
:104FD4002900271E1F202122232425262988132D5A
:0C4FE400002C003D00020500000001FF51
:00000001FF
