:100000000C9499030C94B6030C94D1030C94B6038E
:100010000C944A0D0C94560C0C941D0D0C94C30CAE
:100020000C94F00C0C94290C0C94960C0C94D60B9C
:100030000C94B6030C94B6030C94B6030C94B6035C
:100040000C94B6030C94B6030C94B6030C94B6034C
:100050000C94B603751C611C911C651C671C691C03
:100060006D1C8F1C711C731C6F1C7D1C971C771CD6
:100070009B1C9F1CA81CA11CA11CA11CA11CA11C99
:10008000A11CA11CA11CA11C8D1C8B1C991C7B1CE0
:100090009D1CA31C631CA11CA11CA11CA11CA11CB8
:1000A000A11CA11CA11CA11CA11CA11CA11CA11C68
:1000B000A11CA11CA11CA11CA11CA11CA11CA11C58
:1000C000A11CA11CA11CA11CA11C7F1C871C831CA2
:1000D0006B1C791C931CA11CA11CA11CA11CA11CA4
:1000E000A11CA11CA11CA11CA11CA11CA11CA11C28
:1000F000A11CA11CA11CA11CA11CA11CA11CA11C18
:10010000A11CA11CA11CA11CA11C811C891C851C5B
:10011000951C0000010008004000000100040000E0
:1001200001000800200040008000000100040403DA
:1001300009041C03770069006E006B0065007900FC
:100140006C006500730073002E006B0072001003DA
:1001500070007300320061007600720055001201D9
:10016000100100000008424231E1000101020001DB
:10017000FEFEF8F86C6C68686D6D69696B6B67679B
:10018000FEF88E8D8E8D8E8D8E8D8E8D8E8D8E8DBC
:100190008E8D3939010101010101010101010101C6
:1001A0000101010100000000FC001C322123242B6E
:1001B0003433433B424B3A31444D152D1B2C3C2AE2
:1001C0001D22351A161E26252E363D3E46455A76E8
:1001D000660D294E55545B5D5D4C520E41494A589F
:1001E0000506040C030B830A010978077C7E7C70EA
:1001F0006C7D71697A746B7275774A7C7B795A6908
:10020000727A6B73746C757D7071612F00141211AA
:100210001F145911270000373F5E48103A38302824
:1002200020184D153B34233221502B404B1C4322C8
:100230001D0000F1F2370F08101820283038404810
:1002400050575F6D0051136A6467270000006362B6
:100250005F00000000000000000000008A01210291
:10026000230224022502260227022A02B500B60034
:10027000B700CD00E200E900EA0083019201940199
:1002800000000000000000000000919066676869AF
:100290006A6B6C6D6E6F7071727385868788898AE0
:1002A0008B8C8D8E8F9293949596979846480048A4
:1002B0008E8D007172738F006A6B6E6D6546494A50
:1002C0004B4C4D4E52504F51545871727374757659
:1002D0007778797A7B7C7D7E7F8081828384858636
:1002E0008788898A8F00494C4A4D4B4E6A6E65500B
:1002F0004F5251540073656C656374206D6F646573
:1003000000313A4B6579204D617070696E6700323B
:100310003A4D6163726F00333A746F67676C6520A2
:100320004C617A7920464E00343A746F67676C6589
:1003300020536D617274204B657900353A457869B8
:100340007400393A626F6F74206D6170706572006D
:10035000676F6F64206279657E00626F6F74206DD5
:10036000617070657220737461727421004D6163F5
:10037000726F00313A53656C656374204D6163722E
:100380006F20496E64657800323A436C6561722073
:100390004D6163726F00333A4578697400393A43AE
:1003A0006C65617220416C6C00313A746F67676CE8
:1003B0006500363A4261636B004B6579204D617090
:1003C00070657200313A4368616E6765204C6179EF
:1003D000657200323A53656C656374204B65792011
:1003E0002D20696E707574206B6579636F6465008C
:1003F000333A5361766520616E64204578697400F4
:10040000343A4578697420776974686F757420533D
:100410006176696E6700393A526573657420746F4E
:100420002044656661756C74202843757272656E30
:1004300074204C617965722900707332617672554F
:100440000063686F6F7365206C6179657220283175
:100450003A206E6F726D616C2C20323A20464E2C21
:1004600020333A20464E32292063757272656E74CD
:100470003D200073656C656374206B65792028618D
:100480006E79206B657920796F752077616E74299C
:100490002000696E707574206B6579636F646520E8
:1004A000286D7573742033206E756D6265727329C3
:1004B000203A200053617665202620457869742C07
:1004C000207468616E6B20796F752E0045786974B1
:1004D00020776974686F757420536176696E672C34
:1004E0002073656520796F75206C617465722E00CC
:1004F000526573657420746F2064656661756C74F1
:100500002063757272656E74206C61796572003E4D
:100510003E20006E6F7468696E67005361766520D7
:1005200063757272656E74206C61796572004C6FD0
:1005300061642063757272656E74206C6179657296
:1005400000736176696E672E2E2E00636F6C2C200F
:10055000726F77203A2000696E707574206D616348
:10056000726F20696E646578202830317E31322CBC
:100570002063616E63656C3A2030302C206D75739A
:10058000742032206E756D6265727329203A2000E6
:1005900073656C65637420696E64657820283031FA
:1005A0007E31322C2063616E63656C3A20303029D5
:1005B000203A2000696E707574206B657920286D73
:1005C0006178203234206B6579732C2073746F70DE
:1005D000203A20707265737320455343206475720E
:1005E000696E672031207365632900696E76616CDE
:1005F0006964206E756D6265722C20696E70757409
:1006000020616761696E2E00636C6561722E2E2E0B
:100610000020006D6163726F006C617A7920464E34
:1006200000736D617274206B6579003A006F6E0023
:100630006F66660005010906A101050719E029E7B3
:100640001500250195087501810295017508810342
:100650000507190029A495067508150026A4008130
:100660000095057501050819012905910295017587
:10067000039103C005010902A10185030901A1003D
:100680000509190129051500250175019505810246
:100690007503950181030501093009311581257F15
:1006A00075089502810609381581257F35004500BA
:1006B000750895018106050C0A38021581257F759C
:1006C0000895018106C0C005010980A101850215B8
:1006D0000125B7190129B7751095018100C0050CD6
:1006E0000901A10185011501269C0219012A9C021C
:1006F000751095018100C009023B0002010080FADB
:100700000904000001030101000921010100012287
:1007100040000705810308000A09040100010300E5
:10072000000009210101000122830007058303085D
:10073000000A11241FBECFE5D8E0DEBFCDBF10E018
:10074000A0E6B0E0E4E3F6E502C005900D92A03C1F
:10075000B107D9F715E0A0ECB0E001C01D92AB35B0
:10076000B107E1F70E9495260C94182B0C94000019
:10077000A82FB92F80E090E041E050EA609530E08A
:1007800009C02D9182279795879510F0842795278A
:10079000305EC8F36F5FA8F30895EADF8D939D93F1
:1007A0000895CF93CFB7CF93C395839BE9F7839BEE
:1007B0000EC0839B0CC0839B0AC0839B08C0839B95
:1007C00006C0C091A403C395C093A403A3C0DF9344
:1007D000C091A303DD27C555DC4F839B02C0DF9189
:1007E000E6CF2F930F931F9300B32FEF03FB20F956
:1007F0004F933F9310B34FEF012703FB21F93BE0E9
:1008000031C04E7F012F10B3216028C0102F4D7FC3
:100810002260000000B329C04B7F2460012F00003C
:1008200010B32BC010B3477F28602AC04F7E00B39F
:1008300020612CC04F7D10B320622FC04F7B00B3CE
:10084000206432C0422700B349934FEF00001027C5
:1008500013FB20F910B31C70C9F1297F91F2012715
:1008600003FB21F900B3237F89F2315058F110279F
:1008700013FB22F910B3277E79F2012703FB23F93A
:100880002F7C81F200B3102713FB24F92F7971F22A
:1008900000C010B3012703FB25F92F7359F200C0E4
:1008A00000B3102713FB26F9223040F200C010B32A
:1008B000012703FB27F9243028F64F77206810B36F
:1008C0000000F9CF10E81ABF002719C03B5031953E
:1008D000C31BD04010E81ABF0881033CF9F00B3469
:1008E000E9F02091A1031981110F1213EDCF4A8174
:1008F000441F093641F10D3211F0013E29F70093F2
:10090000A9033F914F911F910F912F91DF91CAB78A
:10091000C7FD4ACFCF91CFBFCF9118952091A903A2
:10092000222379F31091A7031123C1F53430C2F1CA
:100930003093A7032093A2031091A3033BE0311B44
:100940003093A3032DC00091A70301303CF50AE5C5
:100950004F7049F43091670034FD24C00093670064
:10096000CAE8D3E023C0433049F03091950334FD09
:1009700019C000939503C6E9D3E018C03091C103B4
:1009800034FD10C00093C103C2ECD3E00FC0279523
:10099000A8F45150A9F4220F0000F9CF4AE503C092
:1009A00042ED01C0432FC4E1D0E032E011B31C603E
:1009B000939A11BB02B320E41CE05F93012756E039
:1009C00002BB279520F4515021F4220FF9CF0127C3
:1009D00056E000003B5A02BBD0F2279528F4515054
:1009E00029F4220F0000F9CF012756E0279502BB1A
:1009F00020F4515021F4220FF9CF012756E029911C
:100A0000332302BB21F6037F1091A803110FC651B7
:100A1000D04002BB11F01093A10310E81ABF086088
:100A200011B3137F402F437F5F9100C000C002BB12
:100A300011BB42BB66CF81B3836181BB82B38C7E25
:100A400082BB8E9A969808958091D60090E0BC0162
:100A50006170707080FF02C0909801C0909AAC01E4
:100A60004270507081FF02C0919801C0919A88EE47
:100A700093E02CE231E0F9013197F1F70197D9F7D2
:100A8000672B11F0909A01C09098452B11F0919A24
:100A90000895919808958093D60008958091D60086
:100AA00008951092C00008958091D60090E080FFD4
:100AB00002C0909A01C09098AC014270507081FFC2
:100AC00002C0919A01C091982091D70082FF04C082
:100AD000969A2223C9F404C096982130A9F409C03B
:100AE00081E08093D700452B11F485E007C084E0B6
:100AF00005C01092D700452B21F483E08093C500F8
:100B0000089582E08093C50008952223A9F1809181
:100B1000CA008330C1F484EF91E09093D2008093B7
:100B2000D1008091D4008C3038F58F5F8093D40051
:100B30009FEF899FC00111246CE070E00E947B2729
:100B40006093D30008958430B9F484EF91E09093DA
:100B5000D2008093D1008091D400882369F0815025
:100B60008093D4009FEF899FC00111246CE070E056
:100B70000E947B276093D30008952091630030E0AA
:100B8000AC01429FC001439F900D529F900D1124D4
:100B90006FEF70E00E947B27CB01089508950895C0
:100BA0000E94D30B08958091D500813059F1809136
:100BB000CF009091D00068E070E00E947B27CB01CD
:100BC000909581959F4F81509F4F0E94BD0590E069
:100BD0000E94D30B8091CF009091D000885F974006
:100BE00044F080E090E00E94D30B949881E08093E1
:100BF000D5008091CF009091D00001969093D000C5
:100C00008093CF0008959091CA00992319F480E051
:100C100090E010C0913049F41092D0001092CF00B3
:100C20001092CE001092CD000895923031F4809150
:100C3000630090E00E94D30B0895892F8350823087
:100C4000A0F483E08093D400943019F481E0809381
:100C5000D4008091D4009FEF899FC00111246CE0E3
:100C600070E00E947B276093D30008950E94540592
:100C70000E9403060895809163008E31A1F089518E
:100C8000809363008E3118F48EE18093630080912D
:100C9000CA00823011F40E94030681E090E0909334
:100CA000C9008093C8000895809163008F3FA9F028
:100CB00090E049968F3F910511F00CF08FEF8093F3
:100CC00063008091CA00823011F40E94030681E023
:100CD00090E09093C9008093C800089590989198EF
:100CE000969880E090E00E94D30B949881E08093E6
:100CF000D50008950E94D412882391F48091CA00EF
:100D000090E0019665E070E00E947B278093CA0026
:100D100081E090E09093C9008093C8000E94030690
:100D200008951F938091C000882309F499C10E94FF
:100D3000D412882319F00E94D30592C10E94241D69
:100D4000182F0E94FD1C882311F042E004C01123DB
:100D500009F445C041E08091C1009091C200019624
:100D60009093C2008093C100209160003091610097
:100D700028173907DCF58091C3009091C4000196D3
:100D80009093C4008093C300893C91057CF18091CD
:100D9000D6009091620080FF09C0913021F482B3A7
:100DA0004095482307C082B3482B09C0913021F4F5
:100DB00082B3482B42BB08C082B34095482342BB54
:100DC0001092C2001092C1008091620091E08927C8
:100DD000809362001092C4001092C30007C010926A
:100DE000C4001092C30081E0809362002091C5008E
:100DF000222311F18091C6009091C7000196909333
:100E0000C7008093C60085369105D4F0253059F08F
:100E1000233049F0243011F0223011F4919804C0AD
:100E20008091D60081FD919A1092C7001092C60061
:100E300021502093C50004C01092C7001092C60034
:100E40008091C8009091C9001816190624F50196E2
:100E50009093C9008093C800885E9340E1F410929B
:100E6000C9001092C8006091CA008091CB00681739
:100E700031F06093CB008BE090E00E941B2A6091E0
:100E800063008091CC00861731F06093CC0089E03C
:100E900090E00E941B2A8091CA00813009F059C05D
:100EA0008091CD009091CE00009761F48091CF00A9
:100EB0009091D00068E070E00E947B27CB010E94F7
:100EC000BD0513C082309105A1F48091CF009091AF
:100ED000D00068E070E00E947B27CB01909581955F
:100EE0009F4F81509F4F0E94BD0590E00E94D30B01
:100EF0000EC08130910511F0039749F48091CF0025
:100F00009091D00001969093D0008093CF00809173
:100F1000CF009091D000885F97408CF01092D00065
:100F20001092CF008091CD009091CE00019664E0A8
:100F300070E00E947B279093CE008093CD0080913B
:100F4000CF009091D00001969093D0008093CF0075
:100F500087C08330D1F58091D1009091D200009765
:100F600031F001979093D2008093D10028C0209156
:100F7000D3002223F1F08091CF009091D000019610
:100F80009093D0008093CF000897CCF01092D000BF
:100F90001092CF0021502093D3008FEF90E0821B5E
:100FA00091096BEE7FEF0E947B27645F6093D40012
:100FB00006C01092D4001092D0001092CF00809101
:100FC000D30090E00E94BD053DC0843009F03EC0D2
:100FD0008091D1009091D200009731F001979093C9
:100FE000D2008093D10029C02091D3002F3FF1F08F
:100FF0008091CF009091D00001969093D000809383
:10100000CF000897D4F01092D0001092CF002F5F3D
:101010002093D3008FEF90E0821B91096BEE7FEF5E
:101020000E947B27645F6093D40007C08CE08093AC
:10103000D4001092D0001092CF008091D30090E0A5
:101040000E94BD0590E00E94D30B0AC01092D00010
:101050001092CF0083E090E09093CE008093CD007B
:101060001F91089589E090E00E94132A8093630005
:101070008093CC008BE090E00E94132A8093CA00FA
:101080008F3F11F41092CA008091CA008093CB0068
:101090000E9403068091BE00882311F0833051F432
:1010A0008091600090916100959587959093610083
:1010B0008093600008958091C000882361F481E0EE
:1010C0008093C0000E94480A88E00E94760B0E942C
:1010D000BB0B0E943208089580E090E0FC01E652CC
:1010E000FF4F1082FC01E551FF4F108201968131C4
:1010F0009105A1F78AE0809365008BEE90E09093D4
:101100007B0380937A030895EAEDF0E0119280E08A
:10111000EB3EF807D9F7089581E080936600EAED89
:10112000F0E08081882319F01092660005C03196A6
:1011300080E0EB3EF807A9F7809166000895EF92F2
:10114000FF921F93CF93DF9360E070E081E0E82E81
:10115000F12CFB01E551FF4F80818823D9F120E07C
:1011600030E0C82FD0E0162F1F5FCE01022E02C044
:10117000959587950A94E2F780FF27C0522F22C0E9
:10118000CE01052E02C0959587950A94E2F780FF5F
:1011900019C0412FD701052E02C0AA0FBB1F0A9408
:1011A000E2F70EC0E42FF0E0E551FF4F808190E0C0
:1011B0008A239B231816190614F481E012C04F5F8E
:1011C000413181F75F5F5830D8F22F5F3F4F2830B1
:1011D000310559F66F5F7F4F6131710509F0B9CF65
:1011E00080E0DF91CF911F91FF90EF900895809163
:1011F0007A0390917B03089540917A0350917B0389
:1012000020E030E0F901E652FF4FDA01A20FB31FF0
:101210008C9180832F5F3F4F2131310599F70895DD
:101220008AED90E00895AF92BF92CF92DF92EF9255
:10123000FF920F931F93CF93DF93DD2400E010E024
:1012400091E0A92EB12C802F0E94010AC501002E29
:1012500002C0880F991F0A94E2F7E82EC82EC094A6
:10126000CBEED0E0FF248F2D0E940F0A282F98810B
:101270008E2D892319F0222329F008C0222331F072
:101280009E2901C09C219883DD24D394F394219658
:1012900081E1F81641F70F5F1F4F0830110599F6ED
:1012A000DD2019F01092640007C08091640084363C
:1012B00018F48F5F809364009091640080916500C2
:1012C000981711F080E00EC00E949F08882319F043
:1012D0008AED90E002C08BEE90E090937B038093C8
:1012E0007A0381E0DF91CF911F910F91FF90EF90F2
:1012F000DF90CF90BF90AF9008950E94130908959A
:10130000FF920F931F93FF2442C08091D800602F5B
:101310004F2D0E9467120E942111182F8E3F41F01D
:10132000883F31F08B3F61F58091D800823041F5E4
:101330008F2D0E94010A802F0E940F0A882301F13D
:101340001E3F61F4809166008823C1F10E94781DE0
:101350008823A1F181E08093D90030C0183F61F467
:1013600080916600882361F10E94781D882341F1F5
:1013700082E08093D90024C01B3F11F410E021C00B
:101380000F5F013111F6F39488E0F81611F000E0D8
:10139000BCCF0E948C08882311F01092D9001091C4
:1013A000D900112371F40E94241D882321F082E0CA
:1013B0008093D80005C01092D80003C011E001C08E
:1013C00012E0812F1F910F91FF9008950E94F7095D
:1013D0000E946C080895813011F090E006C090E002
:1013E000613009F091E081E09827892F08958FEF0F
:1013F00087BB88BB1ABA14BA8BBB85BB8F98979AE8
:10140000089521E030E002C0220F331F8A95E2F7F1
:1014100027BB209528BB84E18A95F1F70895282FF2
:10142000883058F449B381E090E002C0880F991FDA
:101430002A95E2F74095482317C0682F70E028509E
:10144000283020F443B38FE090E003C040B387E13D
:1014500090E0861B970B21E030E002C0220F331F83
:101460008A95E2F740954223842F0895089583B723
:10147000887F826083BF12BE89B7816089BF109266
:101480007C0310927D0310927E0310927F030895D7
:101490008EB5887F83608EBD1DBC1CBC89B78460FF
:1014A00089BF089585B5887F846085BD14BC89B7E0
:1014B000806489BF10928403109285031092860382
:1014C00010928703089580E090E0FC01EE0FFF1F6B
:1014D000E450FF4F11821082019688309105A9F7E0
:1014E0000E94370A0E94480A0E94520A789408957E
:1014F00093B7987F982B93BF08959EB5987F982BAC
:101500009EBD089595B5987F982B95BD089583B796
:10151000E82FF0E0E770F070EE0FFF1FEE5EFE4F79
:1015200025913491C90108958EB5E82FF0E0E77058
:10153000F070EE0FFF1FEE5EFE4F25913491C90152
:10154000089585B5E82FF0E0E770F070EE0FFF1F0B
:10155000E25EFE4F25913491C9010895883040F430
:10156000E82FF0E0EE0FFF1FE450FF4F7183608320
:101570000895883040F4E82FF0E0EE0FFF1FE450AC
:10158000FF4F118210820895EF92FF920F931F93E5
:10159000CF93DF93EC0112B7109280031092810376
:1015A000109282031092830383B7E82FF0E0E77074
:1015B000F070EE0FFF1FEE5EFE4F2591349140E07C
:1015C00050E060E07BE187EB90E00E948E27B9015C
:1015D000CA01693B2DE8720726E0820720E09207E6
:1015E000A0F437E2C131D30780F49E0140E050E01F
:1015F0000E94502728EE33E040E050E00E948E2702
:10160000C901DA01BC01CD0121C028EE33E040E080
:1016100050E00E948E27CA01B9019E0140E050E0CF
:101620000E94502713C08091800390918103A09164
:101630008203B091830385B78F7885BF85B78068B3
:1016400085BF889585B78F7785BF08C09B01AC01A2
:10165000210F311D411D511D79018A012091800307
:1016600030918103409182035091830382B790E0CF
:10167000A0E0B0E0542F432F322F2227822B932B50
:10168000A42BB52B8E159F05A007B10760F2DF9143
:10169000CF911F910F91FF90EF90089510927C03CE
:1016A00010927D0310927E0310927F030895209183
:1016B0007C0330917D0340917E0350917F03B901FB
:1016C000CA01089510928403109285031092860334
:1016D00010928703089520918403309185034091EF
:1016E000860350918703B901CA010895893031F406
:1016F0008FB582608FBD8FB58E7F0AC08A3019F496
:101700008FB5826002C08FB58D7F8FBD8FB5816030
:101710008FBD1BBC1ABC19BC18BC08952FB52E7FF9
:101720002FBD2FB522602FBD2EB528602EBD2EB542
:1017300020612EBD97BD86BD1BBC1ABC19BC18BC50
:1017400008958FB58D7F8FBD8FB58E7F8FBD8FB57F
:101750008F778FBD8FB58F7B8FBD8FB58F7D8FBD01
:101760008FB58F7E8FBD08958FB580688FBD8FB583
:101770008F7B8FBD08958FB580628FBD8FB58F7EB3
:101780008FBD08958FB58F778FBD8FB58F7B8FBD40
:1017900008958FB58F7D8FBD8FB58F7E8FBD0895D6
:1017A0009BBD8ABD089599BD88BD08951F920F9273
:1017B0000FB60F9211242F933F934F935F936F9324
:1017C0007F938F939F93AF93BF93EF93FF938091FA
:1017D0007C0390917D03A0917E03B0917F030196DD
:1017E000A11DB11D80937C0390937D03A0937E0384
:1017F000B0937F038091800390918103A091820335
:10180000B09183030196A11DB11D80938003909335
:101810008103A0938203B09383038091FC00909195
:10182000FD00892B29F0E091FC00F091FD00099565
:10183000FF91EF91BF91AF919F918F917F916F91A8
:101840005F914F913F912F910F900FBE0F901F907E
:1018500018951F920F920FB60F9211242F933F935A
:101860004F935F936F937F938F939F93AF93BF93A8
:10187000EF93FF938091FE009091FF00892B29F058
:10188000E091FE00F091FF000995FF91EF91BF916B
:10189000AF919F918F917F916F915F914F913F9108
:1018A0002F910F900FBE0F901F9018951F920F92BF
:1018B0000FB60F9211242F933F934F935F936F9323
:1018C0007F938F939F93AF93BF93EF93FF938091F9
:1018D000840390918503A0918603B09187030196BC
:1018E000A11DB11D8093840390938503A09386036B
:1018F000B09387038091060190910701892B29F00D
:10190000E0910601F09107010995FF91EF91BF91D8
:10191000AF919F918F917F916F915F914F913F9187
:101920002F910F900FBE0F901F9018951F920F923E
:101930000FB60F9211242F933F934F935F936F93A2
:101940007F938F939F93AF93BF93EF93FF93809178
:101950000A0190910B01892B29F0E0910A01F09185
:101960000B010995FF91EF91BF91AF919F918F91DD
:101970007F916F915F914F913F912F910F900FBE8B
:101980000F901F9018951F920F920FB60F9211246F
:101990002F933F934F935F936F937F938F939F9377
:1019A000AF93BF93EF93FF9380910001909101015A
:1019B000892B29F0E0910001F09101010995FF9137
:1019C000EF91BF91AF919F918F917F916F915F91B7
:1019D0004F913F912F910F900FBE0F901F90189530
:1019E0001F920F920FB60F9211242F933F934F9394
:1019F0005F936F937F938F939F93AF93BF93EF9377
:101A0000FF938091020190910301892B29F0E091CD
:101A10000201F09103010995FF91EF91BF91AF9100
:101A20009F918F917F916F915F914F913F912F91F6
:101A30000F900FBE0F901F9018951F920F920FB628
:101A40000F9211242F933F934F935F936F937F9344
:101A50008F939F93AF93BF93EF93FF938091040174
:101A600090910501892B29F0E0910401F091050185
:101A70000995FF91EF91BF91AF919F918F917F91C8
:101A80006F915F914F913F912F910F900FBE0F90EB
:101A90001F9018951F920F920FB60F9211242F933B
:101AA0003F934F935F936F937F938F939F93AF93E6
:101AB000BF93EF93FF938091080190910901892BC7
:101AC00029F0E0910801F09109010995FF91EF914A
:101AD000BF91AF919F918F917F916F915F914F9146
:101AE0003F912F910F900FBE0F901F9018958093EC
:101AF0000D01F894809189038F7E809389038091F2
:101B0000890388608093890378940895F89480917C
:101B100089038B7F80938903789480910C010895C9
:101B20008FEC82BF80918803833000F58B98939A65
:101B30008091890380FF23C0829BA3C0809188038A
:101B4000813031F0813040F0823009F0F6C006C0BB
:101B5000839902C08DE096C082E094C08091890391
:101B600083FFEBC093988B9A84E28CC080918803AA
:101B70008A3108F079C08091890380FD08C0809186
:101B800089038160809389038A98929A0895829B41
:101B900076C080918803873140F4803118F58D300C
:101BA00061F08F3009F055C00CC08831E1F1883107
:101BB00058F1893109F04DC049C0809189038D7F6A
:101BC0004DC0809189038B7F80938903839B05C0DF
:101BD00080E880930C0181E014C010920F011092F4
:101BE0000C0137C080910C01869580930C01839B7A
:101BF00030C080910C01806880930C0180910F01AE
:101C00008F5F80930F0125C0839B05C080910F01DA
:101C10008F5F80930F0180910F0180FD1AC080912A
:101C20008903826010C0839905C080918903826016
:101C3000809389038091890381FD0BC093988B9ACF
:101C40008091890384608093890303C08B98939A61
:101C50006CC092988A9A809189038E7F80938903C1
:101C6000809188038F5F0EC0809188038F3208F0C7
:101C700064C08091890380FF10C0829906C08B9850
:101C8000939A81E0809388030895809189038E7FE1
:101C90008093890392988A9A08958091890381603C
:101CA000809389038A98929A809188038C3228F4D1
:101CB000853280F48432E1F507C08D3299F18D329E
:101CC000E8F08E32A9F531C080910D0180930E01AC
:101CD00010920F0180910E0180FF08C08B98939A9B
:101CE00080910F018F5F80930F0102C093988B9AB0
:101CF00080910E01869580930E011AC080910F018C
:101D000080FF03C093988B9A02C08B98939A80911E
:101D10008903877F80938903809189038061809301
:101D2000890306C08B98939A03C010928803089584
:101D3000809188038F5F80938803089510928803B1
:101D400081E1809389038A98929A8B98939A0E9452
:101D5000370A82E00E94780A80E060E97DE00E9414
:101D6000AE0A8FEC82BF089585B7886085BF8BB7B8
:101D700080688BBF8BE4809396038093C2038AE5CF
:101D8000809395038093C10308951F93CF93DF93AE
:101D90000E94CE056091A703635067FDC1C080918A
:101DA000A303CCE0D0E0C81BD109C555DC4F80911E
:101DB000A2038D3209F0A1C0683009F0AFC083ECF6
:101DC00080938A038AE580936700109210018881CE
:101DD000807629F0CE010E94D422182F7BC09A81F0
:101DE000109293038981882321F41092940312E0C6
:101DF0006AC0853019F49093A80364C0863009F056
:101E00004BC08B81813069F489B78B7F89BF0E9479
:101E1000CE058EE591E09093A6038093A50312E191
:101E200037C0823019F18330F9F48A81882341F474
:101E30008EE291E09093A6038093A50314E028C05E
:101E4000813041F482E391E09093A6038093A5034F
:101E50001CE11EC08230D9F48EE491E09093A60379
:101E60008093A50310E114C0813229F4CE010E94B1
:101E70008C22182F0DC0823251F4CE010E948C2288
:101E8000182F89B7846089BF0E94CF0501C010E078
:101E900080E4809310011EC0883021F411E08AEAAA
:101EA00093E013C0893019F49093AA030BC08A30D1
:101EB00011F411E008C08B3029F48BE48093960371
:101EC0008093C20310E083E993E09093A60380938C
:101ED000A50309C01F3F39F4888187FD1E8180E872
:101EE0008093100106C08F81882319F48E81811799
:101EF00008F0812F8093680011C08091100187FF46
:101F00000DC0CE010E94C6228F3F21F48EE1809346
:101F1000670004C0882311F0109268001092A70394
:101F20008091670084FF46C0809168008F3F09F46C
:101F300041C0182F893008F018E0811B8093680099
:101F400080918A0398E8892780938A03112321F1DD
:101F50002091A5033091A6038091100186FF0AC04D
:101F6000912FF901ABE8B3E084918D9331969150B4
:101F7000D9F708C0912FD901EBE8F3E08D91819357
:101F80009150E1F7C90101961150810F911D1F5F1A
:101F90009093A6038093A5038BE893E0612F0E94A2
:101FA000CD03612F6C5F6C3019F08FEF8093680068
:101FB0006093670094E180B38C7031F49150D9F74D
:101FC0001092A8031092A1030E94CF05DF91CF9138
:101FD0001F910895EF92FF921F93CF93DF937C019F
:101FE000162FEA010E94CE05888184FF05C08981F1
:101FF00098E88927898302C08AE58883AE014E5F0D
:102000005F4F212FFA01D7018D917D0181932150DE
:102010001216CCF3CA01612F0E94CD031C5F1883F6
:102020000E94CF05DF91CF911F91FF90EF9008950F
:1020300041EC53E00E94EA0F089545E953E00E9405
:10204000EA0F089598EA899FC0011124E091690080
:10205000F0916A00E80FF91FE49180E0E150EE3F53
:1020600008F481E00895089580E008950F931F9388
:10207000CF93DF9398EA899FE00111248E010855E0
:102080001F4FE0916900F0916A00EC0FFD1F9491E1
:10209000892F81508E3F18F4892F0E94CA1B2196E8
:1020A000C017D10771F7DF91CF911F910F9108955C
:1020B000809111010895982F809111018823B9F022
:1020C00080911201882399F09A3661F09B3618F4BA
:1020D000993669F405C09D3639F09E3641F406C044
:1020E0009AE605C099E603C09EE601C09DE6892FE9
:1020F000089580931201089587E090E00E94132ACA
:1021000081FF04C081E080931101089510921101B4
:10211000089587E090E00E94132A682F80911101B2
:10212000882329F481E080931101626003C010923A
:1021300011016D7F87E090E00E941B2A0895982F7F
:102140008091140180FF0FC0993611F49AE60BC0FC
:102150009A3611F499E607C09D3611F49EE603C045
:102160009E3609F49DE6892F08950E942D12982F1E
:10217000809113019817A1F09C3031F0903C21F030
:10218000983411F0943841F410921901109218010A
:1021900082E08093150102C0109215019093130103
:1021A00040911501442391F18091180190911901FA
:1021B0000196909319018093180120911601309196
:1021C00017012817390714F54230C1F40E9424057D
:1021D0008091140180FF04C08E7F809314010EC093
:1021E00081608093140188EE93E02CE231E0F901E4
:1021F0003197F1F70197D9F70E94240588E090E024
:10220000609114010E941B2A10921501089588E024
:1022100090E00E94132A809314018F3F11F41092D2
:1022200014018091BE00882311F0833019F484ECEE
:1022300099E002C088E893E190931701809316011A
:102240000895E82F865D823140F4F0E0E656FF4FB6
:10225000E4918E2F0E949F10E82F8E2F0895982FC3
:1022600080911A01882321F0892F0E942111982F33
:10227000892F0895982F80911A018823C9F0292F5A
:1022800030E0265D3040F901EC56FE4FE491EE233C
:1022900021F0892F0E9421110AC0892F865D823189
:1022A00038F42E573E4FF90184910E949F10982FC9
:1022B000892F08951F93982F865D662391F18231AF
:1022C000A8F480911B018F5F80931B0180911C01FA
:1022D000882319F580911D018823F9F490931E013C
:1022E00081E080931C0110921A0164C080911E014C
:1022F000882349F081E080931A0180911D018F5F4E
:1023000080931D0157C080911C01882309F052C0A1
:1023100080911D018F5F80931D0181E080931A01E0
:1023200049C0823190F580911B01882319F08150BA
:1023300080931B01E0911E01EE2301F180911A01AF
:102340008823E1F4F0E0E455FF4F1491812F0E94BF
:10235000CA1B812F0E94CA1B10921E010E943C13AF
:10236000882361F0812F60E040E021E00E94B616F2
:10237000812F60E040E020E00E94B61680911B01B2
:10238000882351F410921C0107C080911D018823FD
:1023900019F0815080931D010E948C08882351F010
:1023A00010921B0110921E0110921D0110921A0131
:1023B00010921C011F9108951F93CF93DF93EC019E
:1023C000162F90911E019923C9F080911A0188233C
:1023D000A9F0892F0E942111612FFE0109950E9409
:1023E0003C13882349F080911E010E94211160E076
:1023F00040E021E00E94B61610921E01DF91CF91BD
:102400001F910895982F8756883068F4E92FF0E0DF
:10241000EE0FFF1FE156F040808190911F01892B44
:1024200080931F01089580912601873040F4E82FA2
:10243000F0E0E15EFE4F90838F5F80932601089568
:102440008FE191E00895873010F080E00895E82F43
:10245000F0E0E15EFE4F8081089580911F010895B4
:1024600081E08093260187E0EFE1F1E0DF011D923A
:102470008A95E9F7089591E1899FC0011124860F9B
:10248000911D23E0880F991F2A95E1F7840F911D74
:10249000E0916B00F0916C00E80FF91FE4918E2F32
:1024A000089591E1899FC0011124860F911D33E0A9
:1024B000880F991F3A95E1F7840F911DE0916B0009
:1024C000F0916C00E80FF91FE4918E2F0895EF92C0
:1024D000FF920F931F93082FF62EE42E0E942A13CB
:1024E000882369F10E943C132F2D30E04E2D50E0DF
:1024F0008823B9F088E8089FC00111240D9673E085
:10250000220F331F7A95E1F7820F931F840F951FD7
:102510000E94132A182F0E943513882319F110E006
:1025200021C081E1089FC0011124820F931F63E045
:10253000880F991F6A95E1F7840F951F24C088E8DA
:10254000089FC00111240D962F2D30E053E0220F7B
:10255000331F5A95E1F7820F931F8E0D911D0E9434
:10256000132A182F812F81508E3FA0F081E1089F00
:10257000C00111248F0D911D43E0880F991F4A95CA
:10258000E1F78E0D911DE0916B00F0916C00E80F6A
:10259000F91F1491812F0E949F100E945B101F91C0
:1025A0000F91FF90EF9008958091270108958091F9
:1025B0002701882329F481E0809327010E946E0679
:1025C000089580912701882311F580912801909129
:1025D0002901A0912A01B0912B010196A11DB11DE5
:1025E0008093280190932901A0932A01B0932B0195
:1025F000805E9349A440B04054F01092280110929C
:10260000290110922A0110922B010E94D7120895DD
:1026100080912701882321F0109227010E9436061D
:10262000109228011092290110922A0110922B0178
:1026300008958091BE00882311F0833031F482EE3A
:1026400094E09093B1008093B0000895809132019E
:1026500081700895809132018270089580913701D0
:10266000089581E080933701089590E0895C8C3073
:1026700008F491E0892F089590E0809139018B3022
:1026800009F491E0892F089588E20E94CA1B88E22C
:102690000E94CA1B089580E3EEE6F4E0DF01982F64
:1026A0001D929A95E9F710929E04EEECF3E0DF019B
:1026B0001D928A95E9F71092310108950F931F93A7
:1026C000FC0180810E94351C8C01882319F088E66A
:1026D0000E94CA1B812F0E94CA1B812F0E94CA1B05
:1026E000002319F088E60E94CA1B1F910F910895DC
:1026F000CF92DF92EF92FF920F931F93DF93CF93CE
:102700000F92CDB7DEB78C01009711F52FC000D026
:1027100000D000D0EDB7FEB73196ADB7BEB7129678
:10272000FC92EE921197D382C282992787FD9095F1
:10273000958384830E9412288DB79EB706960FB6A4
:10274000F8949EBF0FBE8DBFC7010E945E1308C0E4
:102750007E010894E11CF11C8DE7C82E80E0D82E84
:10276000F8010F5F1F4F8491882389F60F90CF9156
:10277000DF911F910F91FF90EF90DF90CF90089520
:1027800080EF94E00E9478130E9444132EEE33E011
:1027900080E090E00BC01192E217F307E1F7019699
:1027A0009F01285F3F4F8131910549F0FC0143E0D3
:1027B000EE0FFF1F4A95E1F7EA51FC4FECCF81E0A5
:1027C00090E09093430180934201089588E096E061
:1027D0000E9478130E94441381E0809330018CE0C2
:1027E00080933B01109239010895809142019091AC
:1027F0004301892B29F41092320110923B01089574
:1028000081E495E00E9478130E94441381E0809354
:1028100030018BE080933B018091390180933A0134
:1028200010923901089589E394E00E9478130E9480
:10283000441308950E9444138DE693E00E94781398
:102840000E94441383E793E00E9478130E9444138C
:1028500088E893E00E9478130E94441386E993E08D
:102860000E9478130E94441382EB93E00E94781335
:102870000E9444138DE993E00E9478130E94441350
:1028800087E0809339010895AF92BF92CF92DF9293
:10289000FF920F931F93DF93CF930F92CDB7DEB7C5
:1028A0008C01FF246E010894C11CD11C5DE7A52E8C
:1028B00050E0B52E25C000D000D000D0EDB7FEB757
:1028C0003196ADB7BEB71296DC92CE921197B38215
:1028D000A282800F911FDC018C91992787FD909532
:1028E000958384830E9412288DB79EB706960FB6F3
:1028F000F8949EBF0FBE8DBFC6010E945E13F39475
:102900008F2D90E0F80101900020E9F73197E01B4E
:10291000F10B8E179F0778F20F90CF91DF911F91E7
:102920000F91FF90DF90CF90BF90AF9008950F93DD
:102930001F9383E196E00E94781301E116E0C8013D
:102940000E9478138091CD038F5F0E94AA1C0E9481
:102950004414C8010E94781388E096E00E9478131E
:102960000E94441381E0809330018DE080933B010D
:10297000109239011F910F9108951F93CF93DF9308
:102980008091CD038C30C8F4C0E0D0E010E380919A
:10299000CD03819FC00111248B559E4FFE01E2594A
:1029A000FB4F8C0F9D1F60810E941B2A2196C03314
:1029B000D10569F78FEF8093CD03DF91CF911F9100
:1029C00008950F931F93CF93DF93982F8C30C0F40B
:1029D00080E3989FC0011124EC01CB55DE4F8C01A0
:1029E0000B521E4FCE010E94132A982F81508E3F0A
:1029F00018F4892F0E94CA1B2196C017D10791F79E
:102A0000DF91CF911F910F910895CF92DF92EF92B6
:102A1000FF920F931F93CF93DF939091440188E827
:102A2000989F700111248DE090E0E80EF91ECC24EF
:102A3000DD2417C0CE018E0D9F1D0E94132AF801C0
:102A400081938F012196C830D105A1F70894C11C4C
:102A5000D11C88E090E0E80EF91E91E1C916D1047E
:102A600059F0860163E0000F111F6A95E1F70A51E2
:102A70001C4FC0E0D0E0DECF109243011092420123
:102A8000DF91CF911F910F91FF90EF90DF90CF904A
:102A900008951F93982F8091320180FD25C0192F32
:102AA000195C1C3008F50E940B1C8823E9F080E3B8
:102AB000189FC00111248B559E4F0E94132A8150EC
:102AC0008E3F30F40E94B81C812F0E94E1140AC08E
:102AD000812F0E942210882329F00E94B81C812F88
:102AE0000E94361081E001C080E01F91089581E2CC
:102AF00096E00E94781381E196E00E9478138BE2C1
:102B000096E00E94781381E196E00E9478130E947B
:102B10005810882319F08DE296E002C080E396E019
:102B20000E9478130E94441308950E94771589EA41
:102B300093E00E9478130E94441386E993E00E9478
:102B400078130E94441382EB93E00E9478130E9452
:102B5000441387E080933901089589E196E00E944B
:102B6000781381E196E00E9478138BE296E00E9450
:102B7000781381E196E00E9478130E94781D8823E3
:102B800019F08DE296E002C080E396E00E9478138F
:102B90000E94441308950E94AD1589EA93E00E94B3
:102BA00078130E94441386E993E00E9478130E94F0
:102BB000441382EB93E00E9478130E94441387E051
:102BC0008093390108950E94441385EF92E00E949A
:102BD00078130E94441381E093E00E9478130E94CE
:102BE00044138FE093E00E9478130E94441387E11E
:102BF00093E00E94781381E196E00E9478138BE2C3
:102C000096E00E94781381E196E00E9478130E947A
:102C1000781D882319F08DE296E002C080E396E0EB
:102C20000E9478130E94441388E293E00E94781374
:102C300081E196E00E9478138BE296E00E9478137F
:102C400081E196E00E9478130E945810882319F0C1
:102C50008DE296E002C080E396E00E9478130E9425
:102C6000441381E0809330018EE080933B01109209
:102C70003901089581E080933001809139018930D4
:102C800090F4873008F040C0833091F1843030F404
:102C90008130F9F0823009F05FC027C0853071F1D2
:102CA000863078F528C08D30B9F18E3048F48A30FE
:102CB00009F447C08A3068F18B3009F04DC02FC04D
:102CC0008E3609F447C0883789F1843609F044C04C
:102CD00038C081E494E00E947813809144018F5FB2
:102CE0000E94AA1C0E9444141EC083E794E019C0ED
:102CF00082E994E00BC084EB94E025C08CEC94E076
:102D000022C01092300128C08FE095E00E94781315
:102D100023C087E595E0FACF80E995E0F7CF84EB13
:102D200095E00E9478130E94441316C08AE593E050
:102D30000E9478130E944413109239010E94F91CDA
:102D40000BC080E593E00E9478130E944413109218
:102D5000390102C00E94E31588EE93E02CE231E0D5
:102D6000F9013197F1F70197D9F70895AF92BF9222
:102D7000CF92DF92EF92FF920F931F93DF93CF9347
:102D800000D00F92CDB7DEB7982FB62EA42EC22E4C
:102D900080913001882309F0E7C2892F0E942F110A
:102DA000D82E809139018B3009F0D4C285EA90E0A9
:102DB0006BE04D2D0E94661B7C01909139019B3088
:102DC00009F0CCC288EC8D1508F4CEC280912F0199
:102DD000882399F010922E0110922F018D2D0E94C0
:102DE000CA1BE0919E04F0E0E359FB4F10820E9461
:102DF000BD1487E0809339019DC2CC2071F0809191
:102E00003101883108F0B0C28F5F809331018EECC0
:102E100093E06D2D0E94BE1B17C00EEC13E0F8016D
:102E200001900020E9F73197E01BF10BC8016E2FEC
:102E30004D2D0E94661BBC019FEF6F3F790709F47F
:102E400093C2C8010E948C1B80919E04E82FF0E081
:102E5000E259FB4FD0828F5F80939E048D2D0E949C
:102E6000CA1B80919E04803330F087E08093390143
:102E70000E94BD145FC2CC2081F0A5EAB0E0EA0E4A
:102E8000FB1EF7018081893241F481E080932E019D
:102E900010922D0110922C0167C210922E011092F7
:102EA0002F0162C2FAE0EF16F10408F05DC2E09172
:102EB0004101F0E0E25CFE4FE0828E2D0E94AA1CF0
:102EC0000E9444140E94441300913E0180913901F4
:102ED000883009F040C0023029F4009338010E9484
:102EE0001A14E0C10130E1F4009338010E94441348
:102EF00089EB93E00E9478130E94441384EC93E0E2
:102F00000E9478130E94441383ED93E00E9478138B
:102F1000009330018AE080933B0110923901C2C1D5
:102F2000053019F4009338016BC0093021F4009387
:102F3000380188E766C0033029F4009338010E9405
:102F4000CB15B0C1043009F0ADC184E080933801E5
:102F50000E949515A7C1063019F48EE680933901B9
:102F6000809138018130C9F4013011F0023019F438
:102F70000093390197C1033031F484E08093390123
:102F80000E94F5138FC1043011F485E03AC0093076
:102F900009F088C10E94C01328C18230A9F4013011
:102FA00011F489E07DC1023011F48DE079C1033064
:102FB00011F48AE026C0093009F074C18CE08093D6
:102FC00039010E94E6136EC1833051F40130A9F437
:102FD00087E0809339010E94881D0E94AD1562C16F
:102FE000843009F05FC1013041F487E080933901FA
:102FF0000E9489100E94771555C1033009F052C113
:1030000084E6809339011092320110923B014AC14B
:10301000923089F18AE0E816F10408F0A5C18091A8
:103020004101E82FF0E0E25CFE4FE0828F5F809389
:10303000410100D000D000D0EDB7FEB731968E012F
:103040000F5F1F4FADB7BEB712961C930E9311972B
:1030500080E890E093838283F582E4820E941228C4
:10306000EDB7FEB736960FB6F894FEBF0FBEEDBFB4
:10307000C8010E944414FAE0EF16F10428F0809190
:103080003901823009F070C180913901833009F42F
:103090000CC1843038F4813009F475C0823009F0F5
:1030A00056C1A5C0893021F08D3009F050C12DC026
:1030B000809141018230F9F490913E018AE0989F1D
:1030C0009001112480913F01280F311DC901019702
:1030D0000C9750F4822F81508093CD038BE0809326
:1030E00039010E944B131DC1232B09F014C187E045
:1030F0008093390116C188EE93E02CE231E0F901AA
:103100003197F1F70197D9F72FC1809141018230B2
:1031100081F590913E018AE0989F90011124809161
:103120003F01280F311DC90101970C9760F4822FD0
:1031300081508093CD0387E0809339010E9444132E
:103140000E9497140EC0232B21F487E0809339014D
:1031500006C00E9444138BEE95E00E9478130E94F3
:10316000441383E0EEE3F1E0DF011D928A95E9F775
:1031700099C088EE93E02CE231E0F9013197F1F744
:103180000197D9F7F1C090913E01809144018330BD
:1031900050F5192F1150811731F1133020F580911E
:1031A000420190914301181619066CF40E944413D1
:1031B0008BE195E00E9478130E9444130E94F5135E
:1031C000109345016FC00E9444138EE295E00E9467
:1031D00078130E94441387E08093390110934401CF
:1031E0000E9405155FC00E94441387E059C0B09249
:1031F0003C01A0923D018BE495E00E947813809100
:103200003C018F5F0E94AA1C0E94441483E890E056
:103210000E94441480913D018F5F0E94AA1C0E946D
:10322000441486E890E00E944414809144018F5F2A
:103230000E94AA1C0E9444148FE890E00E9444144B
:103240008091440160913D0140913C010E945112E6
:103250000E94AA1C0E94441489E990E00E94441430
:1032600080913C01E0913D01F0E0A3E0EE0FFF1FF3
:10327000AA95E1F7E80FF11DEA51FC4F808190E03B
:103280008F3F910511F480E090E00E94AA1C0E94FB
:10329000441483EA90E00E9444140E94441383E0A3
:1032A000809339011092410152C0809141018330D5
:1032B00009F043C090913E0184E6989FA00111243B
:1032C00080913F012AE0829FC0011124480F591FBD
:1032D00080914001480F511D4F3F5105E4F480910A
:1032E0003C01E0913D01F0E073E0EE0FFF1F7A95A5
:1032F000E1F7E80FF11DEA51FC4F408387E080932E
:1033000039018091420190914301019690934301CC
:103310008093420106C00E9444138BEE95E00E9408
:10332000781383E0EEE3F1E0DF011D928A95E9F77F
:10333000109241010E9444130AC088EE93E02CE2EF
:1033400031E0F9013197F1F70197D9F70DC00E94EB
:103350003A160AC0CC2009F429CD06C0892F87501F
:10336000823008F055CE9ECD0F900F900F90CF91E8
:10337000DF911F910F91FF90EF90DF90CF90BF9062
:10338000AF9008951F93CF93DF93C0E0D0E010E398
:103390008091CD03819FC00111248B559E4F8C0FCE
:1033A0009D1F60E00E941B2A2196C033D10581F742
:1033B00087E0809339010E943A16DF91CF911F91E7
:1033C0000895CF93DF93C5EAD1E0CE0160E00E947B
:1033D0001B2A219683E0C53ED807B9F787E0809382
:1033E00039010E943A16DF91CF910895BF92CF9292
:1033F000DF92EF92FF920F931F93CF93DF93EE2410
:10340000FF24CC24DD2418E8B12E1EC08091440195
:103410008B9DC00111240D968C0D9D1D8C0F9D1F41
:10342000F80161918F010E941B2A2196C830D105B5
:1034300069F70894E11CF11C88E090E0C80ED91EE1
:1034400091E1E916F10459F08701B3E0000F111F73
:10345000BA95E1F70A511C4FC0E0D0E0D7CF1092E7
:1034600043011092420180913A01843039F48093F3
:1034700039011092320110923B0113C0813089F45E
:103480000E9444138EE295E00E9478130E94441338
:1034900087E08093390180914501809344010E9427
:1034A00005150E943A16DF91CF911F910F91FF9061
:1034B000EF90DF90CF90BF9008950E94441380EF6B
:1034C00093E00E9478130E94441380E094E00E94ED
:1034D00078130E94441382EB93E00E9478130E94B9
:1034E000441386E194E00E9478130E94441387E01D
:1034F000809339010E943A1608958BE393E00E946D
:1035000078130E94441382E493E00E9478130E948F
:10351000441388E0809339010E943A16089583E0AD
:10352000EEE3F1E0DF011D928A95E9F71092410187
:1035300010924401109238010E9405150E94E31573
:103540000895809132018160809332010E942405A8
:1035500088EE93E02CE231E0F9013197F1F7019721
:10356000D9F70E94240588EE93E02CE231E0F901BE
:103570003197F1F70197D9F70E94240508950E9429
:103580002D12982F8091320180FD18C08091360154
:103590009817A1F0973261F480913301882341F4A8
:1035A000109235011092340181E08093330104C000
:1035B00010923201109233019093360180913201C2
:1035C00080FF0FC081FD0DC00E948C08882349F048
:1035D000809132018260809332010E9413140E9414
:1035E0008F1A809132018823C9F480913301813090
:1035F000A9F48091340190913501019690933501A1
:10360000809334012091B0003091B1002817390720
:103610002CF40E94A11A82E0809333018091320140
:1036200081FF40C080913001882319F10E941A1C4B
:103630008823F9F080913B018B3019F40E94F61930
:1036400016C08E3019F40E947D1A11C08A3019F408
:103650000E945D1A0CC08D3019F40E94C21907C077
:103660008C3019F40E94E11902C0109230011092BE
:103670003B0180912E018823A9F080912C0190912B
:103680002D01019690932D0180932C01895E93402A
:103690004CF081E080932F0189E26FEF4FEF20E043
:1036A0000E94B61608950E94A11A08950E94FD1C5A
:1036B000882319F0109237010895809137018130E5
:1036C00021F40E94A11A109237010895FC0190E0A4
:1036D00007C08191841719F4292F30E005C09F5F3E
:1036E0009617B8F32FEF3FEFC9010895FC018081D1
:1036F00040E02FEF3FEF0CC05191252F30E090E0DC
:103700002817390719F02FEF3FEF04C04F5F852FBF
:10371000461790F3C90108959B01FC010190002018
:10372000E9F73197E81BF90B6F5F7F4F680F791F3F
:10373000E21BF30B820F931FAF010E94DF27089556
:10374000FF920F931F93F42E9B01DC010D9000203C
:10375000E9F78C01060F171FA81BB90BA61BB70BA7
:103760002F5F3F4F820F931FB801AD010E94DF27EB
:10377000F801F0821F910F91FF900895462FDC0110
:103780000D900020E9F71197A81BB90BBD010E940D
:10379000A01B0895282F80917C0190917D010196B6
:1037A00060E071E00E947B27FC0190937D01809393
:1037B0007C0180917A0190917B018E179F0759F4CB
:1037C000009719F48FEF90E001C0019790937D016D
:1037D00080937C010895E258FE4F20830895209144
:1037E0007A0130917B0180917C0190917D012817B5
:1037F000390711F480E00895C901019660E071E095
:103800000E947B27FC0190937B0180937A01E25810
:10381000FE4F8081089540E020917A0130917B0134
:1038200080917C0190917D012817390709F441E0CE
:10383000842F089580914901882319F440E050E0D5
:103840000FC040E050E020917A0130917B018091DF
:103850007C0190917D012817390711F441E050E077
:10386000842F0895809349010895982F81568A31B5
:1038700018F4292F2D5510C0892F81548A3120F436
:10388000292F2D5332E009C0892F8153893010F040
:1038900020E002C0292F235130E0892F992787FD8E
:1038A0009095A92FB92FFC01B097EF35F10508F0DD
:1038B00048C0E65DFF4FEE0FFF1F0590F491E02D2D
:1038C00009942EE141C02FE13FC020E23DC021E23A
:1038D0003BC022E239C023E237C024E235C025E2F2
:1038E00033C026E231C027E22FC02CE22EC02DE2E9
:1038F0002CC02DE229C02EE228C02EE225C02FE2E6
:1039000024C02FE221C020E320C020E31DC021E31A
:103910001CC021E319C023E318C023E315C024E32E
:1039200014C024E311C025E310C025E30DC026E335
:103930000CC026E309C027E308C027E305C028E33D
:1039400004C0222311F428E332E0832F922F08953C
:1039500027E2FBCF0F931F9306E411E090E0B8013C
:103960004AE050E00E94F127C8011F910F9108958D
:1039700020917A0130917B0180917C0190917D01B1
:103980002817390739F480E3EAE4F1E0DF011D92FA
:103990008A95E9F708951F93CF93DF930E94EF1B59
:1039A000182FCAE4D1E0882331F480E3FE0111929C
:1039B0008A95E9F712C0FE0101900020E9F73197DE
:1039C000EA54F140CE016E2F412F0E94661BBC01CC
:1039D00097FD05C0CE010E948C1B80E005C0CE0182
:1039E000612F0E94BE1B81E0912FDF91CF911F912B
:1039F000089581E080937E02089580917E0208956B
:103A00000F931F93082F162F82EB90E00E9444140F
:103A1000812F0E94AA1C0E94441484EB90E00E9413
:103A20004414802F0E94AA1C0E94441486EB90E04C
:103A30000E9444141F910F9108950E94BF1A0E9482
:103A4000B5100E94331008958091800208950F935D
:103A50001F93182F022F0E948505812F602F0E942F
:103A60005A11812F0E943A11002389F18C3F49F0AD
:103A700090917F02992391F08A3281F41092800212
:103A800006C08091800291E0892780938002809116
:103A90008002882339F50E94540524C0893221F41C
:103AA00081E080937F0221C0992311F0893311F0C6
:103AB0008D3F19F40E947A0615C08A3F19F40E94BE
:103AC000540610C0893F81F40E943B060BC08C3F16
:103AD00049F0893219F410927F0206C0873F21F421
:103AE0000E94531B80E001C081E01F910F91089557
:103AF00080918102089587E090E00E94132A80FF60
:103B000004C081E08093810208951092810208959B
:103B100087E090E00E94132A682F80918102882319
:103B200029F481E080938102616003C010928102D8
:103B30006E7F87E090E00E941B2A0895282F8F3F18
:103B400031F41092830281E080938C0208958E3FBD
:103B500021F08D3F29F41092830210928C02089577
:103B600080918C02882351F080918302E82FF0E04D
:103B7000EA5AFC4F20838F5F8093830280918A02F0
:103B800090918B02019668EC70E00E947B27FC010B
:103B900090938B0280938A0280918802909189028F
:103BA0008E179F0759F4009719F487EC90E001C035
:103BB000019790938B0280938A020895E357FD4FFB
:103BC00020830895209188023091890280918A0291
:103BD00090918B022817390711F480E00895C901EC
:103BE000019668EC70E00E947B27FC0190938902AB
:103BF00080938802E357FD4F8081089540E0209133
:103C000088023091890280918A0290918B02281754
:103C1000390709F441E0842F0895E0EAF4E01192B5
:103C200085E0E035F807D9F72CEA32E006C0FC0160
:103C3000E056FB4F808182608083F901849190E09F
:103C40002F5F3F4F009799F72FEA32E006C0FC0143
:103C5000E056FB4F808184608083F901849190E07D
:103C60002F5F3F4F009799F723EB32E006C0FC012E
:103C7000E056FB4F808188608083F901849190E059
:103C80002F5F3F4F009799F728EB32E006C0FC0109
:103C9000E056FB4F808181608083F901849190E040
:103CA0002F5F3F4F009799F726EE32E006C0FC01E8
:103CB000E056FB4F808180618083F901849190E020
:103CC0002F5F3F4F009799F708950E940B1C91E0DA
:103CD0008927089581E0809379030E945B080E9400
:103CE000561B08950F931F93CF93DF93062F8823BE
:103CF00009F490C00E942F11982F893C08F08AC0C7
:103D0000282F30E0F901EA55FE4F1491002309F401
:103D100050C080935503109260031092610310927B
:103D200062031092630310925105E901C056DB4F04
:103D3000888181FF2EC0963421F0983409F06CC040
:103D40000EC08FEF0E949E1D80EE0E949E1D82E19C
:103D50000E949E1D80EE0E949E1D8CE726C08DEF66
:103D60000E949E1D81EE0E949E1D84E10E949E1D68
:103D700087E70E949E1D81EE0E949E1D80EF0E949B
:103D80009E1D84E10E949E1D80EF0E949E1D87E77C
:103D90003BC082FD38C08FEF0E949E1D888180FF4E
:103DA00003C080EE0E949E1D812F0E949E1D8EEFFB
:103DB0002BC080915503891711F410928302E92FCB
:103DC000F0E0E056FB4F808181FF13C0963421F56F
:103DD00080EE0E949E1D80EF0E949E1D8CE70E9437
:103DE0009E1D80EE0E949E1D80EF0E949E1D82E11E
:103DF0000BC082FD11C080FF03C080EE0E949E1D9B
:103E000080EF0E949E1D812F0E949E1D8CEF0E94BC
:103E10009E1D02C080E001C081E0DF91CF911F9123
:103E20000F9108950F931F93182F062F662321F0EB
:103E30000E942F110E940212812F602F0E94721E79
:103E400081E01F910F910895CF92DF92EF92FF9240
:103E50000F931F93082FF62EE42ED22E162F6111EA
:103E600011E0802F6E2D4D2D212F0E94271DC82E71
:103E7000112339F0002329F082E19FE161E00E94E3
:103E8000DC110E942A13882339F0802F6E2D4D2DCE
:103E90002F2D0E94B61611C0112339F0002329F0EE
:103EA000802F0E944915882341F4CC2031F0802FC7
:103EB0006F2D0E94721E81E001C080E01F910F9162
:103EC000FF90EF90DF90CF9008952F923F924F9206
:103ED0005F926F927F928F929F92AF92BF92CF929A
:103EE000DF92EF92FF920F931F93CF93DF930E9485
:103EF0007D09882319F420E030E0B1C00E9430121F
:103F00000E948009A82E0E94F7082C010E94100927
:103F10003C01809187028A1509F446C0EE24FF24F3
:103F200091E0892E912C34C0F201EC0FFD1F00812D
:103F3000F301EC0FFD1F80818B21F9F08091870246
:103F40006C2F4C2D0E946712D82E8A2D6C2F4C2D71
:103F50000E946712182FD81681F0882371F08D2DDA
:103F600060E04C2D2C2F0E94241F0B2131F0812F5B
:103F700061E04C2D2C2F0E94241F2196C131D105C8
:103F800099F60894E11CF11C88E0E816F10461F050
:103F9000CE2CC4010E2C02C0880F991F0A94E2F7A0
:103FA000B82EC0E0D0E0C0CFA0928702BB24B3946B
:103FB000CC24DD2481E0282E312C41C0F301EC0F0C
:103FC000FD1F00810921F201EC0FFD1F1081192155
:103FD0008A2D6C2F4E2D0E946712F82E0117E9F0E2
:103FE0000E94FD1C882339F0112311F18C2F6E2DB6
:103FF0000E94001D1DC0112341F08F2D61E04E2D48
:104000002C2F0E94241FB8220AC08F2D60E04E2D55
:104010002C2F0E94241FB82207C0002329F08F2DC7
:104020000E942F110E9402122196C131D10531F652
:104030000894C11CD11C88E0C816D10461F0EC2C96
:10404000C1010C2C02C0880F991F0A94E2F7982E28
:10405000C0E0D0E0B3CF0E94FC082B2D30E0C901B6
:10406000DF91CF911F910F91FF90EF90DF90CF9054
:10407000BF90AF909F908F907F906F905F904F9088
:104080003F902F9008950E940B1C882339F081E007
:104090000E94321C0E94651F9C0115C080E00E9496
:1040A000321C0E94CB1C813041F4892F61E00E94B8
:1040B000721E8DEF0E949E1D04C0892F60E00E9439
:1040C000721E20E030E0C90108951F93162F8E3F25
:1040D00011F0809350050E94770D109351051F91A8
:1040E0000895109289021092880210928B02109209
:1040F0008A0210928302109284021092600310923E
:10410000610310926203109263030E948408089571
:104110008F929F92AF92BF92CF92DF92EF92FF92D7
:104120000F931F9388E0809351050E949E0E0E947A
:104130000D1E0E947120789416E9812E9924939483
:10414000B5E0AB2EB12CC12CD12C8091BE008823C0
:10415000F9F4809179038823D9F4809177039091C1
:104160007803019690937803809377030197815D9C
:10417000974074F081E08093BE001F910F91FF90F3
:10418000EF90DF90CF90BF90AF909F908F90089569
:104190008091890382FFC0C0809185029091860240
:1041A0008C3F910561F020918802309189028091C5
:1041B0008A0290918B022817390709F0ADC00E943E
:1041C000860D182F60915105623009F457C0633095
:1041D00018F4613039F44CC0663009F48DC0673092
:1041E00009F455C0133F71F1143F60F41E3EC9F04D
:1041F0001F3E18F41D3EA9F522C0103FE9F0123F02
:1042000081F511C0163F09F1173F30F4143F09F44E
:1042100081C0153F31F57EC01E3F59F01F3F09F5A3
:1042200005C08EEE76C18AEF64E073C18AEF68E064
:1042300070C1809150056DC18AEF62E06AC18AEF5A
:1042400066E067C18AEF67E064C19092B800A0920F
:10425000B900B092BA00C092BB00D092BC000E94DC
:1042600071208AEF60E00E9465200E946A1E6DCF77
:10427000853F09F44FC08AEF61E04BC10E94712075
:10428000112311F060E001C063E08AEF42C1682FA2
:1042900070E0CB0180769070A5E095958795AA9502
:1042A000E1F78093B800AB0148715070F3E0559589
:1042B0004795FA95E1F780E090E021E030E003C017
:1042C000220F331F019684179507D4F3677070701F
:1042D000269FC001279F900D369F900D1124AA277D
:1042E00097FDA095BA2F8093B9009093BA00A09340
:1042F000BB00B093BC000EC00E946A1E912F80E0EC
:1043000010FD84E091FD816092FD82600E944B056A
:104310000E9454058AEFFCC08091890384FF15CF69
:1043200080915105843009F4EBC0853030F4882346
:1043300071F0833009F009CFE1C0883009F4E5C09D
:104340008C3009F463C0853009F0FFCEDCC02091C9
:1043500088023091890280918A0290918B022817FD
:10436000390711F40E9443200E94E21D282F30E0FB
:1043700030938602209385022C3F310509F4E5CE67
:10438000232B61F060E00E94652010926003109280
:1043900061031092620310926303ABC080918302A9
:1043A000882309F4A6C020916003309161034091F5
:1043B0006203509163032F5F3F4F4F4F5F4F209336
:1043C00060033093610340936203509363038091D1
:1043D000B800889DC00111248A519F4FAA2797FDDC
:1043E000A095BA2F281739074A075B070CF481C03C
:1043F00010926003109261031092620310926303A3
:10440000109284028CE08093510573C080918402E5
:10441000882311F40E944320809183028823C1F0F5
:10442000209188023091890280918A0290918B02BA
:104430002817390769F48091600390916103A09176
:104440006203B09163030197A105B10561F40FC048
:104450001092510510926003109261031092620352
:104460001092630372CE809184028823A9F0909108
:104470008402E92FF0E0EA5AFC4F80819F5F90931D
:1044800084026CE00E946520609183028091840226
:104490000E946F2790938402E0906003F090610384
:1044A00000916203109163030894E11CF11C011D4B
:1044B000111D6091B9007091BA008091BB0090917C
:1044C000BC002AE030E040E050E00E9450279B0111
:1044D000AC012D5F3F4F4F4F5F4FC801B7010E94A6
:1044E000B02760936003709361038093620390939D
:1044F00063030E941D1D0E94910627CE82E008C022
:104500008BEA65E006C083E803C00E9471208AEA56
:1045100060E00E94652019CEFC018381813261F048
:104520008232D9F0823081F587EF96E09093A6032E
:104530008093A5038BE308958281882319F081304D
:1045400019F503C089E097E002C082E297E09093FA
:10455000A6038093A50389E008958481958100973F
:1045600019F0019789F408C084E396E09093A603BC
:104570008093A50380E4089584E796E09093A603D2
:104580008093A50383E8089580E00895FC0180915D
:104590007003882329F0613019F480810E94462637
:1045A0001092700381E008950F931F93CF93DF93D0
:1045B000182F092F0E942223C12FD02F809164032E
:1045C0008093A5031092A603888180768032A1F59E
:1045D0008981813011F488E030C0893071F48A819A
:1045E0009B818050924041F58C819D81892B21F5E2
:1045F00081E0809370038FEF20C0823019F48091A6
:104600006F0314C08A3031F40E9426238B8180937B
:104610006F0312C0833031F48B81882369F41092C8
:10462000BD000BC08B3041F48091BD008093A50389
:104630001092A60381E001C080E0DF91CF911F912D
:104640000F91089581E080937903089581E080932C
:104650007203109273030895982F81578A3110F0D6
:1046600080E0089581E080937103E92FF0E0EE0F80
:10467000FF1FEC58FE4F2591349180936C03662305
:1046800029F020936D0330936E03089510926D030B
:1046900010926E0381E00895089508958091760345
:1046A000882331F40E940B1C20E030E0882311F4B1
:1046B00021E030E0822F089588E0E3E5F5E0DF01B6
:1046C0001D928A95E9F7089588E0E4E6F3E0DF01BA
:1046D0001D928A95E9F783E0ECE6F3E0DF011D9295
:1046E0008A95E9F708950E942F11982F893C60F56B
:1046F00081578A3148F1865F883068F4E92FF0E00D
:10470000EE0FFF1FE156F040808190916403892BEA
:104710008093640317C09923C9F020915205283073
:10472000A8F4892F8D58823228F4E92FF0E0E35065
:10473000FE4F9491E22FF0E0EC59FC4F90832F5FF5
:104740002093520581E0089580E0089581E0089566
:104750009F92AF92BF92CF92DF92EF92FF920F9310
:104760001F93CF93DF930E9464230E942613882314
:1047700009F03FC00E94FD1C8823D9F50E94F7086C
:104780007C010E948009982E00E010E041E0A42EF8
:10479000B12C23C0F701EC0FFD1F80818D21A1F00A
:1047A000892D6C2F4C2D0E946712E82F8756883078
:1047B00058F4F0E0EE0FFF1FE156F0408081909139
:1047C0006403892B809364032196C131D10511F7CD
:1047D0000F5F1F4F0830110561F0C02EC501002E7C
:1047E00002C0880F991F0A94E2F7D82EC0E0D0E0EB
:1047F000D1CF0E940B1C882309F041C003E515E0CE
:10480000E80109900020E9F72197C01BD10B0E9415
:10481000CB1CF92E813039F4C8016F2D0E94BE1BCC
:104820008F2D61E00DC0C8016C2F4F2D0E94661BBB
:10483000BC0197FD07C0C8010E948C1B8F2D60E052
:104840000E942C2382E080935205F8010190002001
:10485000E9F73197E01B03E515E0CE2FD0E0C00F5C
:10486000D11F06C0D8018D918D0161E00E94732394
:104870000C171D07B9F781E0809376030DC0809176
:104880007603882349F088E0E3E5F5E0DF011D9237
:104890008A95E9F71092760381E0DF91CF911F911D
:1048A0000F91FF90EF90DF90CF90BF90AF909F90CF
:1048B00008950F931F93182F062F662321F00E944F
:1048C0002F110E940212812F602F0E9473231F91CB
:1048D0000F9108952F923F924F925F926F927F9225
:1048E0008F929F92AF92BF92CF92DF92EF92FF9200
:1048F0000F931F93DF93CF9300D000D0CDB7DEB7D7
:104900000E947D09882309F4B1C00E94800989832F
:1049100082E0809352050E9464230E94301210921C
:1049200071030E94F7082C010E9410093C011A82B1
:10493000AA24CC24DD2451E0252E312C83C09B8079
:10494000EB81FC81E60DF71DE080E820EB81FC8126
:10495000E40DF51D008108218981692D4B2D0E94F0
:104960006712182FE01609F43FC00E94FD1C88232F
:1049700041F0002309F45FC08B816B2D0E94001D64
:104980005AC0112309F48AC0002369F0812F6B2DCE
:104990004B8121E00E94271DF82E89E594E261E019
:1049A0000E94DC1109C0812F6B2D4B8120E00E94F9
:1049B000271DF82EEE2019F10E9426138823B1F04E
:1049C000002349F0812F6B2D492D21E00E94B6165E
:1049D00081E08A8328C0812F6B2D492D20E00E9421
:1049E000B61691E09A831FC0FF24F394002339F098
:1049F000112329F0812F0E9449158823B9F5FF2042
:104A000091F0002329F0812F61E00E945924A82A07
:104A1000E01649F0002319F0812F61E002C0812FD8
:104A200060E00E942C23EB81FC813196FC83EB83B8
:104A3000719709F084CF0894C11CD11CF8E0CF16FF
:104A4000D10461F0BC2CC1010C2C02C0880F991F4D
:104A50000A94E2F7882E1C821B8271CF0E94FC0808
:104A60008A81813019F08A2D816001C080E00F9029
:104A70000F900F900F90CF91DF911F910F91FF90AA
:104A8000EF90DF90CF90BF90AF909F908F907F90EE
:104A90006F905F904F903F902F900895FF24F39474
:104AA0008BCFCF92DF92EF92FF920F931F93CF9312
:104AB000DF930E94B40E88E0E3E5F5E0DF011D928C
:104AC0008A95E9F78B9A20E048EB5BE0CA010197F1
:104AD000F1F72150D9F78B98789400E0EE24C0E0EC
:104AE000D0E010E0DD24D39472E0C72E8091BE00A8
:104AF0008130F9F4809179038823D9F48091770388
:104B000090917803019690937803809377030197AF
:104B1000815D974074F01092BE008BB78F778BBF8A
:104B2000DF91CF911F910F91FF90EF90DF90CF9089
:104B300008958091A403882331F01092A4030E9469
:104B40000813EE240CC0EE2061F427E0C13DD2072B
:104B500014F4219606C00E94D712EE24E394C0E01C
:104B6000D0E00E94C50EEE2019F00E946A24BECF4C
:104B7000002399F40E946A24082F08B600FE0FC093
:104B8000D8BEF0906F03FF2051F0153010F401E013
:104B900007C06BEFF62EF10E03C00E946A24F12EBF
:104BA0000E941D1D8091950384FF3DC0809172037A
:104BB000813099F4C09272030E94642384E693E0EA
:104BC00068E00E941D1080916F03882361F10E94AC
:104BD000561B81E00E94791026C0809173038230B9
:104BE00051F483E08093730380916F038823D9F499
:104BF0000E94561B18C00E944E23882341F00E9439
:104C0000A82384E693E068E00E941D100CC00023F6
:104C100051F080917103882331F484E693E068E0D9
:104C20000E941D1000E080917203823091F4809107
:104C300074039091750301969093750380937403A8
:104C40000197883C910529F40E945B0883E08093DA
:104C500072038091C10384FF0CC0002351F0809146
:104C60007103882331F08CE693E063E00E94181012
:104C700000E00E9491060E944E23882311F080E0FC
:104C800001C081E00E94321C1F2D30CF0E944B05D5
:104C90000E94540580917303882319F482E0809365
:104CA000730308958D98959A08958D9A959808950F
:104CB0001F9310E0812F0E94B90A1F5F1730D1F7B0
:104CC00089B78E7F89BF89B78B7F89BF89B78F7B73
:104CD00089BF1F9108951F93182F0E94E6090E9413
:104CE0001B0581B38C6081BB82B3837F82BB1123A0
:104CF00071F08CE28A95F1F781B3837F81BB83B732
:104D0000856083BF0E9458268D98959A02C08D9A1F
:104D100095981F910895F8940E9451051092780378
:104D2000109277031092790308958F929F92BF9209
:104D3000CF92DF92EF92FF920F931F93CF93DF9367
:104D40008FEF8093BE000E94E60984E18A95F1F717
:104D500010E00E941309882319F41F5F1E31C9F760
:104D60000E94F7086C01FF2400E010E081E0882E2B
:104D7000912C2AC0F601EC0FFD1F80818B21D9F008
:104D80008E2D6C2F0E94EB09882319F00E94F91CCC
:104D900012C080E06C2F4E2D0E943B12803119F41E
:104DA0000E94311308C0883111F481E003C08331BF
:104DB00011F482E0F82A2196C131D105D9F60F5FAE
:104DC0001F4F0830110561F0E02EC401002E02C013
:104DD000880F991F0A94E2F7B82EC0E0D0E0CACF3E
:104DE000FF2019F0F394F092BE006091BE00643091
:104DF00021F48CE090E06FEF04C0643028F48CE084
:104E000090E00E941B2A06C08CE090E00E94132ACA
:104E10008093BE008A98929A2091BE002430D0F0F0
:104E200080E090E0829907C092FD09C08F5F8630D4
:104E300060F021E00AC0829B09C092FD02C080E0C0
:104E400004C08F5F863008F020E090B3223050F726
:104E50002093BE000E9419130E9407110E947B1D1F
:104E60000E947C108091BE008150823038F40E94F4
:104E70008B2681E00E946B260E9451258091BE0006
:104E8000882311F0833071F70E941B050E942405CE
:104E90000E948B2680E00E946B260E948820E2CF31
:104EA000629FD001739FF001829FE00DF11D649F0E
:104EB000E00DF11D929FF00D839FF00D749FF00D9A
:104EC000659FF00D9927729FB00DE11DF91F639F3B
:104ED000B00DE11DF91FBD01CF0111240895991BEB
:104EE00079E004C0991F961708F0961B881F7A95E1
:104EF000C9F78095089597FB092E07260AD077FDFC
:104F000004D049D006D000201AF4709561957F4FE7
:104F10000895F6F7909581959F4F0895A1E21A2E76
:104F2000AA1BBB1BFD010DC0AA1FBB1FEE1FFF1F4D
:104F3000A217B307E407F50720F0A21BB30BE40B9D
:104F4000F50B661F771F881F991F1A9469F76095E4
:104F50007095809590959B01AC01BD01CF0108959E
:104F600097FB092E05260ED057FD04D0D7DF0AD0B7
:104F7000001C38F450954095309521953F4F4F4F88
:104F80005F4F0895F6F790958095709561957F4FE6
:104F90008F4F9F4F0895AA1BBB1B51E107C0AA1F4B
:104FA000BB1FA617B70710F0A61BB70B881F991FCA
:104FB0005A95A9F780959095BC01CD010895681781
:104FC000790768F4FB01DC01E40FF51FA40FB51F9E
:104FD00002C002900E9241505040D8F708950C94B0
:104FE000332AFB019F01E8944230C4F04532B4F407
:104FF0004A3029F497FB1EF4909581959F4F642FBA
:1050000077270E94CB27805D8A330CF0895D8193DE
:10501000CB010097A1F716F45DE251931082C9010C
:105020000C94472AAEE0B0E0E8E1F8E20C94EF2AF5
:105030000D891E8986E08C831A8309838FEF9FE791
:105040009E838D839E01275E3F4FCE0101966F891F
:10505000788DA9010E9436282F813885020F131FF1
:10506000F80110822E96E4E00C940B2BABE0B0E03C
:10507000ECE3F8E20C94E12A3C012B015A01FC011B
:1050800017821682838181FD03C06FEF7FEFC6C157
:105090009AE0892E1E010894211C311CF301238102
:1050A000F20123FD859123FF81912F01882309F4CB
:1050B000B2C1853239F423FD859123FF81912F01FF
:1050C000853229F490E0B3010E94572AE7CF982F48
:1050D000FF24EE249924FFE1FF15D0F09B3269F004
:1050E0009C3228F4903259F0933291F40EC09D32E4
:1050F00049F0903369F441E024C052E0F52A84E09D
:10510000F82A28C098E0F92A25C0E0E1FE2A22C04A
:10511000F7FC29C0892F80538A3070F4F6FE05C051
:10512000989C902C1124980E15C0E89CE02C11241A
:10513000E80EF0E2FF2A0EC09E3229F4F6FC6BC1A5
:1051400040E4F42A07C09C3619F450E8F52A02C05E
:10515000983649F4F20123FD959123FF91912F0197
:10516000992309F0B8CF892F8554833018F08052E5
:10517000833038F444E050E0A40EB51E5FE3598359
:105180000FC0933631F0933779F0933509F056C05C
:1051900020C0F5018081898342E050E0A40EB51E55
:1051A000610101E010E012C0F501C080D180F6FC81
:1051B00003C06FEF7FEF02C0692D70E042E050E066
:1051C000A40EB51EC6010E943C2A8C015FE7F522A1
:1051D00014C0F501C080D180F6FC03C06FEF7FEFF3
:1051E00002C0692D70E042E050E0A40EB51EC60179
:1051F0000E94282A8C0150E8F52AF3FE07C01AC045
:1052000080E290E0B3010E94572AEA948E2D90E04C
:1052100008171907A8F30EC0F601F7FC8591F7FEF1
:1052200081916F0190E0B3010E94572AE110EA9446
:10523000015010400115110579F7EAC0943611F0BC
:10524000993669F5F7FE08C0F50120813181428168
:10525000538184E090E00AC0F501808191819C0136
:10526000442737FD4095542F82E090E0A80EB91EE8
:105270009FE6F92257FF09C050954095309521953A
:105280003F4F4F4F5F4FE0E8FE2ACA01B901A1012D
:105290002AE030E00E94832AD82ED21840C09537E9
:1052A00029F41F2D1F7E2AE030E01DC01F2D197F1D
:1052B0009F3661F0903720F4983509F0ACC00FC0EC
:1052C000903739F0983709F0A6C004C028E030E0E4
:1052D0000AC0106114FD146020E130E004C014FD28
:1052E000166020E132E017FF08C0F501608171818E
:1052F0008281938144E050E008C0F5018081918172
:10530000BC0180E090E042E050E0A40EB51EA10197
:105310000E94832AD82ED2188FE7F82EF122F6FEAB
:105320000BC05EEFF522D91438F4F4FE07C0F2FC8E
:1053300005C08FEEF82202C01D2D01C0192DF4FE0C
:105340000DC0FE01ED0DF11D8081803319F499EE41
:10535000F92208C01F5FF2FE05C003C08F2D8678BA
:1053600009F01F5F0F2DF3FC14C0F0FE0FC01E15D7
:1053700010F09D2C0BC09D2C9E0C911A1E2D06C06A
:1053800080E290E0B3010E94572A1F5F1E15C0F310
:1053900004C01E1510F4E11A01C0EE2404FF0FC072
:1053A00080E390E0B3010E94572A02FF1DC001FD77
:1053B00003C088E790E00EC088E590E00BC0802F26
:1053C000867891F001FF02C08BE201C080E2F7FC19
:1053D0008DE290E0B3010E94572A06C080E390E07E
:1053E000B3010E94572A9A94D914C0F3DA94F101B8
:1053F000ED0DF11D808190E0B3010E94572ADD2060
:10540000A9F706C080E290E0B3010E94572AEA940F
:10541000EE20C1F743CEF30166817781CB012B9655
:10542000E2E10C94FD2AE199FECF9FBB8EBBE09A8E
:1054300099278DB30895262FE199FECF9FBB8EBB90
:105440002DBB0FB6F894E29AE19A0FBE019608952B
:10545000FC010590615070400110D8F7809590953F
:105460008E0F9F1F0895FB01DC0102C001900D9279
:1054700041505040D8F70895FC01615070400190B0
:105480000110D8F7809590958E0F9F1F0895DC012D
:10549000FC01672F71917723E1F7329704C07C916B
:1054A0006D9370836291AE17BF07C8F308950F9391
:1054B0001F93CF93DF938C01EB018B8181FF1BC086
:1054C00082FF0DC02E813F818C819D812817390775
:1054D00064F4E881F9810193F983E88306C0E885E3
:1054E000F985802F0995892B31F48E819F81019652
:1054F0009F838E8302C00FEF1FEFC801DF91CF9112
:105500001F910F910895FA01AA27283051F12031F7
:1055100081F1E8946F936E7F6E5F7F4F8F4F9F4F47
:10552000AF4FB1E03ED0B4E03CD0670F781F891F89
:105530009A1FA11D680F791F8A1F911DA11D6A0F57
:10554000711D811D911DA11D20D009F468943F910A
:105550002AE0269F11243019305D3193DEF6CF0109
:105560000895462F4770405D4193B3E00FD0C9F7CF
:10557000F6CF462F4F70405D4A3318F0495D31FD3C
:105580004052419302D0A9F7EACFB4E0A69597958F
:10559000879577956795BA95C9F700976105710565
:1055A00008959B01AC010A2E0694579547953795AF
:1055B0002795BA95C9F7620F731F841F951FA01D09
:1055C00008952F923F924F925F926F927F928F92A7
:1055D0009F92AF92BF92CF92DF92EF92FF920F9382
:1055E0001F93CF93DF93CDB7DEB7CA1BDB0B0FB68C
:1055F000F894DEBF0FBECDBF09942A883988488849
:105600005F846E847D848C849B84AA84B984C884DE
:10561000DF80EE80FD800C811B81AA81B981CE0FD5
:10562000D11D0FB6F894DEBF0FBECDBFED010895BA
:04563000F894FFCF1C
:10563400080701FF0A05015AFF006800650100021E
:1056440000040008001000200040008000256300D2
:105654002564002C200020286C617965723D0020AF
:1056640064656661756C743D00206D617070696E6F
:10567400673D002900271E1F2021222324252629D7
:10568400C4092D002C003D00020500000001FF00AC
:00000001FF
