:100000000C946D030C94A5030C948A030C948A033E
:100010000C94FA0C0C94060C0C94CD0C0C94730CF0
:100020000C94A00C0C94D90B0C94460C0C94860BDD
:100030000C948A030C948A030C948A030C948A030C
:100040000C948A030C948A030C948A030C948A03FC
:100050000C948A03AA199619C6199A199C199E1903
:10006000A219C419A619A819A419B219CC19AC1946
:10007000D019D419DD19D619D619D619D619D61909
:10008000D619D619D619D619C219C019CE19B01950
:10009000D219D8199819D619D619D619D619D61928
:1000A000D619D619D619D619D619D619D619D619D8
:1000B000D619D619D619D619D619D619D619D619C8
:1000C000D619D619D619D619D619B419BC19B81912
:1000D000A019AE19C819D619D619D619D619D61914
:1000E000D619D619D619D619D619D619D619D61998
:1000F000D619D619D619D619D619D619D619D61988
:10010000D619D619D619D619D619B619BE19BA19CB
:10011000CA190000010008004000000100040000AE
:1001200001000800200040008000000100040403DA
:1001300009041C03770069006E006B0065007900FC
:100140006C006500730073002E006B0072001003DA
:1001500070007300320061007600720055001201D9
:10016000100100000008424231E1000101020001DB
:10017000FEFEF8F86C6C68686D6D69696B6B67679B
:100180008E8D8E8D8E8D8E8D8E8D8E8D8E8D8E8D97
:100190000000FC001C322123242B3433433B424B10
:1001A0003A31444D152D1B2C3C2A1D22351A161EA2
:1001B00026252E363D3E46455A76660D294E555427
:1001C0005B5D5D4C520E41494A580506040C030B19
:1001D000830A010978077C7E7C706C7D71697A7472
:1001E0006B7275774A7C7B795A69727A6B73746C1F
:1001F000757D7071612F001412111F1459112700A1
:1002000000373F5E48103A38302820184D153B34EF
:10021000233221502B404B1C43221D0000F1F237AA
:100220000F08101820283038404850575F6D005193
:10023000136A64672700000063625F00000000002B
:100240000000000000008A0121022302240225028E
:10025000260227022A02B500B600B700CD00E20050
:10026000E900EA008301920194010000000000000F
:10027000000000009190666768696A6B6C6D6E6F34
:100280007071727385868788898A8B8C8D8E8F9228
:10029000939495969798464800488E8D0071727396
:1002A0008F006A6B6E6D6546494A4B4C4D4E5250FD
:1002B0004F5154587172737475767778797A7B7C64
:1002C0007D7E7F808182838485868788898A8F006E
:1002D000494C4A4D4B4E6A6E65504F525154007313
:1002E000656C656374206D6F646500313A4B6579A8
:1002F000204D617070696E6700323A4D6163726FB4
:1003000000333A4578697400343A626F6F74206D37
:10031000617070657200676F6F64206279657E003E
:10032000626F6F74206D617070657220737461729A
:100330007421004D6163726F00313A53656C6563DF
:1003400074204D6163726F20496E64657800323AA3
:100350004578697400393A436C65617220416C6C70
:1003600000363A4261636B004B6579204D617070D5
:10037000657200313A4368616E6765204C6179654A
:100380007200323A53656C656374204B6579202D99
:1003900020696E707574206B6579636F64650033D6
:1003A0003A5361766520616E642045786974003443
:1003B0003A4578697420776974686F757420536161
:1003C00076696E6700393A526573657420746F20E0
:1003D00044656661756C74202843757272656E742D
:1003E000204C617965722900707332617672550014
:1003F00063686F6F7365206C617965722028313A8C
:10040000206E6F726D616C2C20323A20464E2C208B
:10041000333A20464E32292063757272656E743D00
:10042000200073656C656374206B65792028616EAC
:1004300079206B657920796F752077616E7429203A
:1004400000696E707574206B6579636F6465202830
:100450006D7573742033206E756D6265727329201B
:100460003A200053617665202620457869742C2057
:100470007468616E6B20796F752E00457869742001
:10048000776974686F757420536176696E672C2084
:1004900073656520796F75206C617465722E0052EA
:1004A0006573657420746F2064656661756C742073
:1004B00063757272656E74206C6179657200496E45
:1004C00070757420436F6D6D616E64204E756D6242
:1004D00065723A20006E6F7468696E6700536176CA
:1004E000652063757272656E74206C617965720047
:1004F0004C6F61642063757272656E74206C6179F3
:10050000657200736176696E672E2E2E00636F6CC4
:100510002C20726F77203A2000696E76616C6964D6
:10052000206B6579636F64652C20696E707574202B
:10053000616761696E2E00696E707574204D61632C
:10054000726F20496E646578202830317E31322CFC
:10055000206D7573742032206E756D62657273291B
:10056000203A200045786974206D6163726F2C20F9
:1005700073656520796F75206C617465722E0069F2
:100580006E707574206B657920286D617820323427
:10059000206B6579732C2073746F70203A20707211
:1005A0006573732045534320647572696E6720310B
:1005B000207365632900696E76616C696420496EF9
:1005C0006465782C20696E70757420616761696E4E
:1005D0002E00636C6561722E2E2E0005010906A1A6
:1005E00001050719E029E715002501950875018126
:1005F000029501750881030507190029A495067560
:1006000008150026A400810095057501050819014B
:1006100029059102950175039103C005010902A105
:100620000185030901A10005091901290515002506
:100630000175019505810275039501810305010985
:100640003009311581257F75089502810609381515
:1006500081257F35004500750895018106050C0A46
:1006600038021581257F750895018106C0C00501F6
:100670000980A1018502150125B7190129B7751057
:1006800095018100C0050C0901A101850115012614
:100690009C0219012A9C02751095018100C0090273
:1006A0003B0002010080FA0904000001030101007F
:1006B0000921010100012240000705810308000A09
:1006C00009040100010300000009210101000122C9
:1006D00083000705830308000A0011241FBECFE52D
:1006E000D8E0DEBFCDBF10E0A0E6B0E0EAE9FEE46E
:1006F00002C005900D92AC3CB107D9F715E0ACEC07
:10070000B0E001C01D92A738B107E1F70E94CC22EA
:100710000C944B270C940000A82FB92F80E090E098
:1007200041E050EA609530E009C02D91822797950D
:10073000879510F084279527305EC8F36F5FA8F384
:100740000895EADF8D939D930895CF93CFB7CF930C
:10075000C395839BE9F7839B0EC0839B0CC0839B4F
:100760000AC0839B08C0839B06C0C091D803C39571
:10077000C093D803A3C0DF93C091D703DD27C15234
:10078000DC4F839B02C0DF91E6CF2F930F931F9323
:1007900000B32FEF03FB20F94F933F9310B34FEFBC
:1007A000012703FB21F93BE031C04E7F012F10B33D
:1007B000216028C0102F4D7F2260000000B329C0A7
:1007C0004B7F2460012F000010B32BC010B3477F74
:1007D00028602AC04F7E00B320612CC04F7D10B32B
:1007E00020622FC04F7B00B3206432C0422700B389
:1007F00049934FEF0000102713FB20F910B31C7032
:10080000C9F1297F91F2012703FB21F900B3237F6E
:1008100089F2315058F1102713FB22F910B3277ECB
:1008200079F2012703FB23F92F7C81F200B3102713
:1008300013FB24F92F7971F200C010B3012703FBD9
:1008400025F92F7359F200C000B3102713FB26F9C6
:10085000223040F200C010B3012703FB27F92430F7
:1008600028F64F77206810B30000F9CF10E41ABFC4
:10087000002719C03B503195C31BD04010E41ABF6C
:100880000881033CF9F00B34E9F02091D50319817C
:10089000110F1213EDCF4A81441F093641F10D3279
:1008A00011F0013E29F70093DD033F914F911F9115
:1008B0000F912F91DF91CAB7C6FD4ACFCF91CFBF1D
:1008C000CF9118952091DD03222379F31091DB035A
:1008D0001123C1F53430C2F13093DB032093D603EA
:1008E0001091D7033BE0311B3093D7032DC000910B
:1008F000DB0301303CF50AE54F7049F43091860086
:1009000034FD24C000938600CEEBD3E023C04330F7
:1009100049F03091C90334FD19C00093C903CAECF2
:10092000D3E018C03091F50334FD10C00093F503F7
:10093000C6EFD3E00FC02795A8F45150A9F4220FB9
:100940000000F9CF4AE503C042ED01C0432FC4E1E6
:10095000D0E032E011B31C60939A11BB02B320E4E3
:100960001CE05F93012756E002BB279520F451500D
:1009700021F4220FF9CF012756E000003B5A02BBB9
:10098000D0F2279528F4515029F4220F0000F9CF16
:10099000012756E0279502BB20F4515021F4220F85
:1009A000F9CF012756E02991332302BB21F6037FBB
:1009B0001091DC03110FC651D04002BB11F010930F
:1009C000D50310E41ABF086011B3137F402F437F93
:1009D0005F9100C000C002BB11BB42BB66CF08954F
:1009E000089581B3836181BB82B38C7E82BB8E9A72
:1009F000969808958091DF0090E0BC01617070705E
:100A000080FF02C0909801C0909AAC014270507073
:100A100081FF02C0919801C0919A88EE93E02CE288
:100A200031E0F9013197F1F70197D9F7672B11F010
:100A3000909A01C09098452B11F0919A0895919841
:100A400008958093DF0008958091DF00089510924B
:100A5000CC0008958091DF0090E080FF02C0909A62
:100A600001C09098AC014270507081FF02C0919A11
:100A700001C091982091E10082FF04C0969A222340
:100A8000C9F404C096982130A9F409C081E080938C
:100A9000E100452B11F485E007C084E005C0109209
:100AA000E100452B21F483E08093E000089582E08B
:100AB0008093E00008958091D3008330C1F484EFE7
:100AC00091E09093DE008093DD008091DB008C301C
:100AD00038F58F5F8093DB009FEF899FC001112461
:100AE0006CE070E00E94C2236093DC0008958430C3
:100AF000B9F484EF91E09093DE008093DD00809163
:100B0000DB00882369F081508093DB009FEF899F91
:100B1000C00111246CE070E00E94C2236093DC00ED
:100B200008952091630030E0AC01429FC001439FD3
:100B3000900D529F900D11246FEF70E00E94C22320
:100B4000CB0108959098919896988091D300823027
:100B500011F0843029F41092D8001092D70008C008
:100B6000882311F0833021F481E08093D60008952A
:100B70001092D60008950E94830B08958091D600AC
:100B8000813059F18091D7009091D80068E070E0F1
:100B90000E94C223CB01909581959F4F81509F4F1A
:100BA0000E94910590E00E94830B8091D700909164
:100BB000D800885F974044F080E090E00E94830B6B
:100BC000949881E08093D6008091D7009091D800CE
:100BD00001969093D8008093D70008959091D30008
:100BE000992319F480E090E010C0913049F41092FC
:100BF000D8001092D7001092DA001092D900089510
:100C0000923031F48091630090E00E94830B08954C
:100C1000892F83508230A0F483E08093DB009430EE
:100C200019F481E08093DB008091DB009FEF899FC6
:100C3000C00111246CE070E00E94C2236093DC00CC
:100C400008950E942A050E94EE0508958091CC0027
:100C5000882391F581E08093CC000E94F80988E018
:100C60000E94260B0E946B0B89E090E00E944F26A9
:100C7000809363008093D5008BE090E00E944F2624
:100C80008093D3008F3F11F41092D3008091D30052
:100C90008093D4000E94EE058091CB00882311F050
:100CA000833051F480916000909161009595879513
:100CB000909361008093600008958091D30090E04C
:100CC000019665E070E00E94C2238093D30081E02A
:100CD00090E09093D2008093D1000E94EE05089599
:100CE000809163008E31A1F08951809363008E3131
:100CF00018F48EE1809363008091D300823011F468
:100D00000E94EE0581E090E09093D2008093D100A4
:100D10000895809163008F3FA9F090E049968F3F3E
:100D2000910511F00CF08FEF809363008091D30058
:100D3000823011F40E94EE0581E090E09093D200A1
:100D40008093D10008958091D300813009F059C07B
:100D50008091D9009091DA00009761F48091D700DA
:100D60009091D80068E070E00E94C223CB010E94FD
:100D7000910513C082309105A1F48091D700909124
:100D8000D80068E070E00E94C223CB019095819565
:100D90009F4F81509F4F0E94910590E00E94830BCE
:100DA0000EC08130910511F0039749F48091D7006E
:100DB0009091D80001969093D8008093D7008091AD
:100DC000D7009091D800885F97408CF01092D8009F
:100DD0001092D7008091D9009091DA00019664E0DA
:100DE00070E00E94C2239093DA008093D900809132
:100DF000D7009091D80001969093D8008093D700A7
:100E000008958330D1F58091DD009091DE00009748
:100E100031F001979093DE008093DD0028C020918F
:100E2000DC002223F1F08091D7009091D800019648
:100E30009093D8008093D7000897CCF01092D800F8
:100E40001092D70021502093DC008FEF90E0821B9E
:100E500091096BEE7FEF0E94C223645F6093DB0019
:100E600006C01092DB001092D8001092D70080913B
:100E7000DC0090E00E9491053DC0843009F03EC046
:100E80008091DD009091DE00009731F00197909302
:100E9000DE008093DD0029C02091DC002F3FF1F0BF
:100EA0008091D7009091D80001969093D8008093BC
:100EB000D7000897D4F01092D8001092D7002F5F77
:100EC0002093DC008FEF90E0821B91096BEE7FEFA7
:100ED0000E94C223645F6093DB0007C08CE08093B4
:100EE000DB001092D8001092D7008091DC0090E0D7
:100EF0000E94910590E00E94830B08951092D80003
:100F00001092D70083E090E09093DA008093D900AC
:100F100008950E94A30608951F93182F8091CC0076
:100F2000882309F489C00E943111882319F00E9496
:100F3000BE0582C00E94321A882311F042E004C02C
:100F4000113009F045C041E08091CD009091CE0074
:100F500001969093CE008093CD0020916000309157
:100F6000610028173907DCF58091CF009091D000FF
:100F700001969093D0008093CF00893C91057CF13D
:100F80008091DF009091620080FF09C0913021F4D0
:100F900082B34095482307C082B3482B09C09130E3
:100FA00021F482B3482B42BB08C082B3409548234A
:100FB00042BB1092CE001092CD008091620091E071
:100FC0008927809362001092D0001092CF0007C052
:100FD0001092D0001092CF0081E080936200809147
:100FE000D1009091D2001816190624F5019690931D
:100FF000D2008093D100885E9340E1F41092D20039
:101000001092D1006091D3008091D400681731F024
:101010006093D4008BE090E00E94572660916300BB
:101020008091D500861731F06093D50089E090E07B
:101030000E9457260E94A3061F9108958FEF87BB39
:1010400088BB1ABA14BA8BBB85BB8F98979A089540
:1010500080E090E0FC01E257FC4F1082FC01E15679
:10106000FC4F1082019681319105A1F78AE08093AF
:101070008500089581E08093E400EFE9F3E080814A
:10108000882319F01092E40005C0319683E0E03B1C
:10109000F807A9F78091E40008958FE993E0089597
:1010A0008F929F92AF92BF92DF92EF92FF920F9337
:1010B0001F93CF93DF93DD24C0E0D0E021E0E22E48
:1010C000F12C97E1892E912C8FE0A82EB12C87016D
:1010D0000C2E02C0000F111F0A94E2F707BB802FED
:1010E000809588BB81E090E00E94E318EFE9F3E08F
:1010F00040E050E0302F3095842F483048F429B339
:10110000C701042E02C0880F991F0A94E2F711C08C
:101110008850883018F423B3C50102C020B3C4013D
:10112000841B950BB70102C0660F771F8A95E2F703
:10113000CB01209528239081802F892319F0222329
:1011400029F008C0222331F0902B01C09323908313
:10115000DD24D3944F5F5F4F31964131510561F6E5
:101160002196C830D10509F0B2CFDD2019F01092D8
:10117000840007C080918400843618F48F5F8093C8
:10118000840020E09091840080918500981709F4F4
:1011900021E0822FDF91CF911F910F91FF90EF906F
:1011A000DF90BF90AF909F908F9008950E9450085D
:1011B00008954F925F926F927F928F929F92AF921B
:1011C000BF92CF92DF92EF92FF920F931F93CF9334
:1011D000DF93EE24FF2451E0C52ED12C47E1442EAD
:1011E000512C3FE0632E712C71C00C2F8091E300D5
:1011F00090E0BE014B2D582D0E948717182F865D59
:10120000803128F4E12FF0E0E656FF4F1081812F66
:10121000865F823060F01E3F51F0183F41F01B3F67
:1012200009F048C08091E300823009F043C097BACA
:10123000A8BA81E090E00E94E3188C2FC83040F4F7
:1012400029B3C60102C0880F991F0A95E2F711C0A1
:101250008850883018F423B3C30102C020B3C20100
:101260008C1B9D0BA60102C0440F551F8A95E2F707
:10127000CA0120952823F1F01E3F61F0183F09F4C0
:1012800045C0173F49F48091E400882399F081E03C
:101290008093E50091E03EC0163F41F48091E40068
:1012A000882341F082E08093E50030C01B3F11F4B9
:1012B00090E030C02196C131D10509F096CF089455
:1012C000E11CF11C58E0E516F10479F0BE2C8F2CDE
:1012D000C6010E2C02C0880F991F0A94E2F7982EBF
:1012E000A82EA094C0E0D0E080CF0E943A088823C6
:1012F00011F01092E5009091E500992359F4809146
:10130000E200813029F482E08093E30092E002C0A1
:101310001092E300892FDF91CF911F910F91FF90E1
:10132000EF90DF90CF90BF90AF909F908F907F9085
:101330006F905F904F9008950F931F93182F062F73
:101340008E3FF1F10E94B810002399F10E945B05D5
:101350001C3F49F08091E600882391F01A3281F415
:101360001092E20006C08091E20091E0892780930C
:10137000E2008091E200882319F50E942A0520C02E
:10138000193221F481E08093E6001DC0882311F01A
:10139000193311F01D3F19F40E945D0611C01A3F68
:1013A00019F40E9489060CC0193F61F40E9470066E
:1013B00007C01C3F29F0193229F41092E60002C040
:1013C00080E001C081E01F910F910895089583B7D7
:1013D000887F826083BF12BE89B7816089BF109207
:1013E000B0031092B1031092B2031092B3030895A8
:1013F0008EB5887F83608EBD1DBC1CBC89B78460A0
:1014000089BF089585B5887F846085BD14BC89B780
:10141000806489BF1092B8031092B9031092BA0386
:101420001092BB03089580E090E0FC01EE0FFF1FD7
:10143000E951FF4F11821082019688309105A9F77A
:101440000E94E7090E94F8090E94020A7894089510
:1014500093B7987F982B93BF08959EB5987F982B4C
:101460009EBD089595B5987F982B95BD089583B737
:10147000E82FF0E0E770F070EE0FFF1FEE5EFE4F1A
:1014800025913491C90108958EB5E82FF0E0E770F9
:10149000F070EE0FFF1FEE5EFE4F25913491C901F3
:1014A000089585B5E82FF0E0E770F070EE0FFF1FAC
:1014B000E25EFE4F25913491C9010895883040F4D1
:1014C000E82FF0E0EE0FFF1FE951FF4F71836083BB
:1014D0000895883040F4E82FF0E0EE0FFF1FE95147
:1014E000FF4F118210820895EF92FF920F931F9386
:1014F000CF93DF93EC0112B71092B4031092B503AF
:101500001092B6031092B70383B7E82FF0E0E770AC
:10151000F070EE0FFF1FEE5EFE4F2591349140E01C
:1015200050E060E07BE187EB90E00E94D523B901B9
:10153000CA01693B2DE8720726E0820720E0920786
:10154000A0F437E2C131D30780F49E0140E050E0BF
:101550000E94832328EE33E040E050E00E94D52330
:10156000C901DA01BC01CD0121C028EE33E040E021
:1015700050E00E94D523CA01B9019E0140E050E02D
:101580000E94832313C08091B4039091B503A0916E
:10159000B603B091B70385B78F7885BF85B78068EC
:1015A00085BF889585B78F7785BF08C09B01AC0143
:1015B000210F311D411D511D79018A012091B40374
:1015C0003091B5034091B6035091B70382B790E0D4
:1015D000A0E0B0E0542F432F322F2227822B932BF1
:1015E000A42BB52B8E159F05A007B10760F2DF91E4
:1015F000CF911F910F91FF90EF9008951092B0033B
:101600001092B1031092B2031092B3030895209187
:10161000B0033091B1034091B2035091B303B901CB
:10162000CA0108951092B8031092B9031092BA0338
:101630001092BB0308952091B8033091B9034091F3
:10164000BA035091BB03B901CA010895893031F43E
:101650008FB582608FBD8FB58E7F0AC08A3019F436
:101660008FB5826002C08FB58D7F8FBD8FB58160D1
:101670008FBD1BBC1ABC19BC18BC08952FB52E7F9A
:101680002FBD2FB522602FBD2EB528602EBD2EB5E3
:1016900020612EBD97BD86BD1BBC1ABC19BC18BCF1
:1016A00008958FB58D7F8FBD8FB58E7F8FBD8FB520
:1016B0008F778FBD8FB58F7B8FBD8FB58F7D8FBDA2
:1016C0008FB58F7E8FBD08958FB580688FBD8FB524
:1016D0008F7B8FBD08958FB580628FBD8FB58F7E54
:1016E0008FBD08958FB58F778FBD8FB58F7B8FBDE1
:1016F00008958FB58F7D8FBD8FB58F7E8FBD089577
:101700009BBD8ABD089599BD88BD08951F920F9213
:101710000FB60F9211242F933F934F935F936F93C4
:101720007F938F939F93AF93BF93EF93FF9380919A
:10173000B0039091B103A091B203B091B3030196AD
:10174000A11DB11D8093B0039093B103A093B20388
:10175000B093B3038091B4039091B503A091B60305
:10176000B091B7030196A11DB11D8093B40390936E
:10177000B503A093B603B093B7038091E7009091AF
:10178000E800892B29F0E091E700F091E800099545
:10179000FF91EF91BF91AF919F918F917F916F9149
:1017A0005F914F913F912F910F900FBE0F901F901F
:1017B00018951F920F920FB60F9211242F933F93FB
:1017C0004F935F936F937F938F939F93AF93BF9349
:1017D000EF93FF938091E9009091EA00892B29F023
:1017E000E091E900F091EA000995FF91EF91BF9136
:1017F000AF919F918F917F916F915F914F913F91A9
:101800002F910F900FBE0F901F9018951F920F925F
:101810000FB60F9211242F933F934F935F936F93C3
:101820007F938F939F93AF93BF93EF93FF93809199
:10183000B8039091B903A091BA03B091BB0301968C
:10184000A11DB11D8093B8039093B903A093BA036F
:10185000B093BB038091F1009091F200892B29F0A5
:10186000E091F100F091F2000995FF91EF91BF91A5
:10187000AF919F918F917F916F915F914F913F9128
:101880002F910F900FBE0F901F9018951F920F92DF
:101890000FB60F9211242F933F934F935F936F9343
:1018A0007F938F939F93AF93BF93EF93FF93809119
:1018B000F5009091F600892B29F0E091F500F09168
:1018C000F6000995FF91EF91BF91AF919F918F9194
:1018D0007F916F915F914F913F912F910F900FBE2C
:1018E0000F901F9018951F920F920FB60F92112410
:1018F0002F933F934F935F936F937F938F939F9318
:10190000AF93BF93EF93FF938091EB009091EC0026
:10191000892B29F0E091EB00F091EC000995FF9103
:10192000EF91BF91AF919F918F917F916F915F9157
:101930004F913F912F910F900FBE0F901F901895D0
:101940001F920F920FB60F9211242F933F934F9334
:101950005F936F937F938F939F93AF93BF93EF9317
:10196000FF938091ED009091EE00892B29F0E0919A
:10197000ED00F091EE000995FF91EF91BF91AF91CD
:101980009F918F917F916F915F914F913F912F9197
:101990000F900FBE0F901F9018951F920F920FB6C9
:1019A0000F9211242F933F934F935F936F937F93E5
:1019B0008F939F93AF93BF93EF93FF938091EF002B
:1019C0009091F000892B29F0E091EF00F091F00068
:1019D0000995FF91EF91BF91AF919F918F917F9169
:1019E0006F915F914F913F912F910F900FBE0F908C
:1019F0001F9018951F920F920FB60F9211242F93DC
:101A00003F934F935F936F937F938F939F93AF9386
:101A1000BF93EF93FF938091F3009091F400892B93
:101A200029F0E091F300F091F4000995FF91EF9116
:101A3000BF91AF919F918F917F916F915F914F91E6
:101A40003F912F910F900FBE0F901F90189580938C
:101A5000F800F8948091BD038F7E8093BD03809140
:101A6000BD0388608093BD0378940895F8948091B5
:101A7000BD038B7F8093BD0378948091F700089518
:101A80008FEC84BD8091BC03833000F58B98939AD2
:101A90008091BD0380FF23C0829BA3C08091BC03C3
:101AA000813031F0813040F0823009F0F6C006C05C
:101AB000839902C08DE096C082E094C08091BD03FE
:101AC00083FFEBC093988B9A84E28CC08091BC0317
:101AD0008A3108F079C08091BD0380FD08C08091F3
:101AE000BD0381608093BD038A98929A0895829B7A
:101AF00076C08091BC03873140F4803118F58D3079
:101B000061F08F3009F055C00CC08831E1F18831A7
:101B100058F1893109F04DC049C08091BD038D7FD6
:101B20004DC08091BD038B7F8093BD03839B05C017
:101B300080E88093F70081E014C01092FA001092C0
:101B4000F70037C08091F70086958093F700839B5C
:101B500030C08091F70080688093F7008091FA0090
:101B60008F5F8093FA0025C0839B05C08091FA00A7
:101B70008F5F8093FA008091FA0080FD1AC08091F7
:101B8000BD03826010C0839905C08091BD0382604F
:101B90008093BD038091BD0381FD0BC093988B9A08
:101BA0008091BD0384608093BD0303C08B98939A9A
:101BB0006CC092988A9A8091BD038E7F8093BD03FA
:101BC0008091BC038F5F0EC08091BC038F3208F000
:101BD00064C08091BD0380FF10C0829906C08B98BD
:101BE000939A81E08093BC0308958091BD038E7F1A
:101BF0008093BD0392988A9A08958091BD03816075
:101C00008093BD038A98929A8091BC038C3228F409
:101C1000853280F48432E1F507C08D3299F18D323E
:101C2000E8F08E32A9F531C08091F8008093F90078
:101C30001092FA008091F90080FF08C08B98939A67
:101C40008091FA008F5F8093FA0002C093988B9A7C
:101C50008091F90086958093F9001AC08091FA006E
:101C600080FF03C093988B9A02C08B98939A8091BF
:101C7000BD03877F8093BD038091BD038061809306
:101C8000BD0306C08B98939A03C01092BC030895BD
:101C90008091BC038F5F8093BC0308951092BC03B6
:101CA00081E18093BD038A98929A8B98939A0E94BF
:101CB000020A82E00E94320A85E060E47DE00E9430
:101CC0005E0A8FEC84BD089585B7826085BF8BB7AF
:101CD00080648BBF8BE48093CA038093F6038AE50C
:101CE0008093C9038093F50308951F93CF93DF93E7
:101CF0000E94EF046091DB03635067FDC1C08091D7
:101D0000D703CCE0D0E0C81BD109C152DC4F809191
:101D1000D6038D3209F0A1C0683009F0AFC083EC62
:101D20008093BE038AE5809386001092FB00888131
:101D3000807629F0CE010E948D1F182F7BC09A81DA
:101D40001092C7038981882321F41092C80312E0FE
:101D50006AC0853019F49093DC0364C0863009F0C2
:101D60004BC08B81813069F489B78B7F89BF0E941A
:101D7000EF048EE591E09093DA038093D90312E1AA
:101D800037C0823019F18330F9F48A81882341F415
:101D90008EE291E09093DA038093D90314E028C097
:101DA000813041F482E391E09093DA038093D90388
:101DB0001CE11EC08230D9F48EE491E09093DA03E6
:101DC0008093D90310E114C0813229F4CE010E941E
:101DD000451F182F0DC0823251F4CE010E94451FBD
:101DE000182F89B7846089BF0E94F00401C010E0F9
:101DF00080E48093FB001EC0883021F411E08EED5A
:101E000093E013C0893019F49093DE030BC08A303D
:101E100011F411E008C08B3029F48BE48093CA03DD
:101E20008093F60310E087EC93E09093DA038093BD
:101E3000D90309C01F3F39F4888187FD1E8180E8DE
:101E40008093FB0006C08F81882319F48E8181174F
:101E500008F0812F8093870011C08091FB0087FFDD
:101E60000DC0CE010E947F1F8F3F21F48EE1809331
:101E7000860004C0882311F0109287001092DB03C3
:101E80008091860084FF46C0809187008F3F09F4CF
:101E900041C0182F893008F018E0811B809387001B
:101EA0008091BE0398E889278093BE03112321F116
:101EB0002091D9033091DA038091FB0086FF0AC09C
:101EC000912FF901AFEBB3E084918D93319691504E
:101ED000D9F708C0912FD901EFEBF3E08D918193F1
:101EE0009150E1F7C90101961150810F911D1F5FBB
:101EF0009093DA038093D9038FEB93E0612F0E94D4
:101F0000A103612F6C5F6C3019F08FEF8093870015
:101F10006093860094E180B38C7031F49150D9F7CE
:101F20001092DC031092D5030E94F004DF91CF9150
:101F30001F910895EF92FF921F93CF93DF937C013F
:101F4000162FEA010E94EF04888184FF05C0898171
:101F500098E88927898302C08AE58883AE014E5FAD
:101F60005F4F212FFA01D7018D917D01819321507F
:101F70001216CCF3CA01612F0E94A1031C5F1883C3
:101F80000E94F004DF91CF911F91FF90EF90089590
:101F900045EF53E00E949A0F089549EC53E00E94E8
:101FA0009A0F0895982F8091FD0080FF0FC09936F9
:101FB00011F49AE60BC09A3611F499E607C09D36E3
:101FC00011F49EE603C09E3609F49DE6892F08951C
:101FD0000E947F10982F8091FC009817A1F09C30F0
:101FE00031F0903C21F0983411F0943841F4109283
:101FF00002011092010182E08093FE0002C0109263
:10200000FE009093FC004091FE00442391F18091EA
:1020100001019091020101969093020180930101C8
:102020002091FF00309100012817390714F5423044
:10203000C1F40E94FA048091FD0080FF04C08E7FED
:102040008093FD000EC081608093FD0088EE93E0D8
:102050002CE231E0F9013197F1F70197D9F70E94AD
:10206000FA0488E090E06091FD000E9457261092EB
:10207000FE00089588E090E00E944F268093FD00C6
:102080008F3F11F41092FD008091CB00882311F056
:10209000833019F484EC99E002C088E893E19093CE
:1020A00000018093FF000895982F8756883068F4C8
:1020B000E92FF0E0EE0FFF1FEA56F040808190918B
:1020C0000301892B80930301089580910A018730D1
:1020D00040F4E82FF0E0ED5FFE4F90838F5F809338
:1020E0000A01089583E091E00895873010F080E0C0
:1020F0000895E82FF0E0ED5FFE4F80810895809114
:102100000301089581E080930A0187E0E3E0F1E0B4
:10211000DF011D928A95E9F7089580910E010895D7
:1021200091E1899FC0011124860F911D23E0880F42
:10213000991F2A95E1F7840F911DE0918800F09195
:102140008900E80FF91FE4918E2F0895E82F865D2E
:10215000803160F480910E01882341F0F0E0E65672
:10216000FF4FE4918E2F0E94D20FE82F8E2F0895FB
:102170001F93982F865D6623D9F0803188F4809173
:102180000C018F5F80930C0180910D01882361F415
:1021900090930B0181E080930D0110920E0139C0E4
:1021A00080910B018823A9F181E080930E0131C059
:1021B000803178F580910C01815080930C01E09181
:1021C0000B01EE2301F180910E018823E1F4F0E090
:1021D000E655FF4F1491812F0E94FF18812F0E9416
:1021E000FF1810920B010E948E11882361F0812F3D
:1021F00060E040E021E00E944214812F60E040E076
:1022000020E00E94421480910C01882311F4109266
:102210000D011F9108951F93CF93DF93EC01162FAB
:1022200090910B019923C9F080910E018823A9F0A8
:10223000892F0E94A610612FFE0109950E948E1120
:10224000882349F080910B010E94A61060E040E0D5
:1022500021E00E94421410920B01DF91CF911F9157
:10226000089580910F01089580910F01882329F42A
:1022700081E080930F010E94A205089580910F01D3
:10228000882311F58091100190911101A091120104
:10229000B09113010196A11DB11D8093100190937F
:1022A0001101A0931201B0931301805E9349A440E1
:1022B000B04054F0109210011092110110921201CE
:1022C000109213010E943411089580910F01882308
:1022D00021F010920F010E9421061092100110921D
:1022E0001101109212011092130108958091CB00F8
:1022F000882311F0833031F484EC99E09093BE0090
:102300008093BD00089580911A0181700895809195
:102310001F01089581E080931F01089590E080914E
:1023200021018B3009F491E0892F089588E20E9401
:10233000FF1888E20E94FF18089580E3E2EAF4E0C3
:10234000DF01982F1D929A95E9F71092D204E2E0EE
:10235000F4E0DF011D928A95E9F7109219010895C2
:102360000F931F93FC0180810E946A198C018823BE
:1023700019F088E60E94FF18812F0E94FF18812F14
:102380000E94FF18002319F088E60E94FF181F9191
:102390000F910895CF92DF92EF92FF920F931F93C8
:1023A000DF93CF930F92CDB7DEB78C01009711F575
:1023B0002FC000D000D000D0EDB7FEB73196ADB73A
:1023C000BEB71296FC92EE921197D382C2829927E1
:1023D00087FD9095958384830E944E248DB79EB788
:1023E00006960FB6F8949EBF0FBE8DBFC7010E9420
:1023F000B01108C07E010894E11CF11C8AE8C82EC7
:1024000080E0D82EF8010F5F1F4F8491882389F652
:102410000F90CF91DF911F910F91FF90EF90DF9080
:10242000CF9008958FE994E00E94CA110E949611FE
:1024300022E234E080E090E00BC01192E217F30753
:10244000E1F701969F01285F3F4F8131910549F0E7
:10245000FC0143E0EE0FFF1F4A95E1F7E65EFB4FFC
:10246000ECCF81E090E090932B0180932A010895B6
:1024700082ED95E00E94CA110E94961181E080933E
:1024800018018CE08093230110922101089580911E
:102490002A0190912B01892B29F410921A01109294
:1024A0002301089583E095E00E94CA110E949611CD
:1024B00081E0809318018BE08093230180912101BA
:1024C0008093220110922101089588EE93E00E94EA
:1024D000CA110E94961108950E94961183E393E019
:1024E0000E94CA110E94961189E393E00E94CA11CA
:1024F0000E9496118EE493E00E94CA110E949611E8
:1025000081E693E00E94CA110E94961185E593E04E
:102510000E94CA110E94961187E0809321010895BC
:10252000AF92BF92CF92DF92FF920F931F93DF93F0
:10253000CF930F92CDB7DEB78C01FF246E010894C4
:10254000C11CD11C5AE8A52E50E0B52E25C000D0E4
:1025500000D000D0EDB7FEB73196ADB7BEB712963A
:10256000DC92CE921197B382A282800F911FDC0180
:102570008C91992787FD9095958384830E944E24A2
:102580008DB79EB706960FB6F8949EBF0FBE8DBF4F
:10259000C6010E94B011F3948F2D90E0F8010190D4
:1025A0000020E9F73197E01BF10B8E179F0778F2B7
:1025B0000F90CF91DF911F910F91FF90DF90CF90FF
:1025C000BF90AF90089581E0809318018091210120
:1025D000893088F48730E8F5833079F1843030F43D
:1025E0008130E1F0823009F05CC024C0853059F1BF
:1025F000863060F525C08B30B9F18C3030F48930ED
:1026000069F18A3009F04DC02CC08E3609F447C0FC
:10261000883789F1843609F044C038C080EF93E0F0
:102620000E94CA1180912C018F5F0E94DF190E94C5
:1026300090121EC082E294E019C081E494E00BC0C5
:1026400083E694E025C08BE794E022C01092180145
:1026500028C08EEB94E00E94CA1123C087E395E066
:10266000FACF84E695E014C08FE795E00E94CA1186
:102670000E94961116C080E293E00E94CA110E9447
:102680009611109221010E942E1A0BC086E193E050
:102690000E94CA110E9496111092210102C00E944C
:1026A0007B1388EE93E02CE231E0F9013197F1F7EA
:1026B0000197D9F708950E9496118FE993E00E943F
:1026C000CA110E9496118FEA93E00E94CA110E94DB
:1026D000961181E693E00E94CA110E94961185EC42
:1026E00093E00E94CA110E94961187E08093210115
:1026F0000E94E31208950E9496118FED92E00E94CD
:10270000CA110E9496118BEE92E00E94CA110E949B
:10271000961189EF92E00E94CA110E94961181E001
:1027200093E00E94CA110E94961188E093E00E94F3
:10273000CA110E94961188E0809321010E94E31241
:102740000895CF93DF93C5EAD1E0CE0160E00E9407
:102750005726219683E0C53ED807B9F787E08093D6
:1027600021010E94E312DF91CF9108951F93CF932F
:10277000DF93809101048C30C8F4C0E0D0E010E316
:1027800080910104819FC00111248B559E4FFE0151
:10279000EE55FB4F8C0F9D1F60810E94572621969E
:1027A000C033D10569F78FEF80930104DF91CF919A
:1027B0001F9108950F931F93CF93DF93982F8C3021
:1027C000C0F480E3989FC0011124EC01CB55DE4F8B
:1027D0008C010B521E4FCE010E944F26982F815024
:1027E0008E3F18F4892F0E94FF182196C017D10739
:1027F00091F7DF91CF911F910F910895CF92DF92C2
:10280000EF92FF920F931F93CF93DF9390912C0140
:1028100088E8989F700111248DE090E0E80EF91E81
:10282000CC24DD2417C0CE018E0D9F1D0E944F26A3
:10283000F80181938F012196C830D105A1F7089442
:10284000C11CD11C88E090E0E80EF91E91E1C91688
:10285000D10459F0860163E0000F111F6A95E1F77A
:10286000065E1B4FC0E0D0E0DECF10922B0110922D
:102870002A01DF91CF911F910F91FF90EF90DF9090
:10288000CF900895AF92BF92CF92DF92EF92FF92D6
:102890000F931F93DF93CF9300D00F92CDB7DEB786
:1028A000B62EA42EC22E0E94A610D82E80911801FA
:1028B000882309F08DC2809121018B3009F07EC2FE
:1028C00082EB90E06BE04D2D0E947F187C0190918F
:1028D00021019B3009F076C284ED8D1508F478C291
:1028E00080911701882399F0109216011092170118
:1028F0008D2D0E94FF18E091D204F0E0EF55FB4FC0
:1029000010820E94B61387E08093210147C2CC2039
:1029100071F080911901883108F05AC28F5F80935D
:10292000190182E094E06D2D0E94D71817C002E0D3
:1029300014E0F80101900020E9F73197E01BF10B5A
:10294000C8016E2F4D2D0E947F18BC019FEF6F3F75
:10295000790709F43DC2C8010E94A5188091D204EC
:10296000E82FF0E0EE55FB4FD0828F5F8093D204CA
:102970008D2D0E94FF188091D204803330F087E0C3
:10298000809321010E94B61309C2CC2081F0A2EBF2
:10299000B0E0EA0EFB1EF7018081893241F481E04C
:1029A00080931601109215011092140111C2109219
:1029B0001601109217010CC2FAE0EF16F10408F0AC
:1029C00007C2E0912901F0E0EA5DFE4FE08200D00D
:1029D00000D000D0EDB7FEB731968E010F5F1F4FCC
:1029E000ADB7BEB712961C930E9311978DE890E089
:1029F00093838283F582E4820E944E24EDB7FEB772
:102A000036960FB6F894FEBF0FBEEDBFC8010E9408
:102A100090120E9496110091260180912101883028
:102A200091F50130E1F4009320010E94961188E6AF
:102A300093E00E94CA110E94961183E793E00E94DE
:102A4000CA110E94961182E893E00E94CA11009375
:102A500018018AE0809323011092210157C10230AE
:102A600029F4009320010E946C1250C1033021F41C
:102A70000093200184E633C0043009F047C100937D
:102A8000200188E72CC0063019F48EE680932101DE
:102A9000809120018130C9F4013011F0023019F425
:102AA0000093210133C1033031F484E0809321018C
:102AB0000E9447122BC1043011F485E010C0093088
:102AC00009F024C10E941212C4C0823009F01EC154
:102AD000013011F489E018C1023041F48AE080939A
:102AE000210110921A011092230110C1093009F03E
:102AF0000DC18CE0809321010E94381207C19230F1
:102B000089F1FAE0EF16F10408F062C18091290121
:102B1000E82FF0E0EA5DFE4FE0828F5F80932901AD
:102B200000D000D000D0EDB7FEB731968E010F5F18
:102B30001F4FADB7BEB712961C930E9311978DE839
:102B400090E093838283F582E4820E944E24EDB765
:102B5000FEB736960FB6F894FEBF0FBEEDBFC801A4
:102B60000E949012FAE0EF16F10428F08091210102
:102B7000823009F02DC180912101823009F46BC0AF
:102B8000833020F4813009F016C131C0833009F45C
:102B9000C0C0893009F00FC1809129018230E9F469
:102BA000909126018AE0989F90011124809127013D
:102BB000280F311DC90101970C9750F4822F8150C5
:102BC000809301048BE0809321010E949D11DDC060
:102BD0000E94961186EB95E0D6C088EE93E02CE239
:102BE00031E0F9013197F1F70197D9F7F1C09091F0
:102BF000260180912C01833050F5192F1150811737
:102C000031F1133020F580912A0190912B01181693
:102C100019066CF40E9496118DED94E00E94CA1181
:102C20000E9496110E94471210932D016FC00E94BE
:102C3000961180EF94E00E94CA110E94961187E0DD
:102C40008093210110932C010E94FE135FC00E940B
:102C5000961187E059C0B0922401A09225018DE021
:102C600095E00E94CA11809124018F5F0E94DF19B4
:102C70000E94901280E990E00E94901280912501BC
:102C80008F5F0E94DF190E94901283E990E00E94FA
:102C9000901280912C018F5F0E94DF190E94901288
:102CA0008CE990E00E94901280912C0160912501A6
:102CB000409124010E9490100E94DF190E949012FE
:102CC00086EA90E00E94901280912401E091250113
:102CD000F0E0A3E0EE0FFF1FAA95E1F7E80FF11D6A
:102CE000E65EFB4F808190E08F3F910511F480E01C
:102CF00090E00E94DF190E94901280EB90E00E9409
:102D000090120E94961183E0809321011092290174
:102D100052C080912901833009F043C0909126016F
:102D200084E6989FA0011124809127012AE0829FC8
:102D3000C0011124480F591F80912801480F511DCF
:102D40004F3F5105E4F480912401E0912501F0E02A
:102D500073E0EE0FFF1F7A95E1F7E80FF11DE65ED5
:102D6000FB4F408387E08093210180912A0190915D
:102D70002B01019690932B0180932A0106C00E949B
:102D8000961189E195E00E94CA1183E0E6E2F1E044
:102D9000DF011D928A95E9F7109229010E94961190
:102DA0000AC088EE93E02CE231E0F9013197F1F7A7
:102DB0000197D9F70DC00E94E3120AC0CC2009F494
:102DC0007FCD06C0892F8750823008F098CEF4CD91
:102DD0000F900F900F90CF91DF911F910F91FF9067
:102DE000EF90DF90CF90BF90AF900895BF92CF92B9
:102DF000DF92EF92FF920F931F93CF93DF93EE2416
:102E0000FF24CC24DD2418E8B12E1EC080912C01B3
:102E10008B9DC00111240D968C0D9D1D8C0F9D1F47
:102E2000F80161918F010E9457262196C830D10583
:102E300069F70894E11CF11C88E090E0C80ED91EE7
:102E400091E1E916F10459F08701B3E0000F111F79
:102E5000BA95E1F7065E1B4FC0E0D0E0D7CF1092E5
:102E60002B0110922A0180912201843039F4809341
:102E7000210110921A011092230113C0813089F4AC
:102E80000E94961180EF94E00E94CA110E94961150
:102E900087E08093210180912D0180932C010E9475
:102EA000FE130E94E312DF91CF911F910F91FF90CB
:102EB000EF90DF90CF90BF90089583E0E6E2F1E0DD
:102EC000DF011D928A95E9F71092290110922C01D9
:102ED000109220010E94FE130E947B1308951F93FD
:102EE000982F80911A0180FD0FC0192F195C1C309A
:102EF00058F40E944019882339F00E94ED19812F5F
:102F00000E94DA1381E001C080E01F910895FF92D2
:102F10000F931F93182F062FF42E80911A018823E8
:102F2000E1F0809121018B30E1F588E8189FC00124
:102F300011240D96262F30E053E0220F331F5A95AF
:102F4000E1F7820F931F840F911D0E944F26982F47
:102F5000895C8C30A8F490E013C088E8189FC00109
:102F600011240D96262F30E043E0220F331F4A959F
:102F7000E1F7820F931F8F0D911D0E944F26982F0E
:102F8000892F81508E3F30F0812F602F4F2D0E946E
:102F90009010982F892F0E94D20F1F910F91FF90B0
:102FA0000895812F0E949010F8CF80911A018160BE
:102FB00080931A018091CB008150823018F40E94D6
:102FC000112002C00E94F11B0E94651208950E9408
:102FD0007F10982F80911A0180FD18C080911E01EA
:102FE0009817A1F0973061F480911B01882341F478
:102FF00010921D0110921C0181E080931B0104C0FE
:1030000010921A0110921B0190931E0180911A01D7
:1030100080FF0DC081FD0BC00E943A08882339F063
:1030200080911A01826080931A010E945D1780913D
:103030001A018823C9F480911B018130A9F4809181
:103040001C0190911D01019690931D0180931C011C
:103050002091BD003091BE00281739072CF40E9442
:10306000D51782E080931B0180911A0181FF36C041
:10307000809118018823C9F00E944F198823A9F074
:10308000809123018B3019F40E94F6160CC08A300F
:1030900019F40E945B1307C08C3019F40E94A1132D
:1030A00002C010921801109223018091160188230A
:1030B000A9F080911401909115010196909315014A
:1030C00080931401895E93404CF081E08093170156
:1030D00089E26FEF4FEF20E00E94421408950E94B2
:1030E000321A882319F010921F01089580911F0150
:1030F000813021F40E94D51710921F010895FC0120
:1031000090E007C08191841719F4292F30E005C0A1
:103110009F5F9617B8F32FEF3FEFC9010895FC01A9
:10312000808140E02FEF3FEF0CC05191252F30E020
:1031300090E02817390719F02FEF3FEF04C04F5FD9
:10314000852F461790F3C90108959B01FC0101905A
:103150000020E9F73197E81BF90B6F5F7F4F680F8D
:10316000791FE21BF30B820F931FAF010E941B24F8
:103170000895FF920F931F93F42E9B01DC010D9095
:103180000020E9F78C01060F171FA81BB90BA61B1F
:10319000B70B2F5F3F4F820F931FB801AD010E9405
:1031A0001B24F801F0821F910F91FF900895462F84
:1031B000DC010D900020E9F71197A81BB90BBD01A8
:1031C0000E94B91808950F931F9300912E0110913A
:1031D0002F01039665E070E00E94AE2380E090E04E
:1031E0002CE030E040E050E00E948323060F171FE0
:1031F00010932F0100932E011F910F910895282FF6
:103200008091660190916701019660E071E00E94F3
:10321000C223FC0190936701809366018091640151
:10322000909165018E179F0759F4009719F48FEF5D
:1032300090E001C001979093670180936601089523
:10324000E859FE4F20830895209164013091650173
:1032500080916601909167012817390711F480E089
:103260000895C901019660E071E00E94C223FC014B
:103270009093650180936401E859FE4F8081089521
:1032800040E0209164013091650180916601909148
:1032900067012817390709F441E0842F08958091C8
:1032A0006301882319F440E050E00FC040E050E093
:1032B00020916401309165018091660190916701D0
:1032C0002817390711F441E050E0842F08958093C6
:1032D00063010895982F81568A3118F4292F2D55AE
:1032E00010C0892F81548A3120F4292F2D5332E0C8
:1032F00009C0892F8153893010F020E002C0292FA6
:10330000235130E0892F992787FD9095A92FB92F58
:10331000FC01B097EF35F10508F048C0E65DFF4FBE
:10332000EE0FFF1F0590F491E02D09942EE141C0AE
:103330002FE13FC020E23DC021E23BC022E239C084
:1033400023E237C024E235C025E233C026E231C093
:1033500027E22FC02CE22EC02DE22CC02DE229C086
:103360002EE228C02EE225C02FE224C02FE221C089
:1033700020E320C020E31DC021E31CC021E319C0CD
:1033800023E318C023E315C024E314C024E311C0D1
:1033900025E310C025E30DC026E30CC026E309C0D9
:1033A00027E308C027E305C028E304C0222311F463
:1033B00028E332E0832F922F089527E2FBCF0F936B
:1033C0001F9300E611E090E0B8014AE050E00E944F
:1033D0002D24C8011F910F9108952091640130910F
:1033E000650180916601909167012817390739F4CA
:1033F00080E3E0E3F1E0DF011D928A95E9F70895AB
:103400001F93CF93DF930E942419182FC0E3D1E0BC
:10341000882331F480E3FE0111928A95E9F712C006
:10342000FE0101900020E9F73197E053F140CE0111
:103430006E2F412F0E947F18BC0197FD05C0CE0161
:103440000E94A51880E005C0CE01612F0E94D71808
:1034500081E0912FDF91CF911F91089581E08093BA
:10346000680208958091680208950F931F93082FB2
:10347000162F8FEB90E00E949012812F0E94DF198F
:103480000E94901281EC90E00E949012802F0E9486
:10349000DF190E94901283EC90E00E9490121F911D
:1034A0000F9108950E94E7170E94E80F0895282FB2
:1034B0008F3F31F410926A0281E080937302089585
:1034C0008E3F21F08D3F29F410926A021092730210
:1034D000089580917302882351F080916A02E82F49
:1034E000F0E0E35CFC4F20838F5F80936A02809161
:1034F000710290917202019668EC70E00E94C22302
:10350000FC01909372028093710280916F029091FE
:1035100070028E179F0759F4009719F487EC90E01A
:1035200001C0019790937202809371020895EC5844
:10353000FD4F2083089520916F0230917002809199
:103540007102909172022817390711F480E00895F2
:10355000C901019668EC70E00E94C223FC019093BF
:10356000700280936F02EC58FD4F8081089540E017
:1035700020916F02309170028091710290917202DD
:103580002817390709F441E0842F0895109270023A
:1035900010926F02109272021092710210926A02DF
:1035A00010926B0210924703109248031092490345
:1035B00010924A03EEE8F3E0119283E0EF39F80746
:1035C000D9F70895E4EDF4E0119285E0E438F807C6
:1035D000D9F726E932E006C0FC01EC52FB4F8081AE
:1035E00082608083F901849190E02F5F3F4F0097C4
:1035F00099F729E932E006C0FC01EC52FB4F8081CB
:1036000084608083F901849190E02F5F3F4F0097A1
:1036100099F72DE932E006C0FC01EC52FB4F8081A6
:1036200088608083F901849190E02F5F3F4F00977D
:1036300099F722EA32E006C0FC01EC52FB4F808190
:1036400081608083F901849190E02F5F3F4F009764
:1036500099F720ED32E006C0FC01EC52FB4F80816F
:1036600080618083F901849190E02F5F3F4F009744
:1036700099F7EEE8F3E0119283E0EF39F807D9F714
:1036800008950E94401990E0882309F491E0892F61
:10369000089581E080938D030E9426060E946F1892
:1036A00008950F931F93CF93DF93062F882309F478
:1036B00090C00E94A610982F853D08F08AC0282F40
:1036C00030E0F901E057FE4F1491002309F450C097
:1036D00080933C03109247031092480310924903D1
:1036E00010924A0310928505E901CC52DB4F888184
:1036F00081FF2EC0963421F0983409F06CC00EC0C2
:103700008FEF0E94571A80EE0E94571A82E10E94A2
:10371000571A80EE0E94571A8CE726C08DEF0E9440
:10372000571A81EE0E94571A84E10E94571A87E7C0
:103730000E94571A81EE0E94571A80EF0E94571A72
:1037400084E10E94571A80EF0E94571A87E73BC016
:1037500082FD38C08FEF0E94571A888180FF03C016
:1037600080EE0E94571A812F0E94571A8EEF2BC0AD
:1037700080913C03891711F410926A02E92FF0E05E
:10378000EC52FB4F808181FF13C0963421F580EE0F
:103790000E94571A80EF0E94571A8CE70E94571A0E
:1037A00080EE0E94571A80EF0E94571A82E10BC0E8
:1037B00082FD11C080FF03C080EE0E94571A80EF87
:1037C0000E94571A812F0E94571A8CEF0E94571A95
:1037D00002C080E001C081E0DF91CF911F910F9185
:1037E000089588E660E00E94511B87E660E00E9431
:1037F000511B89E660E00E94511B0895DF92EF9211
:10380000FF920F931F93182F062FF42EE22E0E9483
:103810009C09D82E002339F0112329F081E59BE182
:1038200061E00E940B110E948311882339F0812FDF
:103830006F2D4E2D202F0E94421411C0002339F00D
:10384000112329F0812F0E946F17882341F4DD2076
:1038500031F0812F602F0E94511B81E001C080E078
:103860001F910F91FF90EF90DF9008954F925F921C
:103870006F927F928F929F92AF92BF92CF92DF9280
:10388000EF92FF920F931F93CF93DF930E94401903
:10389000882341F081E00E9467190E94D60888239E
:1038A000A1F016C080E00E9467190E94001A8130C2
:1038B00041F4892F61E00E94511B8DEF0E94571A3D
:1038C00004C0892F60E00E94511B20E030E0B9C0A5
:1038D0000E9482100E94D908A82E0E944D084C0117
:1038E00080916E028A1509F446C0EE24FF2491E00F
:1038F000692E712C34C0F401EC0FFD1F0081FE0114
:10390000E257FC4F80818B21F9F080916E026C2F81
:103910004C2D0E948717D82E8A2D6C2F4C2D0E947B
:103920008717182FD81681F0882371F08D2D60E04D
:103930004C2D2C2F0E94FE1B0B2131F0812F61E0BA
:103940004C2D2C2F0E94FE1B2196C131D10599F6DA
:103950000894E11CF11C88E0E816F10461F0CE2C1B
:10396000C3010E2C02C0880F991F0A94E2F7B82EEB
:10397000C0E0D0E0C0CFA0926E02BB24B394CC24B0
:10398000DD2481E0482E512C3FC0FE01E257FC4F60
:1039900000810721F401EC0FFD1F108117218A2DF2
:1039A0006C2F4E2D0E948717F82E0117E9F00E9408
:1039B000321A882339F0112301F18C2F6E2D0E94C9
:1039C000351A1BC0112341F08F2D61E04E2D2C2F95
:1039D0000E94FE1BB8220AC08F2D60E04E2D2C2FB6
:1039E0000E94FE1BB82205C0002319F08F2D0E94F3
:1039F00054102196C131D10541F60894C11CD11C47
:103A000088E0C816D10461F0EC2CC2010C2C02C075
:103A1000880F991F0A94E2F7782EC0E0D0E0B5CF66
:103A200020E030E0F901E257FC4FD401A20FB31FB0
:103A30008C9180832F5F3F4F2131310599F72B2DDA
:103A400030E0C901DF91CF911F910F91FF90EF906E
:103A5000DF90CF90BF90AF909F908F907F906F90AE
:103A60005F904F9008951F93162F8E3F11F0809313
:103A700084050E94270D109385051F9108958F924C
:103A80009F92AF92BF92CF92DF92EF92FF920F93ED
:103A90001F9388E0809385050E944E0E0E94E21AD3
:103AA0000E9428080E94C61A789416E9912E88244C
:103AB0008394B5E0AB2EB12CC12CD12C8091CB00DE
:103AC0008823F9F480918D038823D9F480918B03A6
:103AD00090918C03019690938C0380938B030197B4
:103AE000815D974074F081E08093CB001F910F912E
:103AF000FF90EF90DF90CF90BF90AF909F908F900E
:103B000008958091BD0382FFC0C080916C029091A6
:103B10006D028C3F910561F020916F02309170022F
:103B200080917102909172022817390709F0ADC097
:103B30000E94360D182F60918505623009F457C038
:103B4000633018F4613039F44CC0663009F48DC02C
:103B5000673009F455C0133F71F1143F60F41E3E05
:103B6000C9F01F3E18F41D3EA9F522C0103FE9F030
:103B7000123F81F511C0163F09F1173F30F4143F91
:103B800009F481C0153F31F57EC01E3F59F01F3F3B
:103B900009F505C08EEE76C18AEF64E073C18AEF45
:103BA00068E070C1809184056DC18AEF62E06AC1EE
:103BB0008AEF66E067C18AEF67E064C18092C50062
:103BC000A092C600B092C700C092C800D092C900AF
:103BD0000E94C61A8AEF60E00E94331D0E94491BB2
:103BE0006DCF853F09F44FC08AEF61E04BC10E9461
:103BF000C61A112311F060E001C063E08AEF42C1F0
:103C0000682F70E0CB0180769070A5E09595879540
:103C1000AA95E1F78093C500AB0148715070F3E0BD
:103C200055954795FA95E1F780E090E021E030E086
:103C300003C0220F331F019684179507D4F36770D2
:103C40007070269FC001279F900D369F900D112404
:103C5000AA2797FDA095BA2F8093C6009093C7001E
:103C6000A093C800B093C9000EC00E94491B912FB9
:103C700080E010FD84E091FD816092FD82600E94F1
:103C800021050E942A058AEFFCC08091BD0384FFB4
:103C900015CF80918505843009F4EBC0853030F470
:103CA000882371F0833009F009CFE1C0883009F42E
:103CB000E5C08C3009F461C0853009F0FFCEDCC06E
:103CC00020916F0230917002809171029091720286
:103CD0002817390711F40E94361C0E94521A80914D
:103CE000E2000E948C070E949B1A282F30E030933C
:103CF0006D0220936C022C3F310509F4DFCE232B9B
:103D000021F060E00E94331D62C080916A02882326
:103D100009F4D4CE209147033091480340914903E0
:103D200050914A032F5F3F4F4F4F5F4F2093470300
:103D3000309348034093490350934A038091C50050
:103D4000899DC00111248A519F4FAA2797FDA095F4
:103D5000BA2F281739074A075B070CF4AFCE109229
:103D60004703109248031092490310924A0310929D
:103D70006B028CE080938505A1CE80916B02882335
:103D800011F40E94361C0E94521A8091E2000E9497
:103D90008C0780916A028823C1F020916F023091D4
:103DA000700280917102909172022817390769F4AC
:103DB0008091470390914803A0914903B0914A0331
:103DC0000197A105B10561F40FC01092850510920D
:103DD0004703109248031092490310924A036ECE93
:103DE00080916B028823A9F090916B02E92FF0E09B
:103DF000E35CFC4F80819F5F90936B026CE00E94BC
:103E0000331D60916A0280916B020E94A2239093FD
:103E10006B02E0904703F090480300914903109132
:103E20004A030894E11CF11C011D111D6091C6009C
:103E30007091C7008091C8009091C9002AE030E0DD
:103E400040E050E00E9483239B01AC012D5F3F4F77
:103E50004F4F5F4FC801B7010E94F723609347039C
:103E6000709348038093490390934A0327CE82E0DE
:103E700008C08BEA65E006C083E803C00E94C61A4A
:103E80008AEA60E00E94331D19CEFC0183818132F1
:103E900061F08232D9F0823081F58EE996E090931C
:103EA000DA038093D9038BE308958281882319F084
:103EB000813019F503C080EB96E002C089EC96E0F2
:103EC0009093DA038093D90389E0089584819581E2
:103ED000009719F0019789F408C08BED95E0909355
:103EE000DA038093D90380E408958BE196E0909300
:103EF000DA038093D90383E8089580E00895FC01F4
:103F000080915703882329F0613019F480810E9441
:103F100083221092570381E00895CF93DF9321E02D
:103F200020938D03EC0180914B038093D903109271
:103F3000DA0388818076803299F58981813011F4A5
:103F400088E02FC0893069F48A819B81805092403B
:103F500039F58C819D81892B19F5209357038FEFBB
:103F600020C0823019F48091560314C08A3031F495
:103F70000E947B228B818093560312C0833031F4E0
:103F80008B81882369F41092CA000BC08B3041F4F6
:103F90008091CA008093D9031092DA0381E001C0B6
:103FA00080E0DF91CF910895982F81578A3110F0EA
:103FB00080E0089581E080935803E92FF0E0EE0F50
:103FC000FF1FE25AFE4F25913491809353036623DD
:103FD00029F020935403309355030895109254030D
:103FE0001092550381E0089580915A03882331F49B
:103FF0000E94401920E030E0882311F421E030E0F5
:10400000822F089588E0EBE4F3E0DF011D928A95AA
:10401000E9F783E0E3E5F3E0DF011D928A95E9F734
:10402000089580E3EBE5F3E0DF011D928A95E9F75F
:1040300008950E94A610982F853D10F080E0089505
:104040008756883068F4E92FF0E0EE0FFF1FEA563C
:10405000F040808190914B03892B80934B0317C0D4
:104060009923B9F020918605283098F4892F8D582E
:10407000823228F4E92FF0E0E951FE4F9491E22FCB
:10408000F0E0E55BFC4F90832F5F2093860581E095
:10409000089581E008959F92AF92BF92CF92DF92F0
:1040A000EF92FF920F931F93CF93DF930E94022012
:1040B0000E948311882309F03FC00E94321A88238E
:1040C000D9F50E944D087C010E94D908982E00E085
:1040D00010E051E0A52EB12C23C0F701EC0FFD1F1D
:1040E00080818D21A1F0892D6C2F4C2D0E94871786
:1040F000E82F8756883058F4F0E0EE0FFF1FEA569D
:10410000F040808190914B03892B80934B03219643
:10411000C131D10511F70F5F1F4F0830110561F054
:10412000C02EC501002E02C0880F991F0A94E2F725
:10413000D82EC0E0D0E0D1CF0E944019882309F0EA
:1041400045C00E94001AE0E3F1E0DF010D9000207D
:10415000E9F71197AE1BBF0B82E080938605EF0154
:10416000EA2EFF246F01CE0CDF1C3BE5A32E33E0CB
:10417000B32E1AC01881812F8756883080F0F50140
:1041800001900020E9F73197EB55F3408BE593E080
:104190006E2F412F0E947F188F5F9F4F21F4812F38
:1041A00061E00E941920219640E351E0CC15DD0525
:1041B00009F781E080935A032BE533E0F70131964C
:1041C000C901BA01AF010E94122406C080915A03AE
:1041D000882311F010925A0381E0DF91CF911F9153
:1041E0000F91FF90EF90DF90CF90BF90AF909F9096
:1041F00008953F924F925F926F927F928F929F921B
:10420000AF92BF92CF92DF92EF92FF920F931F93E4
:10421000DF93CF9300D00F92CDB7DEB70E94D608C0
:10422000882309F4BDC00E94D908382E82E080930B
:1042300086050E9402200E948210109258030E945C
:104240004D083C011982AA24CC24DD2461E0462ECD
:10425000512C85C09A80EA81FB81E257FC4FE080B7
:10426000E820EA81FB81E60DF71D00810821832DFE
:10427000692D4B2D0E948717182FE016F1F10E942F
:10428000321A882349F0002321F08A816B2D0E9485
:10429000351A0E9465115CC0112309F497C00023F0
:1042A00069F0812F61E00E949C09F82E0E9465113F
:1042B00089E190E261E00E940B1107C0812F60E06C
:1042C0000E949C09F82EEE2021F10E948311882380
:1042D000B1F0002349F0812F6B2D492D21E00E9480
:1042E000421481E089832CC0812F6B2D492D20E061
:1042F0000E94421491E0998323C0FF24F394002389
:1043000041F0112331F0812F0E946F17882309F0AB
:1043100047C0FF20A9F0002341F0812F61E00E94F7
:104320001920A82A812F0E945410E01649F000237A
:1043300019F0812F61E002C0812F60E00E94D41F3C
:10434000EA81FB813196FB83EA83719709F082CF82
:104350000894C11CD11CF8E0CF16D10461F0BC2C2C
:10436000C2010C2C02C0880F991F0A94E2F7882E14
:104370001B821A826FCF20E030E0F901E257FC4F38
:10438000D301A20FB31F8C9180832F5F3F4F213148
:10439000310599F78981813019F08A2D816001C03A
:1043A00080E00F900F900F90CF91DF911F910F91B0
:1043B000FF90EF90DF90CF90BF90AF909F908F9045
:1043C0007F906F905F904F903F900895FF24F394FB
:1043D0007CCFEF92FF920F931F930E94640E8B9AF3
:1043E00020E048EB5BE0CA010197F1F72150D9F7D3
:1043F0008B987894FF2410E0EE24E3948091CB0016
:104400008130D9F480918D038823B9F480918B0396
:1044100090918C03019690938C0380938B0301976A
:10442000815D974054F01092CB008BB78F7B8BBF90
:104430001F910F91FF90EF9008950E94750EFF203D
:1044400099F40E94F920F82E08B600FE0FC0E8BECD
:1044500000915603002351F0153018F4FF24F39413
:1044600006C0012F055003C00E94F920012F0E94B1
:10447000521A8091C90384FF2DC08091590388236B
:1044800061F0109259030E9402208BE493E068E0EF
:104490000E94CD0F0E946F181DC00E94F41F882338
:1044A00041F00E944B208BE493E068E00E94CD0F26
:1044B00011C0FF2079F080915803882329F083E50B
:1044C00093E063E00E94C80F8BE493E068E00E94F1
:1044D000CD0FFF240E943E118091E2000E948C07C4
:1044E0000E94F41F882311F080E001C081E00E9447
:1044F0006719102F83CF81E0809359030E9426060D
:104500000E94651108950E9421050E942A050895C0
:104510008D98959A08958D9A959808951F9310E017
:10452000812F0E94690A1F5F1730D1F789B78E7FEC
:1045300089BF89B78B7F89BF89B78F7B89BF1F915F
:1045400008951F93182F0E941E080E94F10481B342
:104550008C6081BB82B3837F82BB112379F08BE0B7
:1045600090E00E94E31881B3837F81BB83B78560AD
:1045700083BF0E948E228D98959A02C08D9A95983D
:104580001F910895F8940E94270510928C031092B1
:104590008B0310928D0308958F929F92BF92CF92BA
:1045A000DF92EF92FF920F931F93CF93DF938FEFE2
:1045B0008093CB000E941E0881E090E00E94E318E7
:1045C00010E00E945008882319F41F5F1E31C9F7BC
:1045D0000E944D086C01FF2400E010E081E0882E6D
:1045E000912C29C06C2FF601EC0FFD1F80818B21CF
:1045F000C9F0C13031F481E0E81619F40E942E1A96
:1046000011C080E04E2D0E949010803119F40E945C
:104610008A1108C0883111F481E003C0833111F49C
:1046200082E0F82A2196C131D105E1F60F5F1F4FD4
:104630000830110561F0E02EC401002E02C0880F81
:10464000991F0A94E2F7B82EC0E0D0E0CBCFFF204C
:1046500019F0F394F092CB006091CB00643021F418
:104660008CE090E06FEF04C0643028F48CE090E0C0
:104670000E94572606C08CE090E00E944F2680934F
:10468000CB008A98929A2091CB002430D0F080E021
:1046900090E0829907C092FD09C08F5F863060F07C
:1046A00021E00AC0829B09C092FD02C080E004C0E4
:1046B0008F5F863008F020E090B3223050F72093CF
:1046C000CB000E9476110E943A108091CB0081505D
:1046D000823038F40E94C22281E00E94A1220E940E
:1046E000E9218091CB00882311F0833071F70E947B
:1046F000F1040E94FA040E94C22280E00E94A122DA
:104700000E943F1DE2CF629FD001739FF001829F04
:10471000E00DF11D649FE00DF11D929FF00D839F50
:10472000F00D749FF00D659FF00D9927729FB00DED
:10473000E11DF91F639FB00DE11DF91FBD01CF0100
:1047400011240895991B79E004C0991F961708F069
:10475000961B881F7A95C9F780950895AA1BBB1BE5
:1047600051E107C0AA1FBB1FA617B70710F0A61B71
:10477000B70B881F991F5A95A9F780959095BC0192
:10478000CD01089597FB092E07260AD077FD04D0A6
:10479000E5DF06D000201AF4709561957F4F0895EB
:1047A000F6F7909581959F4F0895A1E21A2EAA1BC6
:1047B000BB1BFD010DC0AA1FBB1FEE1FFF1FA217D1
:1047C000B307E407F50720F0A21BB30BE40BF50BCE
:1047D000661F771F881F991F1A9469F76095709557
:1047E000809590959B01AC01BD01CF01089597FB89
:1047F000092E05260ED057FD04D0D7DF0AD0001CA5
:1048000038F450954095309521953F4F4F4F5F4F6D
:104810000895F6F790958095709561957F4F8F4F2D
:104820009F4F0895FB01DC0102C001900D924150A1
:104830005040D8F708956817790768F4FB01DC0148
:10484000E40FF51FA40FB51F02C002900E92415055
:104850005040D8F708950C941224FB019F01E8946E
:104860004230C4F04532B4F44A3029F497FB1EF4C8
:10487000909581959F4F642F77270E94AE23805D8E
:104880008A330CF0895D8193CB010097A1F716F470
:104890005DE251931082C9010C947A26AEE0B0E03B
:1048A000E4E5F4E20C9422270D891E8986E08C83CE
:1048B0001A8309838FEF9FE79E838D839E01275E76
:1048C0003F4FCE0101966F89788DA9010E94722415
:1048D0002F813885020F131FF80110822E96E4E015
:1048E0000C943E27ABE0B0E0E8E7F4E20C94142728
:1048F0003C012B015A01FC0117821682838181FD44
:1049000003C06FEF7FEFC6C19AE0892E1E010894A5
:10491000211C311CF3012381F20123FD859123FF2A
:1049200081912F01882309F4B2C1853239F423FD26
:10493000859123FF81912F01853229F490E0B30105
:104940000E948A26E7CF982FFF24EE249924FFE1C6
:10495000FF15D0F09B3269F09C3228F4903259F068
:10496000933291F40EC09D3249F0903369F441E0E6
:1049700024C052E0F52A84E0F82A28C098E0F92AF9
:1049800025C0E0E1FE2A22C0F7FC29C0892F805310
:104990008A3070F4F6FE05C0989C902C1124980E75
:1049A00015C0E89CE02C1124E80EF0E2FF2A0EC0AE
:1049B0009E3229F4F6FC6BC140E4F42A07C09C3611
:1049C00019F450E8F52A02C0983649F4F20123FDA3
:1049D000959123FF91912F01992309F0B8CF892F49
:1049E0008554833018F08052833038F444E050E02E
:1049F000A40EB51E5FE359830FC0933631F0933791
:104A000079F0933509F056C020C0F5018081898383
:104A100042E050E0A40EB51E610101E010E012C0BA
:104A2000F501C080D180F6FC03C06FEF7FEF02C0BC
:104A3000692D70E042E050E0A40EB51EC6010E9450
:104A40006F268C015FE7F52214C0F501C080D1808C
:104A5000F6FC03C06FEF7FEF02C0692D70E042E00B
:104A600050E0A40EB51EC6010E9464268C0150E8D9
:104A7000F52AF3FE07C01AC080E290E0B3010E945D
:104A80008A26EA948E2D90E008171907A8F30EC025
:104A9000F601F7FC8591F7FE81916F0190E0B3017B
:104AA0000E948A26E110EA94015010400115110578
:104AB00079F7EAC0943611F0993669F5F7FE08C027
:104AC000F501208131814281538184E090E00AC068
:104AD000F501808191819C01442737FD4095542F39
:104AE00082E090E0A80EB91E9FE6F92257FF09C0A8
:104AF00050954095309521953F4F4F4F5F4FE0E8DF
:104B0000FE2ACA01B901A1012AE030E00E94B626BE
:104B1000D82ED21840C0953729F41F2D1F7E2AE0C9
:104B200030E01DC01F2D197F9F3661F0903720F4B3
:104B3000983509F0ACC00FC0903739F0983709F0BC
:104B4000A6C004C028E030E00AC0106114FD146063
:104B500020E130E004C014FD166020E132E017FFD0
:104B600008C0F501608171818281938144E050E049
:104B700008C0F50180819181BC0180E090E042E0B5
:104B800050E0A40EB51EA1010E94B626D82ED21860
:104B90008FE7F82EF122F6FE0BC05EEFF522D91456
:104BA00038F4F4FE07C0F2FC05C08FEEF82202C014
:104BB0001D2D01C0192DF4FE0DC0FE01ED0DF11DDE
:104BC0008081803319F499EEF92208C01F5FF2FE4C
:104BD00005C003C08F2D867809F01F5F0F2DF3FCF1
:104BE00014C0F0FE0FC01E1510F09D2C0BC09D2CA4
:104BF0009E0C911A1E2D06C080E290E0B3010E9427
:104C00008A261F5F1E15C0F304C01E1510F4E11A9A
:104C100001C0EE2404FF0FC080E390E0B3010E94C6
:104C20008A2602FF1DC001FD03C088E790E00EC088
:104C300088E590E00BC0802F867891F001FF02C0DC
:104C40008BE201C080E2F7FC8DE290E0B3010E94AC
:104C50008A2606C080E390E0B3010E948A269A94D7
:104C6000D914C0F3DA94F101ED0DF11D808190E0CB
:104C7000B3010E948A26DD20A9F706C080E290E0F9
:104C8000B3010E948A26EA94EE20C1F743CEF301D5
:104C900066817781CB012B96E2E10C943027E19974
:104CA000FECF9FBB8EBBE09A99278DB30895262F28
:104CB000E199FECF9FBB8EBB2DBB0FB6F894E29A55
:104CC000E19A0FBE01960895FC0105906150704075
:104CD0000110D8F7809590958E0F9F1F0895FC01C5
:104CE0006150704001900110D8F7809590958E0F1B
:104CF0009F1F0895DC01FC01672F71917723E1F775
:104D0000329704C07C916D9370836291AE17BF0798
:104D1000C8F308950F931F93CF93DF938C01EB019A
:104D20008B8181FF1BC082FF0DC02E813F818C8152
:104D30009D812817390764F4E881F9810193F9838B
:104D4000E88306C0E885F985802F0995892B31F421
:104D50008E819F8101969F838E8302C00FEF1FEF8C
:104D6000C801DF91CF911F910F910895FA01AA27F1
:104D7000283051F1203181F1E8946F936E7F6E5F9E
:104D80007F4F8F4F9F4FAF4FB1E03ED0B4E03CD04C
:104D9000670F781F891F9A1FA11D680F791F8A1F2F
:104DA000911DA11D6A0F711D811D911DA11D20D096
:104DB00009F468943F912AE0269F11243019305D50
:104DC0003193DEF6CF010895462F4770405D419341
:104DD000B3E00FD0C9F7F6CF462F4F70405D4A338E
:104DE00018F0495D31FD4052419302D0A9F7EACF56
:104DF000B4E0A6959795879577956795BA95C9F785
:104E000000976105710508959B01AC010A2E069477
:104E10005795479537952795BA95C9F7620F731F30
:104E2000841F951FA01D08952F923F924F925F926D
:104E30006F927F928F929F92AF92BF92CF92DF92AA
:104E4000EF92FF920F931F93CF93DF93CDB7DEB70F
:104E5000CA1BDB0B0FB6F894DEBF0FBECDBF0994A3
:104E60002A88398848885F846E847D848C849B84FA
:104E7000AA84B984C884DF80EE80FD800C811B8108
:104E8000AA81B981CE0FD11D0FB6F894DEBF0FBE37
:0A4E9000CDBFED010895F894FFCFA7
:104E9A00080701FF010002000400080010002000BA
:104EAA0040008000000100020004000800100020F9
:104EBA00004000800A055AFF00652563002564004A
:104ECA002C200020286C617965723D00206465669B
:104EDA0061756C743D00206D617070696E673D008C
:104EEA002900271E1F202122232425262988132D45
:0C4EFA00002C003D00020500000001FF3C
:00000001FF
