:100000000C948E030C94AB030C94C6030C94AB03BA
:100010000C94580D0C94640C0C942B0D0C94D10C76
:100020000C94FE0C0C94370C0C94A40C0C94E40B64
:100030000C94AB030C94AB030C94AB030C94AB0388
:100040000C94AB030C94AB030C94AB030C94AB0378
:100050000C94AB031F1D0B1D3B1D0F1D111D131D0C
:10006000171D391D1B1D1D1D191D271D411D211D7E
:10007000451D491D521D4B1D4B1D4B1D4B1D4B1D41
:100080004B1D4B1D4B1D4B1D371D351D431D251D88
:10009000471D4D1D0D1D4B1D4B1D4B1D4B1D4B1D60
:1000A0004B1D4B1D4B1D4B1D4B1D4B1D4B1D4B1D10
:1000B0004B1D4B1D4B1D4B1D4B1D4B1D4B1D4B1D00
:1000C0004B1D4B1D4B1D4B1D4B1D291D311D2D1D4A
:1000D000151D231D3D1D4B1D4B1D4B1D4B1D4B1D4C
:1000E0004B1D4B1D4B1D4B1D4B1D4B1D4B1D4B1DD0
:1000F0004B1D4B1D4B1D4B1D4B1D4B1D4B1D4B1DC0
:100100004B1D4B1D4B1D4B1D4B1D2B1D331D2F1D03
:100110003F1D000001000800400000010004000035
:100120000100080020004000800000010004736D01
:10013000617274206B657900FEFEF8F86C6C68687B
:100140006D6D69696B6B6767FEF8F6F6F6FEF8F69B
:100150008E8D8E8D8E8D8E8D8E8D8E8D8E8D8E8DC7
:1001600039398E8D39656565010101010101010192
:100170000101010101010101000001010001010172
:10018000FEF8F6FB01020408102040800000FC008D
:100190001C322123242B3433433B424B3A31444D10
:1001A000152D1B2C3C2A1D22351A161E26252E36EF
:1001B0003D3E46455A76660D294E55545B5D5D4C75
:1001C000520E41494A580506040C030B830A0109E3
:1001D00078077C7E7C706C7D71697A746B72757740
:1001E0004A7C7B795A69727A6B73746C757D707115
:1001F000612F001412111F145911270000373F5EA0
:1002000048103A38302820184D153B3423322150FD
:100210002B404B1C43221D0000F1F2370F08101831
:1002200020283038404850575F6D00008100820020
:1002300083008A01210223022402250226022702CA
:100240002A02B500B600B700CD00E200E900EA00DE
:1002500083019201940100000000000000000000F2
:100260009190666768696A6B6C6D6E6F707172737E
:100270008586464800488E8D007172738F006A6BC8
:100280006E6D6546494A4B4C4D4E52504F51545835
:100290007172737475767778797A7B7C7D7E7F80D6
:1002A0008182838485868788898A8F00494C4A4D5C
:1002B0004B4E6A6E65504F5251540039534700738C
:1002C000656C656374206D6F6465006B6579206D86
:1002D000617070696E67006D6163726F0065786947
:1002E0007400626F6F74206D617070657200676F6B
:1002F0006F64206279657E00626F6F74206D61703B
:1003000070657220737461727421004D6163726F45
:1003100000313A53656C656374204D6163726F20E0
:10032000496E64657800323A436C656172204D61B4
:1003300063726F00393A436C65617220416C6C00E6
:10034000746F67676C650045786974004261636B20
:10035000004B6579204D617070657200313A4368D9
:10036000616E6765204C6179657200323A53656C45
:10037000656374204B6579202D20696E707574203B
:100380006B6579636F646500333A5361766520610C
:100390006E64204578697400343A45786974207732
:1003A0006974686F757420536176696E6700393AB5
:1003B000526573657420746F2044656661756C7452
:1003C000202843757272656E74204C6179657229BC
:1003D00000707332617672550063686F6F736520C9
:1003E0006C617965722028313A206E6F726D616C94
:1003F0002C20323A20464E2C20333A20464E3229C9
:100400002063757272656E743D200073656C656360
:1004100074206B65792028616E79206B657920796D
:100420006F752077616E74292000696E7075742075
:100430006B6579636F646520286D75737420332054
:100440006E756D626572732C20636C6561723A30F3
:10045000303029203A2000536176652026204578E7
:1004600069742C207468616E6B20796F752E00455D
:1004700078697420776974686F7574205361766940
:100480006E672C2073656520796F75206C617465CB
:10049000722E00526573657420746F206465666106
:1004A000756C742063757272656E74206C61796509
:1004B00072003E3E20006E6F7468696E6700536183
:1004C00076652063757272656E74206C61796572F1
:1004D000004C6F61642063757272656E74206C618C
:1004E00079657200736176696E672E2E2E00636FD8
:1004F0006C2C20726F77203A2000696E7075742022
:100500006D6163726F20696E646578202830317E7A
:1005100031322C2063616E63656C3A2030302C20C0
:100520006D7573742032206E756D6265727329204B
:100530003A200073656C65637420696E6465782089
:100540002830317E31322C2063616E63656C3A2035
:10055000303029203A2000696E707574206B6579FF
:1005600020286D6178203234206B6579732C2073DC
:10057000746F70203A207072657373204553432066
:10058000647572696E672031207365632900696E36
:1005900076616C6964206E756D6265722C20696E7F
:1005A00070757420616761696E2E00636C6561729D
:1005B0002E2E2E0020006D6163726F003A006F6E68
:1005C000006F666600656E61626C6520666E322043
:1005D0006C6564006C617A7920666E00050109061D
:1005E000A101050719E029E7150025019508750106
:1005F00081029501750881039505750105081901AA
:10060000290591029501750391030507190029FF3A
:1006100095067508150026FF008100C00501090236
:10062000A10185030901A10005091901290515008A
:100630002501750195058102750395018103050169
:10064000093009311581257F750895028106093821
:100650001581257F35004500750895018106050C3B
:100660000A38021581257F750895018106C0C005ED
:10067000010980A1018502150125B7190129B77566
:100680001095018100C0050C0901A101850115012A
:10069000269C0219012A9C02751095018100C0094F
:1006A000023B0002010080FA09040000010301017D
:1006B0000009210101000122400007058103080013
:1006C0000A090401000103000000092101010001E1
:1006D0002283000705830308000A040309041C039E
:1006E000770069006E006B00650079006C006500A2
:1006F000730073002E006B00720010037000730013
:1007000032006100760072005500120110010000F5
:1007100000081C42A02006010102000111241FBE96
:10072000CFE5D8E0DEBFCDBF10E0A0E6B0E0ECE959
:10073000F9E502C005900D92A43CB107D9F715E088
:10074000A4ECB0E001C01D92A437B107E1F70E940C
:100750003B280C94CC2C0C940000A82FB92F80E0DF
:1007600090E041E050EA609530E009C02D91822789
:100770009795879510F084279527305EC8F36F5FB3
:10078000A8F30895EADF8D939D930895CF93CFB793
:10079000CF93C395839BE9F7839B0EC0839B0CC0CB
:1007A000839B0AC0839B08C0839B06C0C0914B05F6
:1007B000C395C0934B05A3C0DF93C0914A05DD27C5
:1007C000CE5ADA4F839B02C0DF91E6CF2F930F936F
:1007D0001F9300B32FEF03FB20F94F933F9310B308
:1007E0004FEF012703FB21F93BE031C04E7F012F82
:1007F00010B3216028C0102F4D7F2260000000B38D
:1008000029C04B7F2460012F000010B32BC010B310
:10081000477F28602AC04F7E00B320612CC04F7DE7
:1008200010B320622FC04F7B00B3206432C0422738
:1008300000B349934FEF0000102713FB20F910B3CA
:100840001C70C9F1297F91F2012703FB21F900B344
:10085000237F89F2315058F1102713FB22F910B38E
:10086000277E79F2012703FB23F92F7C81F200B365
:10087000102713FB24F92F7971F200C010B3012760
:1008800003FB25F92F7359F200C000B3102713FBA7
:1008900026F9223040F200C010B3012703FB27F9EC
:1008A000243028F64F77206810B30000F9CF10E805
:1008B0001ABF002719C03B503195C31BD04010E828
:1008C0001ABF0881033CF9F00B34E9F02091480588
:1008D0001981110F1213EDCF4A81441F093641F1DE
:1008E0000D3211F0013E29F7009350053F914F91D1
:1008F0001F910F912F91DF91CAB7C7FD4ACFCF91BA
:10090000CFBFCF91189520915005222379F31091F4
:100910004E051123C1F53430C2F130934E052093BA
:10092000490510914A053BE0311B30934A052DC023
:1009300000914E0501303CF50AE54F7049F43091C5
:10094000C10034FD24C00093C100C1E3D5E023C041
:10095000433049F030913C0534FD19C000933C050B
:10096000CDE3D5E018C03091680534FD10C0009388
:100970006805C9E6D5E00FC02795A8F45150A9F441
:10098000220F0000F9CF4AE503C042ED01C0432F1A
:10099000C4E1D0E032E011B31C60939A11BB02B302
:1009A00020E41CE05F93012756E002BB279520F46A
:1009B000515021F4220FF9CF012756E000003B5A95
:1009C00002BBD0F2279528F4515029F4220F0000E1
:1009D000F9CF012756E0279502BB20F4515021F4AE
:1009E000220FF9CF012756E02991332302BB21F6CC
:1009F000037F10914F05110FC651D04002BB11F07B
:100A00001093480510E81ABF086011B3137F402FF8
:100A1000437F5F9100C000C002BB11BB42BB66CFE9
:100A200081B3836181BB82B38C7E82BB8E9A9698A0
:100A300008958093DA0008958091DA000895109265
:100A4000C4000895662361F0813011F4909A0895EE
:100A5000823011F4919A0895843069F4969A089539
:100A6000813011F490980895823011F4919808958E
:100A7000843009F4969808952223A9F18091CE003C
:100A80008330C1F484EF91E09093D6008093D50039
:100A90008091D8008C3038F58F5F8093D8009FEF1D
:100AA000899FC00111246CE070E00E9422296093AC
:100AB000D70008958430B9F484EF91E09093D60084
:100AC0008093D5008091D800882369F0815080936D
:100AD000D8009FEF899FC00111246CE070E00E9454
:100AE00022296093D70008952091630030E0AC0183
:100AF000429FC001439F900D529F900D11246FEFB4
:100B000070E00E942229CB010895089508950E9463
:100B1000E10B08959091CE00992319F480E090E0C4
:100B200010C0913049F41092D4001092D30010926A
:100B3000D2001092D1000895923031F48091630078
:100B400090E00E94E10B0895892F83508230A0F439
:100B500083E08093D800943019F481E08093D8002A
:100B60008091D8009FEF899FC00111246CE070E054
:100B70000E9422296093D7000895809163008E31EE
:100B8000A1F08951809363008E3118F48EE1809337
:100B900063008091CE00823011F40E948A0581E0CA
:100BA00090E09093CD008093CC00089580916300F5
:100BB0008F3FA9F090E049968F3F910511F00CF01E
:100BC0008FEF809363008091CE00823011F40E94F9
:100BD0008A0581E090E09093CD008093CC00089549
:100BE00090989198969880E090E00E94E10B9498FC
:100BF00081E08093D90008950E94A313882391F483
:100C00008091CE0090E0019665E070E00E9422297C
:100C10008093CE0081E090E09093CD008093CC0053
:100C20000E948A0508950E94DE1D882311F10E940A
:100C3000DB1D282F8091DA009091DB0080FF0BC034
:100C4000992399F481E08093DB00222311F084E062
:100C50000DC085E00BC0992341F01092DB002223E8
:100C600011F082E003C083E001C080E08093C900FE
:100C700007C08091DA0080FF02C0909A01C090986E
:100C80008091DA0081FF02C0919A01C0919882FFA1
:100C900002C0969A0895969808950E9413060E949D
:100CA0008A0508958091C400882309F495C10E94A3
:100CB000A313882309F090C10E94B01D882309F076
:100CC00079C11092C8001092C70081E08093620041
:100CD0002BC08091C7009091C80001969093C800E6
:100CE0008093C700893C9105FCF08091DA009091D7
:100CF000620081FF06C0913011F491980BC0919A67
:100D000005C0913011F4919A05C091981092C600D7
:100D10001092C5008091620091E089278093620063
:100D20001092C8001092C7002091C900222369F1D7
:100D30008091CA009091CB0001969093CB00809354
:100D4000CA00853691052CF12530A1F0233091F0B1
:100D5000243011F0223011F490980DC00E94DE1D55
:100D6000882329F00E94DB1D882329F003C080918D
:100D7000DA0080FD909A1092CB001092CA00809108
:100D8000C90081508093C90004C01092CB0010921A
:100D9000CA008091CC009091CD001816190624F558
:100DA00001969093CD008093CC00885E9340E1F44F
:100DB0001092CD001092CC006091CE008091CF00B7
:100DC000681731F06093CF008BE090E00E94D82B41
:100DD000609163008091D000861731F06093D0005D
:100DE00089E090E00E94D82B8091CE00813009F0FC
:100DF00059C08091D1009091D200009761F4809108
:100E0000D3009091D40068E070E00E942229CB01C9
:100E10000E94740513C082309105A1F48091D30023
:100E20009091D40068E070E00E942229CB01909557
:100E300081959F4F81509F4F0E94740590E00E94C2
:100E4000E10B0EC08130910511F0039749F48091B8
:100E5000D3009091D40001969093D4008093D30056
:100E60008091D3009091D400885F97408CF01092CD
:100E7000D4001092D3008091D1009091D2000196BD
:100E800064E070E00E9422299093D2008093D10008
:100E90008091D3009091D40001969093D4008093D8
:100EA000D30008958330D1F58091D5009091D6007C
:100EB000009731F001979093D6008093D50028C019
:100EC0002091D7002223F1F08091D3009091D4009B
:100ED00001969093D4008093D3000897CCF01092A1
:100EE000D4001092D30021502093D7008FEF90E0D0
:100EF000821B91096BEE7FEF0E942229645F609351
:100F0000D80006C01092D8001092D4001092D300DE
:100F10008091D70090E00E9474053DC0843009F0B4
:100F20003EC08091D5009091D600009731F0019796
:100F30009093D6008093D50029C02091D7002F3FF1
:100F4000F1F08091D3009091D40001969093D40059
:100F50008093D3000897D4F01092D4001092D3005D
:100F60002F5F2093D7008FEF90E0821B91096BEEEB
:100F70007FEF0E942229645F6093D80007C08CE055
:100F80008093D8001092D4001092D3008091D700A3
:100F900090E00E94740590E00E94E10B0895109289
:100FA000D4001092D30083E090E09093D20080931D
:100FB000D10008958091C5009091C600019690934C
:100FC000C6008093C5002091600030916100281711
:100FD00039070CF47ECEA8CE08951F93182F0E94D7
:100FE000DE1D882329F00E94DB1D882339F004C010
:100FF0008091DA0080FF02C0909801C0909A8091A1
:10100000DA0081FF02C0919801C0919A812F90E08F
:101010000E94FA1B0E94DE1D882329F00E94DB1D1E
:10102000882339F004C08091DA0080FF02C0909AD2
:1010300001C090988091DA0081FF02C0919A01C0AE
:1010400091981F91089589E090E00E94D02B8093A1
:1010500063008093D0008BE090E00E94D02B8093BF
:10106000CE008F3F11F41092CE008091CE0080937D
:10107000CF000E948A0580916000909161000E94DB
:10108000FD27909361008093600008958091C400D3
:10109000882361F481E08093C4000E94560A88E0AE
:1010A0000E94840B0E94C90B0E942308089580911E
:1010B000640008958091650008958091DE00089590
:1010C000EF92FF921F93CF93DF9360E070E081E097
:1010D000E82EF12CFB01E051FF4F80818823D9F1EC
:1010E00020E030E0C82FD0E0162F1F5FCE01022E87
:1010F00002C0959587950A94E2F780FF27C0522F8A
:1011000022C0CE01052E02C0959587950A94E2F77C
:1011100080FF19C0412FD701052E02C0AA0FBB1FA7
:101120000A94E2F70EC0E42FF0E0E051FF4F808117
:1011300090E08A239B231816190614F481E012C04C
:101140004F5F413181F75F5F5830D8F22F5F3F4FDB
:101150002830310559F66F5F7F4F6131710509F015
:10116000B9CF80E0DF91CF911F91FF90EF9008956C
:101170008091A2039091A30308958FED90E00895CC
:1011800081E080936400E0EFF0E08081882319F033
:101190001092640005C0319681E0E130F807A9F7AC
:1011A00081E080936500EFEDF0E08081882319F005
:1011B0001092650005C0319680E0E03FF807A9F77E
:1011C00080916400882311F01092DD000895AFED46
:1011D000B0E08091A2039091A3039C01F90181E109
:1011E00001900D928150E1F70895AF92BF92CF9296
:1011F000DF92EF92FF920F931F93CF93DF93DD2443
:1012000000E010E091E0A92EB12C802F0E940F0A7F
:10121000C501002E02C0880F991F0A94E2F7E82E3C
:10122000C82EC094C0EFD0E0FF248F2D0E941D0A6D
:10123000282F98818E2D892319F0222329F008C0A8
:10124000222331F09E2901C09C219883DD24D39470
:10125000F394219681E1F81641F70F5F1F4F083094
:10126000110599F6DD2019F01092020107C0809156
:101270000201843618F48F5F80930201909102017D
:1012800080910101981711F080E00EC00E94600863
:10129000882319F08FED90E002C080EF90E09093EA
:1012A000A3038093A20381E0DF91CF911F910F915F
:1012B000FF90EF90DF90CF90BF90AF9008950E9485
:1012C000F5080895CF92DF92EF92FF920F931F934C
:1012D000CF93DF93F090DD00FF2009F062C0009112
:1012E000A2031091A303EE2441E0C42ED12CF801F7
:1012F0008081882309F440C0C0E0D0E096010C2E24
:1013000002C0220F331F0A94E2F7F8018081822382
:1013100079F18091DC006E2D4C2F0E942A130E94DF
:1013200037128E3F89F0883F19F432E0F32E0EC059
:10133000863F19F423E0F22E09C08B3FC9F4809157
:10134000DC008230A9F410C0FF24F3940E94431FF4
:10135000882351F080916500882321F48091DE007C
:101360008823E9F4F092DD0081E08093DE0019C06B
:101370002196C830D10511F6E3940F5F1F4FF1E1BC
:10138000EF1609F0B4CF0E94DB1D882321F082E024
:101390008093DC0002C01092DC001092DE00F0901E
:1013A000DC008F2DDF91CF911F910F91FF90EF9077
:1013B000DF90CF90089581E1EFEDF0E0DF01982F0D
:1013C0001D929A95E9F7E0EFF0E0DF011D928A9512
:1013D000E9F708950E94050A87E0809301018AE0F9
:1013E0008093020180EF90E09093A3038093A20387
:1013F0000895813011F090E006C090E0613009F06E
:1014000091E081E09827892F08958FEF87BB88BBF3
:101410001ABA14BA8BBB85BB8F98979A089521E0AE
:1014200030E002C0220F331F8A95E2F727BB2095D8
:1014300028BB84E18A95F1F70895282F883058F465
:1014400049B381E090E002C0880F991F2A95E2F726
:101450004095482316C0682F70E0803120F443B3D4
:101460008FE090E003C040B387E190E0861B970BCC
:1014700021E030E002C0220F331F8A95E2F7409549
:101480004223842F08950895089583B7887F82604A
:1014900083BF12BE89B7816089BF1092A4031092E6
:1014A000A5031092A6031092A70308958EB5887F16
:1014B00083608EBD1DBC1CBC89B7846089BF089544
:1014C00085B5887F846085BD14BC89B7806489BF79
:1014D0001092AC031092AD031092AE031092AF03C2
:1014E000089580E090E0FC01EE0FFF1FED5FFE4FDE
:1014F00011821082019688309105A9F70E94450A51
:101500000E94560A0E94600A7894089593B7987FC3
:10151000982B93BF08959EB5987F982B9EBD0895F4
:1015200095B5987F982B95BD089583B7E82FF0E087
:10153000E770F070EE0FFF1FEE5EFE4F25913491C5
:10154000C90108958EB5E82FF0E0E770F070EE0F56
:10155000FF1FEE5EFE4F25913491C901089585B5B8
:10156000E82FF0E0E770F070EE0FFF1FE25EFE4F35
:1015700025913491C9010895883040F4E82FF0E0B6
:10158000EE0FFF1FED5FFE4F71836083089588307B
:1015900040F4E82FF0E0EE0FFF1FED5FFE4F1182E9
:1015A00010820895EF92FF920F931F93CF93DF93D2
:1015B000EC0112B71092A8031092A9031092AA038B
:1015C0001092AB0383B7E82FF0E0E770F070EE0FF6
:1015D000FF1FEE5EFE4F2591349140E050E060E049
:1015E0007BE187EB90E00E943529B901CA01693B94
:1015F0002DE8720726E0820720E09207A0F437E288
:10160000C131D30780F49E0140E050E00E94F728EA
:1016100028EE33E040E050E00E943529C901DA01AC
:10162000BC01CD0121C028EE33E040E050E00E9433
:101630003529CA01B9019E0140E050E00E94F72817
:1016400013C08091A8039091A903A091AA03B0911F
:10165000AB0385B78F7885BF85B7806885BF8895D0
:1016600085B78F7785BF08C09B01AC01210F311D65
:10167000411D511D79018A012091A8033091A903D0
:101680004091AA035091AB0382B790E0A0E0B0E094
:10169000542F432F322F2227822B932BA42BB52B91
:1016A0008E159F05A007B10760F2DF91CF911F91C2
:1016B0000F91FF90EF9008951092A4031092A5034C
:1016C0001092A6031092A70308952091A4033091CD
:1016D000A5034091A6035091A703B901CA0108953B
:1016E0001092AC031092AD031092AE031092AF03B0
:1016F00008952091AC033091AD034091AE03509119
:10170000AF03B901CA010895893031F48FB5826001
:101710008FBD8FB58E7F0AC08A3019F48FB5826075
:1017200002C08FB58D7F8FBD8FB581608FBD1BBC13
:101730001ABC19BC18BC08952FB52E7F2FBD2FB52C
:1017400022602FBD2EB528602EBD2EB520612EBD86
:1017500097BD86BD1BBC1ABC19BC18BC08958FB5BB
:101760008D7F8FBD8FB58E7F8FBD8FB58F778FBDEE
:101770008FB58F7B8FBD8FB58F7D8FBD8FB58F7EE2
:101780008FBD08958FB580688FBD8FB58F7B8FBD5E
:1017900008958FB580628FBD8FB58F7E8FBD089500
:1017A0008FB58F778FBD8FB58F7B8FBD08958FB528
:1017B0008F7D8FBD8FB58F7E8FBD08959BBD8ABDF8
:1017C000089599BD88BD08951F920F920FB60F928C
:1017D00011242F933F934F935F936F937F938F9336
:1017E0009F93AF93BF93EF93FF938091A403909146
:1017F000A503A091A603B091A7030196A11DB11D59
:101800008093A4039093A503A093A603B093A7038A
:101810008091A8039091A903A091AA03B091AB0372
:101820000196A11DB11D8093A8039093A903A093D5
:10183000AA03B093AB038091030190910401892B1B
:1018400029F0E0910301F09104010995FF91EF91D6
:10185000BF91AF919F918F917F916F915F914F91C8
:101860003F912F910F900FBE0F901F9018951F92D0
:101870000F920FB60F9211242F933F934F935F93C4
:101880006F937F938F939F93AF93BF93EF93FF9348
:101890008091050190910601892B29F0E0910501C5
:1018A000F09106010995FF91EF91BF91AF919F9142
:1018B0008F917F916F915F914F913F912F910F90F9
:1018C0000FBE0F901F9018951F920F920FB60F9298
:1018D00011242F933F934F935F936F937F938F9335
:1018E0009F93AF93BF93EF93FF938091AC0390913D
:1018F000AD03A091AE03B091AF030196A11DB11D40
:101900008093AC039093AD03A093AE03B093AF0369
:1019100080910D0190910E01892B29F0E0910D012C
:10192000F0910E010995FF91EF91BF91AF919F91B9
:101930008F917F916F915F914F913F912F910F9078
:101940000FBE0F901F9018951F920F920FB60F9217
:1019500011242F933F934F935F936F937F938F93B4
:101960009F93AF93BF93EF93FF9380911101909159
:101970001201892B29F0E0911101F09112010995D2
:10198000FF91EF91BF91AF919F918F917F916F9157
:101990005F914F913F912F910F900FBE0F901F902D
:1019A00018951F920F920FB60F9211242F933F9309
:1019B0004F935F936F937F938F939F93AF93BF9357
:1019C000EF93FF938091070190910801892B29F0F3
:1019D000E0910701F09108010995FF91EF91BF9106
:1019E000AF919F918F917F916F915F914F913F91B7
:1019F0002F910F900FBE0F901F9018951F920F926E
:101A00000FB60F9211242F933F934F935F936F93D1
:101A10007F938F939F93AF93BF93EF93FF938091A7
:101A2000090190910A01892B29F0E0910901F091B7
:101A30000A010995FF91EF91BF91AF919F918F910D
:101A40007F916F915F914F913F912F910F900FBEBA
:101A50000F901F9018951F920F920FB60F9211249E
:101A60002F933F934F935F936F937F938F939F93A6
:101A7000AF93BF93EF93FF9380910B0190910C0173
:101A8000892B29F0E0910B01F0910C010995FF9150
:101A9000EF91BF91AF919F918F917F916F915F91E6
:101AA0004F913F912F910F900FBE0F901F9018955F
:101AB0001F920F920FB60F9211242F933F934F93C3
:101AC0005F936F937F938F939F93AF93BF93EF93A6
:101AD000FF9380910F0190911001892B29F0E091E3
:101AE0000F01F09110010995FF91EF91BF91AF9116
:101AF0009F918F917F916F915F914F913F912F9126
:101B00000F900FBE0F901F90189580931401F894BA
:101B10008091B1038F7E8093B1038091B10388607F
:101B20008093B10378940895F8948091B1038B7FEA
:101B30008093B10378948091130108958091B1034B
:101B400090E09695879596958795817008958091F8
:101B5000B10390E034E0969587953A95E1F781706E
:101B600008958FEC82BF8091B003833000F58B988D
:101B7000939A8091B10380FF23C0829BA3C0809180
:101B8000B003813031F0813040F0823009F0F6C08E
:101B900006C0839902C08DE096C082E094C0809117
:101BA000B10383FFEBC093988B9A84E28CC0809141
:101BB000B0038A3108F079C08091B10380FD08C07C
:101BC0008091B10381608093B1038A98929A0895BD
:101BD000829B76C08091B003873140F4803118F544
:101BE0008D3061F08F3009F055C00CC08831E1F1C3
:101BF000883158F1893109F04DC049C08091B10355
:101C00008D7F4DC08091B1038B7F8093B103839B07
:101C100005C080E88093130181E014C01092160182
:101C20001092130137C080911301869580931301A0
:101C3000839B30C080911301806880931301809151
:101C400016018F5F8093160125C0839B05C080918C
:101C500016018F5F809316018091160180FD1AC0D6
:101C60008091B103826010C0839905C08091B10357
:101C700082608093B1038091B10381FD0BC0939882
:101C80008B9A8091B10384608093B10303C08B98D9
:101C9000939A6CC092988A9A8091B1038E7F8093B8
:101CA000B1038091B0038F5F0EC08091B0038F327B
:101CB00008F064C08091B10380FF10C0829906C013
:101CC0008B98939A81E08093B00308958091B1033B
:101CD0008E7F8093B10392988A9A08958091B10380
:101CE00081608093B1038A98929A8091B0038C327C
:101CF00028F4853280F48432E1F507C08D3299F101
:101D00008D32E8F08E32A9F531C0809114018093B4
:101D10001501109216018091150180FF08C08B9863
:101D2000939A809116018F5F8093160102C0939859
:101D30008B9A809115018695809315011AC0809128
:101D4000160180FF03C093988B9A02C08B98939AD8
:101D50008091B103877F8093B1038091B10380614B
:101D60008093B10306C08B98939A03C01092B0037E
:101D700008958091B0038F5F8093B003089510920F
:101D8000B00381E18093B1038A98929A8B98939AD9
:101D90000E94450A82E00E94860A80E061EB7DE0B5
:101DA0000E94BC0A8FEC82BF089586E084BD8091BA
:101DB000B2039091B30301969093B3038093B2035F
:101DC000089598EA899FF0011124E050F849E491C0
:101DD00080E0E150EE3F08F481E008958091170122
:101DE00008950F931F931092B3031092B2031092B1
:101DF00019011092180108EA80911A0190911B01B3
:101E0000883A910554F5E0916600E09F9001112415
:101E1000F901E80FF91FE050F84944910196280FA5
:101E2000391F20503849F9011491019690931B01F4
:101E300080931A01842F81508E3F78F4842F0E9462
:101E40008F1CE12FEF77C1F28BE4E89FC0011124D2
:101E5000909319018093180105C01092170180E03A
:101E60000E94900A1F910F91089580911701882375
:101E700069F02091B2033091B303809118019091E1
:101E800019012817390714F00E94F10E0895982FB0
:101E900080911701882391F481E08093170190933A
:101EA0006600109219011092180110921B011092F5
:101EB0001A010E94F10E85B5836085BD08950E94C8
:101EC000600A85E065ED7EE00E94BC0A80E00E9429
:101ED000900A089590931F0180931E010895DF9248
:101EE000EF92FF920F931F93182F062FF42EE22EDE
:101EF000642F422F202F0E942C1ED82E0E94EF13F9
:101F0000882339F0812F6F2D4E2D202F0E94D71757
:101F100013C0002329F0812F0E94B414882361F498
:101F2000DD2051F0E0911E01F0911F010280F3814C
:101F3000E02D812F602F09951F910F91FF90EF9059
:101F4000DF900895DF92EF92FF920F931F93F82E88
:101F5000E62E142FD22E442321F00E9437120E9425
:101F6000DD12E116A1F08F2D612F0E94E11D8F2D52
:101F70000E94FD1D882359F0112319F08F2D61E077
:101F800002C08F2D60E04D2D202F0E946F0F1F91FA
:101F90000F91FF90EF90DF9008952F923F924F9214
:101FA0005F926F927F928F929F92AF92BF92CF92E9
:101FB000DF92EF92FF920F931F93DF93CF9300D0A6
:101FC0000F92CDB7DEB70E945F09882309F4D0C015
:101FD0000E946209882E0E94B8083C010E94BD0838
:101FE0008983492E0E94431F882329F080911D0177
:101FF000882309F05AC080911C01881509F455C046
:10200000EE24FF2491E0292E312C3FC05A8080918C
:102010001C01652D4B2D0E942A13082F882D6A81E3
:102020004B2D0E942A13A82E0817F1F0802F0E9432
:102030008D138823C9F4EA81FB81E60DF71D108119
:10204000F6018081892139F0802F61E040E02B2D5D
:102050000A810E94A20F192139F08A2D60E041E027
:102060002B2D052D0E94A20F8A819B8101969B83B7
:102070008A830894C11CD11C419741F60894E11C45
:10208000F11C98E0E916F10481F0BE2CC1010E2C80
:1020900002C0880F991F0A94E2F7982E2981342DE7
:1020A000C9016C011B821A82B1CF80921C010E946F
:1020B0005D0880931D010E94D2120E94B808182F5B
:1020C000092F0E94BD086C01212F302FC9017C010E
:1020D000BB2481E0682E712CF6018081882321F4D5
:1020E000F70180818823A9F144245524942CC3014D
:1020F000042C02C0880F991F0A94E2F7F6011081A0
:102100001823F70100810823882D6B2D442D0E9490
:102110002A13A82E0E94B01D882349F0101791F0B1
:102120000023B9F08B2D642D0E94B31D12C060E016
:10213000111161E040E0011141E08A2D292D0B2DA4
:102140000E94A20F0894411C511CF8E04F16510444
:1021500069F6B3940894C11CD11C0894E11CF11CCD
:1021600081E1B81609F0B8CF0E94E7080E94C008C4
:102170000F900F900F90CF91DF911F910F91FF90D3
:10218000EF90DF90CF90BF90AF909F908F907F9017
:102190006F905F904F903F902F9008950F931F93F3
:1021A0000E94621D882349F10E94D01C882329F5D2
:1021B0000E94861D092F813051F4E0911E01F0919B
:1021C0001F010280F381E02D892F61E015C0892F66
:1021D0008756883040F40E94CF12182F802F0E941B
:1021E0009C13182351F4E0911E01F0911F0102800D
:1021F000F381E02D802F60E009950E94CD0F1F91A3
:102200000F910895809120010895982F80912001C9
:102210008823B9F080912201882399F09A3661F0E1
:102220009B3618F4993669F405C09D3639F09E3610
:1022300041F406C09AE605C099E603C09EE601C0D7
:102240009DE6892F0895982F80912101882329F4F4
:102250009093220181E08093210108954091200113
:1022600081E048274093200187E090E061E00E94F0
:10227000111C089587E090E061E00E94031C8093A8
:10228000200108958EE291E00E94021584EB95E012
:102290000E9402158CEB95E00E94021584EB95E0FC
:1022A0000E94021580912001882319F08EEB95E0A1
:1022B00002C081EC95E00E9402150895813051F42E
:1022C00087E00E94E8130E942E110E9442110E9492
:1022D0000E140895833031F484E60E94E8130E94BE
:1022E000FA130895863019F48EE60E94E8130895D3
:1022F0000E94421108950F931F930E9442110E9461
:102300000E1481E00E94541D0E94A4150CEB15E0F0
:10231000C8010E94021580E493E00E9402150E9409
:102320000E1483E00E94541D0E94A415C8010E944F
:10233000021587E493E00E9402150E940E1486E0C5
:102340000E94541D0E94A415C8010E9402158CE42D
:1023500093E00E9402150E940E141F910F910895A0
:10236000982F8091240180FF0FC0993611F49AE6CE
:102370000BC09A3611F499E607C09D3611F49EE61B
:1023800003C09E3609F49DE6892F08951F930E948D
:10239000CF12182F81E00E94C512882319F01092E5
:1023A000250118C0809123011817A1F01C3031F0CD
:1023B000103C21F0183411F0143841F41092290126
:1023C0001092280182E08093250102C0109225011D
:1023D00010932301409125014423A1F1809128010C
:1023E00090912901019690932901809328012091D1
:1023F0002601309127012817390724F54230D1F4FE
:1024000082E30E94ED078091240180FF04C08E7F4B
:10241000809324010FC081608093240184EF91E0B8
:102420002CE231E0F9013197F1F70197D9F784E611
:102430000E94ED0788E090E0609124010E94D82B73
:10244000109225011F91089588E090E00E94D02B02
:10245000809324018F3F11F41092240188E893E1C6
:102460000E94FD2790932701809326010895E82F6D
:10247000865D883140F4F0E0EE59FF4FE4918E2FF5
:102480000E942513E82F8E2F0895282F865D88310E
:10249000A8F4822F90E0865D9040FC01E859FE4F41
:1024A000E491EE2321F0822F0E94371206C0805B58
:1024B0009E4FFC0184910E942513282F822F08959E
:1024C0001F93282F80912A016623E9F0982F9F5FA0
:1024D00090932A0180912B01882331F081E0809331
:1024E0002C0110922D014CC0822F865D883108F09E
:1024F00047C0913009F044C020932D0190932B01E7
:1025000010922C013DC0882319F0815080932A013C
:10251000265D283168F510912D01112349F1809134
:102520002C01882329F5812F865D883148F4E12F1D
:10253000F0E0E658FF4FE4918E2F0E942513182FEC
:10254000812F0E948F1C812F0E948F1C10922D01C1
:102550000E940614882361F0812F60E040E021E0B2
:102560000E94D717812F60E040E020E00E94D7173B
:1025700080912A01882321F410922C0110922B01C2
:102580001F9108958EE291E00895873010F080E069
:102590000895E82FF0E0E25DFE4F8081089580917C
:1025A0002E01089581E08093350187E0EEE2F1E0AD
:1025B000DF011D928A95E9F708951F93982F87569A
:1025C000883048F410912E01892F0E949C13182BFB
:1025D00010932E010CC080913501873040F4E82F14
:1025E000F0E0E25DFE4F90838F5F809335011F9195
:1025F000089591E1899FC0011124860F911D23E068
:10260000880F991F2A95E1F7840F911DE0916D00C5
:10261000F0916E00E80FF91FE4918E2F089591E17B
:10262000899FC0011124860F911D33E0880F991FE7
:102630003A95E1F7840F911DE0916D00F0916E00E5
:10264000E80FF91FE4918E2F08950E9405110E9452
:10265000B0110895EF92FF920F931F93082FF62E5B
:10266000E42E0E94EF13882309F10E9406148823A8
:10267000C1F1033010F010E013C088E8089FC001DA
:1026800011240D962F2D30E063E0220F331F6A9541
:10269000E1F7820F931F8E0D911D0E94D02B182FF2
:1026A000812F0E94FF138823B9F417C00330A0F4D0
:1026B00088E8089FC00111240D962F2D30E053E0CB
:1026C000220F331F5A95E1F7820F931F8E0D911D34
:1026D0000E94D02B182F01C010E0812F81508E3F17
:1026E000A0F081E1089FC00111248F0D911D43E0EE
:1026F000880F991F4A95E1F78E0D911DE0916D00AD
:10270000F0916E00E80FF91F1491812F0E9425139C
:102710001F910F91FF90EF900895982FE0E8F1E05E
:102720008491981711F481E00895319681E0E4389E
:10273000F807B1F780E00895E82FF0E0E35EFE4F80
:10274000E4918E2F0895809136010895809136018D
:10275000882329F481E0809336010E94F0050895D2
:1027600080913601882311F58091370190913801CD
:10277000A0913901B0913A010196A11DB11D80933C
:10278000370190933801A0933901B0933A01805EEC
:102790009349A440B04054F0109237011092380190
:1027A0001092390110923A010E94A6130895809167
:1027B0003601882321F0109236010E944D061092B6
:1027C0003701109238011092390110923A010895A0
:1027D0008093490108958091450181700895809109
:1027E00045018270089580914701089581E08093AA
:1027F000470108951092450110924B01089590E011
:102800008D5B883108F491E0892F089590E08091E4
:1028100049018B3009F491E0892F089588E20E94E4
:102820008F1C88E20E948F1C089580E3E5E5F4E0A8
:10283000DF01982F1D929A95E9F710928504E5EB38
:10284000F3E0DF011D928A95E9F7109240010895A7
:102850001F93CF93DF938091B4038C30C8F4C0E012
:10286000D0E010E38091B403819FC00111248B5507
:102870009E4FFE01EB5AFB4F8C0F9D1F60810E9403
:10288000D82B2196C033D10569F78FEF8093B4031D
:10289000DF91CF911F9108950F931F93CF93DF93F3
:1028A000982F8C30C0F480E3989FC0011124EC0174
:1028B000CB55DE4F8C010B521E4FCE010E94D02B08
:1028C000982F81508E3F18F4892F0E948F1C2196DB
:1028D000C017D10791F7DF91CF911F910F91089504
:1028E000CF92DF92EF92FF920F931F93CF93DF93DC
:1028F0009091540188E8989F700111248DE090E038
:10290000E80EF91ECC24DD2417C0CE018E0D9F1DCC
:102910000E94D02BF80181938F012196C830D105F8
:10292000A1F70894C11CD11C88E090E0E80EF91EC4
:1029300091E1C916D10459F0860183E0000F111FFF
:102940008A95E1F703531C4FC0E0D0E0DECF109230
:10295000530110925201DF91CF911F910F91FF907F
:10296000EF90DF90CF9008950F931F93182F8091D1
:10297000450180FD27C0012F0D5B083118F50E942D
:10298000621D8823F9F4193C90F0195C80E3189FCC
:10299000C00111248B559E4F0E94D02B81508E3F39
:1029A00098F40E94731D812F0E944C140DC0802F3B
:1029B0000E94E10E882341F00E94731D802F0E9427
:1029C000470F02C080E001C081E01F910F91089580
:1029D0000F931F93FC0180810E94DF1C8C018823D0
:1029E00019F088E60E948F1C812F0E948F1C812F76
:1029F0000E948F1C002319F088E60E948F1C1F91F3
:102A00000F910895CF92DF92EF92FF920F931F9351
:102A1000DF93CF930F92CDB7DEB78C01009711F5FE
:102A20002FC000D000D000D0EDB7FEB73196ADB7C3
:102A3000BEB71296FC92EE921197D382C28299276A
:102A400087FD9095958384830E94CF298DB79EB78B
:102A500006960FB6F8949EBF0FBE8DBFC7010E94A9
:102A6000E81408C07E010894E11CF11C9FE6C92E01
:102A700090E0D92EF8010F5F1F4F8491882389F6CB
:102A80000F90CF91DF911F910F91FF90EF90DF900A
:102A9000CF90089583E994E00E9402150E940E14DD
:102AA00025ED33E080E090E00BC01192E217F307D0
:102AB000E1F701969F01285F3F4F8131910549F071
:102AC000FC0143E0EE0FFF1F4A95E1F7E353FC4F93
:102AD000ECCF81E090E090935301809352010895F0
:102AE0008BEA95E00E9402150E940E1481E080930B
:102AF0003F018CE080934B01109249010895809131
:102B0000520190915301892B29F4109245011092A2
:102B10004B01089584EE94E00E9402150E940E1469
:102B200081E080933F018BE080934B0180914901CC
:102B300080934A0110924901089581ED93E00E942B
:102B400002150E940E140895AF92BF92CF92DF92A9
:102B5000FF920F931F93DF93CF930F92CDB7DEB702
:102B60008C01FF246E010894C11CD11C5FE6A52EC8
:102B700050E0B52E25C000D000D000D0EDB7FEB794
:102B80003196ADB7BEB71296DC92CE921197B38252
:102B9000A282800F911FDC018C91992787FD90956F
:102BA000958384830E94CF298DB79EB706960FB672
:102BB000F8949EBF0FBE8DBFC6010E94E814F39427
:102BC0008F2D90E0F80101900020E9F73197E01B8C
:102BD000F10B8E179F0778F20F90CF91DF911F9125
:102BE0000F91FF90DF90CF90BF90AF9008950F931B
:102BF0001F9386EB95E00E94021504EB15E0C801D7
:102C00000E9402158091B4038F5F0E94541D0E94A0
:102C1000A415C8010E9402158BEA95E00E940215D6
:102C20000E940E1481E080933F018DE080934B0160
:102C3000109249011F910F9108950F931F930E94C5
:102C40000E148BE093E00E9402150E940E1481E1A5
:102C500093E00E9402150E940E1486E293E00E9407
:102C600002150E940E1483E00E94541D0E94A415B8
:102C70000CEB15E0C8010E94021587E493E00E9466
:102C800002150E940E1486E00E94541D0E94A41595
:102C9000C8010E9402158CE493E00E9402150E9474
:102CA0000E1484E393E00E9402150E940E1487E044
:102CB000809349011F910F9108951F930E940E1454
:102CC0008FEB92E00E9402150E940E1481E00E9498
:102CD000541D0E94A4158CEB95E00E9402158BEC0C
:102CE00092E00E9402150E940E1482E00E94541D80
:102CF0000E94A4158CEB95E00E94021587ED92E0EE
:102D00000E9402150E940E1410E01CC080915F0109
:102D10008F5F810F0E94541D0E94A4158CEB95E0DB
:102D20000E940215E12FF0E0EE0FFF1FEA5AFE4F5E
:102D30000190F081E02D0190F081E02D09950E9435
:102D40000E141F5F80914101181700F381E08093FA
:102D50003F018EE080934B01109249011F9108952D
:102D600083E0EEE4F1E0DF011D928A95E9F710922D
:102D7000510110925401109248010E945D1608956D
:102D800081E080933F0180914901893090F4873040
:102D900008F040C0833091F1843030F48130F9F094
:102DA000823009F05FC027C0853071F1863078F538
:102DB00028C08D30B9F18E3048F48A3009F447C00C
:102DC0008A3068F18B3009F04DC02FC08E3609F47F
:102DD00047C0883789F1843609F044C038C089ED8E
:102DE00093E00E940215809154018F5F0E94541D50
:102DF0000E94A4151EC08BE094E019C08AE294E002
:102E00000BC087E594E025C08FE694E022C01092C5
:102E10003F0128C082EB94E00E94021523C08AEF94
:102E200094E0FACF83E395E0F7CF87E595E00E9441
:102E300002150E940E1416C088EF92E00E9402153F
:102E40000E940E14109249010E94AC1D0BC08EEE20
:102E500092E00E9402150E940E141092490102C0D5
:102E60000E945D1688EE93E02CE231E0F901319783
:102E7000F1F70197D9F708951F93CF93DF93C0E03F
:102E8000D0E010E38091B403819FC00111248B55E1
:102E90009E4F8C0F9D1F60E00E94D82B2196C0335F
:102EA000D10581F787E0809349010E94C016DF9128
:102EB000CF911F910895CF93DF93C5EAD1E0CE0162
:102EC00060E00E94D82B219683E0C53ED807B9F771
:102ED00087E0809349010E94C016DF91CF91089549
:102EE000BF92CF92DF92EF92FF920F931F93CF93F7
:102EF000DF93EE24FF24CC24DD24E8E8BE2E1EC0A0
:102F0000809154018B9DC00111240D968C0D9D1D47
:102F10008C0F9D1FF80161918F010E94D82B219683
:102F2000C830D10569F70894E11CF11C88E090E0F5
:102F3000C80ED91E91E1E916F10459F0870173E03A
:102F4000000F111F7A95E1F703531C4FC0E0D0E04A
:102F5000D7CF109253011092520180914A018430D0
:102F600039F4809349011092450110924B0113C02E
:102F7000813089F40E940E1481ED94E00E940215C4
:102F80000E940E1487E0809349018091550180933F
:102F900054010E9470140E94C016DF91CF911F91BE
:102FA0000F91FF90EF90DF90CF90BF900895DF9248
:102FB000EF92FF920F931F93CF93DF93982FE62EFC
:102FC000D42EF22E80913F01882309F0BFC2892FB1
:102FD0000E943712082F809149018B3009F0ACC252
:102FE00084E990E0602F0E94371CEC019091490128
:102FF0009B3009F0A5C20D3B08F0A8C280913E01AC
:10300000882399F010923D0110923E01802F0E947A
:103010008F1CE0918504F0E0EC5AFB4F10820E9477
:10302000281487E08093490177C2FF2071F08091D6
:103030004001883108F08AC28F5F8093400185EBA0
:1030400093E0602F0E94831C0FC085EB93E0602FFC
:103050000E94371CBC018FEF6F3F780709F476C2DE
:1030600085EB93E00E94511C80918504E82FF0E0ED
:10307000EB5AFB4F00838F5F80938504802F0E9463
:103080008F1C80918504803330F087E08093490164
:103090000E94281441C2FF2069F0CC56DF4F88817E
:1030A000893241F481E080933D0110923C011092FD
:1030B0003B014CC210923D0110923E0147C2CA3002
:1030C000D10508F043C2E0915101F0E0E25BFE4F10
:1030D000C0838C2F0E94541D0E94A4150E940E14C0
:1030E00010914E0180914901883009F04AC0123098
:1030F00029F4109348010E941D16C6C11130F1F445
:10310000109348010E9470140E940E1481E593E010
:103110000E9402150E940E148CE593E00E94021595
:103120000E940E148BE693E00E94021510933F015B
:103130008AE080934B0110924901A6C1163021F418
:103140001093480184E63BC0193021F410934801E4
:1031500088E735C083E680934801E12FE1508091F4
:103160005F01E81BE0935E01F0E0EE0FFF1FEA5AFB
:10317000FE4F0190F081E02D0280F381E02D099552
:103180002AC0873009F080C1163019F48EE680938A
:10319000490180914801813001F5113011F0123060
:1031A00019F41093490170C1133031F484E0809315
:1031B00049010E947F1568C1143041F485E0809375
:1031C00049011092450110924B015EC1193009F07E
:1031D0005BC10E944A1587E055C18230A9F41130C5
:1031E00011F489E04FC1123011F48DE04BC113305E
:1031F00011F48AE0E4CF193009F046C18CE08093E5
:1032000049010E94701540C1833609F03DC1E0912B
:103210005E01F0E0EE0FFF1FEA5AFE4F0190F081D1
:10322000E02D0480F581E02D812F602F4E2D2D2D76
:103230000F2D099529C1923099F0CA30D10508F0B7
:1032400085C180915101E82FF0E0E25BFE4FC08321
:103250008F5F809351018C2F0E94541D0E94A415F2
:103260002A9728F080914901823009F06FC180913E
:103270004901833009F40BC1843038F4813009F4FA
:1032800075C0823009F055C1A4C0893021F08D305D
:1032900009F04FC12DC0809151018230F9F4909115
:1032A0004E018AE0989F9001112480914F01280FD0
:1032B000311DC90101970C9750F4822F81508093E2
:1032C000B4038BE0809349010E9415141CC1232B89
:1032D00009F013C187E08093490115C188EE93E09E
:1032E0002CE231E0F9013197F1F70197D9F72EC1BE
:1032F00080915101823081F590914E018AE0989F32
:103300009001112480914F01280F311DC9010197AF
:103310000C9760F4822F81508093B40387E08093F0
:1033200049010E940E140E94F7150EC0232B21F4B0
:1033300087E08093490106C00E940E148EE895E054
:103340000E9402150E940E1483E0EEE4F1E0DF011A
:103350001D928A95E9F798C088EE93E02CE231E05F
:10336000F9013197F1F70197D9F7F0C090914E012B
:1033700080915401833050F5192F1150811731F18C
:10338000133020F5809152019091530118161906BF
:103390006CF40E940E148EEB94E00E9402150E94C1
:1033A0000E140E947F15109355016EC00E940E14DA
:1033B00081ED94E00E9402150E940E1487E0809334
:1033C0004901109354010E9470145EC00E940E14B3
:1033D00002CFE0924C01D0924D018EEE94E00E941B
:1033E000021580914C018F5F0E94541D0E94A4150C
:1033F00082E790E00E94A41580914D018F5F0E94AA
:10340000541D0E94A41585E790E00E94A4158091A8
:1034100054018F5F0E94541D0E94A4158EE790E016
:103420000E94A4158091540160914D0140914C017E
:103430000E940F130E94541D0E94A41588E890E07A
:103440000E94A41580914C01E0914D01F0E0B3E0A1
:10345000EE0FFF1FBA95E1F7E80FF11DE353FC4FA4
:10346000808190E08F3F910511F480E090E00E9410
:10347000541D0E94A41582E990E00E94A4150E94A8
:103480000E1483E0809349011092510152C0809143
:103490005101833009F043C090914E0184E6989F1A
:1034A000A001112480914F012AE0829FC0011124C4
:1034B000480F591F80915001480F511D4F3F510532
:1034C000E4F480914C01E0914D01F0E0A3E0EE0FB7
:1034D000FF1FAA95E1F7E80FF11DE353FC4F40836E
:1034E00087E08093490180915201909153010196A8
:1034F000909353018093520106C00E940E148EE8EF
:1035000095E00E94021583E0EEE4F1E0DF011D92F8
:103510008A95E9F7109251010E940E140AC088EEB4
:1035200093E02CE231E0F9013197F1F70197D9F7F7
:103530000DC00E94C0160AC0FF2009F451CD06C07C
:10354000892F8750823008F076CEB9CDDF91CF91A8
:103550001F910F91FF90EF90DF9008950E940E143D
:1035600088E893E00E9402150E940E1488E993E017
:103570000E9402150E940E1486E00E94541D0E94B3
:10358000A4158CEB95E00E9402158CE493E00E9458
:1035900002150E940E148EEA93E00E9402150E940A
:1035A0000E1487E0809349010E94C01608950F937E
:1035B0001F9386E00E94541D0E94A4150CEB15E099
:1035C000C8010E9402158DED92E00E9402150E9432
:1035D0000E1489E00E94541D0E94A415C8010E9487
:1035E000021582EE92E00E9402150E940E1488E0FD
:1035F000809349010E94C0161F910F9108958091F8
:10360000450181608093450182E30E94ED0784EFCC
:1036100091E02CE231E0F9013197F1F70197D9F708
:1036200082E30E94ED0784EF91E02CE231E0F901A2
:103630003197F1F70197D9F784E60E94ED070895D5
:103640000E94CF12982F8091450180FD18C0809173
:1036500046019817A1F0973261F4809142018823C6
:1036600041F4109244011092430181E080934201A1
:1036700004C010924501109242019093460180913E
:10368000450180FF0FC081FD0DC00E945A088823AC
:1036900049F0809145018260809345010E949D150B
:1036A0000E94B016809145018823C9F4809142019F
:1036B0008130A9F480914301909144010196909347
:1036C00044018093430120919F003091A00028176E
:1036D00039072CF40E94FF1A82E080934201809106
:1036E000450181FF40C080913F01882319F10E946C
:1036F000621D8823F9F480914B018B3019F40E94EC
:10370000701716C08E3019F40E94D71A11C08A3073
:1037100019F40E94AE1A0CC08D3019F40E943C17A7
:1037200007C08C3019F40E945B1702C010923F0151
:1037300010924B0180913D018823A9F080913B01BB
:1037400090913C01019690933C0180933B01895EEE
:1037500093404CF081E080933E0189E26FEF4FEFA0
:1037600020E00E94D71708950E94FF1A08950E9432
:10377000B01D882319F010924701089580914701E8
:10378000813021F40E94FF1A10924701089584ECC1
:1037900099E00E94FD279093A00080939F0082E013
:1037A00080935F0120914101E22FF0E0A6E5B1E0B6
:1037B000EE0FFF1FEA0FFB1F8DEA90E091838083DD
:1037C0002F5FE22FF0E0EE0FFF1FEA0FFB1F87E6EF
:1037D00090E0918380832F5F822F90E0880F991F64
:1037E000A80FB91F87EA90E08D939C932F5F2093D9
:1037F0004101089528EB3BE003C0F9013197F1F74F
:103800000197D9F708951F93162F0E94D02B90E0AF
:1038100002C0959587951A95E2F7809581701F9162
:1038200008950F931F93062F142F0E94D02B282F3B
:10383000112361F481E090E002C0880F991F0A957E
:10384000E2F7682F60956223682B0AC081E090E060
:1038500002C0880F991F0A95E2F7682F60956223CE
:1038600087E090E00E94D82B1F910F910895CF938D
:10387000DF93EC01DC010D900020E9F71197A81B04
:10388000B90B70E0AD010E948629009719F4EFEFA3
:10389000FFEF03C0FC01EC1BFD0BCF01DF91CF91CB
:1038A00008959B01FC0101900020E9F73197E81B86
:1038B000F90B6F5F7F4F680F791FE21BF30B820FCD
:1038C000931FAF010E949C290895FF920F931F93AD
:1038D000F42E9B01DC010D900020E9F78C01060F0E
:1038E000171FA81BB90BA61BB70B2F5F3F4F820FEB
:1038F000931FB801AD010E949C29F801F0821F912D
:103900000F91FF900895462FDC010D900020E9F7FC
:103910001197A81BB90BBD010E94651C0895282FA3
:103920008091950190919601019660E071E00E946E
:103930002229FC0190939601809395018091930137
:10394000909194018E179F0759F4009719F48FEF07
:1039500090E001C00197909396018093950108959E
:10396000E956FE4F208308952091930130919401F0
:1039700080919501909196012817390711F480E004
:103980000895C901019660E071E00E942229FC01BE
:103990009093940180939301E956FE4F808108959E
:1039A00040E0209193013091940180919501909194
:1039B00096012817390709F441E0842F0895982FBC
:1039C00081568A3118F4292F2D5510C0892F815422
:1039D0008A3120F4292F2D5332E009C0892F8153D9
:1039E000893010F020E002C0292F235130E0892FC8
:1039F000992787FD9095A92FB92FFC01B097EF3536
:103A0000F10508F048C0E65DFF4FEE0FFF1F05907F
:103A1000F491E02D09942EE141C02FE13FC020E256
:103A20003DC021E23BC022E239C023E237C024E29C
:103A300035C025E233C026E231C027E22FC02CE298
:103A40002EC02DE22CC02DE229C02EE228C02EE28D
:103A500025C02FE224C02FE221C020E320C020E3B4
:103A60001DC021E31CC021E319C023E318C023E3D8
:103A700015C024E314C024E311C025E310C025E3DE
:103A80000DC026E30CC026E309C027E308C027E3E6
:103A900005C028E304C0222311F428E332E0832F79
:103AA000922F089527E2FBCF0F931F9300E611E0BA
:103AB00090E0B8014AE050E00E94AE29C8011F9191
:103AC0000F91089520919301309194018091950177
:103AD000909196012817390719F081E090E0089538
:103AE0000E94EE0E089520919301309194018091EF
:103AF0009501909196012817390739F480E3E3E6A0
:103B0000F1E0DF011D928A95E9F708951F93CF93A5
:103B1000DF930E94B41C182FC3E6D1E0882331F450
:103B200080E3FE0111928A95E9F70AC0CE01612F68
:103B30000E94371CBC0197FD05C0CE010E94511C9C
:103B400082E005C0CE01612F0E94831C81E0912F8D
:103B5000DF91CF911F91089581E08093970208959E
:103B60008091970208950F931F93082F162F81EAD3
:103B700090E00E94A415812F0E94541D0E94A4155C
:103B800083EA90E00E94A415802F0E94541D0E9499
:103B9000A41585EA90E00E94A4151F910F91089545
:103BA0000E94201B0E94C6110E94350F0E94B31E66
:103BB0000E945206089580919902089580919C0276
:103BC00008956623C9F0843F51F480919A028230AF
:103BD00011F483E001C081E080939A020895833F4D
:103BE00059F480919B02823021F483E080939B0200
:103BF000089581E080939B020895982F80919A0206
:103C0000823059F080919B02823029F49A3629F053
:103C100080E09E3619F081E0089580E00895FC016F
:103C20008081813091F482E0808382E30E94ED07FD
:103C300084EF91E02CE231E0F9013197F1F701973F
:103C4000D9F784E60E94ED070895833021F41082AD
:103C500084E60E94ED070895EF92FF920F931F9361
:103C6000182FF62EE42E022F0E948D13882309F0C0
:103C700072C0812F6F2D4E2D202F0E943C05812F69
:103C8000602F0E946012812F0E944512182F0E94FF
:103C90008D13882309F05FC0002309F451C01C3F35
:103CA00049F080919802882391F11A3281F510929F
:103CB000990206C08091990291E089278093990228
:103CC00080919C028823A9F480919902882311F4A1
:103CD00084E60DC084E60E94ED0780E293E02CE2CA
:103CE00031E0F9013197F1F70197D9F786E40E94A5
:103CF000ED07809199020E94430A80919C028823DB
:103D000051F181E0609199020E94220524C019328C
:103D100021F481E08093980221C0882311F01933A7
:103D200011F01D3F19F40E94FC0515C01A3F19F44B
:103D30000E94D60510C0193F81F40E94BD050BC03A
:103D40001C3F49F0193219F41092980206C0173F2F
:103D500021F40E94B41B80E001C081E01F910F910B
:103D6000FF90EF9008950E945708882341F08AE958
:103D700092E00E940F1E8BE992E00E940F1E0895B0
:103D800085EC95E00E94021584EB95E00E940215F7
:103D90008CEB95E00E94021584EB95E00E940215E1
:103DA00080919C02882319F08EEB95E002C081EC93
:103DB00095E00E94021508951F93182F8130A1F4F9
:103DC00087E00E94E81340919C02412740939C02A7
:103DD00087E090E062E00E94111C0E9413060E949E
:103DE000C01E0E940E140DC0833031F484E60E9480
:103DF000E8130E94FA1305C0863019F48EE60E947B
:103E0000E8131F9108950E94C01E08950F931F93F9
:103E10000E94C01E0E940E1481E00E94541D0E9448
:103E2000A4150CEB15E0C8010E94021580E493E094
:103E30000E9402150E940E1483E00E94541D0E94ED
:103E4000A415C8010E94021587E493E00E940215A0
:103E50000E940E1486E00E94541D0E94A415C80101
:103E60000E9402158CE493E00E9402150E940E1439
:103E70001F910F91089587E090E062E00E94031C7B
:103E800080939C02089580919D02089540919D0227
:103E900081E0482740939D0287E090E060E00E9427
:103EA000111C089587E090E060E00E94031C80935D
:103EB0009D02089584ED95E00E94021584EB95E043
:103EC0000E9402158CEB95E00E94021584EB95E0B0
:103ED0000E94021580919D02882319F08EEB95E0D7
:103EE00002C081EC95E00E9402150895813051F4E2
:103EF00087E00E94E8130E94461F0E945A1F0E94FA
:103F00000E140895833031F484E60E94E8130E9471
:103F1000FA130895863019F48EE60E94E813089586
:103F20000E945A1F08950F931F930E945A1F0E94C8
:103F30000E1481E00E94541D0E94A4150CEB15E0A4
:103F4000C8010E94021580E493E00E9402150E94BD
:103F50000E1483E00E94541D0E94A415C8010E9403
:103F6000021587E493E00E9402150E940E1486E079
:103F70000E94541D0E94A415C8010E9402158CE4E1
:103F800093E00E9402150E940E141F910F91089554
:103F9000282F8F3F31F41092A30281E08093A80272
:103FA00008958E3F21F08D3F29F41092A3021092C4
:103FB000A80208958091A802882351F08091A3025D
:103FC000E82FF0E0EE58FC4F20838F5F8093A30230
:103FD0008091A1029091A202019668EC70E00E948B
:103FE0002229FC019093A2028093A10280919F025A
:103FF0009091A0028E179F0759F4009719F487EC4F
:1040000090E001C001979093A2028093A1020895CD
:10401000E755FD4F208308958091A103882339F44B
:1040200081E08093A1030E94F2280E94B71B0895AB
:104030001F93162F8E3F11F0809327050E94850D48
:10404000109328051F91089588EB90E00E946A0F55
:1040500008958F929F92AF92BF92CF92DF92EF928C
:10406000FF920F931F9388E0809328050E94BF0E54
:10407000E7E8F4E0119225E0E732F207D9F722E70A
:1040800032E006C0FC01E957FB4F808182608083EB
:10409000F901849190E02F5F3F4F009799F725E752
:1040A00032E006C0FC01E957FB4F808184608083C9
:1040B000F901849190E02F5F3F4F009799F729E72E
:1040C00032E006C0FC01E957FB4F808188608083A5
:1040D000F901849190E02F5F3F4F009799F72EE709
:1040E00032E006C0FC01E957FB4F8081816080838C
:1040F000F901849190E02F5F3F4F009799F72CEAE8
:1041000032E006C0FC01E957FB4F8081806180836B
:10411000F901849190E02F5F3F4F009799F72BEBC7
:1041200032E006C0FC01E957FB4F8081806280834A
:10413000F901849190E02F5F3F4F009799F710921B
:10414000A00210929F021092A2021092A10210925D
:10415000A3021092A40210927C0310927D0310928D
:104160007E0310927F0388EB90E00E946A0F7894A0
:1041700099249394A5E0AA2EB12CC12CD12CF6E958
:104180008F2E8091C3008823F9F48091A1038823A6
:10419000D9F480919F039091A00301969093A0037E
:1041A00080939F030197815D974074F081E0809335
:1041B000C3001F910F91FF90EF90DF90CF90BF90C1
:1041C000AF909F908F9008958091B10381FF07C0B9
:1041D000F8948091B1038D7F8093B10378940E940D
:1041E0009E0D882309F402C18091A5029091A60238
:1041F0008C3F910561F020919F023091A002809147
:10420000A1029091A2022817390709F0EFC00E947D
:10421000940D809380031092A7026091280562306C
:1042200009F46BC0633018F4613039F460C0663053
:1042300009F4C8C0673009F47BC0833F79F1843F3B
:1042400070F48E3ED1F08F3E20F48D3E09F0CAC04E
:1042500022C0803FE9F0823F09F0C4C010C0863F11
:1042600039F1873F20F4843F09F0BCC01AC08E3F6B
:1042700061F08F3F09F0B6C005C08EEEB5C08AEF81
:1042800064E0B2C08AEF68E0AFC080912705ACC09F
:104290008AEF62E0A9C08AEF66E0A6C08AEF67E015
:1042A000A3C08AEF60E00E9418200E940C209EC0EC
:1042B0009092B300A092B400B092B500C092B60044
:1042C000D092B7001092A00210929F021092A20208
:1042D0001092A1021092A3021092A40210927C03E9
:1042E00010927D0310927E0310927F037BC0853F66
:1042F00009F478C08AEF61E077C01092A0021092B2
:104300009F021092A2021092A1021092A302109298
:10431000A40210927C0310927D0310927E031092EF
:104320007F03882311F060E001C063E08AEF5CC086
:1043300090E09C0120763070E5E035952795EA9570
:10434000E1F72093B3009C01277030703093820313
:10435000209381038871907073E0959587957A9585
:10436000E1F7909384038093830341E050E020E0E1
:1043700030E004C0440F551F2F5F3F4F2817390707
:10438000CCF34093870350938803309386032093A4
:10439000850380918103909182039C01429FC0011B
:1043A000439F900D529F900D1124AA2797FDA09531
:1043B000BA2F8093B4009093B500A093B600B09349
:1043C000B70010C00E940C2080918003982F80E0DD
:1043D00090FD84E091FD816092FD82600E9419054C
:1043E0000E9413068AEF60E00E9418200E94A70D29
:1043F000882309F4C6CE8091A702882309F0C1CE94
:1044000080912805843009F402C1853030F4882376
:1044100071F0833009F0B5CEF8C0883009F4FCC0E3
:104420008C3009F47CC0853009F0ABCEF3C020910C
:104430009F023091A0028091A1029091A2022817C0
:10444000390711F40E94CE100E94D01D20919F02C6
:104450003091A0028091A1029091A2022817390701
:1044600011F480E00EC0C901019668EC70E00E9472
:104470002229FC019093A00280939F02E755FD4FF3
:104480008081282F30E03093A6022093A5022B3F95
:10449000310519F49092A70274CE2C3F310509F42E
:1044A00070CE232B21F060E00E9418205EC0809126
:1044B000A302882309F465CE20917C0330917D030B
:1044C00040917E0350917F032F5F3F4F4F4F5F4FCF
:1044D00020937C0330937D0340937E0350937F03AE
:1044E0008091B300889DC00111248A519F4FAA2753
:1044F00097FDA095BA2F281739074A075B070CF4D8
:1045000040CE10927C0310927D0310927E03109295
:104510007F031092A4028CE08093280532CE809114
:10452000A402882311F40E94CE100E94D01D809115
:10453000A3028823C1F020919F023091A0028091B4
:10454000A1029091A2022817390769F480917C0397
:1045500090917D03A0917E03B0917F030197A10507
:10456000B10561F40FC01092280510927C031092DF
:104570007D0310927E0310927F0303CE8091A402EC
:104580008823A9F09091A402E92FF0E0EE58FC4FA7
:1045900080819F5F9093A4026CE00E94182060913C
:1045A000A3028091A4020E9416299093A402E09095
:1045B0007C03F0907D0300917E0310917F030894AB
:1045C000E11CF11C011D111D6091B4007091B5003A
:1045D0008091B6009091B7002AE030E040E050E0D2
:1045E0000E94F7289B01AC012D5F3F4F4F4F5F4F5B
:1045F000C801B7010E94572960937C0370937D0323
:1046000080937E0390937F03BCCD82E01AC08BEA37
:1046100065E018C083E815C01092A00210929F02B6
:104620001092A2021092A1021092A3021092A40270
:1046300010927C0310927D0310927E0310927F03F0
:104640008AEA60E00E9418209CCDEF92FF920F93BF
:104650001F93CF93DF93E62E882309F49EC00E9418
:104660003712982F8D3B08F098C0082F10E0F80102
:10467000E457FE4FF490EE2009F45EC0809371037E
:1046800010927C0310927D0310927E0310927F03A0
:1046900010922805E801C957DB4F888181FF2EC0A1
:1046A000963421F0983409F03FC00EC08FEF0E947D
:1046B000C81F80EE0E94C81F82E10E94C81F80EEC2
:1046C0000E94C81F8CE728C08DEF0E94C81F81EE92
:1046D0000E94C81F84E10E94C81F87E70E94C81F6C
:1046E00081EE0E94C81F80EF0E94C81F84E10E94D3
:1046F000C81F80EF0E94C81F87E711C082FF02C059
:104700008F2D0DC08FEF0E94C81F888180FF03C0CE
:1047100080EE0E94C81F8F2D0E94C81F8EEF0E943E
:10472000C81F8CEF0E94C81F09571B4FF8018081DA
:1047300085FF35C08BEF2EC080917103891711F46E
:104740001092A302E92FF0E0E957FB4F808181FF2F
:1047500013C0963421F580EE0E94C81F80EF0E949E
:10476000C81F8CE70E94C81F80EE0E94C81F80EF00
:104770000E94C81F82E10BC082FD11C080FF03C0F0
:1047800080EE0E94C81F80EF0E94C81F8F2D0E94DC
:10479000C81F8CEF0E94C81F02C080E001C081E0EA
:1047A000DF91CF911F910F91FF90EF900895FC0141
:1047B0008381813261F08232D9F0823081F58FE9D4
:1047C00096E090934D0580934C058BE3089582818C
:1047D000882319F0813019F503C081EB96E002C0FF
:1047E0008AEC96E090934D0580934C0589E00895FE
:1047F00084819581009719F0019789F408C08CEDA8
:1048000095E090934D0580934C0580E408958CE1EC
:1048100096E090934D0580934C0583E8089580E0E1
:104820000895FC0180918A03882329F0613019F4EE
:1048300080810E947D2610928A0381E008950F9363
:104840001F93CF93DF93182F092F0E946D24C12F40
:10485000D02F888180768032D1F58981813041F4F2
:1048600089E295E090934D0580934C0588E030C037
:10487000893071F48A819B818050924041F58C810E
:104880009D81892B21F581E080938A038FEF20C0E1
:10489000823019F48091890314C08A3031F40E9467
:1048A00071248B818093890312C0833031F48B8112
:1048B000882369F41092BC000BC08B3041F48091C6
:1048C000BC0080934C0510924D0581E001C080E052
:1048D000DF91CF911F910F91089581E08093A10303
:1048E000089581E080938E0310928F0380938B0351
:1048F00008958DEB90E00E946A0F86E0E8E9F3E00E
:10490000DF011D928A95E9F710928D0310929203B0
:104910001092910308952F923F924F925F926F925F
:104920007F928F929F92AF92BF92CF92DF92EF923F
:10493000FF920F931F93DF93CF9300D00F92CDB7C9
:10494000DEB782B3837F82BB81B3837F81BB83B7B2
:10495000856083BF0E9489268B9A20E048EB5BE04C
:10496000CA010197F1F72150D9F78B980E94792459
:10497000789410E0DD24EE24FF24CC24C39439EC99
:10498000232E312C2E010894411C511C29E2822E29
:1049900025E0922E98E9A92E93E0B92E82E0682EA8
:1049A000712C680C791C01C0102F8091C3008130DC
:1049B00061F58091A103882341F580919F03909137
:1049C000A00301969093A00380939F030197815DBC
:1049D0009740DCF01092C3008BB78F778BBF0F909E
:1049E0000F900F90CF91DF911F910F91FF90EF905B
:1049F000DF90CF90BF90AF909F908F907F906F90FF
:104A00005F904F903F902F90089580914B058823A1
:104A100041F010924B0510928B030E94D713DD24B6
:104A200017C080918B03882321F00E94D713DD24C7
:104A300011C0DD2079F481EDE81687E0F80624F452
:104A40000894E11CF11C06C00E94A613DD24D39437
:104A5000EE24FF240E949A26DD2009F0A6CF08B696
:104A600000FE0DC0C8BE00918903002341F015303F
:104A700018F0012F055004C0C0928C0301C0012F13
:104A800080913C0584FF59C080919003882331F4C4
:104A900080919303882311F40E94CE100E94D01DB0
:104AA00080918C038823F9F0F40128E011922A9573
:104AB000E9F780918D038093290510922A05F5016D
:104AC00001900020E9F73197E859F340C301B5019F
:104AD000AF010E94932989E295E068E00E94F227E5
:104AE00010928C032AC080918E038130C9F482E039
:104AF00080938E03F40128E011922A95E9F789E268
:104B000095E068E00E94F22780918903882321F0D4
:104B10000E94B71B81E001C080E00E9423110DC0FC
:104B200080918F03823049F483E080938F038091DA
:104B30008903882311F40E94B71B8091680584FFC4
:104B400023C080919003882369F080919103909114
:104B50009203C9829B838A83C20163E00E94ED278E
:104B60001092900380919303882371F080919403B5
:104B700090919503E2E0E9839B838A83C20163E01D
:104B80000E94ED271092930380918E03823009F0EA
:104B90000BCF80919603909197039C012F5F3F4F1D
:104BA0003093970320939603883C910519F40E9453
:104BB000F228FACE293C31050CF4F6CE3092970358
:104BC00020929603F3E0F0938E03EECE1F93162F00
:104BD0000E943712682F81508C3B08F04DC08057DF
:104BE0008A3108F449C081E080938C03862F875670
:104BF000112309F1883038F410918D03862F0E941B
:104C00009C13182B21C0E8E9F3E001900020E9F79C
:104C10003197E859F340E63088F5862F8D58823178
:104C200028F4E62FF0E0ED52FE4F649188E993E01E
:104C30000E94831C23C0883050F410918D03862F6E
:104C40000E949C138095182310938D0317C0862F04
:104C50008D58823128F4E62FF0E0ED52FE4F64913A
:104C600088E993E00E94371CBC0197FD07C088E9E2
:104C700093E00E94511C02C080E001C081E01F91BE
:104C800008950F931F93182F082F01576623E9F0FB
:104C900061E00E94E6250A3160F521E0209390034F
:104CA000E12FF0E0EE0FFF1FE65BFE4F8591949140
:104CB00090939203809391030330D8F4209393034D
:104CC000909395038093940314C060E00E94E625BE
:104CD0000A3178F481E0809390031092920310924D
:104CE0009103033030F48093930310929503109254
:104CF000940381E01F910F9108950E9419050E946D
:104D0000130680918F03882319F482E080938F0328
:104D1000089585B7886085BF8BB780688BBF8BE4AB
:104D200080933D05809369058AE580933C058093D7
:104D3000680508951F93CF93DF930E9485056091C6
:104D40004E05635067FDC1C080914A05CCE0D0E0BC
:104D5000C81BD109CE5ADA4F809149058D3209F02E
:104D6000A1C0683009F0AFC083EC809331058AE5BB
:104D70008093C10010929E038881807629F0CE0135
:104D80000E941F24182F7BC09A8110923A058981B6
:104D9000882321F410923B0512E06AC0853019F493
:104DA00090934F0564C0863009F04BC08B818130F1
:104DB00069F489B78B7F89BF0E9485058AE097E0F7
:104DC00090934D0580934C0512E137C0823019F164
:104DD0008330F9F48A81882341F48AED96E0909338
:104DE0004D0580934C0514E028C0813041F48EEDD0
:104DF00096E090934D0580934C051CE11EC08230D7
:104E0000D9F48AEF96E090934D0580934C0510E11C
:104E100014C0813229F4CE010E94D723182F0DC06F
:104E2000823251F4CE010E94D723182F89B78460B3
:104E300089BF0E94860501C010E080E480939E0334
:104E40001EC0883021F411E081E595E013C089305F
:104E500019F4909351050BC08A3011F411E008C089
:104E60008B3029F48BE480933D058093690510E035
:104E70008AE395E090934D0580934C0509C01F3F50
:104E800039F4888187FD1E8180E880939E0306C0E7
:104E90008F81882319F48E81811708F0812F8093E8
:104EA000C20011C080919E0387FF0DC0CE010E94F9
:104EB00011248F3F21F48EE18093C10004C0882328
:104EC00011F01092C20010924E058091C10084FF33
:104ED00046C08091C2008F3F09F441C0182F89302D
:104EE00008F018E0811B8093C2008091310598E89A
:104EF000892780933105112321F120914C053091B0
:104F00004D0580919E0386FF0AC0912FF901A2E30F
:104F1000B5E084918D9331969150D9F708C0912FC7
:104F2000D901E2E3F5E08D9181939150E1F7C90158
:104F300001961150810F911D1F5F90934D05809335
:104F40004C0582E395E0612F0E94C203612F6C5FE4
:104F50006C3019F08FEF8093C2006093C10094E130
:104F600080B38C7031F49150D9F710924F051092A4
:104F700048050E948605DF91CF911F910895EF9219
:104F8000FF921F93CF93DF937C01162FEA010E94BB
:104F90008505888184FF05C0898198E889278983F0
:104FA00002C08AE58883AE014E5F5F4F212FFA0170
:104FB000D7018D917D01819321501216CCF3CA0146
:104FC000612F0E94C2031C5F18830E948605DF9137
:104FD000CF911F91FF90EF90089548E655E00E9411
:104FE000BF2708954CE355E00E94BF2708958D9890
:104FF000959A08958D9A959808959C018091C30083
:10500000882311F0833011F435952795C90108954F
:105010000E94C71B0E9424120E94521F0E943A1134
:105020000E943B1F0E941005F8940E941F051092D9
:10503000A00310929F031092A10308951F93182FAD
:105040000E94EA09112399F010E0812F0E94C70AFB
:105050001F5F1730D1F789B78E7F89BF89B78B7FE4
:1050600089BF89B78F7B89BF8D98959A02C08D9A29
:1050700095981F910895AF92BF92DF92EF92FF92A1
:105080000F931F93CF93DF938FEF8093C3000E9402
:10509000EA090E94DB0984E18A95F1F710E00E9499
:1050A000F508882319F41F5F1431C9F70E94B80866
:1050B0007C0100E0DD2491E0A92EB12CF701808174
:1050C000882371F1C0E0D0E095010C2E02C0220FC0
:1050D000331F0A94E2F7F70180818223E9F080E030
:1050E0006D2D4C2F0E94F912182F8C2F6D2D0E94C0
:1050F000F909882311F41B3219F40E94AC1D0CC06D
:10510000103119F40E94F61307C0183111F4016030
:1051100003C0133109F402602196C830D105A1F60D
:10512000D3940894E11CF11CF1E1DF1639F60E94DA
:10513000E7080E94C008002319F00F5F0093C30026
:105140006091C300643021F48CE090E06FEF04C004
:10515000643028F48CE090E00E94D82B06C08CE0EC
:1051600090E00E94D02B8093C3008A98929A20915D
:10517000C3002430D0F080E090E0829907C092FD17
:1051800009C08F5F863060F021E00AC0829B09C0B1
:1051900092FD02C080E004C08F5F863008F020E0FE
:1051A00090B3223050F72093C3008091C300815008
:1051B000823038F40E94082881E00E941E280E9454
:1051C0008B248091C300882311F0833071F70E94F3
:1051D000082882E30E94ED0780E00E941E280E94BA
:1051E0002920E3CF0E9446080E945F0F0895629F26
:1051F000D001739FF001829FE00DF11D649FE00DCF
:10520000F11D929FF00D839FF00D749FF00D659F2F
:10521000F00D9927729FB00DE11DF91F639FB00D2E
:10522000E11DF91FBD01CF0111240895991B79E0FB
:1052300004C0991F961708F0961B881F7A95C9F726
:105240008095089597FB092E07260AD077FD04D094
:1052500049D006D000201AF4709561957F4F0895CB
:10526000F6F7909581959F4F0895A1E21A2EAA1BFB
:10527000BB1BFD010DC0AA1FBB1FEE1FFF1FA21706
:10528000B307E407F50720F0A21BB30BE40BF50B03
:10529000661F771F881F991F1A9469F7609570958C
:1052A000809590959B01AC01BD01CF01089597FBBE
:1052B000092E05260ED057FD04D0D7DF0AD0001CDA
:1052C00038F450954095309521953F4F4F4F5F4FA3
:1052D0000895F6F790958095709561957F4F8F4F63
:1052E0009F4F0895AA1BBB1B51E107C0AA1FBB1FFC
:1052F000A617B70710F0A61BB70B881F991F5A9562
:10530000A9F780959095BC01CD010895FC0141500D
:10531000504030F001900616D1F73197CF01089533
:10532000882799270895FB01DC0102C001900D92A6
:1053300041505040D8F708956817790768F4FB0189
:10534000DC01E40FF51FA40FB51F02C002900E92FE
:1053500041505040D8F708950C949329FB019F01C8
:10536000E8944230C4F04532B4F44A3029F497FB53
:105370001EF4909581959F4F642F77270E94722984
:10538000805D8A330CF0895D8193CB010097A1F792
:1053900016F45DE251931082C9010C94FB2BAEE030
:1053A000B0E0E5EDF9E20C94A32C0D891E8986E0AE
:1053B0008C831A8309838FEF9FE79E838D839E01E1
:1053C000275E3F4FCE0101966F89788DA9010E941B
:1053D000F3292F813885020F131FF80110822E96B2
:1053E000E4E00C94BF2CABE0B0E0E9EFF9E20C9400
:1053F000952C3C012B015A01FC01178216828381F6
:1054000081FD03C06FEF7FEFC6C19AE0892E1E01B8
:105410000894211C311CF3012381F20123FD8591A5
:1054200023FF81912F01882309F4B2C1853239F419
:1054300023FD859123FF81912F01853229F490E08E
:10544000B3010E940B2CE7CF982FFF24EE24992460
:10545000FFE1FF15D0F09B3269F09C3228F49032C6
:1054600059F0933291F40EC09D3249F0903369F4B3
:1054700041E024C052E0F52A84E0F82A28C098E0F0
:10548000F92A25C0E0E1FE2A22C0F7FC29C0892FB5
:1054900080538A3070F4F6FE05C0989C902C11243D
:1054A000980E15C0E89CE02C1124E80EF0E2FF2ACB
:1054B0000EC09E3229F4F6FC6BC140E4F42A07C00A
:1054C0009C3619F450E8F52A02C0983649F4F201E6
:1054D00023FD959123FF91912F01992309F0B8CFD6
:1054E000892F8554833018F08052833038F444E09B
:1054F00050E0A40EB51E5FE359830FC0933631F020
:10550000933779F0933509F056C020C0F5018081BA
:10551000898342E050E0A40EB51E610101E010E075
:1055200012C0F501C080D180F6FC03C06FEF7FEFA1
:1055300002C0692D70E042E050E0A40EB51EC60125
:105540000E94F02B8C015FE7F52214C0F501C080AA
:10555000D180F6FC03C06FEF7FEF02C0692D70E0D1
:1055600042E050E0A40EB51EC6010E94E52B8C015E
:1055700050E8F52AF3FE07C01AC080E290E0B301BC
:105580000E940B2CEA948E2D90E008171907A8F3BF
:105590000EC0F601F7FC8591F7FE81916F0190E056
:1055A000B3010E940B2CE110EA9401501040011548
:1055B000110579F7EAC0943611F0993669F5F7FECE
:1055C00008C0F501208131814281538184E090E05F
:1055D0000AC0F501808191819C01442737FD4095E7
:1055E000542F82E090E0A80EB91E9FE6F92257FFE3
:1055F00009C050954095309521953F4F4F4F5F4FD3
:10560000E0E8FE2ACA01B901A1012AE030E00E94C7
:10561000372CD82ED21840C0953729F41F2D1F7E65
:105620002AE030E01DC01F2D197F9F3661F09037B2
:1056300020F4983509F0ACC00FC0903739F0983796
:1056400009F0A6C004C028E030E00AC0106114FDD3
:10565000146020E130E004C014FD166020E132E067
:1056600017FF08C0F501608171818281938144E058
:1056700050E008C0F50180819181BC0180E090E09C
:1056800042E050E0A40EB51EA1010E94372CD82E96
:10569000D2188FE7F82EF122F6FE0BC05EEFF5224E
:1056A000D91438F4F4FE07C0F2FC05C08FEEF822DE
:1056B00002C01D2D01C0192DF4FE0DC0FE01ED0D1F
:1056C000F11D8081803319F499EEF92208C01F5F23
:1056D000F2FE05C003C08F2D867809F01F5F0F2DE5
:1056E000F3FC14C0F0FE0FC01E1510F09D2C0BC073
:1056F0009D2C9E0C911A1E2D06C080E290E0B301F5
:105700000E940B2C1F5F1E15C0F304C01E1510F461
:10571000E11A01C0EE2404FF0FC080E390E0B30162
:105720000E940B2C02FF1DC001FD03C088E790E022
:105730000EC088E590E00BC0802F867891F001FFC5
:1057400002C08BE201C080E2F7FC8DE290E0B30181
:105750000E940B2C06C080E390E0B3010E940B2C4A
:105760009A94D914C0F3DA94F101ED0DF11D808102
:1057700090E0B3010E940B2CDD20A9F706C080E267
:1057800090E0B3010E940B2CEA94EE20C1F743CEC7
:10579000F30166817781CB012B96E2E10C94B12C69
:1057A000E199FECF9FBB8EBBE09A99278DB30895F8
:1057B000262FE199FECF9FBB8EBB2DBB0FB6F89471
:1057C000E29AE19A0FBE01960895FC01059061509E
:1057D00070400110D8F7809590958E0F9F1F089507
:1057E000FC016150704001900110D8F780959095B0
:1057F0008E0F9F1F0895DC01FC01672F71917723A5
:10580000E1F7329704C07C916D9370836291AE177B
:10581000BF07C8F308950F931F93CF93DF938C01B5
:10582000EB018B8181FF1BC082FF0DC02E813F8168
:105830008C819D812817390764F4E881F9810193EF
:10584000F983E88306C0E885F985802F0995892BBF
:1058500031F48E819F8101969F838E8302C00FEF6A
:105860001FEFC801DF91CF911F910F910895FA01A9
:10587000AA27283051F1203181F1E8946F936E7F8F
:105880006E5F7F4F8F4F9F4FAF4FB1E03ED0B4E080
:105890003CD0670F781F891F9A1FA11D680F791FC1
:1058A0008A1F911DA11D6A0F711D811D911DA11DD2
:1058B00020D009F468943F912AE0269F11243019E2
:1058C000305D3193DEF6CF010895462F4770405D7D
:1058D0004193B3E00FD0C9F7F6CF462F4F70405D2C
:1058E0004A3318F0495D31FD4052419302D0A9F787
:1058F000EACFB4E0A6959795879577956795BA9581
:10590000C9F700976105710508959B01AC010A2E46
:1059100006945795479537952795BA95C9F7620F1D
:10592000731F841F951FA01D08952F923F924F92C1
:105930005F926F927F928F929F92AF92BF92CF921F
:10594000DF92EF92FF920F931F93CF93DF93CDB728
:10595000DEB7CA1BDB0B0FB6F894DEBF0FBECDBFA0
:1059600009942A88398848885F846E847D848C8471
:105970009B84AA84B984C884DF80EE80FD800C817A
:105980001B81AA81B981CE0FD11D0FB6F894DEBF5D
:0C5990000FBECDBFED010895F894FFCFCD
:10599C00080701FF0101FF78117B115E11006525DD
:1059AC0063002C200020286C617965723D00206416
:1059BC00656661756C743D00206D617070696E6711
:1059CC003D002900271E1F2021222324252629C41F
:1059DC00092D002C003D00031F061FDC1E901F9399
:1059EC001F761F02050000002523252301412641B7
:0459FC00265AFFFF29
:00000001FF
