:100000000C9499030C94B6030C94D1030C94B6038E
:100010000C94110D0C941D0C0C94E40C0C948A0C93
:100020000C94B70C0C94F00B0C945D0C0C949D0B81
:100030000C94B6030C94B6030C94B6030C94B6035C
:100040000C94B6030C94B6030C94B6030C94B6034C
:100050000C94B6030F1DFB1C2B1DFF1C011D031D63
:10006000071D291D0B1D0D1D091D171D311D111DFE
:10007000351D391D421D3B1D3B1D3B1D3B1D3B1DC1
:100080003B1D3B1D3B1D3B1D271D251D331D151D08
:10009000371D3D1DFD1C3B1D3B1D3B1D3B1D3B1DE1
:1000A0003B1D3B1D3B1D3B1D3B1D3B1D3B1D3B1D90
:1000B0003B1D3B1D3B1D3B1D3B1D3B1D3B1D3B1D80
:1000C0003B1D3B1D3B1D3B1D3B1D191D211D1D1DCA
:1000D000051D131D2D1D3B1D3B1D3B1D3B1D3B1DCC
:1000E0003B1D3B1D3B1D3B1D3B1D3B1D3B1D3B1D50
:1000F0003B1D3B1D3B1D3B1D3B1D3B1D3B1D3B1D40
:100100003B1D3B1D3B1D3B1D3B1D1B1D231D1F1D83
:100110002F1D000001000800400000010004000045
:1001200001000800200040008000000100040403DA
:1001300009041C03770069006E006B0065007900FC
:100140006C006500730073002E006B0072001003DA
:1001500070007300320061007600720055001201D9
:10016000100100000008424231E1000101020001DB
:10017000FEFEF8F86C6C68686D6D69696B6B67679B
:10018000FEF88E8D8E8D8E8D8E8D8E8D8E8D8E8DBC
:100190008E8D3939010101010101010101010101C6
:1001A0000101010100000000FC001C322123242B6E
:1001B0003433433B424B3A31444D152D1B2C3C2AE2
:1001C0001D22351A161E26252E363D3E46455A76E8
:1001D000660D294E55545B5D5D4C520E41494A589F
:1001E0000506040C030B830A010978077C7E7C70EA
:1001F0006C7D71697A746B7275774A7C7B795A6908
:10020000727A6B73746C757D7071612F00141211AA
:100210001F145911270000373F5E48103A38302824
:1002200020184D153B34233221502B404B1C4322C8
:100230001D0000F1F2370F08101820283038404810
:1002400050575F6D0051136A6467270000006362B6
:100250005F00000000000000000000008A01210291
:10026000230224022502260227022A02B500B60034
:10027000B700CD00E200E900EA0083019201940199
:1002800000000000000000000000919066676869AF
:100290006A6B6C6D6E6F7071727385868788898AE0
:1002A0008B8C8D8E8F9293949596979846480048A4
:1002B0008E8D007172738F006A6B6E6D6546494A50
:1002C0004B4C4D4E52504F51545871727374757659
:1002D0007778797A7B7C7D7E7F8081828384858636
:1002E0008788898A8F00494C4A4D4B4E6A6E65500B
:1002F0004F5251540073656C656374206D6F646573
:1003000000313A4B6579204D617070696E6700323B
:100310003A4D6163726F00333A746F67676C6520A2
:100320004C617A7920464E00343A746F67676C6589
:1003300020536D617274204B657900353A457869B8
:100340007400393A626F6F74206D6170706572006D
:10035000676F6F64206279657E00626F6F74206DD5
:10036000617070657220737461727421004D6163F5
:10037000726F00313A53656C656374204D6163722E
:100380006F20496E64657800323A436C6561722073
:100390004D6163726F00333A4578697400393A43AE
:1003A0006C65617220416C6C00313A746F67676CE8
:1003B0006500363A4261636B004B6579204D617090
:1003C00070657200313A4368616E6765204C6179EF
:1003D000657200323A53656C656374204B65792011
:1003E0002D20696E707574206B6579636F6465008C
:1003F000333A5361766520616E64204578697400F4
:10040000343A4578697420776974686F757420533D
:100410006176696E6700393A526573657420746F4E
:100420002044656661756C74202843757272656E30
:1004300074204C617965722900707332617672554F
:100440000063686F6F7365206C6179657220283175
:100450003A206E6F726D616C2C20323A20464E2C21
:1004600020333A20464E32292063757272656E74CD
:100470003D200073656C656374206B65792028618D
:100480006E79206B657920796F752077616E74299C
:100490002000696E707574206B6579636F646520E8
:1004A000286D7573742033206E756D6265727329C3
:1004B000203A200053617665202620457869742C07
:1004C000207468616E6B20796F752E0045786974B1
:1004D00020776974686F757420536176696E672C34
:1004E0002073656520796F75206C617465722E00CC
:1004F000526573657420746F2064656661756C74F1
:100500002063757272656E74206C61796572003E4D
:100510003E20006E6F7468696E67005361766520D7
:1005200063757272656E74206C61796572004C6FD0
:1005300061642063757272656E74206C6179657296
:1005400000736176696E672E2E2E00636F6C2C200F
:10055000726F77203A2000696E707574206D616348
:10056000726F20696E646578202830317E31322CBC
:100570002063616E63656C3A2030302C206D75739A
:10058000742032206E756D6265727329203A2000E6
:1005900073656C65637420696E64657820283031FA
:1005A0007E31322C2063616E63656C3A20303029D5
:1005B000203A2000696E707574206B657920286D73
:1005C0006178203234206B6579732C2073746F70DE
:1005D000203A20707265737320455343206475720E
:1005E000696E672031207365632900696E76616CDE
:1005F0006964206E756D6265722C20696E70757409
:1006000020616761696E2E00636C6561722E2E2E0B
:100610000020006D6163726F006C617A7920464E34
:1006200000736D617274206B6579003A006F6E0023
:100630006F66660005010906A101050719E029E7B3
:100640001500250195087501810295017508810342
:100650000507190029A495067508150026A4008130
:100660000095057501050819012905910295017587
:10067000039103C005010902A10185030901A1003D
:100680000509190129051500250175019505810246
:100690007503950181030501093009311581257F15
:1006A00075089502810609381581257F35004500BA
:1006B000750895018106050C0A38021581257F759C
:1006C0000895018106C0C005010980A101850215B8
:1006D0000125B7190129B7751095018100C0050CD6
:1006E0000901A10185011501269C0219012A9C021C
:1006F000751095018100C009023B0002010080FADB
:100700000904000001030101000921010100012287
:1007100040000705810308000A09040100010300E5
:10072000000009210101000122830007058303085D
:10073000000A11241FBECFE5D8E0DEBFCDBF10E018
:10074000A0E6B0E0EEEBF4E502C005900D92AA3C05
:10075000B107D9F715E0AAECB0E001C01D92A636AA
:10076000B107E1F70E94D9250C945D2A0C94000092
:10077000A82FB92F80E090E041E050EA609530E08A
:1007800009C02D9182279795879510F0842795278A
:10079000305EC8F36F5FA8F30895EADF8D939D93F1
:1007A0000895CF93CFB7CF93C395839BE9F7839BEE
:1007B0000EC0839B0CC0839B0AC0839B08C0839B95
:1007C00006C0C091B003C395C093B003A3C0DF932C
:1007D000C091AF03DD27C954DC4F839B02C0DF917A
:1007E000E6CF2F930F931F9300B32FEF03FB20F956
:1007F0004F933F9310B34FEF012703FB21F93BE0E9
:1008000031C04E7F012F10B3216028C0102F4D7FC3
:100810002260000000B329C04B7F2460012F00003C
:1008200010B32BC010B3477F28602AC04F7E00B39F
:1008300020612CC04F7D10B320622FC04F7B00B3CE
:10084000206432C0422700B349934FEF00001027C5
:1008500013FB20F910B31C70C9F1297F91F2012715
:1008600003FB21F900B3237F89F2315058F110279F
:1008700013FB22F910B3277E79F2012703FB23F93A
:100880002F7C81F200B3102713FB24F92F7971F22A
:1008900000C010B3012703FB25F92F7359F200C0E4
:1008A00000B3102713FB26F9223040F200C010B32A
:1008B000012703FB27F9243028F64F77206810B36F
:1008C0000000F9CF10E81ABF002719C03B5031953E
:1008D000C31BD04010E81ABF0881033CF9F00B3469
:1008E000E9F02091AD031981110F1213EDCF4A8168
:1008F000441F093641F10D3211F0013E29F70093F2
:10090000B5033F914F911F910F912F91DF91CAB77E
:10091000C7FD4ACFCF91CFBFCF9118952091B50396
:10092000222379F31091B3031123C1F53430C2F1BE
:100930003093B3032093AE031091AF033BE0311B20
:100940003093AF032DC00091B30301303CF50AE5AD
:100950004F7049F43091660034FD24C00093660066
:10096000C6E9D3E023C0433049F03091A10334FD00
:1009700019C00093A103C2EAD3E018C03091CD039F
:1009800034FD10C00093CD03CEECD3E00FC027950B
:10099000A8F45150A9F4220F0000F9CF4AE503C092
:1009A00042ED01C0432FC4E1D0E032E011B31C603E
:1009B000939A11BB02B320E41CE05F93012756E039
:1009C00002BB279520F4515021F4220FF9CF0127C3
:1009D00056E000003B5A02BBD0F2279528F4515054
:1009E00029F4220F0000F9CF012756E0279502BB1A
:1009F00020F4515021F4220FF9CF012756E029911C
:100A0000332302BB21F6037F1091B403110FC651AB
:100A1000D04002BB11F01093AD0310E81ABF08607C
:100A200011B3137F402F437F5F9100C000C002BB12
:100A300011BB42BB66CF81B3836181BB82B38C7E25
:100A400082BB8E9A969808958091E00090E0BC0158
:100A50006170707080FF02C0909801C0909AAC01E4
:100A60004270507081FF02C0919801C0919A88EE47
:100A700093E02CE231E0F9013197F1F70197D9F7D2
:100A8000672B11F0909A01C09098452B11F0919A24
:100A90000895919808958093E00008958091E00072
:100AA00008951092CA0008958091E00090E080FFC0
:100AB00002C0909A01C09098AC014270507081FFC2
:100AC00002C0919A01C091982091E10082FF04C078
:100AD000969A2223C9F404C096982130A9F409C03B
:100AE00081E08093E100452B11F485E007C084E0AC
:100AF00005C01092E100452B21F483E08093CF00E4
:100B0000089582E08093CF0008952223A9F1809177
:100B1000D4008330C1F484EF91E09093DC008093A3
:100B2000DB008091DE008C3038F58F5F8093DE0033
:100B30009FEF899FC00111246CE070E00E94C026E5
:100B40006093DD0008958430B9F484EF91E09093D0
:100B5000DC008093DB008091DE00882369F0815007
:100B60008093DE009FEF899FC00111246CE070E04C
:100B70000E94C0266093DD0008952091630030E05C
:100B8000AC01429FC001439F900D529F900D1124D4
:100B90006FEF70E00E94C026CB010895089508957C
:100BA0000E949A0B08958091DF00813059F1809165
:100BB000D9009091DA0068E070E00E94C026CB0175
:100BC000909581959F4F81509F4F0E94BD0590E069
:100BD0000E949A0B8091D9009091DA00885F97402B
:100BE00044F080E090E00E949A0B949881E080931A
:100BF000DF008091D9009091DA0001969093DA009D
:100C00008093D90008959091D400992319F480E03D
:100C100090E010C0913049F41092DA001092D9009F
:100C20001092D8001092D7000895923031F480913C
:100C3000630090E00E949A0B0895892F83508230C0
:100C4000A0F483E08093DE00943019F481E0809377
:100C5000DE008091DE009FEF899FC00111246CE0CF
:100C600070E00E94C0266093DD0008950E94540544
:100C70000E9403060895809163008E31A1F089518E
:100C8000809363008E3118F48EE18093630080912D
:100C9000D400823011F40E94030681E090E090932A
:100CA000D3008093D2000895809163008F3FA9F014
:100CB00090E049968F3F910511F00CF08FEF8093F3
:100CC00063008091D400823011F40E94030681E019
:100CD00090E09093D3008093D200089590989198DB
:100CE000969880E090E00E949A0B949881E080931F
:100CF000DF0008950E947213882391F48091D4003C
:100D000090E0019665E070E00E94C0268093D400D8
:100D100081E090E09093D3008093D2000E9403067C
:100D200008951F938091CA00882309F499C10E94F5
:100D30007213882319F00E94D30592C10E94C01D2E
:100D4000182F0E94971D882311F042E004C0112340
:100D500009F445C041E08091CB009091CC00019610
:100D60009093CC008093CB00209160003091610083
:100D700028173907DCF58091CD009091CE000196BF
:100D80009093CE008093CD00893C91057CF18091B9
:100D9000E0009091620080FF09C0913021F482B39D
:100DA0004095482307C082B3482B09C0913021F4F5
:100DB00082B3482B42BB08C082B34095482342BB54
:100DC0001092CC001092CB008091620091E08927B4
:100DD000809362001092CE001092CD0007C0109256
:100DE000CE001092CD0081E0809362002091CF0070
:100DF000222311F18091D0009091D100019690931F
:100E0000D1008093D00085369105D4F0253059F07B
:100E1000233049F0243011F0223011F4919804C0AD
:100E20008091E00081FD919A1092D1001092D00043
:100E300021502093CF0004C01092D1001092D00016
:100E40008091D2009091D3001816190624F50196CE
:100E50009093D3008093D200885E9340E1F4109287
:100E6000D3001092D2006091D4008091D500681711
:100E700031F06093D5008BE090E00E946029609192
:100E800063008091D600861731F06093D60089E028
:100E900090E00E9460298091D400813009F059C00F
:100EA0008091D7009091D800009761F48091D9008B
:100EB0009091DA0068E070E00E94C026CB010E94A9
:100EC000BD0513C082309105A1F48091D9009091A5
:100ED000DA0068E070E00E94C026CB019095819511
:100EE0009F4F81509F4F0E94BD0590E00E949A0B3A
:100EF0000EC08130910511F0039749F48091D9001B
:100F00009091DA0001969093DA008093D900809155
:100F1000D9009091DA00885F97408CF01092DA0047
:100F20001092D9008091D7009091D800019664E08A
:100F300070E00E94C0269093D8008093D7008091E3
:100F4000D9009091DA0001969093DA008093D9004D
:100F500087C08330D1F58091DB009091DC00009751
:100F600031F001979093DC008093DB0028C0209142
:100F7000DD002223F1F08091D9009091DA000196F2
:100F80009093DA008093D9000897CCF01092DA00A1
:100F90001092D90021502093DD008FEF90E0821B4A
:100FA00091096BEE7FEF0E94C026645F6093DE00C4
:100FB00006C01092DE001092DA001092D9008091E3
:100FC000DD0090E00E94BD053DC0843009F03EC0C8
:100FD0008091DB009091DC00009731F001979093B5
:100FE000DC008093DB0029C02091DD002F3FF1F071
:100FF0008091D9009091DA0001969093DA00809365
:10100000D9000897D4F01092DA001092D9002F5F1F
:101010002093DD008FEF90E0821B91096BEE7FEF54
:101020000E94C026645F6093DE0007C08CE080935E
:10103000DE001092DA001092D9008091DD0090E07D
:101040000E94BD0590E00E949A0B0AC01092DA003F
:101050001092D90083E090E09093D8008093D7005D
:101060001F91089589E090E00E94582980936300C1
:101070008093D6008BE090E00E9458298093D400A2
:101080008F3F11F41092D4008091D4008093D5004A
:101090000E94030680916000909161000E94882563
:1010A000909361008093600008958091CA00882326
:1010B00061F481E08093CA000E940F0A88E00E94D8
:1010C0003D0B0E94820B0E943208089580E090E060
:1010D000FC01EC51FF4F1082FC01EB50FF4F1082DE
:1010E000019681319105A1F787E0809306018AE09E
:1010F000809307010895E4EEF0E0119280E0E53F6F
:10110000F807D9F7089581E080936500E5EFF0E0F6
:101110008081882319F01092650005C0319681E026
:10112000E630F807A9F781E080936400E4EEF0E090
:101130008081882319F0109264000895319680E030
:10114000E53FF807A9F7089580916500089580911B
:101150006400089585EF90E0089520E030E0F90103
:10116000EC51FF4FD901AB50BF4F8C9180832F5F63
:101170003F4F2131310599F7089584EE90E00895AD
:101180000E94830880916500882311F01092E3008B
:101190000895AF92BF92CF92DF92EF92FF920F939A
:1011A0001F93CF93DF93DD2400E010E081E0A82EB1
:1011B000B12C802F0E94C909C501002E02C0880FE2
:1011C000991F0A94E2F7E82EC82EC094C5EFD0E02C
:1011D000FF248F2D0E94D709282F98818E2D8923D7
:1011E00019F0222329F008C0222331F09E2901C0E2
:1011F0009C219883DD24D394F394219681E1F81601
:1012000041F70F5F1F4F0830110599F6DD2019F0E7
:101210001092070107C080910701843618F48F5F90
:101220008093070120E090910701809106019817B3
:1012300009F421E0822FDF91CF911F910F91FF9050
:10124000EF90DF90CF90BF90AF9008950E94C908B3
:101250000895CF92DF92EF92FF920F931F93CF9357
:10126000DF931091E300112309F06EC025EFE22E09
:1012700020E0F22E00E091E0C92ED12CF701808110
:10128000882309F44FC0C0E0D0E096010C2E02C0C4
:10129000220F331F0A94E2F7F70180818223E9F1DC
:1012A0008091E200602F4C2F0E940D130E94C71105
:1012B0008E3F69F40E94171E882339F080916400E4
:1012C000882311F181E08093E30011E03DC0883F65
:1012D00061F40E94171E882399F18091640088238D
:1012E00099F082E08093E3002BC0863F81F40E9456
:1012F000171E882339F080916400882329F083E049
:101300008093E30013E020C01091E2001DC08B3FEA
:1013100021F48091E2008230B9F02196C830D105E5
:1013200009F0B3CF0F5F0894E11CF11C013109F003
:10133000A5CF0E94C01D882329F082E08093E2009F
:1013400012E002C01092E200812FDF91CF911F9135
:101350000F91FF90EF90DF90CF9008950E94BF090A
:101360000E9466080895813011F090E006C090E078
:10137000613009F091E081E09827892F08958FEF7F
:1013800087BB88BB1ABA14BA8BBB85BB8F98979A58
:10139000089521E030E002C0220F331F8A95E2F762
:1013A00027BB209528BB84E18A95F1F70895282F63
:1013B000883058F449B381E090E002C0880F991F4B
:1013C0002A95E2F74095482316C0682F70E08031D7
:1013D00020F443B38FE090E003C040B387E190E096
:1013E000861B970B21E030E002C0220F331F8A9545
:1013F000E2F740954223842F0895089583B7887FAC
:10140000826083BF12BE89B7816089BF1092880352
:101410001092890310928A0310928B0308958EB55F
:10142000887F83608EBD1DBC1CBC89B7846089BF6A
:10143000089585B5887F846085BD14BC89B78064B4
:1014400089BF109290031092910310929203109210
:101450009303089580E090E0FC01EE0FFF1FE85F2A
:10146000FE4F11821082019688309105A9F70E94E3
:10147000FE090E940F0A0E94190A7894089593B7F2
:10148000987F982B93BF08959EB5987F982B9EBD0B
:10149000089595B5987F982B95BD089583B7E82F4B
:1014A000F0E0E770F070EE0FFF1FEE5EFE4F25914B
:1014B0003491C90108958EB5E82FF0E0E770F0701F
:1014C000EE0FFF1FEE5EFE4F25913491C901089586
:1014D00085B5E82FF0E0E770F070EE0FFF1FE25ED9
:1014E000FE4F25913491C9010895883040F4E82FCA
:1014F000F0E0EE0FFF1FE85FFE4F718360830895F9
:10150000883040F4E82FF0E0EE0FFF1FE85FFE4F59
:10151000118210820895EF92FF920F931F93CF9341
:10152000DF93EC0112B710928C0310928D0310928E
:101530008E0310928F0383B7E82FF0E0E770F0700E
:10154000EE0FFF1FEE5EFE4F2591349140E050E01C
:1015500060E07BE187EB90E00E94D326B901CA01ED
:10156000693B2DE8720726E0820720E09207A0F48D
:1015700037E2C131D30780F49E0140E050E00E9481
:10158000952628EE33E040E050E00E94D326C901C2
:10159000DA01BC01CD0121C028EE33E040E050E08B
:1015A0000E94D326CA01B9019E0140E050E00E948A
:1015B000952613C080918C0390918D03A0918E038A
:1015C000B0918F0385B78F7885BF85B7806885BF59
:1015D000889585B78F7785BF08C09B01AC01210F27
:1015E000311D411D511D79018A0120918C033091DB
:1015F0008D0340918E0350918F0382B790E0A0E05D
:10160000B0E0542F432F322F2227822B932BA42B71
:10161000B52B8E159F05A007B10760F2DF91CF9122
:101620001F910F91FF90EF900895109288031092F0
:10163000890310928A0310928B03089520918803E6
:101640003091890340918A0350918B03B901CA01FB
:1016500008951092900310929103109292031092A9
:101660009303089520919003309191034091920348
:1016700050919303B901CA010895893031F48FB5AF
:1016800082608FBD8FB58E7F0AC08A3019F48FB506
:10169000826002C08FB58D7F8FBD8FB581608FBD99
:1016A0001BBC1ABC19BC18BC08952FB52E7F2FBDCA
:1016B0002FB522602FBD2EB528602EBD2EB520611E
:1016C0002EBD97BD86BD1BBC1ABC19BC18BC0895A5
:1016D0008FB58D7F8FBD8FB58E7F8FBD8FB58F7787
:1016E0008FBD8FB58F7B8FBD8FB58F7D8FBD8FB534
:1016F0008F7E8FBD08958FB580688FBD8FB58F7B2E
:101700008FBD08958FB580628FBD8FB58F7E8FBDE1
:1017100008958FB58F778FBD8FB58F7B8FBD08955F
:101720008FB58F7D8FBD8FB58F7E8FBD08959BBD8B
:101730008ABD089599BD88BD08951F920F920FB676
:101740000F9211242F933F934F935F936F937F9347
:101750008F939F93AF93BF93EF93FF9380918803F1
:1017600090918903A0918A03B0918B030196A11DEA
:10177000B11D8093880390938903A0938A03B0934B
:101780008B0380918C0390918D03A0918E03B09177
:101790008F030196A11DB11D80938C0390938D033F
:1017A000A0938E03B0938F0380910801909109015B
:1017B000892B29F0E0910801F09109010995FF9129
:1017C000EF91BF91AF919F918F917F916F915F91B9
:1017D0004F913F912F910F900FBE0F901F90189532
:1017E0001F920F920FB60F9211242F933F934F9396
:1017F0005F936F937F938F939F93AF93BF93EF9379
:10180000FF9380910A0190910B01892B29F0E091BF
:101810000A01F0910B010995FF91EF91BF91AF91F2
:101820009F918F917F916F915F914F913F912F91F8
:101830000F900FBE0F901F9018951F920F920FB62A
:101840000F9211242F933F934F935F936F937F9346
:101850008F939F93AF93BF93EF93FF9380919003E8
:1018600090919103A0919203B09193030196A11DD1
:10187000B11D8093900390939103A0939203B09332
:1018800093038091120190911301892B29F0E0912B
:101890001201F09113010995FF91EF91BF91AF9162
:1018A0009F918F917F916F915F914F913F912F9178
:1018B0000F900FBE0F901F9018951F920F920FB6AA
:1018C0000F9211242F933F934F935F936F937F93C6
:1018D0008F939F93AF93BF93EF93FF9380911601E4
:1018E00090911701892B29F0E0911601F0911701D1
:1018F0000995FF91EF91BF91AF919F918F917F914A
:101900006F915F914F913F912F910F900FBE0F906C
:101910001F9018951F920F920FB60F9211242F93BC
:101920003F934F935F936F937F938F939F93AF9367
:10193000BF93EF93FF9380910C0190910D01892B40
:1019400029F0E0910C01F0910D010995FF91EF91C3
:10195000BF91AF919F918F917F916F915F914F91C7
:101960003F912F910F900FBE0F901F9018951F92CF
:101970000F920FB60F9211242F933F934F935F93C3
:101980006F937F938F939F93AF93BF93EF93FF9347
:1019900080910E0190910F01892B29F0E0910E01A9
:1019A000F0910F010995FF91EF91BF91AF919F9138
:1019B0008F917F916F915F914F913F912F910F90F8
:1019C0000FBE0F901F9018951F920F920FB60F9297
:1019D00011242F933F934F935F936F937F938F9334
:1019E0009F93AF93BF93EF93FF93809110019091DA
:1019F0001101892B29F0E0911001F0911101099555
:101A0000FF91EF91BF91AF919F918F917F916F91D6
:101A10005F914F913F912F910F900FBE0F901F90AC
:101A200018951F920F920FB60F9211242F933F9388
:101A30004F935F936F937F938F939F93AF93BF93D6
:101A4000EF93FF938091140190911501892B29F058
:101A5000E0911401F09115010995FF91EF91BF916B
:101A6000AF919F918F917F916F915F914F913F9136
:101A70002F910F900FBE0F901F9018958093190112
:101A8000F894809195038F7E8093950380919503C0
:101A900088608093950378940895F89480919503D5
:101AA0008B7F8093950378948091180108958FEC33
:101AB00082BF80919403833000F58B98939A809134
:101AC000950380FF23C0829BA3C080919403813043
:101AD00031F0813040F0823009F0F6C006C08399C1
:101AE00002C08DE096C082E094C08091950383FF90
:101AF000EBC093988B9A84E28CC0809194038A31D6
:101B000008F079C08091950380FD08C0809195030D
:101B10008160809395038A98929A0895829B76C0FB
:101B200080919403873140F4803118F58D3061F055
:101B30008F3009F055C00CC08831E1F1883158F17F
:101B4000893109F04DC049C0809195038D7F4DC00A
:101B5000809195038B7F80939503839B05C080E8DC
:101B60008093180181E014C010921B01109218019B
:101B700037C080911801869580931801839B30C0EF
:101B80008091180180688093180180911B018F5FFC
:101B900080931B0125C0839B05C080911B018F5F33
:101BA00080931B0180911B0180FD1AC080919503D9
:101BB000826010C0839905C08091950382608093F4
:101BC00095038091950381FD0BC093988B9A80912A
:101BD000950384608093950303C08B98939A6CC09F
:101BE00092988A9A809195038E7F80939503809135
:101BF00094038F5F0EC0809194038F3208F064C00D
:101C00008091950380FF10C0829906C08B98939AAB
:101C100081E0809394030895809195038E7F809353
:101C2000950392988A9A0895809195038160809394
:101C300095038A98929A809194038C3228F4853285
:101C400080F48432E1F507C08D3299F18D32E8F0ED
:101C50008E32A9F531C08091190180931A0110923A
:101C60001B0180911A0180FF08C08B98939A809184
:101C70001B018F5F80931B0102C093988B9A809108
:101C80001A01869580931A011AC080911B0180FF6A
:101C900003C093988B9A02C08B98939A8091950376
:101CA000877F80939503809195038061809395034E
:101CB00006C08B98939A03C0109294030895809164
:101CC00094038F5F8093940308951092940381E1AD
:101CD000809395038A98929A8B98939A0E94FE0912
:101CE00082E00E943F0A80E067E57DE00E94750A7D
:101CF0008FEC82BF089585B7886085BF8BB78068F9
:101D00008BBF8BE48093A2038093CE038AE58093FC
:101D1000A1038093CD0308951F93CF93DF930E9477
:101D2000CE056091B303635067FDC1C08091AF03DE
:101D3000CCE0D0E0C81BD109C954DC4F8091AE0380
:101D40008D3209F0A1C0683009F0AFC083EC8093F8
:101D500096038AE58093660010921C018881807644
:101D600029F0CE010E94DA22182F7BC09A811092AE
:101D70009F038981882321F41092A00312E06AC096
:101D8000853019F49093B40364C0863009F04BC0D9
:101D90008B81813069F489B78B7F89BF0E94CE0522
:101DA0008EE591E09093B2038093B10312E137C0C6
:101DB000823019F18330F9F48A81882341F48EE26C
:101DC00091E09093B2038093B10314E028C0813076
:101DD00041F482E391E09093B2038093B1031CE15C
:101DE0001EC08230D9F48EE491E09093B2038093C8
:101DF000B10310E114C0813229F4CE010E94922275
:101E0000182F0DC0823251F4CE010E949222182F59
:101E100089B7846089BF0E94CF0501C010E080E4CB
:101E200080931C011EC0883021F411E086EB93E002
:101E300013C0893019F49093B6030BC08A3011F4A3
:101E400011E008C08B3029F48BE48093A2038093C7
:101E5000CE0310E08FE993E09093B2038093B10337
:101E600009C01F3F39F4888187FD1E8180E8809377
:101E70001C0106C08F81882319F48E81811708F018
:101E8000812F8093670011C080911C0187FF0DC0D6
:101E9000CE010E94CC228F3F21F48EE18093660018
:101EA00004C0882311F0109267001092B303809150
:101EB000660084FF46C0809167008F3F09F441C0EF
:101EC000182F893008F018E0811B809367008091FB
:101ED000960398E8892780939603112321F1209196
:101EE000B1033091B20380911C0186FF0AC0912F8B
:101EF000F901A7E9B3E084918D9331969150D9F718
:101F000008C0912FD901E7E9F3E08D9181939150B9
:101F1000E1F7C90101961150810F911D1F5F909348
:101F2000B2038093B10387E993E0612F0E94CD0350
:101F3000612F6C5F6C3019F08FEF809367006093B6
:101F4000660094E180B38C7031F49150D9F710920F
:101F5000B4031092AD030E94CF05DF91CF911F9182
:101F60000895EF92FF921F93CF93DF937C01162F7A
:101F7000EA010E94CE05888184FF05C0898198E826
:101F80008927898302C08AE58883AE014E5F5F4F4F
:101F9000212FFA01D7018D917D01819321501216D5
:101FA000CCF3CA01612F0E94CD031C5F18830E94ED
:101FB000CF05DF91CF911F91FF90EF9008954DECE9
:101FC00053E00E94B10F089541EA53E00E94B10F1F
:101FD000089598EA899FC0011124E0916800F0916A
:101FE0006900E80FF91FE49180E0E150EE3F08F44A
:101FF00081E00895089580E008950F931F93CF9393
:10200000DF9398EA899FE00111248E0108551F4F44
:10201000E0916800F0916900EC0FFD1F9491892F09
:1020200081508E3F18F4892F0E94641C2196C0179E
:10203000D10771F7DF91CF911F910F910895909380
:102040001E0180931D0108950F931F93182F062FD3
:10205000662321F00E94D5110E94A812E0911D0173
:10206000F0911E010190F081E02D812F602F0995E4
:102070001F910F910895DF92EF92FF920F931F939C
:10208000182F062FF42EE22E642F422F202F0E94AD
:10209000C31DD82E002339F0112329F084E290E1EA
:1020A00061E00E9482120E94BB13882339F0812FC5
:1020B0006F2D4E2D202F0E94471715C0002329F0A9
:1020C000812F0E94DA15882371F4DD2061F0E09100
:1020D0001D01F0911E010480F581E02D812F602FFC
:1020E000099581E001C080E01F910F91FF90EF9072
:1020F000DF9008953F924F925F926F927F928F92FE
:102100009F92AF92BF92CF92DF92EF92FF920F9386
:102110001F93CF93DF93382E0E94AA083C010E94A0
:10212000BD084C01BB24EE24FF2481E0482E512C35
:1021300048C0F401EC0FFD1F10811A21F301EC0FD0
:10214000FD1F00810A21832D6C2F4C2D0E940D1341
:10215000D82E1017C1F00E94971D882339F0002354
:1021600049F18C2F6C2D0E949A1D24C0002319F078
:102170008D2D61E002C08D2D60E04C2D2C2F0E9432
:102180003B10882391F0002381F08D2D0E94D51102
:102190000E94A812E0911D01F0911E010280F381BE
:1021A000E02D8D2D61E00995B82A2196C131D10528
:1021B00009F0BFCF0894E11CF11C88E0E816F10497
:1021C00061F0CE2CC2010E2C02C0880F991F0A9418
:1021D000E2F7A82EC0E0D0E0ACCF0E94AD080E948C
:1021E000C0088B2D8160DF91CF911F910F91FF90DF
:1021F000EF90DF90CF90BF90AF909F908F907F90A7
:102200006F905F904F903F90089580911F010895C7
:10221000982F80911F018823B9F080912001882395
:1022200099F09A3661F09B3618F4993669F405C036
:102230009D3639F09E3641F406C09AE605C099E60F
:1022400003C09EE601C09DE6892F0895809320017A
:10225000089587E090E00E94582981FF04C081E042
:1022600080931F01089510921F01089587E090E068
:102270000E945829682F80911F01882329F481E04A
:1022800080931F01626003C010921F016D7F87E081
:1022900090E00E9460290895982F8091220180FF8C
:1022A0000FC0993611F49AE60BC09A3611F499E6EC
:1022B00007C09D3611F49EE603C09E3609F49DE6E4
:1022C000892F08950E94D312982F80912101981789
:1022D000A1F09C3031F0903C21F0983411F094380A
:1022E00041F4109227011092260182E0809323018D
:1022F00002C01092230190932101409123014423B5
:1023000091F18091260190912701019690932701E8
:102310008093260120912401309125012817390747
:1023200014F54230C1F40E9424058091220180FFFF
:1023300004C08E7F809322010EC0816080932201B1
:1023400088EE93E02CE231E0F9013197F1F7019743
:10235000D9F70E94240588E090E0609122010E9454
:10236000602910922301089588E090E00E94582986
:10237000809322018F3F11F41092220188E893E1AB
:102380000E94882590932501809324010895E82FC9
:10239000865D853140F4F0E0E656FF4FE4918E2FE4
:1023A0000E944C11E82F8E2F0895982F80912801BC
:1023B000882321F0892F0E94C711982F892F089513
:1023C000982F809128018823C9F0292F30E0265DBD
:1023D0003040F901EC56FE4FE491EE2321F0892FB5
:1023E0000E94C7110AC0892F865D853138F42E57A7
:1023F0003E4FF90184910E944C11982F892F089526
:102400001F93982F865D662391F18531A8F4809102
:1024100029018F5F8093290180912A01882319F572
:1024200080912B018823F9F490932C0181E0809313
:102430002A011092280164C080912C01882349F060
:1024400081E08093280180912B018F5F80932B0185
:1024500057C080912A01882309F052C080912B0136
:102460008F5F80932B0181E08093280149C08531E3
:1024700090F580912901882319F0815080932901DA
:10248000E0912C01EE2301F1809128018823E1F4F1
:10249000F0E0E455FF4F1491812F0E94641C812FBE
:1024A0000E94641C10922C010E94CD13882361F0BD
:1024B000812F60E040E021E00E944717812F60E01B
:1024C00040E020E00E94471780912901882351F4C1
:1024D00010922A0107C080912B01882319F08150A6
:1024E00080932B010E94A408882351F010922901A7
:1024F00010922C0110922B011092280110922A01A7
:102500001F9108951F93CF93DF93EC01162F9091A5
:102510002C019923C9F0809128018823A9F0892FE3
:102520000E94C711612FFE0109950E94CD138823D7
:1025300049F080912C010E94C71160E040E021E049
:102540000E94471710922C01DF91CF911F9108959F
:10255000982F8756883068F4E92FF0E0EE0FFF1FC0
:10256000E256F040808190912D01892B80932D01BE
:10257000089580913401873040F4E82FF0E0E35D66
:10258000FE4F90838F5F8093340108958DE291E038
:102590000895873010F080E00895E82FF0E0E35DC3
:1025A000FE4F8081089580912D01089581E08093F0
:1025B000340187E0EDE2F1E0DF011D928A95E9F751
:1025C000089591E1899FC0011124860F911D23E098
:1025D000880F991F2A95E1F7840F911DE0916A00F9
:1025E000F0916B00E80FF91FE4918E2F089591E1AF
:1025F000899FC0011124860F911D33E0880F991F18
:102600003A95E1F7840F911DE0916A00F0916B001B
:10261000E80FF91FE4918E2F0895EF92FF920F9328
:102620001F93082FF62EE42E0E94BB13882309F176
:102630000E94CD138823C1F1033010F010E013C0C5
:1026400088E8089FC00111240D962F2D30E063E02B
:10265000220F331F6A95E1F7820F931F8E0D911D94
:102660000E945829182F812F0E94C6138823B9F47D
:1026700017C00330A0F488E8089FC00111240D960C
:102680002F2D30E053E0220F331F5A95E1F7820FD0
:10269000931F8E0D911D0E945829182F01C010E024
:1026A000812F81508E3FA0F081E1089FC00111244D
:1026B0008F0D911D43E0880F991F4A95E1F78E0D0C
:1026C000911DE0916A00F0916B00E80FF91F1491E1
:1026D000812F0E944C110E9408111F910F91FF90B1
:1026E000EF900895809135010895809135018823F8
:1026F00029F481E0809335010E946E06089580914F
:102700003501882311F58091360190913701A09110
:102710003801B09139010196A11DB11D8093360198
:1027200090933701A0933801B0933901805E9349AB
:10273000A440B04054F0109236011092370110922C
:102740003801109239010E94751308958091350166
:10275000882321F0109235010E943606109236012E
:10276000109237011092380110923901089580912A
:102770004001817008958091400182700895809198
:102780004501089581E080934501089590E0895CBA
:102790008C3008F491E0892F089590E080914701F2
:1027A0008B3009F491E0892F089588E20E94641C1F
:1027B00088E20E94641C089580E3EAE7F4E0DF0108
:1027C000982F1D929A95E9F71092AA04EAEDF3E08A
:1027D000DF011D928A95E9F710923F0108950F934A
:1027E0001F93FC0180810E94CF1C8C01882319F06B
:1027F00088E60E94641C812F0E94641C812F0E9425
:10280000641C002319F088E60E94641C1F910F913C
:102810000895CF92DF92EF92FF920F931F93DF9371
:10282000CF930F92CDB7DEB78C01009711F52FC073
:1028300000D000D000D0EDB7FEB73196ADB7BEB72F
:102840001296FC92EE921197D382C282992787FD4D
:102850009095958384830E9457278DB79EB70696DF
:102860000FB6F8949EBF0FBE8DBFC7010E94EF1335
:1028700008C07E010894E11CF11C8CE7C82E80E0A2
:10288000D82EF8010F5F1F4F8491882389F60F908F
:10289000CF91DF911F910F91FF90EF90DF90CF903C
:1028A000089580EF94E00E9409140E94D5132AEF46
:1028B00033E080E090E00BC01192E217F307E1F7FC
:1028C00001969F01285F3F4F8131910549F0FC013E
:1028D00043E0EE0FFF1F4A95E1F7EE50FC4FECCFBF
:1028E00081E090E09093510180935001089588E039
:1028F00096E00E9409140E94D51381E080933E0166
:102900008CE0809349011092470108958091500115
:1029100090915101892B29F41092400110924901A4
:10292000089581E495E00E9409140E94D51381E086
:1029300080933E018BE08093490180914701809311
:10294000480110924701089589E394E00E94091418
:102950000E94D51308950E94D5138DE693E00E943E
:1029600009140E94D51383E793E00E9409140E9482
:10297000D51388E893E00E9409140E94D51386E9D4
:1029800093E00E9409140E94D51382EB93E00E9409
:1029900009140E94D5138DE993E00E9409140E9446
:1029A000D51387E0809347010895AF92BF92CF92ED
:1029B000DF92FF920F931F93DF93CF930F92CDB7C8
:1029C000DEB78C01FF246E010894C11CD11C5CE7AA
:1029D000A52E50E0B52E25C000D000D000D0EDB718
:1029E000FEB73196ADB7BEB71296DC92CE92119774
:1029F000B382A282800F911FDC018C91992787FD01
:102A00009095958384830E9457278DB79EB706962D
:102A10000FB6F8949EBF0FBE8DBFC6010E94EF1384
:102A2000F3948F2D90E0F80101900020E9F73197A1
:102A3000E01BF10B8E179F0778F20F90CF91DF917B
:102A40001F910F91FF90DF90CF90BF90AF900895AE
:102A50000F931F9383E196E00E94091401E116E0B1
:102A6000C8010E9409148091D9038F5F0E94441D00
:102A70000E94D514C8010E94091488E096E00E94C3
:102A800009140E94D51381E080933E018DE080936C
:102A90004901109247011F910F9108951F93CF9301
:102AA000DF938091D9038C30C8F4C0E0D0E010E30C
:102AB0008091D903819FC00111248B559E4FFE0147
:102AC000E658FB4F8C0F9D1F60810E946029219664
:102AD000C033D10569F78FEF8093D903DF91CF9190
:102AE0001F9108950F931F93CF93DF93982F8C30EE
:102AF000C0F480E3989FC0011124EC01CB55DE4F58
:102B00008C010B521E4FCE010E945829982F8150E4
:102B10008E3F18F4892F0E94641C2196C017D1079C
:102B200091F7DF91CF911F910F910895CF92DF928E
:102B3000EF92FF920F931F93CF93DF9390915201E7
:102B400088E8989F700111248DE090E0E80EF91E4E
:102B5000CC24DD2417C0CE018E0D9F1D0E94582964
:102B6000F80181938F012196C830D105A1F708940F
:102B7000C11CD11C88E090E0E80EF91E91E1C91655
:102B8000D10459F0860163E0000F111F6A95E1F747
:102B90000E501C4FC0E0D0E0DECF109251011092D9
:102BA0005001DF91CF911F910F91FF90EF90DF9037
:102BB000CF9008951F93982F8091400180FD25C0EC
:102BC000192F195C1C3008F50E94A51C8823E9F018
:102BD00080E3189FC00111248B559E4F0E945829F5
:102BE00081508E3F30F40E94521D812F0E94721539
:102BF0000AC0812F0E94E90F882329F00E94521DEC
:102C0000812F0E94FD0F81E001C080E01F91089597
:102C100081E296E00E94091481E196E00E94091485
:102C20008BE296E00E94091481E196E00E9409146B
:102C30000E940511882319F08DE296E002C080E31E
:102C400096E00E9409140E94D51308950E94081668
:102C500089EA93E00E9409140E94D51386E993E063
:102C60000E9409140E94D51382EB93E00E9409147C
:102C70000E94D51387E080934701089589E196E08B
:102C80000E94091481E196E00E9409148BE296E00B
:102C90000E94091481E196E00E9409140E94171E07
:102CA000882319F08DE296E002C080E396E00E944E
:102CB00009140E94D51308950E943E1689EA93E0F4
:102CC0000E9409140E94D51386E993E00E9409141A
:102CD0000E94D51382EB93E00E9409140E94D51341
:102CE00087E08093470108950E94D51385EF92E015
:102CF0000E9409140E94D51381E093E00E940914F8
:102D00000E94D5138FE093E00E9409140E94D5130E
:102D100087E193E00E94091481E196E00E94091482
:102D20008BE296E00E94091481E196E00E9409146A
:102D30000E94171E882319F08DE296E002C080E3FE
:102D400096E00E9409140E94D51388E293E00E9445
:102D5000091481E196E00E9409148BE296E00E943A
:102D6000091481E196E00E9409140E94051188234C
:102D700019F08DE296E002C080E396E00E9409140B
:102D80000E94D51381E080933E018EE0809349013B
:102D900010924701089581E080933E0180914701A0
:102DA000893090F4873008F040C0833091F184304E
:102DB00030F48130F9F0823009F05FC027C08530EF
:102DC00071F1863078F528C08D30B9F18E3048F435
:102DD0008A3009F447C08A3068F18B3009F04DC061
:102DE0002FC08E3609F447C0883789F1843609F040
:102DF00044C038C081E494E00E94091480915201DB
:102E00008F5F0E94441D0E94D5141EC083E794E08A
:102E100019C082E994E00BC084EB94E025C08CECEF
:102E200094E022C010923E0128C08FE095E00E94FD
:102E3000091423C087E595E0FACF80E995E0F7CF44
:102E400084EB95E00E9409140E94D51316C08AE510
:102E500093E00E9409140E94D513109247010E942A
:102E6000931D0BC080E593E00E9409140E94D513C6
:102E70001092470102C00E94741688EE93E02CE283
:102E800031E0F9013197F1F70197D9F70895AF9241
:102E9000BF92CF92DF92EF92FF920F931F93DF9337
:102EA000CF9300D00F92CDB7DEB7982FB62EA42EB9
:102EB000C22E80913E01882309F0E7C2892F0E942B
:102EC000D511D82E809147018B3009F0D4C284EA05
:102ED00090E06BE04D2D0E94001C7C019091470119
:102EE0009B3009F0CCC288EC8D1508F4CEC28091DD
:102EF0003D01882399F010923C0110923D018D2DE7
:102F00000E94641CE091AA04F0E0E758FB4F108295
:102F10000E944E1587E0809347019DC2CC2071F03E
:102F200080913F01883108F0B0C28F5F80933F01EC
:102F30008AED93E06D2D0E94581C17C00AED13E036
:102F4000F80101900020E9F73197E01BF10BC8016F
:102F50006E2F4D2D0E94001CBC019FEF6F3F790723
:102F600009F493C2C8010E94261C8091AA04E82F8C
:102F7000F0E0E658FB4FD0828F5F8093AA048D2D3E
:102F80000E94641C8091AA04803330F087E0809313
:102F900047010E944E155FC2CC2081F0A4EAB0E048
:102FA000EA0EFB1EF7018081893241F481E08093B3
:102FB0003C0110923B0110923A0167C210923C0111
:102FC00010923D0162C2FAE0EF16F10408F05DC212
:102FD000E0914F01F0E0E45BFE4FE0828E2D0E9415
:102FE000441D0E94D5140E94D51300914C0180917C
:102FF0004701883009F040C0023029F400934601AF
:103000000E94AB14E0C10130E1F4009346010E943C
:10301000D51389EB93E00E9409140E94D51384EC28
:1030200093E00E9409140E94D51383ED93E00E945F
:10303000091400933E018AE08093490110924701F0
:10304000C2C1053019F4009346016BC0093021F468
:103050000093460188E766C0033029F400934601D7
:103060000E945C16B0C1043009F0ADC184E08093C9
:1030700046010E942616A7C1063019F48EE68093F9
:103080004701809146018130C9F4013011F00230CE
:1030900019F40093470197C1033031F484E0809321
:1030A00047010E9486148FC1043011F485E03AC0B4
:1030B000093009F088C10E94511428C18230A9F456
:1030C000013011F489E07DC1023011F48DE079C145
:1030D000033011F48AE026C0093009F074C18CE095
:1030E000809347010E9477146EC1833051F4013000
:1030F000A9F487E0809347010E94271E0E943E1694
:1031000062C1843009F05FC1013041F487E08093EF
:1031100047010E9436110E94081655C1033009F07C
:1031200052C184E6809347011092400110924901F8
:103130004AC1923089F18AE0E816F10408F0A5C18D
:1031400080914F01E82FF0E0E45BFE4FE0828F5F5B
:1031500080934F0100D000D000D0EDB7FEB731967C
:103160008E010F5F1F4FADB7BEB712961C930E9323
:1031700011978FE790E093838283F582E4820E9427
:103180005727EDB7FEB736960FB6F894FEBF0FBEC1
:10319000EDBFC8010E94D514FAE0EF16F10428F043
:1031A00080914701823009F070C1809147018330DE
:1031B00009F40CC1843038F4813009F475C08230D0
:1031C00009F056C1A5C0893021F08D3009F050C1F9
:1031D0002DC080914F018230F9F490914C018AE02A
:1031E000989F9001112480914D01280F311DC90134
:1031F00001970C9750F4822F81508093D9038BE074
:10320000809347010E94DC131DC1232B09F014C1D8
:1032100087E08093470116C188EE93E02CE231E00D
:10322000F9013197F1F70197D9F72FC180914F013B
:10323000823081F590914C018AE0989F9001112491
:1032400080914D01280F311DC90101970C9760F441
:10325000822F81508093D90387E0809347010E9499
:10326000D5130E9428150EC0232B21F487E08093EC
:10327000470106C00E94D5138BEE95E00E94091409
:103280000E94D51383E0ECE4F1E0DF011D928A9502
:10329000E9F799C088EE93E02CE231E0F90131972B
:1032A000F1F70197D9F7F1C090914C01809152014B
:1032B000833050F5192F1150811731F1133020F55B
:1032C0008091500190915101181619066CF40E94DA
:1032D000D5138BE195E00E9409140E94D5130E943A
:1032E0008614109353016FC00E94D5138EE295E0AF
:1032F0000E9409140E94D51387E080934701109320
:1033000052010E9496155FC00E94D51387E059C0F4
:10331000B0924A01A0924B018BE495E00E940914FF
:1033200080914A018F5F0E94441D0E94D51482E85B
:1033300090E00E94D51480914B018F5F0E94441D44
:103340000E94D51485E890E00E94D5148091520126
:103350008F5F0E94441D0E94D5148EE890E00E9469
:10336000D5148091520160914B0140914A010E9415
:10337000F7120E94441D0E94D51488E990E00E9433
:10338000D51480914A01E0914B01F0E0A3E0EE0FEB
:10339000FF1FAA95E1F7E80FF11DEE50FC4F808169
:1033A00090E08F3F910511F480E090E00E94441D71
:1033B0000E94D51482EA90E00E94D5140E94D51391
:1033C00083E08093470110924F0152C080914F01DA
:1033D000833009F043C090914C0184E6989FA0018E
:1033E000112480914D012AE0829FC0011124480FD1
:1033F000591F80914E01480F511D4F3F5105E4F474
:1034000080914A01E0914B01F0E073E0EE0FFF1F65
:103410007A95E1F7E80FF11DEE50FC4F408387E00D
:1034200080934701809150019091510101969093B2
:1034300051018093500106C00E94D5138BEE95E098
:103440000E94091483E0ECE4F1E0DF011D928A950B
:10345000E9F710924F010E94D5130AC088EE93E05D
:103460002CE231E0F9013197F1F70197D9F70DC05E
:103470000E94CB160AC0CC2009F429CD06C0892FA2
:103480008750823008F055CE9ECD0F900F900F9050
:10349000CF91DF911F910F91FF90EF90DF90CF9030
:1034A000BF90AF9008951F93CF93DF93C0E0D0E01B
:1034B00010E38091D903819FC00111248B559E4F49
:1034C0008C0F9D1F60E00E9460292196C033D105BA
:1034D00081F787E0809347010E94CB16DF91CF915F
:1034E0001F910895CF93DF93C5EAD1E0CE0160E04C
:1034F0000E946029219683E0C53ED807B9F787E08E
:10350000809347010E94CB16DF91CF910895BF921F
:10351000CF92DF92EF92FF920F931F93CF93DF939F
:10352000EE24FF24CC24DD2418E8B12E1EC08091A7
:1035300052018B9DC00111240D968C0D9D1D8C0F89
:103540009D1FF80161918F010E9460292196C8306A
:10355000D10569F70894E11CF11C88E090E0C80EE1
:10356000D91E91E1E916F10459F08701B3E0000F8B
:10357000111FBA95E1F70E501C4FC0E0D0E0D7CF35
:10358000109251011092500180914801843039F419
:1035900080934701109240011092490113C081307D
:1035A00089F40E94D5138EE295E00E9409140E94CE
:1035B000D51387E080934701809153018093520196
:1035C0000E9496150E94CB16DF91CF911F910F910B
:1035D000FF90EF90DF90CF90BF9008950E94D51399
:1035E00080EF93E00E9409140E94D51380E094E0DC
:1035F0000E9409140E94D51382EB93E00E940914E3
:103600000E94D51386E194E00E9409140E94D5130C
:1036100087E0809347010E94CB1608958BE393E0E7
:103620000E9409140E94D51382E493E00E940914B9
:103630000E94D51388E0809347010E94CB1608951D
:1036400083E0ECE4F1E0DF011D928A95E9F7109246
:103650004F0110925201109246010E9496150E944D
:1036600074160895809140018160809340010E940A
:10367000240588EE93E02CE231E0F9013197F1F76F
:103680000197D9F70E94240588EE93E02CE231E0FF
:10369000F9013197F1F70197D9F70E9424050895B0
:1036A0000E94D312982F8091400180FD18C0809114
:1036B00044019817A1F0973261F480914101882369
:1036C00041F4109243011092420181E08093410144
:1036D00004C01092400110924101909344018091E6
:1036E000400180FF0FC081FD0DC00E94A708882304
:1036F00049F0809140018260809340010E94A414AF
:103700000E94201B809140018823C9F480914101CF
:103710008130A9F4809142019091430101969093E8
:103720004301809342012091AF003091B0002817EF
:1037300039072CF40E94321B82E080934101809172
:10374000400181FF40C080913E01882319F10E9411
:10375000B41C8823F9F0809149018B3019F40E9440
:10376000871A16C08E3019F40E940E1B11C08A30C1
:1037700019F40E94EE1A0CC08D3019F40E94531AED
:1037800007C08C3019F40E94721A02C010923E01D8
:103790001092490180913C018823A9F080913A015F
:1037A00090913B01019690933B0180933A01895E91
:1037B00093404CF081E080933D0189E26FEF4FEF41
:1037C00020E00E94471708950E94321B08950E942E
:1037D000971D882319F010924501089580914501A5
:1037E000813021F40E94321B10924501089584EC2F
:1037F00099E00E9488259093B0008093AF000895CF
:10380000FC0190E007C08191841719F4292F30E062
:1038100005C09F5F9617B8F32FEF3FEFC9010895DA
:10382000FC01808140E02FEF3FEF0CC05191252F2C
:1038300030E090E02817390719F02FEF3FEF04C070
:103840004F5F852F461790F3C90108959B01FC0136
:1038500001900020E9F73197E81BF90B6F5F7F4F6C
:10386000680F791FE21BF30B820F931FAF010E94B9
:1038700024270895FF920F931F93F42E9B01DC01E0
:103880000D900020E9F78C01060F171FA81BB90B3C
:10389000A61BB70B2F5F3F4F820F931FB801AD01DF
:1038A0000E942427F801F0821F910F91FF90089544
:1038B000462FDC010D900020E9F71197A81BB90BEA
:1038C000BD010E943A1C0895282F80918A01909191
:1038D0008B01019660E071E00E94C026FC0190938C
:1038E0008B0180938A0180918801909189018E17C4
:1038F0009F0759F4009719F48FEF90E001C00197EA
:1039000090938B0180938A010895E457FE4F2083A2
:103910000895209188013091890180918A019091C8
:103920008B012817390711F480E00895C901019629
:1039300060E071E00E94C026FC01909389018093B1
:103940008801E457FE4F8081089540E0209188016E
:103950003091890180918A0190918B012817390754
:1039600009F441E0842F089580915701882319F4C8
:1039700040E050E00FC040E050E0209188013091DD
:10398000890180918A0190918B012817390711F4E0
:1039900041E050E0842F0895809357010895982FB7
:1039A00081568A3118F4292F2D5510C0892F815442
:1039B0008A3120F4292F2D5332E009C0892F8153F9
:1039C000893010F020E002C0292F235130E0892FE8
:1039D000992787FD9095A92FB92FFC01B097EF3556
:1039E000F10508F048C0E65DFF4FEE0FFF1F0590A0
:1039F000F491E02D09942EE141C02FE13FC020E277
:103A00003DC021E23BC022E239C023E237C024E2BC
:103A100035C025E233C026E231C027E22FC02CE2B8
:103A20002EC02DE22CC02DE229C02EE228C02EE2AD
:103A300025C02FE224C02FE221C020E320C020E3D4
:103A40001DC021E31CC021E319C023E318C023E3F8
:103A500015C024E314C024E311C025E310C025E3FE
:103A60000DC026E30CC026E309C027E308C027E306
:103A700005C028E304C0222311F428E332E0832F99
:103A8000922F089527E2FBCF0F931F9304E511E0D7
:103A900090E0B8014AE050E00E943627C8011F912B
:103AA0000F910895209188013091890180918A01B8
:103AB00090918B012817390739F480E3E8E5F1E0AC
:103AC000DF011D928A95E9F708951F93CF93DF9345
:103AD0000E94891C182FC8E5D1E0882331F480E3C7
:103AE000FE0111928A95E9F712C0FE0101900020B3
:103AF000E9F73197E855F140CE016E2F412F0E9432
:103B0000001CBC0197FD05C0CE010E94261C80E070
:103B100005C0CE01612F0E94581C81E0912FDF91DA
:103B2000CF911F91089581E080938C020895809138
:103B30008C0208950F931F93082F162F81EB90E0AE
:103B40000E94D514812F0E94441D0E94D51483EB3E
:103B500090E00E94D514802F0E94441D0E94D5142D
:103B600085EB90E00E94D5141F910F9108950E945B
:103B7000501B0E9462110E94FA0F0E949106089544
:103B800080918E0208950F931F93182F022F8E3F5E
:103B900009F447C00E948505812F602F0E94001202
:103BA000812F0E94E011002389F18C3F49F0909110
:103BB0008D02992391F08A3281F410928E0206C010
:103BC00080918E0291E0892780938E0280918E02EF
:103BD000882339F50E94540524C0893221F481E0FC
:103BE00080938D0221C0992311F0893311F08D3F0C
:103BF00019F40E947A0615C08A3F19F40E945406EF
:103C000010C0893F81F40E943B060BC08C3F49F0F5
:103C1000893219F410928D0206C0873F21F40E9468
:103C2000E41B80E001C081E01F910F910895809115
:103C30008F02089587E090E00E94582980FF04C019
:103C400081E080938F02089510928F02089587E09B
:103C500090E00E945829682F80918F02882329F4D0
:103C600081E080938F02616003C010928F026E7FAB
:103C700087E090E00E9460290895282F8F3F31F45B
:103C80001092910281E080939A0208958E3F21F074
:103C90008D3F29F41092910210929A02089580911A
:103CA0009A02882351F080919102E82FF0E0EC59BC
:103CB000FC4F20838F5F80939102809197029091B7
:103CC0009802019668EC70E00E94C026FC01909377
:103CD00098028093970280919502909196028E1798
:103CE0009F0759F4009719F487EC90E001C0019701
:103CF00090939802809397020895E556FD4F208394
:103D0000089580E0089581E0809387030E9455081C
:103D10000E94E71B08950F931F93CF93DF93062F05
:103D2000882309F490C00E94D511982F893C08F08F
:103D30008AC0282F30E0F901EA55FE4F1491002384
:103D400009F450C08093630310926E0310926F03C6
:103D5000109270031092710310925D05E901C45531
:103D6000DB4F888181FF2EC0963421F0983409F012
:103D70006CC00EC08FEF0E943D1E80EE0E943D1E63
:103D800082E10E943D1E80EE0E943D1E8CE726C00F
:103D90008DEF0E943D1E81EE0E943D1E84E10E9437
:103DA0003D1E87E70E943D1E81EE0E943D1E80EF72
:103DB0000E943D1E84E10E943D1E80EF0E943D1E38
:103DC00087E73BC082FD38C08FEF0E943D1E88818F
:103DD00080FF03C080EE0E943D1E812F0E943D1E89
:103DE0008EEF2BC080916303891711F4109291021A
:103DF000E92FF0E0E455FB4F808181FF13C096343A
:103E000021F580EE0E943D1E80EF0E943D1E8CE752
:103E10000E943D1E80EE0E943D1E80EF0E943D1ECE
:103E200082E10BC082FD11C080FF03C080EE0E94C2
:103E30003D1E80EF0E943D1E812F0E943D1E8CEF93
:103E40000E943D1E02C080E001C081E0DF91CF9161
:103E50001F910F9108952F923F924F925F926F9210
:103E60007F928F929F92AF92BF92CF92DF92EF920A
:103E7000FF920F931F93DF93CF9300D00F92CDB794
:103E8000DEB70E94A51C882309F474C081E00E945B
:103E9000CC1C0E942609882309F493C00E94D612E4
:103EA0000E942909982E0E94AA082C010E94BD0890
:103EB0008983692E0E94171E882309F053C08091C0
:103EC0009902891509F44EC0EE24FF2431E0232E17
:103ED000312C38C08A8080919902682D402F0E9431
:103EE0000D13B82E892D6A81402F0E940D13A82E24
:103EF000B816B9F0EA81FB81E40DF51D1081F601D9
:103F00008081872131F08B2D60E0402F2A810E9433
:103F10003B10172131F08A2D61E0402F282D0E949F
:103F20003B108A819B8101969B838A830894C11CE4
:103F3000D11C419779F60894E11CF11C98E0E91630
:103F4000F10481F00E2DC1010E2C02C0880F991FC3
:103F50000A94E2F7782E2981362DC9016C011B8263
:103F60001A82B8CF90929902892D0E947A10282F38
:103F700030E029C080E00E94CC1C0E94651D192FF2
:103F8000813041F4892F61E00E948B1E8DEF0E94E9
:103F90003D1E17C0892F8756883078F40E94D312AF
:103FA00090E0E12FF0E0EE0FFF1FE256F04020819D
:103FB000318182239323892B21F4812F60E00E9499
:103FC0008B1E20E030E0C9010F900F900F90CF9131
:103FD000DF911F910F91FF90EF90DF90CF90BF90F6
:103FE000AF909F908F907F906F905F904F903F9099
:103FF0002F900895109296021092950210929802B6
:1040000010929702109291021092920210926E03F7
:1040100010926F0310927003109271030E947B083C
:1040200008951F93162F8E3F11F080935C050E9418
:104030003E0D10935D051F9108958CEB90E00E945A
:104040001F1008958F929F92AF92BF92CF92DF92EE
:10405000EF92FF920F931F9388E080935D050E947B
:10406000650EECEAF4E0119225E0EC35F207D9F7A1
:104070002CEA32E006C0FC01E455FB4F80818260EF
:104080008083F901849190E02F5F3F4F009799F76B
:104090002FEA32E006C0FC01E455FB4F80818460CA
:1040A0008083F901849190E02F5F3F4F009799F74B
:1040B00023EB32E006C0FC01E455FB4F80818860B1
:1040C0008083F901849190E02F5F3F4F009799F72B
:1040D00028EB32E006C0FC01E455FB4F8081816093
:1040E0008083F901849190E02F5F3F4F009799F70B
:1040F00026EE32E006C0FC01E455FB4F8081806172
:104100008083F901849190E02F5F3F4F009799F7EA
:104110000E94FA1F8CEB90E00E941F10789416E921
:10412000912E88248394B5E0AB2EB12CC12CD12CD8
:104130008091C9008823F9F4809187038823D9F4FA
:1041400080918503909186030196909386038093D6
:1041500085030197815D974074F081E08093C900E9
:104160001F910F91FF90EF90DF90CF90BF90AF9095
:104170009F908F9008958091950382FFC2C0809197
:104180009302909194028C3F910561F020919502E9
:1041900030919602809197029091980228173907E2
:1041A00009F0AFC00E944D0D182F60915D0562307F
:1041B00009F459C0633018F4613039F44EC06630E8
:1041C00009F48FC0673009F457C0133F79F1143FE9
:1041D00070F41E3ED1F01F3E20F41D3E09F08FC04A
:1041E00022C0103FE9F0123F09F089C010C0163F0D
:1041F00039F1173F20F4143F09F081C01AC01E3F67
:1042000061F01F3F09F07BC005C08EEE88C18AEFC8
:1042100064E085C18AEF68E082C180915C057FC15E
:104220008AEF62E07CC18AEF66E079C18AEF67E0DD
:1042300076C18AEF60E00E9411200E94831E78CF31
:104240008092B700A092B800B092B900C092BA00B4
:10425000D092BB000E94FA1F52C0853F09F44FC0A4
:104260008AEF61E05CC10E94FA1F112311F060E047
:1042700001C063E08AEF53C1682F70E0CB01807604
:104280009070A5E095958795AA95E1F78093B70082
:10429000AB0148715070F3E055954795FA95E1F7F9
:1042A00080E090E021E030E003C0220F331F019650
:1042B00084179507D4F367707070269FC001279FFD
:1042C000900D369F900D1124AA2797FDA095BA2F27
:1042D0008093B8009093B900A093BA00B093BB004C
:1042E0000EC00E94831E912F80E010FD84E091FD9E
:1042F000816092FD82600E944B050E9454058AEF06
:104300000DC18091950384FF13CF80915D058430AA
:1043100009F4FCC0853030F4882371F0833009F053
:1043200007CFF2C0883009F4F6C08C3009F476C0AB
:10433000853009F0FDCEEDC02091950230919602B6
:1043400080919702909198022817390711F40E94E2
:104350002B1F0E94B71D20919502309196028091EB
:104360009702909198022817390711F480E00EC047
:10437000C901019668EC70E00E94C026FC01909390
:10438000960280939502E556FD4F8081282F30E0FC
:1043900030939402209393022C3F310509F4C8CE48
:1043A000232B21F060E00E9411205EC080919102D9
:1043B000882309F4BDCE20916E0330916F034091A4
:1043C0007003509171032F5F3F4F4F4F5F4F20930A
:1043D0006E0330936F034093700350937103809189
:1043E000B700899DC00111248A519F4FAA2797FDCC
:1043F000A095BA2F281739074A075B070CF498CE07
:1044000010926E0310926F0310927003109271035A
:10441000109292028CE080935D058ACE8091920288
:10442000882311F40E942B1F0E94B71D80919102D6
:104430008823C1F0209195023091960280919702D5
:10444000909198022817390769F480916E03909132
:104450006F03A0917003B09171030197A105B1059D
:1044600061F40FC010925D0510926E0310926F03FD
:1044700010927003109271035BCE80919202882398
:10448000A9F090919202E92FF0E0EC59FC4F808165
:104490009F5F909392026CE00E94112060919102C4
:1044A000809192020E94B42690939202E0906E0353
:1044B000F0906F0300917003109171030894E11C58
:1044C000F11C011D111D6091B8007091B90080911F
:1044D000BA009091BB002AE030E040E050E00E943A
:1044E00095269B01AC012D5F3F4F4F4F5F4FC80199
:1044F000B7010E94F52660936E0370936F0380935B
:1045000070039093710314CE82E008C08BEA65E0DB
:1045100006C083E803C00E94FA1F8AEA60E00E9496
:10452000112006CEFC018381813261F08232D9F004
:10453000823081F587EF96E09093B2038093B103C8
:104540008BE308958281882319F0813019F503C027
:1045500089E097E002C082E297E09093B2038093F3
:10456000B10389E0089584819581009719F001973E
:1045700089F408C084E396E09093B2038093B1037A
:1045800080E4089584E796E09093B2038093B103AA
:1045900083E8089580E00895FC0180917B038823DF
:1045A00029F0613019F480810E94762510927B03F6
:1045B00081E008950F931F93CF93DF93182F092F56
:1045C0000E942823C12FD02F809172038093B103C2
:1045D0001092B203888180768032A1F58981813082
:1045E00011F488E030C0893071F48A819B81805059
:1045F000924041F58C819D81892B21F581E080934A
:104600007B038FEF20C0823019F480917A0314C0AD
:104610008A3031F40E942C238B8180937A0312C05C
:10462000833031F48B81882369F41092C2000BC06F
:104630008B3041F48091C2008093B1031092B20399
:1046400081E001C080E0DF91CF911F910F9108952B
:1046500081E080938703089581E080937C0310922A
:104660007D030895982F81578A31B0F481E08093BB
:104670008003662369F0E92FF0E0EE0FFF1FEC588E
:10468000FE4F8591949190938203809381030895C6
:1046900010928203109281030895662311F061E065
:1046A00001C060E00E94322380E008950E94260944
:1046B0008823A1F082E08093840388E0E2E7F3E0BE
:1046C000DF011D928A95E9F710928203109281030F
:1046D0000E94D6120E9429090E947A1008950E9411
:1046E000D511982F893C60F581578A3148F1865F52
:1046F000883068F4E92FF0E0EE0FFF1FE256F0403B
:10470000808190917203892B8093720317C0992343
:10471000C9F0209184032830A8F4892F8D58823263
:1047200028F4E92FF0E0E350FE4F9491E22FF0E0FF
:10473000EE58FC4F90832F5F2093840381E008950F
:1047400080E0089581E0089583EC90E00E941F10BE
:1047500008952F923F924F925F926F927F928F9225
:104760009F92AF92BF92CF92DF92EF92FF920F9300
:104770001F93DF93CF9300D00F92CDB7DEB70E9487
:104780007B0E88E0EEE5F5E0DF011D928A95E9F702
:104790008B9A20E048EB5BE0CA010197F1F72150CA
:1047A000D9F78B9883EC90E00E941F107894332403
:1047B00010E02224AA24BB245EE5452E55E0552EA8
:1047C0008091C900813061F580918703882341F58C
:1047D0008091850390918603019690938603809340
:1047E00085030197815D9740DCF01092C9008BB77B
:1047F0008F778BBF0F900F900F90CF91DF911F910C
:104800000F91FF90EF90DF90CF90BF90AF909F906F
:104810008F907F906F905F904F903F902F90089572
:104820008091B003882331F01092B0030E94A61348
:1048300022240FC0222079F4E1EDAE16E7E0BE0697
:1048400024F40894A11CB11C06C00E9475132224F4
:104850002394AA24BB240E948C0E222009F0B0CFFE
:104860003320A9F40E945623382E08B600FE11C04A
:10487000F1E0F8BF80907A03882059F0153018F4E1
:104880003324339407C04BEF842E810E03C00E9463
:104890005623812E0E94B71D8091A10384FFEAC098
:1048A00080918303882329F40E94A51C882309F0A2
:1048B000ABC0A2E7B3E0E8E01D92EA95E9F71092F9
:1048C0008203109281030E94B713882309F040C02D
:1048D0000E94971D8823E1F50E94AA086C010E949E
:1048E0002909682EEE24FF2426C0F601E00FF11FEF
:1048F00080818921A1F0862D602F472D0E940D1304
:10490000E82F8756883058F4F0E0EE0FFF1FE2568C
:10491000F040808190917203892B809372030F5F26
:104920001F4F0131110509F70894E11CF11CF8E053
:10493000EF16F10469F07E2C81E090E00E2C02C0AD
:10494000880F991F0A94E2F7982E00E010E0CDCF6F
:104950000E94A51C882309F046C0D2010D900020BA
:10496000E9F78D0101501040041915090E94651DD9
:10497000F92E813041F48EE595E06F2D0E94581C90
:104980008F2D61E00FC08EE595E0602F4F2D0E94C6
:10499000001CBC0197FD08C08EE595E00E94261C16
:1049A0008F2D60E00E943223B2E0B0938403F201C5
:1049B00001900020E9F73197E4192EE5E22E25E079
:1049C000F22E0E2F10E00E0D1F1D06C0F701819173
:1049D0007F0161E00E946F23E016F106B9F7F1E074
:1049E000F09383030BC080918303882339F0D201B5
:1049F000E8E01D92EA95E9F71092830382E793E0DD
:104A000068E00E94E40F36C0332039F082E793E07B
:104A100068E00E94E40F33242DC080917C03813034
:104A2000E1F4F2E0F0937C03A2E7B3E0E8E01D924A
:104A3000EA95E9F7109282031092810382E793E0EE
:104A400068E00E94E40F80917A03882399F00E9425
:104A5000E71B81E00E9426110DC080917D0382300A
:104A600049F483E080937D0380917A03882311F4D5
:104A70000E94E71B80917C03823091F480917E0339
:104A800090917F03019690937F0380937E0301971B
:104A9000883C910529F40E94550883E080937C03AB
:104AA0008091CD0384FF13C080918003882379F027
:104AB0008091810390918203F1E0F9839B838A8343
:104AC000CE01019663E00E94DF0F10928003809177
:104AD0008303882321F40E94A51C882311F480E01D
:104AE00001C081E00E94CC1C182D6ACE0E944B05AB
:104AF0000E94540580917D03882319F482E08093FD
:104B00007D0308958D98959A08958D9A95980895A6
:104B10009C018091C900882311F0833011F43595F0
:104B20002795C90108950E94F71B0E94B4110E94A5
:104B30001A1E0E94291108951F9310E0812F0E94D0
:104B4000800A1F5F1730D1F789B78E7F89BF89B779
:104B50008B7F89BF89B78F7B89BF1F9108951F9372
:104B6000182F0E94AE090E941B0581B38C6081BB87
:104B700082B3837F82BB112371F08CE28A95F1F7B7
:104B800081B3837F81BB83B7856083BF0E949C25EF
:104B90008D98959A02C08D9A95981F910895F894D2
:104BA0000E9451051092860310928503109287038C
:104BB00008958F929F92AF92BF92CF92DF92EF9221
:104BC000FF920F931F93CF93DF938FEF8093C900D2
:104BD0000E94AE0984E18A95F1F710E00E94C908AD
:104BE000882319F41F5F1431C9F70E94AA086C01C9
:104BF00000E0EE24FF2491E0892E912C2EC0F601D6
:104C0000EC0FFD1F80818A21E9F080E06C2F4B2D95
:104C10000E94E112182F8B2D6C2F0E94B30988235C
:104C200011F41B3219F40E94931D0CC0103119F4B9
:104C30000E94C21307C0183111F4016003C0133180
:104C400009F402602196C131D105C9F60894E11C2E
:104C5000F11C88E0E816F10461F0BE2CC4010E2CB2
:104C600002C0880F991F0A94E2F7A82EC0E0D0E096
:104C7000C6CF002319F00F5F0093C9006091C900EF
:104C8000643021F48CE090E06FEF04C0643028F4CD
:104C90008CE090E00E94602906C08CE090E00E94C9
:104CA00058298093C9008A98929A2091C90024308B
:104CB000D0F080E090E0829907C092FD09C08F5F3C
:104CC000863060F021E00AC0829B09C092FD02C0DC
:104CD00080E004C08F5F863008F020E090B322307F
:104CE00050F72093C9008091C9008150823048F468
:104CF0000E9493250E94CF2581E00E94AF250E944B
:104D0000A9238091C900882311F0833061F70E94A4
:104D100093250E941B050E9424050E94CF2580E058
:104D20000E94AF250E942220DECF629FD001739F98
:104D3000F001829FE00DF11D649FE00DF11D929F37
:104D4000F00D839FF00D749FF00D659FF00D992776
:104D5000729FB00DE11DF91F639FB00DE11DF91F9A
:104D6000BD01CF0111240895991B79E004C0991F5A
:104D7000961708F0961B881F7A95C9F780950895B5
:104D800097FB092E07260AD077FD04D049D006D01C
:104D900000201AF4709561957F4F0895F6F790956D
:104DA00081959F4F0895A1E21A2EAA1BBB1BFD01FE
:104DB0000DC0AA1FBB1FEE1FFF1FA217B307E407FA
:104DC000F50720F0A21BB30BE40BF50B661F771F52
:104DD000881F991F1A9469F7609570958095909532
:104DE0009B01AC01BD01CF01089597FB092E05265B
:104DF0000ED057FD04D0D7DF0AD0001C38F45095F0
:104E00004095309521953F4F4F4F5F4F0895F6F7EE
:104E100090958095709561957F4F8F4F9F4F089526
:104E2000AA1BBB1B51E107C0AA1FBB1FA617B707D0
:104E300010F0A61BB70B881F991F5A95A9F78095EC
:104E40009095BC01CD0108956817790768F4FB01BE
:104E5000DC01E40FF51FA40FB51F02C002900E92F3
:104E600041505040D8F708950C947829FB019F01D8
:104E7000E8944230C4F04532B4F44A3029F497FB48
:104E80001EF4909581959F4F642F77270E941027DD
:104E9000805D8A330CF0895D8193CB010097A1F787
:104EA00016F45DE251931082C9010C948C29AEE096
:104EB000B0E0EDE5F7E20C94342A0D891E8986E016
:104EC0008C831A8309838FEF9FE79E838D839E01D6
:104ED000275E3F4FCE0101966F89788DA9010E9410
:104EE0007B272F813885020F131FF80110822E9621
:104EF000E4E00C94502AABE0B0E0E1E8F7E20C9477
:104F0000262A3C012B015A01FC011782168283815B
:104F100081FD03C06FEF7FEFC6C19AE0892E1E01AD
:104F20000894211C311CF3012381F20123FD85919A
:104F300023FF81912F01882309F4B2C1853239F40E
:104F400023FD859123FF81912F01853229F490E083
:104F5000B3010E949C29E7CF982FFF24EE249924C7
:104F6000FFE1FF15D0F09B3269F09C3228F49032BB
:104F700059F0933291F40EC09D3249F0903369F4A8
:104F800041E024C052E0F52A84E0F82A28C098E0E5
:104F9000F92A25C0E0E1FE2A22C0F7FC29C0892FAA
:104FA00080538A3070F4F6FE05C0989C902C112432
:104FB000980E15C0E89CE02C1124E80EF0E2FF2AC0
:104FC0000EC09E3229F4F6FC6BC140E4F42A07C0FF
:104FD0009C3619F450E8F52A02C0983649F4F201DB
:104FE00023FD959123FF91912F01992309F0B8CFCB
:104FF000892F8554833018F08052833038F444E090
:1050000050E0A40EB51E5FE359830FC0933631F014
:10501000933779F0933509F056C020C0F5018081AF
:10502000898342E050E0A40EB51E610101E010E06A
:1050300012C0F501C080D180F6FC03C06FEF7FEF96
:1050400002C0692D70E042E050E0A40EB51EC6011A
:105050000E9481298C015FE7F52214C0F501C08010
:10506000D180F6FC03C06FEF7FEF02C0692D70E0C6
:1050700042E050E0A40EB51EC6010E946D298C01CD
:1050800050E8F52AF3FE07C01AC080E290E0B301B1
:105090000E949C29EA948E2D90E008171907A8F326
:1050A0000EC0F601F7FC8591F7FE81916F0190E04B
:1050B000B3010E949C29E110EA94015010400115AF
:1050C000110579F7EAC0943611F0993669F5F7FEC3
:1050D00008C0F501208131814281538184E090E054
:1050E0000AC0F501808191819C01442737FD4095DC
:1050F000542F82E090E0A80EB91E9FE6F92257FFD8
:1051000009C050954095309521953F4F4F4F5F4FC7
:10511000E0E8FE2ACA01B901A1012AE030E00E94BC
:10512000C829D82ED21840C0953729F41F2D1F7ECC
:105130002AE030E01DC01F2D197F9F3661F09037A7
:1051400020F4983509F0ACC00FC0903739F098378B
:1051500009F0A6C004C028E030E00AC0106114FDC8
:10516000146020E130E004C014FD166020E132E05C
:1051700017FF08C0F501608171818281938144E04D
:1051800050E008C0F50180819181BC0180E090E091
:1051900042E050E0A40EB51EA1010E94C829D82EFD
:1051A000D2188FE7F82EF122F6FE0BC05EEFF52243
:1051B000D91438F4F4FE07C0F2FC05C08FEEF822D3
:1051C00002C01D2D01C0192DF4FE0DC0FE01ED0D14
:1051D000F11D8081803319F499EEF92208C01F5F18
:1051E000F2FE05C003C08F2D867809F01F5F0F2DDA
:1051F000F3FC14C0F0FE0FC01E1510F09D2C0BC068
:105200009D2C9E0C911A1E2D06C080E290E0B301E9
:105210000E949C291F5F1E15C0F304C01E1510F4C8
:10522000E11A01C0EE2404FF0FC080E390E0B30157
:105230000E949C2902FF1DC001FD03C088E790E089
:105240000EC088E590E00BC0802F867891F001FFBA
:1052500002C08BE201C080E2F7FC8DE290E0B30176
:105260000E949C2906C080E390E0B3010E949C2923
:105270009A94D914C0F3DA94F101ED0DF11D8081F7
:1052800090E0B3010E949C29DD20A9F706C080E2CE
:1052900090E0B3010E949C29EA94EE20C1F743CE2E
:1052A000F30166817781CB012B96E2E10C94422ACF
:1052B000E199FECF9FBB8EBBE09A99278DB30895ED
:1052C000262FE199FECF9FBB8EBB2DBB0FB6F89466
:1052D000E29AE19A0FBE01960895FC010590615093
:1052E00070400110D8F7809590958E0F9F1F0895FC
:1052F000FB01DC0102C001900D9241505040D8F7F3
:105300000895FC016150704001900110D8F780951C
:1053100090958E0F9F1F0895DC01FC01672F7191FE
:105320007723E1F7329704C07C916D93708362918B
:10533000AE17BF07C8F308950F931F93CF93DF9362
:105340008C01EB018B8181FF1BC082FF0DC02E8180
:105350003F818C819D812817390764F4E881F981A8
:105360000193F983E88306C0E885F985802F0995C4
:10537000892B31F48E819F8101969F838E8302C099
:105380000FEF1FEFC801DF91CF911F910F9108958B
:10539000FA01AA27283051F1203181F1E8946F9366
:1053A0006E7F6E5F7F4F8F4F9F4FAF4FB1E03ED00C
:1053B000B4E03CD0670F781F891F9A1FA11D680FAA
:1053C000791F8A1F911DA11D6A0F711D811D911DDD
:1053D000A11D20D009F468943F912AE0269F112452
:1053E0003019305D3193DEF6CF010895462F4770B6
:1053F000405D4193B3E00FD0C9F7F6CF462F4F7011
:10540000405D4A3318F0495D31FD4052419302D06E
:10541000A9F7EACFB4E0A695979587957795679514
:10542000BA95C9F700976105710508959B01AC0114
:105430000A2E06945795479537952795BA95C9F73B
:10544000620F731F841F951FA01D08952F923F9216
:105450004F925F926F927F928F929F92AF92BF9284
:10546000CF92DF92EF92FF920F931F93CF93DF9330
:10547000CDB7DEB7CA1BDB0B0FB6F894DEBF0FBE8D
:10548000CDBF09942A88398848885F846E847D84DA
:105490008C849B84AA84B984C884DF80EE80FD80DC
:1054A0000C811B81AA81B981CE0FD11D0FB6F89452
:0E54B000DEBF0FBECDBFED010895F894FFCF13
:1054BE00080701FF01015AFF0068006501000200A4
:1054CE000400080010002000400080002563002525
:1054DE0064002C200020286C617965723D002064E8
:1054EE00656661756C743D00206D617070696E67E4
:1054FE003D002900271E1F2021222324252629C4F2
:10550E00092D002C003D0002050000008B1E811E9F
:0A551E008B1E016F236F234D23FF46
:00000001FF
