:100000000C948E030C94AB030C94C6030C94AB03BA
:100010000C94E60C0C94F20B0C94B90C0C945F0C41
:100020000C948C0C0C94C50B0C94320C0C94720B2D
:100030000C94AB030C94AB030C94AB030C94AB0388
:100040000C94AB030C94AB030C94AB030C94AB0378
:100050000C94AB030B1DF71C271DFB1CFD1CFF1C88
:10006000031D251D071D091D051D131D2D1D0D1D1E
:10007000311D351D3E1D371D371D371D371D371DE1
:10008000371D371D371D371D231D211D2F1D111D28
:10009000331D391DF91C371D371D371D371D371D01
:1000A000371D371D371D371D371D371D371D371DB0
:1000B000371D371D371D371D371D371D371D371DA0
:1000C000371D371D371D371D371D151D1D1D191DEA
:1000D000011D0F1D291D371D371D371D371D371DEC
:1000E000371D371D371D371D371D371D371D371D70
:1000F000371D371D371D371D371D371D371D371D60
:10010000371D371D371D371D371D171D1F1D1B1DA3
:100110002B1D000001000800400000010004000049
:100120000100080020004000800000010004736D01
:10013000617274206B657900FEFEF8F86C6C68687B
:100140006D6D69696B6B6767FEF8F6F6F6FEF8F69B
:100150008E8D8E8D8E8D8E8D8E8D8E8D8E8D8E8DC7
:1001600039398E8D39656565010101010101010192
:100170000101010101010101000001010001010172
:10018000FEF8F6FB01020408102040800000FC008D
:100190001C322123242B3433433B424B3A31444D10
:1001A000152D1B2C3C2A1D22351A161E26252E36EF
:1001B0003D3E46455A76660D294E55545B5D5D4C75
:1001C000520E41494A580506040C030B830A0109E3
:1001D00078077C7E7C706C7D71697A746B72757740
:1001E0004A7C7B795A69727A6B73746C757D707115
:1001F000612F001412111F145911270000373F5EA0
:1002000048103A38302820184D153B3423322150FD
:100210002B404B1C43221D0000F1F2370F08101831
:1002200020283038404850575F6D00008100820020
:1002300083008A01210223022402250226022702CA
:100240002A02B500B600B700CD00E200E900EA00DE
:1002500083019201940100000000000000000000F2
:100260009190666768696A6B6C6D6E6F707172737E
:100270008586464800488E8D007172738F006A6BC8
:100280006E6D6546494A4B4C4D4E52504F51545835
:100290007172737475767778797A7B7C7D7E7F80D6
:1002A0008182838485868788898A8F00494C4A4D5C
:1002B0004B4E6A6E65504F5251540039534700738C
:1002C000656C656374206D6F6465006B6579206D86
:1002D000617070696E67006D6163726F0065786947
:1002E0007400626F6F74206D617070657200676F6B
:1002F0006F64206279657E00626F6F74206D61703B
:1003000070657220737461727421004D6163726F45
:1003100000313A53656C656374204D6163726F20E0
:10032000496E64657800323A436C656172204D61B4
:1003300063726F00393A436C65617220416C6C00E6
:10034000746F67676C650045786974004261636B20
:10035000004B6579204D617070657200313A4368D9
:10036000616E6765204C6179657200323A53656C45
:10037000656374204B6579202D20696E707574203B
:100380006B6579636F646500333A5361766520610C
:100390006E64204578697400343A45786974207732
:1003A0006974686F757420536176696E6700393AB5
:1003B000526573657420746F2044656661756C7452
:1003C000202843757272656E74204C6179657229BC
:1003D00000707332617672550063686F6F736520C9
:1003E0006C617965722028313A206E6F726D616C94
:1003F0002C20323A20464E2C20333A20464E3229C9
:100400002063757272656E743D200073656C656360
:1004100074206B65792028616E79206B657920796D
:100420006F752077616E74292000696E7075742075
:100430006B6579636F646520286D75737420332054
:100440006E756D626572732C20636C6561723A30F3
:10045000303029203A2000536176652026204578E7
:1004600069742C207468616E6B20796F752E00455D
:1004700078697420776974686F7574205361766940
:100480006E672C2073656520796F75206C617465CB
:10049000722E00526573657420746F206465666106
:1004A000756C742063757272656E74206C61796509
:1004B00072003E3E20006E6F7468696E6700536183
:1004C00076652063757272656E74206C61796572F1
:1004D000004C6F61642063757272656E74206C618C
:1004E00079657200736176696E672E2E2E00636FD8
:1004F0006C2C20726F77203A2000696E7075742022
:100500006D6163726F20696E646578202830317E7A
:1005100031322C2063616E63656C3A2030302C20C0
:100520006D7573742032206E756D6265727329204B
:100530003A200073656C65637420696E6465782089
:100540002830317E31322C2063616E63656C3A2035
:10055000303029203A2000696E707574206B6579FF
:1005600020286D6178203234206B6579732C2073DC
:10057000746F70203A207072657373204553432066
:10058000647572696E672031207365632900696E36
:1005900076616C6964206E756D6265722C20696E7F
:1005A00070757420616761696E2E00636C6561729D
:1005B0002E2E2E0020006D6163726F003A006F6E68
:1005C000006F666600656E61626C6520666E322043
:1005D0006C6564006C617A7920666E00050109061D
:1005E000A101050719E029E7150025019508750106
:1005F00081029501750881039505750105081901AA
:10060000290591029501750391030507190029FF3A
:1006100095067508150026FF008100C00501090236
:10062000A10185030901A10005091901290515008A
:100630002501750195058102750395018103050169
:10064000093009311581257F750895028106093821
:100650001581257F35004500750895018106050C3B
:100660000A38021581257F750895018106C0C005ED
:10067000010980A1018502150125B7190129B77566
:100680001095018100C0050C0901A101850115012A
:10069000269C0219012A9C02751095018100C0094F
:1006A000023B0002010080FA09040000010301017D
:1006B0000009210101000122400007058103080013
:1006C0000A090401000103000000092101010001E1
:1006D0002283000705830308000A040309041C039E
:1006E000770069006E006B00650079006C006500A2
:1006F000730073002E006B00720010037000730013
:1007000032006100760072005500120110010000F5
:1007100000081C42A02006010102000111241FBE96
:10072000CFE5D8E0DEBFCDBF10E0A0E6B0E0E2EF5D
:10073000F9E502C005900D92A63CB107D9F715E086
:10074000A6ECB0E001C01D92A737B107E1F70E9407
:1007500065280C94F72C0C940000A82FB92F80E08A
:1007600090E041E050EA609530E009C02D91822789
:100770009795879510F084279527305EC8F36F5FB3
:10078000A8F30895EADF8D939D930895CF93CFB793
:10079000CF93C395839BE9F7839B0EC0839B0CC0CB
:1007A000839B0AC0839B08C0839B06C0C0914E05F3
:1007B000C395C0934E05A3C0DF93C0914D05DD27BF
:1007C000CB5ADA4F839B02C0DF91E6CF2F930F9372
:1007D0001F9300B32FEF03FB20F94F933F9310B308
:1007E0004FEF012703FB21F93BE031C04E7F012F82
:1007F00010B3216028C0102F4D7F2260000000B38D
:1008000029C04B7F2460012F000010B32BC010B310
:10081000477F28602AC04F7E00B320612CC04F7DE7
:1008200010B320622FC04F7B00B3206432C0422738
:1008300000B349934FEF0000102713FB20F910B3CA
:100840001C70C9F1297F91F2012703FB21F900B344
:10085000237F89F2315058F1102713FB22F910B38E
:10086000277E79F2012703FB23F92F7C81F200B365
:10087000102713FB24F92F7971F200C010B3012760
:1008800003FB25F92F7359F200C000B3102713FBA7
:1008900026F9223040F200C010B3012703FB27F9EC
:1008A000243028F64F77206810B30000F9CF10E805
:1008B0001ABF002719C03B503195C31BD04010E828
:1008C0001ABF0881033CF9F00B34E9F020914B0585
:1008D0001981110F1213EDCF4A81441F093641F1DE
:1008E0000D3211F0013E29F7009353053F914F91CE
:1008F0001F910F912F91DF91CAB7C7FD4ACFCF91BA
:10090000CFBFCF91189520915305222379F31091F1
:1009100051051123C1F53430C2F1309351052093B4
:100920004C0510914D053BE0311B30934D052DC01A
:100930000091510501303CF50AE54F7049F43091C2
:10094000C20034FD24C00093C200C4E3D5E023C03C
:10095000433049F030913F0534FD19C000933F0505
:10096000C0E4D5E018C030916B0534FD10C0009391
:100970006B05CCE6D5E00FC02795A8F45150A9F43B
:10098000220F0000F9CF4AE503C042ED01C0432F1A
:10099000C4E1D0E032E011B31C60939A11BB02B302
:1009A00020E41CE05F93012756E002BB279520F46A
:1009B000515021F4220FF9CF012756E000003B5A95
:1009C00002BBD0F2279528F4515029F4220F0000E1
:1009D000F9CF012756E0279502BB20F4515021F4AE
:1009E000220FF9CF012756E02991332302BB21F6CC
:1009F000037F10915205110FC651D04002BB11F078
:100A000010934B0510E81ABF086011B3137F402FF5
:100A1000437F5F9100C000C002BB11BB42BB66CFE9
:100A200081B3836181BB82B38C7E82BB8E9A9698A0
:100A300008958093DC0008958091DC000895109261
:100A4000C6000895662361F0813011F4909A0895EC
:100A5000823011F4919A0895843069F4969A089539
:100A6000813011F490980895823011F4919808958E
:100A7000843009F4969808952223A9F18091D0003A
:100A80008330C1F484EF91E09093D8008093D70035
:100A90008091DA008C3038F58F5F8093DA009FEF19
:100AA000899FC00111246CE070E00E944D29609381
:100AB000D90008958430B9F484EF91E09093D80080
:100AC0008093D7008091DA00882369F08150809369
:100AD000DA009FEF899FC00111246CE070E00E9452
:100AE0004D296093D90008952091630030E0AC0156
:100AF000429FC001439F900D529F900D11246FEFB4
:100B000070E00E944D29CB010895089508950E9438
:100B10006F0B08959091D000992319F480E090E034
:100B200010C0913049F41092D6001092D500109266
:100B3000D4001092D3000895923031F48091630074
:100B400090E00E946F0B0895892F83508230A0F4AB
:100B500083E08093DA00943019F481E08093DA0026
:100B60008091DA009FEF899FC00111246CE070E052
:100B70000E944D296093D9000895809163008E31C1
:100B8000A1F08951809363008E3118F48EE1809337
:100B900063008091D000823011F40E948A0581E0C8
:100BA00090E09093CF008093CE00089580916300F1
:100BB0008F3FA9F090E049968F3F910511F00CF01E
:100BC0008FEF809363008091D000823011F40E94F7
:100BD0008A0581E090E09093CF008093CE00089545
:100BE00090989198969880E090E00E946F0B94986E
:100BF00081E08093DB0008950E943313882391F4F1
:100C00008091D00090E0019665E070E00E944D294F
:100C10008093D00081E090E09093CF008093CE004D
:100C20000E948A0508950E94CA1D882311F10E941E
:100C3000C71D282F8091DC009091DD0080FF0BC044
:100C4000992399F481E08093DD00222311F084E060
:100C50000DC085E00BC0992341F01092DD002223E6
:100C600011F082E003C083E001C080E08093CB00FC
:100C700007C08091DC0080FF02C0909A01C090986C
:100C80008091DC0081FF02C0919A01C0919882FF9F
:100C900002C0969A0895969808950E9413060E949D
:100CA0008A0508958091C600882309F495C10E94A1
:100CB0003313882309F090C10E949C1D882309F0FA
:100CC00079C11092CA001092C90081E0809362003D
:100CD0002BC08091C9009091CA0001969093CA00E0
:100CE0008093C900893C9105FCF08091DC009091D3
:100CF000620081FF06C0913011F491980BC0919A67
:100D000005C0913011F4919A05C091981092C800D5
:100D10001092C7008091620091E089278093620061
:100D20001092CA001092C9002091CB00222369F1D1
:100D30008091CC009091CD0001969093CD0080934E
:100D4000CC00853691052CF12530A1F0233091F0AF
:100D5000243011F0223011F490980DC00E94CA1D69
:100D6000882329F00E94C71D882329F003C08091A1
:100D7000DC0080FD909A1092CD001092CC00809102
:100D8000CB0081508093CB0004C01092CD00109214
:100D9000CC008091CE009091CF001816190624F552
:100DA00001969093CF008093CE00885E9340E1F44B
:100DB0001092CF001092CE006091D0008091D100AF
:100DC000681731F06093D1008BE090E00E94032C13
:100DD000609163008091D200861731F06093D20059
:100DE00089E090E00E94032C8091D000813009F0CE
:100DF00059C08091D3009091D400009761F4809104
:100E0000D5009091D60068E070E00E944D29CB019A
:100E10000E94740513C082309105A1F48091D50021
:100E20009091D60068E070E00E944D29CB0190952A
:100E300081959F4F81509F4F0E94740590E00E94C2
:100E40006F0B0EC08130910511F0039749F480912A
:100E5000D5009091D60001969093D6008093D5004E
:100E60008091D5009091D600885F97408CF01092C9
:100E7000D6001092D5008091D3009091D4000196B5
:100E800064E070E00E944D299093D4008093D300D9
:100E90008091D5009091D60001969093D6008093D2
:100EA000D50008958330D1F58091D7009091D80076
:100EB000009731F001979093D8008093D70028C015
:100EC0002091D9002223F1F08091D5009091D60095
:100ED00001969093D6008093D5000897CCF010929D
:100EE000D6001092D50021502093D9008FEF90E0CA
:100EF000821B91096BEE7FEF0E944D29645F609326
:100F0000DA0006C01092DA001092D6001092D500D6
:100F10008091D90090E00E9474053DC0843009F0B2
:100F20003EC08091D7009091D800009731F0019792
:100F30009093D8008093D70029C02091D9002F3FEB
:100F4000F1F08091D5009091D60001969093D60053
:100F50008093D5000897D4F01092D6001092D50057
:100F60002F5F2093D9008FEF90E0821B91096BEEE9
:100F70007FEF0E944D29645F6093DA0007C08CE028
:100F80008093DA001092D6001092D5008091D9009B
:100F900090E00E94740590E00E946F0B08951092FB
:100FA000D6001092D50083E090E09093D400809317
:100FB000D30008958091C7009091C8000196909346
:100FC000C8008093C700209160003091610028170D
:100FD00039070CF47ECEA8CE0895CF93DF93EC01B1
:100FE0000E94CA1D882329F00E94C71D882339F05A
:100FF00004C08091DC0080FF02C0909801C0909AEC
:101000008091DC0081FF02C0919801C0919ACE01CD
:101010000E94E61B0E94CA1D882329F00E94C71D5A
:10102000882339F004C08091DC0080FF02C0909AD0
:1010300001C090988091DC0081FF02C0919A01C0AC
:101040009198DF91CF91089589E090E00E94FB2B69
:10105000809363008093D2008BE090E00E94FB2B92
:101060008093D0008F3F11F41092D0008091D00077
:101070008093D1000E948A05809160009091610068
:101080000E942728909361008093600008958091CA
:10109000C600882361F481E08093C6000E94E409C1
:1010A00088E00E94120B0E94570B0E9424080895AA
:1010B0008091640008958091650008958091E0001A
:1010C000089582EF90E0089581EE90E0089581E028
:1010D00080936400E2EFF0E08081882319F01092A1
:1010E000640005C0319681E0E330F807A9F781E09C
:1010F00080936500E1EEF0E08081882319F0109282
:10110000650005C0319680E0E23FF807A9F78091BD
:101110006400882311F01092DF000895A1EEB0E082
:10112000E2EFF0E081E101900D928150E1F7089546
:10113000AF92BF92CF92DF92EF92FF920F931F93E5
:10114000CF93DF93DD2400E010E081E0A82EB12CE6
:10115000802F0E949D09C501002E02C0880F991F93
:101160000A94E2F7E82EC82EC094C2EFD0E0FF2424
:101170008F2D0E94AB09282F98818E2D892319F07D
:10118000222329F008C0222331F09E2901C09C218E
:101190009883DD24D394F394219681E1F81641F7E6
:1011A0000F5F1F4F0830110599F6DD2019F01092DE
:1011B000040107C080910401843618F48F5F809386
:1011C000040120E09091040180910301981709F433
:1011D00021E0822FDF91CF911F910F91FF90EF902F
:1011E000DF90CF90BF90AF9008950E949808089527
:1011F000CF92DF92EF92FF920F931F93CF93DF93E3
:10120000F090DF00FF2009F060C002EF10E0EE2454
:1012100031E0C32ED12CF8018081882309F440C02D
:10122000C0E0D0E096010C2E02C0220F331F0A94BA
:10123000E2F7F8018081822379F18091DE006E2D42
:101240004C2F0E94BA120E94C7118E3F89F0883F2E
:1012500019F422E0F22E0EC0863F19F493E0F92E25
:1012600009C08B3FC9F48091DE008230A9F410C020
:10127000FF24F3940E946D1F882351F08091650034
:10128000882321F48091E0008823E9F4F092DF00C4
:1012900081E08093E00019C02196C830D10511F695
:1012A000E3940F5F1F4FF1E1EF1609F0B4CF0E94F6
:1012B000C71D882321F082E08093DE0002C01092D7
:1012C000DE001092E000F090DE008F2DDF91CF91D4
:1012D0001F910F91FF90EF90DF90CF90089581E1E3
:1012E000E1EEF0E0DF01982F1D929A95E9F7E2EF29
:1012F000F0E0DF011D928A95E9F708950E949309B5
:1013000087E0809303018AE080930401089581308F
:1013100011F090E006C090E0613009F091E081E0CA
:101320009827892F08958FEF87BB88BB1ABA14BA04
:101330008BBB85BB8F98979A089521E030E002C05F
:10134000220F331F8A95E2F727BB209528BB84E143
:101350008A95F1F70895282F883058F449B381E031
:1013600090E002C0880F991F2A95E2F74095482324
:1013700016C0682F70E0803120F443B38FE090E016
:1013800003C040B387E190E0861B970B21E030E07B
:1013900002C0220F331F8A95E2F740954223842F23
:1013A00008950895089583B7887F826083BF12BE31
:1013B00089B7816089BF1092A7031092A803109289
:1013C000A9031092AA0308958EB5887F83608EBD0D
:1013D0001DBC1CBC89B7846089BF089585B5887F12
:1013E000846085BD14BC89B7806489BF1092AF0347
:1013F0001092B0031092B1031092B203089580E0EE
:1014000090E0FC01EE0FFF1FEB5FFE4F1182108298
:10141000019688309105A9F70E94D3090E94E4093A
:101420000E94EE097894089593B7987F982B93BF04
:1014300008959EB5987F982B9EBD089595B5987F89
:10144000982B95BD089583B7E82FF0E0E770F07012
:10145000EE0FFF1FEE5EFE4F25913491C9010895F6
:101460008EB5E82FF0E0E770F070EE0FFF1FEE5E34
:10147000FE4F25913491C901089585B5E82FF0E01C
:10148000E770F070EE0FFF1FE25EFE4F2591349182
:10149000C9010895883040F4E82FF0E0EE0FFF1FF7
:1014A000EB5FFE4F718360830895883040F4E82F2E
:1014B000F0E0EE0FFF1FEB5FFE4F118210820895E8
:1014C000EF92FF920F931F93CF93DF93EC0112B72C
:1014D0001092AB031092AC031092AD031092AE03C6
:1014E00083B7E82FF0E0E770F070EE0FFF1FEE5EBD
:1014F000FE4F2591349140E050E060E07BE187EBC6
:1015000090E00E946029B901CA01693B2DE8720789
:1015100026E0820720E09207A0F437E2C131D3072A
:1015200080F49E0140E050E00E94222928EE33E042
:1015300040E050E00E946029C901DA01BC01CD0100
:1015400021C028EE33E040E050E00E946029CA014B
:10155000B9019E0140E050E00E94222913C0809111
:10156000AB039091AC03A091AD03B091AE0385B7EE
:101570008F7885BF85B7806885BF889585B78F7759
:1015800085BF08C09B01AC01210F311D411D511DBC
:1015900079018A012091AB033091AC034091AD03F6
:1015A0005091AE0382B790E0A0E0B0E0542F432FFB
:1015B000322F2227822B932BA42BB52B8E159F0520
:1015C000A007B10760F2DF91CF911F910F91FF90BB
:1015D000EF9008951092A7031092A8031092A90308
:1015E0001092AA0308952091A7033091A803409177
:1015F000A9035091AA03B901CA0108951092AF033B
:101600001092B0031092B1031092B203089520918A
:10161000AF033091B0034091B1035091B203B901CF
:10162000CA010895893031F48FB582608FBD8FB5BE
:101630008E7F0AC08A3019F48FB5826002C08FB5E0
:101640008D7F8FBD8FB581608FBD1BBC1ABC19BC4F
:1016500018BC08952FB52E7F2FBD2FB522602FBD4A
:101660002EB528602EBD2EB520612EBD97BD86BD3E
:101670001BBC1ABC19BC18BC08958FB58D7F8FBDDB
:101680008FB58E7F8FBD8FB58F778FBD8FB58F7BD9
:101690008FBD8FB58F7D8FBD8FB58F7E8FBD089528
:1016A0008FB580688FBD8FB58F7B8FBD08958FB547
:1016B00080628FBD8FB58F7E8FBD08958FB58F7778
:1016C0008FBD8FB58F7B8FBD08958FB58F7D8FBDFB
:1016D0008FB58F7E8FBD08959BBD8ABD089599BD3E
:1016E00088BD08951F920F920FB60F9211242F9369
:1016F0003F934F935F936F937F938F939F93AF939A
:10170000BF93EF93FF938091A7039091A803A091BB
:10171000A903B091AA030196A11DB11D8093A7034F
:101720009093A803A093A903B093AA038091AB035D
:101730009091AC03A091AD03B091AE030196A11DB1
:10174000B11D8093AB039093AC03A093AD03B09312
:10175000AE038091050190910601892B29F0E0915B
:101760000501F09106010995FF91EF91BF91AF91AD
:101770009F918F917F916F915F914F913F912F91A9
:101780000F900FBE0F901F9018951F920F920FB6DB
:101790000F9211242F933F934F935F936F937F93F7
:1017A0008F939F93AF93BF93EF93FF938091070124
:1017B00090910801892B29F0E0910701F09108012F
:1017C0000995FF91EF91BF91AF919F918F917F917B
:1017D0006F915F914F913F912F910F900FBE0F909E
:1017E0001F9018951F920F920FB60F9211242F93EE
:1017F0003F934F935F936F937F938F939F93AF9399
:10180000BF93EF93FF938091AF039091B003A091AA
:10181000B103B091B2030196A11DB11D8093AF0336
:101820009093B003A093B103B093B20380910F01E2
:1018300090911001892B29F0E0910F01F091100196
:101840000995FF91EF91BF91AF919F918F917F91FA
:101850006F915F914F913F912F910F900FBE0F901D
:101860001F9018951F920F920FB60F9211242F936D
:101870003F934F935F936F937F938F939F93AF9318
:10188000BF93EF93FF938091130190911401892BE3
:1018900029F0E0911301F09114010995FF91EF9166
:1018A000BF91AF919F918F917F916F915F914F9178
:1018B0003F912F910F900FBE0F901F9018951F9280
:1018C0000F920FB60F9211242F933F934F935F9374
:1018D0006F937F938F939F93AF93BF93EF93FF93F8
:1018E0008091090190910A01892B29F0E091090169
:1018F000F0910A010995FF91EF91BF91AF919F91EE
:101900008F917F916F915F914F913F912F910F90A8
:101910000FBE0F901F9018951F920F920FB60F9247
:1019200011242F933F934F935F936F937F938F93E4
:101930009F93AF93BF93EF93FF9380910B0190918F
:101940000C01892B29F0E0910B01F0910C01099514
:10195000FF91EF91BF91AF919F918F917F916F9187
:101960005F914F913F912F910F900FBE0F901F905D
:1019700018951F920F920FB60F9211242F933F9339
:101980004F935F936F937F938F939F93AF93BF9387
:10199000EF93FF9380910D0190910E01892B29F017
:1019A000E0910D01F0910E010995FF91EF91BF912A
:1019B000AF919F918F917F916F915F914F913F91E7
:1019C0002F910F900FBE0F901F9018951F920F929E
:1019D0000FB60F9211242F933F934F935F936F9302
:1019E0007F938F939F93AF93BF93EF93FF938091D8
:1019F000110190911201892B29F0E0911101F091D0
:101A000012010995FF91EF91BF91AF919F918F9135
:101A10007F916F915F914F913F912F910F900FBEEA
:101A20000F901F90189580931601F8948091B4033D
:101A30008F7E8093B4038091B40388608093B40355
:101A400078940895F8948091B4038B7F8093B403C5
:101A500078948091150108958091B40390E0969553
:101A6000879596958795817008958091B40390E04D
:101A700034E0969587953A95E1F7817008958FEC5B
:101A800082BF8091B303833000F58B98939A809145
:101A9000B40380FF23C0829BA3C08091B303813035
:101AA00031F0813040F0823009F0F6C006C08399F1
:101AB00002C08DE096C082E094C08091B40383FFA1
:101AC000EBC093988B9A84E28CC08091B3038A31E7
:101AD00008F079C08091B40380FD08C08091B40300
:101AE00081608093B4038A98929A0895829B76C00D
:101AF0008091B303873140F4803118F58D3061F067
:101B00008F3009F055C00CC08831E1F1883158F1AF
:101B1000893109F04DC049C08091B4038D7F4DC01B
:101B20008091B4038B7F8093B403839B05C080E8CE
:101B30008093150181E014C01092180110921501D4
:101B400037C080911501869580931501839B30C025
:101B500080911501806880931501809118018F5F35
:101B60008093180125C0839B05C0809118018F5F69
:101B7000809318018091180180FD1AC08091B403F0
:101B8000826010C0839905C08091B4038260809305
:101B9000B4038091B40381FD0BC093988B9A80911C
:101BA000B40384608093B40303C08B98939A6CC091
:101BB00092988A9A8091B4038E7F8093B403809127
:101BC000B3038F5F0EC08091B3038F3208F064C0FF
:101BD0008091B40380FF10C0829906C08B98939ABD
:101BE00081E08093B30308958091B4038E7F809346
:101BF000B40392988A9A08958091B4038160809387
:101C0000B4038A98929A8091B3038C3228F4853277
:101C100080F48432E1F507C08D3299F18D32E8F01D
:101C20008E32A9F531C08091160180931701109270
:101C300018018091170180FF08C08B98939A8091BA
:101C400018018F5F8093180102C093988B9A80913E
:101C500017018695809317011AC08091180180FFA3
:101C600003C093988B9A02C08B98939A8091B40387
:101C7000877F8093B4038091B40380618093B40321
:101C800006C08B98939A03C01092B3030895809175
:101C9000B3038F5F8093B30308951092B30381E180
:101CA0008093B4038A98929A8B98939A0E94D3094E
:101CB00082E00E94140A80E06FE37DE00E944A0AFD
:101CC0008FEC82BF089586E084BD8091B50390912A
:101CD000B60301969093B6038093B503089598EAEE
:101CE000899FF0011124E050F849E49180E0E1502F
:101CF000EE3F08F481E008958091190108950F9353
:101D00001F931092B6031092B50310921B0110920C
:101D10001A0108EA80911C0190911D01883A9105F1
:101D200054F5E0916600E09F90011124F901E80F5D
:101D3000F91FE050F84944910196280F391F2050AF
:101D40003849F9011491019690931D0180931C016B
:101D5000842F81508E3F78F4842F0E947B1CE12FCA
:101D6000EF77C1F28BE4E89FC001112490931B012F
:101D700080931A0105C01092190180E00E941E0A8A
:101D80001F910F91089580911901882369F0209186
:101D9000B5033091B60380911A0190911B01281769
:101DA000390714F00E947F0E0895982F8091190131
:101DB000882391F481E0809319019093660010923A
:101DC0001B0110921A0110921D0110921C010E9419
:101DD0007F0E85B5836085BD08950E94EE0985E07C
:101DE00063E67EE00E944A0A80E00E941E0A08958F
:101DF00090932101809320010895DF92EF92FF924A
:101E00000F931F93082FF62EE42ED22E642F422F0D
:101E10002F2D0E941B1E182F0E948513882339F036
:101E2000802F6E2D4D2D2F2D0E94421813C011238F
:101E300089F0FF2029F0802F0E94B114882351F4EB
:101E4000E0912001F09121010280F381E02D802FAB
:101E50006F2D09951F910F91FF90EF90DF900895DE
:101E6000DF92EF92FF920F931F93F82EE62E142F1E
:101E7000D22E442321F00E94C7110E946D12E11658
:101E8000A1F08F2D612F0E94CD1D8F2D0E94E91D85
:101E9000882359F0112319F08F2D61E002C08F2D96
:101EA00060E04D2D202F0E94FD0E1F910F91FF909D
:101EB000EF90DF9008952F923F924F925F926F9232
:101EC0007F928F929F92AF92BF92CF92DF92EF92CA
:101ED000FF920F931F93DF93CF9300D00F92CDB754
:101EE000DEB70E94F508882309F4D0C00E94F808E4
:101EF000882E0E9461083C010E9464088983492E53
:101F00000E946D1F882329F080911F01882309F00A
:101F10005AC080911E01881509F455C0EE24FF2493
:101F200091E0292E312C3FC05A8080911E01652DF1
:101F30004B2D0E94BA12082F882D6A814B2D0E94CA
:101F4000BA12A82E0817F1F0802F0E941D138823C3
:101F5000C9F4EA81FB81E60DF71D1081F60180814D
:101F6000892139F0802F61E040E02B2D0A810E9409
:101F7000300F192139F08A2D60E041E02B2D052D1D
:101F80000E94300F8A819B8101969B838A830894EB
:101F9000C11CD11C419741F60894E11CF11C98E04A
:101FA000E916F10481F0BE2CC1010E2C02C0880F8D
:101FB000991F0A94E2F7982E2981342DC9016C01EA
:101FC0001B821A82B1CF80921E010E945E0880930C
:101FD0001F010E9462120E946108182F092F0E949F
:101FE00064086C01212F302FC9017C01BB2481E0E2
:101FF000682E712CF6018081882321F4F7018081FD
:102000008823A9F144245524942CC301042C02C034
:10201000880F991F0A94E2F7F60110811823F7013F
:1020200000810823882D6B2D442D0E94BA12A82E02
:102030000E949C1D882349F0101791F00023B9F0ED
:102040008B2D642D0E949F1D12C060E0111161E074
:1020500040E0011141E08A2D292D0B2D0E94300F07
:102060000894411C511CF8E04F16510469F6B394D2
:102070000894C11CD11C0894E11CF11C81E1B81624
:1020800009F0B8CF0E948E080E9467080F900F9049
:102090000F90CF91DF911F910F91FF90EF90DF9004
:1020A000CF90BF90AF909F908F907F906F905F90F8
:1020B0004F903F902F9008950F931F930E944E1DB5
:1020C000882349F10E94BC1C882329F50E94721DB7
:1020D000092F813051F4E0912001F091210102801B
:1020E000F381E02D892F61E015C0892F8756883054
:1020F00040F40E945F12182F802F0E942C13182387
:1021000051F4E0912001F09121010280F381E02D52
:10211000802F60E009950E945B0F1F910F91089539
:10212000809122010895982F809122018823B9F08F
:1021300080912401882399F09A3661F09B3618F437
:10214000993669F405C09D3639F09E3641F406C0D3
:102150009AE605C099E603C09EE601C09DE6892F78
:102160000895982F80912301882329F490932401C6
:1021700081E08093230108954091220181E0482766
:102180004093220187E090E061E00E94FD1B0895EA
:1021900087E090E061E00E94EF1B809322010895A8
:1021A0008EE291E00E94FF1484EB95E00E94FF1400
:1021B0008CEB95E00E94FF1484EB95E00E94FF14E5
:1021C00080912201882319F08EEB95E002C081EC0A
:1021D00095E00E94FF140895813051F487E00E9439
:1021E00078130E94BC100E94D0100E94C113089561
:1021F000833031F484E60E9478130E94901308958E
:10220000863019F48EE60E94781308950E94D0104B
:1022100008950F931F930E94D0100E94C11381E074
:102220000E94401D0E94A1150CEB15E0C8010E9400
:10223000FF1480E493E00E94FF140E94C11383E026
:102240000E94401D0E94A115C8010E94FF1487E44E
:1022500093E00E94FF140E94C11386E00E94401D7B
:102260000E94A115C8010E94FF148CE493E00E9413
:10227000FF140E94C1131F910F910895982F809110
:10228000260180FF0FC0993611F49AE60BC09A36EA
:1022900011F499E607C09D3611F49EE603C09E3600
:1022A00009F49DE6892F08951F930E945F12182F4D
:1022B00081E00E945512882319F01092270118C05E
:1022C000809125011817A1F01C3031F0103C21F04D
:1022D000183411F0143841F410922B0110922A0195
:1022E00082E08093270102C01092270110932501FC
:1022F000409127014423B1F180912A0190912B0153
:10230000019690932B0180932A012091280130910E
:1023100029012817390734F54230E1F482E390E0CF
:102320000E94ED078091260180FF04C08E7F80937C
:10233000260110C081608093260184EF91E02CE299
:1023400031E0F9013197F1F70197D9F784E690E090
:102350000E94ED0788E090E0609126010E94032C26
:10236000109227011F91089588E090E00E94FB2BB6
:10237000809326018F3F11F41092260188E893E1A3
:102380000E94272890932901809328010895E82F1F
:10239000865D883140F4F0E0EE59FF4FE4918E2FD6
:1023A0000E94B512E82F8E2F0895282F865D883160
:1023B000A8F4822F90E0865D9040FC01E859FE4F22
:1023C000E491EE2321F0822F0E94C71106C0805BAA
:1023D0009E4FFC0184910E94B512282F822F0895F0
:1023E0001F93282F80912C016623E9F0982F9F5F7F
:1023F00090932C0180912D01882331F081E080930E
:102400002E0110922F014CC0822F865D883108F07A
:1024100047C0913009F044C020932F0190932D01C3
:1024200010922E013DC0882319F0815080932C0119
:10243000265D283168F510912F01112349F1809113
:102440002E01882329F5812F865D883148F4E12FFC
:10245000F0E0E658FF4FE4918E2F0E94B512182F3E
:10246000812F0E947B1C812F0E947B1C10922F01C8
:102470000E94A313882361F0812F60E040E021E0F7
:102480000E944218812F60E040E020E00E94421844
:1024900080912C01882321F410922E0110922D019D
:1024A0001F91089580E391E00895873010F080E057
:1024B0000895E82FF0E0E05DFE4F8081089580915F
:1024C0003001089581E08093370187E0E0E3F1E097
:1024D000DF011D928A95E9F708951F93982F87567B
:1024E000883048F410913001892F0E942C13182B4A
:1024F000109330010CC080913701873040F4E82FF1
:10250000F0E0E05DFE4F90838F5F809337011F9175
:10251000089591E1899FC0011124860F911D23E048
:10252000880F991F2A95E1F7840F911DE0916D00A6
:10253000F0916E00E80FF91FE4918E2F089591E15C
:10254000899FC0011124860F911D33E0880F991FC8
:102550003A95E1F7840F911DE0916D00F0916E00C6
:10256000E80FF91FE4918E2F08950E9493100E94A6
:102570003E110895EF92FF920F931F93082FF62EAE
:10258000E42E0E948513882309F10E94A313882357
:10259000C1F1033010F010E013C088E8089FC001BB
:1025A00011240D962F2D30E063E0220F331F6A9522
:1025B000E1F7820F931F8E0D911D0E94FB2B182FA8
:1025C000812F0E9495138823B9F417C00330A0F41B
:1025D00088E8089FC00111240D962F2D30E053E0AC
:1025E000220F331F5A95E1F7820F931F8E0D911D15
:1025F0000E94FB2B182F01C010E0812F81508E3FCD
:10260000A0F081E1089FC00111248F0D911D43E0CE
:10261000880F991F4A95E1F78E0D911DE0916D008D
:10262000F0916E00E80FF91F1491812F0E94B512EE
:102630001F910F91FF90EF900895982FE0E8F1E03F
:102640008491981711F481E00895319681E0E4387F
:10265000F807B1F780E00895E82FF0E0E35EFE4F61
:10266000E4918E2F0895809138010895809138016A
:10267000882329F481E0809338010E94F0050895B1
:1026800080913801882311F58091390190913A01A8
:10269000A0913B01B0913C010196A11DB11D809319
:1026A000390190933A01A0933B01B0933C01805EC5
:1026B0009349A440B04054F01092390110923A016D
:1026C00010923B0110923C010E94361308958091B4
:1026D0003801882321F0109238010E944D06109293
:1026E000390110923A0110923B0110923C01089579
:1026F00080934C01089580914801817008958091E4
:102700004801826080934801089580914801827059
:10271000089580914A01089581E080934A010895C7
:102720001092480110924E01089590E08D5B88311F
:1027300008F491E0892F089590E0895C8C3008F4CA
:1027400091E0892F089590E080914C018B3009F43D
:1027500091E0892F089580914401089580E3E8E590
:10276000F4E0DF01982F1D929A95E9F71092880402
:10277000E8EBF3E0DF011D928A95E9F7109243013F
:10278000089588E20E947B1C88E20E947B1C0895C9
:102790001F93182F0E94AE131093B7038BE0809302
:1027A0004C018091480182608093480181E08093D0
:1027B000440184EF91E00E94ED0788EE93E02CE263
:1027C00031E0F9013197F1F70197D9F784EF91E002
:1027D0000E94ED071F9108958091480181608093C8
:1027E000480182E390E00E94ED0784EF91E02CE243
:1027F00031E0F9013197F1F70197D9F782E390E0E1
:102800000E94ED0784EF91E02CE231E0F90131976D
:10281000F1F70197D9F784E690E00E94ED0708955B
:102820000E94EC1308951F93CF93DF938091B70319
:102830008C30C8F4C0E0D0E010E38091B703819FF2
:10284000C00111248B559E4FFE01E85AFB4F8C0F9F
:102850009D1F60810E94032C2196C033D10569F72A
:102860008FEF8093B703DF91CF911F9108950E945E
:1028700013148FEF8093B70310924C011092440110
:102880001092480110924E0188EE93E00E94ED07ED
:1028900008950F931F93CF93DF93982F8C30C0F43C
:1028A00080E3989FC0011124EC01CB55DE4F8C01D1
:1028B0000B521E4FCE010E94FB2B982F81508E3F52
:1028C00018F4892F0E947B1C2196C017D10791F71D
:1028D000DF91CF911F910F910895CF92DF92EF92E8
:1028E000FF920F931F93CF93DF939091570188E846
:1028F000989F700111248DE090E0E80EF91ECC2421
:10290000DD2417C0CE018E0D9F1D0E94FB2BF80108
:1029100081938F012196C830D105A1F70894C11C7D
:10292000D11C88E090E0E80EF91E91E1C916D104AF
:1029300059F0860183E0000F111F8A95E1F70053DB
:102940001C4FC0E0D0E0DECF10925601109255012E
:10295000DF91CF911F910F91FF90EF90DF90CF907B
:1029600008950F931F93182F8091480180FD27C071
:10297000012F0D5B083118F50E944E1D8823F9F4D4
:10298000193C90F0195C80E3189FC00111248B550D
:102990009E4F0E94FB2B81508E3F98F40E945F1D3A
:1029A000812F0E9449140DC0802F0E946F0E882332
:1029B00041F00E945F1D802F0E94D50E02C080E072
:1029C00001C081E01F910F9108950F931F93FC01A7
:1029D00080810E94CB1C8C01882319F088E60E941C
:1029E0007B1C812F0E947B1C812F0E947B1C00235B
:1029F00019F088E60E947B1C1F910F910895CF92D9
:102A0000DF92EF92FF920F931F93DF93CF930F927A
:102A1000CDB7DEB78C01009711F52FC000D000D0E4
:102A200000D0EDB7FEB73196ADB7BEB71296FC92A7
:102A3000EE921197D382C282992787FD9095958354
:102A400084830E94FA298DB79EB706960FB6F89434
:102A50009EBF0FBE8DBFC7010E94E51408C07E0156
:102A60000894E11CF11C9FE6C92E90E0D92EF801D4
:102A70000F5F1F4F8491882389F60F90CF91DF91CC
:102A80001F910F91FF90EF90DF90CF90089583E911
:102A900094E00E94FF140E94C11328ED33E080E00F
:102AA00090E00BC01192E217F307E1F701969F0146
:102AB000285F3F4F8131910549F0FC0143E0EE0F63
:102AC000FF1F4A95E1F7E053FC4FECCF81E090E027
:102AD000909356018093550108958BEA95E00E94EA
:102AE000FF140E94C11381E0809341018CE0809328
:102AF0004E0110924C01089580915501909156011C
:102B0000892B29F41092480110924E01089584EE09
:102B100094E00E94FF140E94C11381E08093410160
:102B20008BE080934E0180914C0180934D01109277
:102B30004C01089581ED93E00E94FF140E94C1139F
:102B40000895AF92BF92CF92DF92FF920F931F939F
:102B5000DF93CF930F92CDB7DEB78C01FF246E01C8
:102B60000894C11CD11C5FE6A52E50E0B52E25C0EF
:102B700000D000D000D0EDB7FEB73196ADB7BEB7EC
:102B80001296DC92CE921197B382A282800F911F8F
:102B9000DC018C91992787FD9095958384830E9411
:102BA000FA298DB79EB706960FB6F8949EBF0FBE52
:102BB0008DBFC6010E94E514F3948F2D90E0F801BB
:102BC00001900020E9F73197E01BF10B8E179F076A
:102BD00078F20F90CF91DF911F910F91FF90DF90CE
:102BE000CF90BF90AF9008950F931F9386EB95E021
:102BF0000E94FF1404EB15E0C8010E94FF148091AD
:102C0000B7038F5F0E94401D0E94A115C8010E945A
:102C1000FF148BEA95E00E94FF140E94C11381E02B
:102C2000809341018DE080934E0110924C011F91E1
:102C30000F9108950F931F930E94C1138BE093E0AF
:102C40000E94FF140E94C11381E193E00E94FF14CF
:102C50000E94C11386E293E00E94FF140E94C113F8
:102C600083E00E94401D0E94A1150CEB15E0C801F5
:102C70000E94FF1487E493E00E94FF140E94C11396
:102C800086E00E94401D0E94A115C8010E94FF1409
:102C90008CE493E00E94FF140E94C11384E393E04C
:102CA0000E94FF140E94C11387E080934C011F9182
:102CB0000F9108951F930E94C1138FEB92E00E9421
:102CC000FF140E94C11381E00E94401D0E94A115C3
:102CD0008CEB95E00E94FF1487ED92E00E94FF14B8
:102CE0000E94C11382E00E94401D0E94A1158CEB3E
:102CF00095E00E94FF148BEC92E00E94FF140E946A
:102D0000C11310E01CC0809162018F5F810F0E948F
:102D1000401D0E94A1158CEB95E00E94FF14E12F4D
:102D2000F0E0EE0FFF1FE75AFE4F0190F081E02D1B
:102D30000190F081E02D09950E94C1131F5F8091E1
:102D40004201181700F381E0809341018EE08093E7
:102D50004E0110924C011F91089583E0E1E5F1E0EE
:102D6000DF011D928A95E9F71092540110925701E4
:102D700010924B010E945A16089581E08093410100
:102D800080914C01893090F4873008F040C0833046
:102D900091F1843030F48130F9F0823009F05FC075
:102DA00027C0853071F1863078F528C08D30B9F1B3
:102DB0008E3048F48A3009F447C08A3068F18B308D
:102DC00009F04DC02FC08E3609F447C0883789F10D
:102DD000843609F044C038C089ED93E00E94FF14A6
:102DE000809157018F5F0E94401D0E94A1151EC057
:102DF0008BE094E019C08AE294E00BC087E594E090
:102E000025C08FE694E022C01092410128C082EBD9
:102E100094E00E94FF1423C08AEF94E0FACF83E38A
:102E200095E0F7CF87E595E00E94FF140E94C1135B
:102E300016C088EF92E00E94FF140E94C113109206
:102E40004C010E94981D0BC08EEE92E00E94FF1470
:102E50000E94C11310924C0102C00E945A1688EEC3
:102E600093E02CE231E0F9013197F1F70197D9F7BE
:102E7000089580914401882319F00E943714089521
:102E80000E94131487E080934C010E94C1130E949A
:102E9000BD1608950F931F93182F062F8D3B08F032
:102EA00053C080914001882371F010923F0110922D
:102EB0004001812F0E947B1CE0918804F0E0E95AD8
:102EC000FB4F10822EC0662369F080914301883148
:102ED000D8F58F5F8093430188EB93E0612F0E94C8
:102EE0006F1C0EC088EB93E0612F0E94231CBC0175
:102EF0008FEF6F3F780741F188EB93E00E943D1C14
:102F000080918804E82FF0E0E85AFB4F10838F5F30
:102F100080938804812F0E947B1C809188048033D9
:102F200018F00E94391710C0002351F0193241F4F3
:102F300081E080933F0110923E0110923D0104C058
:102F400010923F01109240011F910F9108951F931D
:102F5000CF93DF93C0E0D0E010E38091B703819F6F
:102F6000C00111248B559E4F8C0F9D1F60E00E9465
:102F7000032C2196C033D10581F787E080934C0163
:102F80000E94BD16DF91CF911F910895CF93DF93DB
:102F9000C5EAD1E0CE0160E00E94032C219683E0D7
:102FA000C53ED807B9F787E080934C010E94BD1653
:102FB000DF91CF910895BF92CF92DF92EF92FF926F
:102FC0000F931F93CF93DF93EE24FF24CC24DD24B3
:102FD000E8E8BE2E1EC0809157018B9DC0011124D0
:102FE0000D968C0D9D1D8C0F9D1FF80161918F0119
:102FF0000E94032C2196C830D10569F70894E11C82
:10300000F11C88E090E0C80ED91E91E1E916F104A8
:1030100059F0870173E0000F111F7A95E1F7005313
:103020001C4FC0E0D0E0D7CF10925601109255014E
:1030300080914D01843039F480934C011092480105
:1030400010924E0113C0813089F40E94C11381EDAA
:1030500094E00E94FF140E94C11387E080934C010A
:1030600080915801809357010E946D140E94BD16F3
:10307000DF91CF911F910F91FF90EF90DF90CF9054
:10308000BF900895EF92FF920F931F93CF93DF931A
:10309000982FF62EE42E022F80914101882309F00B
:1030A00066C2892F0E94C711182F80914C018B3066
:1030B00009F04DC2812F602F0E944A1758C2CA30B2
:1030C000D10508F054C2E0915401F0E0EF5AFE4FF0
:1030D000C0838C2F0E94401D0E94A1150E94C11325
:1030E0009091510180914C01883009F055C0913088
:1030F00029F490934B010E941A16D1C19230F9F431
:1031000090934B010E946D140E94C11381E593E0DE
:103110000E94FF140E94C1138CE593E00E94FF14EB
:103120000E94C1138BE693E00E94FF1481E080931C
:1031300041018AE080934E0110924C01B0C196305B
:1031400021F490934B0184E645C0993029F489E03D
:1031500080934B0188E73EC0E92FF0E031978091E2
:103160006201E81BF1098091420190E0E817F9073C
:103170000CF095C183E680934B01E0936101F0E090
:10318000EE0FFF1FE75AFE4F0190F081E02D028005
:10319000F381E02D09952AC0873009F080C196306F
:1031A00019F48EE680934C0180914B01823001F539
:1031B000913011F0923019F490934C0170C193301A
:1031C00031F484E080934C010E947C1568C19430F6
:1031D00041F485E080934C011092480110924E0119
:1031E0005EC1993009F05BC10E94471587E055C167
:1031F0008130A9F4913011F489E04FC1923011F47B
:103200008DE04BC1933011F48AE0E4CF993009F09E
:1032100046C18CE080934C010E946D1540C18336FD
:1032200009F03DC1E0916101F0E0EE0FFF1FE75AA8
:10323000FE4F0190F081E02D0480F581E02D892F73
:10324000612F4F2D2E2D00E0099529C1923099F064
:10325000CA30D10508F08BC180915401E82FF0E00D
:10326000EF5AFE4FC0838F5F809354018C2F0E94D2
:10327000401D0E94A1152A9728F080914C018230B0
:1032800009F075C180914C01833009F40BC1843081
:1032900038F4813009F475C0823009F055C1A4C0FA
:1032A000893021F08D3009F04FC12DC0809154013B
:1032B0008230F9F4909151018AE0989F9001112495
:1032C00080915201280F311DC90101970C9750F4CC
:1032D000822F81508093B7038BE080934C010E9432
:1032E000AE131CC1232B09F013C187E080934C015E
:1032F00015C188EE93E02CE231E0F9013197F1F746
:103300000197D9F734C180915401823081F59091B1
:1033100051018AE0989F9001112480915201280F59
:10332000311DC90101970C9760F4822F8150809361
:10333000B70387E080934C010E94C1130E94F415EB
:103340000EC0232B21F487E080934C0106C00E941D
:10335000C1138EE895E00E94FF140E94C11383E020
:10336000E1E5F1E0DF011D928A95E9F798C088EE6A
:1033700093E02CE231E0F9013197F1F70197D9F7A9
:10338000F6C09091510180915701833050F5092F7B
:103390000150801731F1033020F580915501909153
:1033A0005601181619066CF40E94C1138EEB94E0B6
:1033B0000E94FF140E94C1130E947C1500935801C3
:1033C0006EC00E94C11381ED94E00E94FF140E9420
:1033D000C11387E080934C01009357010E946D1444
:1033E0005EC00E94C11302CFF0924F01E0925001E3
:1033F0008EEE94E00E94FF1480914F018F5F0E9437
:10340000401D0E94A11582E790E00E94A1158091C5
:1034100050018F5F0E94401D0E94A11585E790E03A
:103420000E94A115809157018F5F0E94401D0E944C
:10343000A1158EE790E00E94A1158091570160913F
:10344000500140914F010E949F120E94401D0E9416
:10345000A11588E890E00E94A11580914F01E091AC
:103460005001F0E0B3E0EE0FFF1FBA95E1F7E80F6F
:10347000F11DE053FC4F808190E08F3F910511F4E6
:1034800080E090E00E94401D0E94A11582E990E03A
:103490000E94A1150E94C11383E080934C011092F9
:1034A000540152C080915401833009F043C090917F
:1034B000510184E6989FA0011124809152012AE0D5
:1034C000829FC0011124480F591F80915301480F5A
:1034D000511D4F3F5105E4F480914F01E09150019F
:1034E000F0E0A3E0EE0FFF1FAA95E1F7E80FF11D52
:1034F000E053FC4F408387E080934C01809155015D
:10350000909156010196909356018093550106C003
:103510000E94C1138EE895E00E94FF1483E0E1E56C
:10352000F1E0DF011D928A95E9F7109254010E94A3
:10353000C1130AC088EE93E02CE231E0F901319723
:10354000F1F70197D9F713C00E94BD1610C00023F0
:1035500071F484E990E0612F0E94231CEC019091AA
:103560004C01892F8750823008F070CEA8CDDF91B2
:10357000CF911F910F91FF90EF9008950E94C1137A
:1035800088E893E00E94FF140E94C11388E993E049
:103590000E94FF140E94C11386E00E94401D0E94F9
:1035A000A1158CEB95E00E94FF148CE493E00E943F
:1035B000FF140E94C1138EEA93E00E94FF140E9440
:1035C000C11387E080934C010E94BD1608950F93AC
:1035D0001F9386E00E94401D0E94A1150CEB15E090
:1035E000C8010E94FF148DED92E00E94FF140E941A
:1035F000C11389E00E94401D0E94A115C8010E94CC
:10360000FF1482EE92E00E94FF140E94C11388E032
:1036100080934C010E94BD161F910F9108950E9446
:103620005F12982F8091480180FD18C08091490158
:103630009817A1F0973261F480914501882341F4F5
:10364000109247011092460181E08093450104C029
:1036500010924801109245019093490180914801D0
:1036600080FF0FC081FD0DC00E945B08882349F0D8
:10367000809148018260809348010E949A150E94BF
:10368000AD16809148018823C9F4809145018130AD
:10369000A9F48091460190914701019690934701CA
:1036A0008093460120919F003091A0002817390790
:1036B0002CF40E94EC1382E0809345018091480134
:1036C00081FF40C080914101882319F10E944E1D65
:1036D0008823F9F480914E018B3019F40E94DB1796
:1036E00016C08E3019F40E94E71A11C08A3019F4FE
:1036F0000E94BE1A0CC08D3019F40E94A71707C093
:103700008C3019F40E94C61702C010924101109229
:103710004E0180913F018823A9F080913D01909155
:103720003E01019690933E0180933D01895E934056
:103730004CF081E08093400189E26FEF4FEF20E091
:103740000E94421808950E949C1D882319F010922F
:103750004A01089580914A01813021F40E94EC13BE
:1037600010924A01089584EC99E00E9427289093D2
:10377000A00080939F0082E080936201209142012B
:10378000E22FF0E0A9E5B1E0EE0FFF1FEA0FFB1F0B
:103790008EEA90E0918380832F5FE22FF0E0EE0FBE
:1037A000FF1FEA0FFB1F87E690E0918380832F5F66
:1037B000822F90E0880F991FA80FB91F87EA90E029
:1037C0008D939C932F5F20934201089528EB3BE05B
:1037D00003C0F9013197F1F70197D9F708951F93C5
:1037E000162F0E94FB2B90E002C0959587951A95A5
:1037F000E2F7809581701F9108950F931F93062F14
:10380000142F0E94FB2B282F112361F481E090E0FC
:1038100002C0880F991F0A95E2F7682F609562230E
:10382000682B0AC081E090E002C0880F991F0A95BA
:10383000E2F7682F6095622387E090E00E94032CF6
:103840001F910F910895CF93DF93EC01DC010D9050
:103850000020E9F71197A81BB90B70E0AD010E9499
:10386000B129009719F4EFEFFFEF03C0FC01EC1B47
:10387000FD0BCF01DF91CF9108959B01FC010190D9
:103880000020E9F73197E81BF90B6F5F7F4F680F56
:10389000791FE21BF30B820F931FAF010E94C72910
:1038A0000895FF920F931F93F42E9B01DC010D905E
:1038B0000020E9F78C01060F171FA81BB90BA61BE8
:1038C000B70B2F5F3F4F820F931FB801AD010E94CE
:1038D000C729F801F0821F910F91FF900895462F9C
:1038E000DC010D900020E9F71197A81BB90BBD0171
:1038F0000E94511C0895282F809198019091990160
:10390000019660E071E00E944D29FC0190939901BD
:103910008093980180919601909197018E179F074F
:1039200059F4009719F48FEF90E001C0019790933C
:103930009901809398010895E656FE4F20830895DB
:103940002091960130919701809198019091990171
:103950002817390711F480E00895C901019660E045
:1039600071E00E944D29FC0190939701809396018C
:10397000E656FE4F8081089540E0209196013091F7
:10398000970180919801909199012817390709F4BE
:1039900041E0842F0895982F81568A3118F4292FF9
:1039A0002D5510C0892F81548A3120F4292F2D5391
:1039B00032E009C0892F8153893010F020E002C025
:1039C000292F235130E0892F992787FD9095A92F22
:1039D000B92FFC01B097EF35F10508F048C0E65D5E
:1039E000FF4FEE0FFF1F0590F491E02D09942EE19B
:1039F00041C02FE13FC020E23DC021E23BC022E2B6
:103A000039C023E237C024E235C025E233C026E2C4
:103A100031C027E22FC02CE22EC02DE22CC02DE2B7
:103A200029C02EE228C02EE225C02FE224C02FE2BA
:103A300021C020E320C020E31DC021E31CC021E3FE
:103A400019C023E318C023E315C024E314C024E302
:103A500011C025E310C025E30DC026E30CC026E30A
:103A600009C027E308C027E305C028E304C02223D8
:103A700011F428E332E0832F922F089527E2FBCF41
:103A80000F931F9303E611E090E0B8014AE050E085
:103A90000E94D929C8011F910F9108952091960184
:103AA00030919701809198019091990128173907D9
:103AB00019F081E090E008950E947C0E0895209115
:103AC0009601309197018091980190919901281762
:103AD000390739F480E3E6E6F1E0DF011D928A95CB
:103AE000E9F708951F93CF93DF930E94A01C182F2E
:103AF000C6E6D1E0882331F480E3FE0111928A9575
:103B0000E9F70AC0CE01612F0E94231CBC0197FD7A
:103B100005C0CE010E943D1C82E005C0CE01612F90
:103B20000E946F1C81E0912FDF91CF911F9108952A
:103B300081E080939A02089580919A0208950F93EC
:103B40001F93082F162F81EA90E00E94A115812F64
:103B50000E94401D0E94A11583EA90E00E94A115D9
:103B6000802F0E94401D0E94A11585EA90E00E94CE
:103B7000A1151F910F9108950E940F1B0E945411CF
:103B80000E94C30E0E94CA1E0E9452060895809190
:103B90009C0208958091A10208956623C9F0843F94
:103BA00051F480919F02823011F483E001C081E0E2
:103BB00080939F020895833F59F48091A002823040
:103BC00021F483E08093A002089581E08093A00215
:103BD0000895982F80919F02823059F08091A00221
:103BE000823029F49A3629F080E09E3619F081E07F
:103BF000089580E00895FC0180818130A1F482E085
:103C0000808382E390E00E94ED0784EF91E02CE254
:103C100031E0F9013197F1F70197D9F784E690E0A7
:103C20000E94ED070895833029F4108284E690E025
:103C30000E94ED070895EF92FF920F931F93182FA4
:103C4000F62EE42E022F0E941D13882309F09AC03D
:103C5000812F6F2D4E2D202F0E943C05812F602F2C
:103C60000E94F011812F0E94D511182F0E941D1360
:103C7000882309F087C0002309F474C01C3F49F071
:103C800080919B028823B1F11A32A1F510929C0217
:103C900006C080919C0291E0892780939C028091CC
:103CA000A1028823C1F480919C02882319F484E640
:103CB00090E00FC084E690E00E94ED0780E293E080
:103CC0002CE231E0F9013197F1F70197D9F786E459
:103CD00090E00E94ED0780919C020E94D1098091A2
:103CE000A102882309F44EC081E060919C020E94E9
:103CF000220548C080919D02882361F0812F0E9497
:103D00009C13882339F0195C1093AD0081E08093F7
:103D10009E0238C0193221F481E080939B0235C0A5
:103D200080919B02882311F0193311F01D3F19F483
:103D30000E94FC0527C01A3F19F40E94D60522C034
:103D4000193F19F40E94BD051DC0123FE9F40E94FD
:103D5000AB13882319F00E94371414C081E08093BC
:103D60009D0210C01C3F71F0193219F410929B0291
:103D70000BC0123F19F410929D0204C0173F21F4AA
:103D80000E94101480E001C081E01F910F91FF900C
:103D9000EF9008950E945808882341F08FE992E03F
:103DA0000E94FB1D80EA92E00E94FB1D0E945B08BE
:103DB000882379F080919E02882359F010929E0208
:103DC0008091AD008F3F29F00E94C8138FEF809340
:103DD000AD00089585EC95E00E94FF1484EB95E01A
:103DE0000E94FF148CEB95E00E94FF1484EB95E099
:103DF0000E94FF148091A102882319F08EEB95E0B8
:103E000002C081EC95E00E94FF1408951F93182FC3
:103E10008130A1F487E00E9478134091A1024127EC
:103E20004093A10287E090E062E00E94FD1B0E94A7
:103E300013060E94EA1E0E94C1130DC0833031F4A4
:103E400084E60E9478130E94901305C0863019F40E
:103E50008EE60E9478131F9108950E94EA1E08952D
:103E60000F931F930E94EA1E0E94C11381E00E94DB
:103E7000401D0E94A1150CEB15E0C8010E94FF1423
:103E800080E493E00E94FF140E94C11383E00E942B
:103E9000401D0E94A115C8010E94FF1487E493E011
:103EA0000E94FF140E94C11386E00E94401D0E94E0
:103EB000A115C8010E94FF148CE493E00E94FF1436
:103EC0000E94C1131F910F91089587E090E062E076
:103ED0000E94EF1B8093A10208958091A202089591
:103EE0004091A20281E048274093A20287E090E03F
:103EF00060E00E94FD1B089587E090E060E00E9472
:103F0000EF1B8093A202089584ED95E00E94FF14B8
:103F100084EB95E00E94FF148CEB95E00E94FF1467
:103F200084EB95E00E94FF148091A202882319F08F
:103F30008EEB95E002C081EC95E00E94FF1408959D
:103F4000813051F487E00E9478130E94701F0E9414
:103F5000841F0E94C1130895833031F484E60E94C7
:103F600078130E9490130895863019F48EE60E940B
:103F7000781308950E94841F08950F931F930E9441
:103F8000841F0E94C11381E00E94401D0E94A11560
:103F90000CEB15E0C8010E94FF1480E493E00E943E
:103FA000FF140E94C11383E00E94401D0E94A115CE
:103FB000C8010E94FF1487E493E00E94FF140E944E
:103FC000C11386E00E94401D0E94A115C8010E94F5
:103FD000FF148CE493E00E94FF140E94C1131F9110
:103FE0000F910895282F8F3F31F41092A80281E09D
:103FF0008093AD0208958E3F21F08D3F29F41092F9
:10400000A8021092AD0208958091AD02882351F06C
:104010008091A802E82FF0E0E958FC4F20838F5FE1
:104020008093A8028091A6029091A702019668EC65
:1040300070E00E944D29FC019093A7028093A60294
:104040008091A4029091A5028E179F0759F40097C2
:1040500019F487EC90E001C001979093A702809338
:10406000A6020895E255FD4F208308958091A6038E
:10407000882339F481E08093A6030E941D290E94C1
:10408000A31B08951F93162F8E3F11F080932A05CE
:104090000E94130D10932B051F91089589EB90E05A
:1040A0000E94F80E08958F929F92AF92BF92CF9286
:1040B000DF92EF92FF920F931F9388E080932B057E
:1040C0000E944D0EEAE8F4E0119225E0EA32F20790
:1040D000D9F722E732E006C0FC01E657FB4F8081AA
:1040E00082608083F901849190E02F5F3F4F0097B9
:1040F00099F725E732E006C0FC01E657FB4F8081C7
:1041000084608083F901849190E02F5F3F4F009796
:1041100099F729E732E006C0FC01E657FB4F8081A2
:1041200088608083F901849190E02F5F3F4F009772
:1041300099F72EE732E006C0FC01E657FB4F80817D
:1041400081608083F901849190E02F5F3F4F009759
:1041500099F72CEA32E006C0FC01E657FB4F80815C
:1041600080618083F901849190E02F5F3F4F009739
:1041700099F72BEB32E006C0FC01E657FB4F80813C
:1041800080628083F901849190E02F5F3F4F009718
:1041900099F71092A5021092A4021092A702109211
:1041A000A6021092A8021092A90210928103109206
:1041B0008203109283031092840389EB90E00E94A3
:1041C000F80E789499249394A5E0AA2EB12CC12CD2
:1041D000D12CF6E98F2E8091C4008823F9F48091C8
:1041E000A6038823D9F48091A4039091A503019696
:1041F0009093A5038093A4030197815D974074F089
:1042000081E08093C4001F910F91FF90EF90DF90A9
:10421000CF90BF90AF909F908F9008958091B403FE
:1042200081FF07C0F8948091B4038D7F8093B4031D
:1042300078940E942C0D882309F402C18091AA026F
:104240009091AB028C3F910561F02091A4023091D6
:10425000A5028091A6029091A7022817390709F0BC
:10426000EFC00E94220D809385031092AC026091F2
:104270002B05623009F46BC0633018F4613039F4F7
:1042800060C0663009F4C8C0673009F47BC0833F62
:1042900079F1843F70F48E3ED1F08F3E20F48D3E54
:1042A00009F0CAC022C0803FE9F0823F09F0C4C0D3
:1042B00010C0863F39F1873F20F4843F09F0BCC02D
:1042C0001AC08E3F61F08F3F09F0B6C005C08EEE78
:1042D000B5C08AEF64E0B2C08AEF68E0AFC08091F9
:1042E0002A05ACC08AEF62E0A9C08AEF66E0A6C0EA
:1042F0008AEF67E0A3C08AEF60E00E9442200E943C
:1043000036209EC09092B400A092B500B092B60044
:10431000C092B700D092B8001092A5021092A402E9
:104320001092A7021092A6021092A8021092A9025F
:1043300010928103109282031092830310928403DF
:104340007BC0853F09F478C08AEF61E077C01092A6
:10435000A5021092A4021092A7021092A602109237
:10436000A8021092A9021092810310928203109267
:10437000830310928403882311F060E001C063E09E
:104380008AEF5CC090E09C0120763070E5E03595C6
:104390002795EA95E1F72093B4009C0127703070CF
:1043A00030938703209386038871907073E095950E
:1043B00087957A95E1F7909389038093880341E08C
:1043C00050E020E030E004C0440F551F2F5F3F4F06
:1043D00028173907CCF340938C0350938D03309307
:1043E0008B0320938A0380918603909187039C011D
:1043F000429FC001439F900D529F900D1124AA2708
:1044000097FDA095BA2F8093B5009093B600A09326
:10441000B700B093B80010C00E9436208091850389
:10442000982F80E090FD84E091FD816092FD826094
:104430000E9419050E9413068AEF60E00E94422044
:104440000E94350D882309F4C6CE8091AC028823E2
:1044500009F0C1CE80912B05843009F402C185306A
:1044600030F4882371F0833009F0B5CEF8C088307D
:1044700009F4FCC08C3009F47CC0853009F0ABCE67
:10448000F3C02091A4023091A5028091A6029091E0
:10449000A7022817390711F40E945C100E94BC1D66
:1044A0002091A4023091A5028091A6029091A702CA
:1044B0002817390711F480E00EC0C901019668EC95
:1044C00070E00E944D29FC019093A5028093A40204
:1044D000E255FD4F8081282F30E03093AB022093CE
:1044E000AA022B3F310519F49092AC0274CE2C3FF6
:1044F000310509F470CE232B21F060E00E944220A8
:104500005EC08091A802882309F465CE20918103C2
:104510003091820340918303509184032F5F3F4F7A
:104520004F4F5F4F20938103309382034093830367
:10453000509384038091B400889DC00111248A5156
:104540009F4FAA2797FDA095BA2F281739074A072A
:104550005B070CF440CE10928103109282031092FC
:104560008303109284031092A9028CE080932B05A0
:1045700032CE8091A902882311F40E945C100E941F
:10458000BC1D8091A8028823C1F02091A402309123
:10459000A5028091A6029091A7022817390769F415
:1045A0008091810390918203A0918303B091840351
:1045B0000197A105B10561F40FC010922B0510926F
:1045C000810310928203109283031092840303CE1E
:1045D0008091A9028823A9F09091A902E92FF0E027
:1045E000E958FC4F80819F5F9093A9026CE00E9484
:1045F00042206091A8028091A9020E9441299093D3
:10460000A902E0908103F09082030091830310914E
:1046100084030894E11CF11C011D111D6091B5007B
:104620007091B6008091B7009091B8002AE030E018
:1046300040E050E00E9422299B01AC012D5F3F4FDA
:104640004F4F5F4FC801B7010E94822960938103D9
:10465000709382038093830390938403BCCD82E0A4
:104660001AC08BEA65E018C083E815C01092A50255
:104670001092A4021092A7021092A6021092A80211
:104680001092A90210928103109282031092830368
:10469000109284038AEA60E00E9442209CCDEF924F
:1046A000FF920F931F93CF93DF93E62E882309F495
:1046B0009EC00E94C711982F8D3B08F098C0082F0C
:1046C00010E0F801E457FE4FF490EE2009F45EC0CC
:1046D00080937603109281031092820310928303D9
:1046E0001092840310922B05E801C657DB4F888196
:1046F00081FF2EC0963421F0983409F03FC00EC0DF
:104700008FEF0E94F21F80EE0E94F21F82E10E9452
:10471000F21F80EE0E94F21F8CE728C08DEF0E94EE
:10472000F21F81EE0E94F21F84E10E94F21F87E7D0
:104730000E94F21F81EE0E94F21F80EF0E94F21F82
:1047400084E10E94F21F80EF0E94F21F87E711C0F0
:1047500082FF02C08F2D0DC08FEF0E94F21F888153
:1047600080FF03C080EE0E94F21F8F2D0E94F21F77
:104770008EEF0E94F21F8CEF0E94F21F06571B4F14
:10478000F801808185FF35C08BEF2EC080917603C4
:10479000891711F41092A802E92FF0E0E657FB4FB9
:1047A000808181FF13C0963421F580EE0E94F21FB4
:1047B00080EF0E94F21F8CE70E94F21F80EE0E94A1
:1047C000F21F80EF0E94F21F82E10BC082FD11C038
:1047D00080FF03C080EE0E94F21F80EF0E94F21F54
:1047E0008F2D0E94F21F8CEF0E94F21F02C080E00A
:1047F00001C081E0DF91CF911F910F91FF90EF9069
:104800000895FC018381813261F08232D9F08230D7
:1048100081F58FE996E09093500580934F058BE3E7
:1048200008958281882319F0813019F503C081EB46
:1048300096E002C08AEC96E09093500580934F0575
:1048400089E0089584819581009719F0019789F492
:1048500008C08CED95E09093500580934F0580E45F
:1048600008958CE196E09093500580934F0583E87E
:10487000089580E00895FC0180918F03882329F03A
:10488000613019F480810E94A72610928F0381E085
:1048900008950F931F93CF93DF93182F092F0E9432
:1048A0009724C12FD02F888180768032D1F58981DD
:1048B000813041F48CE295E09093500580934F0550
:1048C00088E030C0893071F48A819B8180509240A9
:1048D00041F58C819D81892B21F581E080938F03A7
:1048E0008FEF20C0823019F480918E0314C08A307B
:1048F00031F40E949B248B8180938E0312C08330FD
:1049000031F48B81882369F41092BD000BC08B3089
:1049100041F48091BD0080934F051092500581E0D5
:1049200001C080E0DF91CF911F910F91089581E048
:104930008093A603089581E08093930310929403DB
:104940008093900308958EEB90E00E94F80E86E02D
:10495000EDE9F3E0DF011D928A95E9F710929203E9
:10496000109297031092960308952F923F924F92C0
:104970005F926F927F928F929F92AF92BF92CF92EF
:10498000DF92EF92FF920F931F93DF93CF9300D0AC
:104990000F92CDB7DEB782B3837F82BB81B3837FB3
:1049A00081BB83B7856083BF0E94B3268B9A20E0CA
:1049B00048EB5BE0CA010197F1F72150D9F78B98DA
:1049C0000E94A324789410E0DD24EE24FF24CC245C
:1049D000C39439EC232E312C2E010894411C511C18
:1049E0002CE2822E25E0922E9DE9A92E93E0B92E8D
:1049F00082E0682E712C680C791C01C0102F809108
:104A0000C400813061F58091A603882341F580912F
:104A1000A4039091A50301969093A5038093A4030A
:104A20000197815D9740DCF01092C4008BB78F77BF
:104A30008BBF0F900F900F90CF91DF911F910F912F
:104A4000FF90EF90DF90CF90BF90AF909F908F90AE
:104A50007F906F905F904F903F902F90089580913E
:104A60004E05882341F010924E05109290030E944B
:104A70006713DD2417C080919003882321F00E94E2
:104A80006713DD2411C0DD2079F481EDE81687E09D
:104A9000F80624F40894E11CF11C06C00E943613A9
:104AA000DD24D394EE24FF240E94C426DD2009F0E7
:104AB000A6CF08B600FE0DC0C8BE00918E0300232D
:104AC00041F0153018F0012F055004C0C092910339
:104AD00001C0012F80913F0584FF59C0809195034B
:104AE000882331F480919803882311F40E945C108C
:104AF0000E94BC1D809191038823F9F0F40128E005
:104B000011922A95E9F78091920380932C051092D7
:104B10002D05F50101900020E9F73197ED59F3409B
:104B2000C301B501AF010E94BE298CE295E068E0A7
:104B30000E941C28109291032AC080919303813017
:104B4000C9F482E080939303F40128E011922A953E
:104B5000E9F78CE295E068E00E941C2880918E03C2
:104B6000882321F00E94A31B81E001C080E00E9405
:104B7000B1100DC080919403823049F483E080939A
:104B8000940380918E03882311F40E94A31B8091CB
:104B90006B0584FF23C080919503882369F0809181
:104BA000960390919703C9829B838A83C20163E035
:104BB0000E9417281092950380919803882371F022
:104BC0008091990390919A03E2E0E9839B838A8321
:104BD000C20163E00E94172810929803809193030A
:104BE000823009F00BCF80919B0390919C039C0134
:104BF0002F5F3F4F30939C0320939B03883C91058C
:104C000019F40E941D29FACE293C31050CF4F6CE88
:104C100030929C0320929B03F3E0F0939303EECE3B
:104C20001F93162F0E94C711682F81508C3B08F0EC
:104C30004DC080578A3108F449C081E080939103C8
:104C4000862F8756112309F1883038F4109192038A
:104C5000862F0E942C13182B21C0EDE9F3E0019060
:104C60000020E9F73197ED59F340E63088F5862FBB
:104C70008D58823128F4E62FF0E0ED52FE4F64911A
:104C80008DE993E00E946F1C23C0883050F410918E
:104C90009203862F0E942C13809518231093920361
:104CA00017C0862F8D58823128F4E62FF0E0ED52A0
:104CB000FE4F64918DE993E00E94231CBC0197FD97
:104CC00007C08DE993E00E943D1C02C080E001C056
:104CD00081E01F9108950F931F93182F082F0157FC
:104CE0006623E9F061E00E9410260A3160F521E0B8
:104CF00020939503E12FF0E0EE0FFF1FE65BFE4FE0
:104D00008591949190939703809396030330D8F400
:104D10002093980390939A038093990314C060E0C2
:104D20000E9410260A3178F481E080939503109256
:104D3000970310929603033030F4809398031092F7
:104D40009A031092990381E01F910F9108950E9498
:104D500019050E94130680919403882319F482E0B8
:104D600080939403089585B7886085BF8BB780686A
:104D70008BBF8BE48093400580936C058AE580931C
:104D80003F0580936B0508951F93CF93DF930E9497
:104D9000850560915105635067FDC1C080914D0547
:104DA000CCE0D0E0C81BD109CB5ADA4F80914C053A
:104DB0008D3209F0A1C0683009F0AFC083EC809358
:104DC00034058AE58093C2001092A303888180761F
:104DD00029F0CE010E944924182F7BC09A8110929D
:104DE0003D058981882321F410923E0512E06AC0B6
:104DF000853019F49093520564C0863009F04BC099
:104E00008B81813069F489B78B7F89BF0E948505CA
:104E10008AE097E09093500580934F0512E137C0E8
:104E2000823019F18330F9F48A81882341F48AEDC4
:104E300096E09093500580934F0514E028C0813090
:104E400041F48EED96E09093500580934F051CE160
:104E50001EC08230D9F48AEF96E09093500580937B
:104E60004F0510E114C0813229F4CE010E940124C3
:104E7000182F0DC0823251F4CE010E940124182F48
:104E800089B7846089BF0E94860501C010E080E474
:104E90008093A3031EC0883021F411E084E595E0DF
:104EA00013C0893019F4909354050BC08A3011F463
:104EB00011E008C08B3029F48BE480934005809387
:104EC0006C0510E08DE395E09093500580934F05BD
:104ED00009C01F3F39F4888187FD1E8180E88093D7
:104EE000A30306C08F81882319F48E81811708F0EF
:104EF000812F8093C30011C08091A30387FF0DC051
:104F0000CE010E943B248F3F21F48EE18093C200AA
:104F100004C0882311F01092C300109251058091B3
:104F2000C20084FF46C08091C3008F3F09F441C096
:104F3000182F893008F018E0811B8093C3008091FE
:104F4000340598E8892780933405112321F12091B5
:104F50004F05309150058091A30386FF0AC0912F21
:104F6000F901A5E3B5E084918D9331969150D9F77D
:104F700008C0912FD901E5E3F5E08D91819391501F
:104F8000E1F7C90101961150810F911D1F5F9093A8
:104F9000500580934F0585E395E0612F0E94C20381
:104FA000612F6C5F6C3019F08FEF8093C3006093BA
:104FB000C20094E180B38C7031F49150D9F7109213
:104FC000520510924B050E948605DF91CF911F91EB
:104FD0000895EF92FF921F93CF93DF937C01162FDA
:104FE000EA010E948505888184FF05C0898198E8CF
:104FF0008927898302C08AE58883AE014E5F5F4FAF
:10500000212FFA01D7018D917D0181932150121634
:10501000CCF3CA01612F0E94C2031C5F18830E9457
:105020008605DF91CF911F91FF90EF9008954BE699
:1050300055E00E94E92708954FE355E00E94E927D3
:1050400008958D98959A08958D9A959808959C0144
:105050008091C400882311F0833011F43595279591
:10506000C90108950E94B31B0E94B4110E947C1FC5
:105070000E94C8100E94651F0E941005F8940E94AB
:105080001F051092A5031092A4031092A603089581
:105090001F93182F0E947E09112399F010E0812F91
:1050A0000E94550A1F5F1730D1F789B78E7F89BFDD
:1050B00089B78B7F89BF89B78F7B89BF8D98959A78
:1050C00002C08D9A95981F910895AF92BF92DF927A
:1050D000EF92FF920F931F93CF93DF938FEF809305
:1050E000C4000E947E090E946F0984E18A95F1F74D
:1050F00010E00E949808882319F41F5F1431C9F743
:105100000E9461087C0100E0DD2491E0A92EB12C11
:10511000F7018081882371F1C0E0D0E095010C2E69
:1051200002C0220F331F0A94E2F7F7018081822325
:10513000E9F080E06D2D4C2F0E948912182F8C2FE2
:105140006D2D0E948709882311F41B3219F40E94E7
:10515000981D0CC0103119F40E948C1307C018312F
:1051600011F4016003C0133109F402602196C830C4
:10517000D105A1F6D3940894E11CF11CF1E1DF16EE
:1051800039F60E948E080E946708002319F00F5F0D
:105190000093C4006091C400643021F48CE090E07E
:1051A0006FEF04C0643028F48CE090E00E94032C80
:1051B00006C08CE090E00E94FB2B8093C4008A988C
:1051C000929A2091C4002430D0F080E090E082993F
:1051D00007C092FD09C08F5F863060F021E00AC0F1
:1051E000829B09C092FD02C080E004C08F5F8630C0
:1051F00008F020E090B3223050F72093C400809153
:10520000C4008150823038F40E94322881E00E942C
:1052100048280E94B5248091C400882311F083306F
:1052200071F70E94322882E390E00E94ED0780E04F
:105230000E9448280E945320E2CF0E9447080E9403
:10524000ED0E0895629FD001739FF001829FE00DE3
:10525000F11D649FE00DF11D929FF00D839FF00DF5
:10526000749FF00D659FF00D9927729FB00DE11DA1
:10527000F91F639FB00DE11DF91FBD01CF0111247E
:105280000895991B79E004C0991F961708F0961BA2
:10529000881F7A95C9F78095089597FB092E0726F0
:1052A0000AD077FD04D049D006D000201AF47095BA
:1052B00061957F4F0895F6F7909581959F4F0895DA
:1052C000A1E21A2EAA1BBB1BFD010DC0AA1FBB1F0A
:1052D000EE1FFF1FA217B307E407F50720F0A21B7C
:1052E000B30BE40BF50B661F771F881F991F1A94E9
:1052F00069F760957095809590959B01AC01BD0113
:10530000CF01089597FB092E05260ED057FD04D036
:10531000D7DF0AD0001C38F4509540953095219580
:105320003F4F4F4F5F4F0895F6F7909580957095DA
:1053300061957F4F8F4F9F4F0895AA1BBB1B51E173
:1053400007C0AA1FBB1FA617B70710F0A61BB70BF5
:10535000881F991F5A95A9F780959095BC01CD019A
:105360000895FC014150504030F001900616D1F7ED
:105370003197CF010895882799270895FB01DC0113
:1053800002C001900D9241505040D8F7089568171F
:10539000790768F4FB01DC01E40FF51FA40FB51FCA
:1053A00002C002900E9241505040D8F708950C94DC
:1053B000BE29FB019F01E8944230C4F04532B4F4A9
:1053C0004A3029F497FB1EF4909581959F4F642FE6
:1053D00077270E949D29805D8A330CF0895D819337
:1053E000CB010097A1F716F45DE251931082C90139
:1053F0000C94262CAEE0B0E0E0E0FAE20C94CE2C67
:105400000D891E8986E08C831A8309838FEF9FE7BD
:105410009E838D839E01275E3F4FCE0101966F894B
:10542000788DA9010E941E2A2F813885020F131F33
:10543000F80110822E96E4E00C94EA2CABE0B0E088
:10544000E4E2FAE20C94C02C3C012B015A01FC016D
:1054500017821682838181FD03C06FEF7FEFC6C183
:105460009AE0892E1E010894211C311CF30123812E
:10547000F20123FD859123FF81912F01882309F4F7
:10548000B2C1853239F423FD859123FF81912F012B
:10549000853229F490E0B3010E94362CE7CF982F93
:1054A000FF24EE249924FFE1FF15D0F09B3269F030
:1054B0009C3228F4903259F0933291F40EC09D3210
:1054C00049F0903369F441E024C052E0F52A84E0C9
:1054D000F82A28C098E0F92A25C0E0E1FE2A22C077
:1054E000F7FC29C0892F80538A3070F4F6FE05C07E
:1054F000989C902C1124980E15C0E89CE02C112447
:10550000E80EF0E2FF2A0EC09E3229F4F6FC6BC1D1
:1055100040E4F42A07C09C3619F450E8F52A02C08A
:10552000983649F4F20123FD959123FF91912F01C3
:10553000992309F0B8CF892F8554833018F0805211
:10554000833038F444E050E0A40EB51E5FE3598385
:105550000FC0933631F0933779F0933509F056C088
:1055600020C0F5018081898342E050E0A40EB51E81
:10557000610101E010E012C0F501C080D180F6FCAD
:1055800003C06FEF7FEF02C0692D70E042E050E092
:10559000A40EB51EC6010E941B2C8C015FE7F522EC
:1055A00014C0F501C080D180F6FC03C06FEF7FEF1F
:1055B00002C0692D70E042E050E0A40EB51EC601A5
:1055C0000E94102C8C0150E8F52AF3FE07C01AC087
:1055D00080E290E0B3010E94362CEA948E2D90E098
:1055E00008171907A8F30EC0F601F7FC8591F7FE1E
:1055F00081916F0190E0B3010E94362CE110EA9492
:10560000015010400115110579F7EAC0943611F0E8
:10561000993669F5F7FE08C0F50120813181428194
:10562000538184E090E00AC0F501808191819C0162
:10563000442737FD4095542F82E090E0A80EB91E14
:105640009FE6F92257FF09C0509540953095219566
:105650003F4F4F4F5F4FE0E8FE2ACA01B901A10159
:105660002AE030E00E94622CD82ED21840C0953734
:1056700029F41F2D1F7E2AE030E01DC01F2D197F49
:105680009F3661F0903720F4983509F0ACC00FC018
:10569000903739F0983709F0A6C004C028E030E010
:1056A0000AC0106114FD146020E130E004C014FD54
:1056B000166020E132E017FF08C0F50160817181BA
:1056C0008281938144E050E008C0F501808191819E
:1056D000BC0180E090E042E050E0A40EB51EA101C4
:1056E0000E94622CD82ED2188FE7F82EF122F6FEF7
:1056F0000BC05EEFF522D91438F4F4FE07C0F2FCBB
:1057000005C08FEEF82202C01D2D01C0192DF4FE38
:105710000DC0FE01ED0DF11D8081803319F499EE6D
:10572000F92208C01F5FF2FE05C003C08F2D8678E6
:1057300009F01F5F0F2DF3FC14C0F0FE0FC01E1503
:1057400010F09D2C0BC09D2C9E0C911A1E2D06C096
:1057500080E290E0B3010E94362C1F5F1E15C0F35B
:1057600004C01E1510F4E11A01C0EE2404FF0FC09E
:1057700080E390E0B3010E94362C02FF1DC001FDC2
:1057800003C088E790E00EC088E590E00BC0802F52
:10579000867891F001FF02C08BE201C080E2F7FC45
:1057A0008DE290E0B3010E94362C06C080E390E0C9
:1057B000B3010E94362C9A94D914C0F3DA94F10103
:1057C000ED0DF11D808190E0B3010E94362CDD20AB
:1057D000A9F706C080E290E0B3010E94362CEA945B
:1057E000EE20C1F743CEF30166817781CB012B9682
:1057F000E2E10C94DC2CE199FECF9FBB8EBBE09ADA
:1058000099278DB30895262FE199FECF9FBB8EBBBC
:105810002DBB0FB6F894E29AE19A0FBE0196089557
:10582000FC010590615070400110D8F7809590956B
:105830008E0F9F1F0895FC01615070400190011070
:10584000D8F7809590958E0F9F1F0895DC01FC017D
:10585000672F71917723E1F7329704C07C916D93A4
:1058600070836291AE17BF07C8F308950F931F931B
:10587000CF93DF938C01EB018B8181FF1BC082FFF3
:105880000DC02E813F818C819D812817390764F4DA
:10589000E881F9810193F983E88306C0E885F985F9
:1058A000802F0995892B31F48E819F8101969F83EA
:1058B0008E8302C00FEF1FEFC801DF91CF911F91C0
:1058C0000F910895FA01AA27283051F1203181F172
:1058D000E8946F936E7F6E5F7F4F8F4F9F4FAF4FF8
:1058E000B1E03ED0B4E03CD0670F781F891F9A1F0B
:1058F000A11D680F791F8A1F911DA11D6A0F711DBF
:10590000811D911DA11D20D009F468943F912AE0CA
:10591000269F11243019305D3193DEF6CF010895B2
:10592000462F4770405D4193B3E00FD0C9F7F6CFE3
:10593000462F4F70405D4A3318F0495D31FD4052AB
:10594000419302D0A9F7EACFB4E0A6959795879541
:1059500077956795BA95C9F7009761057105089520
:105960009B01AC010A2E06945795479537952795CC
:10597000BA95C9F7620F731F841F951FA01D089564
:105980002F923F924F925F926F927F928F929F924F
:10599000AF92BF92CF92DF92EF92FF920F931F933D
:1059A000CF93DF93CDB7DEB7CA1BDB0B0FB6F894EE
:1059B000DEBF0FBECDBF09942A88398848885F842E
:1059C0006E847D848C849B84AA84B984C884DF809F
:1059D000EE80FD800C811B81AA81B981CE0FD11D83
:1059E0000FB6F894DEBF0FBECDBFED010895F89459
:0259F000FFCFE7
:1059F200080701FF0101FF06110911EC10006525DE
:105A020063002C200020286C617965723D002064BF
:105A1200656661756C743D00206D617070696E67BA
:105A22003D002900271E1F2021222324252629C4C8
:105A3200092D002C003D002D1F301F061FFFBA1F2D
:105A4200BD1FA01F02050000004F234F23016B263C
:065A52006B265AFFFF0065
:00000001FF
