:100000000C9419030C9451030C9436030C9436038E
:100010000C94B20C0C94BE0B0C94850C0C942B0C11
:100020000C94580C0C94910B0C94FE0B0C943E0BFE
:100030000C9436030C9436030C9436030C9436035C
:100040000C9436030C9436030C9436030C9436034C
:100050000C943603B818A418D418A818AA18AC1809
:10006000B018D218B418B618B218C018DA18BA18DE
:10007000DE18E218EB18E418E418E418E418E418A1
:10008000E418E418E418E418D018CE18DC18BE18E8
:10009000E018E618A618E418E418E418E418E418C0
:1000A000E418E418E418E418E418E418E418E41870
:1000B000E418E418E418E418E418E418E418E41860
:1000C000E418E418E418E418E418C218CA18C618AA
:1000D000AE18BC18D618E418E418E418E418E418AC
:1000E000E418E418E418E418E418E418E418E41830
:1000F000E418E418E418E418E418E418E418E41820
:10010000E418E418E418E418E418C418CC18C81863
:10011000D8180000010008004000000100040000A1
:1001200001000800200040008000000100040403DA
:1001300009041C03770069006E006B0065007900FC
:100140006C006500730073002E006B0072001003DA
:1001500070007300320061007600720055001201D9
:10016000100100000008424231E1000101020001DB
:100170000902220001010080FA09040000010301C4
:100180000100092101010001225500070581030832
:10019000000A0000FC001C322123242B3433433B93
:1001A000424B3A31444D152D1B2C3C2A1D22351A49
:1001B000161E26252E363D3E46455A76660D294E9C
:1001C00055545B5D5D4C520E41494A580506040C7E
:1001D000030B830A010978077C7E7C706C7D716952
:1001E0007A746B7275774A7C7B795A69727A6B7311
:1001F000746C757D7071612F001412111F145911E8
:10020000270000373F5E48103A38302820184D1537
:100210003B34233221502B404B1C43221D0000F164
:10022000F2370F08101820283038404850575F6DBB
:100230000051136A64672700000063625F000000DA
:1002400000000000000000008A01210223022402B5
:100250002502260227022A02B500B600B700CD000B
:10026000E200E900EA00830192019401000000002D
:100270000000000000009190666768696A6B6C6D11
:100280006E6F7071727385868788898A8B8C8D8E6C
:100290008F92939495969798464800488E8D00715A
:1002A00072738F006A6B6E6D6546494A4B4C4D4EBA
:1002B00052504F5154587172737475767778797AB9
:1002C0007B7C7D7E7F808182838485868788898A06
:1002D0008F00494C4A4D4B4E6A6E65504F525154F7
:1002E0000073656C656374206D6F646500313A4B13
:1002F0006579204D617070696E6700323A4D6163B7
:10030000726F00333A4578697400343A626F6F74E3
:10031000206D617070657200676F6F64206279652F
:100320007E00626F6F74206D6170706572207374EF
:1003300061727421004D6163726F00313A53656CD4
:10034000656374204D6163726F20496E6465780047
:10035000323A4578697400393A436C6561722041DC
:100360006C6C00363A4261636B004B6579204D61DD
:100370007070657200313A4368616E6765204C6148
:1003800079657200323A53656C656374204B657908
:10039000202D20696E707574206B6579636F6465BC
:1003A00000333A5361766520616E64204578697444
:1003B00000343A4578697420776974686F757420E1
:1003C000536176696E6700393A52657365742074BB
:1003D0006F2044656661756C742028437572726580
:1003E0006E74204C61796572290070733261767287
:1003F000550063686F6F7365206C617965722028A2
:10040000313A206E6F726D616C2C20323A20464E6C
:100410002C20333A20464E32292063757272656E65
:10042000743D200073656C656374206B65792028CA
:10043000616E79206B657920796F752077616E74B4
:10044000292000696E707574206B6579636F64652F
:1004500020286D7573742033206E756D626572731C
:1004600029203A200053617665202620457869745A
:100470002C207468616E6B20796F752E0045786949
:100480007420776974686F757420536176696E673C
:100490002C2073656520796F75206C617465722EF0
:1004A00000526573657420746F2064656661756CB5
:1004B000742063757272656E74206C617965720068
:1004C000496E70757420436F6D6D616E64204E755A
:1004D0006D6265723A20006E6F7468696E670053D2
:1004E0006176652063757272656E74206C617965E2
:1004F00072004C6F61642063757272656E74206C5B
:100500006179657200736176696E672E2E2E0063C5
:100510006F6C2C20726F77203A2000696E76616CC8
:100520006964206B6579636F64652C20696E7075F2
:100530007420616761696E2E00696E707574204D5C
:100540006163726F20496E646578202830317E3196
:10055000322C206D7573742032206E756D62657259
:100560007329203A200045786974206D6163726FA9
:100570002C2073656520796F75206C617465722E0F
:1005800000696E707574206B657920286D61782024
:100590003234206B6579732C2073746F70203A208D
:1005A00070726573732045534320647572696E677A
:1005B0002031207365632900696E76616C6964205F
:1005C000496E6465782C20696E707574206167616E
:1005D000696E2E00636C6561722E2E2E0005010976
:1005E00006A1018501050719E029E7150025017518
:1005F00001950881029505750105081901290591E4
:100600000295017503910395067508150026910062
:100610000507190029A48100C0050C0901A1018565
:100620000219002A3C021500263C02950175108132
:1006300000C011241FBECFE5D8E0DEBFCDBF10E063
:10064000A0E6B0E0E2E4FCE402C005900D92AC3E0E
:10065000B107D9F715E0ACEEB0E001C01D92AB38A0
:10066000B107E1F70E94A6210C941F260C9400000C
:10067000A82FB92F80E090E041E050EA609530E08B
:1006800009C02D9182279795879510F0842795278B
:10069000305EC8F36F5FA8F30895EADF8D939D93F2
:1006A0000895CF93CFB7CF93C395839BE9F7839BEF
:1006B00009C0839B07C0839B05C0839B03C0839BAA
:1006C00001C0A3C0DF93C091E803DD27C151DC4F17
:1006D000839B02C0DF91EBCF2F930F931F9300B347
:1006E0002FEF03FB20F94F933F9310B34FEF0127F8
:1006F00003FB21F93BE031C04E7F012F10B3216095
:1007000028C0102F4D7F2260000000B329C04B7F0E
:100710002460012F000010B32BC010B3477F286066
:100720002AC04F7E00B320612CC04F7D10B32062E1
:100730002FC04F7B00B3206432C0422700B34993DF
:100740004FEF0000102713FB20F910B31C70C9F104
:10075000297F91F2012703FB21F900B3237F89F25E
:10076000315058F1102713FB22F910B3277E79F28C
:10077000012703FB23F92F7C81F200B3102713FB21
:1007800024F92F7971F200C010B3012703FB25F97A
:100790002F7359F200C000B3102713FB26F9223043
:1007A00040F200C010B3012703FB27F9243028F6DC
:1007B0004F77206810B30000F9CF10E41ABF00276C
:1007C00019C03B503195C31BD04010E41ABF0881BB
:1007D000033CF9F00B34E9F02091E6031981110F85
:1007E0001213EDCF4A81441F093641F10D3211F049
:1007F000013E29F70093ED033F914F911F910F9117
:100800002F91DF91CAB7C6FD4FCFCF91CFBFCF9108
:1008100018952091ED03222379F31091EB03112316
:1008200069F534306AF13093EB032093E7031091BC
:10083000E8033BE0311B3093E80322C00091EB0357
:100840000130E4F40AE54F7049F43091860034FD3C
:1008500019C000938600CFECD3E018C03091DA03C2
:1008600034FD10C00093DA03CBEDD3E00FC0279521
:10087000A8F45150A9F4220F0000F9CF4AE503C0B3
:1008800042ED01C0432FC4E1D0E032E011B31C605F
:10089000939A11BB02B320E41CE05F93012756E05A
:1008A00002BB279520F4515021F4220FF9CF0127E4
:1008B00056E000003B5A02BBD0F2279528F4515075
:1008C00029F4220F0000F9CF012756E0279502BB3B
:1008D00020F4515021F4220FF9CF012756E029913D
:1008E000332302BB21F6037F1091EC03110FC65195
:1008F000D04002BB11F01093E60310E41ABF086069
:1009000011B3137F402F437F5F9100C000C002BB33
:1009100011BB42BB71CF0895089581B3836181BB40
:1009200082B38C7E82BB8E9A969808950E948D0425
:1009300082B3836082BB88EE93E02CE231E0F90160
:100940003197F1F70197D9F782B38C7F82BB089575
:100950008093020108958091020108951092EC00A5
:1009600008958091020190E080FF02C0909A01C03A
:100970009098AC014270507081FF02C0919A01C002
:1009800091982091030182FF04C0969A2223C9F412
:1009900004C096982130A9F409C081E08093030136
:1009A000452B11F485E007C084E005C010920301D7
:1009B000452B21F483E08093F100089582E0809339
:1009C000F10008958091F6008330C1F484EF91E046
:1009D00090930101809300018091FE008C3038F5E6
:1009E0008F5F8093FE009FEF899FC00111246CE010
:1009F00070E00E9496226093FF0008958430B9F45D
:100A000084EF91E090930101809300018091FE00BA
:100A1000882369F081508093FE009FEF899FC00179
:100A200011246CE070E00E9496226093FF0008950C
:100A30002091630030E0AC01429FC001439F900DC4
:100A4000529F900D11246FEF70E00E949622CB010F
:100A500008959098919896988091F600823011F0C0
:100A6000843029F41092FB001092FA0008C0882309
:100A700011F0833021F481E08093F9000895109201
:100A8000F90008950E943B0B08958091F900813090
:100A900059F18091FA009091FB0068E070E00E94AB
:100AA0009622CB01909581959F4F81509F4F0E9438
:100AB000180590E00E943B0B8091FA009091FB009A
:100AC000885F974044F080E090E00E943B0B949850
:100AD00081E08093F9008091FA009091FB000196EB
:100AE0009093FB008093FA0008959091F60099236B
:100AF00019F480E090E010C0913049F41092FB00AE
:100B00001092FA001092FD001092FC0008959230AD
:100B100031F48091630090E00E943B0B0895892F8F
:100B200083508230A0F483E08093FE00943019F467
:100B300081E08093FE008091FE009FEF899FC001BD
:100B400011246CE070E00E9496226093FF000895EB
:100B50000E94B1040E94750508958091EC008823DD
:100B600091F581E08093EC000E94B00988E00E943A
:100B7000DE0A0E94230B89E090E00E9423258093E7
:100B800063008093F8008BE090E00E94232580931F
:100B9000F6008F3F11F41092F6008091F6008093DA
:100BA000F7000E9475058091EB00882311F08330D7
:100BB00051F4809160009091610095958795909394
:100BC00061008093600008958091F60090E00196A6
:100BD00065E070E00E9496228093F60081E090E04C
:100BE0009093F5008093F4000E947505089580911C
:100BF00063008E31A1F08951809363008E3118F427
:100C00008EE1809363008091F600823011F40E949F
:100C1000750581E090E09093F5008093F4000895CD
:100C2000809163008F3FA9F090E049968F3F910536
:100C300011F00CF08FEF809363008091F60082300A
:100C400011F40E94750581E090E09093F500809387
:100C5000F40008958091F600813009F059C0809128
:100C6000FC009091FD00009761F48091FA00909152
:100C7000FB0068E070E00E949622CB010E941805FC
:100C800013C082309105A1F48091FA009091FB008D
:100C900068E070E00E949622CB01909581959F4F6D
:100CA00081509F4F0E94180590E00E943B0B0EC0A0
:100CB0008130910511F0039749F48091FA009091E9
:100CC000FB0001969093FB008093FA008091FA005C
:100CD0009091FB00885F97408CF01092FB0010927F
:100CE000FA008091FC009091FD00019664E070E0B4
:100CF0000E9496229093FD008093FC008091FA0060
:100D00009091FB0001969093FB008093FA00089568
:100D10008330D1F58091000190910101009731F06D
:100D20000197909301018093000128C02091FF005A
:100D30002223F1F08091FA009091FB0001969093AC
:100D4000FB008093FA000897CCF01092FB00109201
:100D5000FA0021502093FF008FEF90E0821B910951
:100D60006BEE7FEF0E949622645F6093FE0006C0E8
:100D70001092FE001092FB001092FA008091FF008A
:100D800090E00E9418053DC0843009F03EC080917B
:100D9000000190910101009731F0019790930101BA
:100DA0008093000129C02091FF002F3FF1F0809136
:100DB000FA009091FB0001969093FB008093FA005B
:100DC0000897D4F01092FB001092FA002F5F209346
:100DD000FF008FEF90E0821B91096BEE7FEF0E9486
:100DE0009622645F6093FE0007C08CE08093FE0053
:100DF0001092FB001092FA008091FF0090E00E9498
:100E0000180590E00E943B0B08951092FB00109291
:100E1000FA0083E090E09093FD008093FC00089539
:100E20000E942A0608951F93182F8091EC008823B2
:100E300009F4B3C00E943210882319F00E944505BE
:100E4000ACC00E944221882311F042E004C011305E
:100E500009F045C041E08091ED009091EE000196CF
:100E60009093EE008093ED0020916000309161003E
:100E700028173907DCF58091EF009091F00001967A
:100E80009093F0008093EF00893C91057CF1809174
:100E900002019091620080FF09C0913021F482B379
:100EA0004095482307C082B3482B09C0913021F4F4
:100EB00082B3482B42BB08C082B34095482342BB53
:100EC0001092EE001092ED008091620091E089276F
:100ED000809362001092F0001092EF0007C0109211
:100EE000F0001092EF0081E0809362002091F10009
:100EF000222311F18091F2009091F30001969093DA
:100F0000F3008093F20085369105D4F0253059F036
:100F1000233049F0243011F0223011F4919804C0AC
:100F20008091020181FD919A1092F3001092F200DB
:100F300021502093F10004C01092F3001092F200AF
:100F40008091F4009091F5001816190624F5019689
:100F50009093F5008093F400885E9340E1F4109242
:100F6000F5001092F4006091F6008091F700681788
:100F700031F06093F7008BE090E00E942B256091A8
:100F800063008091F800861731F06093F80089E0E3
:100F900090E00E942B250E942A061F9108958FEF52
:100FA00087BB88BB1ABA14BA8BBB85BB8F98979A3C
:100FB000089580E090E0FC01E156FC4F1082FC01B6
:100FC000E055FC4F1082019681319105A1F78AE02E
:100FD00080938500089581E080930601E0EBF3E0C3
:100FE0008081882319F01092060105C0319683E0B4
:100FF000E13CF807A9F780910601089580EB93E0A2
:1010000008958F929F92AF92BF92DF92EF92FF92DC
:101010000F931F93CF93DF93DD24C0E0D0E021E056
:10102000E22EF12C97E1892E912C8FE0A82EB12C85
:1010300087010C2E02C0000F111F0A94E2F707BBB4
:10104000802F809588BB81E090E00E94F117E0EB53
:10105000F3E040E050E0302F3095842F483048F4E2
:1010600029B3C701042E02C0880F991F0A94E2F722
:1010700011C08850883018F423B3C50102C020B3D2
:10108000C401841B950BB70102C0660F771F8A95B8
:10109000E2F7CB01209528239081802F892319F036
:1010A000222329F008C0222331F0902B01C0932382
:1010B0009083DD24D3944F5F5F4F319641315105CA
:1010C00061F62196C830D10509F0B2CFDD2019F0C4
:1010D0001092840007C080918400843618F48F5FDA
:1010E0008093840020E0909184008091850098177F
:1010F00009F421E0822FDF91CF911F910F91FF9092
:10110000EF90DF90BF90AF909F908F9008951F93C6
:101110000E94F9160E940108182F0E9440170E9491
:10112000A510811110E0812F1F9108954F925F92B9
:101130006F927F929F92AF92BF92CF92DF92EF9287
:10114000FF920F931F93CF93DF93EE24FF2451E080
:10115000C52ED12C47E1442E512C3FE0632E712C3B
:101160006FC00C2F809105016C2F492D0E9499169C
:10117000182F865D803128F4E12FF0E0EE54F04026
:101180001081812F865F823060F01E3F51F0183F42
:1011900041F01B3F09F048C080910501823009F001
:1011A00043C0A7BAB8BA81E090E00E94F1170830B6
:1011B00048F429B3C6010C2E02C0880F991F0A9467
:1011C000E2F711C00850083018F423B3C30102C07D
:1011D00020B3C2018C1B9D0BA60102C0440F551FFA
:1011E0008A95E2F7CA0120952823F1F01E3F61F0AD
:1011F000183F09F444C0173F49F480910601882341
:1012000099F081E08093070191E03DC0163F41F4E1
:1012100080910601882341F082E0809307012FC06E
:101220001B3F11F490E02FC02196C131D10509F088
:1012300098CF0894E11CF11C58E0E516F10471F018
:101240009E2CC6010E2C02C0880F991F0A94E2F74B
:10125000A82EB82EB094C0E0D0E083CF0E94EB0758
:10126000882311F01092070190910701992359F4F6
:1012700080910401813029F482E08093050192E09D
:1012800002C010920501892FDF91CF911F910F911C
:10129000FF90EF90DF90CF90BF90AF909F907F90A6
:1012A0006F905F904F9008950F931F93182F062F04
:1012B0008E3FF1F10E94B00F002399F10E94E204E9
:1012C0001C3F49F080910801882391F01A3281F483
:1012D0001092040106C08091040191E08927809357
:1012E000040180910401882319F50E94B10420C0F3
:1012F000193221F481E0809308011DC0882311F088
:10130000193311F01D3F19F40E94E40511C01A3F72
:1013100019F40E9410060CC0193F61F40E94F705F1
:1013200007C01C3F29F0193229F41092080102C0AD
:1013300080E001C081E01F910F910895089583B767
:10134000887F826083BF12BE89B7816089BF109297
:10135000C1031092C2031092C3031092C4030895F4
:101360008EB5887F83608EBD1DBC1CBC89B7846030
:1013700089BF089585B5887F846085BD14BC89B711
:10138000806489BF1092C9031092CA031092CB03E4
:101390001092CC03089580E090E0FC01EE0FFF1F57
:1013A000E75FFE4F11821082019688309105A9F700
:1013B0000E949F090E94B0090E94BA09789408957A
:1013C00093B7987F982B93BF08959EB5987F982BDD
:1013D0009EBD089595B5987F982B95BD089583B7C8
:1013E000E82FF0E0E770F070EE0FFF1FEE5EFE4FAB
:1013F00025913491C90108958EB5E82FF0E0E7708A
:10140000F070EE0FFF1FEE5EFE4F25913491C90183
:10141000089585B5E82FF0E0E770F070EE0FFF1F3C
:10142000E25EFE4F25913491C9010895883040F461
:10143000E82FF0E0EE0FFF1FE75FFE4F7183608340
:101440000895883040F4E82FF0E0EE0FFF1FE75FCB
:10145000FE4F118210820895EF92FF920F931F9317
:10146000CF93DF93EC0112B71092C5031092C6031D
:101470001092C7031092C80383B7E82FF0E0E7701B
:10148000F070EE0FFF1FEE5EFE4F2591349140E0AD
:1014900050E060E07BE187EB90E00E94A922B90177
:1014A000CA01693B2DE8720726E0820720E0920717
:1014B000A0F437E2C131D30780F49E0140E050E050
:1014C0000E94572228EE33E040E050E00E94A9221B
:1014D000C901DA01BC01CD0121C028EE33E040E0B2
:1014E00050E00E94A922CA01B9019E0140E050E0EB
:1014F0000E94572213C08091C5039091C603A0910A
:10150000C703B091C80385B78F7885BF85B780685A
:1015100085BF889585B78F7785BF08C09B01AC01D3
:10152000210F311D411D511D79018A012091C503F3
:101530003091C6034091C7035091C80382B790E031
:10154000A0E0B0E0542F432F322F2227822B932B81
:10155000A42BB52B8E159F05A007B10760F2DF9174
:10156000CF911F910F91FF90EF9008951092C103BA
:101570001092C2031092C3031092C40308952091E5
:10158000C1033091C2034091C3035091C403B90118
:10159000CA0108951092C9031092CA031092CB0396
:1015A0001092CC0308952091C9033091CA03409151
:1015B000CB035091CC03B901CA010895893031F4AD
:1015C0008FB582608FBD8FB58E7F0AC08A3019F4C7
:1015D0008FB5826002C08FB58D7F8FBD8FB5816062
:1015E0008FBD1BBC1ABC19BC18BC08952FB52E7F2B
:1015F0002FBD2FB522602FBD2EB528602EBD2EB574
:1016000020612EBD97BD86BD1BBC1ABC19BC18BC81
:1016100008958FB58D7F8FBD8FB58E7F8FBD8FB5B0
:101620008F778FBD8FB58F7B8FBD8FB58F7D8FBD32
:101630008FB58F7E8FBD08958FB580688FBD8FB5B4
:101640008F7B8FBD08958FB580628FBD8FB58F7EE4
:101650008FBD08958FB58F778FBD8FB58F7B8FBD71
:1016600008958FB58F7D8FBD8FB58F7E8FBD089507
:101670009BBD8ABD089599BD88BD08951F920F92A4
:101680000FB60F9211242F933F934F935F936F9355
:101690007F938F939F93AF93BF93EF93FF9380912B
:1016A000C1039091C203A091C303B091C4030196FA
:1016B000A11DB11D8093C1039093C203A093C303E6
:1016C000B093C4038091C5039091C603A091C70352
:1016D000B091C8030196A11DB11D8093C5039093DD
:1016E000C603A093C703B093C803809109019091EA
:1016F0000A01892B29F0E0910901F0910A0109956D
:10170000FF91EF91BF91AF919F918F917F916F91D9
:101710005F914F913F912F910F900FBE0F901F90AF
:1017200018951F920F920FB60F9211242F933F938B
:101730004F935F936F937F938F939F93AF93BF93D9
:10174000EF93FF9380910B0190910C01892B29F06D
:10175000E0910B01F0910C010995FF91EF91BF9180
:10176000AF919F918F917F916F915F914F913F9139
:101770002F910F900FBE0F901F9018951F920F92F0
:101780000FB60F9211242F933F934F935F936F9354
:101790007F938F939F93AF93BF93EF93FF9380912A
:1017A000C9039091CA03A091CB03B091CC030196D9
:1017B000A11DB11D8093C9039093CA03A093CB03CD
:1017C000B093CC038091130190911401892B29F0DF
:1017D000E0911301F09114010995FF91EF91BF91F0
:1017E000AF919F918F917F916F915F914F913F91B9
:1017F0002F910F900FBE0F901F9018951F920F9270
:101800000FB60F9211242F933F934F935F936F93D3
:101810007F938F939F93AF93BF93EF93FF938091A9
:10182000170190911801892B29F0E0911701F0918F
:1018300018010995FF91EF91BF91AF919F918F9101
:101840007F916F915F914F913F912F910F900FBEBC
:101850000F901F9018951F920F920FB60F921124A0
:101860002F933F934F935F936F937F938F939F93A8
:10187000AF93BF93EF93FF9380910D0190910E0171
:10188000892B29F0E0910D01F0910E010995FF914E
:10189000EF91BF91AF919F918F917F916F915F91E8
:1018A0004F913F912F910F900FBE0F901F90189561
:1018B0001F920F920FB60F9211242F933F934F93C5
:1018C0005F936F937F938F939F93AF93BF93EF93A8
:1018D000FF9380910F0190911001892B29F0E091E5
:1018E0000F01F09110010995FF91EF91BF91AF9118
:1018F0009F918F917F916F915F914F913F912F9128
:101900000F900FBE0F901F9018951F920F920FB659
:101910000F9211242F933F934F935F936F937F9375
:101920008F939F93AF93BF93EF93FF938091110198
:1019300090911201892B29F0E0911101F09112018F
:101940000995FF91EF91BF91AF919F918F917F91F9
:101950006F915F914F913F912F910F900FBE0F901C
:101960001F9018951F920F920FB60F9211242F936C
:101970003F934F935F936F937F938F939F93AF9317
:10198000BF93EF93FF938091150190911601892BDE
:1019900029F0E0911501F09116010995FF91EF9161
:1019A000BF91AF919F918F917F916F915F914F9177
:1019B0003F912F910F900FBE0F901F90189580931D
:1019C0001A01F8948091CE038F7E8093CE0380918C
:1019D000CE0388608093CE0378940895F894809124
:1019E000CE038B7F8093CE03789480911901089564
:1019F0008FEC84BD8091CD03833000F58B98939A52
:101A00008091CE0380FF23C0829BA3C08091CD0331
:101A1000813031F0813040F0823009F0F6C006C0EC
:101A2000839902C08DE096C082E094C08091CE037D
:101A300083FFEBC093988B9A84E28CC08091CD0396
:101A40008A3108F079C08091CE0380FD08C0809172
:101A5000CE0381608093CE038A98929A0895829BE8
:101A600076C08091CD03873140F4803118F58D30F8
:101A700061F08F3009F055C00CC08831E1F1883138
:101A800058F1893109F04DC049C08091CE038D7F56
:101A90004DC08091CE038B7F8093CE03839B05C086
:101AA00080E88093190181E014C010921C0110920B
:101AB000190137C080911901869580931901839B84
:101AC00030C08091190180688093190180911C01B8
:101AD0008F5F80931C0125C0839B05C080911C01F2
:101AE0008F5F80931C0180911C0180FD1AC0809142
:101AF000CE03826010C0839905C08091CE038260BE
:101B00008093CE038091CE0381FD0BC093988B9A76
:101B10008091CE0384608093CE0303C08B98939A08
:101B20006CC092988A9A8091CE038E7F8093CE0368
:101B30008091CD038F5F0EC08091CD038F3208F06E
:101B400064C08091CE0380FF10C0829906C08B983C
:101B5000939A81E08093CD0308958091CE038E7F88
:101B60008093CE0392988A9A08958091CE038160E3
:101B70008093CE038A98929A8091CD038C3228F478
:101B8000853280F48432E1F507C08D3299F18D32CF
:101B9000E8F08E32A9F531C080911A0180931B01C3
:101BA00010921C0180911B0180FF08C08B98939AB2
:101BB00080911C018F5F80931C0102C093988B9AC7
:101BC00080911B01869580931B011AC080911C0196
:101BD00080FF03C093988B9A02C08B98939A809150
:101BE000CE03877F8093CE038091CE038061809364
:101BF000CE0306C08B98939A03C01092CD0308952C
:101C00008091CD038F5F8093CD0308951092CD0313
:101C100081E18093CE038A98929A8B98939A0E943E
:101C2000BA0982E00E94EA0985E068EF7CE00E9440
:101C3000160A8FEC84BD089585B7826085BF8BB787
:101C400080648BBF8BE48093DB038AE58093DA03A7
:101C500008951F93CF93DF930E948B046091EB0351
:101C6000635067FDD1C08091E803CCE0D0E0C81B91
:101C7000D109C151DC4F8091E7038D3209F0B1C029
:101C8000683009F0BFC083EC8093CF038AE580936E
:101C9000860010921D018881807641F0CE010E945D
:101CA000E920282F8F3F09F48BC091C09A811092B0
:101CB000D8038981882331F41092D90388ED93E009
:101CC00022E079C0853019F49093EC0371C086301E
:101CD00009F059C08B81813069F489B78B7F89BF46
:101CE0000E948B048EE591E09093EA038093E903D0
:101CF00022E145C0823041F480E791E09093EA030D
:101D00008093E90322E23BC08330F9F48A8188237F
:101D100041F48EE291E09093EA038093E90324E09A
:101D20002EC0813041F482E391E09093EA038093E6
:101D3000E9032CE124C0823009F58EE491E0909310
:101D4000EA038093E90320E11AC0813241F482E87A
:101D500091E09093EA038093E90329E010C0823276
:101D600069F48DED95E09093EA038093E90389B7D8
:101D7000846089BF0E948C0425E501C020E080E4D6
:101D800080931D0124C0883019F48EEE93E009C0C1
:101D9000893019F49093EE030BC08A3021F488ED5A
:101DA00093E021E008C08B3019F48BE48093DB03CF
:101DB00088ED93E020E09093EA038093E90307C065
:101DC000888187FD2E8180E880931D0106C08F8168
:101DD000882319F48E81821708F0822F8093870060
:101DE00011C080911D0187FF0DC0CE010E942B21E3
:101DF0008F3F21F48EE18093860004C0882311F088
:101E0000109287001092EB038091860084FF46C0F9
:101E1000809187008F3F09F441C0182F893008F066
:101E200018E0811B809387008091CF0398E8892771
:101E30008093CF03112321F12091E9033091EA032C
:101E400080911D0186FF0AC0912FF901A0EDB3E03A
:101E500084918D9331969150D9F708C0912FD90173
:101E6000E0EDF3E08D9181939150E1F7C901019686
:101E70001150810F911D1F5F9093EA038093E90336
:101E800080ED93E0612F0E944D03612F6C5F6C30F9
:101E900019F08FEF809387006093860094E180B300
:101EA0008C7031F49150D9F71092EC031092E60344
:101EB0000E948C04DF91CF911F9108951F93CF93BF
:101EC000DF93EC01162F0E948B048091DA0384FFCC
:101ED00007C08091DB0398E889278093DB0303C068
:101EE0008AE58093DA03912FECEDF3E089918193F9
:101EF00091501916DCF38CED93E0612F0E944D0395
:101F00001C5F1093DA030E948C04DF91CF911F9124
:101F10000895809121010895E82F865D803140F475
:101F200080912101882321F0F0E0EE54F040E0811F
:101F30008E2F089591E1899FC0011124860F911D74
:101F400023E0880F991F2A95E1F7840F911DE091F6
:101F5000A800F091A900E80FF91FE4918E2F0895D1
:101F60001F93982F865D6623D9F0803188F4809185
:101F70001F018F5F80931F0180912001882361F4EE
:101F800090931E0181E0809320011092210139C0BD
:101F900080911E018823A9F181E08093210131C045
:101FA000803178F580911F01815080931F01E0916D
:101FB0001E01EE2301F1809121018823E1F4F0E07C
:101FC000EE53F0401081812F0E940D18812F0E9446
:101FD0000D1810921E010E94B810882361F0812F05
:101FE00060E040E021E00E946C13812F60E040E05F
:101FF00020E00E946C1380911F01882311F410923D
:1020000020011F9108959C01E0911E01EE2349F1EA
:1020100080912101882329F18E2F865D803120F463
:10202000F0E0EE54F040E0818E2FF90109950E9416
:10203000B8108823A1F0E0911E018E2F865D8031BB
:1020400040F480912101882321F0F0E0EE54F0402B
:10205000E0818E2F60E040E021E00E946C1310923E
:102060001E01089580912201089580912201882304
:1020700029F481E0809322010E942905089580912E
:102080002201882311F58091230190912401A091D0
:102090002501B09126010196A11DB11D8093230158
:1020A00090932401A0932501B0932601805E93496B
:1020B000A440B04054F010922301109224011092D9
:1020C0002501109226010E94351008958091220169
:1020D000882321F0109222010E94A805109223016A
:1020E00010922401109225011092260108958091EA
:1020F0002D01816080932D01089580912D018170C3
:10210000089580912D0182700895982F80912D015E
:1021100080FD1AC09730A1F41092300110922F0167
:1021200081E080932E018091EB00882311F08330B1
:1021300059F484EC99E09093DE008093DD000895DB
:1021400010922D0110922E01089580913101089571
:1021500081E080933101089510922D011092350194
:10216000089590E0895C8C3008F491E0892F0895FF
:1021700090E0809133018B3009F491E0892F08952C
:1021800088E20E940D1888E20E940D18089580E3ED
:10219000E6EAF4E0DF01982F1D929A95E9F7109294
:1021A000D604E6E0F4E0DF011D928A95E9F710928B
:1021B0002C0108950F931F93FC0180810E947818D1
:1021C0008C01882319F088E60E940D18812F0E9447
:1021D0000D18812F0E940D18002319F088E60E9427
:1021E0000D181F910F910895CF92DF92EF92FF92F9
:1021F0000F931F93DF93CF930F92CDB7DEB78C0170
:10220000009711F52FC000D000D000D0EDB7FEB779
:102210003196ADB7BEB71296FC92EE921197D3826B
:10222000C282992787FD9095958384830E942223FB
:102230008DB79EB706960FB6F8949EBF0FBE8DBFA2
:10224000C7010E94DA1008C07E010894E11CF11C4D
:102250008AEAC82E80E0D82EF8010F5F1F4F8491C4
:10226000882389F60F90CF91DF911F910F91FF90F6
:10227000EF90DF90CF90089581EA94E00E94F410EF
:102280000E94C01026E234E080E090E00BC0119282
:10229000E217F307E1F701969F01285F3F4F813175
:1022A000910549F0FC0143E0EE0FFF1F4A95E1F76D
:1022B000E25EFB4FECCF81E090E090933D01809394
:1022C0003C01089584ED95E00E94F4100E94C01036
:1022D00081E080932B018CE08093350110923301D3
:1022E000089580913C0190913D01892B29F4109231
:1022F0002D0110923501089585E095E00E94F410BB
:102300000E94C01081E080932B018BE08093350107
:1023100080913301809334011092330108958AEE45
:1023200093E00E94F4100E94C01008950E94C01013
:1023300085E393E00E94F4100E94C0108BE393E0C9
:102340000E94F4100E94C01080E593E00E94F410F7
:102350000E94C01083E693E00E94F4100E94C01017
:1023600087E593E00E94F4100E94C01087E08093FC
:1023700033010895AF92BF92CF92DF92FF920F93F5
:102380001F93DF93CF930F92CDB7DEB78C01FF245D
:102390006E010894C11CD11C5AEAA52E50E0B52E3E
:1023A00025C000D000D000D0EDB7FEB73196ADB754
:1023B000BEB71296DC92CE921197B382A282800FA2
:1023C000911FDC018C91992787FD909595838483DB
:1023D0000E9422238DB79EB706960FB6F8949EBF33
:1023E0000FBE8DBFC6010E94DA10F3948F2D90E0CE
:1023F000F80101900020E9F73197E01BF10B8E17EF
:102400009F0778F20F90CF91DF911F910F91FF906E
:10241000DF90CF90BF90AF90089581E080932B0123
:1024200080913301893088F48730E8F5833079F181
:10243000843030F48130E1F0823009F05CC024C097
:10244000853059F1863060F525C08B30B9F18C307C
:1024500030F4893069F18A3009F04DC02CC08E36D5
:1024600009F447C0883789F1843609F044C038C080
:1024700082EF93E00E94F41080913E018F5F0E94F2
:10248000ED180E94BA111EC084E294E019C083E4E2
:1024900094E00BC085E694E025C08DE794E022C06F
:1024A00010922B0128C080EC94E00E94F41023C00D
:1024B00089E395E0FACF86E695E014C081E895E0DF
:1024C0000E94F4100E94C01016C082E293E00E94A5
:1024D000F4100E94C010109233010E943E210BC0E4
:1024E00088E193E00E94F4100E94C0101092330122
:1024F00002C00E94A51288EE93E02CE231E0F901BF
:102500003197F1F70197D9F708950E94C01081EA39
:1025100093E00E94F4100E94C01081EB93E00E94AF
:10252000F4100E94C01083E693E00E94F4100E9411
:10253000C01087EC93E00E94F4100E94C01087E066
:10254000809333010E940D1208950E94C01081EE05
:1025500092E00E94F4100E94C0108DEE92E00E9462
:10256000F4100E94C0108BEF92E00E94F4100E94C1
:10257000C01083E093E00E94F4100E94C0108AE033
:1025800093E00E94F4100E94C01088E08093330111
:102590000E940D120895CF93DF93C5EAD1E0CE01DA
:1025A00060E00E942B25219683E0C53ED807B9F74D
:1025B00087E0809333010E940D12DF91CF9108953F
:1025C0001F93CF93DF93809105048C30C8F4C0E053
:1025D000D0E010E380910504819FC00111248B5548
:1025E0009E4FFE01EA55FB4F8C0F9D1F60810E949C
:1025F0002B252196C033D10569F78FEF8093050411
:10260000DF91CF911F9108950F931F93CF93DF9385
:10261000982F8C30C0F480E3989FC0011124EC0106
:10262000CB55DE4F8C010B521E4FCE010E9423254D
:10263000982F81508E3F18F4892F0E940D182196F3
:10264000C017D10791F7DF91CF911F910F91089596
:10265000CF92DF92EF92FF920F931F93CF93DF936E
:1026600090913E0188E8989F700111248DE090E0E0
:10267000E80EF91ECC24DD2417C0CE018E0D9F1D5F
:102680000E942325F80181938F012196C830D1053E
:10269000A1F70894C11CD11C88E090E0E80EF91E57
:1026A00091E1C916D10459F0860163E0000F111FB2
:1026B0006A95E1F7025E1B4FC0E0D0E0DECF1092DA
:1026C0003D0110923C01DF91CF911F910F91FF903E
:1026D000EF90DF90CF900895AF92BF92CF92DF92AC
:1026E000EF92FF920F931F93DF93CF9300D00F923F
:1026F000CDB7DEB7B62EA42EC22E0E948C0FD82ED8
:1027000080912B01882309F08DC2809133018B3099
:1027100009F07EC282ED90E06BE04D2D0E948D1796
:102720007C01909133019B3009F076C284ED8D15C8
:1027300008F478C280912A01882399F01092290127
:1027400010922A018D2D0E940D18E091D604F0E020
:10275000EB55FB4F10820E94E01287E0809333011B
:1027600047C2CC2071F080912C01883108F05AC208
:102770008F5F80932C0186E094E06D2D0E94E51719
:1027800017C006E014E0F80101900020E9F7319746
:10279000E01BF10BC8016E2F4D2D0E948D17BC015F
:1027A0009FEF6F3F790709F43DC2C8010E94B3173C
:1027B0008091D604E82FF0E0EA55FB4FD0828F5F7E
:1027C0008093D6048D2D0E940D188091D6048033FD
:1027D00030F087E0809333010E94E01209C2CC20E0
:1027E00081F0A2EDB0E0EA0EFB1EF7018081893294
:1027F00041F481E080932901109228011092270171
:1028000011C21092290110922A010CC2FAE0EF16AF
:10281000F10408F007C2E0913B01F0E0E85CFE4FF4
:10282000E08200D000D000D0EDB7FEB731968E0127
:102830000F5F1F4FADB7BEB712961C930E93119743
:102840008DEA90E093838283F582E4820E942223C2
:10285000EDB7FEB736960FB6F894FEBF0FBEEDBFCC
:10286000C8010E94BA110E94C010009138018091E5
:102870003301883091F50130E1F4009332010E9478
:10288000C0108AE693E00E94F4100E94C01085E711
:1028900093E00E94F4100E94C01084E893E00E942C
:1028A000F41000932B018AE08093350110923301DC
:1028B00057C1023029F4009332010E94961150C191
:1028C000033021F40093320184E633C0043009F070
:1028D00047C10093320188E72CC0063019F48EE618
:1028E00080933301809132018130C9F4013011F0BD
:1028F000023019F40093330133C1033031F484E022
:10290000809333010E9471112BC1043011F485E0D2
:1029100010C0093009F024C10E943C11C4C08230AB
:1029200009F01EC1013011F489E018C1023041F4F0
:102930008AE08093330110922D011092350110C16D
:10294000093009F00DC18CE0809333010E946211BF
:1029500007C1923089F1FAE0EF16F10408F062C184
:1029600080913B01E82FF0E0E85CFE4FE0828F5F52
:1029700080933B0100D000D000D0EDB7FEB7319678
:102980008E010F5F1F4FADB7BEB712961C930E930B
:1029900011978DEA90E093838283F582E4820E940E
:1029A0002223EDB7FEB736960FB6F894FEBF0FBEE2
:1029B000EDBFC8010E94BA11FAE0EF16F10428F049
:1029C00080913301823009F02DC180913301823032
:1029D00009F46BC0833020F4813009F016C131C096
:1029E000833009F4C0C0893009F00FC180913B01E8
:1029F0008230E9F4909138018AE0989F9001112487
:102A000080913901280F311DC90101970C9750F4AD
:102A1000822F8150809305048BE0809333010E94C4
:102A2000C710DDC00E94C01088EB95E0D6C088EECC
:102A300093E02CE231E0F9013197F1F70197D9F7F2
:102A4000F1C09091380180913E01833050F5192FEB
:102A50001150811731F1133020F580913C01909194
:102A60003D01181619066CF40E94C0108FED94E019
:102A70000E94F4100E94C0100E94711110933F0137
:102A80006FC00E94C01082EF94E00E94F4100E9478
:102A9000C01087E08093330110933E010E942813F9
:102AA0005FC00E94C01087E059C0B0923601A0926A
:102AB00037018FE095E00E94F410809136018F5F1E
:102AC0000E94ED180E94BA1180EB90E00E94BA11AA
:102AD000809137018F5F0E94ED180E94BA1183EB3D
:102AE00090E00E94BA1180913E018F5F0E94ED1824
:102AF0000E94BA118CEB90E00E94BA1180913E01C5
:102B000060913701409136010E949A0F0E94ED18A2
:102B10000E94BA1186EC90E00E94BA1180913601B1
:102B2000E0913701F0E0A3E0EE0FFF1FAA95E1F777
:102B3000E80FF11DE25EFB4F808190E08F3F910531
:102B400011F480E090E00E94ED180E94BA1180ED2F
:102B500090E00E94BA110E94C01083E0809333017C
:102B600010923B0152C080913B01833009F043C079
:102B70009091380184E6989FA00111248091390139
:102B80002AE0829FC0011124480F591F80913A0109
:102B9000480F511D4F3F5105E4F480913601E091FB
:102BA0003701F0E073E0EE0FFF1F7A95E1F7E80FD1
:102BB000F11DE25EFB4F408387E0809333018091FB
:102BC0003C0190913D01019690933D0180933C0121
:102BD00006C00E94C0108BE195E00E94F41083E0D3
:102BE000E8E3F1E0DF011D928A95E9F710923B01DD
:102BF0000E94C0100AC088EE93E02CE231E0F90197
:102C00003197F1F70197D9F70DC00E940D120AC054
:102C1000CC2009F47FCD06C0892F8750823008F080
:102C200098CEF4CD0F900F900F90CF91DF911F9120
:102C30000F91FF90EF90DF90CF90BF90AF900895ED
:102C4000BF92CF92DF92EF92FF920F931F93CF9399
:102C5000DF93EE24FF24CC24DD2418E8B12E1EC01F
:102C600080913E018B9DC00111240D968C0D9D1D00
:102C70008C0F9D1FF80161918F010E942B252196D9
:102C8000C830D10569F70894E11CF11C88E090E098
:102C9000C80ED91E91E1E916F10459F08701B3E09D
:102CA000000F111FBA95E1F7025E1B4FC0E0D0E0A4
:102CB000D7CF10923D0110923C01809134018430B5
:102CC00039F48093330110922D011092350113C015
:102CD000813089F40E94C01082EF94E00E94F410C9
:102CE0000E94C01087E08093330180913F01809360
:102CF0003E010E9428130E940D12DF91CF911F9177
:102D00000F91FF90EF90DF90CF90BF90089583E0F8
:102D1000E8E3F1E0DF011D928A95E9F710923B01AB
:102D200010923E01109232010E9428130E94A512B7
:102D30000895FF920F931F93182F062FF42E809162
:102D40002D018823E1F0809133018B3079F588E8FB
:102D5000189FC00111240D96262F30E053E0220F5A
:102D6000331F5A95E1F7820F931F840F911D0E9424
:102D70002325982F895C8C30A8F490E013C088E854
:102D8000189FC00111240D96262F30E043E0220F3A
:102D9000331F4A95E1F7820F931F8F0D911D0E94FB
:102DA0002325982F892F81508E3F30F0812F602F5F
:102DB0004F2D0E949A0F982F892F1F910F91FF90EE
:102DC00008951F93982F80912D0180FD0FC0192F1A
:102DD000195C1C3058F40E944E18882339F00E9468
:102DE000FB18812F0E94041381E001C080E01F9135
:102DF000089580912D0180FF0DC081FD0BC00E94C0
:102E0000EB07882339F080912D01826080932D019A
:102E10000E948716089580912D01816080932D0175
:102E20008091EB008150823018F40E94511E08C03E
:102E30000E94F51A84EC99E09093DE008093DD0007
:102E40000E948F11089580912D018823C1F48091F3
:102E50002E018823A1F080912F01909130010196DD
:102E60009093300180932F012091DD003091DE009E
:102E70002817390724F410922E010E940B17089589
:102E80000E94231780912D0181FF36C080912B0174
:102E90008823C9F00E945D188823A9F0809135012C
:102EA0008B3019F40E9420160CC08A3019F40E944D
:102EB000851207C08C3019F40E94CB1202C0109208
:102EC0002B0110923501809129018823A9F080916E
:102ED0002701909128010196909328018093270162
:102EE000895E93404CF081E080932A0189E26FEF84
:102EF0004FEF20E00E946C1308950E944221882326
:102F000019F010923101089580913101813021F43E
:102F10000E940B17109231010895FC0190E007C048
:102F20008191841719F4292F30E005C09F5F96170F
:102F3000B8F32FEF3FEFC9010895FC01808140E015
:102F40002FEF3FEF0CC05191252F30E090E0281774
:102F5000390719F02FEF3FEF04C04F5F852F461759
:102F600090F3C90108959B01FC0101900020E9F74D
:102F70003197E81BF90B6F5F7F4F680F791FE21BDA
:102F8000F30B820F931FAF010E94EF220895FF926F
:102F90000F931F93F42E9B01DC010D900020E9F7A5
:102FA0008C01060F171FA81BB90BA61BB70B2F5FB1
:102FB0003F4F820F931FB801AD010E94EF22F8012D
:102FC000F0821F910F91FF900895462FDC010D9024
:102FD0000020E9F71197A81BB90BBD010E94C71784
:102FE00008950F931F9300914001109141010396A2
:102FF00065E070E00E94822280E090E02CE030E00A
:1030000040E050E00E945722060F171F1093410125
:10301000009340011F910F910895282F809178010E
:1030200090917901019660E071E00E949622FC0186
:103030009093790180937801809176019091770146
:103040008E179F0759F4009719F48FEF90E001C095
:10305000019790937901809378010895E658FE4F87
:103060002083089520917601309177018091780135
:10307000909179012817390711F480E00895C9016A
:10308000019660E071E00E949622FC019093770126
:1030900080937601E658FE4F8081089540E02091AC
:1030A000760130917701809178019091790128170C
:1030B000390709F441E0842F089580917501882330
:1030C00019F440E050E00FC040E050E0209176015C
:1030D0003091770180917801909179012817390713
:1030E00011F441E050E0842F089580937501089514
:1030F000982F81568A3118F4292F2D5510C0892F09
:1031000081548A3120F4292F2D5332E009C0892FB0
:103110008153893010F020E002C0292F235130E084
:10312000892F992787FD9095A92FB92FFC01B0977A
:10313000EF35F10508F048C0E65DFF4FEE0FFF1FC9
:103140000590F491E02D09942EE141C02FE13FC09C
:1031500020E23DC021E23BC022E239C023E237C079
:1031600024E235C025E233C026E231C027E22FC079
:103170002CE22EC02DE22CC02DE229C02EE228C068
:103180002EE225C02FE224C02FE221C020E320C080
:1031900020E31DC021E31CC021E319C023E318C0B4
:1031A00023E315C024E314C024E311C025E310C0B9
:1031B00025E30DC026E30CC026E309C027E308C0C1
:1031C00027E305C028E304C0222311F428E332E0FA
:1031D000832F922F089527E2FBCF0F931F9302E7CF
:1031E00011E090E0B8014AE050E00E940123C801DC
:1031F0001F910F9108952091760130917701809170
:103200007801909179012817390739F480E3E2E4D5
:10321000F1E0DF011D928A95E9F708951F93CF939E
:10322000DF930E943218182FC2E4D1E0882331F4D2
:1032300080E3FE0111928A95E9F712C0FE01019028
:103240000020E9F73197E254F140CE016E2F412F73
:103250000E948D17BC0197FD05C0CE010E94B317D7
:1032600080E005C0CE01612F0E94E51781E0912F1B
:10327000DF91CF911F910895282F8F3F31F4109245
:103280007B0281E08093850208958E3F21F08D3F7F
:1032900029F410927B021092850208958091850294
:1032A000882351F080917B02E82FF0E0E15BFC4F36
:1032B00020838F5F80937B028091830290918402B0
:1032C000019668EC70E00E949622FC0190938402C3
:1032D0008093830280918102909182028E179F07D2
:1032E00059F4009719F487EC90E001C0019790938E
:1032F0008402809383020895EA57FD4F2083089546
:103300002091810230918202809183029091840207
:103310002817390711F480E00895C901019668EC77
:1033200070E00E949622FC019093820280938102B9
:10333000EA57FD4F8081089540E02091810230914D
:10334000820280918302909184022817390709F440
:1033500041E0842F0895109282021092810210920F
:1033600084021092830210927B0210927C021092CF
:10337000590310925A0310925B0310925C03EFE919
:10338000F3E0119283E0E03BF807D9F70895E8ED08
:10339000F4E0119285E0E838F807D9F728E932E03F
:1033A00006C0FC01E852FB4F808182608083F901F6
:1033B000849190E02F5F3F4F009799F72BE932E01F
:1033C00006C0FC01E852FB4F808184608083F901D4
:1033D000849190E02F5F3F4F009799F72FE932E0FB
:1033E00006C0FC01E852FB4F808188608083F901B0
:1033F000849190E02F5F3F4F009799F724EA32E0E5
:1034000006C0FC01E852FB4F808181608083F90196
:10341000849190E02F5F3F4F009799F722ED32E0C3
:1034200006C0FC01E852FB4F808180618083F90176
:10343000849190E02F5F3F4F009799F7EFE9F3E019
:10344000119283E0E03BF807D9F708950E944E18E7
:1034500090E0882309F491E0892F089581E080931A
:103460009E030E94AD050E947D170895FF920F9361
:103470001F93CF93DF93F62E882309F4ADC00E94EB
:103480008C0F182F853D08F0A7C087568830D0F4E0
:10349000E12FF0E090918002FF2039F0EE0FFF1F46
:1034A000EA56F0408081982B07C0EE0FFF1FEA56C6
:1034B000F0408081809598239093800280918002D3
:1034C0000E948510812F90E0FC01EE56FE4F049182
:1034D000FF2009F450C010934E031092590310922C
:1034E0005A0310925B0310925C0310928905EC0161
:1034F000C852DB4F888181FF2EC0163421F018346A
:1035000009F06CC00EC08FEF0E943C1980EE0E9443
:103510003C1982E10E943C1980EE0E943C198CE724
:1035200026C08DEF0E943C1981EE0E943C1984E177
:103530000E943C1987E70E943C1981EE0E943C19C9
:1035400080EF0E943C1984E10E943C1980EF0E94A8
:103550003C1987E73BC082FD38C08FEF0E943C19C1
:10356000888180FF03C080EE0E943C19802F0E945A
:103570003C198EEF2BC080914E03811711F41092ED
:103580007B02E12FF0E0E852FB4F808181FF13C006
:10359000163421F580EE0E943C1980EF0E943C1900
:1035A0008CE70E943C1980EE0E943C1980EF0E943B
:1035B0003C1982E10BC082FD11C080FF03C080EE88
:1035C0000E943C1980EF0E943C19802F0E943C19F8
:1035D0008CEF0E943C1902C080E001C081E0DF91C5
:1035E000CF911F910F91FF90089588E660E00E94AF
:1035F000361A87E660E00E94361A89E660E00E948B
:10360000361A0895DF92EF92FF920F931F93182FAF
:10361000062FF42EE22E0E945409D82E002339F0F2
:10362000112329F086E39AE161E00E9403100E94D1
:103630007D10882339F0812F6F2D4E2D202F0E9471
:103640006C1311C0002339F0112329F0812F0E943F
:10365000E116882341F4DD2031F0812F602F0E9494
:10366000361A81E001C080E01F910F91FF90EF902A
:10367000DF9008954F925F926F927F928F929F9208
:10368000AF92BF92CF92DF92EF92FF920F931F9370
:10369000CF93DF930E944E18882341F081E00E946F
:1036A00075180E9487088823A1F016C080E00E9448
:1036B00075180E940E19813041F4892F61E00E9433
:1036C000361A8DEF0E943C1904C0892F60E00E94D9
:1036D000361A20E030E0ACC00E949608A82E0E9466
:1036E000FE074C0180917F028A1509F446C0EE2442
:1036F000FF2441E0642E712C34C0F401EC0FFD1F57
:103700000081FE01E156FC4F80818B21F9F0809110
:103710007F026C2F4C2D0E949916D82E8A2D6C2F6B
:103720004C2D0E949916182FD81681F0882371F01D
:103730008D2D60E04C2D2C2F0E94021B0B2131F0AF
:10374000812F61E04C2D2C2F0E94021B2196C1314C
:10375000D10599F60894E11CF11C88E0E816F10403
:1037600061F0CE2CC3010E2C02C0880F991F0A9461
:10377000E2F7B82EC0E0D0E0C0CFA0927F02BB2419
:10378000B394EE24FF2431E0432E512C34C0FE01CB
:10379000E156FC4F10811721F401EC0FFD1F008151
:1037A00007218A2D6C2F4C2D0E949916D82E1017A8
:1037B000B9F00E944221882339F00023A9F08C2F10
:1037C0006C2D0E94452110C0002319F08D2D61E061
:1037D00002C08D2D60E04C2D2C2F0E94021BB822C0
:1037E0002196C131D10599F60894E11CF11C88E0BD
:1037F000E816F10461F0CE2CC2010E2C02C0880F35
:10380000991F0A94E2F7782EC0E0D0E0C0CF20E004
:1038100030E0F901E156FC4FD401A20FB31F8C91A7
:1038200080832F5F3F4F2131310599F72B2D30E0F9
:10383000C901DF91CF911F910F91FF90EF90DF9021
:10384000CF90BF90AF909F908F907F906F905F9040
:103850004F9008951F93162F8E3F11F08093880587
:103860000E94DF0C109389051F9108958F929F92FB
:10387000AF92BF92CF92DF92EF92FF920F931F937E
:1038800088E0809389050E94060E0E94C7190E9455
:10389000D9070E94AB19789416E9812E9924939444
:1038A000B5E0AB2EB12CC12CD12C8091EB0088233C
:1038B000F9F480919E038823D9F480919C03909120
:1038C0009D03019690939D0380939C030197815DD6
:1038D000974074F081E08093EB001F910F91FF906F
:1038E000EF90DF90CF90BF90AF909F908F90089512
:1038F0008091CE0382FFC0C080917D0290917E02B4
:103900008C3F910561F0209181023091820280917B
:103910008302909184022817390709F0ADC00E94F4
:10392000EE0C182F60918905623009F457C063309E
:1039300018F4613039F44CC0663009F48DC067303A
:1039400009F455C0133F71F1143F60F41E3EC9F0F5
:103950001F3E18F41D3EA9F522C0103FE9F0123FAA
:1039600081F511C0163F09F1173F30F4143F09F4F7
:1039700081C0153F31F57EC01E3F59F01F3F09F54C
:1039800005C08EEE72C18AEF64E06FC18AEF68E015
:103990006CC18091880569C18AEF62E066C18AEFD7
:1039A00066E063C18AEF67E060C19092DF00A09299
:1039B000E000B092E100C092E200D092E3000E94E9
:1039C000AB198AEF60E00E942A1C0E942E1A6DCF6C
:1039D000853F09F44FC08AEF61E047C10E94AB19EF
:1039E000112311F060E001C063E08AEF3EC1682F4F
:1039F00070E0CB0180769070A5E095958795AA95AB
:103A0000E1F78093DF00AB0148715070F3E055950A
:103A10004795FA95E1F780E090E021E030E003C0BF
:103A2000220F331F019684179507D4F367707070C7
:103A3000269FC001279F900D369F900D1124AA2725
:103A400097FDA095BA2F8093E0009093E100A0939A
:103A5000E200B093E3000EC00E942E1A912F80E086
:103A600010FD84E091FD816092FD82600E94A804B7
:103A70000E94B1048AEFF8C08091CE0384FF15CF75
:103A800080918905843009F4E7C0853030F48823BB
:103A900071F0833009F009CFDDC0883009F4E1C04E
:103AA0008C3009F45FC0853009F0FFCED8C020917A
:103AB00081023091820280918302909184022817C2
:103AC000390711F40E943A1B809104010E941307E8
:103AD0000E948019282F30E030937E0220937D02CF
:103AE0002C3F310509F4E1CE232B21F060E00E9448
:103AF0002A1C60C080917B02882309F4D6CE2091D5
:103B0000590330915A0340915B0350915C032F5F3E
:103B10003F4F4F4F5F4F2093590330935A034093C9
:103B20005B0350935C038091DF00889DC0011124EA
:103B30008A519F4FAA2797FDA095BA2F28173907BA
:103B40004A075B070CF4B1CE1092590310925A0346
:103B500010925B0310925C0310927C028CE08093C5
:103B60008905A3CE80917C02882311F40E943A1B20
:103B7000809104010E94130780917B028823C1F089
:103B8000209181023091820280918302909184027F
:103B90002817390769F48091590390915A03A0912D
:103BA0005B03B0915C030197A105B10561F40FC0FF
:103BB000109289051092590310925A0310925B03D8
:103BC00010925C0372CE80917C028823A9F09091C0
:103BD0007C02E92FF0E0E15BFC4F80819F5F9093D6
:103BE0007C026CE00E942A1C60917B0280917C0226
:103BF0000E94762290937C02E0905903F0905A0341
:103C000000915B0310915C030894E11CF11C011D01
:103C1000111D6091E0007091E1008091E2009091AF
:103C2000E3002AE030E040E050E00E9457229B0190
:103C3000AC012D5F3F4F4F4F5F4FC801B7010E944E
:103C4000CB226093590370935A0380935B03909344
:103C50005C032BCE82E008C08BEA65E006C083E8F7
:103C600003C00E94AB198AEA60E00E942A1C1DCEA4
:103C700080915F03882331F40E944E1820E030E0E9
:103C8000882311F421E030E0822F089588E0E2E6F5
:103C9000F3E0DF011D928A95E9F781E080936203EA
:103CA000089580E3EBE6F3E0DF011D928A95E9F7E2
:103CB00008950E948C0F982F853D10F080E00895A4
:103CC00081578A3198F481E080935D03E92FF0E019
:103CD000EE0FFF1FE05AFE4F2591349182E0809352
:103CE0006203209363033093640328C0892F8756AF
:103CF000883068F4E92FF0E0EE0FFF1FEA56F0403D
:103D0000808190916303892B8093630317C099236B
:103D1000B9F020918A05283098F4892F8D58823285
:103D200028F4E92FF0E0E751FE4F9491E22FF0E004
:103D3000EE59FC4F90832F5F20938A0581E0089510
:103D400081E008959F92AF92BF92CF92DF92EF925F
:103D5000FF920F931F93CF93DF930E94461E0E9402
:103D60007D10882309F03FC00E9442218823D9F5A5
:103D70000E94FE077C010E949608982E00E010E049
:103D800041E0A42EB12C23C0F701EC0FFD1F808170
:103D90008D21A1F0892D6C2F4C2D0E949916E82FB2
:103DA0008756883058F4F0E0EE0FFF1FEA56F040D7
:103DB000808190916303892B809363032196C131A5
:103DC000D10511F70F5F1F4F0830110561F0C02EAC
:103DD000C501002E02C0880F991F0A94E2F7D82E61
:103DE000C0E0D0E0D1CF0E944E18882309F045C032
:103DF0000E940E19E2E4F1E0DF010D900020E9F7E6
:103E00001197AE1BBF0B82E080938A05EF01EA2E6B
:103E1000FF246F01CE0CDF1C2BE6A22E23E0B22E76
:103E20001AC01881812F8756883080F0F5010190E3
:103E30000020E9F73197EB56F3408BE693E06E2FC5
:103E4000412F0E948D178F5F9F4F21F4812F61E0DA
:103E50000E94591E219642E451E0CC15DD0509F778
:103E600081E080935F032BE633E0F7013196C901CF
:103E7000BA01AF010E94E62206C080915F03882349
:103E800011F010925F0381E0DF91CF911F910F91AC
:103E9000FF90EF90DF90CF90BF90AF909F900895EC
:103EA0003F924F925F926F927F928F929F92AF92CA
:103EB000BF92CF92DF92EF92FF920F931F93DF9307
:103EC000CF9300D00F92CDB7DEB70E94870888232A
:103ED00009F4CDC00E949608382E82E080938A05AE
:103EE0000E94461E0E94FE073C0199241982CC24A0
:103EF000DD2451E0452E512C77C0AA80EA81FB8158
:103F0000E156FC4FE080E820EA81FB81E60DF71DD9
:103F100000810821832D6A2D4B2D0E949916182FA0
:103F2000E016F1F10E944221882349F0002321F09C
:103F30008A816B2D0E9445210E9466104EC011237C
:103F400009F4ABC0002369F0812F61E00E9454099D
:103F5000F82E0E94661089E59EE161E00E94031040
:103F600007C0812F60E00E945409F82EEE2021F155
:103F70000E947D108823B1F0002349F0812F6B2D22
:103F80004A2D21E00E946C1381E089831EC0812F9D
:103F90006B2D4A2D20E00E946C1391E0998315C08F
:103FA000FF24F394002341F0112331F0812F0E946C
:103FB000E116882309F05BC0FF2039F0002329F0C7
:103FC000812F61E00E94591E982AEA81FB81319677
:103FD000FB83EA83719709F090CF0894C11CD11C30
:103FE000F8E0CF16D10461F0BC2CC2010C2C02C049
:103FF000880F991F0A94E2F7882E1B821A827DCFC0
:1040000080916203813069F4909163038091600331
:10401000981739F0892F0E9485108091630380934F
:10402000600380915D03882369F080916203823090
:1040300049F082E08093620310926303109264035C
:1040400010925D0320E030E0F901E156FC4FD3010E
:10405000A20FB31F8C9180832F5F3F4F2131310519
:1040600099F78981813019F0892D816001C080E044
:104070000F900F900F90CF91DF911F910F91FF90B4
:10408000EF90DF90CF90BF90AF909F908F907F90F8
:104090006F905F904F903F900895FF24F39468CF06
:1040A000EF92FF920F931F930E941C0E8B9A20E0B9
:1040B00048EB5BE0CA010197F1F72150D9F78B98E3
:1040C000789400E010E0EE24E3948091EB008130DE
:1040D000D9F480919E038823B9F480919C03909138
:1040E0009D03019690939D0380939C030197815DAE
:1040F000974054F01092EB008BB78F7B8BBF1F91D2
:104100000F91FF90EF9008950E94290E002399F4DB
:104110000E94501F082F08B600FE0FC0E8BEF090A6
:104120006A03FF2051F0153010F401E007C06BEF77
:10413000F62EF10E03C00E94501FF12E8091DA037B
:1041400084FF2EC080915E03882361F010925E038D
:104150000E94461E82E693E068E00E945E0F0E9485
:104160007D171EC00E94381E882341F00E94A21EA7
:1041700082E693E068E00E945E0F12C0002381F0A7
:1041800080916203823021F482E693E063E005C00F
:10419000813029F482E693E068E00E945E0F00E03F
:1041A0000E943F10809104010E9413070E94381E54
:1041B000882311F080E001C081E00E9475181F2D56
:1041C00084CF81E080935E030E94AD050E9466105B
:1041D0000895CF93DF9321E020939E03EC0180911B
:1041E00062038093E9031092EA038881807680322B
:1041F00071F58981813011F488E02AC0893041F459
:104200008E819F81029719F5209361038FEF20C063
:10421000823019F480916A0314C08A3031F40E940C
:10422000E1208B8180936A0312C0833031F48B814B
:10423000882369F41092E4000BC08B3041F4809124
:10424000E4008093E9031092EA0381E001C080E07A
:10425000DF91CF910895FC0180916103882351F093
:10426000623041F48081813029F481810E94A80468
:104270000E94B1041092610381E0089581E080936F
:104280009B03089580919B0308950F931F93082F1C
:10429000162F85EE90E00E94BA11812F0E94ED1832
:1042A0000E94BA1187EE90E00E94BA11802F0E94FE
:1042B000ED180E94BA1189EE90E00E94BA111F9188
:1042C0000F9108958D98959A08958D9A95980895CF
:1042D0001F9310E0812F0E94210A1F5F1730D1F732
:1042E00089B78E7F89BF89B78B7F89BF89B78F7B5D
:1042F00089BF1F9108951F93182F0E94CF070E9416
:104300008D0481B38C6081BB82B3837F82BB112318
:1043100079F08BE090E00E94F11781B3837F81BB3D
:1043200083B7856083BF0E9468218D98959A02C0EB
:104330008D9A95981F910895F8940E94AE0410925A
:104340009D0310929C0310929E0308958F929F925A
:10435000BF92CF92DF92EF92FF920F931F93CF9372
:10436000DF938FEF8093EB000E94CF0781E090E016
:104370000E94F11710E00E940108882319F41F5FC2
:104380001E31C9F70E94FE076C01FF2400E010E017
:1043900081E0882E912C29C06C2FF601EC0FFD1FB7
:1043A00080818B21C9F0C13031F481E0E81619F425
:1043B0000E943E2111C080E04E2D0E949A0F803154
:1043C00019F40E94A81008C0883111F481E003C0DC
:1043D000833111F482E0F82A2196C131D105E1F64A
:1043E0000F5F1F4F0830110561F0E02EC401002E51
:1043F00002C0880F991F0A94E2F7B82EC0E0D0E0FF
:10440000CBCFFF2019F0F394F092EB006091EB001A
:10441000643021F48CE090E06FEF04C0643028F445
:104420008CE090E00E942B2506C08CE090E00E947A
:1044300023258093EB008A98929A2091EB002430F8
:10444000D0F080E090E0829907C092FD09C08F5FB4
:10445000863060F021E00AC0829B09C092FD02C054
:1044600080E004C08F5F863008F020E090B32230F7
:1044700050F72093EB008091EB008150823038F4AC
:104480000E949C2181E00E947B210E94502080910B
:10449000EB00882311F0833071F70E9496040E948C
:1044A0009C2180E00E947B210E94361CE4CF629F09
:1044B000D001739FF001829FE00DF11D649FE00D1C
:1044C000F11D929FF00D839FF00D749FF00D659F7D
:1044D000F00D9927729FB00DE11DF91F639FB00D7C
:1044E000E11DF91FBD01CF0111240895991B79E049
:1044F00004C0991F961708F0961B881F7A95C9F774
:1045000080950895AA1BBB1B51E107C0AA1FBB1FC2
:10451000A617B70710F0A61BB70B881F991F5A954F
:10452000A9F780959095BC01CD01089597FB092EC0
:1045300007260AD077FD04D0E5DF06D000201AF464
:10454000709561957F4F0895F6F7909581959F4FEF
:104550000895A1E21A2EAA1BBB1BFD010DC0AA1FC4
:10456000BB1FEE1FFF1FA217B307E407F50720F0DC
:10457000A21BB30BE40BF50B661F771F881F991F57
:104580001A9469F760957095809590959B01AC01A0
:10459000BD01CF01089597FB092E05260ED057FDCA
:1045A00004D0D7DF0AD0001C38F4509540953095E0
:1045B00021953F4F4F4F5F4F0895F6F790958095A7
:1045C000709561957F4F8F4F9F4F0895FB01DC01E0
:1045D00002C001900D9241505040D8F708956817DD
:1045E000790768F4FB01DC01E40FF51FA40FB51F88
:1045F00002C002900E9241505040D8F708950C949A
:10460000E622FB019F01E8944230C4F04532B4F445
:104610004A3029F497FB1EF4909581959F4F642FA3
:1046200077270E948222805D8A330CF0895D819316
:10463000CB010097A1F716F45DE251931082C901F6
:104640000C944E25AEE0B0E0E8E2F3E20C94F625DF
:104650000D891E8986E08C831A8309838FEF9FE77B
:104660009E838D839E01275E3F4FCE0101966F8909
:10467000788DA9010E9446232F813885020F131FD0
:10468000F80110822E96E4E00C941226ABE0B0E024
:10469000ECE4F3E20C94E8253C012B015A01FC0107
:1046A00017821682838181FD03C06FEF7FEFC6C141
:1046B0009AE0892E1E010894211C311CF3012381EC
:1046C000F20123FD859123FF81912F01882309F4B5
:1046D000B2C1853239F423FD859123FF81912F01E9
:1046E000853229F490E0B3010E945E25E7CF982F30
:1046F000FF24EE249924FFE1FF15D0F09B3269F0EE
:104700009C3228F4903259F0933291F40EC09D32CD
:1047100049F0903369F441E024C052E0F52A84E086
:10472000F82A28C098E0F92A25C0E0E1FE2A22C034
:10473000F7FC29C0892F80538A3070F4F6FE05C03B
:10474000989C902C1124980E15C0E89CE02C112404
:10475000E80EF0E2FF2A0EC09E3229F4F6FC6BC18F
:1047600040E4F42A07C09C3619F450E8F52A02C048
:10477000983649F4F20123FD959123FF91912F0181
:10478000992309F0B8CF892F8554833018F08052CF
:10479000833038F444E050E0A40EB51E5FE3598343
:1047A0000FC0933631F0933779F0933509F056C046
:1047B00020C0F5018081898342E050E0A40EB51E3F
:1047C000610101E010E012C0F501C080D180F6FC6B
:1047D00003C06FEF7FEF02C0692D70E042E050E050
:1047E000A40EB51EC6010E9443258C015FE7F52289
:1047F00014C0F501C080D180F6FC03C06FEF7FEFDD
:1048000002C0692D70E042E050E0A40EB51EC60162
:104810000E9438258C0150E8F52AF3FE07C01AC023
:1048200080E290E0B3010E945E25EA948E2D90E034
:1048300008171907A8F30EC0F601F7FC8591F7FEDB
:1048400081916F0190E0B3010E945E25E110EA942E
:10485000015010400115110579F7EAC0943611F0A6
:10486000993669F5F7FE08C0F50120813181428152
:10487000538184E090E00AC0F501808191819C0120
:10488000442737FD4095542F82E090E0A80EB91ED2
:104890009FE6F92257FF09C0509540953095219524
:1048A0003F4F4F4F5F4FE0E8FE2ACA01B901A10117
:1048B0002AE030E00E948A25D82ED21840C09537D1
:1048C00029F41F2D1F7E2AE030E01DC01F2D197F07
:1048D0009F3661F0903720F4983509F0ACC00FC0D6
:1048E000903739F0983709F0A6C004C028E030E0CE
:1048F0000AC0106114FD146020E130E004C014FD12
:10490000166020E132E017FF08C0F5016081718177
:104910008281938144E050E008C0F501808191815B
:10492000BC0180E090E042E050E0A40EB51EA10181
:104930000E948A25D82ED2188FE7F82EF122F6FE93
:104940000BC05EEFF522D91438F4F4FE07C0F2FC78
:1049500005C08FEEF82202C01D2D01C0192DF4FEF6
:104960000DC0FE01ED0DF11D8081803319F499EE2B
:10497000F92208C01F5FF2FE05C003C08F2D8678A4
:1049800009F01F5F0F2DF3FC14C0F0FE0FC01E15C1
:1049900010F09D2C0BC09D2C9E0C911A1E2D06C054
:1049A00080E290E0B3010E945E251F5F1E15C0F3F8
:1049B00004C01E1510F4E11A01C0EE2404FF0FC05C
:1049C00080E390E0B3010E945E2502FF1DC001FD5F
:1049D00003C088E790E00EC088E590E00BC0802F10
:1049E000867891F001FF02C08BE201C080E2F7FC03
:1049F0008DE290E0B3010E945E2506C080E390E066
:104A0000B3010E945E259A94D914C0F3DA94F1019F
:104A1000ED0DF11D808190E0B3010E945E25DD2047
:104A2000A9F706C080E290E0B3010E945E25EA94F7
:104A3000EE20C1F743CEF30166817781CB012B963F
:104A4000E2E10C940426E199FECF9FBB8EBBE09A75
:104A500099278DB30895262FE199FECF9FBB8EBB7A
:104A60002DBB0FB6F894E29AE19A0FBE0196089515
:104A7000FC010590615070400110D8F78095909529
:104A80008E0F9F1F0895FC0161507040019001102E
:104A9000D8F7809590958E0F9F1F0895DC01FC013B
:104AA000672F71917723E1F7329704C07C916D9362
:104AB00070836291AE17BF07C8F308950F931F93D9
:104AC000CF93DF938C01EB018B8181FF1BC082FFB1
:104AD0000DC02E813F818C819D812817390764F498
:104AE000E881F9810193F983E88306C0E885F985B7
:104AF000802F0995892B31F48E819F8101969F83A8
:104B00008E8302C00FEF1FEFC801DF91CF911F917D
:104B10000F910895FA01AA27283051F1203181F12F
:104B2000E8946F936E7F6E5F7F4F8F4F9F4FAF4FB5
:104B3000B1E03ED0B4E03CD0670F781F891F9A1FC8
:104B4000A11D680F791F8A1F911DA11D6A0F711D7C
:104B5000811D911DA11D20D009F468943F912AE088
:104B6000269F11243019305D3193DEF6CF01089570
:104B7000462F4770405D4193B3E00FD0C9F7F6CFA1
:104B8000462F4F70405D4A3318F0495D31FD405269
:104B9000419302D0A9F7EACFB4E0A69597958795FF
:104BA00077956795BA95C9F70097610571050895DE
:104BB0009B01AC010A2E069457954795379527958A
:104BC000BA95C9F7620F731F841F951FA01D089522
:104BD0002F923F924F925F926F927F928F929F920D
:104BE000AF92BF92CF92DF92EF92FF920F931F93FB
:104BF000CF93DF93CDB7DEB7CA1BDB0B0FB6F894AC
:104C0000DEBF0FBECDBF09942A88398848885F84EB
:104C10006E847D848C849B84AA84B984C884DF805C
:104C2000EE80FD800C811B81AA81B981CE0FD11D40
:104C30000FB6F894DEBF0FBECDBFED010895F89416
:024C4000FFCFA4
:104C4200080701FF01000200040008001000200014
:104C52004000800000010002000400080010002053
:104C6200004000800A055AFFFEFEF8F86C6C686886
:104C72006D6D69696B6B67678E8D8E8D8E8D8E8D76
:104C82008E8D8E8D8E8D8E8D006525630025640040
:104C92002C200020286C617965723D0020646566D5
:104CA20061756C743D00206D617070696E673D00C6
:104CB2002900271E1F2021222324252629881302AA
:0C4CC20005000000012D002C003D00FF4B
:00000001FF
