:100000000C946D030C94A5030C948A030C948A033E
:100010000C94DA0C0C94E60B0C94AD0C0C94530C71
:100020000C94800C0C94B90B0C94260C0C94660B5D
:100030000C948A030C948A030C948A030C948A030C
:100040000C948A030C948A030C948A030C948A03FC
:100050000C948A03AB199719C7199B199D199F19FD
:10006000A319C519A719A919A519B319CD19AD193E
:10007000D119D519DE19D719D719D719D719D71901
:10008000D719D719D719D719C319C119CF19B11948
:10009000D319D9199919D719D719D719D719D71920
:1000A000D719D719D719D719D719D719D719D719D0
:1000B000D719D719D719D719D719D719D719D719C0
:1000C000D719D719D719D719D719B519BD19B9190A
:1000D000A119AF19C919D719D719D719D719D7190C
:1000E000D719D719D719D719D719D719D719D71990
:1000F000D719D719D719D719D719D719D719D71980
:10010000D719D719D719D719D719B719BF19BB19C3
:10011000CB190000010008004000000100040000AD
:1001200001000800200040008000000100040403DA
:1001300009041C03770069006E006B0065007900FC
:100140006C006500730073002E006B0072001003DA
:1001500070007300320061007600720055001201D9
:10016000100100000008424231E1000101020001DB
:10017000FEFEF8F86C6C68686D6D69696B6B67679B
:100180008E8D8E8D8E8D8E8D8E8D8E8D8E8D8E8D97
:100190000000FC001C322123242B3433433B424B10
:1001A0003A31444D152D1B2C3C2A1D22351A161EA2
:1001B00026252E363D3E46455A76660D294E555427
:1001C0005B5D5D4C520E41494A580506040C030B19
:1001D000830A010978077C7E7C706C7D71697A7472
:1001E0006B7275774A7C7B795A69727A6B73746C1F
:1001F000757D7071612F001412111F1459112700A1
:1002000000373F5E48103A38302820184D153B34EF
:10021000233221502B404B1C43221D0000F1F237AA
:100220000F08101820283038404850575F6D005193
:10023000136A64672700000063625F00000000002B
:100240000000000000008A0121022302240225028E
:10025000260227022A02B500B600B700CD00E20050
:10026000E900EA008301920194010000000000000F
:10027000000000009190666768696A6B6C6D6E6F34
:100280007071727385868788898A8B8C8D8E8F9228
:10029000939495969798464800488E8D0071727396
:1002A0008F006A6B6E6D6546494A4B4C4D4E5250FD
:1002B0004F5154587172737475767778797A7B7C64
:1002C0007D7E7F808182838485868788898A8F006E
:1002D000494C4A4D4B4E6A6E65504F525154007313
:1002E000656C656374206D6F646500313A4B6579A8
:1002F000204D617070696E6700323A4D6163726FB4
:1003000000333A4578697400343A626F6F74206D37
:10031000617070657200676F6F64206279657E003E
:10032000626F6F74206D617070657220737461729A
:100330007421004D6163726F00313A53656C6563DF
:1003400074204D6163726F20496E64657800323AA3
:100350004578697400393A436C65617220416C6C70
:1003600000363A4261636B004B6579204D617070D5
:10037000657200313A4368616E6765204C6179654A
:100380007200323A53656C656374204B6579202D99
:1003900020696E707574206B6579636F64650033D6
:1003A0003A5361766520616E642045786974003443
:1003B0003A4578697420776974686F757420536161
:1003C00076696E6700393A526573657420746F20E0
:1003D00044656661756C74202843757272656E742D
:1003E000204C617965722900707332617672550014
:1003F00063686F6F7365206C617965722028313A8C
:10040000206E6F726D616C2C20323A20464E2C208B
:10041000333A20464E32292063757272656E743D00
:10042000200073656C656374206B65792028616EAC
:1004300079206B657920796F752077616E7429203A
:1004400000696E707574206B6579636F6465202830
:100450006D7573742033206E756D6265727329201B
:100460003A200053617665202620457869742C2057
:100470007468616E6B20796F752E00457869742001
:10048000776974686F757420536176696E672C2084
:1004900073656520796F75206C617465722E0052EA
:1004A0006573657420746F2064656661756C742073
:1004B00063757272656E74206C6179657200496E45
:1004C00070757420436F6D6D616E64204E756D6242
:1004D00065723A20006E6F7468696E6700536176CA
:1004E000652063757272656E74206C617965720047
:1004F0004C6F61642063757272656E74206C6179F3
:10050000657200736176696E672E2E2E00636F6CC4
:100510002C20726F77203A2000696E76616C6964D6
:10052000206B6579636F64652C20696E707574202B
:10053000616761696E2E00696E707574204D61632C
:10054000726F20496E646578202830317E31322CFC
:10055000206D7573742032206E756D62657273291B
:10056000203A200045786974206D6163726F2C20F9
:1005700073656520796F75206C617465722E0069F2
:100580006E707574206B657920286D617820323427
:10059000206B6579732C2073746F70203A20707211
:1005A0006573732045534320647572696E6720310B
:1005B000207365632900696E76616C696420496EF9
:1005C0006465782C20696E70757420616761696E4E
:1005D0002E00636C6561722E2E2E0005010906A1A6
:1005E00001050719E029E715002501950875018126
:1005F000029501750881030507190029A495067560
:1006000008150026A400810095057501050819014B
:1006100029059102950175039103C005010902A105
:100620000185030901A10005091901290515002506
:100630000175019505810275039501810305010985
:100640003009311581257F75089502810609381515
:1006500081257F35004500750895018106050C0A46
:1006600038021581257F750895018106C0C00501F6
:100670000980A1018502150125B7190129B7751057
:1006800095018100C0050C0901A101850115012614
:100690009C0219012A9C02751095018100C0090273
:1006A0003B0002010080FA0904000001030101007F
:1006B0000921010100012240000705810308000A09
:1006C00009040100010300000009210101000122C9
:1006D00083000705830308000A0011241FBECFE52D
:1006E000D8E0DEBFCDBF10E0A0E6B0E0E8EDFFE46B
:1006F00002C005900D92AC3CB107D9F715E0ACEC07
:10070000B0E001C01D92AC38B107E1F70E946A2346
:100710000C94EA270C940000A82FB92F80E090E0F9
:1007200041E050EA609530E009C02D91822797950D
:10073000879510F084279527305EC8F36F5FA8F384
:100740000895EADF8D939D930895CF93CFB7CF930C
:10075000C395839BE9F7839B0EC0839B0CC0839B4F
:100760000AC0839B08C0839B06C0C091DD03C3956C
:10077000C093DD03A3C0DF93C091DC03DD27CC5120
:10078000DC4F839B02C0DF91E6CF2F930F931F9323
:1007900000B32FEF03FB20F94F933F9310B34FEFBC
:1007A000012703FB21F93BE031C04E7F012F10B33D
:1007B000216028C0102F4D7F2260000000B329C0A7
:1007C0004B7F2460012F000010B32BC010B3477F74
:1007D00028602AC04F7E00B320612CC04F7D10B32B
:1007E00020622FC04F7B00B3206432C0422700B389
:1007F00049934FEF0000102713FB20F910B31C7032
:10080000C9F1297F91F2012703FB21F900B3237F6E
:1008100089F2315058F1102713FB22F910B3277ECB
:1008200079F2012703FB23F92F7C81F200B3102713
:1008300013FB24F92F7971F200C010B3012703FBD9
:1008400025F92F7359F200C000B3102713FB26F9C6
:10085000223040F200C010B3012703FB27F92430F7
:1008600028F64F77206810B30000F9CF10E41ABFC4
:10087000002719C03B503195C31BD04010E41ABF6C
:100880000881033CF9F00B34E9F02091DA03198177
:10089000110F1213EDCF4A81441F093641F10D3279
:1008A00011F0013E29F70093E2033F914F911F9110
:1008B0000F912F91DF91CAB7C6FD4ACFCF91CFBF1D
:1008C000CF9118952091E203222379F31091E00350
:1008D0001123C1F53430C2F13093E0032093DB03E0
:1008E0001091DC033BE0311B3093DC032DC0009101
:1008F000E00301303CF50AE54F7049F430916600A1
:1009000034FD24C000936600C3ECD3E023C0433021
:1009100049F03091CE0334FD19C00093CE03CFECE3
:10092000D3E018C03091FA0334FD10C00093FA03ED
:10093000CBEFD3E00FC02795A8F45150A9F4220FB4
:100940000000F9CF4AE503C042ED01C0432FC4E1E6
:10095000D0E032E011B31C60939A11BB02B320E4E3
:100960001CE05F93012756E002BB279520F451500D
:1009700021F4220FF9CF012756E000003B5A02BBB9
:10098000D0F2279528F4515029F4220F0000F9CF16
:10099000012756E0279502BB20F4515021F4220F85
:1009A000F9CF012756E02991332302BB21F6037FBB
:1009B0001091E103110FC651D04002BB11F010930A
:1009C000DA0310E41ABF086011B3137F402F437F8E
:1009D0005F9100C000C002BB11BB42BB66CF81B3B8
:1009E000836181BB82B38C7E82BB8E9A9698089578
:1009F0008091E20090E0BC016170707080FF02C0E5
:100A0000909801C0909AAC014270507081FF02C072
:100A1000919801C0919A88EE93E02CE231E0F901BF
:100A20003197F1F70197D9F7672B11F0909A01C030
:100A30009098452B11F0919A08959198089580937C
:100A4000E20008958091E20008951092CC0008958C
:100A50008091E20090E080FF02C0909A01C09098DF
:100A6000AC014270507081FF02C0919A01C0919810
:100A70002091E30082FF04C0969A2223C9F404C0A7
:100A800096982130A9F409C081E08093E300452BBA
:100A900011F485E007C084E005C01092E300452B07
:100AA00021F483E08093DA00089582E08093DA00F5
:100AB00008952223A9F18091CE008330C1F484EF00
:100AC00091E09093E0008093DF008091D4008C301F
:100AD00038F58F5F8093D4009FEF899FC001112468
:100AE0006CE070E00E9461246093D500089584302A
:100AF000B9F484EF91E09093E0008093DF0080915F
:100B0000D400882369F081508093D4009FEF899F9F
:100B1000C00111246CE070E00E9461246093D50054
:100B200008952091600030E0AC01429FC001439FD6
:100B3000900D529F900D11246FEF70E00E94612480
:100B4000CB0108959098919896988091CE0082302C
:100B500011F0843029F41092D1001092D00008C016
:100B6000882311F0833021F481E08093E10008951F
:100B70001092E1000895089508950E94630B08956E
:100B80009091CE00992319F480E090E010C091304C
:100B900049F41092D1001092D0001092D30010921C
:100BA000D2000895923031F48091600090E00E946C
:100BB000630B0895892F83508230A0F483E08093E3
:100BC000D400943019F481E08093D4008091D40053
:100BD0009FEF899FC00111246CE070E00E946124A6
:100BE0006093D50008958091CC00882391F581E031
:100BF0008093CC000E94D80988E00E94060B0E94D6
:100C00004B0B89E090E00E94EE2680936000809379
:100C1000CD008BE090E00E94EE268093CE008F3FC7
:100C200011F41092CE008091CE008093CF000E94EC
:100C3000C0058091CB00882311F0833051F480915E
:100C400061009091620095958795909362008093E2
:100C5000610008950E9428050E94C00508958091B2
:100C6000CE0090E0019665E070E00E9461248093E0
:100C7000CE0081E090E09093DE008093DD000E9442
:100C8000C0050895809160008E31A1F08951809354
:100C900060008E3118F48EE1809360008091CE0068
:100CA000823011F40E94C00581E090E09093DE0054
:100CB0008093DD000895809160008F3FA9F090E05F
:100CC00049968F3F910511F00CF08FEF80936000F3
:100CD0008091CE00823011F40E94C00581E090E046
:100CE0009093DE008093DD0008958091E1008130D3
:100CF00059F18091D0009091D10068E070E00E949D
:100D00006124CB01909581959F4F81509F4F0E9408
:100D1000910590E00E94630B8091D0009091D100EA
:100D2000885F974044F080E090E00E94630B9498C5
:100D300081E08093E1008091D0009091D1000196F4
:100D40009093D1008093D00008951F938091CC00A0
:100D5000882309F499C10E943211882319F00E9456
:100D6000750692C10E94581A182F0E94331A8823C0
:100D700011F042E004C0113009F045C041E080911B
:100D8000D6009091D70001969093D7008093D6001B
:100D9000209161003091620028173907DCF58091BD
:100DA000D8009091D90001969093D9008093D800F3
:100DB000893C91057CF18091E2009091630080FF75
:100DC00009C0913021F482B34095482307C082B313
:100DD000482B09C0913021F482B3482B42BB08C094
:100DE00082B34095482342BB1092D7001092D600A0
:100DF0008091630091E08927809363001092D9006D
:100E00001092D80007C01092D9001092D80081E04B
:100E1000809363002091DA00222311F18091DB009E
:100E20009091DC0001969093DC008093DB00853686
:100E30009105D4F0253059F0233049F0243011F0D9
:100E4000223011F4919804C08091E20081FD919AC2
:100E50001092DC001092DB0021502093DA0004C0D5
:100E60001092DC001092DB008091DD009091DE009A
:100E70001816190624F501969093DE008093DD0084
:100E8000885E9340E1F41092DE001092DD006091E4
:100E9000CE008091CF00681731F06093CF008BE0D7
:100EA00090E00E94F626609160008091CD00861748
:100EB00031F06093CD0089E090E00E94F6268091A9
:100EC000CE00813009F059C08091D2009091D300BA
:100ED000009761F48091D0009091D10068E070E0BB
:100EE0000E946124CB010E94910513C082309105BC
:100EF000A1F48091D0009091D10068E070E00E9450
:100F00006124CB01909581959F4F81509F4F0E9406
:100F1000910590E00E94630B0EC08130910511F0A5
:100F2000039749F48091D0009091D100019690935D
:100F3000D1008093D0008091D0009091D100885F43
:100F400097408CF01092D1001092D0008091D20086
:100F50009091D300019664E070E00E946124909328
:100F6000D3008093D2008091D0009091D10001965F
:100F70009093D1008093D00087C08330D1F58091C9
:100F8000DF009091E000009731F001979093E0002E
:100F90008093DF0028C02091D5002223F1F08091BA
:100FA000D0009091D10001969093D1008093D00011
:100FB0000897CCF01092D1001092D00021502093CD
:100FC000D5008FEF90E0821B91096BEE7FEF0E94BE
:100FD0006124645F6093D40006C01092D400109224
:100FE000D1001092D0008091D50090E00E94910530
:100FF0003DC0843009F03EC08091DF009091E00058
:10100000009731F001979093E0008093DF0029C0B2
:101010002091D5002F3FF1F08091D0009091D10028
:1010200001969093D1008093D0000897D4F010924D
:10103000D1001092D0002F5F2093D5008FEF90E069
:10104000821B91096BEE7FEF0E946124645F6093C5
:10105000D40007C08CE08093D4001092D10010928D
:10106000D0008091D50090E00E94910590E00E9410
:10107000630B0AC01092D1001092D00083E090E080
:101080009093D3008093D2001F91089580E090E068
:10109000FC01ED56FC4F1082FC01EC55FC4F108218
:1010A000019681319105A1F78AE08093650008954A
:1010B0008FEF87BB88BB1ABA14BA8BBB85BB8F98DE
:1010C000979A0E944608089581E08093E500E4EA3B
:1010D000F3E08081882319F01092E50005C0319675
:1010E00083E0E53BF807A9F78091E500089584EADD
:1010F00093E008958F929F92AF92BF92DF92EF920A
:10110000FF920F931F93CF93DF93DD24C0E0D0E0D5
:1011100021E0E22EF12C97E1892E912C8FE0A82E70
:10112000B12C87010C2E02C0000F111F0A94E2F7A8
:1011300007BB802F809588BB81E090E00E94E41877
:10114000E4EAF3E040E050E0302F3095842F48305F
:1011500048F429B3C701042E02C0880F991F0A94CE
:10116000E2F711C08850883018F423B3C50102C0DB
:1011700020B3C401841B950BB70102C0660F771F13
:101180008A95E2F7CB01209528239081802F89232F
:1011900019F0222329F008C0222331F0902B01C03E
:1011A00093239083DD24D3944F5F5F4F3196413179
:1011B000510561F62196C830D10509F0B2CFDD2086
:1011C00019F01092640007C080916400843618F40E
:1011D0008F5F8093640020E09091640080916500AF
:1011E000981709F421E0822FDF91CF911F910F9181
:1011F000FF90EF90DF90BF90AF909F908F900895F9
:101200000E947A0808954F925F926F927F929F9208
:10121000AF92BF92CF92DF92EF92FF920F931F9304
:10122000CF93DF93EE24FF2451E0C52ED12C47E16C
:10123000442E512C3FE0632E712C68C00C2F8091FE
:10124000E4006C2F492D0E9488170E948610182FE9
:10125000865F823060F01E3F51F0183F41F01B3F27
:1012600009F048C08091E400823009F043C0A7BA79
:10127000B8BA81E090E00E94E418083048F429B33D
:10128000C6010C2E02C0880F991F0A94E2F711C004
:101290000850083018F423B3C30102C020B3C201C0
:1012A0008C1B9D0BA60102C0440F551F8A95E2F7C7
:1012B000CA0120952823F1F01E3F61F0183F09F480
:1012C00044C0173F49F48091E500882399F081E0FC
:1012D0008093E60011E03DC0163F41F48091E500A7
:1012E000882341F082E08093E6002FC01B3F11F479
:1012F00010E02FC02196C131D10509F09FCF08948D
:10130000E11CF11C58E0E516F10471F09E2CC601B9
:101310000E2C02C0880F991F0A94E2F7A82EB82E4F
:10132000B094C0E0D0E08ACF0E946408882311F016
:101330001092E6001091E600112359F40E94581A09
:10134000813029F482E08093E40012E002C0109220
:10135000E400812FDF91CF911F910F91FF90EF90CB
:10136000DF90CF90BF90AF909F907F906F905F90F5
:101370004F900895813011F090E006C090E0613008
:1013800009F091E081E09827892F0895089583B7A7
:10139000887F826083BF12BE89B7816089BF109247
:1013A000B5031092B6031092B7031092B8030895D4
:1013B0008EB5887F83608EBD1DBC1CBC89B78460E0
:1013C00089BF089585B5887F846085BD14BC89B7C1
:1013D000806489BF1092BD031092BE031092BF03B8
:1013E0001092C003089580E090E0FC01EE0FFF1F13
:1013F000E951FF4F11821082019688309105A9F7BB
:101400000E94C7090E94D8090E94E20978940895B1
:1014100093B7987F982B93BF08959EB5987F982B8C
:101420009EBD089595B5987F982B95BD089583B777
:10143000E82FF0E0E770F070EE0FFF1FEE5EFE4F5A
:1014400025913491C90108958EB5E82FF0E0E77039
:10145000F070EE0FFF1FEE5EFE4F25913491C90133
:10146000089585B5E82FF0E0E770F070EE0FFF1FEC
:10147000E25EFE4F25913491C9010895883040F411
:10148000E82FF0E0EE0FFF1FE951FF4F71836083FB
:101490000895883040F4E82FF0E0EE0FFF1FE95187
:1014A000FF4F118210820895EF92FF920F931F93C6
:1014B000CF93DF93EC0112B71092B9031092BA03E5
:1014C0001092BB031092BC0383B7E82FF0E0E770E3
:1014D000F070EE0FFF1FEE5EFE4F2591349140E05D
:1014E00050E060E07BE187EB90E00E947424B9015A
:1014F000CA01693B2DE8720726E0820720E09207C7
:10150000A0F437E2C131D30780F49E0140E050E0FF
:101510000E94222428EE33E040E050E00E94742430
:10152000C901DA01BC01CD0121C028EE33E040E061
:1015300050E00E947424CA01B9019E0140E050E0CD
:101540000E94222413C08091B9039091BA03A09104
:10155000BB03B091BC0385B78F7885BF85B7806822
:1015600085BF889585B78F7785BF08C09B01AC0183
:10157000210F311D411D511D79018A012091B903AF
:101580003091BA034091BB035091BC0382B790E005
:10159000A0E0B0E0542F432F322F2227822B932B31
:1015A000A42BB52B8E159F05A007B10760F2DF9124
:1015B000CF911F910F91FF90EF9008951092B50376
:1015C0001092B6031092B7031092B80308952091B9
:1015D000B5033091B6034091B7035091B803B901F8
:1015E000CA0108951092BD031092BE031092BF036A
:1015F0001092C00308952091BD033091BE03409125
:10160000BF035091C003B901CA010895893031F474
:101610008FB582608FBD8FB58E7F0AC08A3019F476
:101620008FB5826002C08FB58D7F8FBD8FB5816011
:101630008FBD1BBC1ABC19BC18BC08952FB52E7FDA
:101640002FBD2FB522602FBD2EB528602EBD2EB523
:1016500020612EBD97BD86BD1BBC1ABC19BC18BC31
:1016600008958FB58D7F8FBD8FB58E7F8FBD8FB560
:101670008F778FBD8FB58F7B8FBD8FB58F7D8FBDE2
:101680008FB58F7E8FBD08958FB580688FBD8FB564
:101690008F7B8FBD08958FB580628FBD8FB58F7E94
:1016A0008FBD08958FB58F778FBD8FB58F7B8FBD21
:1016B00008958FB58F7D8FBD8FB58F7E8FBD0895B7
:1016C0009BBD8ABD089599BD88BD08951F920F9254
:1016D0000FB60F9211242F933F934F935F936F9305
:1016E0007F938F939F93AF93BF93EF93FF938091DB
:1016F000B5039091B603A091B703B091B8030196DA
:10170000A11DB11D8093B5039093B603A093B703B9
:10171000B093B8038091B9039091BA03A091BB0331
:10172000B091BC030196A11DB11D8093B9039093A4
:10173000BA03A093BB03B093BC038091E7009091E0
:10174000E800892B29F0E091E700F091E800099585
:10175000FF91EF91BF91AF919F918F917F916F9189
:101760005F914F913F912F910F900FBE0F901F905F
:1017700018951F920F920FB60F9211242F933F933B
:101780004F935F936F937F938F939F93AF93BF9389
:10179000EF93FF938091E9009091EA00892B29F063
:1017A000E091E900F091EA000995FF91EF91BF9176
:1017B000AF919F918F917F916F915F914F913F91E9
:1017C0002F910F900FBE0F901F9018951F920F92A0
:1017D0000FB60F9211242F933F934F935F936F9304
:1017E0007F938F939F93AF93BF93EF93FF938091DA
:1017F000BD039091BE03A091BF03B091C0030196B9
:10180000A11DB11D8093BD039093BE03A093BF03A0
:10181000B093C0038091F1009091F200892B29F0E0
:10182000E091F100F091F2000995FF91EF91BF91E5
:10183000AF919F918F917F916F915F914F913F9168
:101840002F910F900FBE0F901F9018951F920F921F
:101850000FB60F9211242F933F934F935F936F9383
:101860007F938F939F93AF93BF93EF93FF93809159
:10187000F5009091F600892B29F0E091F500F091A8
:10188000F6000995FF91EF91BF91AF919F918F91D4
:101890007F916F915F914F913F912F910F900FBE6C
:1018A0000F901F9018951F920F920FB60F92112450
:1018B0002F933F934F935F936F937F938F939F9358
:1018C000AF93BF93EF93FF938091EB009091EC0067
:1018D000892B29F0E091EB00F091EC000995FF9144
:1018E000EF91BF91AF919F918F917F916F915F9198
:1018F0004F913F912F910F900FBE0F901F90189511
:101900001F920F920FB60F9211242F933F934F9374
:101910005F936F937F938F939F93AF93BF93EF9357
:10192000FF938091ED009091EE00892B29F0E091DA
:10193000ED00F091EE000995FF91EF91BF91AF910D
:101940009F918F917F916F915F914F913F912F91D7
:101950000F900FBE0F901F9018951F920F920FB609
:101960000F9211242F933F934F935F936F937F9325
:101970008F939F93AF93BF93EF93FF938091EF006B
:101980009091F000892B29F0E091EF00F091F000A8
:101990000995FF91EF91BF91AF919F918F917F91A9
:1019A0006F915F914F913F912F910F900FBE0F90CC
:1019B0001F9018951F920F920FB60F9211242F931C
:1019C0003F934F935F936F937F938F939F93AF93C7
:1019D000BF93EF93FF938091F3009091F400892BD4
:1019E00029F0E091F300F091F4000995FF91EF9157
:1019F000BF91AF919F918F917F916F915F914F9127
:101A00003F912F910F900FBE0F901F9018958093CC
:101A1000F800F8948091C2038F7E8093C203809176
:101A2000C20388608093C20378940895F8948091EB
:101A3000C2038B7F8093C20378948091F70008954E
:101A40008FEC84BD8091C103833000F58B98939A0D
:101A50008091C20380FF23C0829BA3C08091C103F9
:101A6000813031F0813040F0823009F0F6C006C09C
:101A7000839902C08DE096C082E094C08091C20339
:101A800083FFEBC093988B9A84E28CC08091C10352
:101A90008A3108F079C08091C20380FD08C080912E
:101AA000C20381608093C2038A98929A0895829BB0
:101AB00076C08091C103873140F4803118F58D30B4
:101AC00061F08F3009F055C00CC08831E1F18831E8
:101AD00058F1893109F04DC049C08091C2038D7F12
:101AE0004DC08091C2038B7F8093C203839B05C04E
:101AF00080E88093F70081E014C01092FA00109201
:101B0000F70037C08091F70086958093F700839B9C
:101B100030C08091F70080688093F7008091FA00D0
:101B20008F5F8093FA0025C0839B05C08091FA00E7
:101B30008F5F8093FA008091FA0080FD1AC0809137
:101B4000C203826010C0839905C08091C203826085
:101B50008093C2038091C20381FD0BC093988B9A3E
:101B60008091C20384608093C20303C08B98939AD0
:101B70006CC092988A9A8091C2038E7F8093C20330
:101B80008091C1038F5F0EC08091C1038F3208F036
:101B900064C08091C20380FF10C0829906C08B98F8
:101BA000939A81E08093C10308958091C2038E7F50
:101BB0008093C20392988A9A08958091C2038160AB
:101BC0008093C2038A98929A8091C1038C3228F440
:101BD000853280F48432E1F507C08D3299F18D327F
:101BE000E8F08E32A9F531C08091F8008093F900B9
:101BF0001092FA008091F90080FF08C08B98939AA8
:101C00008091FA008F5F8093FA0002C093988B9ABC
:101C10008091F90086958093F9001AC08091FA00AE
:101C200080FF03C093988B9A02C08B98939A8091FF
:101C3000C203877F8093C2038091C2038061809337
:101C4000C20306C08B98939A03C01092C1030895F3
:101C50008091C1038F5F8093C10308951092C103E7
:101C600081E18093C2038A98929A8B98939A0E94FA
:101C7000E20982E00E94120A85E060E27DE00E94B3
:101C80003E0A8FEC84BD089585B7826085BF8BB70F
:101C900080648BBF8BE48093CF038093FB038AE542
:101CA0008093CE038093FA0308951F93CF93DF931D
:101CB0000E94BB056091E003635067FDC1C0809145
:101CC000DC03CCE0D0E0C81BD109CC51DC4F8091C3
:101CD000DB038D3209F0A1C0683009F0AFC083EC9E
:101CE0008093C3038AE5809366001092FB0088818D
:101CF000807629F0CE010E94E21F182F7BC09A81C6
:101D00001092CC038981882321F41092CD0312E034
:101D10006AC0853019F49093E10364C0863009F0FD
:101D20004BC08B81813069F489B78B7F89BF0E945A
:101D3000BB058EE591E09093DF038093DE0312E113
:101D400037C0823019F18330F9F48A81882341F455
:101D50008EE291E09093DF038093DE0314E028C0CD
:101D6000813041F482E391E09093DF038093DE03BE
:101D70001CE11EC08230D9F48EE491E09093DF0321
:101D80008093DE0310E114C0813229F4CE010E9459
:101D90009A1F182F0DC0823251F4CE010E949A1F53
:101DA000182F89B7846089BF0E94BC0501C010E06C
:101DB00080E48093FB001EC0883021F411E083EEA4
:101DC00093E013C0893019F49093E3030BC08A3079
:101DD00011F411E008C08B3029F48BE48093CF0319
:101DE0008093FB0310E08CEC93E09093DF038093EF
:101DF000DE0309C01F3F39F4888187FD1E8180E81A
:101E00008093FB0006C08F81882319F48E8181178F
:101E100008F0812F8093670011C08091FB0087FF3D
:101E20000DC0CE010E94D41F8F3F21F48EE180931C
:101E3000660004C0882311F0109267001092E0033E
:101E40008091660084FF46C0809167008F3F09F44F
:101E500041C0182F893008F018E0811B809367007B
:101E60008091C30398E889278093C303112321F14C
:101E70002091DE033091DF038091FB0086FF0AC0D2
:101E8000912FF901A4ECB3E084918D933196915098
:101E9000D9F708C0912FD901E4ECF3E08D9181933B
:101EA0009150E1F7C90101961150810F911D1F5FFB
:101EB0009093DF038093DE0384EC93E0612F0E9414
:101EC000A103612F6C5F6C3019F08FEF8093670076
:101ED0006093660094E180B38C7031F49150D9F72F
:101EE0001092E1031092DA030E94BC05DF91CF91BA
:101EF0001F910895EF92FF921F93CF93DF937C0180
:101F0000162FEA010E94BB05888184FF05C08981E4
:101F100098E88927898302C08AE58883AE014E5FED
:101F20005F4F212FFA01D7018D917D0181932150BF
:101F30001216CCF3CA01612F0E94A1031C5F188303
:101F40000E94BC05DF91CF911F91FF90EF90089503
:101F50004AEF53E00E947A0F08954EEC53E00E943E
:101F60007A0F0895982F8091FD0080FF0FC0993659
:101F700011F49AE60BC09A3611F499E607C09D3623
:101F800011F49EE603C09E3609F49DE6892F08955C
:101F90000E945F10982F8091FC009817A1F09C3050
:101FA00031F0903C21F0983411F0943841F41092C3
:101FB00002011092010182E08093FE0002C01092A3
:101FC000FE009093FC004091FE00442391F180912B
:101FD0000101909102010196909302018093010109
:101FE0002091FF00309100012817390714F5423085
:101FF000C1F40E94F8048091FD0080FF04C08E7F30
:102000008093FD000EC081608093FD0088EE93E018
:102010002CE231E0F9013197F1F70197D9F70E94ED
:10202000F80488E090E06091FD000E94F62610928E
:10203000FE00089588E090E00E94EE268093FD0067
:102040008F3F11F41092FD008091CB00882311F096
:10205000833019F484EC99E002C088E893E190930E
:1020600000018093FF000895982F8756883068F408
:10207000E92FF0E0EE0FFF1FE656F04080819091CF
:102080000301892B80930301089580910A01873011
:1020900040F4E82FF0E0ED5FFE4F90838F5F809378
:1020A0000A01089583E091E00895873010F080E000
:1020B0000895E82FF0E0ED5FFE4F80810895809154
:1020C0000301089581E080930A0187E0E3E0F1E0F5
:1020D000DF011D928A95E9F7089580910F01089517
:1020E00091E1899FC0011124860F911D23E0880F83
:1020F000991F2A95E1F7840F911DE0918800F091D6
:102100008900E80FF91FE4918E2F0895E82F865D6E
:10211000803140F4F0E0E656FF4FE4918E2F0E94AC
:10212000B20FE82F8E2F0895982F80910F018823EA
:1021300021F0892F0E948610982F892F08951F93D0
:10214000982F865D662349F18031A8F480910C01B7
:102150008F5F80930C0180910D018823D1F48091D1
:102160000E018823B1F490930B0181E080930D015F
:1021700010920F014FC080910B01882351F4809180
:102180000D01882309F046C080910E018F5F809376
:102190000E0181E080930F013DC08031A0F5809158
:1021A0000C01882319F0815080930C01E0910B0100
:1021B000EE2301F180910F018823E1F4F0E0E65570
:1021C000FF4F1491812F0E940019812F0E94001946
:1021D00010920B010E948F11882361F0812F60E023
:1021E00040E021E00E944314812F60E040E020E0C5
:1021F0000E94431480910C01882361F410920D0118
:1022000010920E0107C080910E01882319F08150B1
:1022100080930E011F9108951F93CF93DF93EC01DC
:10222000162F90910B019923C9F080910F018823FB
:10223000A9F0892F0E949410612FFE0109950E9438
:102240008F11882349F080910B010E94941060E067
:1022500040E021E00E94431410920B01DF91CF91E6
:102260001F91089580911001089580911001882395
:1022700029F481E0809310010E94A20508958091C5
:102280001001882311F58091110190911201A09104
:102290001301B09114010196A11DB11D809311018C
:1022A00090931201A0931301B0931401805E93499F
:1022B000A440B04054F010921101109212011092FB
:1022C0001301109214010E9435110895809110019C
:1022D000882321F0109210010E942A061092110109
:1022E000109212011092130110921401089580911E
:1022F000CB00882311F0833031F484EC99E0909383
:10230000BE008093BD00089580911B0181700895E7
:1023100080912001089581E080932001089590E04C
:10232000809122018B3009F491E0892F089588E291
:102330000E94001988E20E940019089580E3E7EAEC
:10234000F4E0DF01982F1D929A95E9F71092D704D7
:10235000E7E0F4E0DF011D928A95E9F710921A0197
:1023600008950F931F93FC0180810E946B198C01CB
:10237000882319F088E60E940019812F0E94001915
:10238000812F0E940019002319F088E60E9400198D
:102390001F910F910895CF92DF92EF92FF920F93CA
:1023A0001F93DF93CF930F92CDB7DEB78C010097C9
:1023B00011F52FC000D000D000D0EDB7FEB7319698
:1023C000ADB7BEB71296FC92EE921197D382C2823D
:1023D000992787FD9095958384830E94ED248DB77E
:1023E0009EB706960FB6F8949EBF0FBE8DBFC7016D
:1023F0000E94B11108C07E010894E11CF11C8AE81A
:10240000C82E80E0D82EF8010F5F1F4F84918823DB
:1024100089F60F90CF91DF911F910F91FF90EF9070
:10242000DF90CF9008958FE994E00E94CB110E9435
:10243000971127E234E080E090E00BC01192E217A0
:10244000F307E1F701969F01285F3F4F8131910526
:1024500049F0FC0143E0EE0FFF1F4A95E1F7E15E12
:10246000FB4FECCF81E090E090932C0180932B0107
:10247000089582ED95E00E94CB110E94971181E0B2
:10248000809319018CE08093240110922201089519
:1024900080912B0190912C01892B29F410921B0122
:1024A00010922401089583E095E00E94CB110E94D0
:1024B000971181E0809319018BE080932401809132
:1024C00022018093230110922201089588EE93E067
:1024D0000E94CB110E94971108950E94971183E3E7
:1024E00093E00E94CB110E94971189E393E00E9430
:1024F000CB110E9497118EE493E00E94CB110E94B1
:10250000971181E693E00E94CB110E94971185E517
:1025100093E00E94CB110E94971187E080932201E3
:102520000895AF92BF92CF92DF92FF920F931F93C5
:10253000DF93CF930F92CDB7DEB78C01FF246E01EE
:102540000894C11CD11C5AE8A52E50E0B52E25C018
:1025500000D000D000D0EDB7FEB73196ADB7BEB712
:102560001296DC92CE921197B382A282800F911FB5
:10257000DC018C91992787FD9095958384830E9437
:10258000ED248DB79EB706960FB6F8949EBF0FBE8A
:102590008DBFC6010E94B111F3948F2D90E0F80118
:1025A00001900020E9F73197E01BF10B8E179F0790
:1025B00078F20F90CF91DF911F910F91FF90DF90F4
:1025C000CF90BF90AF90089581E0809319018091E2
:1025D0002201893088F48730E8F5833079F184303E
:1025E00030F48130E1F0823009F05CC024C08530E5
:1025F00059F1863060F525C08B30B9F18C3030F45C
:10260000893069F18A3009F04DC02CC08E3609F44A
:1026100047C0883789F1843609F044C038C080EF5C
:1026200093E00E94CB1180912D018F5F0E94E019F1
:102630000E9491121EC082E294E019C081E494E0ED
:102640000BC083E694E025C08BE794E022C0109293
:10265000190128C08EEB94E00E94CB1123C087E3C0
:1026600095E0FACF84E695E014C08FE795E00E94EC
:10267000CB110E94971116C080E293E00E94CB110B
:102680000E949711109222010E942F1A0BC086E11E
:1026900093E00E94CB110E9497111092220102C078
:1026A0000E947C1388EE93E02CE231E0F90131972F
:1026B000F1F70197D9F708950E9497118FE993E0F8
:1026C0000E94CB110E9497118FEA93E00E94CB11D8
:1026D0000E94971181E693E00E94CB110E9497110E
:1026E00085EC93E00E94CB110E94971187E08093C4
:1026F00022010E94E41208950E9497118FED92E04A
:102700000E94CB110E9497118BEE92E00E94CB1198
:102710000E94971189EF92E00E94CB110E949711BD
:1027200081E093E00E94CB110E94971188E093E032
:102730000E94CB110E94971188E0809322010E9491
:10274000E4120895CF93DF93C5EAD1E0CE0160E0B3
:102750000E94F626219683E0C53ED807B9F787E0A8
:10276000809322010E94E412DF91CF9108951F937C
:10277000CF93DF93809106048C30C8F4C0E0D0E0A2
:1027800010E380910604819FC00111248B559E4F58
:10279000FE01E955FB4F8C0F9D1F60810E94F626BC
:1027A0002196C033D10569F78FEF80930604DF913E
:1027B000CF911F9108950F931F93CF93DF93982F7D
:1027C0008C30C0F480E3989FC0011124EC01CB55FC
:1027D000DE4F8C010B521E4FCE010E94EE26982F29
:1027E00081508E3F18F4892F0E9400192196C0173E
:1027F000D10791F7DF91CF911F910F910895CF925B
:10280000DF92EF92FF920F931F93CF93DF939091FC
:102810002D0188E8989F700111248DE090E0E80E6A
:10282000F91ECC24DD2417C0CE018E0D9F1D0E9401
:10283000EE26F80181938F012196C830D105A1F7CA
:102840000894C11CD11C88E090E0E80EF91E91E1CB
:10285000C916D10459F0860163E0000F111F6A9573
:10286000E1F7015E1B4FC0E0D0E0DECF10922C01FB
:1028700010922B01DF91CF911F910F91FF90EF905C
:10288000DF90CF900895AF92BF92CF92DF92EF92F8
:10289000FF920F931F93DF93CF9300D00F92CDB78A
:1028A000DEB7B62EA42EC22E0E949410D82E809190
:1028B0001901882309F08DC2809122018B3009F023
:1028C0007EC282EB90E06BE04D2D0E9480187C016F
:1028D000909122019B3009F076C284ED8D1508F4A9
:1028E00078C280911801882399F0109217011092F4
:1028F00018018D2D0E940019E091D704F0E0EA55EF
:10290000FB4F10820E94B71387E08093220147C2D9
:10291000CC2071F080911A01883108F05AC28F5F83
:1029200080931A0187E094E06D2D0E94D81817C09B
:1029300007E014E0F80101900020E9F73197E01B6F
:10294000F10BC8016E2F4D2D0E948018BC019FEF26
:102950006F3F790709F43DC2C8010E94A618809113
:10296000D704E82FF0E0E955FB4FD0828F5F8093CA
:10297000D7048D2D0E9400198091D704803330F048
:1029800087E0809322010E94B71309C2CC2081F016
:10299000A2EBB0E0EA0EFB1EF7018081893241F420
:1029A00081E080931701109216011092150111C257
:1029B00010921701109218010CC2FAE0EF16F10400
:1029C00008F007C2E0912A01F0E0E95DFE4FE082E5
:1029D00000D000D000D0EDB7FEB731968E010F5F6A
:1029E0001F4FADB7BEB712961C930E9311978DE88B
:1029F00090E093838283F582E4820E94ED24EDB718
:102A0000FEB736960FB6F894FEBF0FBEEDBFC801F5
:102A10000E9491120E94971100912701809122013A
:102A2000883091F50130E1F4009321010E94971163
:102A300088E693E00E94CB110E94971183E793E010
:102A40000E94CB110E94971182E893E00E94CB1163
:102A5000009319018AE0809324011092220157C14A
:102A6000023029F4009321010E946D1250C10330FD
:102A700021F40093210184E633C0043009F047C1FA
:102A80000093210188E72CC0063019F48EE680936C
:102A90002201809121018130C9F4013011F002300E
:102AA00019F40093220133C1033031F484E08093A0
:102AB00022010E9448122BC1043011F485E010C09D
:102AC000093009F024C10E941312C4C0823009F0F9
:102AD0001EC1013011F489E018C1023041F48AE0CE
:102AE0008093220110921B011092240110C1093021
:102AF00009F00DC18CE0809322010E94391207C1B8
:102B0000923089F1FAE0EF16F10408F062C1809189
:102B10002A01E82FF0E0E95DFE4FE0828F5F8093AD
:102B20002A0100D000D000D0EDB7FEB731968E015B
:102B30000F5F1F4FADB7BEB712961C930E93119740
:102B40008DE890E093838283F582E4820E94ED24F5
:102B5000EDB7FEB736960FB6F894FEBF0FBEEDBFC9
:102B6000C8010E949112FAE0EF16F10428F080915A
:102B70002201823009F02DC180912201823009F4B6
:102B80006BC0833020F4813009F016C131C083302E
:102B900009F4C0C0893009F00FC180912A01823048
:102BA000E9F4909127018AE0989F90011124809187
:102BB0002801280F311DC90101970C9750F4822F6D
:102BC0008150809306048BE0809322010E949E1125
:102BD000DDC00E94971186EB95E0D6C088EE93E0A9
:102BE0002CE231E0F9013197F1F70197D9F7F1C003
:102BF0009091270180912D01833050F5192F1150AC
:102C0000811731F1133020F580912B0190912C0127
:102C1000181619066CF40E9497118DED94E00E942D
:102C2000CB110E9497110E94481210932E016FC081
:102C30000E94971180EF94E00E94CB110E9497119F
:102C400087E08093220110932D010E94FF135FC043
:102C50000E94971187E059C0B0922501A0922601E9
:102C60008DE095E00E94CB11809125018F5F0E943D
:102C7000E0190E94911280E990E00E9491128091E7
:102C800026018F5F0E94E0190E94911283E990E073
:102C90000E94911280912D018F5F0E94E0190E9485
:102CA00091128CE990E00E94911280912D01609127
:102CB0002601409125010E9470100E94E0190E9497
:102CC000911286EA90E00E94911280912501E09194
:102CD0002601F0E0A3E0EE0FFF1FAA95E1F7E80F51
:102CE000F11DE15EFB4F808190E08F3F910511F473
:102CF00080E090E00E94E0190E94911280EB90E049
:102D00000E9491120E94971183E0809322011092F9
:102D10002A0152C080912A01833009F043C090916A
:102D2000270184E6989FA0011124809128012AE0C0
:102D3000829FC0011124480F591F80912901480F1B
:102D4000511D4F3F5105E4F480912501E09126018A
:102D5000F0E073E0EE0FFF1F7A95E1F7E80FF11D49
:102D6000E15EFB4F408387E08093220180912B013D
:102D700090912C01019690932C0180932B0106C019
:102D80000E94971189E195E00E94CB1183E0E7E270
:102D9000F1E0DF011D928A95E9F710922A010E9465
:102DA00097110AC088EE93E02CE231E0F9013197E7
:102DB000F1F70197D9F70DC00E94E4120AC0CC20A8
:102DC00009F47FCD06C0892F8750823008F098CE55
:102DD000F4CD0F900F900F90CF91DF911F910F9135
:102DE000FF90EF90DF90CF90BF90AF900895BF928B
:102DF000CF92DF92EF92FF920F931F93CF93DF93C7
:102E0000EE24FF24CC24DD2418E8B12E1EC08091CE
:102E10002D018B9DC00111240D968C0D9D1D8C0FD5
:102E20009D1FF80161918F010E94F6262196C830FE
:102E3000D10569F70894E11CF11C88E090E0C80E08
:102E4000D91E91E1E916F10459F08701B3E0000FB2
:102E5000111FBA95E1F7015E1B4FC0E0D0E0D7CF5C
:102E600010922C0110922B0180912301843039F4AF
:102E70008093220110921B011092240113C0813013
:102E800089F40E94971180EF94E00E94CB110E9478
:102E9000971187E08093220180912E0180932D016C
:102EA0000E94FF130E94E412DF91CF911F910F91B6
:102EB000FF90EF90DF90CF90BF90089583E0E7E21E
:102EC000F1E0DF011D928A95E9F710922A01109234
:102ED0002D01109221010E94FF130E947C1308957E
:102EE0001F93982F80911B0180FD0FC0192F195C33
:102EF0001C3058F40E944119882339F00E94EE19C1
:102F0000812F0E94DB1381E001C080E01F910895B2
:102F1000FF920F931F93182F062FF42E80911B0101
:102F20008823E1F0809122018B30E1F588E8189F39
:102F3000C00111240D96262F30E053E0220F331FDD
:102F40005A95E1F7820F931F840F911D0E94EE2680
:102F5000982F895C8C30A8F490E013C088E8189F03
:102F6000C00111240D96262F30E043E0220F331FBD
:102F70004A95E1F7820F931F8F0D911D0E94EE2657
:102F8000982F892F81508E3F30F0812F602F4F2D49
:102F90000E947010982F892F0E94B20F1F910F91DD
:102FA000FF900895812F0E947010F8CF80911B012F
:102FB000816080931B018091CB008150823018F496
:102FC0000E94792002C00E943F1C0E946612089550
:102FD0000E945F10982F80911B0180FD18C0809186
:102FE0001F019817A1F0973261F480911C0188238A
:102FF00041F410921E0110921D0181E080931C018A
:1030000004C010921B0110921C0190931F0180912B
:103010001B0180FF0DC081FD0BC00E946408882346
:1030200039F080911B01826080931B010E945E1722
:1030300080911B018823C9F480911C018130A9F47F
:1030400080911D0190911E01019690931E01809325
:103050001D012091BD003091BE00281739072CF4C6
:103060000E94D61782E080931C0180911B0181FF92
:1030700036C0809119018823C9F00E945019882315
:10308000A9F0809124018B3019F40E94F7160CC02E
:103090008A3019F40E945C1307C08C3019F40E9426
:1030A000A21302C0109219011092240180911701FD
:1030B0008823A9F0809115019091160101969093B3
:1030C000160180931501895E93404CF081E0809356
:1030D000180189E26FEF4FEF20E00E94431408953A
:1030E0000E94331A882319F01092200108958091CC
:1030F0002001813021F40E94D617109220010895FA
:10310000FC0190E007C08191841719F4292F30E069
:1031100005C09F5F9617B8F32FEF3FEFC9010895E1
:10312000FC01808140E02FEF3FEF0CC05191252F33
:1031300030E090E02817390719F02FEF3FEF04C077
:103140004F5F852F461790F3C90108959B01FC013D
:1031500001900020E9F73197E81BF90B6F5F7F4F73
:10316000680F791FE21BF30B820F931FAF010E94C0
:10317000BA240895FF920F931F93F42E9B01DC0154
:103180000D900020E9F78C01060F171FA81BB90B43
:10319000A61BB70B2F5F3F4F820F931FB801AD01E6
:1031A0000E94BA24F801F0821F910F91FF900895B8
:1031B000462FDC010D900020E9F71197A81BB90BF1
:1031C000BD010E94BA1808950F931F9300912F011B
:1031D00010913001039665E070E00E944D2480E07C
:1031E00090E02CE030E040E050E00E942224060F06
:1031F000171F1093300100932F011F910F91089515
:10320000282F8091670190916801019660E071E03C
:103210000E946124FC019093680180936701809172
:103220006501909166018E179F0759F4009719F474
:103230008FEF90E001C00197909368018093670140
:103240000895E759FE4F208308952091650130913C
:10325000660180916701909168012817390711F480
:1032600080E00895C901019660E071E00E94612448
:10327000FC019093660180936501E759FE4F8081C0
:10328000089540E0209165013091660180916701C9
:10329000909168012817390709F441E0842F0895B7
:1032A00080916401882319F440E050E00FC040E0B1
:1032B00050E0209165013091660180916701909105
:1032C00068012817390711F441E050E0842F089570
:1032D000809364010895982F81568A3118F4292F1C
:1032E0002D5510C0892F81548A3120F4292F2D5358
:1032F00032E009C0892F8153893010F020E002C0EC
:10330000292F235130E0892F992787FD9095A92FE8
:10331000B92FFC01B097EF35F10508F048C0E65D24
:10332000FF4FEE0FFF1F0590F491E02D09942EE161
:1033300041C02FE13FC020E23DC021E23BC022E27C
:1033400039C023E237C024E235C025E233C026E28B
:1033500031C027E22FC02CE22EC02DE22CC02DE27E
:1033600029C02EE228C02EE225C02FE224C02FE281
:1033700021C020E320C020E31DC021E31CC021E3C5
:1033800019C023E318C023E315C024E314C024E3C9
:1033900011C025E310C025E30DC026E30CC026E3D1
:1033A00009C027E308C027E305C028E304C022239F
:1033B00011F428E332E0832F922F089527E2FBCF08
:1033C0000F931F9301E611E090E0B8014AE050E04E
:1033D0000E94CC24C8011F910F910895209165018E
:1033E0003091660180916701909168012817390733
:1033F00039F480E3E1E3F1E0DF011D928A95E9F71A
:1034000008951F93CF93DF930E942519182FC1E3CE
:10341000D1E0882331F480E3FE0111928A95E9F727
:1034200012C0FE0101900020E9F73197E153F1400D
:10343000CE016E2F412F0E948018BC0197FD05C060
:10344000CE010E94A61880E005C0CE01612F0E9427
:10345000D81881E0912FDF91CF911F91089581E0DD
:103460008093690208958091690208950F931F93D4
:10347000082F162F8FEB90E00E949112812F0E944F
:10348000E0190E94911281EC90E00E949112802F2D
:103490000E94E0190E94911283EC90E00E94911228
:1034A0001F910F9108950E94E8170E94C80F089578
:1034B00080916B0208950F931F93082F122F0E9483
:1034C0005905802F612F0E949F10112389F10C3F15
:1034D00049F080916A02882391F00A3281F41092B7
:1034E0006B0206C080916B0291E0892780936B028A
:1034F00080916B02882319F50E94280520C00932AB
:1035000021F481E080936A021DC0882311F0093301
:1035100011F00D3F19F40E942F0611C00A3F19F453
:103520000E945B060CC0093F61F40E94420607C07E
:103530000C3F29F0093229F410926A0202C080E09F
:1035400001C081E01F910F910895282F8F3F31F422
:1035500010926D0281E08093760208958E3F21F0F3
:103560008D3F29F410926D02109276020895809199
:103570007602882351F080916D02E82FF0E0E05C44
:10358000FC4F20838F5F80936D0280917402909135
:103590007502019668EC70E00E946124FC01909332
:1035A00075028093740280917202909173028E175B
:1035B0009F0759F4009719F487EC90E001C0019738
:1035C00090937502809374020895E958FD4F20830B
:1035D000089520917202309173028091740290914B
:1035E00075022817390711F480E00895C901019682
:1035F00068EC70E00E946124FC0190937302809358
:103600007202E958FD4F8081089540E020917202D6
:1036100030917302809174029091750228173907D6
:1036200009F441E0842F08951092730210927202FF
:10363000109275021092740210926D0210926E0236
:1036400010924A0310924B0310924C0310924D03B8
:10365000E3E9F3E0119283E0E43AF807D9F708953B
:10366000E9EDF4E0119285E0E938F807D9F726E9A9
:1036700032E006C0FC01E752FB4F8081826080830C
:10368000F901849190E02F5F3F4F009799F729E966
:1036900032E006C0FC01E752FB4F808184608083EA
:1036A000F901849190E02F5F3F4F009799F72DE942
:1036B00032E006C0FC01E752FB4F808188608083C6
:1036C000F901849190E02F5F3F4F009799F722EA2C
:1036D00032E006C0FC01E752FB4F808181608083AD
:1036E000F901849190E02F5F3F4F009799F720ED0B
:1036F00032E006C0FC01E752FB4F8081806180838D
:10370000F901849190E02F5F3F4F009799F7E3E92B
:10371000F3E0119283E0E43AF807D9F708950E94A4
:10372000411990E0882309F491E0892F089581E000
:10373000809392030E94F3050E94701808950F93DE
:103740001F93CF93DF93062F882309F490C00E9424
:103750009410982F853D08F08AC0282F30E0F90199
:10376000E057FE4F1491002309F450C080933F03AB
:1037700010924A0310924B0310924C0310924D0387
:1037800010928A05E901C752DB4F888181FF2EC064
:10379000963421F0983409F06CC00EC08FEF0E946F
:1037A000A51A80EE0E94A51A82E10E94A51A80EE59
:1037B0000E94A51A8CE726C08DEF0E94A51A81EE03
:1037C0000E94A51A84E10E94A51A87E70E94A51A03
:1037D00081EE0E94A51A80EF0E94A51A84E10E9442
:1037E000A51A80EF0E94A51A87E73BC082FD38C06A
:1037F0008FEF0E94A51A888180FF03C080EE0E948F
:10380000A51A812F0E94A51A8EEF2BC080913F032D
:10381000891711F410926D02E92FF0E0E752FB4F87
:10382000808181FF13C0963421F580EE0E94A51A95
:1038300080EF0E94A51A8CE70E94A51A80EE0E94D4
:10384000A51A80EF0E94A51A82E10BC082FD11C06B
:1038500080FF03C080EE0E94A51A80EF0E94A51A87
:10386000812F0E94A51A8CEF0E94A51A02C080E049
:1038700001C081E0DF91CF911F910F91089588E6FB
:1038800060E00E949F1B87E660E00E949F1B89E624
:1038900060E00E949F1B8CE660E00E949F1B0895E1
:1038A0000F931F93182F062F662321F00E94941068
:1038B0000E943410812F602F0E949F1B1F910F9137
:1038C0000895DF92EF92FF920F931F93182F062F08
:1038D000F42EE22E642F422F202F0E945B1AD82E46
:1038E000002339F0112329F080E59CE161E00E947A
:1038F0000C110E948411882339F0812F6F2D4E2DD9
:10390000202F0E94431411C0002339F0112329F005
:10391000812F0E947017882341F4DD2031F0812F20
:10392000602F0E94501C81E001C080E01F910F9128
:10393000FF90EF90DF9008954F925F926F927F9289
:103940008F929F92AF92BF92CF92DF92EF92FF92AF
:103950000F931F93CF93DF930E944119882341F067
:1039600081E00E9468190E9400098823A1F016C016
:1039700080E00E9468190E94011A813041F4892F69
:1039800061E00E949F1B8DEF0E94A51A04C0892F41
:1039900060E00E949F1B20E030E0AEC00E946210F9
:1039A0000E940309A82E0E9477084C0180917102A1
:1039B0008A1509F446C0EE24FF2491E0692E712C8B
:1039C00034C0F401EC0FFD1F0081FE01ED56FC4FE9
:1039D00080818B21F9F0809171026C2F4C2D0E9417
:1039E0008817D82E8A2D6C2F4C2D0E948817182FDF
:1039F000D81681F0882371F08D2D60E04C2D2C2F8E
:103A00000E94611C0B2131F0812F61E04C2D2C2F85
:103A10000E94611C2196C131D10599F60894E11CE0
:103A2000F11C88E0E816F10461F0CE2CC3010E2CE5
:103A300002C0880F991F0A94E2F7B82EC0E0D0E0C8
:103A4000C0CFA0927102BB24B394EE24FF2481E086
:103A5000482E512C34C0FE01ED56FC4F1081172129
:103A6000F401EC0FFD1F008107218A2D6C2F4C2DD6
:103A70000E948817D82E1017B9F00E94331A882395
:103A800039F00023A9F08C2F6C2D0E94361A10C03B
:103A9000002319F08D2D61E002C08D2D60E04C2DCA
:103AA0002C2F0E94611CB8222196C131D10599F6B4
:103AB0000894E11CF11C88E0E816F10461F0CE2CBA
:103AC000C2010E2C02C0880F991F0A94E2F7782ECB
:103AD000C0E0D0E0C0CF20E030E0F901ED56FC4F6F
:103AE000D401A20FB31F8C9180832F5F3F4F2131F0
:103AF000310599F72B2D30E0C901DF91CF911F914E
:103B00000F91FF90EF90DF90CF90BF90AF909F907C
:103B10008F907F906F905F904F9008951F93162F16
:103B20008E3F11F0809389050E94070D10938A053E
:103B30001F9108958F929F92AF92BF92CF92DF9282
:103B4000EF92FF920F931F9388E080938A050E9463
:103B50002E0E0E94301B0E94141B789416E9812EB1
:103B600099249394B5E0AB2EB12CC12CD12C80912B
:103B7000CB008823F9F4809192038823D9F48091B3
:103B800090039091910301969093910380939003F9
:103B90000197815D974074F081E08093CB001F9185
:103BA0000F91FF90EF90DF90CF90BF90AF909F90DC
:103BB0008F9008958091C20382FFC0C080916F02F0
:103BC000909170028C3F910561F0209172023091CA
:103BD000730280917402909175022817390709F0D9
:103BE000ADC00E94160D182F60918A05623009F44D
:103BF00057C0633018F4613039F44CC0663009F4B2
:103C00008DC0673009F455C0133F71F1143F60F463
:103C10001E3EC9F01F3E18F41D3EA9F522C0103FFC
:103C2000E9F0123F81F511C0163F09F1173F30F45A
:103C3000143F09F481C0153F31F57EC01E3F59F095
:103C40001F3F09F505C08EEE72C18AEF64E06FC1B7
:103C50008AEF68E06CC18091890569C18AEF62E0F2
:103C600066C18AEF66E063C18AEF67E060C1909247
:103C7000C500A092C600B092C700C092C800D09202
:103C8000C9000E94141B8AEF60E00E948E1D0E94F2
:103C9000971B6DCF853F09F44FC08AEF61E047C1A4
:103CA0000E94141B112311F060E001C063E08AEF51
:103CB0003EC1682F70E0CB0180769070A5E09595AD
:103CC0008795AA95E1F78093C500AB0148715070C4
:103CD000F3E055954795FA95E1F780E090E021E013
:103CE00030E003C0220F331F019684179507D4F3E9
:103CF00067707070269FC001279F900D369F900DB2
:103D00001124AA2797FDA095BA2F8093C6009093FF
:103D1000C700A093C800B093C9000EC00E94971BB3
:103D2000912F80E010FD84E091FD816092FD826022
:103D30000E941F050E9428058AEFF8C08091C203E7
:103D400084FF15CF80918A05843009F4E7C085305F
:103D500030F4882371F0833009F009CFDDC088305A
:103D600009F4E1C08C3009F45FC0853009F0FFCE62
:103D7000D8C02091720230917302809174029091A8
:103D800075022817390711F40E949C1C0E94531ACF
:103D90000E94A5060E94E91A282F30E03093700295
:103DA00020936F022C3F310509F4E1CE232B21F043
:103DB00060E00E948E1D60C080916D02882309F42E
:103DC000D6CE20914A0330914B0340914C03509141
:103DD0004D032F5F3F4F4F4F5F4F20934A03309368
:103DE0004B0340934C0350934D038091C500889D35
:103DF000C00111248A519F4FAA2797FDA095BA2F81
:103E0000281739074A075B070CF4B1CE10924A0312
:103E100010924B0310924C0310924D0310926E02BD
:103E20008CE080938A05A3CE80916E02882311F4E2
:103E30000E949C1C0E94531A0E94A50680916D024C
:103E40008823C1F020917202309173028091740234
:103E5000909175022817390769F480914A0390916F
:103E60004B03A0914C03B0914D030197A105B105FF
:103E700061F40FC010928A0510924A0310924B030E
:103E800010924C0310924D0372CE80916E028823E3
:103E9000A9F090916E02E92FF0E0E05CFC4F808188
:103EA0009F5F90936E026CE00E948E1D60916D0288
:103EB00080916E020E94412490936E02E0904A032A
:103EC000F0904B0300914C0310914D030894E11CBA
:103ED000F11C011D111D6091C6007091C7008091F9
:103EE000C8009091C9002AE030E040E050E00E9414
:103EF00022249B01AC012D5F3F4F4F4F5F4FC80104
:103F0000B7010E94962460934A0370934B038093F9
:103F10004C0390934D032BCE82E008C08BEA65E002
:103F200006C083E803C00E94141B8AEA60E00E9476
:103F30008E1D1DCEFC018381813261F08232D9F069
:103F4000823081F58EE996E09093DF038093DE0363
:103F50008BE308958281882319F0813019F503C01D
:103F600080EB96E002C089EC96E09093DF038093AB
:103F7000DE0389E0089584819581009719F0019707
:103F800089F408C08BED95E09093DF038093DE0306
:103F900080E408958BE196E09093DF038093DE0345
:103FA00083E8089580E00895FC0180915A038823F6
:103FB00029F0613019F480810E94212310925A0364
:103FC00081E008950F931F93CF93DF93182F092F4C
:103FD0000E943020C12FD02F80914E038093DE03AA
:103FE0001092DF03888180768032A1F5898181304B
:103FF00011F488E030C0893071F48A819B8180504F
:10400000924041F58C819D81892B21F581E080933F
:104010005A038FEF20C0823019F48091590314C0E5
:104020008A3031F40E9434208B818093590312C06E
:10403000833031F48B81882369F41092CA000BC05D
:104040008B3041F48091CA008093DE031092DF032D
:1040500081E001C080E0DF91CF911F910F91089521
:1040600081E080939203089580915C03882319F482
:1040700081E080935C030895982F81578A3110F076
:1040800080E0089581E080935B03E92FF0E0EE0F7C
:10409000FF1FE25AFE4F2591349180935603662309
:1040A00029F0209357033093580308951092570333
:1040B0001092580381E0089580915F03882331F4C2
:1040C0000E94411920E030E0882311F421E030E023
:1040D000822F089588E0EEE4F3E0DF011D928A95D7
:1040E000E9F783E0E6E5F3E0DF011D928A95E9F761
:1040F000089580E3E0E6F3E0DF011D928A95E9F799
:1041000008950E949410982F853D60F581578A315B
:1041100048F1865F883068F4E92FF0E0EE0FFF1F6A
:10412000E656F040808190914E03892B80934E0398
:1041300017C09923C9F020918B052830A8F4892F46
:104140008D58823228F4E92FF0E0E951FE4F949126
:10415000E22FF0E0E25BFC4F90832F5F20938B0512
:1041600081E0089580E0089581E008959F92AF92E4
:10417000BF92CF92DF92EF92FF920F931F93CF9354
:10418000DF930E946A200E948411882309F03FC0B7
:104190000E94331A8823D9F50E9477087C010E9477
:1041A0000309982E00E010E051E0A52EB12C23C0A9
:1041B000F701EC0FFD1F80818D21A1F0892D6C2F5F
:1041C0004C2D0E948817E82F8756883058F4F0E06D
:1041D000EE0FFF1FE656F040808190914E03892B31
:1041E00080934E032196C131D10511F70F5F1F4F08
:1041F0000830110561F0C02EC501002E02C0880FE5
:10420000991F0A94E2F7D82EC0E0D0E0D1CF0E94E7
:104210004119882309F045C00E94011AE1E3F1E049
:10422000DF010D900020E9F71197AE1BBF0B82E074
:1042300080938B05EF01EA2EFF246F01CE0CDF1C6B
:1042400030E6A32E33E0B32E1AC01881812F875693
:10425000883080F0F50101900020E9F73197E056B1
:10426000F34080E693E06E2F412F0E9480188F5F0D
:104270009F4F21F4812F61E00E948120219641E32C
:1042800051E0CC15DD0509F781E080935F0320E65E
:1042900033E0F7013196C901BA01AF010E94B124A0
:1042A00006C080915F03882311F010925F0381E0C4
:1042B000DF91CF911F910F91FF90EF90DF90CF9002
:1042C000BF90AF909F9008950F931F93182F062FC4
:1042D000662321F00E9494100E943410812F602FD9
:1042E0000E9481201F910F9108953F924F925F92FB
:1042F0006F927F928F929F92AF92BF92CF92DF92F6
:10430000EF92FF920F931F93DF93CF9300D00F9202
:10431000CDB7DEB70E940009882309F4BFC00E9410
:104320000309382E82E080938B050E946A200E9448
:10433000621010925B030E9477083C01AA24198244
:10434000CC24DD2461E0462E512C87C09A80EA817E
:10435000FB81ED56FC4FE080E820EA81FB81E60D11
:10436000F71D00810821832D692D4B2D0E94881790
:10437000182FE01609F442C00E94331A882349F02E
:10438000002321F08A816B2D0E94361A0E9466114B
:104390005DC0112309F498C0002379F0812F6B2DA3
:1043A0004A8121E00E945B1AF82E0E94661184E681
:1043B00091E261E00E940C1109C0812F6B2D4A81AE
:1043C00020E00E945B1AF82EEE2021F10E94841159
:1043D0008823B1F0002349F0812F6B2D492D21E076
:1043E0000E94431481E0898329C0812F6B2D492DC0
:1043F00020E00E94431491E0998320C0FF24F394AD
:10440000002341F0112331F0812F0E94701788237F
:1044100009F044C0FF2091F0002329F0812F61E0D2
:104420000E946421A82AE01649F0002319F0812F88
:1044300061E002C0812F60E00E943C20EA81FB81A4
:104440003196FB83EA83719709F080CF0894C11CF1
:10445000D11CF8E0CF16D10461F0BC2CC2010C2CA9
:1044600002C0880F991F0A94E2F7882E1B821A82D5
:104470006DCF20E030E0F901ED56FC4FD301A20FE3
:10448000B31F8C9180832F5F3F4F2131310599F706
:104490008981813019F08A2D816001C080E00F9000
:1044A0000F900F90CF91DF911F910F91FF90EF90A0
:1044B000DF90CF90BF90AF909F908F907F906F9044
:1044C0005F904F903F900895FF24F3947FCFCF9259
:1044D000DF92EF92FF920F931F930E94440E8B9AEC
:1044E00020E048EB5BE0CA010197F1F72150D9F7D2
:1044F0008B98789400E010E0CC24C394F2E0DF2E97
:10450000E3E0EE2E8091CB008130E9F480919203BC
:104510008823C9F480919003909191030196909320
:104520009103809390030197815D974064F010920E
:10453000CB008BB78F7B8BBF1F910F91FF90EF90BC
:10454000DF90CF9008950E94550E002399F40E94A9
:104550007521082F08B600FE0FC0C8BEF0905903A1
:10456000FF2051F0153010F401E007C07BEFF72E6B
:10457000F10E03C00E947521F12E0E94531A809102
:10458000CE0384FF2AC080915C03813071F4D09205
:104590005C030E946A208EE493E068E00E94AD0F05
:1045A0000E9466110E94701818C00E945C20882327
:1045B00041F00E94B6208EE493E068E00E94AD0FC7
:1045C0000CC0002351F080915B03882331F48EE40A
:1045D00093E068E00E94AD0F00E080915C038230C0
:1045E00089F480915D0390915E03019690935E0340
:1045F00080935D030197883C910521F40E94F305A7
:10460000E0925C038091FA0384FF0CC0002351F018
:1046100080915B03882331F086E593E063E00E949C
:10462000A80F00E00E943F110E94A5060E945C2096
:10463000882311F080E001C081E00E9468191F2DDD
:1046400061CF0E941F050E94280508958D98959AB4
:1046500008958D9A959808951F9310E0812F0E94D8
:10466000490A1F5F1730D1F789B78E7F89BF89B795
:104670008B7F89BF89B78F7B89BF1F9108951F9357
:10468000182F0E9458080E94EF0481B38C6081BBF0
:1046900082B3837F82BB112379F08BE090E00E948C
:1046A000E41881B3837F81BB83B7856083BF0E9499
:1046B0002C238D98959A02C08D9A95981F910895F4
:1046C000F8940E9425051092910310929003109285
:1046D000920308958F929F92BF92CF92DF92EF92B2
:1046E000FF920F931F93CF93DF938FEF8093CB00B5
:1046F0000E94580881E090E00E94E41810E00E94B7
:104700007A08882319F41F5F1E31C9F70E947708C1
:104710006C01FF2400E010E081E0882E912C2AC07B
:10472000F601EC0FFD1F80818B21D9F08E2D6C2FAF
:104730000E94BA09882319F00E942F1A12C080E043
:104740006C2F4E2D0E947010803119F40E948B1135
:1047500008C0883111F481E003C0833111F482E094
:10476000F82A2196C131D105D9F60F5F1F4F0830C5
:10477000110561F0E02EC401002E02C0880F991FC0
:104780000A94E2F7B82EC0E0D0E0CACFFF2019F0BB
:10479000F394F092CB006091CB00643021F48CE074
:1047A00090E06FEF04C0643028F48CE090E00E9449
:1047B000F62606C08CE090E00E94EE268093CB00A7
:1047C0008A98929A2091CB002430D0F080E090E03B
:1047D000829907C092FD09C08F5F863060F021E0AA
:1047E0000AC0829B09C092FD02C080E004C08F5FB6
:1047F000863008F020E090B3223050F72093CB00B1
:104800000E9477110E941A108091CB008150823053
:1048100038F40E94602381E00E943F230E946722B7
:104820008091CB00882311F0833071F70E94EF0450
:104830000E94F8040E94602380E00E943F230E94AF
:104840009A1DE2CF629FD001739FF001829FE00D1D
:10485000F11D649FE00DF11D929FF00D839FF00DFF
:10486000749FF00D659FF00D9927729FB00DE11DAB
:10487000F91F639FB00DE11DF91FBD01CF01112488
:104880000895991B79E004C0991F961708F0961BAC
:10489000881F7A95C9F780950895AA1BBB1B51E123
:1048A00007C0AA1FBB1FA617B70710F0A61BB70BA0
:1048B000881F991F5A95A9F780959095BC01CD0145
:1048C000089597FB092E07260AD077FD04D0E5DF6F
:1048D00006D000201AF4709561957F4F0895F6F781
:1048E000909581959F4F0895A1E21A2EAA1BBB1B9C
:1048F000FD010DC0AA1FBB1FEE1FFF1FA217B307AC
:10490000E407F50720F0A21BB30BE40BF50B661FC1
:10491000771F881F991F1A9469F760957095809585
:1049200090959B01AC01BD01CF01089597FB092E25
:1049300005260ED057FD04D0D7DF0AD0001C38F46E
:1049400050954095309521953F4F4F4F5F4F0895BB
:10495000F6F790958095709561957F4F8F4F9F4F9B
:104960000895FB01DC0102C001900D9241505040BE
:10497000D8F708956817790768F4FB01DC01E40FA4
:10498000F51FA40FB51F02C002900E924150504077
:10499000D8F708950C94B124FB019F01E8944230AC
:1049A000C4F04532B4F44A3029F497FB1EF49095D4
:1049B00081959F4F642F77270E944D24805D8A3315
:1049C0000CF0895D8193CB010097A1F716F45DE2AD
:1049D00051931082C9010C941927AEE0B0E0E3EFC7
:1049E000F4E20C94C1270D891E8986E08C831A831A
:1049F00009838FEF9FE79E838D839E01275E3F4F44
:104A0000CE0101966F89788DA9010E9411252F8111
:104A10003885020F131FF80110822E96E4E00C94E3
:104A2000DD27ABE0B0E0E7E1F5E20C94B3273C0111
:104A30002B015A01FC0117821682838181FD03C07C
:104A40006FEF7FEFC6C19AE0892E1E010894211CEA
:104A5000311CF3012381F20123FD859123FF819114
:104A60002F01882309F4B2C1853239F423FD8591E1
:104A700023FF81912F01853229F490E0B3010E9438
:104A80002927E7CF982FFF24EE249924FFE1FF1573
:104A9000D0F09B3269F09C3228F4903259F0933276
:104AA00091F40EC09D3249F0903369F441E024C086
:104AB00052E0F52A84E0F82A28C098E0F92A25C0B7
:104AC000E0E1FE2A22C0F7FC29C0892F80538A30FA
:104AD00070F4F6FE05C0989C902C1124980E15C019
:104AE000E89CE02C1124E80EF0E2FF2A0EC09E3272
:104AF00029F4F6FC6BC140E4F42A07C09C3619F493
:104B000050E8F52A02C0983649F4F20123FD959148
:104B100023FF91912F01992309F0B8CF892F855454
:104B2000833018F08052833038F444E050E0A40E13
:104B3000B51E5FE359830FC0933631F0933779F098
:104B4000933509F056C020C0F5018081898342E089
:104B500050E0A40EB51E610101E010E012C0F501A5
:104B6000C080D180F6FC03C06FEF7FEF02C0692DDB
:104B700070E042E050E0A40EB51EC6010E940E2770
:104B80008C015FE7F52214C0F501C080D180F6FCEE
:104B900003C06FEF7FEF02C0692D70E042E050E08C
:104BA000A40EB51EC6010E9403278C0150E8F52A09
:104BB000F3FE07C01AC080E290E0B3010E942927EB
:104BC000EA948E2D90E008171907A8F30EC0F6019D
:104BD000F7FC8591F7FE81916F0190E0B3010E948F
:104BE0002927E110EA94015010400115110579F7C9
:104BF000EAC0943611F0993669F5F7FE08C0F50160
:104C0000208131814281538184E090E00AC0F50126
:104C1000808191819C01442737FD4095542F82E08B
:104C200090E0A80EB91E9FE6F92257FF09C05095E3
:104C30004095309521953F4F4F4F5F4FE0E8FE2A5A
:104C4000CA01B901A1012AE030E00E945527D82EFF
:104C5000D21840C0953729F41F2D1F7E2AE030E07E
:104C60001DC01F2D197F9F3661F0903720F49835B5
:104C700009F0ACC00FC0903739F0983709F0A6C0E2
:104C800004C028E030E00AC0106114FD146020E187
:104C900030E004C014FD166020E132E017FF08C0C8
:104CA000F501608171818281938144E050E008C008
:104CB000F50180819181BC0180E090E042E050E00C
:104CC000A40EB51EA1010E945527D82ED2188FE739
:104CD000F82EF122F6FE0BC05EEFF522D91438F45F
:104CE000F4FE07C0F2FC05C08FEEF82202C01D2DB5
:104CF00001C0192DF4FE0DC0FE01ED0DF11D8081E6
:104D0000803319F499EEF92208C01F5FF2FE05C046
:104D100003C08F2D867809F01F5F0F2DF3FC14C0A0
:104D2000F0FE0FC01E1510F09D2C0BC09D2C9E0C8C
:104D3000911A1E2D06C080E290E0B3010E9429273F
:104D40001F5F1E15C0F304C01E1510F4E11A01C048
:104D5000EE2404FF0FC080E390E0B3010E942927F6
:104D600002FF1DC001FD03C088E790E00EC088E58A
:104D700090E00BC0802F867891F001FF02C08BE29B
:104D800001C080E2F7FC8DE290E0B3010E94292788
:104D900006C080E390E0B3010E9429279A94D914B9
:104DA000C0F3DA94F101ED0DF11D808190E0B301C3
:104DB0000E942927DD20A9F706C080E290E0B30118
:104DC0000E942927EA94EE20C1F743CEF3016681C1
:104DD0007781CB012B96E2E10C94CF27E199FECFAE
:104DE0009FBB8EBBE09A99278DB30895262FE1993A
:104DF000FECF9FBB8EBB2DBB0FB6F894E29AE19A13
:104E00000FBE01960895FC0105906150704001109D
:104E1000D8F7809590958E0F9F1F0895FC016150E3
:104E2000704001900110D8F7809590958E0F9F1FCC
:104E30000895DC01FC01672F71917723E1F7329728
:104E400004C07C916D9370836291AE17BF07C8F365
:104E500008950F931F93CF93DF938C01EB018B8108
:104E600081FF1BC082FF0DC02E813F818C819D81FF
:104E70002817390764F4E881F9810193F983E883FD
:104E800006C0E885F985802F0995892B31F48E813C
:104E90009F8101969F838E8302C00FEF1FEFC80191
:104EA000DF91CF911F910F910895FA01AA27283021
:104EB00051F1203181F1E8946F936E7F6E5F7F4FE7
:104EC0008F4F9F4FAF4FB1E03ED0B4E03CD0670F63
:104ED000781F891F9A1FA11D680F791F8A1F911DB6
:104EE000A11D6A0F711D811D911DA11D20D009F406
:104EF00068943F912AE0269F11243019305D319348
:104F0000DEF6CF010895462F4770405D4193B3E030
:104F10000FD0C9F7F6CF462F4F70405D4A3318F0D7
:104F2000495D31FD4052419302D0A9F7EACFB4E088
:104F3000A6959795879577956795BA95C9F7009740
:104F40006105710508959B01AC010A2E06945795E1
:104F5000479537952795BA95C9F7620F731F841F38
:104F6000951FA01D08952F923F924F925F926F92CE
:104F70007F928F929F92AF92BF92CF92DF92EF92E9
:104F8000FF920F931F93CF93DF93CDB7DEB7CA1B6A
:104F9000DB0B0FB6F894DEBF0FBECDBF09942A8895
:104FA000398848885F846E847D848C849B84AA843D
:104FB000B984C884DF80EE80FD800C811B81AA81CA
:104FC000B981CE0FD11D0FB6F894DEBF0FBECDBF95
:084FD000ED010895F894FFCFF4
:104FD800FF0807010A055AFF010002000400080043
:104FE80010002000400080000001000200040008BA
:104FF8000010002000400080006525630025640043
:105008002C200020286C617965723D00206465665B
:1050180061756C743D00206D617070696E673D004C
:105028002900271E1F202122232425262988132D05
:0C503800002C003D00020500000001FFFC
:00000001FF
