:100000000C9483030C94A0030C94BB030C94A003E6
:100010000C94C6120C94D2110C9499120C943F12A9
:100020000C946C120C94A5110C9412120C94521195
:100030000C94A0030C94A0030C94A0030C94A003B4
:100040000C94A0030C94A0030C94A0030C94A003A4
:100050000C94A003D221BE21EE21C221C421C621CD
:10006000CA21EC21CE21D021CC21DA21F421D421C6
:10007000F821FC210522FE21FE21FE21FE21FE2188
:10008000FE21FE21FE21FE21EA21E821F621D821D0
:10009000FA210022C021FE21FE21FE21FE21FE21A7
:1000A000FE21FE21FE21FE21FE21FE21FE21FE2158
:1000B000FE21FE21FE21FE21FE21FE21FE21FE2148
:1000C000FE21FE21FE21FE21FE21DC21E421E02192
:1000D000C821D621F021FE21FE21FE21FE21FE2194
:1000E000FE21FE21FE21FE21FE21FE21FE21FE2118
:1000F000FE21FE21FE21FE21FE21FE21FE21FE2108
:10010000FE21FE21FE21FE21FE21DE21E621E2214B
:10011000F22105010906A101050719E029E71500EB
:1001200025019508750181029501750881039505E2
:1001300075010508190129059102950175039103BF
:100140000507190029FF95067508150026FF00818F
:1001500000C005010902A10185030901A1000509EB
:100160001901290515002501750195058102750301
:10017000950181030501093009311581257F750835
:100180009502810609381581257F350045007508DF
:1001900095018106050C0A38021581257F750895A1
:1001A000018106C0C005010980A101850215012554
:1001B000B7190129B7751095018100C0050C090117
:1001C000A10185011501269C0219012A9C027510C6
:1001D00095018100C009023B00020100A0FA090458
:1001E000000001030101000921010100012240007A
:1001F0000705810308000A0904010001030000004B
:100200000921010100012283000705830308000A78
:10021000000001000800400000010004000001008F
:10022000080020004000800000010004FEFEF8F8F5
:100230006C6C68686D6D69696B6B6767FEF8F6F6E4
:10024000F6FEF8F68E8D8E8D8E8D8E8D8E8D8E8D2A
:100250008E8D8E8D39398E8D39656565010101016F
:100260000101010101010101010101010000010180
:1002700000010101FEF8F6FB010204081020408095
:100280000000FC001C322123242B3433433B424B1F
:100290003A31444D152D1B2C3C2A1D22351A161EB1
:1002A00026252E363D3E46455A76660D294E555436
:1002B0005B5D5D4C520E41494A580506040C030B28
:1002C000830A010978077C7E7C706C7D71697A7481
:1002D0006B7275774A7C7B795A69727A6B73746C2E
:1002E000757D7071612F001412111F1459112700B0
:1002F00000373F5E48103A38302820184D153B34FF
:10030000233221502B404B1C43221D0000F1F237B9
:100310000F08101820283038404850575F6D0000F3
:100320008100820083008A01210223022402250227
:10033000260227022A02B500B600B700CD00E2006F
:10034000E900EA008301920194010000000000002E
:10035000000000009190666768696A6B6C6D6E6F53
:10036000707172738586464800488E8D0071727375
:100370008F006A6B6E6D6546494A4B4C4D4E52502C
:100380004F5154587172737475767778797A7B7C93
:100390007D7E7F808182838485868788898A8F009D
:1003A000494C4A4D4B4E6A6E65504F52515400397C
:1003B00053470073656C656374206D6F64650067F7
:1003C0006F6F64206279650020003A006F6E006FE5
:1003D000666600746F67676C6500657869740062B3
:1003E00061636B006D6163726F00626F6F74206D8B
:1003F000617070657200737461727400313A736574
:100400006C656374206D6163726F20696E646578DA
:1004100000323A636C656172206D6163726F0039FE
:100420003A636C65617220616C6C006B6579206D5C
:10043000617070657200313A6368616E6765206C47
:100440006179657200323A73656C656374206B651F
:1004500079202D20696E707574206B6579636F64E7
:100460006500333A7361766520616E642065786952
:100470007400343A6578697420776974686F7574AC
:1004800020736176696E6700393A7265736574200E
:10049000746F2064656661756C7420286375727270
:1004A000656E74206C61796572290063686F6F7383
:1004B00065206C617965722028313A206E6F726D0B
:1004C000616C2C20323A20464E2C20333A20464E86
:1004D00032292063757272656E743D200073656CFD
:1004E000656374206B65792028616E79206B65796E
:1004F00020796F752077616E74292000696E7075A0
:1005000074206B6579636F646520286D7573742042
:1005100033206E756D626572732C20636C65617239
:100520003A30303029203A20007361766520262049
:10053000657869742C207468616E6B20796F752EF4
:10054000006578697420776974686F7574207361C9
:1005500076696E672C2073656520796F75206C61F4
:100560007465722E00726573657420746F20646503
:100570006661756C742063757272656E74206C614F
:1005800079657200736176652063757272656E7449
:10059000206C61796572006C6F61642063757272A2
:1005A000656E74206C6179657200636F6C2C2072CB
:1005B0006F77203A2000736176696E672E2E2E00C9
:1005C00068656C6C6F003E3E20006E6F7468696EEB
:1005D0006700696E707574206D6163726F20696E5B
:1005E000646578202830317E31322C2063616E635F
:1005F000656C3A2030302C206D7573742032206E7B
:10060000756D6265727329203A200073656C6563AD
:100610007420696E646578202830317E31322C2058
:1006200063616E63656C3A20303029203A2000699E
:100630006E707574206B657920286D617820323476
:10064000206B6579732C2073746F70203A20707260
:100650006573732045534320647572696E6720315A
:10066000207365632900696E76616C6964206E751C
:100670006D6265722C20696E7075742061676169A6
:100680006E2E00636C6561722E2E2E00666E322F08
:1006900033206C6564006E6C00736C0065736320BE
:1006A000746F207E006C617A7920666E0004030905
:1006B000041C03770069006E006B00650079006C14
:1006C000006500730073002E006B00720010037051
:1006D00000730032006100760072005500120110B4
:1006E0000100000008A0201C420701010200014592
:1006F000464765666700202B2D2E30313233343566
:1007000036373839680011241FBECFE5D8E0DEBF88
:10071000CDBF10E0A0E6B0E0E6EFFBE502C005903B
:100720000D92A23CB107D9F715E0A2ECB0E001C0F0
:100730001D92A83AB107E1F70E94CD290C94F92D3A
:100740000C940000A82FB92F80E090E041E050EA1F
:10075000609530E009C02D9182279795879510F01C
:1007600084279527305EC8F36F5FA8F30895EADF0A
:100770008D939D930895CF93CFB7CF93C395839BCC
:10078000E9F7839B0EC0839B0CC0839B0AC0839BAD
:1007900008C0839B06C0C0917F05C395C0937F05A9
:1007A000A3C0DF93C0917E05DD27CA57DA4F839B34
:1007B00002C0DF91E6CF2F930F931F9300B32FEF6B
:1007C00003FB20F94F933F9310B34FEF012703FB37
:1007D00021F93BE031C04E7F012F10B3216028C0CA
:1007E000102F4D7F2260000000B329C04B7F246092
:1007F000012F000010B32BC010B3477F28602AC020
:100800004F7E00B320612CC04F7D10B320622FC0FB
:100810004F7B00B3206432C0422700B349934FEFAF
:100820000000102713FB20F910B31C70C9F1297FB9
:1008300091F2012703FB21F900B3237F89F23150A4
:1008400058F1102713FB22F910B3277E79F2012704
:1008500003FB23F92F7C81F200B3102713FB24F94B
:100860002F7971F200C010B3012703FB25F92F7314
:1008700059F200C000B3102713FB26F9223040F2D2
:1008800000C010B3012703FB27F9243028F64F7767
:10089000206810B30000F9CF10E81ABF002719C074
:1008A0003B503195C31BD04010E81ABF0881033C70
:1008B000F9F00B34E9F020917C051981110F121326
:1008C000EDCF4A81441F093641F10D3211F0013E4E
:1008D00029F7009384053F914F911F910F912F911C
:1008E000DF91CAB7C7FD4ACFCF91CFBFCF9118953F
:1008F00020918405222379F3109182051123C1F5FB
:100900003430C2F13093820520937D0510917E052D
:100910003BE0311B30937E052DC0009182050130F4
:100920003CF50AE54F7049F43091BE0034FD24C017
:100930000093BE00C5E6D5E023C0433049F03091B6
:10094000700534FD19C000937005C1E7D5E018C0EB
:1009500030919C0534FD10C000939C05CDE9D5E095
:100960000FC02795A8F45150A9F4220F0000F9CF29
:100970004AE503C042ED01C0432FC4E1D0E032E0BC
:1009800011B31C60939A11BB02B320E41CE05F9387
:10099000012756E002BB279520F4515021F4220F85
:1009A000F9CF012756E000003B5A02BBD0F2279551
:1009B00028F4515029F4220F0000F9CF012756E006
:1009C000279502BB20F4515021F4220FF9CF0127C3
:1009D00056E02991332302BB21F6037F1091830552
:1009E000110FC651D04002BB11F010937C0510E8E6
:1009F0001ABF086011B3137F402F437F5F9100C07F
:100A000000C002BB11BB42BB66CF982FFA01D901CF
:100A10008091D5008923E081882341F0E92379F48E
:100A2000662311F485E007C084E005C0E92339F0AE
:100A3000662319F483E08C93089582E08C930895E3
:100A4000662361F0813011F4909A0895823011F498
:100A5000919A0895843069F4969A0895813011F43A
:100A600090980895823011F491980895843009F493
:100A70009698089581B3836181BB82B38C7E82BBDB
:100A80008E9A969808958093D50008958091D50008
:100A900008951092C20008952091600030E0AC01EA
:100AA000429FC001439F900D529F900D11246FEF04
:100AB00070E00E94062CCB0108950E944F1108950A
:100AC0009091C900992319F480E090E010C0913012
:100AD00049F41092CF001092CE001092CD001092E7
:100AE000CC000895923031F48091600090E00E9433
:100AF0004F110895892F83508230A0F483E08093B2
:100B0000D300943019F481E08093D3008091D30016
:100B10009FEF899FC00111246CE070E00E94062CB9
:100B20006093D20008951092C3000E94600508955A
:100B3000809160008E31A1F08951809360008E31E8
:100B400018F48EE1809360008091C900823011F426
:100B50000E94600581E090E09093C8008093C700F8
:100B60000895809160008F3FA9F090E049968F3FF3
:100B7000910511F00CF08FEF809360008091C90017
:100B8000823011F40E94600581E090E09093C800EB
:100B90008093C700089590989198969880E090E08F
:100BA0000E944F119498089581E08093C30080E0E3
:100BB00090E00E944F11949808952223E9F10E9439
:100BC000C9188823C9F58091C3008823A9F58091AD
:100BD000C9008330C1F484EF91E09093D1008093F9
:100BE000D0008091D3008C3038F58F5F8093D30094
:100BF0009FEF899FC00111246CE070E00E94062CD9
:100C00006093D20008958430B9F484EF91E090931A
:100C1000D1008093D0008091D300882369F0815067
:100C20008093D3009FEF899FC00111246CE070E096
:100C30000E94062C6093D20008950E94C918882350
:100C400091F48091C90090E0019665E070E00E9407
:100C5000062C8093C90081E090E09093C8008093B7
:100C6000C7000E9460050895662311F0893311F0D2
:100C70008D3F21F481E00E941D0605C08A3F29F4C2
:100C800081E00E94B10580E00895893F11F081E084
:100C9000089581E00E94980580E008951F930E94C6
:100CA000C422813069F40E94C12260E0811161E0B8
:100CB00081E046ED50E024ED30E00E94050507C0DC
:100CC0008091D50080FF02C0909A01C090988091D9
:100CD000D50081FF02C0919A01C091980E94C42260
:100CE000823069F40E94C12260E0811161E084E0F9
:100CF00046ED50E024ED30E00E94050507C08091EC
:100D0000D50082FF02C0969A01C096981091D50036
:100D1000612F70E076956795617084E046ED50E054
:100D200024EC30E00E9405051093D6001F91089531
:100D30001092C3000E944E060E9460050895209103
:100D4000D400222309F442C08091D9009091DA00A6
:100D500001969093DA008093D90085369105D4F1FD
:100D6000253011F0233029F40E94C4228130F1F49F
:100D700022C0243011F0223041F40E94C42281307C
:100D800011F4909819C0969817C00E94C42281301F
:100D900029F40E94C122882371F40EC00E94C4224B
:100DA000823031F40E94C122882331F0969A04C027
:100DB0008091D50080FD909A1092DA001092D900AF
:100DC0008091D40081508093D40008951092DA006D
:100DD0001092D900089589E090E00E94B32D80938D
:100DE00060008093CB008BE090E00E94B32D809355
:100DF000C900853010F01092C9008091C90080931D
:100E0000CA000E94600508958091C200882361F4A1
:100E100081E08093C2000E94B40F88E00E94F2102B
:100E20000E9437110E94EB060895CF93DF93EC01E7
:100E30000E94C422813029F40E94C122882339F003
:100E400004C08091D50080FF02C0909801C0909AA4
:100E50008091D50081FF02C0919801C0919ACE0186
:100E60000E94B3200E94C422813029F40E94C12232
:100E7000882339F004C08091D50080FF02C0909A89
:100E800001C090988091D50081FF02C0919A01C065
:100E90009198DF91CF9108950E948F228823A1F429
:100EA00081E080936100089590916100913011F488
:100EB000919801C0919A1092D8001092D70081E0C9
:100EC00098279093610008958091D7009091D80061
:100ED00001969093D8008093D7008558934024F7CB
:100EE00008958091C200882309F44EC10E94C91858
:100EF000882309F049C10E944C070E949F06209157
:100F0000C400222311F18091C5009091C600019682
:100F10009093C6008093C50085369105D4F02530A6
:100F200059F0233049F0243011F0223011F4919817
:100F300004C08091D50081FD919A1092C600109254
:100F4000C50021502093C40004C01092C600109226
:100F5000C5008091C7009091C8001816190644F585
:100F600001969093C8008093C700885E934001F576
:100F70001092C8001092C7006091C9008091CA0009
:100F8000681731F06093CA008BE090E00E94DC2D7E
:100F9000609160008091CB00861731F06093CB00A8
:100FA00089E090E00E94DC2D82E390E00E9415072A
:100FB0008091C300882309F0E7C08091C900813087
:100FC00009F059C08091CC009091CD00009761F458
:100FD0008091CE009091CF0068E070E00E94062CD6
:100FE000CB010E944C0513C082309105A1F4809181
:100FF000CE009091CF0068E070E00E94062CCB01FB
:10100000909581959F4F81509F4F0E944C0590E095
:101010000E944F110EC08130910511F0039749F4E1
:101020008091CE009091CF0001969093CF00809355
:10103000CE008091CE009091CF00885F97408CF0D9
:101040001092CF001092CE008091CC009091CD00F4
:10105000019664E070E00E94062C9093CD0080938E
:10106000CC008091CE009091CF0001969093CF005C
:101070008093CE0008958330D9F58091D00090916F
:10108000D1001816190634F401979093D10080937B
:10109000D00028C02091D2002223F1F08091CE0010
:1010A0009091CF0001969093CF008093CE00089747
:1010B000CCF01092CF001092CE0021502093D2009D
:1010C0008FEF90E0821B91096BEE7FEF0E94062C60
:1010D000645F6093D30006C01092D3001092CF00DB
:1010E0001092CE008091D20090E00E944C053EC04C
:1010F000843009F03FC08091D0009091D100181643
:10110000190634F401979093D1008093D00029C040
:101110002091D2002F3FF1F08091CE009091CF002E
:1011200001969093CF008093CE000897D4F0109250
:10113000CF001092CE002F5F2093D2008FEF90E06F
:10114000821B91096BEE7FEF0E94062C645F609317
:10115000D30007C08CE08093D3001092CF00109290
:10116000CE008091D20090E00E944C0590E00E9459
:101170004F1108951092CF001092CE0083E090E0BE
:101180009093CD008093CC000895FC01838181323F
:1011900061F08232D9F0823081F585ED91E0909353
:1011A0008105809380058BE308958281882319F05F
:1011B000813019F503C087EE91E002C080E092E033
:1011C000909381058093800589E0089584819581BD
:1011D000009719F0019789F408C082E191E090939B
:1011E00081058093800580E4089582E591E09093E5
:1011F00081058093800583E8089580E00895FC01CF
:101200008091DC00882329F0613019F480810E94EC
:1012100029281092DC0081E008950F931F93CF934B
:10122000DF93182F092F0E94F125C12FD02F88811D
:1012300080768032D1F58981813041F488E794E06D
:10124000909381058093800588E030C0893071F4E7
:101250008A819B818050924041F58C819D81892BB0
:1012600021F581E08093DC008FEF20C0823019F4FB
:101270008091DB0014C08A3031F40E94F5258B8107
:101280008093DB0012C0833031F48B81882369F4B2
:10129000109262000BC08B3041F480916200809309
:1012A00080051092810581E001C080E0DF91CF913F
:1012B0001F910F91089528E088E190E00FB6F8940F
:1012C000A89581BD0FBE21BDFFCF813011F090E008
:1012D00006C090E0613009F091E081E09827892F05
:1012E00008958FEF87BB88BB1ABA14BA8BBB85BB36
:1012F0008F98979A089521E030E002C0220F331FA3
:101300008A95E2F727BB209528BB84E18A95F1F7FF
:101310000895282F883058F449B381E090E002C046
:10132000880F991F2A95E2F74095482316C0682F29
:1013300070E0803120F443B38FE090E003C040B30D
:1013400087E190E0861B970B21E030E002C0220F7E
:10135000331F8A95E2F740954223842F08955F92C8
:101360006F927F928F929F92AF92BF92CF92DF92B5
:10137000EF92FF920F931F93CF93DF93782EC92E96
:101380005B0100E010E091E0892E912C84E1582E61
:10139000662463949401002E02C0220F331F0A9426
:1013A000E2F727BB822F809588BB852D8A95F1F7C0
:1013B000472D5C2DCA01EC01FF24E22ED22ED094E1
:1013C0008F2D0E948909282F98818E2D892319F04D
:1013D000222329F008C0222331F09E2901C09D213B
:1013E0009883F5016082F3942196F1E1FF1641F7AD
:1013F0000F5F1F4F0830110569F6DF91CF911F91E4
:101400000F91FF90EF90DF90CF90BF90AF909F90A3
:101410008F907F906F905F9008958093DE00F89496
:10142000809181048F7E8093810480918104886003
:101430008093810478940895F894809181048B7F3F
:101440008093810478948091DD00089580918104D7
:1014500090E09695879596958795817008958091EF
:10146000810490E034E0969587953A95E1F7817094
:1014700008958FEC82BF80918004833000F58B98B3
:10148000939A8091810480FF23C0829BA3C08091A6
:101490008004813031F0813040F0823009F0F6C0B4
:1014A00006C0839902C08DE096C082E094C080910E
:1014B000810483FFEBC093988B9A84E28CC0809167
:1014C00080048A3108F079C08091810480FD08C0D1
:1014D000809181048160809381048A98929A089512
:1014E000829B76C080918004873140F4803118F56A
:1014F0008D3061F08F3009F055C00CC08831E1F1BA
:10150000883158F1893109F04DC049C0809181047A
:101510008D7F4DC0809181048B7F80938104839B5C
:1015200005C080E88093DD0081E014C01092E000E7
:101530001092DD0037C08091DD0086958093DD003C
:10154000839B30C08091DD0080688093DD008091B6
:10155000E0008F5F8093E00025C0839B05C08091F1
:10156000E0008F5F8093E0008091E00080FD1AC072
:1015700080918104826010C0839905C080918104AC
:101580008260809381048091810481FD0BC09398D7
:101590008B9A8091810484608093810403C08B982E
:1015A000939A6CC092988A9A809181048E7F8093DE
:1015B0008104809180048F5F0EC0809180048F32FF
:1015C00008F064C08091810480FF10C0829906C039
:1015D0008B98939A81E08093800408958091810490
:1015E0008E7F8093810492988A9A089580918104D5
:1015F0008160809381048A98929A809180048C32D1
:1016000028F4853280F48432E1F507C08D3299F1F7
:101610008D32E8F08E32A9F531C08091DE008093E2
:10162000DF001092E0008091DF0080FF08C08B98FF
:10163000939A8091E0008F5F8093E00002C09398BE
:101640008B9A8091DF0086958093DF001AC080918D
:10165000E00080FF03C093988B9A02C08B98939A06
:1016600080918104877F80938104809181048061CF
:101670008093810406C08B98939A03C010928004D3
:101680000895809180048F5F809380040895109264
:10169000800481E1809381048A98929A8B98939A2E
:1016A0000E94A30F82E00E94E40F80E069E37AE0E9
:1016B0000E941A108FEC82BF0895282F8F3F31F4BB
:1016C0001092E40081E08093E90008958E3F21F0BC
:1016D0008D3F29F41092E4001092E9000895809162
:1016E000E900882351F08091E400E82FF0E0E9540C
:1016F000FE4F20838F5F8093E4008091E5009091FE
:10170000E600019668EC70E00E94062CFC019093C4
:10171000E6008093E5008091E7009091E8008E1745
:101720009F0759F4009719F487EC90E001C00197E6
:101730009093E6008093E5000895E251FF4F2083E7
:10174000089540E02091E7003091E8008091E500A5
:101750009091E6002817390709F041E0842F089599
:10176000FF920F931F93F62E882309F4A3C00E94C3
:10177000E816182F8D3B08F09DC0A82FB0E0FD01A2
:10178000E058FD4F0491FF2009F463C08093B60137
:101790001092C1011092C2011092C3011092C401B3
:1017A00010928404AB53BE4F8C91F82E81FF2DC054
:1017B000163419F01834F1F50EC08FEF0E945D0B4E
:1017C00080EE0E945D0B82E10E945D0B80EE0E9424
:1017D0005D0B8CE727C08DEF0E945D0B81EE0E94B0
:1017E0005D0B84E10E945D0B87E70E945D0B81EE3B
:1017F0000E945D0B80EF0E945D0B84E10E945D0BF7
:1018000080EF0E945D0B87E710C082FF02C0802F2F
:101810000CC08FEF0E945D0BF0FE03C080EE0E94B3
:101820005D0B802F0E945D0B8EEF0E945D0B8CEF95
:101830000E945D0BF5FE40C08091E3008823E1F536
:1018400081E08093E300173411F40E94D3178BEFEB
:101850002EC08091B601811711F41092E400E12F9F
:10186000F0E0EB53FE4F808181FF13C0163421F569
:1018700080EE0E945D0B80EF0E945D0B8CE70E9462
:101880005D0B80EE0E945D0B80EF0E945D0B82E19C
:101890000BC082FD11C080FF03C080EE0E945D0B73
:1018A00080EF0E945D0B802F0E945D0B8CEF0E94E9
:1018B0005D0B02C080E001C081E01F910F91FF909D
:1018C000089580917504882339F481E0809375042C
:1018D0000E94B52A0E94952008951F93162F8E3FCF
:1018E00011F0809383040E940D0A109384041F91C9
:1018F00008958F929F92AF92BF92CF92DF92EF9214
:10190000FF920F931F93CF93DF9388E0809384041B
:101910000E94470BE5ECF1E0119222E0E536F20778
:10192000D9F726E633E006C0FC01EB53FE4F808179
:1019300082608083F901849190E02F5F3F4F009790
:1019400099F729E633E006C0FC01EB53FE4F808196
:1019500084608083F901849190E02F5F3F4F00976E
:1019600099F72DE633E006C0FC01EB53FE4F808172
:1019700088608083F901849190E02F5F3F4F00974A
:1019800099F722E733E006C0FC01EB53FE4F80815C
:1019900081608083F901849190E02F5F3F4F009731
:1019A00099F720EA33E006C0FC01EB53FE4F80813B
:1019B00080618083F901849190E02F5F3F4F009711
:1019C00099F72FEA33E006C0FC01EB53FE4F80810C
:1019D00080628083F901849190E02F5F3F4F0097F0
:1019E00099F71092E8001092E7001092E60010922A
:1019F000E5001092E4001092EA001092C1011092EA
:101A0000C2011092C3011092C40186E090E00E94CE
:101A1000B32D8F3F09F481E06091E200662319F451
:101A20008093E20006C0681721F086E090E00E94F3
:101A3000DC2D83E690E00E949F1485E690E00E94F2
:101A4000A2290E94E813789499249394A5E0AA2EE1
:101A5000B12CC12CD12CF6E98F2ECCEFD0E08091A7
:101A6000C000882309F5809175048823E9F48091EA
:101A7000730490917404019690937404809373049A
:101A80000197895E934084F081E08093C000DF91EC
:101A9000CF911F910F91FF90EF90DF90CF90BF906B
:101AA000AF909F908F9008958091810481FF07C02F
:101AB000F894809181048D7F8093810478940E94B2
:101AC000260A882309F404C18091EB009091EC0070
:101AD0008C3F910561F02091E7003091E800809102
:101AE000E5009091E6002817390709F0F1C00E943F
:101AF0001C0A809365021092E3001092ED00609141
:101B00008404623009F46BC0633018F4613039F436
:101B100060C0663009F4C8C0673009F47BC0833FF9
:101B200079F1843F70F48E3ED1F08F3E20F48D3EEB
:101B300009F0CAC022C0803FE9F0823F09F0C4C06A
:101B400010C0863F39F1873F20F4843F09F0BCC0C4
:101B50001AC08E3F61F08F3F09F0B6C005C08EEE0F
:101B6000B5C08AEF64E0B2C08AEF68E0AFC0809190
:101B70008304ACC08AEF62E0A9C08AEF66E0A6C029
:101B80008AEF67E0A3C08AEF60E00E946D0C0E94BC
:101B9000610C9EC090926700A0926800B0926900AC
:101BA000C0926A00D0926B001092E8001092E70099
:101BB0001092E6001092E5001092E4001092EA0004
:101BC0001092C1011092C2011092C3011092C4017F
:101BD0007BC0853F09F478C08AEF61E077C010923E
:101BE000E8001092E7001092E6001092E5001092D3
:101BF000E4001092EA001092C1011092C20110920A
:101C0000C3011092C401882311F060E001C063E0B9
:101C10008AEF5CC090E09C0120763070E5E035955D
:101C20002795EA95E1F7209367009C0127703070B3
:101C300030936702209366028871907073E09595E7
:101C400087957A95E1F7909369028093680241E065
:101C500050E020E030E004C0440F551F2F5F3F4F9D
:101C600028173907CCF340936C0250936D023093E0
:101C70006B0220936A0280916602909167029C0138
:101C8000429FC001439F900D529F900D1124AA279F
:101C900097FDA095BA2F8093680090936900A09358
:101CA0006A00B0936B0010C00E94610C80916502C5
:101CB000982F80E090FD84E091FD816092FD82602C
:101CC0000E9443050E944E068AEF60E00E946D0C60
:101CD0000E942F0A882309F4C2CE8091ED00882348
:101CE00009F0BDCE80918404843009F40DC18530A3
:101CF00030F4882371F0833009F0B1CE03C188300D
:101D000009F407C18C3009F480C0853009F0A7CEF2
:101D1000FEC02091E7003091E8008091E5009091AD
:101D2000E6002817390711F40E941F160E94B422FA
:101D30002091E7003091E8008091E5009091E60065
:101D40002817390711F480E00EC0C901019668EC2C
:101D500070E00E94062CFC019093E8008093E7005D
:101D6000E251FF4F8081282F30E03093EC00209328
:101D7000EB002B3F310539F4D093EC00C093EB001E
:101D80009092ED006CCE2C3F310509F468CE232BE8
:101D900021F060E00E946D0C5EC08091E400882319
:101DA00009F45DCE2091C1013091C2014091C3017F
:101DB0005091C4012F5F3F4F4F4F5F4F2093C101A0
:101DC0003093C2014093C3015093C40180916700D6
:101DD000889DC00111248A519F4FAA2797FDA09585
:101DE000BA2F281739074A075B070CF438CE109230
:101DF000C1011092C2011092C3011092C40110924D
:101E0000EA008CE0809384042ACE8091EA00882343
:101E100011F40E941F160E94B4228091E4008823CE
:101E2000C1F02091E7003091E8008091E5009091A9
:101E3000E6002817390769F48091C1019091C20129
:101E4000A091C301B091C4010197A105B10561F44E
:101E50000FC0109284041092C1011092C20110921E
:101E6000C3011092C401FBCD8091EA008823A9F040
:101E70009091EA00E92FF0E0E954FE4F80819F5FE6
:101E80009093EA006CE00E946D0C6091E4008091F8
:101E9000EA000E94FA2B9093EA00E090C101F090D2
:101EA000C2010091C3011091C4010894E11CF11C0E
:101EB000011D111D609168007091690080916A0098
:101EC00090916B002AE030E040E050E00E94DB2B74
:101ED0006D5F7F4F8F4F9F4F2091E20030E040E0D9
:101EE00050E00E94DB2B9B01AC01C801B7010E94AE
:101EF0003B2C6093C1017093C2018093C301909306
:101F0000C401ADCD82E01AC08BEA65E018C083E859
:101F100015C01092E8001092E7001092E6001092AF
:101F2000E5001092E4001092EA001092C1011092B4
:101F3000C2011092C3011092C4018AEA60E00E94BB
:101F40006D0C8DCD089583B7887F826083BF12BEEC
:101F500089B7816089BF109285041092860410921F
:101F600087041092880408958EB5887F83608EBDA3
:101F70001DBC1CBC89B7846089BF089585B5887F66
:101F8000846085BD14BC89B7806489BF10928D04BC
:101F900010928E0410928F0410929004089580E0A5
:101FA00090E0FC01EE0FFF1FE259FD4F11821082FD
:101FB000019688309105A9F70E94A30F0E94B40FE3
:101FC0000E94BE0F7894089593B7987F982B93BF83
:101FD00008959EB5987F982B9EBD089595B5987FDE
:101FE000982B95BD089583B7E82FF0E0E770F07067
:101FF000EE0FFF1FE05FFD4F25913491C901089559
:102000008EB5E82FF0E0E770F070EE0FFF1FE05F95
:10201000FD4F25913491C901089585B5E82FF0E071
:10202000E770F070EE0FFF1FE45EFD4F25913491D5
:10203000C9010895883040F4E82FF0E0EE0FFF1F4B
:10204000E259FD4F718360830895883040F4E82F92
:10205000F0E0EE0FFF1FE259FD4F1182108208954C
:10206000AF92BF92CF92DF92EF92FF920F931F93A6
:10207000CF93DF93EC0112B71092890410928A0477
:1020800010928B0410928C0483B7E82FF0E0E77075
:10209000F070EE0FFF1FE05FFD4F2591349140E09F
:1020A00050E060E07BE187EB90E00E94192CB901E1
:1020B000CA01693B2DE8720726E0820720E09207FB
:1020C000A0F437E2C131D30780F49E0140E050E034
:1020D0000E94DB2B28EE33E040E050E00E94192CF8
:1020E000C901DA01BC01CD010DC028EE33E040E0AA
:1020F00050E00E94192CCA01B9019E0140E050E055
:102100000E94DB2BA72EB82EC92EDD249B01AC012B
:10211000210F311D411D511D79018A0117C0809188
:10212000890490918A04A0918B04B0918C048A1543
:102130009B05AC05BD0550F485B78F7885BF85B785
:10214000806885BF889585B78F7785BF2091890482
:1021500030918A0440918B0450918C0482B790E0B6
:10216000A0E0B0E0542F432F322F2227822B932B55
:10217000A42BB52B8E159F05A007B10780F2DF9128
:10218000CF911F910F91FF90EF90DF90CF90BF9074
:10219000AF900895109285041092860410928704DF
:1021A000109288040895209185043091860440910E
:1021B000870450918804B901CA01089510928D04D2
:1021C00010928E0410928F04109290040895209122
:1021D0008D0430918E0440918F0450919004B90188
:1021E000CA010895893031F48FB582608FBD8FB5F3
:1021F0008E7F0AC08A3019F48FB5826002C08FB515
:102200008D7F8FBD8FB581608FBD1BBC1ABC19BC83
:1022100018BC08952FB52E7F2FBD2FB522602FBD7E
:102220002EB528602EBD2EB520612EBD97BD86BD72
:102230001BBC1ABC19BC18BC08958FB58D7F8FBD0F
:102240008FB58E7F8FBD8FB58F778FBD8FB58F7B0D
:102250008FBD8FB58F7D8FBD8FB58F7E8FBD08955C
:102260008FB580688FBD8FB58F7B8FBD08958FB57B
:1022700080628FBD8FB58F7E8FBD08958FB58F77AC
:102280008FBD8FB58F7B8FBD08958FB58F7D8FBD2F
:102290008FB58F7E8FBD08959BBD8ABD089599BD72
:1022A00088BD08951F920F920FB60F9211242F939D
:1022B0003F934F935F936F937F938F939F93AF93CE
:1022C000BF93EF93FF938091850490918604A09132
:1022D0008704B09188040196A11DB11D80938504E7
:1022E00090938604A0938704B09388048091890416
:1022F00090918A04A0918B04B0918C040196A11D49
:10230000B11D8093890490938A04A0938B04B093A9
:102310008C0480916E0290916F02892B29F0E091DC
:102320006E02F0916F020995FF91EF91BF91AF910D
:102330009F918F917F916F915F914F913F912F91DD
:102340000F900FBE0F901F9018951F920F920FB60F
:102350000F9211242F933F934F935F936F937F932B
:102360008F939F93AF93BF93EF93FF9380917002EE
:1023700090917102892B29F0E0917002F091710225
:102380000995FF91EF91BF91AF919F918F917F91AF
:102390006F915F914F913F912F910F900FBE0F90D2
:1023A0001F9018951F920F920FB60F9211242F9322
:1023B0003F934F935F936F937F938F939F93AF93CD
:1023C000BF93EF93FF9380918D0490918E04A09121
:1023D0008F04B09190040196A11DB11D80938D04CE
:1023E00090938E04A0938F04B09390048091780210
:1023F00090917902892B29F0E0917802F09179028D
:102400000995FF91EF91BF91AF919F918F917F912E
:102410006F915F914F913F912F910F900FBE0F9051
:102420001F9018951F920F920FB60F9211242F93A1
:102430003F934F935F936F937F938F939F93AF934C
:10244000BF93EF93FF9380917C0290917D02892B43
:1024500029F0E0917C02F0917D020995FF91EF91C6
:10246000BF91AF919F918F917F916F915F914F91AC
:102470003F912F910F900FBE0F901F9018951F92B4
:102480000F920FB60F9211242F933F934F935F93A8
:102490006F937F938F939F93AF93BF93EF93FF932C
:1024A0008091720290917302892B29F0E09172025F
:1024B000F09173020995FF91EF91BF91AF919F91B8
:1024C0008F917F916F915F914F913F912F910F90DD
:1024D0000FBE0F901F9018951F920F920FB60F927C
:1024E00011242F933F934F935F936F937F938F9319
:1024F0009F93AF93BF93EF93FF938091740290915A
:102500007502892B29F0E0917402F091750209950A
:10251000FF91EF91BF91AF919F918F917F916F91BB
:102520005F914F913F912F910F900FBE0F901F9091
:1025300018951F920F920FB60F9211242F933F936D
:102540004F935F936F937F938F939F93AF93BF93BB
:10255000EF93FF938091760290917702892B29F077
:10256000E0917602F09177020995FF91EF91BF918A
:10257000AF919F918F917F916F915F914F913F911B
:102580002F910F900FBE0F901F9018951F920F92D2
:102590000FB60F9211242F933F934F935F936F9336
:1025A0007F938F939F93AF93BF93EF93FF9380910C
:1025B0007A0290917B02892B29F0E0917A02F091C6
:1025C0007B020995FF91EF91BF91AF919F918F9100
:1025D0007F916F915F914F913F912F910F900FBE1F
:1025E0000F901F90189580916C00089580916D0058
:1025F000089580918002089582E992E0089581E82B
:1026000092E0089581E080936C00E2E9F2E080813D
:10261000882319F010926C0005C0319682E0E33AED
:10262000F807A9F781E080936D00E1E8F2E080818E
:10263000882319F010926D0005C0319682E0E239CE
:10264000F807A9F780916C00882341F40E94C9170C
:10265000882331F480918002882311F410927F0244
:102660000895A1E8B2E0E2E9F2E081E101900D9283
:102670008150E1F70895DF93CF930F92CDB7DEB786
:10268000198282E992E0BE016F5F7F4F0E94AF091D
:102690008981882319F01092A40207C08091A402B6
:1026A000843618F48F5F8093A40220E09091A402F6
:1026B0008091A302981709F421E0822F0F90CF9107
:1026C000DF9108950E943B1308950E94C122882340
:1026D00029F00E94C12280937E02089510927E020A
:1026E0000895CF92DF92FF920F931F93CF93DF93C2
:1026F00080917F02882339F00E9465131092800236
:1027000010917F025CC002E912E0FF2481E0C82E34
:10271000D12CF8018081882309F444C0C0E0D0E0C6
:1027200096010C2E02C0220F331F0A94E2F7F80123
:102730008081822391F180917E026F2D4C2F0E9427
:102740003E180E94DA168E3F99F0883F11F412E08D
:1027500010C0863F11F413E00CC08B3FF1F4809160
:102760007E028230D1F481E08093800210E027C0A5
:1027700011E00E946E25882351F080916D0088231E
:1027800021F4809180028823C1F410937F020E947B
:10279000651381E08093800212C02196C830D10574
:1027A00009F0BECFF3940F5F1F4FF1E1FF1609F060
:1027B000B0CF0E9465131092800210917E02812F8B
:1027C000DF91CF911F910F91FF90DF90CF900895EF
:1027D00081E1E1E8F2E0DF01982F1D929A95E9F797
:1027E000E2E9F2E0DF011D928A95E9F708950E947F
:1027F000710987E08093A3028AE08093A402089580
:1028000086E084BD8091910490919204019690930A
:10281000920480939104089598EA899FF00111240D
:10282000E050F849E49180E0E150EE3F08F481E0A7
:1028300008958091A50208951092A50280E00E945B
:10284000EE0F08950F931F9310929204109291042B
:102850001092A7021092A60208EA2091A8023091D5
:10286000A902283A31051CF00E941C1430C0E091E6
:102870006E00E09FA0011124C9010196240F351FAD
:1028800020503849F901249101969093A902809330
:10289000A8020197480F591F40505849FA01149156
:1028A000822F81508E3F78F4822F0E943C21912FFD
:1028B0009F7799F28BE4989FC00111249093A7020F
:1028C0008093A60204C00E941C140E9480211F91C4
:1028D0000F9108958091A502882369F020919104B9
:1028E000309192048091A6029091A702281739078F
:1028F00014F00E9422140895982F8091A502882335
:1029000091F481E08093A50290936E001092A7024B
:102910001092A6021092A9021092A8020E942214FC
:1029200085B5836085BD08950E94BE0F85E060E097
:1029300074E10E941A1080E00E94EE0F08959093B7
:10294000AD028093AC0208950F931F93182F062FAA
:10295000662329F00E94E81661E00E94E217E091E8
:10296000AC02F091AD020190F081E02D812F602F3B
:1029700009951F910F910895DF92EF92FF920F93A7
:102980001F93182F062FE42ED22E642F422F202FB4
:102990000E941523F82E002329F0112319F081E05D
:1029A0000E948E170E941E19882339F0812F6E2DE8
:1029B0004D2D202F0E94381D16C0FF20A1F00023AE
:1029C00029F0812F0E94F319882369F4812F602F49
:1029D0000E94E824E091AC02F091AD020190F081F8
:1029E000E02D602F09951F910F91FF90EF90DF90E0
:1029F0000895EF92FF920F931F93F82E142FE22E5B
:102A00006417C9F00E94E816612F0E94E2178F2D0B
:102A1000612F0E94C7228F2D0E94E322882359F044
:102A2000112319F08F2D61E002C08F2D60E04E2D33
:102A3000202F0E94BC141F910F91FF90EF900895DA
:102A40002F923F924F925F926F927F928F929F92BE
:102A5000AF92BF92CF92DF92EF92FF920F931F93AC
:102A6000DF93CF9300D00F92CDB7DEB70E946213F1
:102A7000882309F4CEC00E947113882E0E94FC1294
:102A80003C010E94FF128983492E0E946E258823F3
:102A900029F08091AB02882309F05AC08091AA02E4
:102AA000881509F455C0EE24FF2491E0292E312C1D
:102AB0003FC05A808091AA02652D4B2D0E943E187E
:102AC000082F882D6A814B2D0E943E18A82E0817CA
:102AD000F1F0802F0E94B3188823C9F4EA81FB81AA
:102AE000E60DF71D1081F6018081892139F0802FD4
:102AF00061E040E02B2D0A810E94F914192139F080
:102B00008A2D60E041E02B2D052D0E94F9148A8169
:102B10009B8101969B838A830894C11CD11C419799
:102B200041F60894E11CF11C98E0E916F10481F0EB
:102B3000BE2CC1010E2C02C0880F991F0A94E2F727
:102B4000982E2981342DC9016C011B821A82B1CFC4
:102B50008092AA020E94F9128093AB020E94FC129A
:102B6000182F092F0E94FF126C01212F302FC9014D
:102B70007C01BB2481E0682E712CF60180818823C2
:102B800021F4F70180818823A9F144245524942C51
:102B9000C301042C02C0880F991F0A94E2F7F601C2
:102BA00010811823F70100810823882D6B2D442DF7
:102BB0000E943E18A82E0E948F22882349F01017E9
:102BC00091F00023B9F08B2D642D0E94922212C047
:102BD00060E0111161E040E0011141E08A2D292DF2
:102BE0000B2D0E94F9140894411C511CF8E04F165B
:102BF000510469F6B3940894C11CD11C0894E11CDB
:102C0000F11C81E1B81609F0B8CF0E9431130E947F
:102C100002130F900F900F90CF91DF911F910F91A2
:102C2000FF90EF90DF90CF90BF90AF909F908F90EC
:102C30007F906F905F904F903F902F9008950F93EB
:102C40001F930E941522882349F10E948321882323
:102C500029F50E945822092F813051F4E091AC02ED
:102C6000F091AD020190F081E02D892F61E015C057
:102C7000892F8756883040F40E94D317182F802F51
:102C80000E94C218182351F4E091AC02F091AD02F9
:102C90000190F081E02D802F60E009950E942015C1
:102CA0001F910F910895982F8091AF0280FF0FC060
:102CB000993611F49AE60BC09A3611F499E607C0DA
:102CC0009D3611F49EE603C09E3609F49DE6892FD9
:102CD000089580E00E94C917882319F01092B0026D
:102CE00008950E94D317982F8091AE029817A1F0F3
:102CF0009C3231F0903E21F0983611F0943A41F434
:102D00001092B4021092B30282E08093B00202C02B
:102D10001092B0029093AE024091B0024423B1F100
:102D20008091B3029091B40201969093B402809383
:102D3000B3022091B1023091B2022817390734F55D
:102D40004230E1F482E390E00E9415078091AF02E7
:102D500080FF04C08E7F8093AF0210C0816080939B
:102D6000AF0284EF91E02CE231E0F9013197F1F705
:102D70000197D9F784E690E00E94150788E090E07B
:102D80006091AF020E94DC2D1092B002089588E09D
:102D900090E00E94B32D8093AF028F3F11F4109208
:102DA000AF0288E893E10E9497299093B202809342
:102DB000B1020895E82F865D883140F4F0E0EA5AC8
:102DC000FE4FE4918E2F0E943B18E82F8E2F08951E
:102DD000982F8091B502882321F0892F0E94DA165E
:102DE000982F892F0895282F865D8831A8F4822F87
:102DF00090E0865D9040FC01E45AFD4FE491EE23A3
:102E000021F0822F0E94DA1606C08C5B9D4FFC01D8
:102E100084910E943B18282F822F08951F93982F8A
:102E2000865D662381F18831A8F48091B6028F5FB8
:102E30008093B6028091B702882309F58091B80289
:102E40008823E9F49093B90281E08093B70210924D
:102E5000B50262C08091B902882339F081E0809385
:102E6000B5028091B8028F5F55C08091B702882368
:102E700009F052C08091B8028F5F8093B80281E060
:102E80008093B50249C0883108F03FC08091B602F6
:102E9000882319F081508093B6021091B902112352
:102EA00069F18091B502882349F5812F865D8831CB
:102EB00048F4E12FF0E0E259FE4FE4918E2F0E949A
:102EC0003B18182F812F0E943C21812F0E943C210A
:102ED0001092B9021092BB021092BA020E943C19E1
:102EE000882361F0812F60E040E021E00E94381DDE
:102EF000812F60E040E020E00E94381D8091B60202
:102F0000882351F41092B70207C08091B802882339
:102F100019F081508093B8021F9108951F93182FC4
:102F20009091B9029923E9F08091B5028823C9F004
:102F3000892F0E94DA16612F0E94A4140E943C1966
:102F4000882349F08091B9020E94DA1660E040E0DF
:102F500021E00E94381D1092B9021092BB0210921B
:102F6000BA021F9108958091B902882389F0809157
:102F7000BA029091BB0201969093BB028093BA0271
:102F8000855F914028F081E08093B5020E948E1702
:102F90000895863010F080E00895E82FF0E0E454C2
:102FA000FD4F808108958091C20208951092C3025E
:102FB0001092C20286E0ECEBF2E0DF011D928A95EE
:102FC000E9F708950F931F93082F8756662301F1A1
:102FD000883038F41091C202802F0E94C218182B3A
:102FE00020C08091C302863080F50D3B70F58CEBDC
:102FF00092E0602F0E94E4208F5F9F4F31F5809117
:10300000C302E82FF0E0E454FD4F00838F5F1BC044
:10301000883050F41091C202802F0E94C21880950F
:1030200018231093C20211C08CEB92E0602F0E9413
:10303000E420BC0197FD09C08CEB92E00E94FE20C9
:103040008091C30281508093C3021F910F91089514
:1030500098E8899FF0011124E050FB4970E083E07B
:10306000660F771F8A95E1F7E60FF71FE40FF11D52
:10307000E4918E2F08950E9453160895EF92FF92C7
:103080000F931F93082FF62EE42E0E941E198823FB
:10309000B9F10E943C19882309F44BC0033010F0A9
:1030A00010E011C081E1089FC00111248F0D911D16
:1030B00053E0880F991F5A95E1F78E0D911D0D96DB
:1030C0000E94B32D182F812F81508E3F90F0E8E899
:1030D0000E9FF0011124E050FB498F2D90E043E05A
:1030E000880F991F4A95E1F7E80FF91FEE0DF11DC2
:1030F0001491812F0E942E19882369F110E02BC0B2
:10310000033010F010E011C081E1089FC0011124CC
:103110008F0D911D33E0880F991F3A95E1F78E0DC1
:10312000911D0D960E94B32D182F812F81508E3F37
:1031300090F0E8E80E9FF0011124E050FB498F2D3C
:1031400090E023E0880F991F2A95E1F7E80FF91F17
:10315000EE0DF11D1491812F0E9453161F910F91B6
:10316000FF90EF900895982FE4E7F2E0849198178C
:1031700011F481E00895319682E0E837F807B1F75D
:1031800080E00895E82FF0E0EF5EFD4FE4918E2F90
:1031900008958091C40208958091C402882329F47F
:1031A00081E08093C4020E94CB0508958091C402FF
:1031B0008823C9F48091C5029091C602019690932C
:1031C000C6028093C5028053954768F01092C602EC
:1031D0001092C5028091C7028F5F8093C7028A3028
:1031E00011F40E94CC1808958091C402882321F024
:1031F0001092C4020E9498061092C6021092C50254
:103200001092C70208952091EB02E22FF0E0EE0F3A
:10321000FF1FED51FD4F918380832F5F2093EB02C1
:1032200008958093D60208958091D2028170089506
:103230008091D20283608093D20208958091D2025D
:10324000827008958091D402089581E08093D40221
:1032500008951092D2021092D702089590E08D5BEB
:10326000883108F491E0892F089590E0895C8C30D2
:1032700008F491E0892F089590E08091D6028B3078
:1032800009F491E0892F08958091CE02089580E39A
:10329000E4E3F5E0DF01982F1D929A95E9F710928B
:1032A0006405E4E9F4E0DF011D928A95E9F71092E4
:1032B000CD02089588E20E943C2188E20E943C21D0
:1032C00008951F93182F0E944719109393048BE0C1
:1032D0008093D6028091D20283608093D20281E0F3
:1032E0008093CE0284EF91E00E94150788EE93E070
:1032F0002CE231E0F9013197F1F70197D9F784EF2A
:1033000091E00E9415071F9108958091D20281607B
:103310008093D20282E390E00E94150784EF91E04F
:103320002CE231E0F9013197F1F70197D9F782E307
:1033300090E00E94150784EF91E02CE231E0F90162
:103340003197F1F70197D9F784E690E00E941507CD
:103350000895809193048C3078F460E3869FB001E7
:1033600011246B557E4F84E395E040E350E00E94CA
:10337000BB2D8FEF8093930408950E94A9198FEFBE
:10338000809393041092D6021092CE021092D20231
:103390001092D70288EE93E00E94150708950F93CC
:1033A0001F93CF93DF93982F8C30C0F480E3989FC6
:1033B000C0011124EC01CB55DE4F8C010B521E4F86
:1033C000CE010E94B32D982F81508E3F18F4892F83
:1033D0000E943C212196C017D10791F7DF91CF9130
:1033E0001F910F9108950F931F93182F8091D20270
:1033F00080FD30C0012F0D5B083160F50E94152261
:103400008823F9F4193C90F0195C80E3189FC001FF
:1034100011248B559E4F0E94B32D81508E3FE0F4B6
:103420000E942622812F0E94CF1916C0802F0E9451
:103430000C14882389F00E942622802F0E947C147D
:103440000BC00E947D21882329F00E9453220E94F4
:10345000802102C080E001C081E01F910F9108959A
:103460006091DD0288E8689FB0011124635F7F4F9F
:103470008CEA94E048E850E00E94A32D1092DC0210
:103480001092DB0208950F931F93FC0180810E942C
:1034900092218C01882319F088E60E943C21812F1B
:1034A0000E943C21812F0E943C21002319F088E6D4
:1034B0000E943C211F910F910895CF92DF92EF92CD
:1034C000FF920F931F93DF93CF930F92CDB7DEB789
:1034D0008C01009711F52FC000D000D000D0EDB7BF
:1034E000FEB73196ADB7BEB71296FC92EE92119729
:1034F000D382C282992787FD9095958384830E9409
:10350000212D8DB79EB706960FB6F8949EBF0FBEBD
:103510008DBFC7010E94431A08C07E010894E11CB8
:10352000F11C4FE6C42E40E0D42EF8010F5F1F4F70
:103530008491882389F60F90CF91DF911F910F918D
:10354000FF90EF90DF90CF9008950E945D1A0E9447
:103550005A19089583E896E00E94A51A81E08093A5
:10356000CC028CE08093D7021092D602089585E6B3
:1035700095E00E94A51A24EB34E080E090E00BC0B7
:103580001192E217F307E1F701969F01285F3F4F81
:103590008131910549F0FC0153E0EE0FFF1F5A9570
:1035A000E1F7E455FB4FECCF81E090E09093DC0233
:1035B0008093DB0208958091DB029091DC02892BDD
:1035C00029F41092D2021092D702089586EB95E06A
:1035D0000E94A51A81E08093CC028BE08093D702F1
:1035E0008091D6028093D8021092D602089580EC82
:1035F00095E00E94A51A0895AF92BF92CF92DF92F4
:10360000FF920F931F93DF93CF930F92CDB7DEB747
:103610008C01FF246E010894C11CD11C6FE6A62EFC
:1036200060E0B62E25C000D000D000D0EDB7FEB7C8
:103630003196ADB7BEB71296DC92CE921197B38297
:10364000A282800F911FDC018C91992787FD9095B4
:10365000958384830E94212D8DB79EB706960FB661
:10366000F8949EBF0FBE8DBFC6010E94431AF3940B
:103670008F2D90E0F80101900020E9F73197E01BD1
:10368000F10B8E179F0778F20F90CF91DF911F916A
:103690000F91FF90DF90CF90BF90AF9008950F9360
:1036A0001F938B010E94FC1AC8010E945D1A1F9192
:1036B0000F9108950F931F9384EE93E00E945D1A7B
:1036C00008EC13E0C8010E945D1A809193048F5F9B
:1036D0000E940722B8010E944F1B83E896E00E94D7
:1036E000A51A81E08093CC028DE08093D7021092DE
:1036F000D6021F910F9108950F931F930E945A199C
:1037000084EE93E00E94A51A8CEF93E00E94A51A24
:1037100081E194E00E945D1A0E945A1983E00E94A0
:1037200007220AEC13E0B8010E944F1B8AED93E0D8
:103730000E94A51A86E00E940722B8010E944F1B32
:103740008FED93E00E94A51A8FE194E00E94A51AE4
:1037500087E08093D6021F910F9108951F930E94D6
:103760005A1983EB93E00E94A51A81E00E94072278
:103770006AEC73E00E944F1B84EE93E00E94A51A4E
:1037800082E00E9407226AEC73E00E944F1B8BE2EA
:1037900094E00E94A51A10E01AC08091ED028F5F9C
:1037A000810F0E9407226AEC73E00E944F1BE12FF9
:1037B000F0E0EE0FFF1FED51FD4F0190F081E02D85
:1037C0000190F081E02D09950E945A191F5F8091A8
:1037D000EB02181710F381E08093CC028EE0809307
:1037E000D7021092D6021F91089583E0EFEDF2E028
:1037F000DF011D928A95E9F71092E2021092DD0234
:103800001092D5020E94AE1B089581E08093CC02F5
:103810008091D602893090F4873008F03FC0833021
:1038200089F1843030F48130E1F0823009F05DC0FC
:1038300026C0853069F1863070F527C08D30B1F132
:103840008E3030F4893079F18B3009F04EC031C0C0
:103850008E3609F448C0883789F1843609F045C0AE
:1038600037C08BEA94E00E945D1A8091DD028F5F81
:103870000E9407220E94FC1A0E945A1936C08DED40
:1038800094E019C08CEF94E00BC089E295E026C06B
:1038900081E495E023C01092CC0227C086EC95E02D
:1038A0000E945D1A22C082ED95E0FACF8BE096E08F
:1038B000F7CF8FE296E00E94A51A17C08AEE93E038
:1038C0000E94A51A1092D60281E00E94AF220DC07C
:1038D0001092D2021092D7028FEB93E00E94A51AA9
:1038E0001092D60202C00E94AE1B8091D60288239D
:1038F00049F088EE93E02CE231E0F9013197F1F7DD
:103900000197D9F708958091CE02882319F00E947B
:10391000BD1908950E94A91987E08093D6020E94DC
:103920005A190E94051C08951F93CF93DF93C0E09E
:10393000D0E010E380919304819FC00111248B5546
:103940009E4F8C0F9D1F60E00E94CB2D2196C033AF
:10395000D10581F787E08093D6020E94051CDF9194
:10396000CF911F910895CF93DF93C5EAD1E0CE01A7
:1039700060E00E94CB2D219683E0C53ED807B9F7C1
:1039800087E08093D6020E94051CDF91CF910895B5
:103990006091DD0288E8689FB0011124635F7F4F6A
:1039A0008CEA94E048E850E00E94BB2D1092DC02C3
:1039B0001092DB028091D802843039F48093D602D1
:1039C0001092D2021092D70211C0813079F40E9475
:1039D0005A1987E995E00E94A51A87E08093D602DC
:1039E0008091DE028093DD020E94301A0E94051C45
:1039F00008950E945A1982E694E00E94A51A82E76F
:103A000094E00E94A51A86E00E9407226AEC73E007
:103A10000E944F1B8FED93E00E94A51A88E894E066
:103A20000E94A51A87E08093D6020E94051C089583
:103A30000F931F9387E00E9407220AEC13E0B8015E
:103A40000E944F1B8AED93E00E94A51A89E00E9414
:103A50000722B8010E944F1B8AEE93E00E94A51A2C
:103A600088E08093D6020E94051C1F910F91089553
:103A7000EF92FF920F931F93CF93DF93982FF62E21
:103A8000E42E122F8091CC02882309F0AFC2892F37
:103A90000E94E816082F8091D6028B3009F096C25A
:103AA0000D3B08F0A3C28091CB02882371F01092E5
:103AB000CA021092CB02802F0E943C21E091640543
:103AC000F0E0ED5CFA4F108230C0112371F080916C
:103AD000CD02883108F08AC28F5F8093CD0284E9DD
:103AE00094E0602F0E9430210FC084E994E0602FA1
:103AF0000E94E420BC018FEF6F3F780709F476C283
:103B000084E994E00E94FE2080916405E82FF0E0B3
:103B1000EC5CFA4F00838F5F80936405802F0E94D6
:103B20003C2180916405803318F00E94831C5EC2A2
:103B3000112351F0093241F481E08093CA021092BE
:103B4000C9021092C80252C21092CA021092CB024D
:103B50004DC2CA30D10508F049C2E091E202F0E05E
:103B6000E152FD4FC0838C2F0E9407220E94FC1A55
:103B70000E945A199091DF028091D602883009F094
:103B80004EC0913029F49093D5020E947C1BC6C18F
:103B90009230D9F49093D5020E94301A0E945A199B
:103BA0008BE294E00E94A51A86E394E00E94A51A95
:103BB00085E494E00E945D1A81E08093CC028AE063
:103BC0008093D7021092D602A9C1973009F45FC042
:103BD000993029F489E08093D50288E73EC0E92F27
:103BE000F0E031978091ED02E81BF1098091EB0242
:103BF00090E0E817F9070CF091C183E68093D502B5
:103C0000E093EC02F0E0EE0FFF1FED51FD4F01904D
:103C1000F081E02D0280F381E02D09952AC08730E4
:103C200009F07CC1963019F48EE68093D60280911B
:103C3000D502823001F5913011F0923019F4909351
:103C4000D6026CC1933031F484E08093D6020E9496
:103C5000DB1A64C1943041F485E08093D60210925F
:103C6000D2021092D7025AC1993009F057C10E946E
:103C7000B71A87E051C18130A9F4913011F489E07D
:103C80004BC1923011F48DE047C1933011F484E6BA
:103C900043C1993009F042C18CE08093D6020E9462
:103CA000AA1A3CC1833609F039C1E091EC02F0E078
:103CB000EE0FFF1FED51FD4F0190F081E02D0480CC
:103CC000F581E02D892F602F4F2D2E2D00E00995D5
:103CD00025C1923099F0CA30D10508F087C1809192
:103CE000E202E82FF0E0E152FD4FC0838F5F809346
:103CF000E2028C2F0E9407220E94FC1A2A9728F0C9
:103D00008091D602823009F071C18091D602833051
:103D100009F407C1843038F4813009F475C0823069
:103D200009F051C1A0C0893021F08D3009F04BC19C
:103D30002DC08091E2028230F9F49091DF028AE096
:103D4000989F900111248091E002280F311DC90134
:103D500001970C9750F4822F8150809393048BE04D
:103D60008093D6020E94471918C1232B09F00FC176
:103D700087E08093D60211C188EE93E02CE231E017
:103D8000F9013197F1F70197D9F730C18091E2023B
:103D9000823081F59091DF028AE0989F9001112492
:103DA0008091E002280F311DC90101970C9760F442
:103DB000822F81508093930487E08093D6020E94E3
:103DC0005A190E945A1B0EC0232B31F487E08093AE
:103DD000D6020E945A1906C00E945A1986E696E039
:103DE0000E94A51A83E0EFEDF2E0DF011D928A95B3
:103DF000E9F794C088EE93E02CE231E0F9013197C5
:103E0000F1F70197D9F7F2C09091DF028091DD02BE
:103E1000833030F5092F0150801711F1033000F580
:103E20008091DB029091DC02181619065CF40E9466
:103E30005A1984E895E00E94A51A0E94DB1A0093A3
:103E4000DE026CC00E945A1987E995E00E94A51A0B
:103E500087E08093D6020093DD020E94301A5EC094
:103E60000E945A1906CFF092D902E092DA028AEA49
:103E700095E00E945D1A8091D9028F5F0E9407220F
:103E80000E94FC1A82E790E00E94FC1A8091DA02FC
:103E90008F5F0E9407220E94FC1A85E790E00E9433
:103EA000FC1A8091DD028F5F0E9407220E94FC1A9B
:103EB0008EE790E00E94FC1A8091DD026091DA02A8
:103EC0004091D9020E9428180E9407220E94FC1AE1
:103ED00088E890E00E94FC1A8091D902E091DA0211
:103EE000F0E0B3E0EE0FFF1FBA95E1F7E80FF11D28
:103EF000E455FB4F808190E08F3F910511F480E005
:103F000090E00E9407220E94FC1A82E990E00E9441
:103F1000FC1A0E945A1983E08093D6021092E202A2
:103F200052C08091E202833009F043C09091DF02D9
:103F300084E6989FA00111248091E0022AE0829FEC
:103F4000C0011124480F591F8091E102480F511DF3
:103F50004F3F5105E4F48091D902E091DA02F0E09C
:103F6000A3E0EE0FFF1FAA95E1F7E80FF11DE4555E
:103F7000FB4F408387E08093D6028091DB029091D3
:103F8000DC0201969093DC028093DB0206C00E9463
:103F90005A1986E696E00E945D1A83E0EFEDF2E0A2
:103FA000DF011D928A95E9F71092E2020E945A19E8
:103FB0000AC088EE93E02CE231E0F9013197F1F785
:103FC0000197D9F713C00E94051C10C0112371F48A
:103FD00084E990E0602F0E94E420EC019091D602E9
:103FE000892F8750823008F074CEB3CDDF91CF9106
:103FF0001F910F91FF90EF9008950E94D317982F73
:104000008091D20280FD18C08091D3029817A1F050
:10401000973261F48091CF02882341F41092D1024B
:104020001092D00281E08093CF0204C01092D2029D
:104030001092CF029093D3028091D20280FF0FC0E2
:1040400081FD0DC00E94F612882349F08091D202B2
:1040500083608093D2020E94F71A0E94F51B809120
:10406000D2028823C9F48091CF028130A9F48091D3
:10407000D0029091D10201969093D1028093D00208
:1040800020919F003091A000281739072CF40E943E
:10409000851982E08093CF028091D20281FF44C0D3
:1040A0008091CC02882339F10E941522882319F5CA
:1040B0000E94A7298823F9F48091D7028E3019F441
:1040C0000E94181D16C08B3019F40E94C81C11C024
:1040D0008A3019F40E94F91C0CC08D3019F40E942A
:1040E000941C07C08C3019F40E94B31C02C01092BB
:1040F000CC021092D7028091CA028823A9F0809145
:10410000C8029091C90201969093C9028093C80297
:10411000895E93404CF081E08093CB0289E26FEF9F
:104120004FEF20E00E94381D08950E948F228823BF
:1041300019F01092D40208958091D402813021F4B4
:104140000E9485191092D402089584EC99E00E948F
:1041500097299093A00080939F0082E08093ED02C6
:104160001092EB02089528EB3BE003C0F901319770
:10417000F1F70197D9F708951F93162F0E94B32DD9
:1041800090E002C0959587951A95E2F78095817029
:104190001F9108950F931F93162F042F0E94B32D84
:1041A00021E030E002C0220F331F1A95E2F7622FA0
:1041B00060956823002309F4622B87E090E00E9459
:1041C000DC2D1F910F910895CF93DF93EC01DC015B
:1041D0000D900020E9F71197A81BB90B70E0AD0115
:1041E0000E94AC2C009719F4EFEFFFEF03C0FC0125
:1041F000EC1BFD0BCF01DF91CF9108959B01FC01DA
:1042000001900020E9F73197E81BF90B6F5F7F4FB2
:10421000680F791FE21BF30B820F931FAF010E94FF
:10422000C22C0895FF920F931F93F42E9B01DC0183
:104230000D900020E9F78C01060F171FA81BB90B82
:10424000A61BB70B2F5F3F4F820F931FB801AD0125
:104250000E94C22CF801F0821F910F91FF900895E7
:10426000462FDC010D900020E9F71197A81BB90B30
:10427000BD010E9412210895282F8091230390915F
:10428000240301966CE271E00E94062CFC019093DD
:1042900024038093230380912103909122038E179E
:1042A0009F0759F4009719F48BE291E001C0019740
:1042B00090932403809323030895EA5DFC4F2083A9
:1042C000089520912103309122038091230390913E
:1042D00024032817390711F480E00895C9010196D5
:1042E0006CE271E00E94062CFC0190932203809303
:1042F0002103EA5DFC4F8081089580912503089594
:1043000010922503089540E020912103309122036B
:1043100080912303909124032817390709F441E081
:10432000842F0895982F81568A3118F4292F2D55FE
:1043300010C0892F81548A3120F4292F2D5332E067
:1043400009C0892F8153893010F020E002C0292F45
:10435000235130E0892F992787FD9095A92FB92FF8
:10436000FC01B097EF35F10508F048C0E65DFF4F5E
:10437000EE0FFF1F0590F491E02D09942EE141C04E
:104380002FE13FC020E23DC021E23BC022E239C024
:1043900023E237C024E235C025E233C026E231C033
:1043A00027E22FC02CE22EC02DE22CC02DE229C026
:1043B0002EE228C02EE225C02FE224C02FE221C029
:1043C00020E320C020E31DC021E31CC021E319C06D
:1043D00023E318C023E315C024E314C024E311C071
:1043E00025E310C025E30DC026E30CC026E309C079
:1043F00027E308C027E305C028E304C0222311F403
:1044000028E332E0832F922F089527E2FBCF0F930A
:104410001F930EEE12E090E0B8014AE050E00E94D7
:10442000D42CC8011F910F91089520912103309140
:10443000220380912303909124032817390719F050
:1044400081E090E008950E941914089520912103BD
:104450003091220380912303909124032817390778
:1044600039F480E3E1EFF2E0DF011D928A95E9F78C
:1044700008951092240310922303109222031092A5
:1044800021038CE291E0E6E2F3E0DF019C011D9262
:1044900021503040E1F780E3E1EFF2E0DF011D92CF
:1044A0008A95E9F708950E9439220E941C14089504
:1044B0000F931F93CF93DF930E946121082F182F32
:1044C0001D5B1C3058F40E945322812F0E947C14E3
:1044D00081E08093250382E000E01BC0C1EFD2E0C1
:1044E000882331F480E3FE0111928A95E9F70AC02E
:1044F000CE01602F0E94E420BC0197FD05C0CE01D3
:104500000E94FE2082E005C0CE01602F0E94302173
:1045100081E0902FDF91CF911F910F9108958091AD
:10452000520408950F931F93082F162F81EA90E0ED
:104530000E94FC1A812F0E9407220E94FC1A83EA23
:1045400090E00E94FC1A802F0E9407220E94FC1A11
:1045500085EA90E00E94FC1A1F910F9108958093C4
:1045600052040E944E0608950E94FD1F0E94691683
:104570000E946A140E94D4230E94B3170E947107FC
:10458000089580915404089580915A0408956623F3
:10459000C9F0843F51F480915804823011F483E0D3
:1045A00001C081E0809358040895833F59F48091BD
:1045B0005904823021F483E080935904089581E006
:1045C000809359040895982F80915804823059F0AF
:1045D00080915904823029F49A3629F080E09E3681
:1045E00019F081E0089580E00895FC018081813018
:1045F000A1F482E0808382E390E00E94150784EFBB
:1046000091E02CE231E0F9013197F1F70197D9F708
:1046100084E690E00E9415070895833029F4108203
:1046200084E690E00E94150708950F931F93182FBA
:10463000022F0E94DD05812F0E94B318882309F004
:10464000AFC0812F602F0E940E17812F0E94F3169A
:10465000182F0E94B318882309F0A2C0002309F480
:1046600092C01C3F59F0173F49F0809153048823B2
:1046700009F450C01A3209F04DC014C0809154049E
:10468000882331F41C3F41F083E0809354040CC034
:104690001C3F21F4823031F082E0F7CF173F11F454
:1046A000833091F71092540480915A048823C1F406
:1046B00080915404882319F484E690E00FC084E6C6
:1046C00090E00E94150780E293E02CE231E0F901CE
:1046D0003197F1F70197D9F786E490E00E9415072A
:1046E00080915A04813039F460E080915404811142
:1046F00061E081E008C0823041F460E080915404C0
:10470000811161E084E00E94200580E01A3209F006
:1047100048C042C080915504882361F0812F0E94D7
:104720003519882339F0195C1093AD0081E080932E
:10473000560436C0193221F481E08093530431C00D
:10474000153F71F48091570491E0892780935704B5
:10475000882319F40E94930523C00E94D40520C029
:10476000123F59F40E944419882319F00E94BD1980
:1047700017C081E08093550413C0812F60915304CA
:104780000E9434060EC01C3F59F0193219F41092E1
:10479000530402C0123F11F081E003C0109255048F
:1047A00080E01F910F9108950E94F312882341F039
:1047B00088E594E00E94F52289E594E00E94F522C4
:1047C0000E94F612882379F080915604882359F0CC
:1047D000109256048091AD008F3F29F00E9461191C
:1047E0008FEF8093AD0008958CE896E00E945D1AEB
:1047F00088EC93E00E945D1A8AEC93E00E945D1AB7
:1048000088EC93E00E945D1A80915A04813019F47B
:1048100086E996E007C0823019F489E996E002C083
:104820008FEC93E00E945D1A08951F93182F11508A
:10483000133050F587E00E94111910935A0411307B
:1048400041F487E090E00E94B32D682F6B7E606199
:1048500010C0123041F487E090E00E94B32D682F21
:104860006B7E646006C087E090E00E94B32D682FE5
:10487000646187E090E00E94DC2D0E944E060E9459
:10488000F4230E945A190DC0843031F484E60E944A
:1048900011190E94291905C0863019F48EE60E946C
:1048A00011191F9108950E94F42308950F931F93E7
:1048B0000E94F4230E945A1981E00E9407220E945C
:1048C000FC1A0AEC13E0C8010E945D1A8FEC93E019
:1048D0000E945D1A0E945A1982E00E9407220E94DB
:1048E000FC1AC8010E945D1A86E996E00E945D1AD2
:1048F0000E945A1983E00E9407220E94FC1AC801F4
:104900000E945D1A89E996E00E945D1A0E945A1978
:1049100084E00E9407220E94FC1AC8010E945D1ACE
:104920008AED93E00E945D1A0E945A1986E00E9467
:1049300007220E94FC1AC8010E945D1A8FED93E0C5
:104940000E945D1A0E945A191F910F91089587E0E5
:1049500090E00E94B32D482F8695869590E09C01AB
:104960002170307080FD07C0842F82958F7080FF8A
:104970000DC081E008C0222349F0842F82958F70FA
:1049800080FD04C082E080935A0402C010925A0451
:1049900087EA90E00E940319089580915C040895CD
:1049A00040915C0481E0482740935C0487E090E0FC
:1049B00063E00E94CA20089587E090E063E00E94CF
:1049C000BC2080935C048EEA90E00E940319089555
:1049D0001F93182F8932B9F480915C04882399F0D1
:1049E000662351F00E94D317823011F0803259F4BF
:1049F00081E080935B0406C080915B04882319F0FA
:104A000010925B0415E3812F1F9108958CE996E0C5
:104A10000E945D1A88EC93E00E945D1A8AEC93E094
:104A20000E945D1A88EC93E00E945D1A80915C04FC
:104A3000882319F08CEC93E002C08FEC93E00E9485
:104A40005D1A0895813051F487E00E9411190E9487
:104A5000D0240E9406250E945A190895833031F40B
:104A600084E60E9411190E9429190895863019F4CC
:104A70008EE60E94111908950E94062508950F934D
:104A80001F930E9406250E945A1981E00E94072266
:104A90000E94FC1A0AEC13E0C8010E945D1A83ED23
:104AA00093E00E94A51A83E00E9407220E94FC1A4C
:104AB000C8010E945D1A8AED93E00E94A51A86E063
:104AC0000E9407220E94FC1AC8010E945D1A8FED05
:104AD00093E00E94A51A1F910F91089580915D04A3
:104AE000089540915D0481E0482740935D0487E08C
:104AF00090E060E00E94CA20089587E090E060E0C6
:104B00000E94BC2080935D0484EB90E00E94031916
:104B1000089585EA96E00E945D1A88EC93E00E9471
:104B20005D1A8AEC93E00E945D1A88EC93E00E9483
:104B30005D1A80915D04882319F08CEC93E002C02B
:104B40008FEC93E00E945D1A0895813051F487E064
:104B50000E9411190E9471250E9489250E945A19EC
:104B60000895833031F484E60E9411190E942919B6
:104B70000895863019F48EE60E94111908950E9456
:104B8000892508950F931F930E9489250E945A1921
:104B900081E00E9407220E94FC1A0AEC13E0C8017F
:104BA0000E945D1A83ED93E00E94A51A83E00E94A3
:104BB00007220E94FC1AC8010E945D1A8AED93E048
:104BC0000E94A51A86E00E9407220E94FC1AC801D2
:104BD0000E945D1A8FED93E00E94A51A1F910F911C
:104BE000089581E080937504089581E080936204C4
:104BF0001092630480935E04089580915F04811194
:104C000081E008950F931F93162F0E94E816082F36
:104C100081508C3B08F059C080578A3108F455C048
:104C200081E080935F04802F8756112341F1883003
:104C300038F410916004802F0E94C218182B28C0ED
:104C400080916104863008F040C0802F8D588231F9
:104C500028F4E02FF0E0E953FD4F04918CE694E056
:104C6000602F0E94E4208F5F9F4F79F58CE694E0DF
:104C7000602F0E943021809161048F5F24C08830B2
:104C800050F410916004802F0E94C2188095182360
:104C9000109360041AC0802F8D58823128F4E02FC1
:104CA000F0E0E953FD4F04918CE694E0602F0E9400
:104CB000E420BC0197FD09C08CE694E00E94FE2030
:104CC000809161048150809361041F910F91089538
:104CD0000F931F93182F082F01576623E9F061E007
:104CE0000E9402260A3160F521E020936404E12F3E
:104CF000F0E0EE0FFF1FE25CFD4F859194919093E1
:104D00006604809365040330D8F42093670490937D
:104D100069048093680414C060E00E9402260A318E
:104D200078F481E080936404109266041092650424
:104D3000033030F480936704109269041092680481
:104D400081E01F910F9108952F923F924F925F92B1
:104D50006F927F928F929F92AF92BF92CF92DF928B
:104D6000EF92FF920F931F93DF93CF9300D00F9298
:104D7000CDB7DEB782B3837F82BB81B3837F81BB34
:104D80000E9435288B9A20E048EB5BE0CA0101972E
:104D9000F1F72150D9F78B988AEB90E00E949F148D
:104DA0008CEB90E00E94A22986E0ECE6F4E0DF01C3
:104DB0001D928A95E9F71092610410926004109296
:104DC0006604109265047894DD24EE24FF242E01FD
:104DD0000894411C511C58E7A52E54E0B52E48E01C
:104DE000C42E32E0632E712C6A0C7B1C2CE6822EC2
:104DF00024E0922E98E2292E93E2392E8091C00071
:104E0000813061F580917504882341F580917304A8
:104E100090917404019690937404809373040197A5
:104E2000895B9B40DCF01092C0008BB78F778BBF03
:104E30000F900F900F90CF91DF911F910F91FF90E6
:104E4000EF90DF90CF90BF90AF909F908F907F902A
:104E50006F905F904F903F902F90089580917F05C5
:104E6000882351F010927F0510925E040E94F4187E
:104E7000DD24EE24FF2424C080915E04882339F0D1
:104E8000E1E0E0937F050E94F418DD2419C0DD20E5
:104E9000B9F487010F5F1F4FF1E1EF16F7E2FF064C
:104EA00074F00E94D317882351F40E94C9178823F5
:104EB00031F40E94CC187801DD24D39401C078012C
:104EC0000E9446288091700584FF77C08091640419
:104ED000882331F480916704882311F40E941F16FF
:104EE0000E94B42280915F04882309F441C080911C
:104EF0007504882309F482CFDD2001F1F89422B3F0
:104F000031B3929A939881B38C6081BB88EE93E021
:104F1000ECE2F1E03197F1F70197D1F782B394E039
:104F2000892782BB82B38C2582BBC1010197F1F72F
:104F300022BB31BB789410925F0460CFD501EC2D79
:104F40001D92EA95E9F780916004809378041092AD
:104F5000790440916104C301B40150E00E94B92C6E
:104F600088E794E068E00E948C2910925F0425C0D5
:104F7000809162048130A1F4F2E0F0936204D501E3
:104F8000EC2D1D92EA95E9F788E794E068E00E942D
:104F90008C290E94E8138091DB00882371F00BC0FC
:104FA00080916304823049F4F3E0F09363048091CC
:104FB000DB00882311F40E94952080919C0584FFDA
:104FC00024C080916404882371F0809165049091DD
:104FD000660421E029839B838A83C20163E00E94E7
:104FE00087291092640480916704882371F080916E
:104FF000680490916904A2E0A9839B838A83C2011B
:1050000063E00E94872910926704809162048230D5
:1050100009F0F4CE80916A0490916B049C012F5F9B
:105020003F4F30936B0420936A04883C910519F438
:105030000E94B52AE3CE293C31050CF4DFCEE9EC21
:10504000F0E0F0936B04E0936A04F3E0F093620401
:10505000D5CE0E9443050E944E06809163048823AA
:1050600019F482E080936304089585B7886085BF52
:105070008BB780688BBF8BE48093710580939D050F
:105080008AE58093700580939C0508951F93CF93C4
:10509000DF9360918205635067FDBDC080917E05FE
:1050A000CCE0D0E0C81BD109CA57DA4F80917D050A
:1050B0008D3209F09DC0683009F0ABC083EC80935D
:1050C00065058AE58093BE0010927204888180761F
:1050D00029F0CE010E940D09282F77C09A811092E5
:1050E0006E058981882321F410926F0522E066C045
:1050F000853019F49093830560C0863009F047C06D
:105100008B81813059F489B78B7F89BF8DED96E013
:10511000909381058093800522E135C0823019F19A
:105120008330F9F48A81882341F48DEA96E09093E4
:1051300081058093800524E026C0813041F481EB15
:1051400096E090938105809380052CE11CC082300D
:10515000C9F48DEC96E0909381058093800520E161
:1051600012C0813229F4CE010E94C508282F0BC03D
:10517000823241F4CE010E94C508282F89B784608D
:1051800089BF01C020E080E4809372041EC0883093
:1051900021F421E085E895E013C0893019F490935B
:1051A00085050BC08A3011F421E008C08B3029F44A
:1051B0008BE48093710580939D0520E08EE695E059
:1051C000909381058093800509C02F3F39F4888131
:1051D00087FD2E8180E88093720406C08F8188232A
:1051E00019F48E81821708F0822F8093BF0011C0BE
:1051F0008091720487FF0DC0CE010E94FF088F3F8F
:1052000021F48EE18093BE0004C0882311F0109237
:10521000BF00109282058091BE0084FF46C080913D
:10522000BF008F3F09F441C0182F893008F018E003
:10523000811B8093BF008091650598E88927809342
:105240006505112321F12091800530918105809120
:10525000720486FF0AC0912FF901A6E6B5E0849199
:105260008D9331969150D9F708C0912FD901E6E678
:10527000F5E08D9181939150E1F7C90101961150AC
:10528000810F911D1F5F909381058093800586E6B5
:1052900095E0612F0E94B703612F6C5F6C3019F0AD
:1052A0008FEF8093BF006093BE0094E180B38C7059
:1052B00031F49150D9F71092830510927C05DF915B
:1052C000CF911F9108951F93CF93DF93DC01162F89
:1052D000EA01888184FF05C0898198E8892789834C
:1052E00002C08AE58883AE014E5F5F4F212FFA012D
:1052F0008D91819321501216DCF3CA01612F0E9417
:10530000B7031C5F1883DF91CF911F9108954CE97B
:1053100055E00E946329089540E755E00E94632903
:1053200008958D98959A08958D9A959808959C0161
:105330008091C000882311F0833011F435952795B2
:10534000C901089590937704809376040895E091BD
:105350007604F09177040190F081E02D099508958D
:105360001F93182F0E94F713112399F010E0812F3B
:105370000E9425101F5F1730D1F789B78E7F89BF34
:1053800089B78B7F89BF89B78F7B89BF8D98959AA5
:1053900002C08D9A95981F9108959F92AF92BF92E7
:1053A000CF92DF92EF92FF920F931F93CF93DF93F1
:1053B0000E94F7130E94E81384E18A95F1F710E048
:1053C0000E943B13882319F41F5F1431C9F70E9410
:1053D000FC127C0100E0DD2431E0A32EB12C2AE098
:1053E000922E95E0C92EF7018081882309F43FC0F1
:1053F000C0E0D0E095010C2E02C0220F331F0A94AA
:10540000E2F7F7018081822371F180E06D2D4C2F4E
:105410000E942818182F8C2F6D2D0E946509882353
:1054200011F41B3221F481E00E94AF221CC0103124
:1054300019F40E94251917C0183111F4016013C026
:10544000133111F402600FC01E3121F481E080930A
:10545000E20009C01F3119F4C092E20004C010320A
:1054600011F49092E2002196C830D10519F6D39438
:105470000894E11CF11CF1E1DF1609F0B4CF0E94A1
:1054800031130E940213002319F00F5F0093C00034
:105490006091C000643021F48CE090E06FEF04C0B4
:1054A000643028F48CE090E00E94DC2D06C08CE093
:1054B00090E00E94B32D8093C0008A98929A209128
:1054C000C0002430D0F090E080E0829907C092FDC7
:1054D00009C08F5F863060F021E00AC0829B09C05E
:1054E00092FD02C080E004C08F5F863008F020E0AB
:1054F00090B3223050F72093C0000E94C7160E943C
:10550000A5200E947D250E94A7240E94DC240E94E1
:10551000D6178091C0008150823070F4F8940E94B8
:10552000490510927404109273041092750481E07E
:105530000E94B0290E94A4268091C000882311F007
:10554000833039F7F8940E94490510927404109240
:1055500073041092750482E390E00E94150780E0C6
:105560000E94B0290E94790CD4CF0E943A050E9473
:1055700004070E9494140895ABE0B0E0E2ECFAE274
:105580000C945A2C5C014B017A01FC0117821682A3
:10559000838181FD08C06FEF7FEF08C142E050E0DA
:1055A000E40EF51E04C03E010894611C711CF50157
:1055B000D380F401D3FC8591D3FE81914F018823E0
:1055C00009F4F1C0853259F4D3FC6591D3FE6191A1
:1055D0004F01653219F0062F10E01BC085E290E004
:1055E0002BC0002309F4DFC086EF96E0602F70E047
:1055F0000E94A12C892B39F4033211F4106103C0ED
:105600000C3661F41068F401D3FC0591D3FE0191CE
:105610004F0117FFE6CF002309F4C5C08FEE96E0D7
:10562000602F70E00E94A12C892B51F044E050E0E3
:10563000E40EF51E8FE390E0B5010E94F52CB7CF84
:10564000033629F0033779F00335F1F40BC08701F5
:105650000E5F1F4FF70180819181B5010E94F52CEB
:105660007801A5CF1160F701C080D18004C090E01F
:10567000B5010E94F52CF60110FD859110FF819176
:105680006F018823A1F78ACF043611F0093639F566
:1056900017FF08C0F701208131814281538184E0E6
:1056A00090E00AC0F701808191819C01442737FD79
:1056B0004095542F82E090E0E80EF91E1F7E57FFC0
:1056C00008C050954095309521953F4F4F4F5F4F03
:1056D0001064CA01B901A3012AE030E034C00037E8
:1056E000A9F0013730F40835B1F00F3609F05BC08E
:1056F00006C0053739F0083709F055C008C028E062
:1057000030E00CC01F7E2AE030E008C01061146257
:1057100020E130E003C0146020E132E017FF08C050
:10572000F701608171818281938144E050E008C07B
:10573000F70180819181BC0180E090E042E050E07F
:10574000E40EF51EA3010E94452DD82ED618012F78
:1057500010E006FF05C08DE290E0B5010E94F52C37
:1057600004FF15C0FE01ED0DF11D8081803379F03D
:1057700080E390E0B5010E94F52C02FF08C00072A2
:105780001070C801885A9F4FB5010E94F52CDA9419
:10579000F301ED0DF11D808190E0B5010E94F52C23
:1057A000DD20A9F704CFF50166817781CB012B9627
:1057B000EEE00C94762C629FD001739FF001829FE3
:1057C000E00DF11D649FE00DF11D929FF00D839F90
:1057D000F00D749FF00D659FF00D9927729FB00D2D
:1057E000E11DF91F639FB00DE11DF91FBD01CF0140
:1057F00011240895991B79E004C0991F961708F0A9
:10580000961B881F7A95C9F78095089597FB092EF6
:1058100007260AD077FD04D080D006D000201AF4E5
:10582000709561957F4F0895F6F7909581959F4FFC
:105830000895A1E21A2EAA1BBB1BFD010DC0AA1FD1
:10584000BB1FEE1FFF1FA217B307E407F50720F0E9
:10585000A21BB30BE40BF50B661F771F881F991F64
:105860001A9469F760957095809590959B01AC01AD
:10587000BD01CF01089597FB092E05260ED057FDD7
:1058800004D0D7DF0AD0001C38F4509540953095ED
:1058900021953F4F4F4F5F4F0895F6F790958095B4
:1058A000709561957F4F8F4F9F4F08952F923F9234
:1058B0004F925F926F927F928F929F92AF92BF9220
:1058C000CF92DF92EF92FF920F931F93CF93DF93CC
:1058D000CDB7DEB7CA1BDB0B0FB6F894DEBF0FBE29
:1058E000CDBF09942A88398848885F846E847D8476
:1058F0008C849B84AA84B984C884DF80EE80FD8078
:105900000C811B81AA81B981CE0FD11D0FB6F894ED
:10591000DEBF0FBECDBFED010895AA1BBB1B51E139
:1059200007C0AA1FBB1FA617B70710F0A61BB70B0F
:10593000881F991F5A95A9F780959095BC01CD01B4
:105940000895FC010590061621F00020D9F7C0014A
:1059500008953197CF010895FC014150504030F037
:1059600001900616D1F73197CF010895882799271E
:105970000895FB01DC0102C001900D92415050409E
:10598000D8F708956817790768F4FB01DC01E40F84
:10599000F51FA40FB51F02C002900E924150504057
:1059A000D8F708950C94B92CFB019F01E89442307C
:1059B000C4F04532B4F44A3029F497FB1EF49095B4
:1059C00081959F4F642F77270E948D2C805D8A33AD
:1059D0000CF0895D8193CB010097A1F716F45DE28D
:1059E00051931082C9010C94E92D0F931F93CF930B
:1059F000DF938C01EB018B8181FF1BC082FF0DC007
:105A00002E813F818C819D812817390764F4E881BC
:105A1000F9810193F983E88306C0E885F985802F31
:105A20000995892B31F48E819F8101969F838E8306
:105A300002C00FEF1FEFC801DF91CF911F910F91AF
:105A40000895AEE0B0E0E7E2FDE20C94642C0D892D
:105A50001E8986E08C831A8309838FEF9FE79E83DC
:105A60008D839E01275E3F4FCE0101966F89788D11
:105A7000A9010E94BC2A2F813885020F131FF8014B
:105A800010822E96E4E00C94802CFA01AA2728308C
:105A900051F1203181F1E8946F936E7F6E5F7F4FFB
:105AA0008F4F9F4FAF4FB1E03ED0B4E03CD0670F77
:105AB000781F891F9A1FA11D680F791F8A1F911DCA
:105AC000A11D6A0F711D811D911DA11D20D009F41A
:105AD00068943F912AE0269F11243019305D31935C
