:100000000C9499030C94B6030C94D1030C94B6038E
:100010000C94EE0C0C94FA0B0C94C10C0C94670C21
:100020000C94940C0C94CD0B0C943A0C0C947A0B0D
:100030000C94B6030C94B6030C94B6030C94B6035C
:100040000C94B6030C94B6030C94B6030C94B6034C
:100050000C94B603F01CDC1C0C1DE01CE21CE41C20
:10006000E81C0A1DEC1CEE1CEA1CF81C121DF21CFC
:10007000161D1A1D231D1C1D1C1D1C1D1C1D1C1DB9
:100080001C1D1C1D1C1D1C1D081D061D141DF61C01
:10009000181D1E1DDE1C1C1D1C1D1C1D1C1D1C1DD9
:1000A0001C1D1C1D1C1D1C1D1C1D1C1D1C1D1C1D88
:1000B0001C1D1C1D1C1D1C1D1C1D1C1D1C1D1C1D78
:1000C0001C1D1C1D1C1D1C1D1C1DFA1C021DFE1CC4
:1000D000E61CF41C0E1D1C1D1C1D1C1D1C1D1C1DC6
:1000E0001C1D1C1D1C1D1C1D1C1D1C1D1C1D1C1D48
:1000F0001C1D1C1D1C1D1C1D1C1D1C1D1C1D1C1D38
:100100001C1D1C1D1C1D1C1D1C1DFC1C041D001D7C
:10011000101D000001000800400000010004000064
:1001200001000800200040008000000100040403DA
:1001300009041C03770069006E006B0065007900FC
:100140006C006500730073002E006B0072001003DA
:1001500070007300320061007600720055001201D9
:10016000100100000008424231E1000101020001DB
:10017000FEFEF8F86C6C68686D6D69696B6B67679B
:10018000FEF88E8D8E8D8E8D8E8D8E8D8E8D8E8DBC
:100190008E8D3939010101010101010101010101C6
:1001A0000101010100000000FC001C322123242B6E
:1001B0003433433B424B3A31444D152D1B2C3C2AE2
:1001C0001D22351A161E26252E363D3E46455A76E8
:1001D000660D294E55545B5D5D4C520E41494A589F
:1001E0000506040C030B830A010978077C7E7C70EA
:1001F0006C7D71697A746B7275774A7C7B795A6908
:10020000727A6B73746C757D7071612F00141211AA
:100210001F145911270000373F5E48103A38302824
:1002200020184D153B34233221502B404B1C4322C8
:100230001D0000F1F2370F08101820283038404810
:1002400050575F6D0051136A6467270000006362B6
:100250005F00000000000000000000008A01210291
:10026000230224022502260227022A02B500B60034
:10027000B700CD00E200E900EA0083019201940199
:1002800000000000000000000000919066676869AF
:100290006A6B6C6D6E6F7071727385868788898AE0
:1002A0008B8C8D8E8F9293949596979846480048A4
:1002B0008E8D007172738F006A6B6E6D6546494A50
:1002C0004B4C4D4E52504F51545871727374757659
:1002D0007778797A7B7C7D7E7F8081828384858636
:1002E0008788898A8F00494C4A4D4B4E6A6E65500B
:1002F0004F5251540073656C656374206D6F646573
:1003000000313A4B6579204D617070696E6700323B
:100310003A4D6163726F00333A746F67676C6520A2
:100320004C617A7920464E00343A746F67676C6589
:1003300020536D617274204B657900353A457869B8
:100340007400393A626F6F74206D6170706572006D
:10035000676F6F64206279657E00626F6F74206DD5
:10036000617070657220737461727421004D6163F5
:10037000726F00313A53656C656374204D6163722E
:100380006F20496E64657800323A436C6561722073
:100390004D6163726F00333A4578697400393A43AE
:1003A0006C65617220416C6C00313A746F67676CE8
:1003B0006500363A4261636B004B6579204D617090
:1003C00070657200313A4368616E6765204C6179EF
:1003D000657200323A53656C656374204B65792011
:1003E0002D20696E707574206B6579636F6465008C
:1003F000333A5361766520616E64204578697400F4
:10040000343A4578697420776974686F757420533D
:100410006176696E6700393A526573657420746F4E
:100420002044656661756C74202843757272656E30
:1004300074204C617965722900707332617672554F
:100440000063686F6F7365206C6179657220283175
:100450003A206E6F726D616C2C20323A20464E2C21
:1004600020333A20464E32292063757272656E74CD
:100470003D200073656C656374206B65792028618D
:100480006E79206B657920796F752077616E74299C
:100490002000696E707574206B6579636F646520E8
:1004A000286D7573742033206E756D6265727329C3
:1004B000203A200053617665202620457869742C07
:1004C000207468616E6B20796F752E0045786974B1
:1004D00020776974686F757420536176696E672C34
:1004E0002073656520796F75206C617465722E00CC
:1004F000526573657420746F2064656661756C74F1
:100500002063757272656E74206C61796572003E4D
:100510003E20006E6F7468696E67005361766520D7
:1005200063757272656E74206C61796572004C6FD0
:1005300061642063757272656E74206C6179657296
:1005400000736176696E672E2E2E00636F6C2C200F
:10055000726F77203A2000696E707574206D616348
:10056000726F20696E646578202830317E31322CBC
:100570002063616E63656C3A2030302C206D75739A
:10058000742032206E756D6265727329203A2000E6
:1005900073656C65637420696E64657820283031FA
:1005A0007E31322C2063616E63656C3A20303029D5
:1005B000203A2000696E707574206B657920286D73
:1005C0006178203234206B6579732C2073746F70DE
:1005D000203A20707265737320455343206475720E
:1005E000696E672031207365632900696E76616CDE
:1005F0006964206E756D6265722C20696E70757409
:1006000020616761696E2E00636C6561722E2E2E0B
:100610000020006D6163726F006C617A7920464E34
:1006200000736D617274206B6579003A006F6E0023
:100630006F66660005010906A101050719E029E7B3
:100640001500250195087501810295017508810342
:100650000507190029A495067508150026A4008130
:100660000095057501050819012905910295017587
:10067000039103C005010902A10185030901A1003D
:100680000509190129051500250175019505810246
:100690007503950181030501093009311581257F15
:1006A00075089502810609381581257F35004500BA
:1006B000750895018106050C0A38021581257F759C
:1006C0000895018106C0C005010980A101850215B8
:1006D0000125B7190129B7751095018100C0050CD6
:1006E0000901A10185011501269C0219012A9C021C
:1006F000751095018100C009023B0002010080FADB
:100700000904000001030101000921010100012287
:1007100040000705810308000A09040100010300E5
:10072000000009210101000122830007058303085D
:10073000000A11241FBECFE5D8E0DEBFCDBF10E018
:10074000A0E6B0E0E4E9F4E502C005900D92A63C15
:10075000B107D9F715E0A6ECB0E001C01D92A236B2
:10076000B107E1F70E94C0250C94482A0C940000C0
:10077000A82FB92F80E090E041E050EA609530E08A
:1007800009C02D9182279795879510F0842795278A
:10079000305EC8F36F5FA8F30895EADF8D939D93F1
:1007A0000895CF93CFB7CF93C395839BE9F7839BEE
:1007B0000EC0839B0CC0839B0AC0839B08C0839B95
:1007C00006C0C091AB03C395C093AB03A3C0DF9336
:1007D000C091AA03DD27CE54DC4F839B02C0DF917A
:1007E000E6CF2F930F931F9300B32FEF03FB20F956
:1007F0004F933F9310B34FEF012703FB21F93BE0E9
:1008000031C04E7F012F10B3216028C0102F4D7FC3
:100810002260000000B329C04B7F2460012F00003C
:1008200010B32BC010B3477F28602AC04F7E00B39F
:1008300020612CC04F7D10B320622FC04F7B00B3CE
:10084000206432C0422700B349934FEF00001027C5
:1008500013FB20F910B31C70C9F1297F91F2012715
:1008600003FB21F900B3237F89F2315058F110279F
:1008700013FB22F910B3277E79F2012703FB23F93A
:100880002F7C81F200B3102713FB24F92F7971F22A
:1008900000C010B3012703FB25F92F7359F200C0E4
:1008A00000B3102713FB26F9223040F200C010B32A
:1008B000012703FB27F9243028F64F77206810B36F
:1008C0000000F9CF10E81ABF002719C03B5031953E
:1008D000C31BD04010E81ABF0881033CF9F00B3469
:1008E000E9F02091A8031981110F1213EDCF4A816D
:1008F000441F093641F10D3211F0013E29F70093F2
:10090000B0033F914F911F910F912F91DF91CAB783
:10091000C7FD4ACFCF91CFBFCF9118952091B0039B
:10092000222379F31091AE031123C1F53430C2F1C3
:100930003093AE032093A9031091AA033BE0311B2F
:100940003093AA032DC00091AE0301303CF50AE5B7
:100950004F7049F43091660034FD24C00093660066
:10096000C1E9D3E023C0433049F030919C0334FD0A
:1009700019C000939C03CDE9D3E018C03091C8039F
:1009800034FD10C00093C803C9ECD3E00FC0279515
:10099000A8F45150A9F4220F0000F9CF4AE503C092
:1009A00042ED01C0432FC4E1D0E032E011B31C603E
:1009B000939A11BB02B320E41CE05F93012756E039
:1009C00002BB279520F4515021F4220FF9CF0127C3
:1009D00056E000003B5A02BBD0F2279528F4515054
:1009E00029F4220F0000F9CF012756E0279502BB1A
:1009F00020F4515021F4220FF9CF012756E029911C
:100A0000332302BB21F6037F1091AF03110FC651B0
:100A1000D04002BB11F01093A80310E81ABF086081
:100A200011B3137F402F437F5F9100C000C002BB12
:100A300011BB42BB66CF81B3836181BB82B38C7E25
:100A400082BB8E9A969808958091DC0090E0BC015C
:100A50006170707080FF02C0909801C0909AAC01E4
:100A60004270507081FF02C0919801C0919A88EE47
:100A700093E02CE231E0F9013197F1F70197D9F7D2
:100A8000672B11F0909A01C09098452B11F0919A24
:100A90000895919808958093DC0008958091DC007A
:100AA00008951092C60008958091DC0090E080FFC8
:100AB00002C0909A01C09098AC014270507081FFC2
:100AC00002C0919A01C091982091DD0082FF04C07C
:100AD000969A2223C9F404C096982130A9F409C03B
:100AE00081E08093DD00452B11F485E007C084E0B0
:100AF00005C01092DD00452B21F483E08093CB00EC
:100B0000089582E08093CB0008952223A9F180917B
:100B1000D0008330C1F484EF91E09093D8008093AB
:100B2000D7008091DA008C3038F58F5F8093DA003F
:100B30009FEF899FC00111246CE070E00E94AB26FA
:100B40006093D90008958430B9F484EF91E09093D4
:100B5000D8008093D7008091DA00882369F0815013
:100B60008093DA009FEF899FC00111246CE070E050
:100B70000E94AB266093D90008952091630030E075
:100B8000AC01429FC001439F900D529F900D1124D4
:100B90006FEF70E00E94AB26CB0108950895089591
:100BA0000E94770B08958091DB00813059F180918C
:100BB000D5009091D60068E070E00E94AB26CB0192
:100BC000909581959F4F81509F4F0E94BD0590E069
:100BD0000E94770B8091D5009091D600885F974056
:100BE00044F080E090E00E94770B949881E080933D
:100BF000DB008091D5009091D60001969093D600AD
:100C00008093D50008959091D000992319F480E045
:100C100090E010C0913049F41092D6001092D500A7
:100C20001092D4001092D3000895923031F4809144
:100C3000630090E00E94770B0895892F83508230E3
:100C4000A0F483E08093DA00943019F481E080937B
:100C5000DA008091DA009FEF899FC00111246CE0D7
:100C600070E00E94AB266093D90008950E9454055D
:100C70000E9403060895809163008E31A1F089518E
:100C8000809363008E3118F48EE18093630080912D
:100C9000D000823011F40E94030681E090E090932E
:100CA000CF008093CE000895809163008F3FA9F01C
:100CB00090E049968F3F910511F00CF08FEF8093F3
:100CC00063008091D000823011F40E94030681E01D
:100CD00090E09093CF008093CE00089590989198E3
:100CE000969880E090E00E94770B949881E0809342
:100CF000DB0008950E944F13882391F48091D00067
:100D000090E0019665E070E00E94AB268093D000F1
:100D100081E090E09093CF008093CE000E94030684
:100D200008951F938091C600882309F499C10E94F9
:100D30004F13882319F00E94D30592C10E94A11D70
:100D4000182F0E94781D882311F042E004C011235F
:100D500009F445C041E08091C7009091C800019618
:100D60009093C8008093C70020916000309161008B
:100D700028173907DCF58091C9009091CA000196C7
:100D80009093CA008093C900893C91057CF18091C1
:100D9000DC009091620080FF09C0913021F482B3A1
:100DA0004095482307C082B3482B09C0913021F4F5
:100DB00082B3482B42BB08C082B34095482342BB54
:100DC0001092C8001092C7008091620091E08927BC
:100DD000809362001092CA001092C90007C010925E
:100DE000CA001092C90081E0809362002091CB007C
:100DF000222311F18091CC009091CD000196909327
:100E0000CD008093CC0085369105D4F0253059F083
:100E1000233049F0243011F0223011F4919804C0AD
:100E20008091DC0081FD919A1092CD001092CC004F
:100E300021502093CB0004C01092CD001092CC0022
:100E40008091CE009091CF001816190624F50196D6
:100E50009093CF008093CE00885E9340E1F410928F
:100E6000CF001092CE006091D0008091D100681721
:100E700031F06093D1008BE090E00E944B296091AB
:100E800063008091D200861731F06093D20089E030
:100E900090E00E944B298091D000813009F059C028
:100EA0008091D3009091D400009761F48091D50097
:100EB0009091D60068E070E00E94AB26CB010E94C2
:100EC000BD0513C082309105A1F48091D5009091A9
:100ED000D60068E070E00E94AB26CB01909581952A
:100EE0009F4F81509F4F0E94BD0590E00E94770B5D
:100EF0000EC08130910511F0039749F48091D5001F
:100F00009091D60001969093D6008093D500809161
:100F1000D5009091D600885F97408CF01092D60053
:100F20001092D5008091D3009091D400019664E096
:100F300070E00E94AB269093D4008093D300809100
:100F4000D5009091D60001969093D6008093D5005D
:100F500087C08330D1F58091D7009091D800009759
:100F600031F001979093D8008093D70028C020914A
:100F7000D9002223F1F08091D5009091D6000196FE
:100F80009093D6008093D5000897CCF01092D600AD
:100F90001092D50021502093D9008FEF90E0821B52
:100FA00091096BEE7FEF0E94AB26645F6093DA00DD
:100FB00006C01092DA001092D6001092D5008091EF
:100FC000D90090E00E94BD053DC0843009F03EC0CC
:100FD0008091D7009091D800009731F001979093BD
:100FE000D8008093D70029C02091D9002F3FF1F07D
:100FF0008091D5009091D60001969093D600809371
:10100000D5000897D4F01092D6001092D5002F5F2B
:101010002093D9008FEF90E0821B91096BEE7FEF58
:101020000E94AB26645F6093DA0007C08CE0809377
:10103000DA001092D6001092D5008091D90090E08D
:101040000E94BD0590E00E94770B0AC01092D60066
:101050001092D50083E090E09093D4008093D30069
:101060001F91089589E090E00E94432980936300D6
:101070008093D2008BE090E00E9443298093D000BF
:101080008F3F11F41092D0008091D0008093D10056
:101090000E94030680916000909161000E946F257C
:1010A000909361008093600008958091C60088232A
:1010B00061F481E08093C6000E94EC0988E00E9400
:1010C0001A0B0E945F0B0E943208089580E090E0A6
:1010D000FC01E052FF4F1082FC01EF50FF4F1082E5
:1010E000019681319105A1F70895E0EEF0E01192AB
:1010F00080E0E13FF807D9F7089581E0809365002B
:10110000E0EEF0E08081882319F01092650005C0C0
:10111000319680E0E13FF807A9F7809165000895D6
:1011200081EF90E0089520E030E0F901E052FF4FB8
:10113000D901AF50BF4F8C9180832F5F3F4F21313A
:10114000310599F7089580EE90E00895AF92BF922F
:10115000CF92DF92EF92FF920F931F93CF93DF9383
:10116000DD2400E010E081E0A82EB12C802F0E9449
:10117000A609C501002E02C0880F991F0A94E2F744
:10118000E82EC82EC094C1EFD0E0FF248F2D0E941E
:10119000B409282F98818E2D892319F0222329F054
:1011A00008C0222331F09E2901C09C219883DD24B0
:1011B000D394F394219681E1F81641F70F5F1F4F06
:1011C0000830110599F6DD2019F01092640007C06F
:1011D00080916400843618F48F5F8093640090E0FF
:1011E00080916400853009F491E0892FDF91CF91DF
:1011F0001F910F91FF90EF90DF90CF90BF90AF9035
:1012000008950E94A6080895FF920F931F93FF244C
:1012100055C08091DE00602F4F2D0E94EA120E947F
:10122000A411182F8E3F51F0883F41F0863F31F0D6
:101230008B3FE1F58091DE008230C1F58F2D0E9459
:10124000A609802F0E94B409882381F11E3F71F402
:1012500080916500882309F448C00E94F81D882306
:1012600009F443C081E08093DF003FC0183F61F480
:10127000809165008823D9F10E94F81D8823B9F177
:1012800082E08093DF0033C0163F61F480916500F7
:10129000882379F10E94F81D882359F183E0809317
:1012A000DF0027C01B3F11F410E024C00F5F0131A5
:1012B00009F0AFCFF39488E0F81611F000E0A9CF61
:1012C0000E947D08882311F01092DF001091DF004A
:1012D000112381F40E94A11D882321F082E08093D4
:1012E000DE0005C01092DE0005C011E003C012E070
:1012F00001C013E0812F1F910F91FF9008950E946C
:101300009C0980E090E0FC01E052FF4F1082FC015C
:10131000EF50FF4F1082019681319105A1F708959A
:10132000813011F090E006C090E0613009F091E06A
:1013300081E09827892F08958FEF87BB88BB1ABA61
:1013400014BA8BBB85BB8F98979A089521E030E043
:1013500002C0220F331F8A95E2F727BB209528BBD6
:1013600084E18A95F1F70895282F883058F449B31D
:1013700081E090E002C0880F991F2A95E2F740951E
:10138000482316C0682F70E0803120F443B38FE00B
:1013900090E003C040B387E190E0861B970B21E00B
:1013A00030E002C0220F331F8A95E2F740954223B6
:1013B000842F0895089583B7887F826083BF12BE0B
:1013C00089B7816089BF10928303109284031092C1
:1013D00085031092860308958EB5887F83608EBD45
:1013E0001DBC1CBC89B7846089BF089585B5887F02
:1013F000846085BD14BC89B7806489BF10928B035B
:1014000010928C0310928D0310928E03089580E049
:1014100090E0FC01EE0FFF1FEE5FFE4F1182108285
:10142000019688309105A9F70E94DB090E94EC091A
:101430000E94F6097894089593B7987F982B93BFEC
:1014400008959EB5987F982B9EBD089595B5987F79
:10145000982B95BD089583B7E82FF0E0E770F07002
:10146000EE0FFF1FEE5EFE4F25913491C9010895E6
:101470008EB5E82FF0E0E770F070EE0FFF1FEE5E24
:10148000FE4F25913491C901089585B5E82FF0E00C
:10149000E770F070EE0FFF1FE25EFE4F2591349172
:1014A000C9010895883040F4E82FF0E0EE0FFF1FE7
:1014B000EE5FFE4F718360830895883040F4E82F1B
:1014C000F0E0EE0FFF1FEE5FFE4F118210820895D5
:1014D000EF92FF920F931F93CF93DF93EC0112B71C
:1014E00010928703109288031092890310928A0346
:1014F00083B7E82FF0E0E770F070EE0FFF1FEE5EAD
:10150000FE4F2591349140E050E060E07BE187EBB5
:1015100090E00E94BE26B901CA01693B2DE872071E
:1015200026E0820720E09207A0F437E2C131D3071A
:1015300080F49E0140E050E00E94802628EE33E0D7
:1015400040E050E00E94BE26C901DA01BC01CD0195
:1015500021C028EE33E040E050E00E94BE26CA01E0
:10156000B9019E0140E050E00E94802613C08091A6
:10157000870390918803A0918903B0918A0385B76E
:101580008F7885BF85B7806885BF889585B78F7749
:1015900085BF08C09B01AC01210F311D411D511DAC
:1015A00079018A0120918703309188034091890352
:1015B00050918A0382B790E0A0E0B0E0542F432F0F
:1015C000322F2227822B932BA42BB52B8E159F0510
:1015D000A007B10760F2DF91CF911F910F91FF90AB
:1015E000EF90089510928303109284031092850364
:1015F00010928603089520918303309184034091D3
:10160000850350918603B901CA01089510928B0396
:1016100010928C0310928D0310928E0308952091E6
:101620008B0330918C0340918D0350918E03B9014F
:10163000CA010895893031F48FB582608FBD8FB5AE
:101640008E7F0AC08A3019F48FB5826002C08FB5D0
:101650008D7F8FBD8FB581608FBD1BBC1ABC19BC3F
:1016600018BC08952FB52E7F2FBD2FB522602FBD3A
:101670002EB528602EBD2EB520612EBD97BD86BD2E
:101680001BBC1ABC19BC18BC08958FB58D7F8FBDCB
:101690008FB58E7F8FBD8FB58F778FBD8FB58F7BC9
:1016A0008FBD8FB58F7D8FBD8FB58F7E8FBD089518
:1016B0008FB580688FBD8FB58F7B8FBD08958FB537
:1016C00080628FBD8FB58F7E8FBD08958FB58F7768
:1016D0008FBD8FB58F7B8FBD08958FB58F7D8FBDEB
:1016E0008FB58F7E8FBD08959BBD8ABD089599BD2E
:1016F00088BD08951F920F920FB60F9211242F9359
:101700003F934F935F936F937F938F939F93AF9389
:10171000BF93EF93FF938091830390918403A091F3
:101720008503B09186030196A11DB11D80938303AB
:1017300090938403A0938503B093860380918703DD
:1017400090918803A0918903B0918A030196A11D0D
:10175000B11D8093870390938803A0938903B0936E
:101760008A038091020190910301892B29F0E09175
:101770000201F09103010995FF91EF91BF91AF91A3
:101780009F918F917F916F915F914F913F912F9199
:101790000F900FBE0F901F9018951F920F920FB6CB
:1017A0000F9211242F933F934F935F936F937F93E7
:1017B0008F939F93AF93BF93EF93FF938091040117
:1017C00090910501892B29F0E0910401F091050128
:1017D0000995FF91EF91BF91AF919F918F917F916B
:1017E0006F915F914F913F912F910F900FBE0F908E
:1017F0001F9018951F920F920FB60F9211242F93DE
:101800003F934F935F936F937F938F939F93AF9388
:10181000BF93EF93FF9380918B0390918C03A091E2
:101820008D03B0918E030196A11DB11D80938B0392
:1018300090938C03A0938D03B0938E0380910C0141
:1018400090910D01892B29F0E0910C01F0910D018F
:101850000995FF91EF91BF91AF919F918F917F91EA
:101860006F915F914F913F912F910F900FBE0F900D
:101870001F9018951F920F920FB60F9211242F935D
:101880003F934F935F936F937F938F939F93AF9308
:10189000BF93EF93FF938091100190911101892BD9
:1018A00029F0E0911001F09111010995FF91EF915C
:1018B000BF91AF919F918F917F916F915F914F9168
:1018C0003F912F910F900FBE0F901F9018951F9270
:1018D0000F920FB60F9211242F933F934F935F9364
:1018E0006F937F938F939F93AF93BF93EF93FF93E8
:1018F0008091060190910701892B29F0E091060162
:10190000F09107010995FF91EF91BF91AF919F91E0
:101910008F917F916F915F914F913F912F910F9098
:101920000FBE0F901F9018951F920F920FB60F9237
:1019300011242F933F934F935F936F937F938F93D4
:101940009F93AF93BF93EF93FF9380910801909182
:101950000901892B29F0E0910801F091090109950D
:10196000FF91EF91BF91AF919F918F917F916F9177
:101970005F914F913F912F910F900FBE0F901F904D
:1019800018951F920F920FB60F9211242F933F9329
:101990004F935F936F937F938F939F93AF93BF9377
:1019A000EF93FF9380910A0190910B01892B29F00D
:1019B000E0910A01F0910B010995FF91EF91BF9120
:1019C000AF919F918F917F916F915F914F913F91D7
:1019D0002F910F900FBE0F901F9018951F920F928E
:1019E0000FB60F9211242F933F934F935F936F93F2
:1019F0007F938F939F93AF93BF93EF93FF938091C8
:101A00000E0190910F01892B29F0E0910E01F091C8
:101A10000F010995FF91EF91BF91AF919F918F9128
:101A20007F916F915F914F913F912F910F900FBEDA
:101A30000F901F90189580931301F8948091900354
:101A40008F7E8093900380919003886080939003B1
:101A500078940895F894809190038B7F80939003FD
:101A600078948091120108958FEC82BF80918F034A
:101A7000833000F58B98939A8091900380FF23C068
:101A8000829BA3C080918F03813031F0813040F080
:101A9000823009F0F6C006C0839902C08DE096C07E
:101AA00082E094C08091900383FFEBC093988B9A5F
:101AB00084E28CC080918F038A3108F079C08091D4
:101AC000900380FD08C08091900381608093900313
:101AD0008A98929A0895829B76C080918F0387316D
:101AE00040F4803118F58D3061F08F3009F055C029
:101AF0000CC08831E1F1883158F1893109F04DC0CD
:101B000049C0809190038D7F4DC0809190038B7F61
:101B100080939003839B05C080E88093120181E04D
:101B200014C0109215011092120137C08091120159
:101B3000869580931201839B30C08091120180684A
:101B400080931201809115018F5F8093150125C04C
:101B5000839B05C0809115018F5F80931501809153
:101B6000150180FD1AC080919003826010C0839996
:101B700005C08091900382608093900380919003D0
:101B800081FD0BC093988B9A809190038460809321
:101B9000900303C08B98939A6CC092988A9A809114
:101BA00090038E7F8093900380918F038F5F0EC090
:101BB00080918F038F3208F064C08091900380FF82
:101BC00010C0829906C08B98939A81E080938F030E
:101BD0000895809190038E7F8093900392988A9AC3
:101BE0000895809190038160809390038A98929ADF
:101BF00080918F038C3228F4853280F48432E1F5B1
:101C000007C08D3299F18D32E8F08E32A9F531C0DE
:101C10008091130180931401109215018091140199
:101C200080FF08C08B98939A809115018F5F8093F5
:101C3000150102C093988B9A809114018695809328
:101C400014011AC08091150180FF03C093988B9AEC
:101C500002C08B98939A80919003877F8093900322
:101C60008091900380618093900306C08B98939A33
:101C700003C010928F03089580918F038F5F80932C
:101C80008F03089510928F0381E1809390038A98C7
:101C9000929A8B98939A0E94DB0982E00E941C0A18
:101CA00080E064E37DE00E94520A8FEC82BF0895D9
:101CB00085B7886085BF8BB780688BBF8BE48093C6
:101CC0009D038093C9038AE580939C038093C80396
:101CD00008951F93CF93DF930E94CE056091AE03CA
:101CE000635067FDC1C08091AA03CCE0D0E0C81B5F
:101CF000D109CE54DC4F8091A9038D3209F0A1C0E7
:101D0000683009F0AFC083EC809391038AE580933B
:101D10006600109216018881807629F0CE010E941B
:101D2000B922182F7BC09A8110929A038981882347
:101D300021F410929B0312E06AC0853019F490934D
:101D4000AF0364C0863009F04BC08B81813069F4E9
:101D500089B78B7F89BF0E94CE058EE591E0909375
:101D6000AD038093AC0312E137C0823019F18330A8
:101D7000F9F48A81882341F48EE291E09093AD03D7
:101D80008093AC0314E028C0813041F482E391E0F9
:101D90009093AD038093AC031CE11EC08230D9F454
:101DA0008EE491E09093AD038093AC0310E114C0F6
:101DB000813229F4CE010E947122182F0DC0823287
:101DC00051F4CE010E947122182F89B7846089BF17
:101DD0000E94CF0501C010E080E4809316011EC070
:101DE000883021F411E081EB93E013C0893019F4BD
:101DF0009093B1030BC08A3011F411E008C08B300E
:101E000029F48BE480939D038093C90310E08AE951
:101E100093E09093AD038093AC0309C01F3F39F466
:101E2000888187FD1E8180E88093160106C08F811E
:101E3000882319F48E81811708F0812F8093670021
:101E400011C08091160187FF0DC0CE010E94AB2208
:101E50008F3F21F48EE18093660004C0882311F047
:101E6000109267001092AE038091660084FF46C016
:101E7000809167008F3F09F441C0182F893008F026
:101E800018E0811B809367008091910398E889276F
:101E900080939103112321F12091AC033091AD0384
:101EA0008091160186FF0AC0912FF901A2E9B3E0E3
:101EB00084918D9331969150D9F708C0912FD90113
:101EC000E2E9F3E08D9181939150E1F7C901019628
:101ED0001150810F911D1F5F9093AD038093AC0350
:101EE00082E993E0612F0E94CD03612F6C5F6C301B
:101EF00019F08FEF809367006093660094E180B3E0
:101F00008C7031F49150D9F71092AF031092A8035E
:101F10000E94CF05DF91CF911F910895EF92FF921C
:101F20001F93CF93DF937C01162FEA010E94CE0509
:101F3000888184FF05C0898198E88927898302C048
:101F40008AE58883AE014E5F5F4F212FFA01D701EA
:101F50008D917D01819321501216CCF3CA01612F1E
:101F60000E94CD031C5F18830E94CF05DF91CF91A3
:101F70001F91FF90EF90089548EC53E00E948E0F60
:101F800008954CE953E00E948E0F089598EA899FC6
:101F9000C0011124E0916800F0916900E80FF91F79
:101FA000E49180E0E150EE3F08F481E00895089567
:101FB00080E008950F931F93CF93DF9398EA899F52
:101FC000E00111248E0108551F4FE0916800F09147
:101FD0006900EC0FFD1F9491892F81508E3F18F4FA
:101FE000892F0E94451C2196C017D10771F7DF91F8
:101FF000CF911F910F91089590931801809317012D
:1020000008950F931F93182F062F662321F00E9427
:10201000B2110E948512E0911701F0911801019010
:10202000F081E02D812F602F09951F910F91089568
:10203000DF92EF92FF920F931F93182F062FF42E2B
:10204000E22E642F422F202F0E94A41DD82E0023A1
:1020500039F0112329F081E090E161E00E945F12E4
:102060000E949813882339F0812F6F2D4E2D202F39
:102070000E94261715C0002329F0812F0E94B71552
:10208000882371F4DD2061F0E0911701F0911801CF
:102090000480F581E02D812F602F099581E001C03A
:1020A00080E01F910F91FF90EF90DF9008953F9295
:1020B0004F925F926F927F928F929F92AF92BF9258
:1020C000CF92DF92EF92FF920F931F93CF93DF9304
:1020D0000E940409382E0E9490083C010E94A30827
:1020E0004C01BB24EE24FF2481E0482E512C48C033
:1020F000F401EC0FFD1F10811A21F301EC0FFD1FFD
:1021000000810A21832D6C2F4C2D0E94EA12D82EBB
:102110001017C1F00E94781D882339F0002349F17F
:102120008C2F6C2D0E947B1D24C0002319F08D2D57
:1021300061E002C08D2D60E04C2D2C2F0E94181004
:10214000882391F0002381F08D2D0E94B2110E940E
:102150008512E0911701F09118010280F381E02DC2
:102160008D2D61E00995B82A2196C131D10509F07C
:10217000BFCF0894E11CF11C88E0E816F10461F07F
:10218000CE2CC2010E2C02C0880F991F0A94E2F7D0
:10219000A82EC0E0D0E0ACCF0E9493088B2D8160C8
:1021A000DF91CF911F910F91FF90EF90DF90CF9033
:1021B000BF90AF909F908F907F906F905F904F9067
:1021C0003F900895809119010895982F80911901E9
:1021D0008823B9F080911A01882399F09A3661F02A
:1021E0009B3618F4993669F405C09D3639F09E3651
:1021F00041F406C09AE605C099E603C09EE601C018
:102200009DE6892F089580931A01089587E090E054
:102210000E94432981FF04C081E080931901089541
:1022200010921901089587E090E00E944329682FD9
:1022300080911901882329F481E08093190162605B
:1022400003C0109219016D7F87E090E00E944B2936
:102250000895982F80911C0180FF0FC0993611F4CA
:102260009AE60BC09A3611F499E607C09D3611F430
:102270009EE603C09E3609F49DE6892F08950E94CC
:10228000B012982F80911B019817A1F09C3031F06B
:10229000903C21F0983411F0943841F410922101CF
:1022A0001092200182E080931D0102C010921D0156
:1022B00090931B0140911D01442391F180912001D5
:1022C000909121010196909321018093200120910A
:1022D0001E0130911F012817390714F54230C1F44F
:1022E0000E94240580911C0180FF04C08E7F809392
:1022F0001C010EC0816080931C0188EE93E02CE2EB
:1023000031E0F9013197F1F70197D9F70E942405DF
:1023100088E090E060911C010E944B2910921D0101
:10232000089588E090E00E94432980931C018F3F2C
:1023300011F410921C0188E893E10E946F2590939C
:102340001F0180931E010895E82F865D853140F4BA
:10235000F0E0E656FF4FE4918E2F0E942911E82FFE
:102360008E2F0895982F80912201882321F0892FA4
:102370000E94A411982F892F0895982F80912201EF
:102380008823C9F0292F30E0265D3040F901EC5652
:10239000FE4FE491EE2321F0892F0E94A4110AC080
:1023A000892F865D853138F42E573E4FF90184918F
:1023B0000E942911982F892F08951F93982F865DC9
:1023C000662391F18531A8F4809123018F5F80937A
:1023D000230180912401882319F580912501882308
:1023E000F9F49093260181E0809324011092220158
:1023F00064C080912601882349F081E08093220106
:10240000809125018F5F8093250157C08091240121
:10241000882309F052C0809125018F5F80932501A8
:1024200081E08093220149C0853190F5809123019C
:10243000882319F0815080932301E0912601EE2337
:1024400001F1809122018823E1F4F0E0E455FF4F8F
:102450001491812F0E94451C812F0E94451C1092CF
:1024600026010E94AA13882361F0812F60E040E0DA
:1024700021E00E942617812F60E040E020E00E94CA
:10248000261780912301882351F41092240107C05C
:1024900080912501882319F08150809325010E94A5
:1024A0007D08882351F0109223011092260110928A
:1024B000250110922201109224011F9108951F936B
:1024C000CF93DF93EC01162F909126019923C9F049
:1024D000809122018823A9F0892F0E94A411612FE5
:1024E000FE0109950E94AA13882349F080912601D4
:1024F0000E94A41160E040E021E00E9426171092A3
:102500002601DF91CF911F910895982F875688302B
:1025100068F4E92FF0E0EE0FFF1FE256F0408081F3
:1025200090912701892B80932701089580912E0196
:10253000873040F4E82FF0E0E95DFE4F90838F5F35
:1025400080932E01089587E291E00895873010F07E
:1025500080E00895E82FF0E0E95DFE4F8081089566
:1025600080912701089581E080932E0187E0E7E2C2
:10257000F1E0DF011D928A95E9F7089591E1899FC5
:10258000C0011124860F911D23E0880F991F2A9501
:10259000E1F7840F911DE0916A00F0916B00E80F64
:1025A000F91FE4918E2F089591E1899FC0011124B4
:1025B000860F911D33E0880F991F3A95E1F7840F3C
:1025C000911DE0916A00F0916B00E80FF91FE49112
:1025D0008E2F0895EF92FF920F931F93082FF62EE0
:1025E000E42E0E949813882309F10E94AA138823DD
:1025F000C1F1033010F010E013C088E8089FC0015B
:1026000011240D962F2D30E063E0220F331F6A95C1
:10261000E1F7820F931F8E0D911D0E944329182F01
:10262000812F0E94A3138823B9F417C00330A0F4AC
:1026300088E8089FC00111240D962F2D30E053E04B
:10264000220F331F5A95E1F7820F931F8E0D911DB4
:102650000E944329182F01C010E0812F81508E3F26
:10266000A0F081E1089FC00111248F0D911D43E06E
:10267000880F991F4A95E1F78E0D911DE0916A0030
:10268000F0916B00E80FF91F1491812F0E9429111E
:102690000E94E5101F910F91FF90EF900895809197
:1026A0002F01089580912F01882329F481E08093E0
:1026B0002F010E946E06089580912F01882311F545
:1026C0008091300190913101A0913201B09133019C
:1026D0000196A11DB11D8093300190933101A0930B
:1026E0003201B0933301805E9349A440B04054F06E
:1026F0001092300110923101109232011092330188
:102700000E945213089580912F01882321F0109286
:102710002F010E9436061092300110923101109262
:10272000320110923301089580913A018170089529
:1027300080913A018270089580913F01089581E06F
:1027400080933F01089590E0895C8C3008F491E01B
:10275000892F089590E0809141018B3009F491E038
:10276000892F089588E20E94451C88E20E94451C3A
:10277000089580E3E5E7F4E0DF01982F1D929A9534
:10278000E9F71092A504E5EDF3E0DF011D928A95CB
:10279000E9F71092390108950F931F93FC0180818E
:1027A0000E94B01C8C01882319F088E60E94451C09
:1027B000812F0E94451C812F0E94451C002319F087
:1027C00088E60E94451C1F910F910895CF92DF92D9
:1027D000EF92FF920F931F93DF93CF930F92CDB79A
:1027E000DEB78C01009711F52FC000D000D000D0CB
:1027F000EDB7FEB73196ADB7BEB71296FC92EE922A
:102800001197D382C282992787FD909595838483FF
:102810000E9442278DB79EB706960FB6F8949EBFCA
:102820000FBE8DBFC7010E94CC1308C07E01089463
:10283000E11CF11C8CE7C82E80E0D82EF8010F5F58
:102840001F4F8491882389F60F90CF91DF911F91BC
:102850000F91FF90EF90DF90CF90089580EF94E07C
:102860000E94E6130E94B21325EF33E080E090E06F
:102870000BC01192E217F307E1F701969F01285F61
:102880003F4F8131910549F0FC0143E0EE0FFF1FFE
:102890004A95E1F7E351FC4FECCF81E090E0909353
:1028A0004B0180934A01089588E096E00E94E61368
:1028B0000E94B21381E0809338018CE08093430141
:1028C00010924101089580914A0190914B01892B0A
:1028D00029F410923A0110924301089581E495E0A1
:1028E0000E94E6130E94B21381E0809338018BE0CE
:1028F00080934301809141018093420110924101F4
:10290000089589E394E00E94E6130E94B2130895AB
:102910000E94B2138DE693E00E94E6130E94B21368
:1029200083E793E00E94E6130E94B21388E893E0E5
:102930000E94E6130E94B21386E993E00E94E61318
:102940000E94B21382EB93E00E94E6130E94B2133E
:102950008DE993E00E94E6130E94B21387E0809312
:1029600041010895AF92BF92CF92DF92FF920F93F1
:102970001F93DF93CF930F92CDB7DEB78C01FF2467
:102980006E010894C11CD11C5CE7A52E50E0B52E49
:1029900025C000D000D000D0EDB7FEB73196ADB75E
:1029A000BEB71296DC92CE921197B382A282800FAC
:1029B000911FDC018C91992787FD909595838483E5
:1029C0000E9442278DB79EB706960FB6F8949EBF19
:1029D0000FBE8DBFC6010E94CC13F3948F2D90E0E3
:1029E000F80101900020E9F73197E01BF10B8E17F9
:1029F0009F0778F20F90CF91DF911F910F91FF9079
:102A0000DF90CF90BF90AF9008950F931F9383E115
:102A100096E00E94E61301E116E0C8010E94E61369
:102A20008091D4038F5F0E94251D0E94B214C801BB
:102A30000E94E61388E096E00E94E6130E94B2131B
:102A400081E0809338018DE0809343011092410131
:102A50001F910F9108951F93CF93DF938091D4031B
:102A60008C30C8F4C0E0D0E010E38091D403819FA3
:102A7000C00111248B559E4FFE01EB58FB4F8C0F6C
:102A80009D1F60810E944B292196C033D10569F7B3
:102A90008FEF8093D403DF91CF911F9108950F930F
:102AA0001F93CF93DF93982F8C30C0F480E3989FCF
:102AB000C0011124EC01CB55DE4F8C010B521E4F8F
:102AC000CE010E944329982F81508E3F18F4892F00
:102AD0000E94451C2196C017D10791F7DF91CF9135
:102AE0001F910F910895CF92DF92EF92FF920F9373
:102AF0001F93CF93DF9390914C0188E8989F7001CA
:102B000011248DE090E0E80EF91ECC24DD2417C0DE
:102B1000CE018E0D9F1D0E944329F80181938F01E4
:102B20002196C830D105A1F70894C11CD11C88E0BA
:102B300090E0E80EF91E91E1C916D10459F0860122
:102B400063E0000F111F6A95E1F703511C4FC0E0CD
:102B5000D0E0DECF10924B0110924A01DF91CF916D
:102B60001F910F91FF90EF90DF90CF9008951F93EA
:102B7000982F882349F180913A0180FD25C0192FB3
:102B8000195C1C3008F50E94861C8823E9F080E35C
:102B9000189FC00111248B559E4F0E9443298150DC
:102BA0008E3F30F40E94331D812F0E944F150AC0C2
:102BB000812F0E94C60F882329F00E94331D812F88
:102BC0000E94DA0F81E001C080E01F91089581E248
:102BD00096E00E94E61381E196E00E94E6138BE204
:102BE00096E00E94E61381E196E00E94E6130E94BF
:102BF000E210882319F08DE296E002C080E396E0AF
:102C00000E94E6130E94B21308950E94E71589EA14
:102C100093E00E94E6130E94B21386E993E00E94BB
:102C2000E6130E94B21382EB93E00E94E6130E9427
:102C3000B21387E080934101089589E196E00E94F4
:102C4000E61381E196E00E94E6138BE296E00E9493
:102C5000E61381E196E00E94E6130E94F81D8823A6
:102C600019F08DE296E002C080E396E00E94E61340
:102C70000E94B21308950E941D1689EA93E00E94F3
:102C8000E6130E94B21386E993E00E94E6130E94C5
:102C9000B21382EB93E00E94E6130E94B21387E026
:102CA0008093410108950E94B21385EF92E00E9443
:102CB000E6130E94B21381E093E00E94E6130E94A3
:102CC000B2138FE093E00E94E6130E94B21387E1F3
:102CD00093E00E94E61381E196E00E94E6138BE206
:102CE00096E00E94E61381E196E00E94E6130E94BE
:102CF000F81D882319F08DE296E002C080E396E08B
:102D00000E94E6130E94B21388E293E00E94E61349
:102D100081E196E00E94E6138BE296E00E94E613C2
:102D200081E196E00E94E6130E94E210882319F0E8
:102D30008DE296E002C080E396E00E94E6130E94D6
:102D4000B21381E0809338018EE0809343011092AA
:102D50004101089581E080933801809141018930DB
:102D600090F4873008F040C0833091F1843030F423
:102D70008130F9F0823009F05FC027C0853071F1F1
:102D8000863078F528C08D30B9F18E3048F48A301D
:102D900009F447C08A3068F18B3009F04DC02FC06C
:102DA0008E3609F447C0883789F1843609F044C06B
:102DB00038C081E494E00E94E61380914C018F5F5B
:102DC0000E94251D0E94B2141EC083E794E019C022
:102DD00082E994E00BC084EB94E025C08CEC94E095
:102DE00022C01092380128C08FE095E00E94E613BF
:102DF00023C087E595E0FACF80E995E0F7CF84EB33
:102E000095E00E94E6130E94B21316C08AE593E093
:102E10000E94E6130E94B213109241010E94741D99
:102E20000BC080E593E00E94E6130E94B21310925B
:102E3000410102C00E94531688EE93E02CE231E07B
:102E4000F9013197F1F70197D9F70895AF92BF9241
:102E5000CF92DF92EF92FF920F931F93DF93CF9366
:102E600000D00F92CDB7DEB7982FB62EA42EC22E6B
:102E700080913801882309F0E7C2892F0E94B2119E
:102E8000D82E809141018B3009F0D4C284EA90E0C1
:102E90006BE04D2D0E94E11B7C01909141019B3024
:102EA00009F0CCC288EC8D1508F4CEC280913701B0
:102EB000882399F010923601109237018D2D0E94CF
:102EC000451CE091A504F0E0EC58FB4F10820E94F5
:102ED0002B1587E0809341019DC2CC2071F0809139
:102EE0003901883108F0B0C28F5F8093390185EDD8
:102EF00093E06D2D0E94391C17C005ED13E0F80119
:102F000001900020E9F73197E01BF10BC8016E2F0B
:102F10004D2D0E94E11BBC019FEF6F3F790709F423
:102F200093C2C8010E94071C8091A504E82FF0E01D
:102F3000EB58FB4FD0828F5F8093A5048D2D0E94AC
:102F4000451C8091A504803330F087E080934101D7
:102F50000E942B155FC2CC2081F0A4EAB0E0EA0EFB
:102F6000FB1EF7018081893241F481E080933601B4
:102F7000109235011092340167C2109236011092FE
:102F8000370162C2FAE0EF16F10408F05DC2E09189
:102F90004901F0E0EA5BFE4FE0828E2D0E94251D84
:102FA0000E94B2140E94B213009146018091410127
:102FB000883009F040C0023029F4009340010E949B
:102FC0008814E0C10130E1F4009340010E94B21383
:102FD00089EB93E00E94E6130E94B21384EC93E025
:102FE0000E94E6130E94B21383ED93E00E94E61361
:102FF000009338018AE08093430110924101C2C1DD
:10300000053019F4009340016BC0093021F400939E
:10301000400188E766C0033029F4009340010E9414
:103020003B16B0C1043009F0ADC184E0809340018B
:103030000E940516A7C1063019F48EE6809341015F
:10304000809140018130C9F4013011F0023019F44F
:103050000093410197C1033031F484E08093410132
:103060000E9463148FC1043011F485E03AC0093026
:1030700009F088C10E942E1428C18230A9F40130C1
:1030800011F489E07DC1023011F48DE079C1033083
:1030900011F48AE026C0093009F074C18CE08093F5
:1030A00041010E9454146EC1833051F40130A9F4DF
:1030B00087E0809341010E94081E0E941D1662C194
:1030C000843009F05FC1013041F487E08093410111
:1030D0000E9413110E94E71555C1033009F052C137
:1030E00084E68093410110923A01109243014AC153
:1030F000923089F18AE0E816F10408F0A5C18091C8
:103100004901E82FF0E0EA5BFE4FE0828F5F809399
:10311000490100D000D000D0EDB7FEB731968E0146
:103120000F5F1F4FADB7BEB712961C930E9311974A
:103130008FE790E093838283F582E4820E944227A6
:10314000EDB7FEB736960FB6F894FEBF0FBEEDBFD3
:10315000C8010E94B214FAE0EF16F10428F0809141
:103160004101823009F070C180914101833009F43E
:103170000CC1843038F4813009F475C0823009F014
:1031800056C1A5C0893021F08D3009F050C12DC045
:10319000809149018230F9F4909146018AE0989F2C
:1031A0009001112480914701280F311DC901019719
:1031B0000C9750F4822F81508093D4038BE080933E
:1031C00041010E94B9131DC1232B09F014C187E0EE
:1031D0008093410116C188EE93E02CE231E0F901C1
:1031E0003197F1F70197D9F72FC1809149018230CA
:1031F00081F5909146018AE0989F90011124809179
:103200004701280F311DC90101970C9760F4822FE7
:1032100081508093D40387E0809341010E94B213D0
:103220000E9405150EC0232B21F487E080934101F5
:1032300006C00E94B2138BEE95E00E94E6130E9436
:10324000B21383E0E6E4F1E0DF011D928A95E9F72D
:1032500099C088EE93E02CE231E0F9013197F1F763
:103260000197D9F7F1C09091460180914C018330CC
:1032700050F5192F1150811731F1133020F580913D
:103280004A0190914B01181619066CF40E94B21372
:103290008BE195E00E94E6130E94B2130E94631432
:1032A00010934D016FC00E94B2138EE295E00E9410
:1032B000E6130E94B21387E08093410110934C0102
:1032C0000E9473155FC00E94B21387E059C0B0928C
:1032D0004401A09245018BE495E00E94E6138091A1
:1032E00044018F5F0E94251D0E94B21482E890E085
:1032F0000E94B214809145018F5F0E94251D0E949B
:10330000B21485E890E00E94B21480914C018F5F66
:103310000E94251D0E94B2148EE890E00E94B21413
:1033200080914C0160914501409144010E94D4126A
:103330000E94251D0E94B21488E990E00E94B214F8
:1033400080914401E0914501F0E0A3E0EE0FFF1F02
:10335000AA95E1F7E80FF11DE351FC4F808190E061
:103360008F3F910511F480E090E00E94251D0E949E
:10337000B21482EA90E00E94B2140E94B21383E079
:10338000809341011092490152C0809149018330DC
:1033900009F043C09091460184E6989FA001112452
:1033A000809147012AE0829FC0011124480F591FD4
:1033B00080914801480F511D4F3F5105E4F4809121
:1033C0004401E0914501F0E073E0EE0FFF1F7A95B4
:1033D000E1F7E80FF11DE351FC4F408387E0809354
:1033E000410180914A0190914B01019690934B01CC
:1033F00080934A0106C00E94B2138BEE95E00E94B2
:10340000E61383E0E6E4F1E0DF011D928A95E9F737
:10341000109249010E94B2130AC088EE93E02CE298
:1034200031E0F9013197F1F70197D9F70DC00E940A
:10343000AA160AC0CC2009F429CD06C0892F8750CE
:10344000823008F055CE9ECD0F900F900F90CF9107
:10345000DF911F910F91FF90EF90DF90CF90BF9081
:10346000AF9008951F93CF93DF93C0E0D0E010E3B7
:103470008091D403819FC00111248B559E4F8C0FE6
:103480009D1F60E00E944B292196C033D10581F732
:1034900087E0809341010E94AA16DF91CF911F918E
:1034A0000895CF93DF93C5EAD1E0CE0160E00E949A
:1034B0004B29219683E0C53ED807B9F787E0809372
:1034C00041010E94AA16DF91CF910895BF92CF9239
:1034D000DF92EF92FF920F931F93CF93DF93EE242F
:1034E000FF24CC24DD2418E8B12E1EC080914C01AD
:1034F0008B9DC00111240D968C0D9D1D8C0F9D1F61
:10350000F80161918F010E944B292196C830D105A5
:1035100069F70894E11CF11C88E090E0C80ED91E00
:1035200091E1E916F10459F08701B3E0000F111F92
:10353000BA95E1F703511C4FC0E0D0E0D7CF10920D
:103540004B0110924A0180914201843039F48093FA
:10355000410110923A011092430113C0813089F465
:103560000E94B2138EE295E00E94E6130E94B2130D
:1035700087E08093410180914D0180934C010E942E
:1035800073150E94AA16DF91CF911F910F91FF90A2
:10359000EF90DF90CF90BF9008950E94B21380EF1C
:1035A00093E00E94E6130E94B21380E094E00E9430
:1035B000E6130E94B21382EB93E00E94E6130E948E
:1035C000B21386E194E00E94E6130E94B21387E0F2
:1035D000809341010E94AA1608958BE393E00E9414
:1035E000E6130E94B21382E493E00E94E6130E9465
:1035F000B21388E0809341010E94AA16089583E0E7
:10360000E6E4F1E0DF011D928A95E9F710924901A5
:1036100010924C01109240010E9473150E945316A3
:10362000089580913A01816080933A010E942405B7
:1036300088EE93E02CE231E0F9013197F1F7019740
:10364000D9F70E94240588EE93E02CE231E0F901DD
:103650003197F1F70197D9F70E94240508950E9448
:10366000B012982F80913A0180FD18C080913E01E0
:103670009817A1F0973261F480913B01882341F4BF
:1036800010923D0110923C0181E080933B0104C007
:1036900010923A0110923B0190933E0180913A01C1
:1036A00080FF0FC081FD0DC00E947D08882349F076
:1036B00080913A01826080933A010E9481140E94B5
:1036C000FF1A80913A018823C9F480913B0181302F
:1036D000A9F480913C0190913D01019690933D01A8
:1036E00080933C012091AF003091B000281739073A
:1036F0002CF40E94111B82E080933B0180913A01DF
:1037000081FF40C080913801882319F10E94951CE7
:103710008823F9F0809143018B3019F40E94661AD6
:1037200016C08E3019F40E94ED1A11C08A3019F4B7
:103730000E94CD1A0CC08D3019F40E94321A07C0B5
:103740008C3019F40E94511A02C010923801109264
:103750004301809136018823A9F080913401909132
:10376000350101969093350180933401895E934031
:103770004CF081E08093370189E26FEF4FEF20E05A
:103780000E94261708950E94111B08950E94781D1B
:10379000882319F010923F01089580913F018130F4
:1037A00021F40E94111B10923F0108958091AF00F7
:1037B0009091B0000E946F259093B0008093AF006D
:1037C0000895FC0190E007C08191841719F4292F16
:1037D00030E005C09F5F9617B8F32FEF3FEFC901A8
:1037E0000895FC01808140E02FEF3FEF0CC0519124
:1037F000252F30E090E02817390719F02FEF3FEF21
:1038000004C04F5F852F461790F3C90108959B01AF
:10381000FC0101900020E9F73197E81BF90B6F5F7D
:103820007F4F680F791FE21BF30B820F931FAF01CD
:103830000E940F270895FF920F931F93F42E9B0170
:10384000DC010D900020E9F78C01060F171FA81B63
:10385000B90BA61BB70B2F5F3F4F820F931FB80109
:10386000AD010E940F27F801F0821F910F91FF9088
:103870000895462FDC010D900020E9F71197A81B51
:10388000B90BBD010E941B1C0895282F8091840153
:1038900090918501019660E071E00E94AB26FC01E9
:1038A000909385018093840180918201909183019E
:1038B0008E179F0759F4009719F48FEF90E001C01D
:1038C000019790938501809384010895EA57FE4FF4
:1038D0002083089520918201309183018091840199
:1038E000909185012817390711F480E00895C901E6
:1038F000019660E071E00E94AB26FC019093830189
:1039000080938201EA57FE4F8081089540E0209124
:103910008201309183018091840190918501281763
:10392000390709F441E0842F0895809151018823DB
:1039300019F440E050E00FC040E050E020918201D7
:103940003091830180918401909185012817390776
:1039500011F441E050E0842F0895809351010895BF
:10396000982F81568A3118F4292F2D5510C0892F90
:1039700081548A3120F4292F2D5332E009C0892F38
:103980008153893010F020E002C0292F235130E00C
:10399000892F992787FD9095A92FB92FFC01B09702
:1039A000EF35F10508F048C0E65DFF4FEE0FFF1F51
:1039B0000590F491E02D09942EE141C02FE13FC024
:1039C00020E23DC021E23BC022E239C023E237C001
:1039D00024E235C025E233C026E231C027E22FC001
:1039E0002CE22EC02DE22CC02DE229C02EE228C0F0
:1039F0002EE225C02FE224C02FE221C020E320C008
:103A000020E31DC021E31CC021E319C023E318C03B
:103A100023E315C024E314C024E311C025E310C040
:103A200025E30DC026E30CC026E309C027E308C048
:103A300027E305C028E304C0222311F428E332E081
:103A4000832F922F089527E2FBCF0F931F930EE44D
:103A500011E090E0B8014AE050E00E942127C8013F
:103A60001F910F91089520918201309183018091DF
:103A70008401909185012817390739F480E3E2E544
:103A8000F1E0DF011D928A95E9F708951F93CF9326
:103A9000DF930E946A1C182FC2E5D1E0882331F41D
:103AA00080E3FE0111928A95E9F712C0FE010190B0
:103AB0000020E9F73197E255F140CE016E2F412FFA
:103AC0000E94E11BBC0197FD05C0CE010E94071CAE
:103AD00080E005C0CE01612F0E94391C81E0912F4A
:103AE000DF91CF911F91089581E080938602089520
:103AF0008091860208950F931F93082F162F81EB54
:103B000090E00E94B214812F0E94251D0E94B214E1
:103B100083EB90E00E94B214802F0E94251D0E942A
:103B2000B21485EB90E00E94B2141F910F9108959A
:103B30000E942F1B0E943F110E94D70F0E949106E6
:103B400008958091880208950F931F93182F022FD4
:103B5000882309F447C00E948505812F602F0E94A9
:103B6000DD11812F0E94BD11002389F18C3F49F0A6
:103B700090918702992391F08A3281F41092880201
:103B800006C08091880291E0892780938802809105
:103B90008802882339F50E94540524C0893221F413
:103BA00081E08093870221C0992311F0893311F0BD
:103BB0008D3F19F40E947A0615C08A3F19F40E94BD
:103BC000540610C0893F81F40E943B060BC08C3F15
:103BD00049F0893219F41092870206C0873F21F418
:103BE0000E94C31B80E001C081E01F910F910895E6
:103BF00080918902089587E090E00E94432980FF28
:103C000004C081E08093890208951092890208958A
:103C100087E090E00E944329682F809189028823E1
:103C200029F481E080938902616003C010928902C7
:103C30006E7F87E090E00E944B290895282F8F3FE8
:103C400031F410928B0281E08093940208958E3FAC
:103C500021F08D3F29F410928B0210929402089566
:103C600080919402882351F080918B02E82FF0E03C
:103C7000E25AFC4F20838F5F80938B0280919202E7
:103C800090919302019668EC70E00E94AB26FC01D3
:103C9000909393028093920280919002909191026E
:103CA0008E179F0759F4009719F487EC90E001C034
:103CB000019790939302809392020895EB56FD4FE3
:103CC0002083089520919002309191028091920278
:103CD000909193022817390711F480E00895C901E3
:103CE000019668EC70E00E94AB26FC019093910273
:103CF00080939002EB56FD4F8081089540E0209123
:103D00009002309191028091920290919302281733
:103D1000390709F441E0842F0895E7EAF4E01192AD
:103D200085E0E735F807D9F72CEA32E006C0FC0158
:103D3000E955FB4F808182608083F901849190E096
:103D40002F5F3F4F009799F72FEA32E006C0FC0142
:103D5000E955FB4F808184608083F901849190E074
:103D60002F5F3F4F009799F723EB32E006C0FC012D
:103D7000E955FB4F808188608083F901849190E050
:103D80002F5F3F4F009799F728EB32E006C0FC0108
:103D9000E955FB4F808181608083F901849190E037
:103DA0002F5F3F4F009799F726EE32E006C0FC01E7
:103DB000E955FB4F808180618083F901849190E017
:103DC0002F5F3F4F009799F7089580E00895089579
:103DD0000E94861C91E08927089581E080938003EA
:103DE0000E9455080E94C61B08954F925F926F92E1
:103DF0007F928F929F92AF92BF92CF92DF92EF927B
:103E0000FF920F931F93CF93DF930E9401098823A2
:103E100019F420E030E05CC00E94B3120E94040953
:103E2000B82E0E9490083C010E94A3084C0180918A
:103E30008F028B1509F446C0EE24FF2481E0482E42
:103E4000512C34C0F301EC0FFD1F0081F401EC0F85
:103E5000FD1F80818A21F9F080918F026C2F4C2DFB
:103E60000E94EA12D82E8B2D6C2F4C2D0E94EA1244
:103E7000182FD81681F0882371F08D2D60E04C2D1D
:103E80002C2F0E9418100A2131F0812F61E04C2D57
:103E90002C2F0E9418102196C131D10599F6089453
:103EA000E11CF11C88E0E816F10461F0CE2CC2019F
:103EB0000E2C02C0880F991F0A94E2F7A82EC0E0CA
:103EC000D0E0C0CFB0928F020E945710282F30E070
:103ED000C901DF91CF911F910F91FF90EF90DF907B
:103EE000CF90BF90AF909F908F907F906F905F909A
:103EF0004F9008950F931F93CF93DF93062F88233E
:103F000009F490C00E94B211982F893C08F08AC031
:103F1000282F30E0F901EA55FE4F1491002309F4EF
:103F200050C080935D031092680310926903109251
:103F30006A0310926B0310925805E901C955DB4FD3
:103F4000888181FF2EC0963421F0983409F06CC02E
:103F50000EC08FEF0E941E1E80EE0E941E1E82E188
:103F60000E941E1E80EE0E941E1E8CE726C08DEF52
:103F70000E941E1E81EE0E941E1E84E10E941E1ED3
:103F800087E70E941E1E81EE0E941E1E80EF0E9487
:103F90001E1E84E10E941E1E80EF0E941E1E87E7E7
:103FA0003BC082FD38C08FEF0E941E1E888180FFBB
:103FB00003C080EE0E941E1E812F0E941E1E8EEFE7
:103FC0002BC080915D03891711F410928B02E92FA9
:103FD000F0E0E955FB4F808181FF13C0963421F555
:103FE00080EE0E941E1E80EF0E941E1E8CE70E9423
:103FF0001E1E80EE0E941E1E80EF0E941E1E82E189
:104000000BC082FD11C080FF03C080EE0E941E1E07
:1040100080EF0E941E1E812F0E941E1E8CEF0E94A8
:104020001E1E02C080E001C081E0DF91CF911F9190
:104030000F9108951F930E94861C882339F081E018
:104040000E94AD1C0E94F51E9C0129C080E00E94C8
:10405000AD1C0E94461D192F813041F4892F61E06B
:104060000E947A1F8DEF0E941E1E17C0892F87564F
:10407000883078F40E94B012E12FF0E0EE0FFF1FBD
:10408000E256F04090E02081318182239323892BF6
:1040900021F4812F60E00E947A1F20E030E0C90106
:1040A0001F9108951F93162F8E3F11F0809357058F
:1040B0000E941B0D109358051F91089510929102B4
:1040C00010929002109293021092920210928B0220
:1040D00010928C02109268031092690310926A0386
:1040E00010926B030E94750808958F929F92AF9271
:1040F000BF92CF92DF92EF92FF920F931F9388E0CF
:10410000809358050E94420E0E948D1E0E945E20E0
:10411000789416E9912E88248394B5E0AB2EB12CC7
:10412000C12CD12C8091C5008823F9F480918003A3
:104130008823D9F480917E0390917F030196909318
:104140007F0380937E030197815D974074F081E047
:104150008093C5001F910F91FF90EF90DF90CF905B
:10416000BF90AF909F908F9008958091900382FFB1
:10417000C0C080918D0290918E028C3F910561F0BC
:10418000209190023091910280919202909193023D
:104190002817390709F0ADC00E942A0D182F609129
:1041A0005805623009F457C0633018F4613039F4AF
:1041B0004CC0663009F48DC0673009F455C0133F18
:1041C00071F1143F60F41E3EC9F01F3E18F41D3E0D
:1041D000A9F522C0103FE9F0123F81F511C0163F4A
:1041E00009F1173F30F4143F09F481C0153F31F550
:1041F0007EC01E3F59F01F3F09F505C08EEE6EC10F
:104200008AEF64E06BC18AEF68E068C1809157056E
:1042100065C18AEF62E062C18AEF66E05FC18AEF42
:1042200067E05CC18092B700A092B800B092B9007C
:10423000C092BA00D092BB000E945E208AEF60E07C
:104240000E9452200E94ED1E6DCF853F09F44FC0A1
:104250008AEF61E043C10E945E20112311F060E00B
:1042600001C063E08AEF3AC1682F70E0CB0180762D
:104270009070A5E095958795AA95E1F78093B70092
:10428000AB0148715070F3E055954795FA95E1F709
:1042900080E090E021E030E003C0220F331F019660
:1042A00084179507D4F367707070269FC001279F0D
:1042B000900D369F900D1124AA2797FDA095BA2F37
:1042C0008093B8009093B900A093BA00B093BB005C
:1042D0000EC00E94ED1E912F80E010FD84E091FD44
:1042E000816092FD82600E944B050E9454058AEF16
:1042F000F4C08091900384FF15CF809158058430DD
:1043000009F4E3C0853030F4882371F0833009F07C
:1043100009CFD9C0883009F4DDC08C3009F45DC004
:10432000853009F0FFCED4C02091900230919102E7
:1043300080919202909193022817390711F40E94FC
:104340001A200E94981D0E94621E282F30E0309390
:104350008E0220938D022C3F310509F4E3CE232BEE
:1043600021F060E00E9452205EC080918B02882381
:1043700009F4D8CE209168033091690340916A0313
:1043800050916B032F5F3F4F4F4F5F4F2093680358
:104390003093690340936A0350936B038091B70095
:1043A000899DC00111248A519F4FAA2797FDA0958E
:1043B000BA2F281739074A075B070CF4B3CE1092BF
:1043C00068031092690310926A0310926B031092B3
:1043D0008C028CE080935805A5CE80918C028823B6
:1043E00011F40E941A200E94981D80918B0288234C
:1043F000C1F02091900230919102809192029091AF
:1044000093022817390769F4809168039091690332
:10441000A0916A03B0916B030197A105B10561F406
:104420000FC0109258051092680310926903109201
:104430006A0310926B0376CE80918C028823A9F0D8
:1044400090918C02E92FF0E0E25AFC4F80819F5F4F
:1044500090938C026CE00E94522060918B028091BC
:104460008C020E949F2690938C02E0906803F0904B
:10447000690300916A0310916B030894E11CF11C1D
:10448000011D111D6091B8007091B9008091BA00B2
:104490009091BB002AE030E040E050E00E9480268E
:1044A0009B01AC012D5F3F4F4F4F5F4FC801B701DC
:1044B0000E94E026609368037093690380936A0307
:1044C00090936B032FCE82E008C08BEA65E006C0B4
:1044D00083E803C00E945E208AEA60E00E945220C6
:1044E00021CEFC018381813261F08232D9F08230A9
:1044F00081F587EF96E09093AD038093AC038BE357
:1045000008958281882319F0813019F503C089E06C
:1045100097E002C082E297E09093AD038093AC03F2
:1045200089E0089584819581009719F0019789F4B5
:1045300008C084E396E09093AD038093AC0380E4DD
:10454000089584E796E09093AD038093AC0383E8ED
:10455000089580E00895FC0180917503882329F077
:10456000613019F480810E9458251092750381E012
:1045700008950F931F93CF93DF93182F092F0E9455
:104580000723C12FD02F80916C038093AC0310922E
:10459000AD03888180768032A1F58981813011F464
:1045A00088E030C0893071F48A819B8180509240CC
:1045B00041F58C819D81892B21F581E080937503E4
:1045C0008FEF20C0823019F48091740314C08A30B8
:1045D00031F40E940B238B818093740312C08330CB
:1045E00031F48B81882369F41092BC000BC08B30AE
:1045F00041F48091BC008093AC031092AD0381E044
:1046000001C080E0DF91CF911F910F91089581E06B
:1046100080938003089581E08093790310927A0358
:104620000895982F81578A31B0F481E08093760302
:10463000662369F0E92FF0E0EE0FFF1FEC58FE4F04
:1046400085919491909378038093770308951092C5
:10465000780310927703089580E0089508950895EF
:1046600008958DEB90E00E946A258FEB90E00E9408
:10467000FC0F089580917D03882331F40E94861CED
:1046800020E030E0882311F421E030E0822F08950B
:1046900088E0EAE5F5E0DF011D928A95E9F70895E3
:1046A00088E0ECE6F3E0DF011D928A95E9F71092CD
:1046B00078031092770308950E940109882349F036
:1046C00082E0809359050E9450230E94B3120E94F9
:1046D000571008950E94B211982F893C60F58157B8
:1046E0008A3148F1865F883068F4E92FF0E0EE0FF8
:1046F000FF1FE256F040808190916C03892B8093DC
:104700006C0317C09923C9F0209159052830A8F4EB
:10471000892F8D58823228F4E92FF0E0E350FE4FC4
:104720009491E22FF0E0E459FC4F90832F5F2093A7
:10473000590581E0089580E0089581E008959F92F1
:10474000AF92BF92CF92DF92EF92FF920F931F939F
:10475000CF93DF930E9450230E949413882309F083
:104760003FC00E94781D8823D9F50E9490087C01E3
:104770000E940409982E00E010E031E0A32EB12C35
:1047800023C0F701EC0FFD1F80818D21A1F0892D41
:104790006C2F4C2D0E94EA12E82F8756883058F46F
:1047A000F0E0EE0FFF1FE256F040808190916C0325
:1047B000892B80936C032196C131D10511F70F5FCE
:1047C0001F4F0830110561F0C02EC501002E02C038
:1047D000880F991F0A94E2F7D82EC0E0D0E0D1CF1D
:1047E0000E94861C882309F041C00AE515E0E80113
:1047F00009900020E9F72197C01BD10B0E94461DAC
:10480000F92E813039F4C8016F2D0E94391C8F2D8B
:1048100061E00DC0C8016C2F4F2D0E94E11BBC014F
:1048200097FD07C0C8010E94071C8F2D60E00E9401
:10483000112382E080935905F80101900020E9F7E7
:104840003197E01B0AE515E0CE2FD0E0C00FD11F55
:1048500006C0D8018D918D0161E00E946A230C177A
:104860001D07B9F781E080937D030DC080917D0322
:10487000882349F088E0EAE5F5E0DF011D928A959A
:10488000E9F710927D0381E0DF91CF911F910F91A5
:10489000FF90EF90DF90CF90BF90AF909F900895E2
:1048A0008F929F92AF92BF92CF92DF92EF92FF9240
:1048B0000F931F93DF93CF9300D00F92CDB7DEB746
:1048C0000E94580E88E0EAE5F5E0DF011D928A9526
:1048D000E9F78B9A20E048EB5BE0CA010197F1F71A
:1048E0002150D9F78B987894DD2410E0CC24EE2465
:1048F000FF24992493945E010894A11CB11C42E00A
:10490000842E8091C500813031F580918003882309
:1049100011F580917E0390917F03019690937F0320
:1049200080937E030197815D9740ACF01092C500A3
:104930008BB78F778BBF0F900F900F90CF91DF9138
:104940001F910F91FF90EF90DF90CF90BF90AF90AD
:104950009F908F9008958091AB03882331F010923F
:10496000AB030E948313CC240FC0CC2079F421ED3B
:10497000E21627E0F20624F40894E11CF11C06C0BC
:104980000E945213CC24C394EE24FF240E94690E8B
:10499000CC2009F0B6CFDD2099F40E945C23D82EFC
:1049A00008B600FE0FC098BE00917403002351F0BA
:1049B000153018F4DD24D39406C0012F055003C030
:1049C0000E945C23012F0E94981D80919C0384FF0C
:1049D00039C00E943A23882341F00E949F238CE62D
:1049E00093E068E00E94C10F2DC0DD2039F08CE615
:1049F00093E068E00E94C10FDD2424C08091790318
:104A0000813099F4809279030E9450238CE693E0E0
:104A100068E00E94C10F80917403882399F00E947E
:104A2000C61B81E00E9403110DC080917A03823081
:104A300049F483E080937A0380917403882311F40E
:104A40000E94C61B80917903823091F480917B0390
:104A500090917C03019690937C0380937B03019754
:104A6000883C910529F40E94550883E080937903DE
:104A70008091C80384FF11C080917603882369F078
:104A8000809177039091780399829B838A83C501F3
:104A900063E00E94BC0F109276030E943A238823A1
:104AA00011F080E001C081E00E94AD1C102F29CFE1
:104AB0000E944B050E94540580917A03882319F4C3
:104AC00082E080937A0308958D98959A08958D9A3F
:104AD0009598089590938203809381030895E091BF
:104AE0008103F0918203309721F00190F081E02D55
:104AF000099508950E94D61B0E9491110E94FB1DEA
:104B00000E94061108951F9310E0812F0E945D0AF4
:104B10001F5F1730D1F789B78E7F89BF89B78B7F29
:104B200089BF89B78F7B89BF1F9108951F93182F65
:104B30000E947F090E941B0581B38C6081BB82B3F8
:104B4000837F82BB112371F08CE28A95F1F781B3E8
:104B5000837F81BB83B7856083BF0E9483258D9847
:104B6000959A02C08D9A95981F910895F8940E9485
:104B7000510510927F0310927E03109280030895D6
:104B80008F929F92AF92BF92CF92DF92EF92FF925D
:104B90000F931F93CF93DF938FEF8093C5000E94F5
:104BA0007F0984E18A95F1F710E00E94A608882326
:104BB00019F41F5F1E31C9F70E9490086C0100E0D4
:104BC000EE24FF2481E0882E912C2EC0F601EC0FFC
:104BD000FD1F80818A21E9F080E06C2F4B2D0E941F
:104BE000BE12182F8B2D6C2F0E949009882311F470
:104BF0001B3219F40E94741D0CC0103119F40E946C
:104C00009F1307C0183111F4016003C0133109F478
:104C100002602196C131D105C9F60894E11CF11C4E
:104C200088E0E816F10461F0BE2CC4010E2C02C02D
:104C3000880F991F0A94E2F7A82EC0E0D0E0C6CFF3
:104C4000002319F00F5F0093C5006091C500643028
:104C500021F48CE090E06FEF04C0643028F48CE025
:104C600090E00E944B2906C08CE090E00E9443290E
:104C70008093C5008A98929A2091C5002430D0F084
:104C800080E090E0829907C092FD09C08F5F863076
:104C900060F021E00AC0829B09C092FD02C080E062
:104CA00004C08F5F863008F020E090B3223050F7C8
:104CB0002093C5008091C5008150823058F40E9435
:104CC000B62581E00E9496250E9431230E947A2514
:104CD0000E9450248091C500882311F0833051F741
:104CE0000E941B050E9424050E94B62580E00E94B8
:104CF00096250E94E71E0E947A250E947520DACF31
:104D0000629FD001739FF001829FE00DF11D649FAF
:104D1000E00DF11D929FF00D839FF00D749FF00D3B
:104D2000659FF00D9927729FB00DE11DF91F639FDC
:104D3000B00DE11DF91FBD01CF0111240895991B8C
:104D400079E004C0991F961708F0961B881F7A9582
:104D5000C9F78095089597FB092E07260AD077FD9D
:104D600004D049D006D000201AF4709561957F4F89
:104D70000895F6F7909581959F4F0895A1E21A2E18
:104D8000AA1BBB1BFD010DC0AA1FBB1FEE1FFF1FEF
:104D9000A217B307E407F50720F0A21BB30BE40B3F
:104DA000F50B661F771F881F991F1A9469F7609586
:104DB0007095809590959B01AC01BD01CF01089540
:104DC00097FB092E05260ED057FD04D0D7DF0AD059
:104DD000001C38F450954095309521953F4F4F4F2A
:104DE0005F4F0895F6F790958095709561957F4F88
:104DF0008F4F9F4F0895AA1BBB1B51E107C0AA1FED
:104E0000BB1FA617B70710F0A61BB70B881F991F6B
:104E10005A95A9F780959095BC01CD010895681722
:104E2000790768F4FB01DC01E40FF51FA40FB51F3F
:104E300002C002900E9241505040D8F708950C9451
:104E40006329FB019F01E8944230C4F04532B4F479
:104E50004A3029F497FB1EF4909581959F4F642F5B
:104E600077270E94FB26805D8A330CF0895D819351
:104E7000CB010097A1F716F45DE251931082C901AE
:104E80000C947729AEE0B0E0E8E4F7E20C941F2A36
:104E90000D891E8986E08C831A8309838FEF9FE733
:104EA0009E838D839E01275E3F4FCE0101966F89C1
:104EB000788DA9010E9466272F813885020F131F64
:104EC000F80110822E96E4E00C943B2AABE0B0E0AF
:104ED000ECE6F7E20C94112A3C012B015A01FC018B
:104EE00017821682838181FD03C06FEF7FEFC6C1F9
:104EF0009AE0892E1E010894211C311CF3012381A4
:104F0000F20123FD859123FF81912F01882309F46C
:104F1000B2C1853239F423FD859123FF81912F01A0
:104F2000853229F490E0B3010E948729E7CF982FBA
:104F3000FF24EE249924FFE1FF15D0F09B3269F0A5
:104F40009C3228F4903259F0933291F40EC09D3285
:104F500049F0903369F441E024C052E0F52A84E03E
:104F6000F82A28C098E0F92A25C0E0E1FE2A22C0EC
:104F7000F7FC29C0892F80538A3070F4F6FE05C0F3
:104F8000989C902C1124980E15C0E89CE02C1124BC
:104F9000E80EF0E2FF2A0EC09E3229F4F6FC6BC147
:104FA00040E4F42A07C09C3619F450E8F52A02C000
:104FB000983649F4F20123FD959123FF91912F0139
:104FC000992309F0B8CF892F8554833018F0805287
:104FD000833038F444E050E0A40EB51E5FE35983FB
:104FE0000FC0933631F0933779F0933509F056C0FE
:104FF00020C0F5018081898342E050E0A40EB51EF7
:10500000610101E010E012C0F501C080D180F6FC22
:1050100003C06FEF7FEF02C0692D70E042E050E007
:10502000A40EB51EC6010E946C298C015FE7F52213
:1050300014C0F501C080D180F6FC03C06FEF7FEF94
:1050400002C0692D70E042E050E0A40EB51EC6011A
:105050000E9458298C0150E8F52AF3FE07C01AC0B7
:1050600080E290E0B3010E948729EA948E2D90E0BF
:1050700008171907A8F30EC0F601F7FC8591F7FE93
:1050800081916F0190E0B3010E948729E110EA94B9
:10509000015010400115110579F7EAC0943611F05E
:1050A000993669F5F7FE08C0F5012081318142810A
:1050B000538184E090E00AC0F501808191819C01D8
:1050C000442737FD4095542F82E090E0A80EB91E8A
:1050D0009FE6F92257FF09C05095409530952195DC
:1050E0003F4F4F4F5F4FE0E8FE2ACA01B901A101CF
:1050F0002AE030E00E94B329D82ED21840C095375C
:1051000029F41F2D1F7E2AE030E01DC01F2D197FBE
:105110009F3661F0903720F4983509F0ACC00FC08D
:10512000903739F0983709F0A6C004C028E030E085
:105130000AC0106114FD146020E130E004C014FDC9
:10514000166020E132E017FF08C0F501608171812F
:105150008281938144E050E008C0F5018081918113
:10516000BC0180E090E042E050E0A40EB51EA10139
:105170000E94B329D82ED2188FE7F82EF122F6FE1E
:105180000BC05EEFF522D91438F4F4FE07C0F2FC30
:1051900005C08FEEF82202C01D2D01C0192DF4FEAE
:1051A0000DC0FE01ED0DF11D8081803319F499EEE3
:1051B000F92208C01F5FF2FE05C003C08F2D86785C
:1051C00009F01F5F0F2DF3FC14C0F0FE0FC01E1579
:1051D00010F09D2C0BC09D2C9E0C911A1E2D06C00C
:1051E00080E290E0B3010E9487291F5F1E15C0F383
:1051F00004C01E1510F4E11A01C0EE2404FF0FC014
:1052000080E390E0B3010E94872902FF1DC001FDE9
:1052100003C088E790E00EC088E590E00BC0802FC7
:10522000867891F001FF02C08BE201C080E2F7FCBA
:105230008DE290E0B3010E94872906C080E390E0F0
:10524000B3010E9487299A94D914C0F3DA94F1012A
:10525000ED0DF11D808190E0B3010E948729DD20D2
:10526000A9F706C080E290E0B3010E948729EA9482
:10527000EE20C1F743CEF30166817781CB012B96F7
:10528000E2E10C942D2AE199FECF9FBB8EBBE09A00
:1052900099278DB30895262FE199FECF9FBB8EBB32
:1052A0002DBB0FB6F894E29AE19A0FBE01960895CD
:1052B000FC010590615070400110D8F780959095E1
:1052C0008E0F9F1F0895FB01DC0102C001900D921B
:1052D00041505040D8F70895FC0161507040019052
:1052E0000110D8F7809590958E0F9F1F0895DC01CF
:1052F000FC01672F71917723E1F7329704C07C910D
:105300006D9370836291AE17BF07C8F308950F9332
:105310001F93CF93DF938C01EB018B8181FF1BC027
:1053200082FF0DC02E813F818C819D812817390716
:1053300064F4E881F9810193F983E88306C0E88584
:10534000F985802F0995892B31F48E819F810196F3
:105350009F838E8302C00FEF1FEFC801DF91CF91B3
:105360001F910F910895FA01AA27283051F1203199
:1053700081F1E8946F936E7F6E5F7F4F8F4F9F4FE9
:10538000AF4FB1E03ED0B4E03CD0670F781F891F2B
:105390009A1FA11D680F791F8A1F911DA11D6A0FF9
:1053A000711D811D911DA11D20D009F468943F91AC
:1053B0002AE0269F11243019305D3193DEF6CF01AB
:1053C0000895462F4770405D4193B3E00FD0C9F771
:1053D000F6CF462F4F70405D4A3318F0495D31FDDE
:1053E0004052419302D0A9F7EACFB4E0A695979531
:1053F000879577956795BA95C9F700976105710507
:1054000008959B01AC010A2E069457954795379550
:105410002795BA95C9F7620F731F841F951FA01DAA
:1054200008952F923F924F925F926F927F928F9248
:105430009F92AF92BF92CF92DF92EF92FF920F9323
:105440001F93CF93DF93CDB7DEB7CA1BDB0B0FB62D
:10545000F894DEBF0FBECDBF09942A8839884888EA
:105460005F846E847D848C849B84AA84B984C88480
:10547000DF80EE80FD800C811B81AA81B981CE0F77
:10548000D11D0FB6F894DEBF0FBECDBFED0108955C
:04549000F894FFCFBE
:10549400080701FF0A015AFF0068006501000200C5
:1054A400040008001000200040008000256300254F
:1054B40064002C200020286C617965723D00206412
:1054C400656661756C743D00206D617070696E670E
:1054D4003D002900271E1F2021222324252629C41C
:1054E400092D002C003D0002050000000130236A54
:0654F400236A232C23FFB4
:00000001FF
