:100000000C94F6030C942E040C9413040C94130417
:100010000C947C080C9488070C944F080C94F507FA
:100020000C9422080C945B070C94C8070C940807E6
:100030000C9413040C9413040C9413040C941304E4
:100040000C9413040C9413040C9413040C941304D4
:100050000C9413047B17671797176B176D176F179F
:100060007317951777177917751783179D177D17CE
:10007000A117A517AE17A717A717A717A717A71791
:10008000A717A717A717A717931791179F178117D8
:10009000A317A9176917A717A717A717A717A717B0
:1000A000A717A717A717A717A717A717A717A71760
:1000B000A717A717A717A717A717A717A717A71750
:1000C000A717A717A717A717A71785178D1789179A
:1000D00071177F179917A717A717A717A717A7179C
:1000E000A717A717A717A717A717A717A717A71720
:1000F000A717A717A717A717A717A717A717A71710
:10010000A717A717A717A717A71787178F178B1753
:100110009B170000010008004000000100040000DF
:1001200001000800200040008000000100040403DA
:1001300009041C03770069006E006B0065007900FC
:100140006C006500730073002E006B0072001003DA
:1001500070007300320061007600720055001201D9
:10016000100100000008424231E1000101020001DB
:10017000090222000101008032090400000103018C
:100180000100092101010001225500070581030832
:10019000000A0000FC001C322123242B3433433B93
:1001A000424B3A31444D152D1B2C3C2A1D22351A49
:1001B000161E26252E363D3E46455A76660D294E9C
:1001C00055545B5D5D4C520E41494A580506040C7E
:1001D000030B830A010978077C7E7C706C7D716952
:1001E0007A746B7275774A7C7B795A69727A6B7311
:1001F000746C757D7071612F001412111F145911E8
:10020000270000373F5E48103A38302820184D1537
:100210003B34233221502B404B1C43221D0000F164
:10022000F2370F08101820283038404850575F6DBB
:100230000051136A64672700000063625F000000DA
:1002400000000000000000008A01210223022402B5
:100250002502260227022A02B500B600B700CD000B
:10026000E200E900EA00830192019401000000002D
:100270000000000000009100900066006700680028
:1002800069006A006B006C006D006E006F0070000A
:100290007100720073008500860087008800890065
:1002A0008A008B008C008D008E008F0092009300DE
:1002B00094009500960097009800464800488E8D5F
:1002C000007172738F006A6B6E6D6546494A4B4CC4
:1002D0004D4E52504F5154587172737475767778F1
:1002E000797A7B7C7D7E7F80818283848586878806
:1002F000898A8F00494C4A4D4B4E6A6E65504F5269
:10030000515400480000006B00673E142B04291D67
:1003100000351E1A3916001B003A1F083C073D061F
:10032000003B201517090A19052221181C0D0B1076
:100330001123240C300E3F36002E2512400F0037BB
:10034000FE4126132F333432382D274700006964CD
:100350006D0046002A314428454243C9535F2C5C56
:10036000514C00CA54605D5A4F4900CB55615E5BE9
:10037000004B4ECC56575258504A4D62686C5963E8
:10038000000000006A6E0000000000530000006BD7
:1003900000673E142B04291D00351E1AFD16001B94
:1003A000003A1F083C073D06003B201517090A19B3
:1003B0000522215C1C590B6211235F5D305A3F629C
:1003C00000FA605E405B0063FE4161552F56343297
:1003D00057F95447000069646D0046002A314458BB
:1003E000454243C9535FFC5C514C00CA54605D5A9E
:1003F0004F4900CB55615E5B004B4ECC565752586F
:10040000504A4D62686C5963000000006A6E00003B
:10041000000000480000006B00673E142B04291DFB
:1004200000351E1A3916001B003A1F083C073D060E
:10043000003B201517090A19052221181C0D0B1065
:100440001123240C300E3F36002E2512400F0037AA
:10045000FE4126132F333432382D274700006964BC
:100460006D0046002A314428454243C9535F2C5C45
:10047000514C00CA54605D5A4F4900CB55615E5BD8
:10048000004B4ECC56575258504A4D62686C5963D7
:10049000000000006A6E000000000073656C656378
:1004A00074206D6F646500313A4B6579204D617041
:1004B00070696E6700323A4D6163726F00333A457E
:1004C00078697400343A626F6F74206D6170706582
:1004D0007200676F6F64206279657E00626F6F746F
:1004E000206D617070657220737461727421004DAB
:1004F0006163726F00313A53656C656374204D61BE
:1005000063726F20496E64657800323A4578697489
:1005100000393A436C65617220416C6C00363A4296
:1005200061636B004B6579204D61707065720031BD
:100530003A4368616E6765204C6179657200323AB2
:1005400053656C656374204B6579202D20696E704E
:100550007574206B6579636F646500333A53617617
:100560006520616E64204578697400343A45786985
:100570007420776974686F757420536176696E674B
:1005800000393A526573657420746F204465666162
:10059000756C74202843757272656E74204C617995
:1005A00065722900707332617672550063686F6FEF
:1005B0007365206C617965722028313A206E6F7204
:1005C0006D616C2C20323A20464E2C20333A204666
:1005D0004E32292063757272656E743D200073651A
:1005E0006C656374206B65792028616E79206B657A
:1005F0007920796F752077616E74292000696E709B
:100600007574206B6579636F646520286D757374EC
:100610002033206E756D6265727329203A20005375
:10062000617665202620457869742C207468616E97
:100630006B20796F752E004578697420776974682E
:100640006F757420536176696E672C207365652021
:10065000796F75206C617465722E005265736574D4
:1006600020746F2064656661756C742063757272A6
:10067000656E74206C6179657200496E70757420C6
:10068000436F6D6D616E64204E756D6265723A20C8
:10069000006E6F7468696E670053617665206375DC
:1006A0007272656E74206C61796572004C6F616462
:1006B0002063757272656E74206C61796572007367
:1006C0006176696E672E2E2E00636F6C2C20726F20
:1006D00077203A2000696E76616C6964206B6579D9
:1006E000636F64652C20696E707574206167616941
:1006F0006E2E00696E707574204D6163726F2049B3
:100700006E646578202830317E31322C206D75730F
:10071000742032206E756D6265727329203A200054
:1007200045786974206D6163726F2C207365652054
:10073000796F75206C617465722E00696E707574C6
:10074000206B657920286D6178203234206B6579C3
:10075000732C2073746F70203A207072657373204D
:1007600045534320647572696E6720312073656359
:100770002900696E76616C696420496E6465782C25
:1007800020696E70757420616761696E2E00636CFC
:100790006561722E2E2E0005010906A10185010555
:1007A0000719E029E71500250175019508810295D3
:1007B0000575010508190129059102950175039137
:1007C000039506750815002691000507190029A450
:1007D0008100C0050C0901A101850219002A3C0213
:1007E0001500263C02950175108100C011241FBE22
:1007F000CFE5D8E0DEBFCDBF10E0A0E6B0E0E4E892
:10080000FDE402C005900D92AC3EB107D9F715E0AA
:10081000ACEEB0E001C01D92A23AB107E1F70E9430
:100820002C220C94C0260C940000A82FB92F80E035
:1008300090E041E050EA609530E009C02D918227B8
:100840009795879510F084279527305EC8F36F5FE2
:10085000A8F30895EADF8D939D930895CF93CFB7C2
:10086000CF93C395809BE9F7809B09C0809B07C00D
:10087000809B05C0809B03C0809B01C0A3C0DF9309
:10088000C091CC03DD27CD52DC4F809B02C0DF91AD
:10089000EBCF2F930F931F9300B32FEF00FB20F9A3
:1008A0004F933F9310B34FEF012700FB21F93BE03B
:1008B00031C04E7F012F10B3216028C0102F4D7F13
:1008C0002260000000B329C04B7F2460012F00008C
:1008D00010B32BC010B3477F28602AC04F7E00B3EF
:1008E00020612CC04F7D10B320622FC04F7B00B31E
:1008F000206432C0422700B349934FEF0000102715
:1009000010FB20F910B31570C9F1297F91F201276E
:1009100000FB21F900B3237F89F2315058F11027F1
:1009200010FB22F910B3277E79F2012700FB23F98F
:100930002F7C81F200B3102710FB24F92F7971F27C
:1009400000C010B3012700FB25F92F7359F200C036
:1009500000B3102710FB26F9223040F200C010B37C
:10096000012700FB27F9243028F64F77206810B3C1
:100970000000F9CF10E41ABF002719C03B50319591
:10098000C31BD04010E41ABF0881033CF9F00B34BC
:10099000E9F02091CA031981110F1213EDCF4A819A
:1009A000441F093641F10D3211F0013E29F7009341
:1009B000D1033F914F911F910F912F91DF91CAB7B2
:1009C000C6FD4FCFCF91CFBFCF9118952091D103C6
:1009D000222379F31091CF03112369F534306AF1A2
:1009E0003093CF032093CB031091CC033BE0311B1A
:1009F0003093CC0322C00091CF030130E4F40AE528
:100A00004F7049F43091600034FD19C000936000CC
:100A1000C3EBD3E018C03091BE0334FD10C0009387
:100A2000BE03CFEBD3E00FC02795A8F45150A9F433
:100A3000220F0000F9CF4AE503C042ED01C0432F69
:100A4000C4E1D0E032E011B31560909A11BB02B35B
:100A500020E415E05F93012756E002BB279520F4C0
:100A6000515021F4220FF9CF012756E000003B5AE4
:100A700002BBD0F2279528F4515029F4220F000030
:100A8000F9CF012756E0279502BB20F4515021F4FD
:100A9000220FF9CF012756E02991332302BB21F61B
:100AA0000A7F1091D003110FC651D04002BB11F044
:100AB0001093CA0310E41ABF016011B31A7F402FCC
:100AC0004A7F5F9100C000C002BB11BB42BB71CF27
:100AD000089583B7887F826083BF12BE89B7816023
:100AE00089BF1092A5031092A6031092A70310923B
:100AF000A80308958EB5887F83608EBD1DBC1CBC85
:100B000089B7846089BF089585B5887F846085BD75
:100B100014BC89B7806489BF1092AD031092AE03F4
:100B20001092AF031092B003089580E090E0FC01B2
:100B3000EE0FFF1FE451FF4F1182108201968830A3
:100B40009105A9F70E9469050E947A050E94840513
:100B50007894089593B7987F982B93BF08959EB586
:100B6000987F982B9EBD089595B5987F982B95BD3D
:100B7000089583B7E82FF0E0E770F070EE0FFF1FE5
:100B8000EE5EFE4F25913491C90108958EB5E82F90
:100B9000F0E0E770F070EE0FFF1FEE5EFE4F259164
:100BA0003491C901089585B5E82FF0E0E770F07041
:100BB000EE0FFF1FE25EFE4F25913491C9010895AB
:100BC000883040F4E82FF0E0EE0FFF1FE451FF4FB4
:100BD000718360830895883040F4E82FF0E0EE0FD1
:100BE000FF1FE451FF4F118210820895EF92FF9290
:100BF0000F931F93CF93DF93EC0112B71092A903C9
:100C00001092AA031092AB031092AC0383B7E82FA3
:100C1000F0E0E770F070EE0FFF1FEE5EFE4F2591E3
:100C2000349140E050E060E07BE187EB90E00E948F
:100C30004A23B901CA01693B2DE8720726E0820701
:100C400020E09207A0F437E2C131D30780F49E017F
:100C500040E050E00E94F82228EE33E040E050E00F
:100C60000E944A23C901DA01BC01CD0121C028EE4E
:100C700033E040E050E00E944A23CA01B9019E01DE
:100C800040E050E00E94F82213C08091A9039091A7
:100C9000AA03A091AB03B091AC0385B78F7885BF51
:100CA00085B7806885BF889585B78F7785BF08C071
:100CB0009B01AC01210F311D411D511D79018A019C
:100CC0002091A9033091AA034091AB035091AC034A
:100CD00082B790E0A0E0B0E0542F432F322F2227BC
:100CE000822B932BA42BB52B8E159F05A007B10744
:100CF00060F2DF91CF911F910F91FF90EF900895D7
:100D00001092A5031092A6031092A7031092A803B5
:100D100008952091A5033091A6034091A703509117
:100D2000A803B901CA0108951092AD031092AE0351
:100D30001092AF031092B00308952091AD0330914B
:100D4000AE034091AF035091B003B901CA010895B9
:100D5000893031F48FB582608FBD8FB58E7F0AC028
:100D60008A3019F48FB5826002C08FB58D7F8FBD38
:100D70008FB581608FBD1BBC1ABC19BC18BC08950F
:100D80002FB52E7F2FBD2FB522602FBD2EB5286029
:100D90002EBD2EB520612EBD97BD86BD1BBC1ABCD5
:100DA00019BC18BC08958FB58D7F8FBD8FB58E7F10
:100DB0008FBD8FB58F778FBD8FB58F7B8FBD8FB573
:100DC0008F7D8FBD8FB58F7E8FBD08958FB5806865
:100DD0008FBD8FB58F7B8FBD08958FB580628FBD1E
:100DE0008FB58F7E8FBD08958FB58F778FBD8FB5EF
:100DF0008F7B8FBD08958FB58F7D8FBD8FB58F7E13
:100E00008FBD08959BBD8ABD089599BD88BD089585
:100E10001F920F920FB60F9211242F933F934F936F
:100E20005F936F937F938F939F93AF93BF93EF9352
:100E3000FF938091A5039091A603A091A703B09181
:100E4000A8030196A11DB11D8093A5039093A6034D
:100E5000A093A703B093A8038091A9039091AA033C
:100E6000A091AB03B091AC030196A11DB11D80937D
:100E7000A9039093AA03A093AB03B093AC03809112
:100E8000EC009091ED00892B29F0E091EC00F091BD
:100E9000ED000995FF91EF91BF91AF919F918F91D7
:100EA0007F916F915F914F913F912F910F900FBE66
:100EB0000F901F9018951F920F920FB60F9211244A
:100EC0002F933F934F935F936F937F938F939F9352
:100ED000AF93BF93EF93FF938091EE009091EF005B
:100EE000892B29F0E091EE00F091EF000995FF9138
:100EF000EF91BF91AF919F918F917F916F915F9192
:100F00004F913F912F910F900FBE0F901F9018950A
:100F10001F920F920FB60F9211242F933F934F936E
:100F20005F936F937F938F939F93AF93BF93EF9351
:100F3000FF938091AD039091AE03A091AF03B09168
:100F4000B0030196A11DB11D8093AD039093AE0334
:100F5000A093AF03B093B0038091F6009091F70097
:100F6000892B29F0E091F600F091F7000995FF91A7
:100F7000EF91BF91AF919F918F917F916F915F9111
:100F80004F913F912F910F900FBE0F901F9018958A
:100F90001F920F920FB60F9211242F933F934F93EE
:100FA0005F936F937F938F939F93AF93BF93EF93D1
:100FB000FF938091FA009091FB00892B29F0E0913A
:100FC000FA00F091FB000995FF91EF91BF91AF916D
:100FD0009F918F917F916F915F914F913F912F9151
:100FE0000F900FBE0F901F9018951F920F920FB683
:100FF0000F9211242F933F934F935F936F937F939F
:101000008F939F93AF93BF93EF93FF938091F000E3
:101010009091F100892B29F0E091F000F091F1001E
:101020000995FF91EF91BF91AF919F918F917F9122
:101030006F915F914F913F912F910F900FBE0F9045
:101040001F9018951F920F920FB60F9211242F9395
:101050003F934F935F936F937F938F939F93AF9340
:10106000BF93EF93FF938091F2009091F300892B4F
:1010700029F0E091F200F091F3000995FF91EF91D2
:10108000BF91AF919F918F917F916F915F914F91A0
:101090003F912F910F900FBE0F901F9018951F92A8
:1010A0000F920FB60F9211242F933F934F935F939C
:1010B0006F937F938F939F93AF93BF93EF93FF9320
:1010C0008091F4009091F500892B29F0E091F400D3
:1010D000F091F5000995FF91EF91BF91AF919F912C
:1010E0008F917F916F915F914F913F912F910F90D1
:1010F0000FBE0F901F9018951F920F920FB60F9270
:1011000011242F933F934F935F936F937F938F930C
:101110009F93AF93BF93EF93FF938091F8009091CB
:10112000F900892B29F0E091F800F091F900099578
:10113000FF91EF91BF91AF919F918F917F916F91AF
:101140005F914F913F912F910F900FBE0F901F9085
:1011500018958093FD00F8948091B2038F7E809360
:10116000B2038091B20388608093B20378940895AB
:10117000F8948091B2038B7F8093B203789480912E
:10118000FC0008958FEC84BD8091B1038330F8F4A6
:101190008898909A8091B20380FF22C0829B88C079
:1011A0008091B103813041F0813020F0823009F02C
:1011B000DBC005C082E07DC080B38DE07AC0809145
:1011C000B20383FFD1C09098889A84E272C0809164
:1011D000B1038A3108F05FC08091B20380FD08C07E
:1011E0008091B20381608093B2038A98929A0895A5
:1011F000829B5CC08091B103873138F48031D8F490
:101200008D3051F08F30E1F50BC0883121F18831FC
:10121000C8F08931A9F531C08091B2038D7F35C006
:101220008091B2038B7F8093B20380B31092FF0052
:101230001092FC0025C08091FC0086958093FC00F4
:1012400080B31EC080B38091FF0080FD19C08091E3
:10125000B20382600FC080B38091B203826080933A
:10126000B2038091B20381FD0BC09098889A80915F
:10127000B20384608093B20303C08898909A6CC0D4
:1012800092988A9A8091B2038E7F8093B203809164
:10129000B1038F5F0EC08091B1038F3208F064C03C
:1012A0008091B20380FF10C0829906C08898909AFE
:1012B00081E08093B10308958091B2038E7F809383
:1012C000B20392988A9A08958091B20381608093C4
:1012D000B2038A98929A8091B1038C3228F48532B5
:1012E00080F48432E1F507C08D3299F18D32E8F057
:1012F0008E32A9F531C08091FD008093FE001092DE
:10130000FF008091FE0080FF08C08898909A80912D
:10131000FF008F5F8093FF0002C09098889A8091B1
:10132000FE0086958093FE001AC08091FF0080FF2A
:1013300003C09098889A02C08898909A8091B203CE
:10134000877F8093B2038091B20380618093B20360
:1013500006C08898909A03C01092B10308958091B6
:10136000B1038F5F8093B10308951092B10381E1BF
:101370008093B2038A98929A8898909A0E948405E2
:1013800082E00E94B40585E062EC78E00E94E0050E
:101390008FEC84BD089585B7826085BF8BB780646C
:1013A0008BBF8BE48093BF038AE58093BE030895CF
:1013B0001F93CF93DF936091CF03635067FDCAC043
:1013C0008091CC03CCE0D0E0C81BD109CD52DC4FDA
:1013D0008091CB038D3209F0AAC0683009F0B8C003
:1013E00083EC8093B3038AE5809360001092000140
:1013F0008881807641F0CE010E944B21282F8F3FBB
:1014000009F484C08AC09A811092BC038981882320
:1014100021F41092BD0322E072C0853019F490933C
:10142000D0036CC0863009F055C08B81813059F4EF
:1014300089B78B7F89BF8EE591E09093CE0380932F
:10144000CD0322E143C0823041F480E791E09093E4
:10145000CE038093CD0322E239C08330F9F48A8130
:10146000882341F48EE291E09093CE038093CD03E4
:1014700024E02CC0813041F482E391E09093CE03CC
:101480008093CD032CE122C08230F9F48EE491E008
:101490009093CE038093CD0320E118C0813241F4B4
:1014A00082E891E09093CE038093CD0329E00EC0B3
:1014B000823259F487E997E09093CE038093CD036D
:1014C00089B7846089BF25E501C020E080E480936E
:1014D000000123C0883021F421E082ED93E011C0A7
:1014E000893019F49093D20309C08A3011F421E0B5
:1014F00006C08B3019F48BE48093BF0320E08CEBA3
:1015000093E09093CE038093CD0307C0888187FD3D
:101510002E8180E88093000106C08F81882319F412
:101520008E81821708F0822F8093610011C0809114
:10153000000187FF0DC0CE010E948D218F3F21F455
:101540008EE18093600004C0882311F01092610046
:101550001092CF038091600084FF46C080916100AB
:101560008F3F09F441C0182F893008F018E0811B23
:10157000809361008091B30398E889278093B30337
:10158000112321F12091CD033091CE0380910001F0
:1015900086FF0AC0912FF901A4EBB3E084918D93EB
:1015A00031969150D9F708C0912FD901E4EBF3E0BF
:1015B0008D9181939150E1F7C90101961150810FEE
:1015C000911D1F5F9093CE038093CD0384EB93E036
:1015D000612F0E942A04612F6C5F6C3019F08FEF2D
:1015E000809361006093600094E180B3857031F472
:1015F0009150D9F71092D0031092CA03DF91CF9186
:101600001F9108951F93DC01162F8091BE0384FF64
:1016100007C08091BF0398E889278093BF0303C068
:101620008AE58093BE03912FE0ECF3E08D918193E6
:1016300091501916DCF380EC93E0612F0E942A048C
:101640001C5F1093BE031F910895809104010895BB
:101650009C01E0910101EE2389F08091040188232F
:1016600069F08E2F865D803120F4F0E0E457F04081
:10167000E0818E2FF9010995109201010895E82F5C
:10168000865D803140F480910401882321F0F0E0F0
:10169000E457F040E0818E2F08951F93982F865DC8
:1016A0006623D9F0803188F4809102018F5F8093A6
:1016B000020180910301882361F49093010181E08C
:1016C000809303011092040129C0809101018823B5
:1016D00029F181E08093040121C08031F8F48091E8
:1016E0000201815080930201E0910101EE2381F01B
:1016F00080910401882361F4F0E0E456F040108109
:10170000812F0E94D016812F0E94D01610920101C5
:1017100080910201882311F4109203011F91089512
:1017200080931F01089580911F010895109209016F
:1017300008958EB5887F8EBD08958EB584608EBD68
:101740000895939A80910701909108019BBD8ABDED
:1017500008959398089590930801809307018091CC
:10176000070190910801892B51F4809121019091FA
:101770002201892B21F093988EB5887F0EC080912D
:10178000070190910801892B49F0809121019091E6
:101790002201892B19F48EB584608EBD80910701DA
:1017A00090910801909322018093210108959091D6
:1017B0001301992319F480E090E010C0913049F4AE
:1017C000109218011092170110921A01109219012B
:1017D0000895923031F48091870090E00E94AB0B25
:1017E0000895892F83508230A0F483E080931B01F9
:1017F000943019F481E080931B0180911B019FEFCD
:10180000899FC00111246CE070E00E94372360932F
:101810001C0108958091130190E0019665E070E04D
:101820000E9437238093130181E090E0909312018E
:10183000809311010E94D70B0895809187008E310B
:10184000A1F08951809387008E3118F48EE1809346
:10185000870080911301823011F40E94D70B81E040
:1018600090E0909312018093110108958091870078
:101870008F3FA9F090E049968F3F910511F00CF051
:101880008FEF8093870080911301823011F40E94C2
:10189000D70B81E090E0909312018093110108959D
:1018A00080911F0190E080FF02C0959A01C0959839
:1018B000AC014270507081FF02C0949A01C09498AC
:1018C0002091200182FF0BC02223B1F481E080939C
:1018D0002001452B11F485E009C084E007C02130C8
:1018E00059F410922001452B21F483E080930E01DE
:1018F000089582E080930E01089580911301833052
:10190000C1F484EF91E090931E0180931D018091BA
:101910001B018C3038F58F5F80931B019FEF899FEF
:10192000C00111246CE070E00E94372360931C0119
:1019300008958430B9F484EF91E090931E01809370
:101940001D0180911B01882369F0815080931B0148
:101950009FEF899FC00111246CE070E00E94372343
:1019600060931C0108952091870030E0AC01429FF4
:10197000C001439F900D529F900D11246FEF70E0B6
:101980000E943723CB010895CF93DF9380911301F9
:10199000813009F057C0C0911901D0911A012097E8
:1019A00061F4809117019091180168E070E00E9445
:1019B0003723CB010E94B30C13C0C230D105A1F470
:1019C000809117019091180168E070E00E94372320
:1019D000CB01909581959F4F81509F4F0E94B30CF2
:1019E00090E00E94AB0B0FC0C130D10519F0C3309D
:1019F000D10549F4809117019091180101969093B7
:101A00001801809317018091170190911801885F48
:101A1000974074F01092180110921701CE010196B0
:101A200064E070E00E94372390931A0180931901BB
:101A3000809117019091180101969093180180935D
:101A4000170187C08330D1F580911D0190911E014F
:101A5000009731F0019790931E0180931D0128C0DB
:101A600020911C012223F1F080911701909118011F
:101A7000019690931801809317010897CCF010926B
:101A8000180110921701215020931C018FEF90E054
:101A9000821B91096BEE7FEF0E943723645F609396
:101AA0001B0106C010921B01109218011092170121
:101AB00080911C0190E00E94B30C3DC0843009F07D
:101AC0003EC080911D0190911E01009731F0019759
:101AD00090931E0180931D0129C020911C012F3F6E
:101AE000F1F08091170190911801019690931801DF
:101AF000809317010897D4F01092180110921701E3
:101B00002F5F20931C018FEF90E0821B91096BEEF9
:101B10007FEF0E943723645F60931B0107C08CE056
:101B200080931B01109218011092170180911C01E3
:101B300090E00E94B30C90E00E94AB0B0AC01092A0
:101B400018011092170183E090E090931A0180939E
:101B50001901DF91CF9108950E94C40C08959598C2
:101B6000949880911301823011F0843029F41092FE
:101B700018011092170108C0882311F0833021F456
:101B800081E08093160108951092160108950E9435
:101B9000500C0E94D70B0895CF93DF9380911601CC
:101BA000813029F1C0911701D0911801CE0168E070
:101BB00070E00E943723CB01909581959F4F815013
:101BC0009F4F0E94B30C90E00E94AB0B87E0C83F90
:101BD000D80744F080E090E00E94AB0B939881E03E
:101BE000809316012196D0931801C0931701DF91BD
:101BF000CF9108951F93182F80910901882309F42C
:101C0000B3C00E94200F882319F00E94CC0DACC0F5
:101C10000E94A421882311F040E104C0113009F092
:101C200045C040E280910A0190910B01019690938A
:101C30000B0180930A0120918400309185002817C0
:101C40003907DCF580910C0190910D01019690937C
:101C50000D0180930C01893C91057CF180911F015D
:101C60009091860080FF09C0913021F482B34095A5
:101C7000482307C082B3482B09C0913021F482B3B6
:101C8000482B42BB08C082B34095482342BB109208
:101C90000B0110920A018091860091E089278093C0
:101CA000860010920D0110920C0107C010920D01D8
:101CB00010920C0181E08093860020910E01222376
:101CC00011F180910F0190911001019690931001F4
:101CD00080930F0185369105D4F0253059F02330DB
:101CE00049F0243011F0223011F4949804C080910E
:101CF0001F0181FD949A1092100110920F01215042
:101D000020930E0104C01092100110920F018091D7
:101D10001101909112011816190624F5019690935D
:101D2000120180931101885E9340E1F41092120138
:101D3000109211016091130180911401681731F024
:101D4000609314018BE090E00E94CC2560918700A5
:101D500080911501861731F06093150189E090E0BC
:101D60000E94CC250E94C40C1F9108958091090106
:101D7000882309F064C081E08093090182E069EA68
:101D80007BE00E94E00583E061EA7BE00E94E005E1
:101D90008FB58E7F8FBD8FB58D7F8FBD8EB58860DF
:101DA0008EBD8EB580618EBD809182009091830042
:101DB00097BD86BD1BBC1ABC86B597B599BD88BDBD
:101DC0008FB58F778FBD8FB58F7B8FBD8FB58F7D93
:101DD0008FBD8FB58F7E8FBD1DBC1CBC89B7806148
:101DE00089BF89B7886089BF8EB584608EBD89E060
:101DF00090E00E94C42580938700809315018BE0BA
:101E000090E00E94C425809313018F3F11F410923B
:101E1000130180911301809314010E94D70B8091CC
:101E2000EB00882311F0833051F48091840090916D
:101E300085009595879590938500809384000895FB
:101E400080912301089580912301882329F481E062
:101E5000809323010E94AF0D089580912301882370
:101E600011F58091240190912501A0912601B09156
:101E700027010196A11DB11D809324019093250196
:101E8000A0932601B0932701805E9349A440B040FF
:101E900054F0109224011092250110922601109204
:101EA00027010E94230F089580912301882321F0A8
:101EB000109223010E94C70D109224011092250157
:101EC0001092260110922701089580912E018160C1
:101ED00080932E01089580912E0181700895809144
:101EE0002E0182700895982F80912E0180FD1AC0D6
:101EF0009730A1F4109231011092300181E080936B
:101F00002F018091EB00882311F0833059F484EC89
:101F100099E09093BC008093BB00089510922E012D
:101F200010922F01089580913201089581E08093ED
:101F30003201089510922E0110923601089590E01A
:101F4000895C8C3008F491E0892F0895982F895C82
:101F50008C3008F490E0892F089588E20E94D01612
:101F600088E20E94D016089580E3EAE8F4E0DF01F9
:101F7000982F1D929A95E9F71092BA04EAEEF3E0D1
:101F8000DF011D928A95E9F710922D0108950F93B4
:101F90001F93FC0180810E943B178C01882319F05C
:101FA00088E60E94D016812F0E94D016812F0E94B1
:101FB000D016002319F088E60E94D0161F910F91C9
:101FC0000895CF92DF92EF92FF920F931F93DF93CA
:101FD000CF930F92CDB7DEB78C01009711F52FC0CC
:101FE00000D000D000D0EDB7FEB73196ADB7BEB788
:101FF0001296FC92EE921197D382C282992787FDA6
:102000009095958384830E94C3238DB79EB70696CF
:102010000FB6F8949EBF0FBE8DBFC7010E94C70FB9
:1020200008C07E010894E11CF11C88E8C82E80E0FD
:10203000D82EF8010F5F1F4F8491882389F60F90E7
:10204000CF91DF911F910F91FF90EF90DF90CF9094
:1020500008958BE596E00E94E10F0E94AD0F2AE003
:1020600034E080E090E00BC01192E217F307E1F753
:1020700001969F01285F3F4F8131910549F0FC0196
:1020800043E0EE0FFF1F4A95E1F7EE5FFB4FECCF09
:1020900081E090E090933E0180933D0108958EE8A9
:1020A00097E00E94E10F0E94AD0F81E080932C0128
:1020B0008CE08093360110923401089580913D01A7
:1020C00090913E01892B29F410922E011092360135
:1020D00008958FEB96E00E94E10F0E94AD0F81E022
:1020E00080932C018BE080933601809134018093A2
:1020F000350110923401089584EA95E00E94E10FC1
:102100000E94AD0F08950E94AD0F8FEE94E00E94E3
:10211000E10F0E94AD0F85EF94E00E94E10F0E9455
:10212000AD0F8AE095E00E94E10F0E94AD0F8DE1B6
:1021300095E00E94E10F0E94AD0F81E195E00E94C1
:10214000E10F0E94AD0F87E0809334010895AF92B4
:10215000BF92CF92DF92FF920F931F93DF93CF93A3
:102160000F92CDB7DEB78C01FF246E010894C11C1D
:10217000D11C58E8A52E50E0B52E25C000D000D0C7
:1021800000D0EDB7FEB73196ADB7BEB71296DC9270
:10219000CE921197B382A282800F911FDC018C91A5
:1021A000992787FD9095958384830E94C3238DB7DB
:1021B0009EB706960FB6F8949EBF0FBE8DBFC601A0
:1021C0000E94C70FF3948F2D90E0F801019000203A
:1021D000E9F73197E01BF10B8E179F0778F20F900C
:1021E000CF91DF911F910F91FF90DF90CF90BF9023
:1021F000AF90089581E080932C0180913401893063
:1022000088F48730E8F5833079F1843030F4813018
:10221000E1F0823009F05CC024C0853059F186308D
:1022200060F525C08B30B9F18C3030F4893069F11C
:102230008A3009F04DC02CC08E3609F447C088376B
:1022400089F1843609F044C038C08CEA95E00E94D8
:10225000E10F80913F018F5F0E94B0170E94A7108D
:102260001EC08EED95E019C08DEF95E00BC08FE19B
:1022700096E025C087E396E022C010922C0128C08A
:102280008AE796E00E94E10F23C083EF96E0FACF41
:1022900080E297E014C08BE397E00E94E10F0E9478
:1022A000AD0F16C08CED94E00E94E10F0E94AD0FBF
:1022B000109234010E94A0210BC082ED94E00E9494
:1022C000E10F0E94AD0F1092340102C00E949211E2
:1022D00088EE93E02CE231E0F9013197F1F70197B4
:1022E000D9F708950E94AD0F8BE595E00E94E10FAC
:1022F0000E94AD0F8BE695E00E94E10F0E94AD0FAA
:102300008DE195E00E94E10F0E94AD0F81E895E01C
:102310000E94E10F0E94AD0F87E0809334010E947C
:10232000FA1008950E94AD0F8BE994E00E94E10F2E
:102330000E94AD0F87EA94E00E94E10F0E94AD0F6A
:1023400085EB94E00E94E10F0E94AD0F8DEB94E0CD
:102350000E94E10F0E94AD0F84EC94E00E94E10F17
:102360000E94AD0F88E0809334010E94FA10089516
:10237000CF93DF93C5EAD1E0CE0160E00E94CC2587
:10238000219683E0C53ED807B9F787E080933401F2
:102390000E94FA10DF91CF9108951F93CF93DF939E
:1023A0008091E9038C30C8F4C0E0D0E010E3809164
:1023B000E903819FC00111248B559E4FFE01E65712
:1023C000FB4F8C0F9D1F60810E94CC252196C0334E
:1023D000D10569F78FEF8093E903DF91CF911F91CA
:1023E00008950F931F93CF93DF93982F8C30C0F4F1
:1023F00080E3989FC0011124EC01CB55DE4F8C0186
:102400000B521E4FCE010E94C425982F81508E3F43
:1024100018F4892F0E94D0162196C017D10791F782
:10242000DF91CF911F910F910895CF92DF92EF929C
:10243000FF920F931F93CF93DF9390913F0188E812
:10244000989F700111248DE090E0E80EF91ECC24D5
:10245000DD2417C0CE018E0D9F1D0E94C425F801FA
:1024600081938F012196C830D105A1F70894C11C32
:10247000D11C88E090E0E80EF91E91E1C916D10464
:1024800059F0860163E0000F111F6A95E1F70E5FB6
:102490001B4FC0E0D0E0DECF10923E0110923D0114
:1024A000DF91CF911F910F91FF90EF90DF90CF9030
:1024B0000895AF92BF92CF92DF92EF92FF920F9367
:1024C0001F93DF93CF9300D00F92CDB7DEB7D82EF6
:1024D000B62EA42EC22E80912C01882309F08EC224
:1024E000809134018B3019F0222309F087C280EBF0
:1024F00090E06BE04D2D0E946C167C0190913401B0
:102500009B3009F06CC080912B01882399F01092C8
:102510002A0110922B018D2D0E94D016E091BA0451
:10252000F0E0E757FB4F10820E94CD1187E08093C7
:10253000340155C2CC2071F080912D01883108F012
:102540005DC28F5F80932D018AEE93E06D2D0E9416
:10255000C41617C00AEE13E0F80101900020E9F755
:102560003197E01BF10BC8016E2F4D2D0E946C16A8
:10257000BC018FEF6F3F780709F440C2C8010E9489
:1025800092168091BA04E82FF0E0E657FB4FD08214
:102590008F5F8093BA048D2D0E94D0168091BA046B
:1025A000803330F087E0809334010E94CD1117C250
:1025B000CC2081F0A0EBB0E0EA0EFB1EF701808199
:1025C000893241F481E080932A011092290110920E
:1025D000280114C210922A0110922B010FC2892FD8
:1025E0008750823008F0A3C0FAE0EF16F10408F03B
:1025F00005C2E0913C01F0E0E75CFE4FE08200D0D4
:1026000000D000D0EDB7FEB731968E010F5F1F4F9F
:10261000ADB7BEB712961C930E9311978BE890E05E
:1026200093838283F582E4820E94C323EDB7FEB7D1
:1026300036960FB6F894FEBF0FBEEDBFC8010E94DC
:10264000A7100E94AD0F00913901809134018830AC
:1026500091F50130E1F4009333010E94AD0F84E263
:1026600095E00E94E10F0E94AD0F8FE295E00E947D
:10267000E10F0E94AD0F8EE395E00E94E10F009301
:102680002C018AE0809336011092340160C102303F
:1026900029F4009333010E94831059C1033021F4BF
:1026A0000093330184E633C0043009F050C1009335
:1026B000330188E72CC0063019F48EE6809334018C
:1026C000809133018130C9F4013011F0023019F4E6
:1026D000009334013CC1033031F484E08093340131
:1026E0000E945E1034C1043011F485E010C009303E
:1026F00009F02DC10E942910C4C0823009F027C101
:10270000013011F489E021C1023041F48AE0809364
:10271000340110922E011092360119C1093009F0CE
:1027200016C18CE0809334010E944F1010C192308A
:1027300089F1FAE0EF16F10408F060C180913C01E4
:10274000E82FF0E0E75CFE4FE0828F5F80933C0172
:1027500000D000D000D0EDB7FEB731968E010F5FEC
:102760001F4FADB7BEB712961C930E9311978BE80F
:1027700090E093838283F582E4820E94C323EDB7C5
:10278000FEB736960FB6F894FEBF0FBEEDBFC80178
:102790000E94A710FAE0EF16F10428F080913401AE
:1027A000823009F02BC180913401823009F46BC072
:1027B000833020F4813009F01FC131C0833009F427
:1027C000C9C0893009F018C180913C018230E9F418
:1027D000909139018AE0989F9001112480913A01EB
:1027E000280F311DC90101970C9750F4822F815099
:1027F0008093E9038BE0809334010E94B40FE6C01C
:102800000E94AD0F82E797E0DFC088EE93E02CE2F4
:1028100031E0F9013197F1F70197D9F7EFC09091C5
:10282000390180913F01833050F5192F11508117E4
:1028300031F1133020F580913D0190913E01181641
:1028400019066CF40E94AD0F89E996E00E94E10F31
:102850000E94AD0F0E945E101093400178C00E944C
:10286000AD0F8CEA96E00E94E10F0E94AD0F87E069
:102870008093340110933F010E94151268C00E949A
:10288000AD0F87E062C0B0923701A092380189ECA9
:1028900096E00E94E10F809137018F5F0E94B01790
:1028A0000E94A7108EE890E00E94A7108091380146
:1028B0008F5F0E94B0170E94A71081E990E00E94EC
:1028C000A71080913F018F5F0E94B0170E94A71050
:1028D0008AE990E00E94A710E0913F0181E1E89F22
:1028E000F001112480913801E80FF11DB3E0EE0FE3
:1028F000FF1FBA95E1F780913701E80FF11DED5FF9
:10290000FC4FE4918E2F0E94B0170E94A71084EA1A
:1029100090E00E94A71080913701E0913801F0E02B
:10292000A3E0EE0FFF1FAA95E1F7E80FF11DEE5FA0
:10293000FB4F80810E94B0170E94A7108EEA90E0A2
:102940000E94A7100E94AD0F83E080933401109283
:102950003C0152C080913C01833009F043C090910A
:10296000390184E6989FA001112480913A012AE060
:10297000829FC0011124480F591F80913B01480FCD
:10298000511D4F3F5105E4F480913701E09138012A
:10299000F0E073E0EE0FFF1F7A95E1F7E80FF11D0D
:1029A000EE5FFB4F408387E08093340180913D01CF
:1029B00090913E01019690933E0180933D0106C0A7
:1029C0000E94AD0F85ED96E00E94E10F83E0E9E300
:1029D000F1E0DF011D928A95E9F710923C010E9417
:1029E000AD0F0AC088EE93E02CE231E0F901319797
:1029F000F1F70197D9F702C00E94FA100F900F90DB
:102A00000F90CF91DF911F910F91FF90EF90DF908A
:102A1000CF90BF90AF900895BF92CF92DF92EF9288
:102A2000FF920F931F93CF93DF93EE24FF24CC24C8
:102A3000DD2498E8B92E1EC080913F018B9DC00116
:102A400011240D968C0D9D1D8C0F9D1FF801619119
:102A50008F010E94CC252196C830D10569F70894D2
:102A6000E11CF11C88E090E0C80ED91E91E1E91646
:102A7000F10459F0870183E0000F111F8A95E1F7F7
:102A80000E5F1B4FC0E0D0E0D7CF10923E011092F6
:102A90003D0180913501843039F4809334011092E6
:102AA0002E011092360113C0813089F40E94AD0FBF
:102AB0008CEA96E00E94E10F0E94AD0F87E08093C0
:102AC00034018091400180933F010E9415120E94C1
:102AD000FA10DF91CF911F910F91FF90EF90DF904F
:102AE000CF90BF90089583E0E9E3F1E0DF011D920C
:102AF0008A95E9F710923C0110923F011092330140
:102B00000E9415120E9492110895FF920F931F9335
:102B1000CF93DF93F82E80912E01C62FD0E0042FA3
:102B200010E08823A9F488E8F89EC00111240D96CE
:102B30009E0143E0220F331F4A95E1F7820F931F56
:102B4000800F911F0E94C425982F81508E3F88F0DE
:102B500081E1F89EC0011124C80FD91F23E0CC0FDA
:102B6000DD1F2A95E1F7C00FD11FCD5FDC4FFE01BD
:102B70009491892FDF91CF911F910F91FF9008952C
:102B80001F93982F80912E0180FD0FC0192F195C83
:102B90001C3058F40E941117882339F00E94BE1788
:102BA000812F0E94F11181E001C080E01F91089502
:102BB00080912E0180FF0DC081FD0BC00E94111875
:102BC000882339F080912E01826080932E010E942B
:102BD0007315089580912E01816080932E0180915C
:102BE000EB008150823018F40E94041F08C00E943C
:102BF000A51B84EC99E09093BC008093BB000E94DD
:102C00007C10089580912E018823C1F480912F01BA
:102C10008823A1F080913001909131010196909329
:102C20003101809330012091BB003091BC00281706
:102C3000390724F410922F010E94EA1508950E948A
:102C4000021680912E0181FF36C080912C018823CD
:102C5000C9F00E9420178823A9F0809136018B309B
:102C600019F40E940C150CC08A3019F40E947211DC
:102C700007C08C3019F40E94B81102C010922C01C8
:102C80001092360180912A018823A9F080912801B1
:102C90009091290101969093290180932801895EE2
:102CA00093404CF081E080932B0189E26FEF4FEF6E
:102CB00020E00E94591208950E94A421882319F04F
:102CC00010923201089580913201813021F40E94E6
:102CD000EA15109232010895FC0190E007C081913D
:102CE000841719F4292F30E005C09F5F9617B8F3B9
:102CF0002FEF3FEFC9010895FC01808140E02FEFE5
:102D00003FEF0CC05191252F30E090E02817390794
:102D100019F02FEF3FEF04C04F5F852F461790F358
:102D2000C90108959B01FC0101900020E9F731974A
:102D3000E81BF90B6F5F7F4F680F791FE21BF30BE6
:102D4000820F931FAF010E9490230895FF920F936B
:102D50001F93F42E9B01DC010D900020E9F78C01FC
:102D6000060F171FA81BB90BA61BB70B2F5F3F4FF2
:102D7000820F931FB801AD010E949023F801F082E9
:102D80001F910F91FF900895462FDC010D900020B8
:102D9000E9F71197A81BB90BBD010E94A61608956B
:102DA000282F8091770190917801019660E071E081
:102DB0000E943723FC0190937801809377018091E2
:102DC0007501909176018E179F0759F4009719F4B9
:102DD0008FEF90E001C00197909378018093770185
:102DE0000895E758FE4F2083089520917501309192
:102DF000760180917701909178012817390711F4B5
:102E000080E00895C901019660E071E00E943723D7
:102E1000FC019093760180937501E758FE4F808105
:102E2000089540E0209175013091760180917701FD
:102E3000909178012817390709F441E0842F08950B
:102E400080917401882319F440E050E00FC040E005
:102E500050E0209175013091760180917701909139
:102E600078012817390711F441E050E0842F0895C4
:102E7000809374010895982F81568A3118F4292F70
:102E80002D5510C0892F81548A3120F4292F2D53BC
:102E900032E009C0892F8153893010F020E002C050
:102EA000292F235130E0892F992787FD9095A92F4D
:102EB000B92FFC01B097EF35F10508F048C0E65D89
:102EC000FF4FEE0FFF1F0590F491E02D09942EE1C6
:102ED00041C02FE13FC020E23DC021E23BC022E2E1
:102EE00039C023E237C024E235C025E233C026E2F0
:102EF00031C027E22FC02CE22EC02DE22CC02DE2E3
:102F000029C02EE228C02EE225C02FE224C02FE2E5
:102F100021C020E320C020E31DC021E31CC021E329
:102F200019C023E318C023E315C024E314C024E32D
:102F300011C025E310C025E30DC026E30CC026E335
:102F400009C027E308C027E305C028E304C0222303
:102F500011F428E332E0832F922F089527E2FBCF6C
:102F60000F931F9301E711E090E0B8014AE050E0B1
:102F70000E94A223C8011F910F910895209175010D
:102F80003091760180917701909178012817390767
:102F900039F480E3E1E4F1E0DF011D928A95E9F77D
:102FA00008951F93CF93DF930E94F516182FC1E465
:102FB000D1E0882331F480E3FE0111928A95E9F78C
:102FC00012C0FE0101900020E9F73197E154F14071
:102FD000CE016E2F412F0E946C16BC0197FD05C0DB
:102FE000CE010E94921680E005C0CE01612F0E94A2
:102FF000C41681E0912FDF91CF911F91089580E059
:1030000090E0FC01E554FB4F1082FC01E352FB4FC2
:103010001082019681319105A1F78AE08093DE004C
:10302000089581E080937B02EDEDF4E080818823B8
:1030300019F010927B0205C0319684E0EE3EF8074D
:10304000A9F780917B0208958CEC94E008958F920B
:103050009F92AF92BF92DF92EF92FF920F931F93D6
:10306000CF93DF93DD24C0E0D0E021E0E22EF12C0D
:1030700097E1892E912C8FE0A82EB12C87010C2E80
:1030800002C0000F111F0A94E2F707BB802F809542
:1030900088BB81E090E00E94C421ADEDB4E0FD0169
:1030A00040E050E0302F3095842F483048F429B369
:1030B000C701042E02C0880F991F0A94E2F711C0BD
:1030C0008850883018F423B3C50102C020B3C4016E
:1030D000841B950BB70102C0660F771F8A95E2F734
:1030E000CB01209528239081802F892319F022235A
:1030F00029F008C0222331F0902B01C09323908344
:10310000DD24D3944F5F5F4F31964131510561F615
:103110002196C830D10509F0B1CFDD2019F0109209
:10312000DD0007C08091DD00843618F48F5F809346
:10313000DD009091DD008091DE00981711F080E0B5
:1031400029C0ECECF4E050E040E09C91423028F0E3
:10315000952780818923808301C090838081582BAB
:1031600040E020E030E0652F70E0CB01022E02C08D
:10317000959587950A94E2F780FD4F5F2F5F3F4F4B
:103180002830310591F73196119674E0ED3DF7073F
:10319000E1F681E0DF91CF911F910F91FF90EF90C9
:1031A000DF90BF90AF909F908F9008951F930E94E3
:1031B000D8150E942718182F0E941F160E94930FDF
:1031C000811110E0812F1F9108954F925F926F92AD
:1031D0007F929F92AF92BF92CF92DF92EF92FF9237
:1031E0000F931F93CF93DF93EE24FF2451E0C52E5E
:1031F000D12C47E1442E512C3FE0632E712C6FC03F
:103200000C2F80917A026C2F492D0E948515182F62
:10321000865D803128F4E12FF0E0E457F040108122
:10322000812F865F823060F01E3F51F0183F41F0E1
:103230001B3F09F048C080917A02823009F043C0F8
:10324000A7BAB8BA81E090E00E94C421083048F4DF
:1032500029B3C6010C2E02C0880F991F0A94E2F709
:1032600011C00850083018F423B3C30102C020B3C2
:10327000C2018C1B9D0BA60102C0440F551F8A95ED
:10328000E2F7CA0120952823F1F01E3F61F0183FB4
:1032900009F444C0173F49F480917B02882399F0D8
:1032A00081E080937C0291E03DC0163F41F4809123
:1032B0007B02882341F082E080937C022FC01B3F79
:1032C00011F490E02FC02196C131D10509F098CFBB
:1032D0000894E11CF11C58E0E516F10471F09E2CF5
:1032E000C6010E2C02C0880F991F0A94E2F7A82E7F
:1032F000B82EB094C0E0D0E083CF0E94111888238C
:1033000011F010927C0290917C02992359F48091E3
:103310007902813029F482E080937A0292E002C03F
:1033200010927A02892FDF91CF911F910F91FF9018
:10333000EF90DF90CF90BF90AF909F907F906F9075
:103340005F904F9008950F931F93182F062F8E3F75
:1033500009F443C00E944D0B0023C1F10E947D0C73
:103360001C3F49F080917D028823B9F01A32A9F4FC
:103370001092790206C08091790291E089278093AA
:10338000790280917902882341F50E94930B80FF96
:1033900002C0959A22C0959820C0193221F481E08C
:1033A00080937D021DC0882311F0193311F01D3F59
:1033B00019F40E940A0C11C01A3F19F40E94360C2D
:1033C0000CC0193F61F40E941D0C07C01C3F29F07E
:1033D000193229F410927D0202C080E001C081E020
:1033E0001F910F910895282F8F3F31F410927F0283
:1033F00081E08093890208958E3F21F08D3F29F46A
:1034000010927F0210928902089580918902882388
:1034100051F080917F02E82FF0E0ED5AFC4F2083BD
:103420008F5F80937F02809187029091880201963E
:1034300068EC70E00E943723FC019093880280932F
:10344000870280918502909186028E179F0759F41A
:10345000009719F487EC90E001C0019790938802DF
:10346000809387020895E657FD4F208308952091A9
:1034700085023091860280918702909188022817F8
:10348000390711F480E00895C901019668EC70E0F5
:103490000E943723FC019093860280938502E657B1
:1034A000FD4F8081089540E0209185023091860291
:1034B00080918702909188022817390709F441E02A
:1034C000842F08951092860210928502109288022D
:1034D0001092870210927F021092800210925D0378
:1034E00010925E0310925F0310926003EBEBF4E026
:1034F000119284E0EC3CF807D9F70895EFEEF4E080
:10350000119285E0EF39F807D9F72AEB32E006C0CF
:10351000FC01E151FB4F808182608083F90184913D
:1035200090E02F5F3F4F009799F72DEB32E006C0F8
:10353000FC01E151FB4F808184608083F90184911B
:1035400090E02F5F3F4F009799F721EC32E006C0E3
:10355000FC01E151FB4F808188608083F9018491F7
:1035600090E02F5F3F4F009799F726EC32E006C0BE
:10357000FC01E151FB4F808181608083F9018491DE
:1035800090E02F5F3F4F009799F724EF32E006C09D
:10359000FC01E151FB4F808180618083F9018491BE
:1035A00090E02F5F3F4F009799F7EBEBF4E011921B
:1035B00084E0EC3CF807D9F708950E94111790E0D9
:1035C000882309F491E0892F089581E08093A40372
:1035D0000E94B60E0E945C160895FF920F931F93EF
:1035E000CF93DF93F62E0E943F0B182F853D08F0F6
:1035F000A6C087568830D0F4E12FF0E09091840285
:10360000FF2039F0EE0FFF1FE151F0408081982B31
:1036100007C0EE0FFF1FE151F04080818095982395
:1036200090938402809184020E94730F812F90E016
:10363000FC01EE56FE4F0491FF2009F450C0109398
:10364000520310925D0310925E0310925F0310927A
:1036500060031092A005EC01C151DB4F888181FF0E
:103660002EC0163421F0183409F069C00EC08FEF57
:103670000E94F31980EE0E94F31982E10E94F3196F
:1036800080EE0E94F3198CE726C08DEF0E94F3199B
:1036900081EE0E94F31984E10E94F31987E70E94EA
:1036A000F31981EE0E94F31980EF0E94F31984E16F
:1036B0000E94F31980EF0E94F31987E73BC082FD57
:1036C00038C08FEF0E94F319888180FF03C080EE1D
:1036D0000E94F319802F0E94F3198EEF2BC0809166
:1036E0005203811711F410927F02E12FF0E0E151B3
:1036F000FB4F808181FF13C0163409F580EE0E94D4
:10370000F31980EF0E94F3198CE70E94F31980EE01
:103710000E94F31980EF0E94F31982E10BC082FD31
:103720000EC080FF03C080EE0E94F31980EF0E945C
:10373000F319802F0E94F3198CEF0E94F319DF9187
:10374000CF911F910F91FF90089588E660E00E944D
:10375000ED1A87E660E00E94ED1A89E660E00E94BB
:10376000ED1A0895DF92EF92FF920F931F93082FA7
:10377000162FE42ED22E0E94A319F82E112329F021
:103780008DEE9AE161E00E94280B0E946B0F882366
:1037900039F0802F6E2D4D2D212F0E94591202C01D
:1037A000FF2011F480E005C0802F612F0E94ED1AE8
:1037B00081E01F910F91FF90EF90DF9008954F925D
:1037C0005F926F927F928F929F92AF92BF92CF92B1
:1037D000DF92EF92FF920F931F93CF93DF930E949C
:1037E0001117882349F081E00E9438170E94D618EB
:1037F000882309F4CEC014C080E00E9438170E94CC
:10380000D117813041F4892F61E00E94ED1A8DEFCC
:103810000E94F319BEC0892F60E00E94ED1AB9C062
:103820000E94E518782E0E9424184C018091830292
:10383000871509F446C0EE24FF2441E0442E512CA4
:1038400034C0F401EC0FFD1F0081FE01E554FB4F75
:1038500080818B21F9F0809183026C2F4C2D0E9486
:103860008515D82E872D6C2F4C2D0E948515182F6D
:10387000D81681F0882371F08D2D60E04C2D2C2F0F
:103880000E94B21B0B2131F0812F61E04C2D2C2FB7
:103890000E94B21B2196C131D10599F60894E11C12
:1038A000F11C88E0E816F10461F0CE2CC2010E2C68
:1038B00002C0880F991F0A94E2F7B82EC0E0D0E04A
:1038C000C0CF70928302AA24A394CC24DD2431E0DB
:1038D000432E512C40C0EC2EFE01E554FB4FF080EE
:1038E000F401EC0FFD1F00810621872D6C2F4B2D5D
:1038F0000E948515182F002339F0882329F00E9493
:10390000C015882309F045C0F620F016C9F00E94C2
:10391000A421882339F00023B9F08E2D6B2D0E944D
:10392000A72112C0112361F0002319F0812F61E05B
:1039300002C0812F60E04B2D2E2D0E94B21BA822C9
:103940002196C131D10539F60894C11CD11C88E0FB
:10395000C816D10461F0BC2CC2010C2C02C0880F27
:10396000991F0A94E2F7682EC0E0D0E0B4CF20E0BF
:1039700030E0F901E554FB4FD401A20FB31F8C9145
:1039800080832F5F3F4F2131310599F72A2D30E099
:1039900002C020E030E0C901DF91CF911F910F916B
:1039A000FF90EF90DF90CF90BF90AF909F908F905F
:1039B0007F906F905F904F9008951F93162F8E3FCA
:1039C00011F080939F050E94A9081093A0051F91F4
:1039D00008958F929F92AF92BF92CF92DF92EF9213
:1039E000FF920F931F9388E08093A0050E94B50972
:1039F0000E947E1A0E94FF170E94621A789416E9AC
:103A0000812E99249394B5E0AB2EB12CC12CD12CEE
:103A10008091EB008823F9F48091A4038823D9F4E2
:103A20008091A2039091A30301969093A3038093A6
:103A3000A2030197815D974074F081E08093EB00D1
:103A40001F910F91FF90EF90DF90CF90BF90AF90BC
:103A50009F908F9008958091B20382FFC0C08091A3
:103A60008102909182028C3F910561F02091850244
:103A70003091860280918702909188022817390739
:103A800009F0ADC00E94B808182F6091A0056230FF
:103A900009F457C0633018F4613039F44CC0663013
:103AA00009F48DC0673009F455C0133F71F1143F1C
:103AB00060F41E3EC9F01F3E18F41D3EA9F522C059
:103AC000103FE9F0123F81F511C0163F09F1173F91
:103AD00030F4143F09F481C0153F31F57EC01E3F1C
:103AE00059F01F3F09F505C08EEE72C18AEF64E000
:103AF0006FC18AEF68E06CC180919F0569C18AEF50
:103B000062E066C18AEF66E063C18AEF67E060C188
:103B10009092DF00A092E000B092E100C092E2003B
:103B2000D092E3000E94621A8AEF60E00E94DD1CDE
:103B30000E94E51A6DCF853F09F44FC08AEF61E01E
:103B400047C10E94621A112311F060E001C063E0D6
:103B50008AEF3EC1682F70E0CB0180769070A5E0BF
:103B600095958795AA95E1F78093DF00AB014871A1
:103B70005070F3E055954795FA95E1F780E090E0B5
:103B800021E030E003C0220F331F01968417950710
:103B9000D4F367707070269FC001279F900D369FE9
:103BA000900D1124AA2797FDA095BA2F8093E000CD
:103BB0009093E100A093E200B093E3000EC00E9456
:103BC000E51A912F80E010FD84E091FD816092FD67
:103BD00082600E94900B0E94500C8AEFF8C0809186
:103BE000B20384FF15CF8091A005843009F4E7C0AB
:103BF000853030F4882371F0833009F009CFDDC0BF
:103C0000883009F4E1C08C3009F45FC0853009F0D8
:103C1000FFCED8C020918502309186028091870224
:103C2000909188022817390711F40E94DF1B8091B8
:103C300079020E94FA0D0E94371A282F30E0309343
:103C40008202209381022C3F310509F4E1CE232B1F
:103C500021F060E00E94DD1C60C080917F0288231B
:103C600009F4D6CE20915D0330915E0340915F034D
:103C7000509160032F5F3F4F4F4F5F4F20935D0385
:103C800030935E0340935F03509360038091DF00A5
:103C9000889DC00111248A519F4FAA2797FDA095A6
:103CA000BA2F281739074A075B070CF4B1CE1092D8
:103CB0005D0310925E0310925F03109260031092F6
:103CC00080028CE08093A005A3CE8091800288239F
:103CD00011F40E94DF1B809179020E94FA0D8091FD
:103CE0007F028823C1F02091850230918602809165
:103CF0008702909188022817390769F480915D0343
:103D000090915E03A0915F03B09160030197A105BC
:103D1000B10561F40FC01092A00510925D031092DE
:103D20005E0310925F031092600372CE8091800256
:103D30008823A9F090918002E92FF0E0ED5AFC4F22
:103D400080819F5F909380026CE00E94DD1C6091F7
:103D50007F02809180020E94172390938002E0905E
:103D60005D03F0905E0300915F031091600308947F
:103D7000E11CF11C011D111D6091E0007091E1003A
:103D80008091E2009091E3002AE030E040E050E0D2
:103D90000E94F8229B01AC012D5F3F4F4F4F5F4FB8
:103DA000C801B7010E946C2360935D0370935E03AA
:103DB00080935F03909360032BCE82E008C08BEA70
:103DC00065E006C083E803C00E94621A8AEA60E0E8
:103DD0000E94DD1C1DCE80916303882331F40E9474
:103DE000111720E030E0882311F421E030E0822F29
:103DF000089588E0E6E6F3E0DF011D928A95E9F791
:103E000081E080936603089580E3EFE6F3E0DF014D
:103E10001D928A95E9F708950E943F0B982F853DE2
:103E200008F042C081578A3198F481E080936103A1
:103E3000E92FF0E0EE0FFF1FE05AFE4F259134917D
:103E400082E08093660320936703309368032CC05D
:103E5000892F8756883068F4E92FF0E0EE0FFF1FB6
:103E6000E151F040808190916703892B8093670333
:103E70001BC09923C9F02091A1052830A8F4892FEF
:103E80008D58823248F4E92FF0E0EE0FFF1FE45A1C
:103E9000FE4F85919491982FE22FF0E0EA59FC4F64
:103EA00090832F5F2093A10580E00895AF92BF9289
:103EB000CF92DF92EF92FF921F93CF93DF930E94F6
:103EC0001117882309F047C00E94F91E0E94D117DC
:103ED000E1E4F1E0DF010D900020E9F71197AE1B5E
:103EE000BF0B82E08093A105EF01EA2EFF246F0152
:103EF000CE0CDF1C3FE6A32E33E0B32E1AC0188190
:103F0000812F8756883080F0F50101900020E9F775
:103F10003197EF56F3408FE693E06E2F412F0E94CA
:103F20006C168F5F9F4F21F4812F61E00E940C1F60
:103F3000219641E451E0CC15DD0509F781E080933D
:103F400063032FE633E0F7013196C901BA01AF01EF
:103F50000E94872308C080916303882321F00E9478
:103F6000F91E1092630381E0DF91CF911F91FF90C2
:103F7000EF90DF90CF90BF90AF9008953F924F9217
:103F80005F926F927F928F929F92AF92BF92CF92E9
:103F9000DF92EF92FF920F931F93DF93CF9300D0A6
:103FA0000F92CDB7DEB70E94D618882309F4CCC093
:103FB0000E94E518382E82E08093A1050E94F91E28
:103FC0000E9424183C0119829924CC24DD2441E06C
:103FD000442E512C76C0BA80EA81FB81E554FB4F18
:103FE0000081EA81FB81E60DF71DF080F820832D2A
:103FF0006B2D4A2D0E948515182FFF2039F088233C
:1040000029F00E94C015882309F09EC0E82CE02208
:10401000EF1409F440C00E94A421882349F0FF2036
:1040200021F08B2D6A2D0E94A7210E94540F42C0BF
:10403000112309F49FC0FF2069F0812F61E00E94E5
:10404000A319082F0E94540F8CE09FE161E00E94A9
:10405000280B07C0812F60E00E94A319082FEE20D3
:10406000C1F00E946B0F8823A1F0FF2049F0812F3F
:104070006A2D4B2D21E00E94591281E0898312C0E4
:10408000812F6A2D4B2D20E00E94591291E09983D7
:1040900009C0002339F0FF2029F0812F61E00E9440
:1040A0000C1F982AEA81FB813196FB83EA83719782
:1040B00009F091CF0894C11CD11CF8E0CF16D104AF
:1040C00061F0AC2CC2010C2C02C0880F991F0A941D
:1040D000E2F7882E1B821A827ECF809166038130A0
:1040E00069F49091670380916403981739F0892FE0
:1040F0000E94730F80916703809364038091610332
:10410000882369F080916603823049F082E08093D1
:10411000660310926703109268031092610320E017
:1041200030E0F901E554FB4FD301A20FB31F8C918E
:1041300080832F5F3F4F2131310599F7898181308D
:1041400019F0892D816001C080E00F900F900F90D1
:10415000CF91DF911F910F91FF90EF90DF90CF9063
:10416000BF90AF909F908F907F906F905F904F9097
:104170003F90089501E075CFEF92FF920F931F9348
:104180000E94CB09789400E010E0EE24E394809143
:10419000EB008130D9F48091A4038823B9F4809195
:1041A000A2039091A30301969093A3038093A2038B
:1041B0000197815D974054F01092EB008BB78F7B95
:1041C0008BBF1F910F91FF90EF9008950E94D80927
:1041D000002399F40E94BE1F082F08B600FE0FC0EE
:1041E000E8BEF0906E03FF2051F0153010F401E0AE
:1041F00007C05BEFF52EF10E03C00E94BE1FF12E2B
:104200008091BE0384FF2EC080916203882361F0F9
:10421000109262030E94F91E86E693E068E00E9415
:10422000020B0E945C161EC00E94EB1E882341F008
:104230000E94561F86E693E068E00E94020B12C0BF
:10424000002381F080916603823021F486E693E0BA
:1042500063E005C0813029F486E693E068E00E94BF
:10426000020B00E00E942D0F809179020E94FA0D4E
:104270000E94EB1E882311F080E001C081E00E94C3
:1042800038171F2D84CF81E0809362030E94B60E01
:104290000E94540F0895CF93DF9321E02093A4034D
:1042A000EC01809166038093CD031092CE03888148
:1042B0008076803271F58981813011F488E02AC0DE
:1042C000893041F48E819F81029719F5209365030F
:1042D0008FEF20C0823019F480916E0314C08A30B1
:1042E00031F40E9443218B8180936E0312C083308E
:1042F00031F48B81882369F41092E4000BC08B3079
:1043000041F48091E4008093CD031092CE0381E0CC
:1043100001C080E0DF91CF910895FC018091650399
:10432000882351F0623041F48081813029F4818109
:104330000E94900B0E94500C1092650381E008953A
:1043400081E080939F03089580919F0308950F93C8
:104350001F93082F162F85EE90E00E94A710812F43
:104360000E94B0170E94A71087EE90E00E94A7104D
:10437000802F0E94B0170E94A71089EE90E00E9443
:10438000A7101F910F9108950F931F930091A00301
:104390001091A103039665E070E00E94232380E062
:1043A00090E02CE030E040E050E00E94F822060F60
:1043B000171F1093A1030093A0031F910F9108955D
:1043C0008E98969A08958E9A969808951F9310E065
:1043D000812F0E94EB051F5F1730D1F789B78E7FC1
:1043E00089BF89B78B7F89BF89B78F7B89BF1F91B1
:1043F00008959FEF97BB98BB1ABA14BA9BBB95BBA5
:1044000091BB91B39F7391BB12BA92B3906C92BB64
:1044100091B3986391BB92B3977C92BB882379F058
:104420008BE090E00E94C42181B38A7F81BB83B777
:10443000856083BF0E94E6218E98969A08958E9A91
:1044400096980895F8940E94960B1092A3031092E8
:10445000A2031092A40308958F929F92AF92BF92ED
:10446000CF92DF92EF92FF920F931F93CF93DF9340
:104470008FEF8093EB0087BB88BB1ABA14BA8BBB53
:1044800085BB11BA80E882BB81E090E00E94C42124
:1044900010E00E942718882319F41F5F1E31C9F706
:1044A0000E9424185C01FF2400E010E091E0892EB6
:1044B000912C2AC0F501EC0FFD1F80818E21B9F0EF
:1044C000C13029F4013019F40E94A02110C0F60176
:1044D0008491803119F40E94960F09C0883119F433
:1044E000F1E0FF2A04C0833111F482E0F82A21961A
:1044F000E8E0F0E0CE0EDF1EC131D105D9F60F5F46
:104500001F4F0830110589F0C401002E02C0880F2A
:10451000991F0A94E2F7E82E83E0C82E83E0D82E94
:10452000C00ED11EC0E0D0E0C5CFFF2019F0F3943B
:10453000F092EB006091EB00643021F48CE090E0AD
:104540006FEF04C0643028F48CE090E00E94CC252A
:1045500006C08CE090E00E94C4258093EB008A980E
:10456000929A2091EB002430D0F080E090E0829984
:1045700007C092FD09C08F5F863060F021E00AC05D
:10458000829B09C092FD02C080E004C08F5F86302C
:1045900008F020E090B3223050F72093EB00CCE2FB
:1045A000D1E08091EB008150823038F40E942222C9
:1045B00081E00E94F9210E94BC208091EB008823B9
:1045C00011F0833071F782B3806382BB88EE93E091
:1045D000FE013197F1F70197D9F782B38F7C82BB47
:1045E0000E94222280E00E94F9210E94E91CD9CF7A
:1045F000629FD001739FF001829FE00DF11D649FC7
:10460000E00DF11D929FF00D839FF00D749FF00D52
:10461000659FF00D9927729FB00DE11DF91F639FF3
:10462000B00DE11DF91FBD01CF0111240895991BA3
:1046300079E004C0991F961708F0961B881F7A9599
:10464000C9F780950895AA1BBB1B51E107C0AA1F9B
:10465000BB1FA617B70710F0A61BB70B881F991F23
:104660005A95A9F780959095BC01CD01089597FBC7
:10467000092E07260AD077FD04D0E5DF06D00020FA
:104680001AF4709561957F4F0895F6F7909581958E
:104690009F4F0895A1E21A2EAA1BBB1BFD010DC05E
:1046A000AA1FBB1FEE1FFF1FA217B307E407F507E2
:1046B00020F0A21BB30BE40BF50B661F771F881FBE
:1046C000991F1A9469F760957095809590959B0154
:1046D000AC01BD01CF01089597FB092E05260ED030
:1046E00057FD04D0D7DF0AD0001C38F45095409510
:1046F000309521953F4F4F4F5F4F0895F6F79095B6
:104700008095709561957F4F8F4F9F4F0895FB0166
:10471000DC0102C001900D9241505040D8F708953D
:104720006817790768F4FB01DC01E40FF51FA40F9B
:10473000B51F02C002900E9241505040D8F7089524
:104740000C948723FB019F01E8944230C4F045326A
:10475000B4F44A3029F497FB1EF4909581959F4F4D
:10476000642F77270E942323805D8A330CF0895DB4
:104770008193CB010097A1F716F45DE2519310826B
:10478000C9010C94EF25AEE0B0E0E9ECF3E20C9443
:1047900097260D891E8986E08C831A8309838FEF03
:1047A0009FE79E838D839E01275E3F4FCE0101963A
:1047B0006F89788DA9010E94E7232F813885020F28
:1047C000131FF80110822E96E4E00C94B326ABE0A0
:1047D000B0E0EDEEF3E20C9489263C012B015A0186
:1047E000FC0117821682838181FD03C06FEF7FEF8A
:1047F000C6C19AE0892E1E010894211C311CF301C8
:104800002381F20123FD859123FF81912F018823CC
:1048100009F4B2C1853239F423FD859123FF8191DA
:104820002F01853229F490E0B3010E94FF25E7CFE4
:10483000982FFF24EE249924FFE1FF15D0F09B323E
:1048400069F09C3228F4903259F0933291F40EC002
:104850009D3249F0903369F441E024C052E0F52ADA
:1048600084E0F82A28C098E0F92A25C0E0E1FE2A71
:1048700022C0F7FC29C0892F80538A3070F4F6FEDD
:1048800005C0989C902C1124980E15C0E89CE02C33
:104890001124E80EF0E2FF2A0EC09E3229F4F6FC45
:1048A0006BC140E4F42A07C09C3619F450E8F52A9D
:1048B00002C0983649F4F20123FD959123FF9191AE
:1048C0002F01992309F0B8CF892F8554833018F030
:1048D0008052833038F444E050E0A40EB51E5FE30C
:1048E00059830FC0933631F0933779F0933509F03F
:1048F00056C020C0F5018081898342E050E0A40EBB
:10490000B51E610101E010E012C0F501C080D18048
:10491000F6FC03C06FEF7FEF02C0692D70E042E04C
:1049200050E0A40EB51EC6010E94E4258C015FE78D
:10493000F52214C0F501C080D180F6FC03C06FEFF2
:104940007FEF02C0692D70E042E050E0A40EB51E7A
:10495000C6010E94D9258C0150E8F52AF3FE07C054
:104960001AC080E290E0B3010E94FF25EA948E2DE8
:1049700090E008171907A8F30EC0F601F7FC85911F
:10498000F7FE81916F0190E0B3010E94FF25E110D5
:10499000EA94015010400115110579F7EAC09436E8
:1049A00011F0993669F5F7FE08C0F50120813181D3
:1049B0004281538184E090E00AC0F50180819181B9
:1049C0009C01442737FD4095542F82E090E0A80ECB
:1049D000B91E9FE6F92257FF09C0509540953095C2
:1049E00021953F4F4F4F5F4FE0E8FE2ACA01B901C2
:1049F000A1012AE030E00E942B26D82ED21840C018
:104A0000953729F41F2D1F7E2AE030E01DC01F2D91
:104A1000197F9F3661F0903720F4983509F0ACC0CB
:104A20000FC0903739F0983709F0A6C004C028E0CD
:104A300030E00AC0106114FD146020E130E004C0D1
:104A400014FD166020E132E017FF08C0F501608117
:104A500071818281938144E050E008C0F50180813A
:104A60009181BC0180E090E042E050E0A40EB51ED0
:104A7000A1010E942B26D82ED2188FE7F82EF12202
:104A8000F6FE0BC05EEFF522D91438F4F4FE07C031
:104A9000F2FC05C08FEEF82202C01D2D01C0192DB9
:104AA000F4FE0DC0FE01ED0DF11D8081803319F47F
:104AB00099EEF92208C01F5FF2FE05C003C08F2DDA
:104AC000867809F01F5F0F2DF3FC14C0F0FE0FC0B5
:104AD0001E1510F09D2C0BC09D2C9E0C911A1E2DA6
:104AE00006C080E290E0B3010E94FF251F5F1E1503
:104AF000C0F304C01E1510F4E11A01C0EE2404FF37
:104B00000FC080E390E0B3010E94FF2502FF1DC0AB
:104B100001FD03C088E790E00EC088E590E00BC07F
:104B2000802F867891F001FF02C08BE201C080E205
:104B3000F7FC8DE290E0B3010E94FF2506C080E300
:104B400090E0B3010E94FF259A94D914C0F3DA943F
:104B5000F101ED0DF11D808190E0B3010E94FF2570
:104B6000DD20A9F706C080E290E0B3010E94FF2596
:104B7000EA94EE20C1F743CEF30166817781CB0141
:104B80002B96E2E10C94A526E199FECF9FBB8EBB4C
:104B9000E09A99278DB30895262FE199FECF9FBB08
:104BA0008EBB2DBB0FB6F894E29AE19A0FBE019628
:104BB0000895FC010590615070400110D8F7809570
:104BC00090958E0F9F1F0895FC01615070400190D9
:104BD0000110D8F7809590958E0F9F1F0895DC01E6
:104BE000FC01672F71917723E1F7329704C07C9124
:104BF0006D9370836291AE17BF07C8F308950F934A
:104C00001F93CF93DF938C01EB018B8181FF1BC03E
:104C100082FF0DC02E813F818C819D81281739072D
:104C200064F4E881F9810193F983E88306C0E8859B
:104C3000F985802F0995892B31F48E819F8101960A
:104C40009F838E8302C00FEF1FEFC801DF91CF91CA
:104C50001F910F910895FA01AA27283051F12031B0
:104C600081F1E8946F936E7F6E5F7F4F8F4F9F4F00
:104C7000AF4FB1E03ED0B4E03CD0670F781F891F42
:104C80009A1FA11D680F791F8A1F911DA11D6A0F10
:104C9000711D811D911DA11D20D009F468943F91C3
:104CA0002AE0269F11243019305D3193DEF6CF01C2
:104CB0000895462F4770405D4193B3E00FD0C9F788
:104CC000F6CF462F4F70405D4A3318F0495D31FDF5
:104CD0004052419302D0A9F7EACFB4E0A695979548
:104CE000879577956795BA95C9F70097610571051E
:104CF00008959B01AC010A2E069457954795379568
:104D00002795BA95C9F7620F731F841F951FA01DC1
:104D100008952F923F924F925F926F927F928F925F
:104D20009F92AF92BF92CF92DF92EF92FF920F933A
:104D30001F93CF93DF93CDB7DEB7CA1BDB0B0FB644
:104D4000F894DEBF0FBECDBF09942A883988488801
:104D50005F846E847D848C849B84AA84B984C88497
:104D6000DF80EE80FD800C811B81AA81B981CE0F8E
:104D7000D11D0FB6F894DEBF0FBECDBFED01089573
:044D8000F894FFCFD5
:104D84005AFFFEFEF8F86C6C68686D6D69696B6BB0
:104D940067678E8D8E8D8E8D8E8D8E8D8E8D8E8D84
:104DA4008E8DFF00080701FF2563002564002C2079
:104DB4000020286C617965723D0020646566617528
:104DC4006C743D00206D617070696E673D00290050
:104DD400271E1F20212223242526298813010002AF
:104DE40000040008001000200040008000000100C2
:104DF400020004000800100020004000800A0502A0
:0C4E040005000000012D002C003D00FF07
:00000001FF
