:100000000C942A030C9462030C9447030C9447034A
:100010000C94B0070C94BC060C9483070C9429072D
:100020000C9456070C948F060C94FC060C943C061A
:100030000C9447030C9447030C9447030C94470318
:100040000C9447030C9447030C9447030C94470308
:100050000C9447036F175B178B175F1761176317B4
:10006000671789176B176D1769177717911771172E
:1000700095179917A2179B179B179B179B179B17F1
:100080009B179B179B179B17871785179317751738
:1000900097179D175D179B179B179B179B179B1710
:1000A0009B179B179B179B179B179B179B179B17C0
:1000B0009B179B179B179B179B179B179B179B17B0
:1000C0009B179B179B179B179B17791781177D17FA
:1000D000651773178D179B179B179B179B179B17FC
:1000E0009B179B179B179B179B179B179B179B1780
:1000F0009B179B179B179B179B179B179B179B1770
:100100009B179B179B179B179B177B1783177F17B3
:100110008F170000010008004000000100040000EB
:1001200001000800200040008000000100040403DA
:1001300009041C03770069006E006B0065007900FC
:100140006C006500730073002E006B0072001003DA
:1001500070007300320061007600720055001201D9
:10016000100100000008424231E1000101020001DB
:100170000902220001010080FA09040000010301C4
:100180000100092101010001225500070581030832
:10019000000A0000FC001C322123242B3433433B93
:1001A000424B3A31444D152D1B2C3C2A1D22351A49
:1001B000161E26252E363D3E46455A76660D294E9C
:1001C00055545B5D5D4C520E41494A580506040C7E
:1001D000030B830A010978077C7E7C706C7D716952
:1001E0007A746B7275774A7C7B795A69727A6B7311
:1001F000746C757D7071612F001412111F145911E8
:10020000270000373F5E48103A38302820184D1537
:100210003B34233221502B404B1C43221D0000F164
:10022000F2370F08101820283038404850575F6DBB
:100230000051136A64672700000063625F000000DA
:1002400000000000000000008A01210223022402B5
:100250002502260227022A02B500B600B700CD000B
:10026000E200E900EA00830192019401000000002D
:100270000000000000009100900066006700680028
:1002800069006A006B006C006D006E006F0070000A
:100290007100720073008500860087008800890065
:1002A0008A008B008C008D008E008F0092009300DE
:1002B00094009500960097009800464800488E8D5F
:1002C000007172738F006A6B6E6D6546494A4B4CC4
:1002D0004D4E52504F5154587172737475767778F1
:1002E000797A7B7C7D7E7F80818283848586878806
:1002F000898A8F00494C4A4D4B4E6A6E65504F5269
:1003000051540073656C656374206D6F64650031D2
:100310003A4B6579204D617070696E6700323A4DD5
:100320006163726F00333A4578697400343A626FE2
:100330006F74206D617070657200676F6F6420620A
:1003400079657E00626F6F74206D617070657220D8
:10035000737461727421004D6163726F00313A539E
:10036000656C656374204D6163726F20496E6465CE
:100370007800323A4578697400393A436C656172A5
:1003800020416C6C00363A4261636B004B6579200A
:100390004D617070657200313A4368616E67652027
:1003A0004C6179657200323A53656C656374204B19
:1003B0006579202D20696E707574206B6579636F87
:1003C000646500333A5361766520616E6420457838
:1003D000697400343A4578697420776974686F7578
:1003E0007420536176696E6700393A52657365749B
:1003F00020746F2044656661756C742028437572A3
:1004000072656E74204C6179657229007073326177
:100410007672550063686F6F7365206C61796572E1
:100420002028313A206E6F726D616C2C20323A2098
:10043000464E2C20333A20464E3229206375727284
:10044000656E743D200073656C656374206B65791F
:100450002028616E79206B657920796F752077612E
:100460006E74292000696E707574206B6579636FF6
:10047000646520286D7573742033206E756D626518
:10048000727329203A200053617665202620457832
:1004900069742C207468616E6B20796F752E00452D
:1004A00078697420776974686F7574205361766910
:1004B0006E672C2073656520796F75206C6174659B
:1004C000722E00526573657420746F2064656661D6
:1004D000756C742063757272656E74206C617965D9
:1004E0007200496E70757420436F6D6D616E64208B
:1004F0004E756D6265723A20006E6F7468696E6742
:1005000000536176652063757272656E74206C614C
:10051000796572004C6F61642063757272656E74E8
:10052000206C6179657200736176696E672E2E2E7C
:1005300000636F6C2C20726F77203A2000696E7612
:10054000616C6964206B6579636F64652C20696EEA
:1005500070757420616761696E2E00696E707574C4
:10056000204D6163726F20496E64657820283031B8
:100570007E31322C206D7573742032206E756D6261
:1005800065727329203A200045786974206D616393
:10059000726F2C2073656520796F75206C617465AE
:1005A000722E00696E707574206B657920286D61FC
:1005B00078203234206B6579732C2073746F70202F
:1005C0003A207072657373204553432064757269D5
:1005D0006E672031207365632900696E76616C69EE
:1005E0006420496E6465782C20696E707574206192
:1005F0006761696E2E00636C6561722E2E2E000598
:10060000010906A1018501050719E029E715002563
:1006100001750195088102950575010508190129E3
:10062000059102950175039103950675081500263D
:1006300091000507190029A48100C0050C0901A13A
:1006400001850219002A3C021500263C029501751D
:10065000108100C011241FBECFE5D8E0DEBFCDBFA2
:1006600012E0A0E6B0E0E8EFFFE402C005900D92D2
:10067000A23EB107D9F717E0A2EEB2E001C01D9289
:10068000AA39B107E1F70E94DA220C94FA270C94F8
:100690000000A82FB92F80E090E041E050EA60957B
:1006A00030E009C02D9182279795879510F0842717
:1006B0009527305EC8F36F5FA8F30895EADF8D9346
:1006C0009D930895CF93CFB7CF93C395839BE9F7BD
:1006D000839B09C0839B07C0839B05C0839B03C08A
:1006E000839B01C0A3C0DF93C091BE05DD27CB5320
:1006F000DA4F839B02C0DF91EBCF2F930F931F93B1
:1007000000B32FEF03FB20F94F933F9310B34FEF4C
:10071000012703FB21F93BE031C04E7F012F10B3CD
:10072000216028C0102F4D7F2260000000B329C037
:100730004B7F2460012F000010B32BC010B3477F04
:1007400028602AC04F7E00B320612CC04F7D10B3BB
:1007500020622FC04F7B00B3206432C0422700B319
:1007600049934FEF0000102713FB20F910B31C70C2
:10077000C9F1297F91F2012703FB21F900B3237FFF
:1007800089F2315058F1102713FB22F910B3277E5C
:1007900079F2012703FB23F92F7C81F200B31027A4
:1007A00013FB24F92F7971F200C010B3012703FB6A
:1007B00025F92F7359F200C000B3102713FB26F957
:1007C000223040F200C010B3012703FB27F9243088
:1007D00028F64F77206810B30000F9CF10E41ABF55
:1007E000002719C03B503195C31BD04010E41ABFFD
:1007F0000881033CF9F00B34E9F02091BC05198124
:10080000110F1213EDCF4A81441F093641F10D3209
:1008100011F0013E29F70093C3053F914F911F91BD
:100820000F912F91DF91CAB7C6FD4FCFCF91CFBFA8
:10083000CF9118952091C305222379F31091C1051A
:10084000112369F534306AF13093C1052093BD0559
:100850001091BE053BE0311B3093BE0522C00091D4
:10086000C1050130E4F40AE54F7049F430916000AD
:1008700034FD19C000936000C5EAD5E018C030917E
:10088000B00534FD10C00093B005C1EBD5E00FC03A
:100890002795A8F45150A9F4220F0000F9CF4AE59A
:1008A00003C042ED01C0432FC4E1D0E032E011B3F8
:1008B0001C60939A11BB02B320E41CE05F930127F4
:1008C00056E002BB279520F4515021F4220FF9CFB6
:1008D000012756E000003B5A02BBD0F2279528F4CE
:1008E000515029F4220F0000F9CF012756E0279537
:1008F00002BB20F4515021F4220FF9CF012756E01A
:100900002991332302BB21F6037F1091C205110FF9
:10091000C651D04002BB11F01093BC0510E41ABFC1
:10092000086011B3137F402F437F5F9100C000C068
:1009300002BB11BB42BB71CF089583B7887F826031
:1009400083BF12BE89B7816089BF1092970510924C
:1009500098051092990510929A0508958EB5887F92
:1009600083608EBD1DBC1CBC89B7846089BF08959F
:1009700085B5887F846085BD14BC89B7806489BFD4
:1009800010929F051092A0051092A1051092A20549
:10099000089580E090E0FC01EE0FFF1FEE51FD4F47
:1009A00011821082019688309105A9F70E949D045A
:1009B0000E94AE040E94B8047894089593B7987F7B
:1009C000982B93BF08959EB5987F982B9EBD089550
:1009D00095B5987F982B95BD089583B7E82FF0E0E3
:1009E000E770F070EE0FFF1FEE5EFE4F2591349121
:1009F000C90108958EB5E82FF0E0E770F070EE0FB2
:100A0000FF1FEE5EFE4F25913491C901089585B513
:100A1000E82FF0E0E770F070EE0FFF1FE25EFE4F90
:100A200025913491C9010895883040F4E82FF0E011
:100A3000EE0FFF1FEE51FD4F7183608308958830E4
:100A400040F4E82FF0E0EE0FFF1FEE51FD4F118252
:100A500010820895EF92FF920F931F93CF93DF932D
:100A6000EC0112B710929B0510929C0510929D0507
:100A700010929E0583B7E82FF0E0E770F070EE0F5C
:100A8000FF1FEE5EFE4F2591349140E050E060E0A4
:100A90007BE187EB90E00E943A24B901CA01693BEF
:100AA0002DE8720726E0820720E09207A0F437E2E3
:100AB000C131D30780F49E0140E050E00E94E8235A
:100AC00028EE33E040E050E00E943A24C901DA0108
:100AD000BC01CD0121C028EE33E040E050E00E948F
:100AE0003A24CA01B9019E0140E050E00E94E82387
:100AF00013C080919B0590919C05A0919D05B0919C
:100B00009E0585B78F7885BF85B7806885BF889536
:100B100085B78F7785BF08C09B01AC01210F311DC0
:100B2000411D511D79018A0120919B0530919C0541
:100B300040919D0550919E0582B790E0A0E0B0E005
:100B4000542F432F322F2227822B932BA42BB52BEC
:100B50008E159F05A007B10760F2DF91CF911F911D
:100B60000F91FF90EF9008951092970510929805BD
:100B70001092990510929A05089520919705309149
:100B800098054091990550919A05B901CA010895B7
:100B900010929F051092A0051092A1051092A20537
:100BA000089520919F053091A0054091A105509195
:100BB000A205B901CA010895893031F48FB5826068
:100BC0008FBD8FB58E7F0AC08A3019F48FB58260D1
:100BD00002C08FB58D7F8FBD8FB581608FBD1BBC6F
:100BE0001ABC19BC18BC08952FB52E7F2FBD2FB588
:100BF00022602FBD2EB528602EBD2EB520612EBDE2
:100C000097BD86BD1BBC1ABC19BC18BC08958FB516
:100C10008D7F8FBD8FB58E7F8FBD8FB58F778FBD49
:100C20008FB58F7B8FBD8FB58F7D8FBD8FB58F7E3D
:100C30008FBD08958FB580688FBD8FB58F7B8FBDB9
:100C400008958FB580628FBD8FB58F7E8FBD08955B
:100C50008FB58F778FBD8FB58F7B8FBD08958FB583
:100C60008F7D8FBD8FB58F7E8FBD08959BBD8ABD53
:100C7000089599BD88BD08951F920F920FB60F92E7
:100C800011242F933F934F935F936F937F938F9391
:100C90009F93AF93BF93EF93FF93809197059091AC
:100CA0009805A0919905B0919A050196A11DB11DD5
:100CB0008093970590939805A0939905B0939A0512
:100CC00080919B0590919C05A0919D05B0919E05FA
:100CD0000196A11DB11D80939B0590939C05A09347
:100CE0009D05B0939E058091E2029091E302892BCD
:100CF00029F0E091E202F091E3020995FF91EF9172
:100D0000BF91AF919F918F917F916F915F914F9123
:100D10003F912F910F900FBE0F901F9018951F922B
:100D20000F920FB60F9211242F933F934F935F931F
:100D30006F937F938F939F93AF93BF93EF93FF93A3
:100D40008091E4029091E502892B29F0E091E40280
:100D5000F091E5020995FF91EF91BF91AF919F91BD
:100D60008F917F916F915F914F913F912F910F9054
:100D70000FBE0F901F9018951F920F920FB60F92F3
:100D800011242F933F934F935F936F937F938F9390
:100D90009F93AF93BF93EF93FF9380919F059091A3
:100DA000A005A091A105B091A2050196A11DB11DBC
:100DB00080939F059093A005A093A105B093A205F1
:100DC0008091EC029091ED02892B29F0E091EC02E8
:100DD000F091ED020995FF91EF91BF91AF919F9135
:100DE0008F917F916F915F914F913F912F910F90D4
:100DF0000FBE0F901F9018951F920F920FB60F9273
:100E000011242F933F934F935F936F937F938F930F
:100E10009F93AF93BF93EF93FF938091F0029091D4
:100E2000F102892B29F0E091F002F091F10209958D
:100E3000FF91EF91BF91AF919F918F917F916F91B2
:100E40005F914F913F912F910F900FBE0F901F9088
:100E500018951F920F920FB60F9211242F933F9364
:100E60004F935F936F937F938F939F93AF93BF93B2
:100E7000EF93FF938091E6029091E702892B29F08E
:100E8000E091E602F091E7020995FF91EF91BF91A1
:100E9000AF919F918F917F916F915F914F913F9112
:100EA0002F910F900FBE0F901F9018951F920F92C9
:100EB0000FB60F9211242F933F934F935F936F932D
:100EC0007F938F939F93AF93BF93EF93FF93809103
:100ED000E8029091E902892B29F0E091E802F09173
:100EE000E9020995FF91EF91BF91AF919F918F9189
:100EF0007F916F915F914F913F912F910F900FBE16
:100F00000F901F9018951F920F920FB60F921124F9
:100F10002F933F934F935F936F937F938F939F9301
:100F2000AF93BF93EF93FF938091EA029091EB020E
:100F3000892B29F0E091EA02F091EB020995FF91EB
:100F4000EF91BF91AF919F918F917F916F915F9141
:100F50004F913F912F910F900FBE0F901F901895BA
:100F60001F920F920FB60F9211242F933F934F931E
:100F70005F936F937F938F939F93AF93BF93EF9301
:100F8000FF938091EE029091EF02892B29F0E0917E
:100F9000EE02F091EF020995FF91EF91BF91AF91B1
:100FA0009F918F917F916F915F914F913F912F9181
:100FB0000F900FBE0F901F9018958093F302F89436
:100FC0008091A4058F7E8093A4058091A4058860FC
:100FD0008093A40578940895F8948091A4058B7F5C
:100FE0008093A40578948091F20208958FEC84BDDB
:100FF0008091A305833000F58B98939A8091A40586
:1010000080FF23C0829BA3C08091A305813031F073
:10101000813040F0823009F0F6C006C0839902C0EA
:101020008DE096C082E094C08091A40583FFEBC060
:1010300093988B9A84E28CC08091A3058A3108F042
:1010400079C08091A40580FD08C08091A4058160CD
:101050008093A4058A98929A0895829B76C0809185
:10106000A305873140F4803118F58D3061F08F3061
:1010700009F055C00CC08831E1F1883158F189314F
:1010800009F04DC049C08091A4058D7F4DC080916D
:10109000A4058B7F8093A405839B05C080E8809383
:1010A000F20281E014C01092F5021092F20237C0F1
:1010B0008091F20286958093F202839B30C08091EA
:1010C000F20280688093F2028091F5028F5F809334
:1010D000F50225C0839B05C08091F5028F5F809348
:1010E000F5028091F50280FD1AC08091A40582600E
:1010F00010C0839905C08091A40582608093A405E7
:101100008091A40581FD0BC093988B9A8091A405D2
:1011100084608093A40503C08B98939A6CC09298C6
:101120008A9A8091A4058E7F8093A4058091A3055F
:101130008F5F0EC08091A3058F3208F064C080914C
:10114000A40580FF10C0829906C08B98939A81E015
:101150008093A30508958091A4058E7F8093A405B4
:1011600092988A9A08958091A40581608093A4053D
:101170008A98929A8091A3058C3228F4853280F463
:101180008432E1F507C08D3299F18D32E8F08E326C
:10119000A9F531C08091F3028093F4021092F50218
:1011A0008091F40280FF08C08B98939A8091F50299
:1011B0008F5F8093F50202C093988B9A8091F4021E
:1011C00086958093F4021AC08091F50280FF03C0D7
:1011D00093988B9A02C08B98939A8091A405877FED
:1011E0008093A4058091A40580618093A40506C026
:1011F0008B98939A03C01092A30508958091A3053C
:101200008F5F8093A30508951092A30581E18093D9
:10121000A4058A98929A8B98939A0E94B80482E0C7
:101220000E94E80485E066EF77E00E9414058FECE9
:1012300084BD089585B7826085BF8BB780648BBFFE
:101240008BE48093B1058AE58093B00508951F93E0
:10125000CF93DF936091C105635067FDCAC0809151
:10126000BE05CCE0D0E0C81BD109CB53DA4F80914A
:10127000BD058D3209F0AAC0683009F0B8C083EC12
:101280008093A5058AE5809360001092F60288811C
:10129000807641F0CE010E94E921282F8F3F09F48A
:1012A00084C08AC09A811092AE058981882321F476
:1012B0001092AF0522E072C0853019F49093C205F8
:1012C0006CC0863009F055C08B81813059F489B7E4
:1012D0008B7F89BF8EE591E09093C0058093BF0519
:1012E00022E143C0823041F480E791E09093C00551
:1012F0008093BF0522E239C08330F9F48A818823C4
:1013000041F48EE291E09093C0058093BF0524E004
:101310002CC0813041F482E391E09093C00580932A
:10132000BF052CE122C08230F9F48EE491E0909365
:10133000C0058093BF0520E118C0813241F482E8E6
:1013400091E09093C0058093BF0529E00EC08232E2
:1013500059F48FEF95E09093C0058093BF0589B74E
:10136000846089BF25E501C020E080E48093F60217
:1013700023C0883021F421E084EC95E011C089304D
:1013800019F49093C40509C08A3011F421E006C015
:101390008B3019F48BE48093B10520E08EEA95E060
:1013A0009093C0058093BF0507C0888187FD2E817B
:1013B00080E88093F60206C08F81882319F48E811D
:1013C000821708F0822F8093610011C08091F6028D
:1013D00087FF0DC0CE010E942B228F3F21F48EE1AA
:1013E0008093600004C0882311F010926100109275
:1013F000C1058091600084FF46C0809161008F3FED
:1014000009F441C0182F893008F018E0811B80933F
:1014100061008091A50598E889278093A50511238F
:1014200021F12091BF053091C0058091F60286FF21
:101430000AC0912FF901A6EAB5E084918D93319607
:101440009150D9F708C0912FD901E6EAF5E08D91C6
:1014500081939150E1F7C90101961150810F911DBF
:101460001F5F9093C0058093BF0586EA95E0612FCA
:101470000E945E03612F6C5F6C3019F08FEF8093D8
:1014800061006093600094E180B38C7031F49150FE
:10149000D9F71092C2051092BC05DF91CF911F9130
:1014A00008951F93DC01162F8091B00584FF07C0BB
:1014B0008091B10598E889278093B10503C08AE53A
:1014C0008093B005912FE2EBF5E08D9181939150DF
:1014D0001916DCF382EB95E0612F0E945E031C5F1E
:1014E0001093B0051F9108958091FA020895E82F96
:1014F000865D803140F48091FA02882321F0F0E08B
:10150000E457F040E0818E2F089591E1899FC0015A
:101510001124860F911D23E0880F991F2A95E1F76A
:10152000840F911DE0918200F0918300E80FF91F74
:10153000E4918E2F08951F93982F865D6623D9F02E
:10154000803188F48091F8028F5F8093F802809157
:10155000F902882361F49093F70281E08093F90205
:101560001092FA0239C08091F7028823A9F181E034
:101570008093FA0231C0803178F58091F802815071
:101580008093F802E091F702EE2301F18091FA02D4
:101590008823E1F4F0E0E456F0401081812F0E94AE
:1015A000C416812F0E94C4161092F7020E94F90EF1
:1015B000882361F0812F60E040E021E00E94EB1180
:1015C000812F60E040E020E00E94EB118091F80262
:1015D000882311F41092F9021F9108959C01E09163
:1015E000F702EE2349F18091FA02882329F18E2F28
:1015F000865D803120F4F0E0E457F040E0818E2FEA
:10160000F90109950E94F90E8823A1F0E091F702F3
:101610008E2F865D803140F48091FA02882321F07C
:10162000F0E0E457F040E0818E2F60E040E021E000
:101630000E94EB111092F70208958093120308950F
:101640008091120308951092FF0208958EB5887F4D
:101650008EBD08958EB584608EBD0895949A809154
:10166000FD029091FE029BBD8ABD08959498089555
:101670009093FE028093FD028091FD029091FE0204
:10168000892B51F48091BD009091BE00892B21F0EF
:1016900094988EB5887F0EC08091FD029091FE02D5
:1016A000892B49F08091BD009091BE00892B19F4DF
:1016B0008EB584608EBD8091FD029091FE02909364
:1016C000BE008093BD00089590910603992319F4FC
:1016D00080E090E010C0913049F410920B0310921A
:1016E0000A0310920D0310920C030895923031F406
:1016F0008091BC0090E00E94380B0895892F8350A0
:101700008230A0F483E080930E03943019F481E0DA
:1017100080930E0380910E039FEF899FC0011124D7
:101720006CE070E00E94272460930F03089580917D
:10173000060390E0019665E070E00E942724809304
:10174000060381E090E090930503809304030E94D8
:10175000640B08958091BC008E31A1F08951809373
:10176000BC008E3118F48EE18093BC00809106039A
:10177000823011F40E94640B81E090E090930503A5
:101780008093040308958091BC008F3FA9F090E0FE
:1017900049968F3F910511F00CF08FEF8093BC00BC
:1017A00080910603823011F40E94640B81E090E086
:1017B000909305038093040308958091120390E0B1
:1017C00080FF02C0909A01C09098AC0142705070A6
:1017D00081FF02C0919A01C091982091140382FF69
:1017E00004C0969A2223C9F404C096982130A9F423
:1017F00009C081E080931403452B11F485E007C0F4
:1018000084E005C010921403452B21F483E08093FB
:101810001303089582E080931303089580910603D3
:101820008330C1F484EF91E090931103809310030F
:1018300080910E038C3038F58F5F80930E039FEFFD
:10184000899FC00111246CE070E00E9427246093FE
:101850000F0308958430B9F484EF91E0909311035D
:101860008093100380910E03882369F08150809348
:101870000E039FEF899FC00111246CE070E00E946D
:10188000272460930F0308952091BC0030E0AC0141
:10189000429FC001439F900D529F900D11246FEF06
:1018A00070E00E942724CB010895CF93DF938091AD
:1018B0000603813009F057C0C0910C03D0910D038D
:1018C000209761F480910A0390910B0368E070E027
:1018D0000E942724CB010E94440C13C0C230D105C2
:1018E000A1F480910A0390910B0368E070E00E94DC
:1018F0002724CB01909581959F4F81509F4F0E9447
:10190000440C90E00E94380B0FC0C130D10519F093
:10191000C330D10549F480910A0390910B030196DD
:1019200090930B0380930A0380910A0390910B0319
:10193000885F974074F010920B0310920A03CE0157
:10194000019664E070E00E94272490930D03809339
:101950000C0380910A0390910B03019690930B0363
:1019600080930A0387C08330D1F580911003909152
:101970001103009731F001979093110380931003A6
:1019800028C020910F032223F1F080910A03909147
:101990000B03019690930B0380930A030897CCF0F6
:1019A00010920B0310920A03215020930F038FEF24
:1019B00090E0821B91096BEE7FEF0E942724645F09
:1019C00060930E0306C010920E0310920B03109248
:1019D0000A0380910F0390E00E94440C3DC08430C4
:1019E00009F03EC08091100390911103009731F0EF
:1019F0000197909311038093100329C020910F0346
:101A00002F3FF1F080910A0390910B030196909380
:101A10000B0380930A030897D4F010920B031092E3
:101A20000A032F5F20930F038FEF90E0821B910931
:101A30006BEE7FEF0E942724645F60930E0307C064
:101A40008CE080930E0310920B0310920A03809196
:101A50000F0390E00E94440C90E00E94380B0AC0F3
:101A600010920B0310920A0383E090E090930D0311
:101A700080930C03DF91CF9108950E94550C089537
:101A800090989198969880910603823011F0843056
:101A900029F410920B0310920A0308C0882311F056
:101AA000833021F481E080930903089510920903A3
:101AB00008950E94DD0B0E94640B0895CF93DF937D
:101AC00080910903813029F1C0910A03D0910B0361
:101AD000CE0168E070E00E942724CB0190958195AB
:101AE0009F4F81509F4F0E94440C90E00E94380B02
:101AF00087E0C83FD80744F080E090E00E94380BB0
:101B0000949881E0809309032196D0930B03C093AE
:101B10000A03DF91CF9108951F93182F8091FF0240
:101B2000882309F489C00E948C0E882319F00E9432
:101B30005E0D82C00E944222882311F042E004C060
:101B4000113009F045C041E08091000390910103FC
:101B5000019690930103809300032091B900309186
:101B6000BA0028173907DCF580910203909103032E
:101B700001969093030380930203893C91057CF1C5
:101B8000809112039091BB0080FF09C0913021F435
:101B900082B34095482307C082B3482B09C09130D7
:101BA00021F482B3482B42BB08C082B3409548233E
:101BB00042BB10920103109200038091BB0091E0A0
:101BC00089278093BB00109203031092020307C081
:101BD000109203031092020381E08093BB00809176
:101BE0000403909105031816190624F501969093A5
:101BF000050380930403885E9340E1F4109205038B
:101C0000109204036091060380910703681731F076
:101C1000609307038BE090E00E9406276091BC0070
:101C200080910803861731F06093080389E090E003
:101C30000E9406270E94550C1F9108958091FF0273
:101C4000882309F068C081E08093FF0282E066E3A8
:101C50007BE00E94140583E06EE27BE00E941405A5
:101C60008FB58E7F8FBD8FB58D7F8FBD8EB5886010
:101C70008EBD8EB580618EBD8091B7009091B80009
:101C800097BD86BD1BBC1ABC86B597B599BD88BDEE
:101C90008FB58F778FBD8FB58F7B8FBD8FB58F7DC4
:101CA0008FBD8FB58F7E8FBD1DBC1CBC89B7806179
:101CB00089BF89B7886089BF8EB584608EBD84E88E
:101CC00090E00E94C82489E090E00E94FE26809364
:101CD000BC00809308038BE090E00E94FE26809376
:101CE00006038F3F11F41092060380910603809340
:101CF00007030E94640B8091D202882311F0833085
:101D000051F48091B9009091BA0095958795909380
:101D1000BA008093B90008958091150308958091C9
:101D20001503882329F481E0809315030E94400D58
:101D3000089580911503882311F5809116039091E1
:101D40001703A0911803B09119030196A11DB11DAD
:101D50008093160390931703A0931803B09319036D
:101D600080539547A040B04054F010921603109253
:101D7000170310921803109219030E948F0E0895F2
:101D800080911503882321F0109215030E94590DAC
:101D90001092160310921703109218031092190351
:101DA000089580912003816080932003089580919D
:101DB000200381700895809120038270089580919E
:101DC0002403089581E08093240308951092200352
:101DD00010922803089590E0895C8C3008F491E01B
:101DE000892F0895982F895C8C3008F490E0892F12
:101DF000089590E0809126038B3009F491E0892FBB
:101E0000089588E20E94C41688E20E94C4160895CC
:101E10001F93182F2091200320FD36C000D000D042
:101E200000D0EDB7FEB731968FEB90E0ADB7BEB7FF
:101E300012969C938E93119712831382248315829A
:101E40000E94B3248DB79EB706960FB6F8949EBF36
:101E50000FBE8DBF1730A1F41092230310922203FE
:101E600081E0809321038091D202882311F0833096
:101E700059F48AEF90E09093E7018093E60104C063
:101E800010922003109221031F91089580E3ECE744
:101E9000F6E0DF01982F1D929A95E9F71092AC06B3
:101EA000ECEDF5E0DF011D928A95E9F710921F0332
:101EB00008950F931F93FC0180810E942F178C01BE
:101EC000882319F088E60E94C416812F0E94C41648
:101ED000812F0E94C416002319F088E60E94C416C0
:101EE0001F910F910895CF92DF92EF92FF920F937F
:101EF0001F93DF93CF930F92CDB7DEB78C0100977E
:101F000011F52FC000D000D000D0EDB7FEB731964C
:101F1000ADB7BEB71296FC92EE921197D382C282F1
:101F2000992787FD9095958384830E94FD248DB722
:101F30009EB706960FB6F8949EBF0FBE8DBFC70121
:101F40000E94590F08C07E010894E11CF11C8EED1F
:101F5000C82E80E0D82EF8010F5F1F4F8491882390
:101F600089F60F90CF91DF911F910F91FF90EF9025
:101F7000DF90CF90089583EC94E00E94730F0E944D
:101F8000010F2CEF35E080E090E00BC01192E217DA
:101F9000F307E1F701969F01285F3F4F81319105DB
:101FA00049F0FC0143E0EE0FFF1F4A95E1F7EC50CA
:101FB000FA4FECCF81E090E09093300380932F03B1
:101FC000089586EF95E00E94730F0E94010F81E053
:101FD00080931E038CE080932803109226030895BB
:101FE00080912F0390913003892B29F410922003C4
:101FF00010922803089587E295E00E94730F0E94D3
:10200000010F81E080931E038BE080932803809171
:102010002603809327031092260308958CE094E012
:102020000E94730F0E94010F08950E94010F87E51F
:1020300093E00E94730F0E94010F8DE593E00E94D0
:10204000730F0E94010F82E793E00E94730F0E94BA
:10205000010F85E893E00E94730F0E94010F89E74A
:1020600093E00E94730F0E94010F87E08093260384
:102070000895AF92BF92CF92DF92FF920F931F937A
:10208000DF93CF930F92CDB7DEB78C01FF246E01A3
:102090000894C11CD11C5EEDA52E50E0B52E25C0C4
:1020A00000D000D000D0EDB7FEB73196ADB7BEB7C7
:1020B0001296DC92CE921197B382A282800F911F6A
:1020C000DC018C91992787FD9095958384830E94EC
:1020D000FD248DB79EB706960FB6F8949EBF0FBE2F
:1020E0008DBFC6010E94590FF3948F2D90E0F80127
:1020F00001900020E9F73197E01BF10B8E179F0745
:1021000078F20F90CF91DF911F910F91FF90DF90A8
:10211000CF90BF90AF90089581E080931E0380918F
:102120002603893088F48730E8F5833079F18430EC
:1021300030F48130E1F0823009F05CC024C0853099
:1021400059F1863060F525C08B30B9F18C3030F410
:10215000893069F18A3009F04DC02CC08E3609F4FF
:1021600047C0883789F1843609F044C038C084E11B
:1021700094E00E94730F809131038F5F0E94A41737
:102180000E9439101EC086E494E019C085E694E0F0
:102190000BC087E894E025C08FE994E022C010923C
:1021A0001E0328C082EE94E00E94730F23C08BE5CB
:1021B00095E0FACF88E895E014C083EA95E00E94A4
:1021C000730F0E94010F16C084E493E00E94730F06
:1021D0000E94010F109226030E943E220BC08AE348
:1021E00093E00E94730F0E94010F1092260302C019
:1021F0000E94241188EE93E02CE231E0F90131973E
:10220000F1F70197D9F708950E94010F83EC93E04D
:102210000E94730F0E94010F83ED93E00E94730FE1
:102220000E94010F85E893E00E94730F0E94010F46
:1022300089EE93E00E94730F0E94010F87E0809364
:1022400026030E948C1008950E94010F83E093E002
:102250000E94730F0E94010F8FE093E00E94730FA2
:102260000E94010F8DE193E00E94730F0E94010F05
:1022700085E293E00E94730F0E94010F8CE293E0CD
:102280000E94730F0E94010F88E0809326030E9432
:102290008C100895CF93DF93C5EAD1E0CE0160E0C2
:1022A0000E940627219683E0C53ED807B9F787E04C
:1022B000809326030E948C10DF91CF9108951F9385
:1022C000CF93DF938091DB058C30C8F4C0E0D0E081
:1022D00010E38091DB05819FC00111248B559E4F37
:1022E000FE01E458F94F8C0F9D1F60810E94062764
:1022F0002196C033D10569F78FEF8093DB05DF911D
:10230000CF911F9108950F931F93CF93DF93982F31
:102310008C30C0F480E3989FC0011124EC01CB55B0
:10232000DE4F8C010B521E4FCE010E94FE26982FCD
:1023300081508E3F18F4892F0E94C4162196C01731
:10234000D10791F7DF91CF911F910F910895CF920F
:10235000DF92EF92FF920F931F93CF93DF939091B1
:10236000310388E8989F700111248DE090E0E80E19
:10237000F91ECC24DD2417C0CE018E0D9F1D0E94B6
:10238000FE26F80181938F012196C830D105A1F76F
:102390000894C11CD11C88E090E0E80EF91E91E180
:1023A000C916D10459F0860163E0000F111F6A9528
:1023B000E1F70C501A4FC0E0D0E0DECF10923003AE
:1023C00010922F03DF91CF911F910F91FF90EF900B
:1023D000DF90CF900895AF92BF92CF92DF92EF92AD
:1023E000FF920F931F93DF93CF9300D00F92CDB73F
:1023F000DEB7F62EE42EA22E0E94770AB82E84EDC8
:102400008B1508F4E8C280911E03882309F0E3C20B
:10241000809126038B3019F0AA2009F0DCC28BEDE5
:1024200091E06BE04B2D0E9460166C0190912603A9
:102430009B3009F0D0C080911D03882399F0109241
:102440001C0310921D038B2D0E94C416E091AC0654
:10245000F0E0E558F94F10820E945F1187E0809309
:102460002603AAC2AA2051F120911F03283108F0A7
:10247000B2C22F5F20931F0300D000D000D0EDB771
:10248000FEB7319681EE90E0ADB7BEB712969C9341
:102490008E93119722831382B48215820E94B324F3
:1024A000EDB7FEB736960FB6F894FEBF0FBEEDBF80
:1024B0008CED95E06B2D0E94B81644C0BCEDEB2E60
:1024C000B5E0FB2EF70101900020E9F73197EE19F6
:1024D000FF09C7016E2F4B2D0E9460168C01FFEF84
:1024E0008F3F9F0709F477C2C701B8010E94861683
:1024F000D7010D900020E9F71197AE19BF098DB7EC
:102500009EB708970FB6F8949EBF0FBE8DBF2DB72C
:102510003EB72F5F3F4F8AE091E0EDB7FEB7928361
:102520008183F90113830283B583A483B682178262
:102530000E94B3248DB79EB708960FB6F8949EBF3D
:102540000FBE8DBF8091AC06E82FF0E0E458F94F44
:10255000B0828F5F8093AC068B2D0E94C41600D092
:1025600000D0EDB7FEB7319686E391E0ADB7BEB7C8
:1025700012969C938E9311978091AC06828313825E
:102580000E94B3240F900F900F900F908091AC0693
:10259000803350F087E0809326038DE791E00E941E
:1025A000C8240E945F1108C2AA2081F0EBEDF1E07F
:1025B000CE0EDF1ED6018C91893241F481E08093EA
:1025C0001C0310921B0310921A0305C210921C03E5
:1025D00010921D0300C2892F8750823008F0A3C0DB
:1025E000BAE0CB16D10408F0F6C1E0912E03F0E07A
:1025F000E55DFC4FC08200D000D000D0EDB7FEB743
:1026000031968E010F5F1F4FADB7BEB712961C9368
:102610000E93119789EA91E093838283D582C482D5
:102620000E94FD24EDB7FEB736960FB6F894FEBFB4
:102630000FBEEDBFC8010E9439100E94010F00912A
:102640002B0380912603883091F50130E1F400934B
:1026500025030E94010F8CE893E00E94730F0E94F3
:10266000010F87E993E00E94730F0E94010F86EA31
:1026700093E00E94730F00931E038AE08093280367
:102680001092260351C1023029F4009325030E94C1
:1026900015104AC1033021F40093250384E633C0AA
:1026A000043009F041C10093250388E72CC00630AF
:1026B00019F48EE680932603809125038130C9F4B6
:1026C000013011F0023019F4009326032DC10330BC
:1026D00031F484E0809326030E94F00F25C104307A
:1026E00011F485E010C0093009F01EC10E94BB0F33
:1026F000C4C0823009F018C1013011F489E012C160
:10270000023041F48AE08093260310922003109255
:1027100028030AC1093009F007C18CE08093260321
:102720000E94E10F01C1923089F1FAE0CF16D10485
:1027300008F051C180912E03E82FF0E0E55DFC4FD9
:10274000C0828F5F80932E0300D000D000D0EDB701
:10275000FEB731968E010F5F1F4FADB7BEB7129611
:102760001C930E93119789EA91E093838283D5821B
:10277000C4820E94FD24EDB7FEB736960FB6F894DA
:10278000FEBF0FBEEDBFC8010E943910FAE0CF16A0
:10279000D10428F080912603823009F01CC1809179
:1027A0002603823009F46BC0833020F4813009F0B5
:1027B00010C131C0833009F4BAC0893009F009C1B1
:1027C00080912E038230E9F490912B038AE0989F48
:1027D0009001112480912C03280F311DC90101970C
:1027E0000C9750F4822F81508093DB058BE080930F
:1027F00026030E94460FD7C00E94010F8AED95E084
:10280000D0C088EE93E02CE231E0F9013197F1F786
:102810000197D9F7E0C090912B0380913103833069
:1028200050F5192F1150811731F1133020F5809197
:102830002F0390913003181619066CF40E94010FB3
:1028400081E095E00E94730F0E94010F0E94F00F3B
:102850001093320369C00E94010F84E195E00E9449
:10286000730F0E94010F87E08093260310933103BA
:102870000E94A71159C00E94010F87E053C0F09237
:102880002903E0922A0381E395E00E94730F80916F
:1028900029038F5F0E94A4170E9439108CEA91E0EF
:1028A0000E94391080912A038F5F0E94A4170E9412
:1028B00039108FEA91E00E943910809131038F5FC7
:1028C0000E94A4170E94391088EB91E00E943910F1
:1028D0008091310360912A03409129030E94850A67
:1028E0000E94A4170E94391082EC91E00E943910D6
:1028F00080912903E0912A03F0E0A3E0EE0FFF1F8F
:10290000AA95E1F7E80FF11DEC50FA4F80810E9483
:10291000A4170E9439108CEC91E00E9439100E949B
:10292000010F83E08093260310922E0352C0809102
:102930002E03833009F043C090912B0384E6989FC7
:10294000A001112480912C032AE0829FC001112450
:10295000480F591F80912D03480F511D4F3F5105BE
:10296000E4F480912903E0912A03F0E073E0EE0F94
:10297000FF1F7A95E1F7E80FF11DEC50FA4F408305
:1029800087E08093260380912F0390913003019676
:102990009093300380932F0306C00E94010F8DE3B4
:1029A00095E00E94730F83E0EBE2F3E0DF011D92FC
:1029B0008A95E9F710922E030E94010F0AC088EE53
:1029C00093E02CE231E0F9013197F1F70197D9F763
:1029D00002C00E948C100F900F900F90CF91DF914A
:1029E0001F910F91FF90EF90DF90CF90BF90AF902D
:1029F0000895BF92CF92DF92EF92FF920F931F93B1
:102A0000CF93DF93EE24FF24CC24DD2498E8B92E65
:102A10001EC0809131038B9DC00111240D968C0D39
:102A20009D1D8C0F9D1FF80161918F010E9406274B
:102A30002196C830D10569F70894E11CF11C88E0A3
:102A400090E0C80ED91E91E1E916F10459F0870112
:102A500083E0000F111F8A95E1F70C501A4FC0E078
:102A6000D0E0D7CF1092300310922F03809127032C
:102A7000843039F4809326031092200310922803A7
:102A800013C0813089F40E94010F84E195E00E9417
:102A9000730F0E94010F87E0809326038091320319
:102AA000809331030E94A7110E948C10DF91CF9177
:102AB0001F910F91FF90EF90DF90CF90BF900895FE
:102AC00083E0EBE2F3E0DF011D928A95E9F71092D3
:102AD0002E0310923103109225030E94A7110E9429
:102AE00024110895FF920F931F93182F062FF42E91
:102AF000809120038823B1F488E8189FC001112435
:102B00000D96262F30E043E0220F331F4A95E1F760
:102B1000820F931F8F0D911D0E94FE26982F8150CA
:102B20008E3F30F0812F602F4F2D0E94850A982F05
:102B3000892F1F910F91FF9008951F93982F8091D7
:102B4000200380FD0FC0192F195C1C3058F40E941F
:102B50000517882339F00E94B217812F0E94831134
:102B600081E001C080E01F9108958091200380FFE3
:102B70000DC081FD0BC00E940518882339F080919B
:102B800020038260809320030E9460150895809145
:102B900020038160809320038091D2028150823093
:102BA00018F40E94541F08C00E94ED1B8AEF90E0A9
:102BB0009093E7018093E6010E940E1008958091A2
:102BC00020038823C1F4809121038823A1F0809100
:102BD0002203909123030196909323038093220371
:102BE0002091E6013091E7012817390724F410926B
:102BF00021030E94C71508950E94DF1580912003CC
:102C000081FF4DC080911E03882381F10E9414171B
:102C1000882361F100D000D0EDB7FEB731968EEC7D
:102C200091E0ADB7BEB712969C938E9311978091A9
:102C30002803828313820E94B324809128030F907B
:102C40000F900F900F908B3019F40E94F9140CC064
:102C50008A3019F40E94041107C08C3019F40E94C4
:102C60004A1102C010921E031092280380911C0387
:102C70008823A9F080911A0390911B0301969093E9
:102C80001B0380931A03895E93404CF081E080938C
:102C90001D0389E26FEF4FEF20E00E94EB110895D2
:102CA0000E944222882319F01092240308958091F3
:102CB0002403813021F40E94C71510922403089543
:102CC000FC0190E007C08191841719F4292F30E0AE
:102CD00005C09F5F9617B8F32FEF3FEFC901089526
:102CE000FC01808140E02FEF3FEF0CC05191252F78
:102CF00030E090E02817390719F02FEF3FEF04C0BC
:102D00004F5F852F461790F3C90108959B01FC0181
:102D100001900020E9F73197E81BF90B6F5F7F4FB7
:102D2000680F791FE21BF30B820F931FAF010E9404
:102D300080240895FF920F931F93F42E9B01DC01D2
:102D40000D900020E9F78C01060F171FA81BB90B87
:102D5000A61BB70B2F5F3F4F820F931FB801AD012A
:102D60000E948024F801F0821F910F91FF90089536
:102D7000462FDC010D900020E9F71197A81BB90B35
:102D8000BD010E949A160895282F809169039091A1
:102D90006A03019660E071E00E942724FC01909391
:102DA0006A038093690380916703909168038E178B
:102DB0009F0759F4009719F48FEF90E001C0019735
:102DC00090936A03809369030895E559FC4F20832B
:102DD0000895209167033091680380916903909171
:102DE0006A032817390711F480E00895C901019694
:102DF00060E071E00E942724FC01909368038093B7
:102E00006703E559FC4F8081089540E020916703F6
:102E1000309168038091690390916A0328173907FC
:102E200009F441E0842F089580916603882319F402
:102E300040E050E00FC040E050E020916703309147
:102E400068038091690390916A032817390711F488
:102E500041E050E0842F0895809366030895982FF1
:102E600081568A3118F4292F2D5510C0892F81548D
:102E70008A3120F4292F2D5332E009C0892F815344
:102E8000893010F020E002C0292F235130E0892F33
:102E9000992787FD9095A92FB92FFC01B097EF35A1
:102EA000F10508F048C0E65DFF4FEE0FFF1F0590EB
:102EB000F491E02D09942EE141C02FE13FC020E2C2
:102EC0003DC021E23BC022E239C023E237C024E208
:102ED00035C025E233C026E231C027E22FC02CE204
:102EE0002EC02DE22CC02DE229C02EE228C02EE2F9
:102EF00025C02FE224C02FE221C020E320C020E320
:102F00001DC021E31CC021E319C023E318C023E343
:102F100015C024E314C024E311C025E310C025E349
:102F20000DC026E30CC026E309C027E308C027E351
:102F300005C028E304C0222311F428E332E0832FE4
:102F4000922F089527E2FBCF0F931F9303E613E020
:102F500090E0B8014AE050E00E949224C8011F911D
:102F60000F91089520916703309168038091690360
:102F700090916A032817390739F480E3E3E3F3E01B
:102F8000DF011D928A95E9F708951F93CF93DF9390
:102F90000E94E916182FC3E3D3E0882331F480E3BD
:102FA000FE0111928A95E9F712C0FE0101900020FE
:102FB000E9F73197E353F340CE016E2F412F0E9482
:102FC0006016BC0197FD05C0CE010E94861680E008
:102FD00005C0CE01612F0E94B81681E0912FDF91CC
:102FE000CF911F91089580E090E0FC01E355F94FE7
:102FF0001082FC01E153F94F108201968131910555
:10300000A1F78AE080930902089581E080936D041E
:10301000EFECF6E08081882319F010926D0405C072
:10302000319686E0E03EF807A9F780916D04089597
:10303000EF92FF921F93CF93DF9360E070E081E007
:10304000E82EF12CFB01E153F94F80818823D9F15F
:1030500020E030E0C82FD0E0162F1F5FCE01022EF7
:1030600002C0959587950A94E2F780FF27C0522FFA
:1030700022C0CE01052E02C0959587950A94E2F7ED
:1030800080FF19C0412FD701052E02C0AA0FBB1F18
:103090000A94E2F70EC0E42FF0E0E153F94F80818B
:1030A00090E08A239B231816190614F481E012C0BD
:1030B0004F5F413181F75F5F5830D8F22F5F3F4F4C
:1030C0002830310559F66F5F7F4F6131710509F086
:1030D000B9CF80E0DF91CF911F91FF90EF900895DD
:1030E0008EEB96E008958F929F92AF92BF92DF92FF
:1030F000EF92FF920F931F93CF93DF93DD24C0E0F5
:10310000D0E031E0E32EF12C27E1822E912C9FE0DC
:10311000A92EB12C87010C2E02C0000F111F0A949A
:10312000E2F707BB802F809588BB81E090E00E948A
:103130006222EFECF6E040E050E0302F3095842F33
:10314000483048F429B3C701042E02C0880F991FE4
:103150000A94E2F711C08850883018F423B3C501EF
:1031600002C020B3C401841B950BB70102C0660FD7
:10317000771F8A95E2F7CB01209528239081802F35
:10318000892319F0222329F008C0222331F0902B43
:1031900001C093239083DD24D3944F5F5F4F31961A
:1031A0004131510561F62196C830D10509F0B2CF01
:1031B000DD2019F01092080207C0809108028436C1
:1031C00018F48F5F809308029091080280910902A1
:1031D000981711F080E024C00E941818882381F00D
:1031E00020E030E0F901E254F94FD901A355B94F7D
:1031F0008C9180832F5F3F4F2131310599F70FC0AC
:1032000020E030E0F901E254F94FD901A153B94F60
:103210008C9180832F5F3F4F2131310599F781E0F9
:10322000DF91CF911F910F91FF90EF90DF90BF90B2
:10323000AF909F908F9008951F930E94B5150E94A4
:103240007318182F0E94FC150E94DF0E811110E0E8
:10325000812F1F9108954F925F926F927F929F925C
:10326000AF92BF92CF92DF92EF92FF920F931F9394
:10327000CF93DF93EE24FF2461E0C62ED12C57E1DB
:10328000452E512C4FE0642E712C6FC00C2F809175
:103290006C046C2F492D0E947215182F865D8031A9
:1032A00028F4E12FF0E0E457F0401081812F865F91
:1032B000823060F01E3F51F0183F41F01B3F09F093
:1032C00048C080916C04823009F043C0A7BAB8BAF4
:1032D00081E090E00E946222083048F429B3C601E0
:1032E0000C2E02C0880F991F0A94E2F711C00850F3
:1032F000083018F423B3C30102C020B3C2018C1BF1
:103300009D0BA60102C0440F551F8A95E2F7CA0122
:1033100020952823F1F01E3F61F0183F09F444C0C6
:10332000173F49F480916D04882399F081E08093E0
:103330006E0491E03DC0163F41F480916D048823F6
:1033400041F082E080936E042FC01B3F11F490E0A7
:103350002FC02196C131D10509F098CF0894E11C06
:10336000F11C58E0E516F10471F09E2CC6010E2CFC
:1033700002C0880F991F0A94E2F7A82EB82EB094C5
:10338000C0E0D0E083CF0E940518882311F010928E
:103390006E0490916E04992359F480916B048130EE
:1033A00029F482E080936C0492E002C010926C04D5
:1033B000892FDF91CF911F910F91FF90EF90DF90B8
:1033C000CF90BF90AF909F907F906F905F904F9005
:1033D00008950F931F93182F062F8E3F09F443C0B3
:1033E0000E949B0A0023C1F10E940E0C1C3F49F071
:1033F00080916F048823B9F01A32A9F410926B04FB
:1034000006C080916B0491E0892780936B048091C2
:103410006B04882341F50E94200B80FF02C0909A24
:1034200022C0909820C0193221F481E080936F046B
:103430001DC0882311F0193311F01D3F19F40E94AB
:10344000970B11C01A3F19F40E94C30B0CC0193F0F
:1034500061F40E94AA0B07C01C3F29F0193229F41D
:1034600010926F0402C080E001C081E01F910F91B3
:103470000895282F8F3F31F41092710481E08093DA
:103480007B0408958E3F21F08D3F29F41092710442
:1034900010927B04089580917B04882351F08091E1
:1034A0007104E82FF0E0EB5BFA4F20838F5F80938D
:1034B00071048091790490917A04019668EC70E02F
:1034C0000E942724FC0190937A04809379048091D0
:1034D0007704909178048E179F0759F4009719F498
:1034E00087EC90E001C0019790937A04809379046F
:1034F0000895E458FB4F208308952091770430917C
:1035000078048091790490917A042817390711F48E
:1035100080E00895C901019668EC70E00E942724BC
:10352000FC019093780480937704E458FB4F8081EA
:10353000089540E0209177043091780480917904D7
:1035400090917A042817390709F441E0842F0895EF
:10355000109278041092770410927A0410927904F1
:10356000109271041092720410924F05109250053F
:103570001092510510925205EDEAF6E0119286E0A4
:10358000EE3BF807D9F70895E1EEF6E0119287E0F7
:10359000E139F807D9F72AEB32E006C0FC01EF5118
:1035A000F94F808182608083F901849190E02F5FE0
:1035B0003F4F009799F72DEB32E006C0FC01EF5129
:1035C000F94F808184608083F901849190E02F5FBE
:1035D0003F4F009799F721EC32E006C0FC01EF5114
:1035E000F94F808188608083F901849190E02F5F9A
:1035F0003F4F009799F726EC32E006C0FC01EF51EF
:10360000F94F808181608083F901849190E02F5F80
:103610003F4F009799F724EF32E006C0FC01EF51CD
:10362000F94F808180618083F901849190E02F5F60
:103630003F4F009799F7EDEAF6E0119286E0EE3BF6
:10364000F807D9F708950E94051790E0882309F438
:1036500091E0892F089581E0809396050E941E0EC7
:103660000E9450160895FF920F931F93CF93DF93FC
:10367000F62E0E94770A182F853D10F080E0A7C033
:1036800087568830D0F4E12FF0E090917604FF2047
:1036900039F0EE0FFF1FE65EFE4F8081982B07C0CA
:1036A000EE0FFF1FE65EFE4F80818095982390937A
:1036B0007604809176040E94080F812F90E0FC012F
:1036C000EE56FE4F0491FF2009F450C010934405BC
:1036D00010924F051092500510925105109252050C
:1036E00010929207EC01CF51D94F888181FF2EC0F3
:1036F000163421F0183409F069C00EC08FEF0E9413
:10370000391A80EE0E94391A82E10E94391A80EE3D
:103710000E94391A8CE726C08DEF0E94391A81EE7B
:103720000E94391A84E10E94391A87E70E94391AE7
:1037300081EE0E94391A80EF0E94391A84E10E94BA
:10374000391A80EF0E94391A87E73BC082FD38C0E2
:103750008FEF0E94391A888180FF03C080EE0E949B
:10376000391A802F0E94391A8EEF2BC080914405A0
:10377000811711F410927104E12FF0E0EF51F94F2D
:10378000808181FF13C0163409F580EE0E94391A3A
:1037900080EF0E94391A8CE70E94391A80EE0E944D
:1037A000391A80EF0E94391A82E10BC082FD0EC0E7
:1037B00080FF03C080EE0E94391A80EF0E94391A00
:1037C000802F0E94391A8CEF0E94391A81E0DF9114
:1037D000CF911F910F91FF90089588E660E00E94BD
:1037E000331B87E660E00E94331B89E660E00E949D
:1037F000331B0895DF92EF92FF920F931F93082FD0
:10380000162FE42ED22E0E94E919F82E112329F04A
:1038100083E39BE161E00E94EE0A0E94D70E8823B9
:1038200039F0802F6E2D4D2D212F0E94EB1102C0FB
:10383000FF2011F480E005C0802F612F0E94331B10
:1038400081E01F910F91FF90EF90DF9008954F92CC
:103850005F926F927F928F929F92AF92BF92CF9220
:10386000DF92EF92FF920F931F93CF93DF930E940B
:103870000517882349F081E00E942C170E941C192B
:10388000882309F4CEC014C080E00E942C170E9447
:10389000C517813041F4892F61E00E94331B8DEF01
:1038A0000E94391ABEC0892F60E00E94331BB9C044
:1038B0000E942B19782E0E9470184C01809175047B
:1038C000871509F446C0EE24FF2441E0442E512C14
:1038D00034C0F401EC0FFD1F0081FE01E355F94FE8
:1038E00080818B21F9F0809175046C2F4C2D0E9402
:1038F0007215D82E872D6C2F4C2D0E947215182F03
:10390000D81681F0882371F08D2D60E04C2D2C2F7E
:103910000E94FA1B0B2131F0812F61E04C2D2C2FDE
:103920000E94FA1B2196C131D10599F60894E11C39
:10393000F11C88E0E816F10461F0CE2CC2010E2CD7
:1039400002C0880F991F0A94E2F7B82EC0E0D0E0B9
:10395000C0CF70927504AA24A394CC24DD2431E056
:10396000432E512C40C0EC2EFE01E355F94FF08060
:10397000F401EC0FFD1F00810621872D6C2F4B2DCC
:103980000E947215182F002339F0882329F00E9415
:103990009D15882309F045C0F620F016C9F00E9455
:1039A0004222882339F00023B9F08E2D6B2D0E941E
:1039B000452212C0112361F0002319F0812F61E02C
:1039C00002C0812F60E04B2D2E2D0E94FA1BA822F1
:1039D0002196C131D10539F60894C11CD11C88E06B
:1039E000C816D10461F0BC2CC2010C2C02C0880F97
:1039F000991F0A94E2F7682EC0E0D0E0B4CF20E02F
:103A000030E0F901E355F94FD401A20FB31F8C91B7
:103A100080832F5F3F4F2131310599F72A2D30E008
:103A200002C020E030E0C901DF91CF911F910F91DA
:103A3000FF90EF90DF90CF90BF90AF909F908F90CE
:103A40007F906F905F904F9008951F93162F8E3F39
:103A500011F0809391070E94DD07109392071F9148
:103A600008958F929F92AF92BF92CF92DF92EF9282
:103A7000FF920F931F9388E0809392070E9404099E
:103A80000E94C41A0E94F3170E94A81A8AE092E0CA
:103A90000E94C824789416E9812E99249394B5E065
:103AA000AB2EB12CC12CD12C8091D202882319F5D8
:103AB000809196058823F9F480919405909195055D
:103AC000019690939505809394050197815D9740A9
:103AD00094F081E08093D20281E292E00E94C824B7
:103AE0001F910F91FF90EF90DF90CF90BF90AF901C
:103AF0009F908F9008958091A40582FFC0C080910F
:103B00007304909174048C3F910561F020917704C7
:103B1000309178048091790490917A0428173907BC
:103B200009F0ADC00E94EC07182F60919207623037
:103B300009F457C0633018F4613039F44CC0663072
:103B400009F48DC0673009F455C0133F71F1143F7B
:103B500060F41E3EC9F01F3E18F41D3EA9F522C0B8
:103B6000103FE9F0123F81F511C0163F09F1173FF0
:103B700030F4143F09F481C0153F31F57EC01E3F7B
:103B800059F01F3F09F505C08EEE72C18AEF64E05F
:103B90006FC18AEF68E06CC18091910769C18AEFBB
:103BA00062E066C18AEF66E063C18AEF67E060C1E8
:103BB00090922F02A0923002B0923102C092320253
:103BC000D09233020E94A81A8AEF60E00E94251D5D
:103BD0000E942B1B69CF853F09F44FC08AEF61E03B
:103BE00047C10E94A81A112311F060E001C063E0F0
:103BF0008AEF3EC1682F70E0CB0180769070A5E01F
:103C000095958795AA95E1F780932F02AB014871AE
:103C10005070F3E055954795FA95E1F780E090E014
:103C200021E030E003C0220F331F0196841795076F
:103C3000D4F367707070269FC001279F900D369F48
:103C4000900D1124AA2797FDA095BA2F80933002DA
:103C500090933102A0933202B09333020EC00E94BF
:103C60002B1B912F80E010FD84E091FD816092FD7F
:103C700082600E941D0B0E94DD0B8AEFF8C08091CC
:103C8000A40584FF11CF80919207843009F4E7C026
:103C9000853030F4882371F0833009F005CFDDC022
:103CA000883009F4E1C08C3009F45FC0853009F038
:103CB000FBCED8C0209177043091780480917904AC
:103CC00090917A042817390711F40E94271C8091DB
:103CD0006B040E948C0D0E947D1A282F30E03093D7
:103CE0007404209373042C3F310509F4DDCE232B9B
:103CF00021F060E00E94251D60C08091710488233E
:103D000009F4D2CE20914F053091500540915105D4
:103D1000509152052F5F3F4F4F4F5F4F20934F05FC
:103D200030935005409351055093520580912F02D6
:103D3000889DC00111248A519F4FAA2797FDA09505
:103D4000BA2F281739074A075B070CF4ADCE10923B
:103D50004F05109250051092510510925205109285
:103D600072048CE0809392079FCE80917204882326
:103D700011F40E94271C80916B040E948C0D80918D
:103D800071048823C1F020917704309178048091E8
:103D9000790490917A042817390769F480914F05C6
:103DA00090915005A0915105B09152050197A10540
:103DB000B10561F40FC01092920710924F05109256
:103DC000500510925105109252056ECE80917204EA
:103DD0008823A9F090917204E92FF0E0EB5BFA4F91
:103DE00080819F5F909372046CE00E94251D60911A
:103DF0007104809172040E94072490937204E090F1
:103E00004F05F0905005009151051091520508940E
:103E1000E11CF11C011D111D6091300270913102F5
:103E200080913202909133022AE030E040E050E08D
:103E30000E94E8239B01AC012D5F3F4F4F4F5F4F26
:103E4000C801B7010E945C2460934F057093500530
:103E5000809351059093520527CE82E008C08BEAEB
:103E600065E006C083E803C00E94A81A8AEA60E001
:103E70000E94251D19CE80915505882331F40E949A
:103E8000051720E030E0882311F421E030E0822F94
:103E9000089588E0E8E5F5E0DF011D928A95E9F7ED
:103EA00081E080935805089580E3E1E6F5E0DF01C5
:103EB0001D928A95E9F708950E94770A982F853D0B
:103EC00008F042C081578A3198F481E0809353050D
:103ED000E92FF0E0EE0FFF1FE05AFE4F25913491DD
:103EE00082E0809358052093590530935A052CC0E1
:103EF000892F8756883068F4E92FF0E0EE0FFF1F16
:103F0000E65EFE4F808190915905892B809359057B
:103F10001BC09923C9F0209193072830A8F4892F5A
:103F20008D58823248F4E92FF0E0EE0FFF1FE45A7B
:103F3000FE4F85919491982FE22FF0E0E85AFA4FC6
:103F400090832F5F2093930780E008959F92AF9214
:103F5000BF92CF92DF92EF92FF920F931F93CF9376
:103F6000DF930E94491F0E94D70E8823D9F50E9433
:103F700070187C010E942B19982E00E010E051E08F
:103F8000A52EB12C23C0F701EC0FFD1F80818D21E0
:103F9000A1F0892D6C2F4C2D0E947215E82F8756A9
:103FA000883058F4F0E0EE0FFF1FE65EFE4F808190
:103FB00090915905892B809359052196C131D105DE
:103FC00011F70F5F1F4F0830110561F0C02EC501BA
:103FD000002E02C0880F991F0A94E2F7D82EC0E085
:103FE000D0E0D1CF0E940517882309F045C00E9478
:103FF000C517E3E3F3E0DF010D900020E9F7119727
:10400000AE1BBF0B82E080939307EF01EA2EFF24E3
:104010006F01CE0CDF1C31E6A32E35E0B32E1AC0A3
:104020001881812F8756883080F0F501019000209B
:10403000E9F73197E156F54081E695E06E2F412F83
:104040000E9460168F5F9F4F21F4812F61E00E94D4
:104050005C1F219643E353E0CC15DD0509F781E0B1
:104060008093550521E635E0F7013196C901BA0183
:10407000AF010E94772406C080915505882311F076
:104080001092550581E0DF91CF911F910F91FF9024
:10409000EF90DF90CF90BF90AF909F9008952F92B8
:1040A0003F924F925F926F927F928F929F92AF92C8
:1040B000BF92CF92DF92EF92FF920F931F93DF9305
:1040C000CF930F92CDB7DEB70E941C19882309F455
:1040D000C8C00E942B19682E82E0809393070E942B
:1040E000491F0E9470184C011982CC24DD2461E024
:1040F000462E512C73C0B22CF101E355F94F0081CB
:10410000F401E20DF31DF080F720862D622D4A2D7B
:104110000E947215182FFF2039F0882329F00E9481
:104120009D15882309F09DC0E72CE022EF1409F4C7
:1041300040C00E944222882349F0FF2021F08B2DAD
:104140006A2D0E9445220E94C00E41C0112309F42D
:104150009DC0FF2069F0812F61E00E94E919082FBE
:104160000E94C00E8CE59FE161E00E94EE0A07C04C
:10417000812F60E00E94E919082FEE20C1F00E9413
:10418000D70E8823A1F0FF2049F0812F6A2D4B2DF7
:1041900021E00E94EB1181E0898311C0812F6A2DFB
:1041A0004B2D20E00E94EB1191E0998308C0002381
:1041B00031F0FF2021F0812F61E00E945C1F089404
:1041C000211C311CE1E12E16310409F094CF089432
:1041D000C11CD11CF8E0CF16D10461F0AC2CC20197
:1041E0000C2C02C0880F991F0A94E2F7782E222423
:1041F000332481CF80915805813069F4909159051D
:1042000080915605981739F0892F0E94080F8091E8
:1042100059058093560580915305882369F0809154
:104220005805823049F082E0809358051092590574
:1042300010925A051092530520E030E0F901E35541
:10424000F94FD401A20FB31F8C9180832F5F3F4F92
:104250002131310599F780E09981913019F081E0A1
:1042600001C080E00F90CF91DF911F910F91FF90DF
:10427000EF90DF90CF90BF90AF909F908F907F9006
:104280006F905F904F903F902F90089501E077CF0F
:10429000EF92FF920F931F930E941A098B9A20E0CE
:1042A00048EB5BE0CA010197F1F72150D9F78B98F1
:1042B00084E392E00E94C824789400E010E0EE24A9
:1042C000E3948091D2028130F9F48091960588239D
:1042D000D9F4809194059091950501969093950558
:1042E000809394050197815D974074F01092D202FB
:1042F0008EE492E00E94C8248BB78F7B8BBF1F9106
:104300000F91FF90EF9008950E942709002399F4E0
:104310000E944F20082F08B600FE0FC0E8BEF090A4
:104320006005FF2051F0153010F401E007C07BEF6D
:10433000F72EF10E03C00E944F20F12E8091B005A0
:1043400084FF2EC080915405882361F0109254059B
:104350000E94491F88E595E068E00E94510A0E948A
:1043600050161EC00E943B1F882341F00E94A61FCA
:1043700088E595E068E00E94510A12C0002381F0B0
:1043800080915805823021F488E595E063E005C00E
:10439000813029F488E595E068E00E94510A00E048
:1043A0000E94990E80916B040E948C0D0E943B1F0D
:1043B000882311F080E001C081E00E942C171F2D9E
:1043C00080CF81E0809354050E941E0E0E94C00E93
:1043D0000895CF93DF9321E020939605EC0180911F
:1043E00058058093BF051092C00588818076803281
:1043F00071F58981813011F488E02AC0893041F457
:104400008E819F81029719F5209357058FEF20C069
:10441000823019F48091600514C08A3031F40E9412
:10442000E1218B818093600512C0833031F48B8150
:10443000882369F410926B020BC08B3041F4809199
:104440006B028093BF051092C00581E001C080E03F
:10445000DF91CF910895FC0180915705882351F099
:10446000623041F48081813029F481810E941D0BEA
:104470000E94DD0B1092570581E0089581E0809342
:10448000910508958091910508950F931F93082F2A
:10449000162F8CE692E00E943910812F0E94A417FB
:1044A0000E9439108EE692E00E943910802F0E94FF
:1044B000A4170E94391080E792E00E9439101F91E2
:1044C0000F9108950F931F930091920510919305FA
:1044D000039665E070E00E94132480E090E02CE0F9
:1044E00030E040E050E00E94E823060F171F1093D1
:1044F0009305009392051F910F9108951F93182F14
:104500008A3019F48DE00E947E225D9BFECF1CB99B
:1045100080E090E01F9108958D98959A08958D9A66
:10452000959808951F9310E0812F0E941F051F5F2B
:104530001730D1F789B78E7F89BF89B78B7F89BF45
:1045400089B78F7B89BF1F9108959FEF97BB98BB59
:104550001ABA14BA9BBB95BB91BB91B39F7591BB23
:1045600012BA92B3906A92BB91B3936191BB92B32A
:104570009C7E92BB8E9A9698882379F08BE090E08F
:104580000E94622281B3837F81BB83B7856083BF32
:104590000E9492228D98959A08958D9A95980895E3
:1045A000F8940E94230B1092950510929405109296
:1045B000960508958F929F92BF92CF92DF92EF92CD
:1045C000FF920F931F93CF93DF9383ED92E090932D
:1045D00097078093960710BC8CE089B91BB888E0D8
:1045E0008AB986E880BD8FEF8093D20287BB88BBF3
:1045F0001ABA14BA8BBB85BB11BA80E882BB81E0C2
:1046000090E00E94622210E00E947318882319F43F
:104610001F5F1E31C9F70E9470186C01FF2400E073
:1046200010E081E0882E912C36C06C2FF601EC0F43
:10463000FD1F80818B2131F1C13031F481E0E8161A
:1046400019F40E943E221EC080E04E2D0E94850A71
:10465000803139F482E792E00E94C8240E94E20E81
:1046600011C0883139F484E992E00E94C824A1E0A5
:10467000FA2A08C0833131F48BE992E00E94C82401
:10468000B2E0FB2A2196C131D10579F60F5F1F4FA9
:104690000830110561F0E02EC401002E02C0880F21
:1046A000991F0A94E2F7B82EC0E0D0E0BECFFF20F9
:1046B00019F0F394F092D20200D000D0EDB7FEB71B
:1046C000319682EA92E0ADB7BEB712969C938E9374
:1046D00011978091D202828313820E94B324609149
:1046E000D2020F900F900F900F90643021F48CE065
:1046F00090E06FEF04C0643028F48CE090E00E94FA
:10470000062706C08CE090E00E94FE268093D2022D
:104710008A98929A2091D2022430D0F080E090E0E2
:10472000829907C092FD09C08F5F863060F021E05A
:104730000AC0829B09C092FD02C080E004C08F5F66
:10474000863008F020E090B3223050F72093D20258
:1047500000D000D0EDB7FEB7319681EC92E0ADB756
:10476000BEB712969C938E9311978091D20282834A
:1047700013820E94B3240F900F900F900F90CCE201
:10478000D1E08091D2028150823038F40E94D02250
:1047900081E00E94A5220E9448218091D2028823B4
:1047A00011F0833071F782B3836082BB88EE93E0AF
:1047B000FE013197F1F70197D9F782B38C7F82BB65
:1047C0000E94D02280E00E94A5220E94311DD9CFF4
:1047D000629FD001739FF001829FE00DF11D649FE5
:1047E000E00DF11D929FF00D839FF00D749FF00D71
:1047F000659FF00D9927729FB00DE11DF91F639F12
:10480000B00DE11DF91FBD01CF0111240895991BC1
:1048100079E004C0991F961708F0961B881F7A95B7
:10482000C9F780950895AA1BBB1B51E107C0AA1FB9
:10483000BB1FA617B70710F0A61BB70B881F991F41
:104840005A95A9F780959095BC01CD01089597FBE5
:10485000092E07260AD077FD04D0E5DF06D0002018
:104860001AF4709561957F4F0895F6F790958195AC
:104870009F4F0895A1E21A2EAA1BBB1BFD010DC07C
:10488000AA1FBB1FEE1FFF1FA217B307E407F50700
:1048900020F0A21BB30BE40BF50B661F771F881FDC
:1048A000991F1A9469F760957095809590959B0172
:1048B000AC01BD01CF01089597FB092E05260ED04E
:1048C00057FD04D0D7DF0AD0001C38F4509540952E
:1048D000309521953F4F4F4F5F4F0895F6F79095D4
:1048E0008095709561957F4F8F4F9F4F0895FB0185
:1048F000DC0102C001900D9241505040D8F708955C
:104900006817790768F4FB01DC01E40FF51FA40FB9
:10491000B51F02C002900E9241505040D8F7089542
:104920000C947724FB019F01E8944230C4F0453297
:10493000B4F44A3029F497FB1EF4909581959F4F6B
:10494000642F77270E941324805D8A330CF0895DE1
:104950008193CB010097A1F716F45DE25193108289
:10496000C9010C942927A0E0B0E0E9EBF4E20C9433
:10497000D327FE01359661917191809196079091B0
:104980009707AF010E9421252096E2E00C94EF27C3
:104990000F931F93CF93DF938C01E0919607F091D3
:1049A0009707838181FF21C0C0E0D0E00DC0E09176
:1049B0009607F091970720853185BF01F901099588
:1049C000892B11F0CFEFDFEFF80181918F01882360
:1049D00071F7E0919607F0919707208531858AE07D
:1049E000BF01F9010995892B11F0CFEFDFEFCE015F
:1049F000DF91CF911F910F910895AEE0B0E0E3E019
:104A0000F5E20C94D1270D891E8986E08C831A83E8
:104A100009838FEF9FE79E838D839E01275E3F4F23
:104A2000CE0101966F89788DA9010E9421252F81E1
:104A30003885020F131FF80110822E96E4E00C94C3
:104A4000ED27ABE0B0E0E7E2F5E20C94C3273C01D0
:104A50002B015A01FC0117821682838181FD03C05C
:104A60006FEF7FEFC6C19AE0892E1E010894211CCA
:104A7000311CF3012381F20123FD859123FF8191F4
:104A80002F01882309F4B2C1853239F423FD8591C1
:104A900023FF81912F01853229F490E0B3010E9418
:104AA0003927E7CF982FFF24EE249924FFE1FF1543
:104AB000D0F09B3269F09C3228F4903259F0933256
:104AC00091F40EC09D3249F0903369F441E024C066
:104AD00052E0F52A84E0F82A28C098E0F92A25C097
:104AE000E0E1FE2A22C0F7FC29C0892F80538A30DA
:104AF00070F4F6FE05C0989C902C1124980E15C0F9
:104B0000E89CE02C1124E80EF0E2FF2A0EC09E3251
:104B100029F4F6FC6BC140E4F42A07C09C3619F472
:104B200050E8F52A02C0983649F4F20123FD959128
:104B300023FF91912F01992309F0B8CF892F855434
:104B4000833018F08052833038F444E050E0A40EF3
:104B5000B51E5FE359830FC0933631F0933779F078
:104B6000933509F056C020C0F5018081898342E069
:104B700050E0A40EB51E610101E010E012C0F50185
:104B8000C080D180F6FC03C06FEF7FEF02C0692DBB
:104B900070E042E050E0A40EB51EC6010E941E2740
:104BA0008C015FE7F52214C0F501C080D180F6FCCE
:104BB00003C06FEF7FEF02C0692D70E042E050E06C
:104BC000A40EB51EC6010E9413278C0150E8F52AD9
:104BD000F3FE07C01AC080E290E0B3010E943927BB
:104BE000EA948E2D90E008171907A8F30EC0F6017D
:104BF000F7FC8591F7FE81916F0190E0B3010E946F
:104C00003927E110EA94015010400115110579F798
:104C1000EAC0943611F0993669F5F7FE08C0F5013F
:104C2000208131814281538184E090E00AC0F50106
:104C3000808191819C01442737FD4095542F82E06B
:104C400090E0A80EB91E9FE6F92257FF09C05095C3
:104C50004095309521953F4F4F4F5F4FE0E8FE2A3A
:104C6000CA01B901A1012AE030E00E946527D82ECF
:104C7000D21840C0953729F41F2D1F7E2AE030E05E
:104C80001DC01F2D197F9F3661F0903720F4983595
:104C900009F0ACC00FC0903739F0983709F0A6C0C2
:104CA00004C028E030E00AC0106114FD146020E167
:104CB00030E004C014FD166020E132E017FF08C0A8
:104CC000F501608171818281938144E050E008C0E8
:104CD000F50180819181BC0180E090E042E050E0EC
:104CE000A40EB51EA1010E946527D82ED2188FE709
:104CF000F82EF122F6FE0BC05EEFF522D91438F43F
:104D0000F4FE07C0F2FC05C08FEEF82202C01D2D94
:104D100001C0192DF4FE0DC0FE01ED0DF11D8081C5
:104D2000803319F499EEF92208C01F5FF2FE05C026
:104D300003C08F2D867809F01F5F0F2DF3FC14C080
:104D4000F0FE0FC01E1510F09D2C0BC09D2C9E0C6C
:104D5000911A1E2D06C080E290E0B3010E9439270F
:104D60001F5F1E15C0F304C01E1510F4E11A01C028
:104D7000EE2404FF0FC080E390E0B3010E943927C6
:104D800002FF1DC001FD03C088E790E00EC088E56A
:104D900090E00BC0802F867891F001FF02C08BE27B
:104DA00001C080E2F7FC8DE290E0B3010E94392758
:104DB00006C080E390E0B3010E9439279A94D91489
:104DC000C0F3DA94F101ED0DF11D808190E0B301A3
:104DD0000E943927DD20A9F706C080E290E0B301E8
:104DE0000E943927EA94EE20C1F743CEF301668191
:104DF0007781CB012B96E2E10C94DF27E199FECF7E
:104E00009FBB8EBBE09A99278DB30895262FE19919
:104E1000FECF9FBB8EBB2DBB0FB6F894E29AE19AF2
:104E20000FBE01960895FC0105906150704001107D
:104E3000D8F7809590958E0F9F1F0895FC016150C3
:104E4000704001900110D8F7809590958E0F9F1FAC
:104E50000895DC01FC01672F71917723E1F7329708
:104E600004C07C916D9370836291AE17BF07C8F345
:104E700008950F931F93CF93DF938C01EB018B81E8
:104E800081FF1BC082FF0DC02E813F818C819D81DF
:104E90002817390764F4E881F9810193F983E883DD
:104EA00006C0E885F985802F0995892B31F48E811C
:104EB0009F8101969F838E8302C00FEF1FEFC80171
:104EC000DF91CF911F910F910895FA01AA27283001
:104ED00051F1203181F1E8946F936E7F6E5F7F4FC7
:104EE0008F4F9F4FAF4FB1E03ED0B4E03CD0670F43
:104EF000781F891F9A1FA11D680F791F8A1F911D96
:104F0000A11D6A0F711D811D911DA11D20D009F4E5
:104F100068943F912AE0269F11243019305D319327
:104F2000DEF6CF010895462F4770405D4193B3E010
:104F30000FD0C9F7F6CF462F4F70405D4A3318F0B7
:104F4000495D31FD4052419302D0A9F7EACFB4E068
:104F5000A6959795879577956795BA95C9F7009720
:104F60006105710508959B01AC010A2E06945795C1
:104F7000479537952795BA95C9F7620F731F841F18
:104F8000951FA01D08952F923F924F925F926F92AE
:104F90007F928F929F92AF92BF92CF92DF92EF92C9
:104FA000FF920F931F93CF93DF93CDB7DEB7CA1B4A
:104FB000DB0B0FB6F894DEBF0FBECDBF09942A8875
:104FC000398848885F846E847D848C849B84AA841D
:104FD000B984C884DF80EE80FD800C811B81AA81AA
:104FE000B981CE0FD11D0FB6F894DEBF0FBECDBF75
:084FF000ED010895F894FFCFD4
:104FF8005AFFFEFEF8F86C6C68686D6D69696B6B3A
:1050080067678E8D8E8D8E8D8E8D8E8D8E8D8E8D0D
:105018008E8D00655F5F5F5F5F5F5F5F5F5F5F5F94
:105028005F5F5F5F5F5F5F5F5F5F20696E697420CE
:105038004C45442053746174655F5F5F5F5F5F5FD9
:105048005F5F5F5F5F5F00FF00080701FF01007897
:105058004D6F64693D2025642C205F69734B657929
:105068004D617070696E673D202564200A002563D4
:1050780000646F776E205F6D6163726F446F776E47
:10508800436F756E74203A20256420784B657969E2
:105098006478203A202564200A00757020696478B5
:1050A800203A2025642C20627566666572206C653E
:1050B8006E203A20256420784B6579696478203A17
:1050C800202564200A0020202020202020202020C5
:1050D80020202020202020202020202020202020C8
:1050E80020202020202020202020202020202020B8
:1050F800202020205F6D6163726F4275666665725D
:10510800496E646578203A202564200A002E2E2EE8
:105118002E2E2E2E2E2E2E2E2E2E2E2E2E2E2E2EA7
:105128002E2E2E2E2E2E2E206D6163726F20696E0C
:1051380070757420656E6420002564002C200020A2
:10514800286C617965723D002064656661756C74D0
:105158003D00206D617070696E673D0029005F77C2
:10516800616974203A202564200A00271E1F202127
:10517800222324252629F401010002000400080046
:105188001000200040008000000100020004000818
:1051980000100020004000800A0553544152544931
:1051A8004E472050532F32204B4559424F415244CD
:1051B80000206D6F766520746F2075736220000281
:1051C800050000007374617274696E67205553425C
:1051D800206B6579626F6172642121212000202093
:1051E800202020202020202020202020206D6F76C5
:1051F8006520746F2070732F322000012D002C0061
:105208003D002E2E2E2E2E2E2E2E2E2E2E72656127
:1052180064794B65794D617070696E674F6E426F46
:105228006F7420004B45595F5520004B45595F501E
:105238002000757365722073656C656374656420FE
:10524800494E544552464143452025303278200A7C
:1052580000494E5445524641434520253032782076
:105268000A00FF00000002000000007E220000008B
:02527800000034
:00000001FF
