:100000000C942A030C9462030C9447030C9447034A
:100010000C94B0070C94BC060C9483070C9429072D
:100020000C9456070C948F060C94FC060C943C061A
:100030000C9447030C9447030C9447030C94470318
:100040000C9447030C9447030C9447030C94470308
:100050000C9447039C168816B8168C168E169016AC
:100060009416B61698169A169616A416BE169E16CE
:10007000C216C616CF16C816C816C816C816C81691
:10008000C816C816C816C816B416B216C016A216D8
:10009000C416CA168A16C816C816C816C816C816B0
:1000A000C816C816C816C816C816C816C816C81660
:1000B000C816C816C816C816C816C816C816C81650
:1000C000C816C816C816C816C816A616AE16AA169A
:1000D0009216A016BA16C816C816C816C816C8169C
:1000E000C816C816C816C816C816C816C816C81620
:1000F000C816C816C816C816C816C816C816C81610
:10010000C816C816C816C816C816A816B016AC1653
:10011000BC160000010008004000000100040000BF
:1001200001000800200040008000000100040403DA
:1001300009041C03770069006E006B0065007900FC
:100140006C006500730073002E006B0072001003DA
:1001500070007300320061007600720055001201D9
:10016000100100000008424231E1000101020001DB
:100170000902220001010080FA09040000010301C4
:100180000100092101010001225500070581030832
:10019000000A0000FC001C322123242B3433433B93
:1001A000424B3A31444D152D1B2C3C2A1D22351A49
:1001B000161E26252E363D3E46455A76660D294E9C
:1001C00055545B5D5D4C520E41494A580506040C7E
:1001D000030B830A010978077C7E7C706C7D716952
:1001E0007A746B7275774A7C7B795A69727A6B7311
:1001F000746C757D7071612F001412111F145911E8
:10020000270000373F5E48103A38302820184D1537
:100210003B34233221502B404B1C43221D0000F164
:10022000F2370F08101820283038404850575F6DBB
:100230000051136A64672700000063625F000000DA
:1002400000000000000000008A01210223022402B5
:100250002502260227022A02B500B600B700CD000B
:10026000E200E900EA00830192019401000000002D
:100270000000000000009100900066006700680028
:1002800069006A006B006C006D006E006F0070000A
:100290007100720073008500860087008800890065
:1002A0008A008B008C008D008E008F0092009300DE
:1002B00094009500960097009800464800488E8D5F
:1002C000007172738F006A6B6E6D6546494A4B4CC4
:1002D0004D4E52504F5154587172737475767778F1
:1002E000797A7B7C7D7E7F80818283848586878806
:1002F000898A8F00494C4A4D4B4E6A6E65504F5269
:1003000051540073656C656374206D6F64650031D2
:100310003A4B6579204D617070696E6700323A4DD5
:100320006163726F00333A4578697400343A626FE2
:100330006F74206D617070657200676F6F6420620A
:1003400079657E00626F6F74206D617070657220D8
:10035000737461727421004D6163726F00313A539E
:10036000656C656374204D6163726F20496E6465CE
:100370007800323A4578697400393A436C656172A5
:1003800020416C6C00363A4261636B004B6579200A
:100390004D617070657200313A4368616E67652027
:1003A0004C6179657200323A53656C656374204B19
:1003B0006579202D20696E707574206B6579636F87
:1003C000646500333A5361766520616E6420457838
:1003D000697400343A4578697420776974686F7578
:1003E0007420536176696E6700393A52657365749B
:1003F00020746F2044656661756C742028437572A3
:1004000072656E74204C6179657229007073326177
:100410007672550063686F6F7365206C61796572E1
:100420002028313A206E6F726D616C2C20323A2098
:10043000464E2C20333A20464E3229206375727284
:10044000656E743D200073656C656374206B65791F
:100450002028616E79206B657920796F752077612E
:100460006E74292000696E707574206B6579636FF6
:10047000646520286D7573742033206E756D626518
:10048000727329203A200053617665202620457832
:1004900069742C207468616E6B20796F752E00452D
:1004A00078697420776974686F7574205361766910
:1004B0006E672C2073656520796F75206C6174659B
:1004C000722E00526573657420746F2064656661D6
:1004D000756C742063757272656E74206C617965D9
:1004E0007200496E70757420436F6D6D616E64208B
:1004F0004E756D6265723A20006E6F7468696E6742
:1005000000536176652063757272656E74206C614C
:10051000796572004C6F61642063757272656E74E8
:10052000206C6179657200736176696E672E2E2E7C
:1005300000636F6C2C20726F77203A2000696E7612
:10054000616C6964206B6579636F64652C20696EEA
:1005500070757420616761696E2E00696E707574C4
:10056000204D6163726F20496E64657820283031B8
:100570007E31322C206D7573742032206E756D6261
:1005800065727329203A200045786974206D616393
:10059000726F2C2073656520796F75206C617465AE
:1005A000722E00696E707574206B657920286D61FC
:1005B00078203234206B6579732C2073746F70202F
:1005C0003A207072657373204553432064757269D5
:1005D0006E672031207365632900696E76616C69EE
:1005E0006420496E6465782C20696E707574206192
:1005F0006761696E2E00636C6561722E2E2E000598
:10060000010906A1018501050719E029E715002563
:1006100001750195088102950575010508190129E3
:10062000059102950175039103950675081500263D
:1006300091000507190029A48100C0050C0901A13A
:1006400001850219002A3C021500263C029501751D
:10065000108100C011241FBECFE5D8E0DEBFCDBFA2
:1006600010E0A0E6B0E0E8E7FBE402C005900D92E0
:10067000A03FB107D9F715E0A0EFB0E001C01D928F
:10068000A139B107E1F70E942D210C94BA250C94F1
:100690000000A82FB92F80E090E041E050EA60957B
:1006A00030E009C02D9182279795879510F0842717
:1006B0009527305EC8F36F5FA8F30895EADF8D9346
:1006C0009D930895CF93CFB7CF93C395839BE9F7BD
:1006D000839B09C0839B07C0839B05C0839B03C08A
:1006E000839B01C0A3C0DF93C091CC03DD27CD5213
:1006F000DC4F839B02C0DF91EBCF2F930F931F93AF
:1007000000B32FEF03FB20F94F933F9310B34FEF4C
:10071000012703FB21F93BE031C04E7F012F10B3CD
:10072000216028C0102F4D7F2260000000B329C037
:100730004B7F2460012F000010B32BC010B3477F04
:1007400028602AC04F7E00B320612CC04F7D10B3BB
:1007500020622FC04F7B00B3206432C0422700B319
:1007600049934FEF0000102713FB20F910B31C70C2
:10077000C9F1297F91F2012703FB21F900B3237FFF
:1007800089F2315058F1102713FB22F910B3277E5C
:1007900079F2012703FB23F92F7C81F200B31027A4
:1007A00013FB24F92F7971F200C010B3012703FB6A
:1007B00025F92F7359F200C000B3102713FB26F957
:1007C000223040F200C010B3012703FB27F9243088
:1007D00028F64F77206810B30000F9CF10E41ABF55
:1007E000002719C03B503195C31BD04010E41ABFFD
:1007F0000881033CF9F00B34E9F02091CA03198118
:10080000110F1213EDCF4A81441F093641F10D3209
:1008100011F0013E29F70093D1033F914F911F91B1
:100820000F912F91DF91CAB7C6FD4FCFCF91CFBFA8
:10083000CF9118952091D103222379F31091CF0302
:10084000112369F534306AF13093CF032093CB0341
:100850001091CC033BE0311B3093CC0322C00091BC
:10086000CF030130E4F40AE54F7049F430916000A1
:1008700034FD19C000936000C3EBD3E018C0309181
:10088000BE0334FD10C00093BE03CFEBD3E00FC016
:100890002795A8F45150A9F4220F0000F9CF4AE59A
:1008A00003C042ED01C0432FC4E1D0E032E011B3F8
:1008B0001C60939A11BB02B320E41CE05F930127F4
:1008C00056E002BB279520F4515021F4220FF9CFB6
:1008D000012756E000003B5A02BBD0F2279528F4CE
:1008E000515029F4220F0000F9CF012756E0279537
:1008F00002BB20F4515021F4220FF9CF012756E01A
:100900002991332302BB21F6037F1091D003110FED
:10091000C651D04002BB11F01093CA0310E41ABFB5
:10092000086011B3137F402F437F5F9100C000C068
:1009300002BB11BB42BB71CF089583B7887F826031
:1009400083BF12BE89B7816089BF1092A503109240
:10095000A6031092A7031092A80308958EB5887F6E
:1009600083608EBD1DBC1CBC89B7846089BF08959F
:1009700085B5887F846085BD14BC89B7806489BFD4
:100980001092AD031092AE031092AF031092B00319
:10099000089580E090E0FC01EE0FFF1FE051FF4F53
:1009A00011821082019688309105A9F70E949D045A
:1009B0000E94AE040E94B8047894089593B7987F7B
:1009C000982B93BF08959EB5987F982B9EBD089550
:1009D00095B5987F982B95BD089583B7E82FF0E0E3
:1009E000E770F070EE0FFF1FEE5EFE4F2591349121
:1009F000C90108958EB5E82FF0E0E770F070EE0FB2
:100A0000FF1FEE5EFE4F25913491C901089585B513
:100A1000E82FF0E0E770F070EE0FFF1FE25EFE4F90
:100A200025913491C9010895883040F4E82FF0E011
:100A3000EE0FFF1FE051FF4F7183608308958830F0
:100A400040F4E82FF0E0EE0FFF1FE051FF4F11825E
:100A500010820895EF92FF920F931F93CF93DF932D
:100A6000EC0112B71092A9031092AA031092AB03E3
:100A70001092AC0383B7E82FF0E0E770F070EE0F50
:100A8000FF1FEE5EFE4F2591349140E050E060E0A4
:100A90007BE187EB90E00E944422B901CA01693BE7
:100AA0002DE8720726E0820720E09207A0F437E2E3
:100AB000C131D30780F49E0140E050E00E94F22152
:100AC00028EE33E040E050E00E944422C901DA0100
:100AD000BC01CD0121C028EE33E040E050E00E948F
:100AE0004422CA01B9019E0140E050E00E94F22177
:100AF00013C08091A9039091AA03A091AB03B09178
:100B0000AC0385B78F7885BF85B7806885BF88952A
:100B100085B78F7785BF08C09B01AC01210F311DC0
:100B2000411D511D79018A012091A9033091AA0329
:100B30004091AB035091AC0382B790E0A0E0B0E0ED
:100B4000542F432F322F2227822B932BA42BB52BEC
:100B50008E159F05A007B10760F2DF91CF911F911D
:100B60000F91FF90EF9008951092A5031092A603A5
:100B70001092A7031092A80308952091A503309125
:100B8000A6034091A7035091A803B901CA01089593
:100B90001092AD031092AE031092AF031092B00307
:100BA00008952091AD033091AE034091AF03509171
:100BB000B003B901CA010895893031F48FB582605C
:100BC0008FBD8FB58E7F0AC08A3019F48FB58260D1
:100BD00002C08FB58D7F8FBD8FB581608FBD1BBC6F
:100BE0001ABC19BC18BC08952FB52E7F2FBD2FB588
:100BF00022602FBD2EB528602EBD2EB520612EBDE2
:100C000097BD86BD1BBC1ABC19BC18BC08958FB516
:100C10008D7F8FBD8FB58E7F8FBD8FB58F778FBD49
:100C20008FB58F7B8FBD8FB58F7D8FBD8FB58F7E3D
:100C30008FBD08958FB580688FBD8FB58F7B8FBDB9
:100C400008958FB580628FBD8FB58F7E8FBD08955B
:100C50008FB58F778FBD8FB58F7B8FBD08958FB583
:100C60008F7D8FBD8FB58F7E8FBD08959BBD8ABD53
:100C7000089599BD88BD08951F920F920FB60F92E7
:100C800011242F933F934F935F936F937F938F9391
:100C90009F93AF93BF93EF93FF938091A5039091A0
:100CA000A603A091A703B091A8030196A11DB11DB1
:100CB0008093A5039093A603A093A703B093A803E2
:100CC0008091A9039091AA03A091AB03B091AC03CA
:100CD0000196A11DB11D8093A9039093AA03A0932F
:100CE000AB03B093AC038091F0009091F100892B9D
:100CF00029F0E091F000F091F1000995FF91EF915A
:100D0000BF91AF919F918F917F916F915F914F9123
:100D10003F912F910F900FBE0F901F9018951F922B
:100D20000F920FB60F9211242F933F934F935F931F
:100D30006F937F938F939F93AF93BF93EF93FF93A3
:100D40008091F2009091F300892B29F0E091F2005C
:100D5000F091F3000995FF91EF91BF91AF919F91B1
:100D60008F917F916F915F914F913F912F910F9054
:100D70000FBE0F901F9018951F920F920FB60F92F3
:100D800011242F933F934F935F936F937F938F9390
:100D90009F93AF93BF93EF93FF938091AD03909197
:100DA000AE03A091AF03B091B0030196A11DB11D98
:100DB0008093AD039093AE03A093AF03B093B003C1
:100DC0008091FA009091FB00892B29F0E091FA00C4
:100DD000F091FB000995FF91EF91BF91AF919F9129
:100DE0008F917F916F915F914F913F912F910F90D4
:100DF0000FBE0F901F9018951F920F920FB60F9273
:100E000011242F933F934F935F936F937F938F930F
:100E10009F93AF93BF93EF93FF938091FE009091C8
:100E2000FF00892B29F0E091FE00F091FF00099569
:100E3000FF91EF91BF91AF919F918F917F916F91B2
:100E40005F914F913F912F910F900FBE0F901F9088
:100E500018951F920F920FB60F9211242F933F9364
:100E60004F935F936F937F938F939F93AF93BF93B2
:100E7000EF93FF938091F4009091F500892B29F076
:100E8000E091F400F091F5000995FF91EF91BF9189
:100E9000AF919F918F917F916F915F914F913F9112
:100EA0002F910F900FBE0F901F9018951F920F92C9
:100EB0000FB60F9211242F933F934F935F936F932D
:100EC0007F938F939F93AF93BF93EF93FF93809103
:100ED000F6009091F700892B29F0E091F600F0914F
:100EE000F7000995FF91EF91BF91AF919F918F917D
:100EF0007F916F915F914F913F912F910F900FBE16
:100F00000F901F9018951F920F920FB60F921124F9
:100F10002F933F934F935F936F937F938F939F9301
:100F2000AF93BF93EF93FF938091F8009091F900F6
:100F3000892B29F0E091F800F091F9000995FF91D3
:100F4000EF91BF91AF919F918F917F916F915F9141
:100F50004F913F912F910F900FBE0F901F901895BA
:100F60001F920F920FB60F9211242F933F934F931E
:100F70005F936F937F938F939F93AF93BF93EF9301
:100F8000FF938091FC009091FD00892B29F0E09166
:100F9000FC00F091FD000995FF91EF91BF91AF9199
:100FA0009F918F917F916F915F914F913F912F9181
:100FB0000F900FBE0F901F90189580930101F89429
:100FC0008091B2038F7E8093B2038091B2038860D8
:100FD0008093B20378940895F8948091B2038B7F44
:100FE0008093B20378948091000108958FEC84BDC2
:100FF0008091B103833000F58B98939A8091B2036E
:1010000080FF23C0829BA3C08091B103813031F067
:10101000813040F0823009F0F6C006C0839902C0EA
:101020008DE096C082E094C08091B20383FFEBC054
:1010300093988B9A84E28CC08091B1038A3108F036
:1010400079C08091B20380FD08C08091B2038160B5
:101050008093B2038A98929A0895829B76C0809179
:10106000B103873140F4803118F58D3061F08F3055
:1010700009F055C00CC08831E1F1883158F189314F
:1010800009F04DC049C08091B2038D7F4DC0809161
:10109000B2038B7F8093B203839B05C080E880936B
:1010A000000181E014C0109203011092000137C0CA
:1010B00080910001869580930001839B30C08091D0
:1010C0000001806880930001809103018F5F80930D
:1010D000030125C0839B05C0809103018F5F80932E
:1010E00003018091030180FD1AC08091B2038260E8
:1010F00010C0839905C08091B20382608093B203CF
:101100008091B20381FD0BC093988B9A8091B203BA
:1011100084608093B20303C08B98939A6CC09298BA
:101120008A9A8091B2038E7F8093B2038091B1033B
:101130008F5F0EC08091B1038F3208F064C0809140
:10114000B20380FF10C0829906C08B98939A81E009
:101150008093B10308958091B2038E7F8093B20390
:1011600092988A9A08958091B20381608093B20325
:101170008A98929A8091B1038C3228F4853280F457
:101180008432E1F507C08D3299F18D32E8F08E326C
:10119000A9F531C0809101018093020110920301F1
:1011A0008091020180FF08C08B98939A809103017F
:1011B0008F5F8093030102C093988B9A8091020104
:1011C0008695809302011AC08091030180FF03C0BD
:1011D00093988B9A02C08B98939A8091B203877FE1
:1011E0008093B2038091B20380618093B20306C002
:1011F0008B98939A03C01092B10308958091B10324
:101200008F5F8093B10308951092B10381E18093C1
:10121000B2038A98929A8B98939A0E94B80482E0BB
:101220000E94E80485E066EF77E00E9414058FECE9
:1012300084BD089585B7826085BF8BB780648BBFFE
:101240008BE48093BF038AE58093BE0308951F93C8
:10125000CF93DF936091CF03635067FDCAC0809145
:10126000CC03CCE0D0E0C81BD109CD52DC4F80913B
:10127000CB038D3209F0AAC0683009F0B8C083EC06
:101280008093B3038AE58093600010920401888103
:10129000807641F0CE010E944A20282F8F3F09F42A
:1012A00084C08AC09A811092BC038981882321F46A
:1012B0001092BD0322E072C0853019F49093D003E0
:1012C0006CC0863009F055C08B81813059F489B7E4
:1012D0008B7F89BF8EE591E09093CE038093CD0301
:1012E00022E143C0823041F480E791E09093CE0345
:1012F0008093CD0322E239C08330F9F48A818823B8
:1013000041F48EE291E09093CE038093CD0324E0EC
:101310002CC0813041F482E391E09093CE0380931E
:10132000CD032CE122C08230F9F48EE491E0909359
:10133000CE038093CD0320E118C0813241F482E8CE
:1013400091E09093CE038093CD0329E00EC08232CA
:1013500059F48FEF95E09093CE038093CD0389B736
:10136000846089BF25E501C020E080E4809304010A
:1013700023C0883021F421E082ED93E011C0893050
:1013800019F49093D20309C08A3011F421E006C009
:101390008B3019F48BE48093BF0320E08CEB93E057
:1013A0009093CE038093CD0307C0888187FD2E8163
:1013B00080E88093040106C08F81882319F48E8110
:1013C000821708F0822F8093610011C08091040180
:1013D00087FF0DC0CE010E948C208F3F21F48EE14B
:1013E0008093600004C0882311F010926100109275
:1013F000CF038091600084FF46C0809161008F3FE1
:1014000009F441C0182F893008F018E0811B80933F
:1014100061008091B30398E889278093B303112377
:1014200021F12091CD033091CE038091040186FFFC
:101430000AC0912FF901A4EBB3E084918D9331960A
:101440009150D9F708C0912FD901E4EBF3E08D91C9
:1014500081939150E1F7C90101961150810F911DBF
:101460001F5F9093CE038093CD0384EB93E0612FB5
:101470000E945E03612F6C5F6C3019F08FEF8093D8
:1014800061006093600094E180B38C7031F49150FE
:10149000D9F71092D0031092CA03DF91CF911F9118
:1014A00008951F93DC01162F8091BE0384FF07C0AF
:1014B0008091BF0398E889278093BF0303C08AE522
:1014C0008093BE03912FE0ECF3E08D9181939150D6
:1014D0001916DCF380EC93E0612F0E945E031C5F21
:1014E0001093BE031F9108958091080108959C01F7
:1014F000E0910501EE2389F080910801882369F0CD
:101500008E2F865D803120F4F0E0E457F040E081DA
:101510008E2FF9010995109205010895E82F865D37
:10152000803140F480910801882321F0F0E0E457F5
:10153000F040E0818E2F089591E1899FC001112430
:10154000860F911D23E0880F991F2A95E1F7840FDC
:10155000911DE0918200F0918300E80FF91FE49162
:101560008E2F08951F93982F865D6623D9F08031C2
:1015700088F4809106018F5F8093060180910701B6
:10158000882361F49093050181E080930701109214
:10159000080129C080910501882329F181E0809309
:1015A000080121C08031F8F48091060181508093B8
:1015B0000601E0910501EE2381F080910801882366
:1015C00061F4F0E0E456F0401081812F0E94F115A3
:1015D000812F0E94F1151092050180910601882348
:1015E00011F4109207011F9108958093200108952E
:1015F00080912001089510920D0108958EB5887F85
:101600008EBD08958EB584608EBD0895949A8091A4
:101610000B0190910C019BBD8ABD0895949808958B
:1016200090930C0180930B0180910B0190910C0120
:10163000892B51F480918A0090918B00892B21F0A5
:1016400094988EB5887F0EC080910B0190910C010B
:10165000892B49F080918A0090918B00892B19F495
:101660008EB584608EBD80910B0190910C0190939A
:101670008B0080938A00089590911401992319F4A6
:1016800080E090E010C0913049F41092190110925E
:10169000180110921B0110921A010895923031F432
:1016A0008091890090E00E94100B0895892F83504B
:1016B0008230A0F483E080931C01943019F481E01F
:1016C00080931C0180911C019FEF899FC001112410
:1016D0006CE070E00E94312260931D0108958091BA
:1016E000140190E0019665E070E00E943122809341
:1016F000140181E090E090931301809312010E9405
:101700003C0B0895809189008E31A1F0895180931E
:1017100089008E3118F48EE1809389008091140144
:10172000823011F40E943C0B81E090E09093130111
:10173000809312010895809189008F3FA9F090E075
:1017400049968F3F910511F00CF08FEF809389003F
:1017500080911401823011F40E943C0B81E090E0F2
:10176000909313018093120108958091200190E0DD
:1017700080FF02C0909A01C09098AC0142705070F6
:1017800081FF02C0919A01C091982091220182FFAD
:1017900004C0969A2223C9F404C096982130A9F473
:1017A00009C081E080932201452B11F485E007C038
:1017B00084E005C010922201452B21F483E0809340
:1017C0002101089582E08093210108958091140100
:1017D0008330C1F484EF91E090931F0180931E0148
:1017E00080911C018C3038F58F5F80931C019FEF36
:1017F000899FC00111246CE070E00E943122609347
:101800001D0108958430B9F484EF91E090931F0195
:1018100080931E0180911C01882369F08150809380
:101820001C019FEF899FC00111246CE070E00E94B1
:10183000312260931D0108952091890030E0AC01B0
:10184000429FC001439F900D529F900D11246FEF56
:1018500070E00E943122CB010895CF93DF938091F5
:101860001401813009F057C0C0911A01D0911B01B9
:10187000209761F4809118019091190168E070E05F
:101880000E943122CB010E941C0C13C0C230D10532
:10189000A1F4809118019091190168E070E00E9414
:1018A0003122CB01909581959F4F81509F4F0E948F
:1018B0001C0C90E00E94100B0FC0C130D10519F034
:1018C000C330D10549F48091180190911901019616
:1018D000909319018093180180911801909119013A
:1018E000885F974074F01092190110921801CE0190
:1018F000019664E070E00E94312290931B01809376
:101900001A01809118019091190101969093190183
:101910008093180187C08330D1F580911E0190918A
:101920001F01009731F0019790931F0180931E01D2
:1019300028C020911D012223F1F08091180190917F
:101940001901019690931901809318010897CCF022
:101950001092190110921801215020931D018FEF50
:1019600090E0821B91096BEE7FEF0E943122645F51
:1019700060931C0106C010921C0110921901109274
:10198000180180911D0190E00E941C0C3DC0843024
:1019900009F03EC080911E0190911F01009731F027
:1019A000019790931F0180931E0129C020911D0172
:1019B0002F3FF1F0809118019091190101969093B9
:1019C0001901809318010897D4F010921901109210
:1019D00018012F5F20931D018FEF90E0821B91096A
:1019E0006BEE7FEF0E943122645F60931C0107C0A1
:1019F0008CE080931C0110921901109218018091C3
:101A00001D0190E00E941C0C90E00E94100B0AC087
:101A1000109219011092180183E090E090931B013D
:101A200080931A01DF91CF9108950E942D0C0895A3
:101A300090989198969880911401823011F084309A
:101A400029F4109219011092180108C0882311F08E
:101A5000833021F481E080931701089510921701DB
:101A600008950E94B50B0E943C0B0895CF93DF931D
:101A700080911701813029F1C0911801D09119018D
:101A8000CE0168E070E00E943122CB0190958195F3
:101A90009F4F81509F4F0E941C0C90E00E94100BA2
:101AA00087E0C83FD80744F080E090E00E94100B28
:101AB000949881E0809317012196D0931901C093E7
:101AC0001801DF91CF9108951F93182F80910D0178
:101AD000882309F489C00E94600E882319F00E94AF
:101AE000360D82C00E94A320882311F042E004C07A
:101AF000113009F045C041E080910E0190910F0135
:101B0000019690930F0180930E01209186003091F1
:101B1000870028173907DCF5809110019091110199
:101B200001969093110180931001893C91057CF1FD
:101B3000809120019091880080FF09C0913021F4AC
:101B400082B34095482307C082B3482B09C0913027
:101B500021F482B3482B42BB08C082B3409548238E
:101B600042BB10920F0110920E018091880091E00B
:101B7000892780938800109211011092100107C0EC
:101B8000109211011092100181E0809388008091E1
:101B90001201909113011816190624F501969093DD
:101BA000130180931201885E9340E1F410921301B7
:101BB000109212016091140180911501681731F0A3
:101BC000609315018BE090E00E94C624609189002B
:101BD00080911601861731F06093160189E090E03C
:101BE0000E94C6240E942D0C1F91089580910D0122
:101BF000882309F064C081E080930D0182E06EE0EB
:101C00007BE00E94140583E066E07BE00E941405FF
:101C10008FB58E7F8FBD8FB58D7F8FBD8EB5886060
:101C20008EBD8EB580618EBD8091840090918500BF
:101C300097BD86BD1BBC1ABC86B597B599BD88BD3E
:101C40008FB58F778FBD8FB58F7B8FBD8FB58F7D14
:101C50008FBD8FB58F7E8FBD1DBC1CBC89B78061C9
:101C600089BF89B7886089BF8EB584608EBD89E0E1
:101C700090E00E94BE2480938900809316018BE03F
:101C800090E00E94BE24809314018F3F11F41092C3
:101C9000140180911401809315010E943C0B8091E6
:101CA000EF00882311F0833051F4809186009091E9
:101CB0008700959587959093870080938600089577
:101CC00080912301089580912301882329F481E0E4
:101CD000809323010E94180D089580912301882389
:101CE00011F58091240190912501A0912601B091D8
:101CF00027010196A11DB11D809324019093250118
:101D0000A0932601B0932701805E9349A440B04080
:101D100054F0109224011092250110922601109285
:101D200027010E94630E089580912301882321F0EA
:101D3000109223010E94310D10922401109225016E
:101D40001092260110922701089580912E01816042
:101D500080932E01089580912E01817008958091C5
:101D60002E0182700895982F80912E0180FD1AC057
:101D70009730A1F4109231011092300181E08093EC
:101D80002F018091EF00882311F0833059F484EC07
:101D900099E09093C0008093BF00089510922E01A7
:101DA00010922F01089580913201089581E080936F
:101DB0003201089510922E0110923601089590E09C
:101DC000895C8C3008F491E0892F0895982F895C04
:101DD0008C3008F490E0892F089588E20E94F11574
:101DE00088E20E94F115089580E3EAE8F4E0DF015B
:101DF000982F1D929A95E9F71092BA04EAEEF3E053
:101E0000DF011D928A95E9F710922D0108950F9335
:101E10001F93FC0180810E945C168C01882319F0BD
:101E200088E60E94F115812F0E94F115812F0E94F2
:101E3000F115002319F088E60E94F1151F910F910A
:101E40000895CF92DF92EF92FF920F931F93DF934B
:101E5000CF930F92CDB7DEB78C01009711F52FC04D
:101E600000D000D000D0EDB7FEB73196ADB7BEB709
:101E70001296FC92EE921197D382C282992787FD27
:101E80009095958384830E94BD228DB79EB7069658
:101E90000FB6F8949EBF0FBE8DBFC7010E94070FFB
:101EA00008C07E010894E11CF11C8CE8C82E80E07B
:101EB000D82EF8010F5F1F4F8491882389F60F9069
:101EC000CF91DF911F910F91FF90EF90DF90CF9016
:101ED000089583EC94E00E94210F0E94ED0E2AE009
:101EE00034E080E090E00BC01192E217F307E1F7D5
:101EF00001969F01285F3F4F8131910549F0FC0118
:101F000043E0EE0FFF1F4A95E1F7EE5FFB4FECCF8A
:101F100081E090E090933E0180933D01089586EF2B
:101F200095E00E94210F0E94ED0E81E080932C012C
:101F30008CE08093360110923401089580913D0128
:101F400090913E01892B29F410922E0110923601B6
:101F5000089587E295E00E94210F0E94ED0E81E036
:101F600080932C018BE08093360180913401809323
:101F700035011092340108958CE094E00E94210F05
:101F80000E94ED0E08950E94ED0E87E593E00E94F9
:101F9000210F0E94ED0E8DE593E00E94210F0E941B
:101FA000ED0E82E793E00E94210F0E94ED0E85E87E
:101FB00093E00E94210F0E94ED0E89E793E00E94BA
:101FC000210F0E94ED0E87E0809334010895AF92B7
:101FD000BF92CF92DF92FF920F931F93DF93CF9325
:101FE0000F92CDB7DEB78C01FF246E010894C11C9F
:101FF000D11C5CE8A52E50E0B52E25C000D000D045
:1020000000D0EDB7FEB73196ADB7BEB71296DC92F1
:10201000CE921197B382A282800F911FDC018C9126
:10202000992787FD9095958384830E94BD228DB763
:102030009EB706960FB6F8949EBF0FBE8DBFC60121
:102040000E94070FF3948F2D90E0F801019000207B
:10205000E9F73197E01BF10B8E179F0778F20F908D
:10206000CF91DF911F910F91FF90DF90CF90BF90A4
:10207000AF90089581E080932C01809134018930E4
:1020800088F48730E8F5833079F1843030F481309A
:10209000E1F0823009F05CC024C0853059F186300F
:1020A00060F525C08B30B9F18C3030F4893069F19E
:1020B0008A3009F04DC02CC08E3609F447C08837ED
:1020C00089F1843609F044C038C084E194E00E946C
:1020D000210F80913F018F5F0E94D1160E94E70F70
:1020E0001EC086E494E019C085E694E00BC087E842
:1020F00094E025C08FE994E022C010922C0128C002
:1021000082EE94E00E94210F23C08BE595E0FACF88
:1021100088E895E014C083EA95E00E94210F0E94B0
:10212000ED0E16C084E493E00E94210F0E94ED0E94
:10213000109234010E949F200BC08AE393E00E941A
:10214000210F0E94ED0E1092340102C00E94D210A5
:1021500088EE93E02CE231E0F9013197F1F7019735
:10216000D9F708950E94ED0E83EC93E00E94210FB1
:102170000E94ED0E83ED93E00E94210F0E94ED0E70
:1021800085E893E00E94210F0E94ED0E89EE93E016
:102190000E94210F0E94ED0E87E0809334010E947F
:1021A0003A1008950E94ED0E83E093E00E94210F03
:1021B0000E94ED0E8FE093E00E94210F0E94ED0E31
:1021C0008DE193E00E94210F0E94ED0E85E293E0E5
:1021D0000E94210F0E94ED0E8CE293E00E94210FDD
:1021E0000E94ED0E88E0809334010E943A10089519
:1021F000CF93DF93C5EAD1E0CE0160E00E94C62410
:10220000219683E0C53ED807B9F787E08093340173
:102210000E943A10DF91CF9108951F93CF93DF93DF
:102220008091E9038C30C8F4C0E0D0E010E38091E5
:10223000E903819FC00111248B559E4FFE01E65793
:10224000FB4F8C0F9D1F60810E94C6242196C033D6
:10225000D10569F78FEF8093E903DF91CF911F914B
:1022600008950F931F93CF93DF93982F8C30C0F472
:1022700080E3989FC0011124EC01CB55DE4F8C0107
:102280000B521E4FCE010E94BE24982F81508E3FCC
:1022900018F4892F0E94F1152196C017D10791F7E4
:1022A000DF91CF911F910F910895CF92DF92EF921E
:1022B000FF920F931F93CF93DF9390913F0188E894
:1022C000989F700111248DE090E0E80EF91ECC2457
:1022D000DD2417C0CE018E0D9F1D0E94BE24F80183
:1022E00081938F012196C830D105A1F70894C11CB4
:1022F000D11C88E090E0E80EF91E91E1C916D104E6
:1023000059F0860163E0000F111F6A95E1F70E5F37
:102310001B4FC0E0D0E0DECF10923E0110923D0195
:10232000DF91CF911F910F91FF90EF90DF90CF90B1
:102330000895AF92BF92CF92DF92EF92FF920F93E8
:102340001F93DF93CF9300D00F92CDB7DEB7D82E77
:10235000B62EA42EC22E80912C01882309F07FC2B4
:10236000809134018B3019F0222309F078C284EB7C
:1023700090E06BE04D2D0E948D157C019091340111
:102380009B3009F06CC080912B01882399F010924A
:102390002A0110922B018D2D0E94F115E091BA04B3
:1023A000F0E0E757FB4F10820E940D1187E0809309
:1023B000340146C2CC2071F080912D01883108F0A3
:1023C0004EC28F5F80932D018AEE93E06D2D0E94A7
:1023D000E51517C00AEE13E0F80101900020E9F7B7
:1023E0003197E01BF10BC8016E2F4D2D0E948D150A
:1023F000BC018FEF6F3F780709F431C2C8010E941A
:10240000B3158091BA04E82FF0E0E657FB4FD08275
:102410008F5F8093BA048D2D0E94F1158091BA04CC
:10242000803330F087E0809334010E940D1108C2A0
:10243000CC2081F0A4EBB0E0EA0EFB1EF701808116
:10244000893241F481E080932A011092290110928F
:10245000280105C210922A0110922B0100C2892F77
:102460008750823008F0A3C0FAE0EF16F10408F0BC
:10247000F6C1E0913C01F0E0E75CFE4FE08200D065
:1024800000D000D0EDB7FEB731968E010F5F1F4F21
:10249000ADB7BEB712961C930E9311978FE890E0DC
:1024A00093838283F582E4820E94BD22EDB7FEB75A
:1024B00036960FB6F894FEBF0FBEEDBFC8010E945E
:1024C000E70F0E94ED0E00913901809134018830B0
:1024D00091F50130E1F4009333010E94ED0E8CE898
:1024E00093E00E94210F0E94ED0E87E993E00E9485
:1024F000210F0E94ED0E86EA93E00E94210F0093C7
:102500002C018AE0809336011092340151C10230CF
:1025100029F4009333010E94C30F4AC1033021F410
:102520000093330184E633C0043009F041C10093C5
:10253000330188E72CC0063019F48EE6809334010D
:10254000809133018130C9F4013011F0023019F467
:10255000009334012DC1033031F484E080933401C1
:102560000E949E0F25C1043011F485E010C009308F
:1025700009F01EC10E94690FC4C0823009F018C161
:10258000013011F489E012C1023041F48AE08093F5
:10259000340110922E01109236010AC1093009F05F
:1025A00007C18CE0809334010E948F0F01C19230EB
:1025B00089F1FAE0EF16F10408F051C180913C0175
:1025C000E82FF0E0E75CFE4FE0828F5F80933C01F4
:1025D00000D000D000D0EDB7FEB731968E010F5F6E
:1025E0001F4FADB7BEB712961C930E9311978FE88D
:1025F00090E093838283F582E4820E94BD22EDB74E
:10260000FEB736960FB6F894FEBF0FBEEDBFC801F9
:102610000E94E70FFAE0EF16F10428F080913401F0
:10262000823009F01CC180913401823009F46BC002
:10263000833020F4813009F010C131C0833009F4B7
:10264000BAC0893009F009C180913C018230E9F4B7
:10265000909139018AE0989F9001112480913A016C
:10266000280F311DC90101970C9750F4822F81501A
:102670008093E9038BE0809334010E94F40ED7C06D
:102680000E94ED0E8AED95E0D0C088EE93E02CE23A
:1026900031E0F9013197F1F70197D9F7E0C0909156
:1026A000390180913F01833050F5192F1150811766
:1026B00031F1133020F580913D0190913E011816C3
:1026C00019066CF40E94ED0E81E095E00E94210F46
:1026D0000E94ED0E0E949E0F1093400169C00E945F
:1026E000ED0E84E195E00E94210F0E94ED0E87E03F
:1026F0008093340110933F010E94551159C00E94EC
:10270000ED0E87E053C0B0923701A092380181E30B
:1027100095E00E94210F809137018F5F0E94D116B2
:102720000E94E70F82E990E00E94E70F8091380154
:102730008F5F0E94D1160E94E70F85E990E00E940A
:10274000E70F80913F018F5F0E94D1160E94E70F33
:102750008EE990E00E94E70F80913F01609138017F
:10276000409137010E949C0A0E94D1160E94E70FF7
:1027700088EA90E00E94E70F80913701E0913801EC
:10278000F0E0A3E0EE0FFF1FAA95E1F7E80FF11DBF
:10279000EE5FFB4F80810E94D1160E94E70F82EB13
:1027A00090E00E94E70F0E94ED0E83E080933401D9
:1027B00010923C0152C080913C01833009F043C02B
:1027C0009091390184E6989FA001112480913A01EB
:1027D0002AE0829FC0011124480F591F80913B01BC
:1027E000480F511D4F3F5105E4F480913701E091AE
:1027F0003801F0E073E0EE0FFF1F7A95E1F7E80F84
:10280000F11DEE5FFB4F408387E0809334018091A0
:102810003D0190913E01019690933E0180933D01D0
:1028200006C00E94ED0E8DE395E00E94210F83E02B
:10283000E9E3F1E0DF011D928A95E9F710923C018E
:102840000E94ED0E0AC088EE93E02CE231E0F9011F
:102850003197F1F70197D9F702C00E943A100F9013
:102860000F900F90CF91DF911F910F91FF90EF90FC
:10287000DF90CF90BF90AF900895BF92CF92DF923C
:10288000EF92FF920F931F93CF93DF93EE24FF24D9
:10289000CC24DD2418E8B12E1EC080913F018B9D11
:1028A000C00111240D968C0D9D1D8C0F9D1FF801EC
:1028B00061918F010E94C6242196C830D10569F725
:1028C0000894E11CF11C88E090E0C80ED91E91E14B
:1028D000E916F10459F08701B3E0000F111FBA9512
:1028E000E1F70E5F1B4FC0E0D0E0D7CF10923E0162
:1028F00010923D0180913501843039F48093340188
:1029000010922E011092360113C0813089F40E947A
:10291000ED0E84E195E00E94210F0E94ED0E87E00C
:10292000809334018091400180933F010E945511B2
:102930000E943A10DF91CF911F910F91FF90EF907D
:10294000DF90CF90BF90089583E0E9E3F1E0DF01ED
:102950001D928A95E9F710923C0110923F01109266
:1029600033010E9455110E94D2100895FF920F93D7
:102970001F93182F062FF42E80912E018823B1F477
:1029800088E8189FC00111240D96262F30E043E0FF
:10299000220F331F4A95E1F7820F931F8F0D911D70
:1029A0000E94BE24982F81508E3F30F0812F602FDF
:1029B0004F2D0E949C0A982F892F1F910F91FF90F5
:1029C00008951F93982F80912E0180FD0FC0192F1D
:1029D000195C1C3058F40E943216882339F00E948A
:1029E000DF16812F0E94311181E001C080E01F912C
:1029F000089580912E0180FF0DC081FD0BC00E94C3
:102A00003217882339F080912E01826080932E0145
:102A10000E94A414089580912E01816080932E015C
:102A20008091EF008150823018F40E94FE1D08C092
:102A30000E949F1A84EC99E09093C0008093BF009D
:102A40000E94BC0F089580912E018823C1F48091CB
:102A50002F018823A1F080913001909131010196DE
:102A600090933101809330012091BF003091C000DC
:102A70002817390724F410922F010E940B1508958E
:102A80000E94231580912E0181FF36C080912C0178
:102A90008823C9F00E9441168823A9F0809136014D
:102AA0008B3019F40E943D140CC08A3019F40E9436
:102AB000B21007C08C3019F40E94F81002C01092B6
:102AC0002C011092360180912A018823A9F080916F
:102AD0002801909129010196909329018093280162
:102AE000895E93404CF081E080932B0189E26FEF87
:102AF0004FEF20E00E94991108950E94A32088239F
:102B000019F010923201089580913201813021F440
:102B10000E940B15109232010895FC0190E007C04D
:102B20008191841719F4292F30E005C09F5F961713
:102B3000B8F32FEF3FEFC9010895FC01808140E019
:102B40002FEF3FEF0CC05191252F30E090E0281778
:102B5000390719F02FEF3FEF04C04F5F852F46175D
:102B600090F3C90108959B01FC0101900020E9F751
:102B70003197E81BF90B6F5F7F4F680F791FE21BDE
:102B8000F30B820F931FAF010E948A220895FF92D8
:102B90000F931F93F42E9B01DC010D900020E9F7A9
:102BA0008C01060F171FA81BB90BA61BB70B2F5FB5
:102BB0003F4F820F931FB801AD010E948A22F80196
:102BC000F0821F910F91FF900895462FDC010D9028
:102BD0000020E9F71197A81BB90BBD010E94C7158A
:102BE0000895282F8091770190917801019660E0F7
:102BF00071E00E943122FC0190937801809377016B
:102C000080917501909176018E179F0759F4009776
:102C100019F48FEF90E001C00197909378018093B1
:102C200077010895E758FE4F20830895209175019C
:102C300030917601809177019091780128173907BA
:102C400011F480E00895C901019660E071E00E94EE
:102C50003122FC019093760180937501E758FE4F75
:102C60008081089540E02091750130917601809136
:102C70007701909178012817390709F441E0842FF2
:102C8000089580917401882319F440E050E00FC04A
:102C900040E050E0209175013091760180917701FC
:102CA000909178012817390711F441E050E0842F02
:102CB0000895809374010895982F81568A3118F4ED
:102CC000292F2D5510C0892F81548A3120F4292FA6
:102CD0002D5332E009C0892F8153893010F020E054
:102CE00002C0292F235130E0892F992787FD909525
:102CF000A92FB92FFC01B097EF35F10508F048C0B6
:102D0000E65DFF4FEE0FFF1F0590F491E02D099453
:102D10002EE141C02FE13FC020E23DC021E23BC097
:102D200022E239C023E237C024E235C025E233C0B5
:102D300026E231C027E22FC02CE22EC02DE22CC0AB
:102D40002DE229C02EE228C02EE225C02FE224C0A9
:102D50002FE221C020E320C020E31DC021E31CC0DE
:102D600021E319C023E318C023E315C024E314C0F2
:102D700024E311C025E310C025E30DC026E30CC0F9
:102D800026E309C027E308C027E305C028E304C001
:102D9000222311F428E332E0832F922F089527E2B3
:102DA000FBCF0F931F9301E711E090E0B8014AE0D9
:102DB00050E00E949C22C8011F910F91089520911C
:102DC00075013091760180917701909178012817F3
:102DD000390739F480E3E1E4F1E0DF011D928A95DF
:102DE000E9F708951F93CF93DF930E941616182FCB
:102DF000C1E4D1E0882331F480E3FE0111928A9589
:102E0000E9F712C0FE0101900020E9F73197E15483
:102E1000F140CE016E2F412F0E948D15BC0197FD10
:102E200005C0CE010E94B31580E005C0CE01612F20
:102E30000E94E51581E0912FDF91CF911F910895B8
:102E400080E090E0FC01E554FB4F1082FC01E4536C
:102E5000FB4F1082019681319105A1F78AE08093A2
:102E6000E200089581E080937B02ECECF4E0808145
:102E7000882319F010927B0205C0319684E0ED3D65
:102E8000F807A9F780917B0208958CEC94E00895EF
:102E90008F929F92AF92BF92DF92EF92FF920F9329
:102EA0001F93CF93DF93DD24C0E0D0E021E0E22E3A
:102EB000F12C97E1892E912C8FE0A82EB12C87015F
:102EC0000C2E02C0000F111F0A94E2F707BB802FDF
:102ED000809588BB81E090E00E94C320ECECF4E098
:102EE00040E050E0302F3095842F483048F429B32B
:102EF000C701042E02C0880F991F0A94E2F711C07F
:102F00008850883018F423B3C50102C020B3C4012F
:102F1000841B950BB70102C0660F771F8A95E2F7F5
:102F2000CB01209528239081802F892319F022231B
:102F300029F008C0222331F0902B01C09323908305
:102F4000DD24D3944F5F5F4F31964131510561F6D7
:102F50002196C830D10509F0B2CFDD2019F01092CA
:102F6000E10007C08091E100843618F48F5F809300
:102F7000E10020E09091E1008091E200981709F4CF
:102F800021E0822FDF91CF911F910F91FF90EF9061
:102F9000DF90BF90AF909F908F9008951F930E94F5
:102FA000F9140E944817182F0E9440150E94D30E52
:102FB000811110E0812F1F9108954F925F926F92BF
:102FC0007F929F92AF92BF92CF92DF92EF92FF9249
:102FD0000F931F93CF93DF93EE24FF2451E0C52E70
:102FE000D12C47E1442E512C3FE0632E712C6FC051
:102FF0000C2F80917A026C2F492D0E94B614182F45
:10300000865D803128F4E12FF0E0E457F040108134
:10301000812F865F823060F01E3F51F0183F41F0F3
:103020001B3F09F048C080917A02823009F043C00A
:10303000A7BAB8BA81E090E00E94C320083048F4F3
:1030400029B3C6010C2E02C0880F991F0A94E2F71B
:1030500011C00850083018F423B3C30102C020B3D4
:10306000C2018C1B9D0BA60102C0440F551F8A95FF
:10307000E2F7CA0120952823F1F01E3F61F0183FC6
:1030800009F444C0173F49F480917B02882399F0EA
:1030900081E080937C0291E03DC0163F41F4809135
:1030A0007B02882341F082E080937C022FC01B3F8B
:1030B00011F490E02FC02196C131D10509F098CFCD
:1030C0000894E11CF11C58E0E516F10471F09E2C07
:1030D000C6010E2C02C0880F991F0A94E2F7A82E91
:1030E000B82EB094C0E0D0E083CF0E94321788237E
:1030F00011F010927C0290917C02992359F48091F6
:103100007902813029F482E080937A0292E002C051
:1031100010927A02892FDF91CF911F910F91FF902A
:10312000EF90DF90CF90BF90AF909F907F906F9087
:103130005F904F9008950F931F93182F062F8E3F87
:1031400009F443C00E94B20A0023C1F10E94E60BB9
:103150001C3F49F080917D028823B9F01A32A9F40E
:103160001092790206C08091790291E089278093BC
:10317000790280917902882341F50E94F80A80FF44
:1031800002C0909A22C0909820C0193221F481E0A8
:1031900080937D021DC0882311F0193311F01D3F6B
:1031A00019F40E946F0B11C01A3F19F40E949B0B77
:1031B0000CC0193F61F40E94820B07C01C3F29F02C
:1031C000193229F410927D0202C080E001C081E032
:1031D0001F910F910895282F8F3F31F410927F0295
:1031E00081E08093890208958E3F21F08D3F29F47C
:1031F00010927F021092890208958091890288239B
:1032000051F080917F02E82FF0E0ED5AFC4F2083CF
:103210008F5F80937F028091870290918802019650
:1032200068EC70E00E943122FC0190938802809348
:10323000870280918502909186028E179F0759F42C
:10324000009719F487EC90E001C0019790938802F1
:10325000809387020895E657FD4F208308952091BB
:10326000850230918602809187029091880228170A
:10327000390711F480E00895C901019668EC70E007
:103280000E943122FC019093860280938502E657CA
:10329000FD4F8081089540E02091850230918602A3
:1032A00080918702909188022817390709F441E03C
:1032B000842F08951092860210928502109288023F
:1032C0001092870210927F021092800210925D038A
:1032D00010925E0310925F0310926003EBEBF4E038
:1032E000119284E0EC3CF807D9F70895EEEDF4E094
:1032F000119285E0EE38F807D9F72AEB32E006C0E4
:10330000FC01E252FB4F808182608083F90184914D
:1033100090E02F5F3F4F009799F72DEB32E006C00A
:10332000FC01E252FB4F808184608083F90184912B
:1033300090E02F5F3F4F009799F721EC32E006C0F5
:10334000FC01E252FB4F808188608083F901849107
:1033500090E02F5F3F4F009799F726EC32E006C0D0
:10336000FC01E252FB4F808181608083F9018491EE
:1033700090E02F5F3F4F009799F724EF32E006C0AF
:10338000FC01E252FB4F808180618083F9018491CE
:1033900090E02F5F3F4F009799F7EBEBF4E011922D
:1033A00084E0EC3CF807D9F708950E94321690E0CB
:1033B000882309F491E0892F089581E08093A40384
:1033C0000E94F60D0E947D150895FF920F931F93A2
:1033D000CF93DF93F62E0E948E0A182F853D10F0B2
:1033E00080E0A7C087568830D0F4E12FF0E09091BC
:1033F0008402FF2039F0EE0FFF1FED50F040808176
:10340000982B07C0EE0FFF1FED50F0408081809594
:10341000982390938402809184020E94B30E812F9E
:1034200090E0FC01EE56FE4F0491FF2009F450C0DD
:103430001093520310925D0310925E0310925F038B
:103440001092600310928F05EC01C252DB4F88810D
:1034500081FF2EC0163421F0183409F069C00EC067
:103460008FEF0E94EB1880EE0E94EB1882E10E9421
:10347000EB1880EE0E94EB188CE726C08DEF0E94BF
:10348000EB1881EE0E94EB1884E10E94EB1887E7AD
:103490000E94EB1881EE0E94EB1880EF0E94EB185F
:1034A00084E10E94EB1880EF0E94EB1887E73BC095
:1034B00082FD38C08FEF0E94EB18888180FF03C027
:1034C00080EE0E94EB18802F0E94EB188EEF2BC02D
:1034D00080915203811711F410927F02E12FF0E0E6
:1034E000E252FB4F808181FF13C0163409F580EE54
:1034F0000E94EB1880EF0E94EB188CE70E94EB18FB
:1035000080EE0E94EB1880EF0E94EB1882E10BC066
:1035100082FD0EC080FF03C080EE0E94EB1880EF9A
:103520000E94EB18802F0E94EB188CEF0E94EB1882
:1035300081E0DF91CF911F910F91FF90089588E670
:1035400060E00E94E51987E660E00E94E51989E6DF
:1035500060E00E94E5190895DF92EF92FF920F93C9
:103560001F93082F162FE42ED22E0E949B18F82EA0
:10357000112329F085EE99E161E00E94770A0E940B
:10358000AB0E882339F0802F6E2D4D2D212F0E94F8
:10359000991102C0FF2011F480E005C0802F612F37
:1035A0000E94E51981E01F910F91FF90EF90DF904D
:1035B00008954F925F926F927F928F929F92AF92F7
:1035C000BF92CF92DF92EF92FF920F931F93CF9310
:1035D000DF930E943216882349F081E00E94591639
:1035E0000E94CE17882309F4CEC014C080E00E9448
:1035F00059160E94F216813041F4892F61E00E9431
:10360000E5198DEF0E94EB18BEC0892F60E00E9483
:10361000E519B9C00E94DD17782E0E9445174C01AC
:1036200080918302871509F446C0EE24FF2441E00F
:10363000442E512C34C0F401EC0FFD1F0081FE011B
:10364000E554FB4F80818B21F9F0809183026C2F30
:103650004C2D0E94B614D82E872D6C2F4C2D0E9415
:10366000B614182FD81681F0882371F08D2D60E0E4
:103670004C2D2C2F0E94AC1A0B2131F0812F61E0D0
:103680004C2D2C2F0E94AC1A2196C131D10599F6F0
:103690000894E11CF11C88E0E816F10461F0CE2CDE
:1036A000C2010E2C02C0880F991F0A94E2F7B82EAF
:1036B000C0E0D0E0C0CF70928302AA24A394CC24AF
:1036C000DD2431E0432E512C40C0EC2EFE01E554A8
:1036D000FB4FF080F401EC0FFD1F00810621872DC8
:1036E0006C2F4B2D0E94B614182F002339F088231D
:1036F00029F00E94E114882309F045C0F620F01655
:10370000C9F00E94A320882339F00023B9F08E2D40
:103710006B2D0E94A62012C0112361F0002319F026
:10372000812F61E002C0812F60E04B2D2E2D0E9481
:10373000AC1AA8222196C131D10539F60894C11CD2
:10374000D11C88E0C816D10461F0BC2CC2010C2C3D
:1037500002C0880F991F0A94E2F7682EC0E0D0E0FB
:10376000B4CF20E030E0F901E554FB4FD401A20FC3
:10377000B31F8C9180832F5F3F4F2131310599F723
:103780002A2D30E002C020E030E0C901DF91CF9166
:103790001F910F91FF90EF90DF90CF90BF90AF906F
:1037A0009F908F907F906F905F904F9008951F93A0
:1037B000162F8E3F11F080938E050E94DD07109327
:1037C0008F051F9108958F929F92AF92BF92CF92D3
:1037D000DF92EF92FF920F931F9388E080938F0503
:1037E0000E9404090E9476190E9420170E945A190B
:1037F000789416E9812E99249394B5E0AB2EB12CE0
:10380000C12CD12C8091EF008823F9F48091A4037E
:103810008823D9F48091A2039091A30301969093F9
:10382000A3038093A2030197815D974074F081E028
:103830008093EF001F910F91FF90EF90DF90CF905A
:10384000BF90AF909F908F9008958091B20382FFB8
:10385000C0C080918102909182028C3F910561F0FD
:103860002091850230918602809187029091880292
:103870002817390709F0ADC00E94EC07182F609196
:103880008F05623009F457C0633018F4613039F4A1
:103890004CC0663009F48DC0673009F455C0133F41
:1038A00071F1143F60F41E3EC9F01F3E18F41D3E36
:1038B000A9F522C0103FE9F0123F81F511C0163F73
:1038C00009F1173F30F4143F09F481C0153F31F579
:1038D0007EC01E3F59F01F3F09F505C08EEE72C134
:1038E0008AEF64E06FC18AEF68E06CC180918E0559
:1038F00069C18AEF62E066C18AEF66E063C18AEF60
:1039000067E060C19092E300A092E400B092E5000D
:10391000C092E600D092E7000E945A198AEF60E058
:103920000E94D71B0E94DD196DCF853F09F44FC05F
:103930008AEF61E047C10E945A19112311F060E03B
:1039400001C063E08AEF3EC1682F70E0CB01807652
:103950009070A5E095958795AA95E1F78093E3008F
:10396000AB0148715070F3E055954795FA95E1F732
:1039700080E090E021E030E003C0220F331F019689
:1039800084179507D4F367707070269FC001279F36
:10399000900D369F900D1124AA2797FDA095BA2F60
:1039A0008093E4009093E500A093E600B093E700D5
:1039B0000EC00E94DD19912F80E010FD84E091FD82
:1039C000816092FD82600E94F50A0E94B50B8AEF29
:1039D000F8C08091B20384FF15CF80918F058430A9
:1039E00009F4E7C0853030F4882371F0833009F0A2
:1039F00009CFDDC0883009F4E1C08C3009F45FC024
:103A0000853009F0FFCED8C0209185023091860222
:103A100080918702909188022817390711F40E943B
:103A2000D91A809179020E94640D0E942F19282FC3
:103A300030E030938202209381022C3F310509F45B
:103A4000E1CE232B21F060E00E94D71B60C0809163
:103A50007F02882309F4D6CE20915D0330915E0366
:103A600040915F03509160032F5F3F4F4F4F5F4F77
:103A700020935D0330935E0340935F035093600394
:103A80008091E300889DC00111248A519F4FAA278D
:103A900097FDA095BA2F281739074A075B070CF442
:103AA000B1CE10925D0310925E0310925F031092EC
:103AB0006003109280028CE080938F05A3CE8091EA
:103AC0008002882311F40E94D91A809179020E9401
:103AD000640D80917F028823C1F02091850230918E
:103AE000860280918702909188022817390769F42D
:103AF00080915D0390915E03A0915F03B09160039C
:103B00000197A105B10561F40FC010928F051092C5
:103B10005D0310925E0310925F031092600372CEF9
:103B2000809180028823A9F090918002E92FF0E033
:103B3000ED5AFC4F80819F5F909380026CE00E9461
:103B4000D71B60917F02809180020E941122909386
:103B50008002E0905D03F0905E0300915F0310919E
:103B600060030894E11CF11C011D111D6091E4002B
:103B70007091E5008091E6009091E7002AE030E046
:103B800040E050E00E94F2219B01AC012D5F3F4FCD
:103B90004F4F5F4FC801B7010E94662260935D03DB
:103BA00070935E0380935F03909360032BCE82E05B
:103BB00008C08BEA65E006C083E803C00E945A197A
:103BC0008AEA60E00E94D71B1DCE809163038823A0
:103BD00031F40E94321620E030E0882311F421E015
:103BE00030E0822F089588E0E6E6F3E0DF011D92E1
:103BF0008A95E9F781E080936603089580E3EFE614
:103C0000F3E0DF011D928A95E9F708950E948E0A7C
:103C1000982F853D08F042C081578A3198F481E0A1
:103C200080936103E92FF0E0EE0FFF1FE05AFE4F93
:103C30002591349182E0809366032093670330934B
:103C400068032CC0892F8756883068F4E92FF0E08C
:103C5000EE0FFF1FED50F040808190916703892B9C
:103C6000809367031BC09923C9F0209190052830E9
:103C7000A8F4892F8D58823248F4E92FF0E0EE0F36
:103C8000FF1FE45AFE4F85919491982FE22FF0E0A8
:103C9000EA59FC4F90832F5F2093900580E00895B0
:103CA000AF92BF92CF92DF92EF92FF921F93CF938A
:103CB000DF930E943216882309F047C00E94F31D4B
:103CC0000E94F216E1E4F1E0DF010D900020E9F737
:103CD0001197AE1BBF0B82E080939005EF01EA2E97
:103CE000FF246F01CE0CDF1C3FE6A32E33E0B32E82
:103CF0001AC01881812F8756883080F0F501019015
:103D00000020E9F73197EF56F3408FE693E06E2FEE
:103D1000412F0E948D158F5F9F4F21F4812F61E00D
:103D20000E94061E219641E451E0CC15DD0509F7FD
:103D300081E0809363032FE633E0F7013196C901F8
:103D4000BA01AF010E94812208C0809163038823D9
:103D500021F00E94F31D1092630381E0DF91CF9167
:103D60001F91FF90EF90DF90CF90BF90AF9008959C
:103D70002F923F924F925F926F927F928F929F927B
:103D8000AF92BF92CF92DF92EF92FF920F931F9369
:103D9000DF93CF930F92CDB7DEB70E94CE17882363
:103DA00009F4C8C00E94DD17682E82E08093900558
:103DB0000E94F31D0E9445174C011982CC24DD247A
:103DC00041E0442E512C73C0B22CF101E554FB4F5D
:103DD0000081F401E20DF31DF080F720862D622DA5
:103DE0004A2D0E94B614182FFF2039F0882329F09D
:103DF0000E94E114882309F09DC0E72CE022EF1413
:103E000009F440C00E94A320882349F0FF2021F03C
:103E10008B2D6A2D0E94A6200E94940E41C0112372
:103E200009F49DC0FF2069F0812F61E00E949B187A
:103E3000082F0E94940E86E09EE161E00E94770ABE
:103E400007C0812F60E00E949B18082FEE20C1F070
:103E50000E94AB0E8823A1F0FF2049F0812F6A2D2C
:103E60004B2D21E00E94991181E0898311C0812F9F
:103E70006A2D4B2D20E00E94991191E0998308C092
:103E8000002331F0FF2021F0812F61E00E94061E07
:103E90000894211C311CE1E12E16310409F094CF65
:103EA0000894C11CD11CF8E0CF16D10461F0AC2CF1
:103EB000C2010C2C02C0880F991F0A94E2F7782ED9
:103EC0002224332481CF80916603813069F490915C
:103ED000670380916403981739F0892F0E94B30E0D
:103EE000809167038093640380916103882369F064
:103EF00080916603823049F082E0809366031092DD
:103F00006703109268031092610320E030E0F9012A
:103F1000E554FB4FD401A20FB31F8C9180832F5F18
:103F20003F4F2131310599F780E09981913019F0A7
:103F300081E001C080E00F90CF91DF911F910F9140
:103F4000FF90EF90DF90CF90BF90AF909F908F90B9
:103F50007F906F905F904F903F902F90089501E079
:103F600077CFEF92FF920F931F930E941A098B9ABB
:103F700020E048EB5BE0CA010197F1F72150D9F747
:103F80008B98789400E010E0EE24E3948091EF00A9
:103F90008130D9F48091A4038823B9F48091A203DD
:103FA0009091A30301969093A3038093A20301979A
:103FB000815D974054F01092EF008BB78F7B8BBFE1
:103FC0001F910F91FF90EF9008950E942709002301
:103FD00099F40E94B81E082F08B600FE0FC0E8BE74
:103FE000F0906E03FF2051F0153010F401E007C08F
:103FF0005BEFF52EF10E03C00E94B81EF12E8091EA
:10400000BE0384FF2EC080916203882361F010926A
:1040100062030E94F31D86E693E068E00E94510A65
:104020000E947D151EC00E94E51D882341F00E945C
:10403000501E86E693E068E00E94510A12C00023F9
:1040400081F080916603823021F486E693E063E09C
:1040500005C0813029F486E693E068E00E94510AA9
:1040600000E00E946D0E809179020E94640D0E9412
:10407000E51D882311F080E001C081E00E945916FF
:104080001F2D84CF81E0809362030E94F60D0E9471
:10409000940E0895CF93DF9321E02093A403EC01C5
:1040A000809166038093CD031092CE038881807641
:1040B000803271F58981813011F488E02AC089301D
:1040C00041F48E819F81029719F5209365038FEF4C
:1040D00020C0823019F480916E0314C08A3031F40C
:1040E0000E9442208B8180936E0312C0833031F492
:1040F0008B81882369F41092E8000BC08B3041F467
:104100008091E8008093CD031092CE0381E001C03E
:1041100080E0DF91CF910895FC01809165038823B1
:1041200051F0623041F48081813029F481810E9414
:10413000F50A0E94B50B1092650381E0089581E0B5
:1041400080939F03089580919F0308950F931F9379
:10415000082F162F89EE90E00E94E70F812F0E9412
:10416000D1160E94E70F8BEE90E00E94E70F802FA0
:104170000E94D1160E94E70F8DEE90E00E94E70F9B
:104180001F910F9108950F931F930091A003109119
:10419000A103039665E070E00E941D2280E090E09C
:1041A0002CE030E040E050E00E94F221060F171FA3
:1041B0001093A1030093A0031F910F9108958D9870
:1041C000959A08958D9A959808951F9310E0812FE0
:1041D0000E941F051F5F1730D1F789B78E7F89BFF7
:1041E00089B78B7F89BF89B78F7B89BF1F9108955E
:1041F0009FEF97BB98BB1ABA14BA9BBB95BB91BBF8
:1042000091B39F7591BB12BA92B3906A92BB91B36E
:10421000936191BB92B39C7E92BB8E9A96988823B1
:1042200079F08BE090E00E94C32081B3837F81BB53
:1042300083B7856083BF0E94E5208D98959A089585
:104240008D9A95980895F8940E94FB0A1092A30302
:104250001092A2031092A40308958F929F92BF928E
:10426000CF92DF92EF92FF920F931F93CF93DF9342
:104270008FEF8093EF0087BB88BB1ABA14BA8BBB51
:1042800085BB11BA80E882BB81E090E00E94C32028
:1042900010E00E944817882319F41F5F1E31C9F7E8
:1042A0000E9445176C01FF2400E010E081E0882E99
:1042B000912C29C06C2FF601EC0FFD1F80818B2102
:1042C000C9F0C13031F481E0E81619F40E949F2052
:1042D00011C080E04E2D0E949C0A803119F40E948A
:1042E000D60E08C0883111F481E003C0833111F487
:1042F00082E0F82A2196C131D105E1F60F5F1F4F08
:104300000830110561F0E02EC401002E02C0880FB4
:10431000991F0A94E2F7B82EC0E0D0E0CBCFFF207F
:1043200019F0F394F092EF006091EF00643021F403
:104330008CE090E06FEF04C0643028F48CE090E0F3
:104340000E94C62406C08CE090E00E94BE248093A8
:10435000EF008A98929A2091EF002430D0F080E00C
:1043600090E0829907C092FD09C08F5F863060F0AF
:1043700021E00AC0829B09C092FD02C080E004C017
:104380008F5F863008F020E090B3223050F7209302
:10439000EF00CCE2D1E08091EF008150823038F420
:1043A0000E94232181E00E94F8200E94B11F809189
:1043B000EF00882311F0833071F782B3836082BBF2
:1043C00088EE93E0FE013197F1F70197D9F782B3B8
:1043D0008C7F82BB0E94232180E00E94F8200E94F3
:1043E000E31BD9CF629FD001739FF001829FE00D44
:1043F000F11D649FE00DF11D929FF00D839FF00D64
:10440000749FF00D659FF00D9927729FB00DE11D0F
:10441000F91F639FB00DE11DF91FBD01CF011124EC
:104420000895991B79E004C0991F961708F0961B10
:10443000881F7A95C9F780950895AA1BBB1B51E187
:1044400007C0AA1FBB1FA617B70710F0A61BB70B04
:10445000881F991F5A95A9F780959095BC01CD01A9
:10446000089597FB092E07260AD077FD04D0E5DFD3
:1044700006D000201AF4709561957F4F0895F6F7E5
:10448000909581959F4F0895A1E21A2EAA1BBB1B00
:10449000FD010DC0AA1FBB1FEE1FFF1FA217B30710
:1044A000E407F50720F0A21BB30BE40BF50B661F26
:1044B000771F881F991F1A9469F7609570958095EA
:1044C00090959B01AC01BD01CF01089597FB092E8A
:1044D00005260ED057FD04D0D7DF0AD0001C38F4D3
:1044E00050954095309521953F4F4F4F5F4F089520
:1044F000F6F790958095709561957F4F8F4F9F4F00
:104500000895FB01DC0102C001900D924150504022
:10451000D8F708956817790768F4FB01DC01E40F08
:10452000F51FA40FB51F02C002900E9241505040DB
:10453000D8F708950C948122FB019F01E894423042
:10454000C4F04532B4F44A3029F497FB1EF4909538
:1045500081959F4F642F77270E941D22805D8A33AB
:104560000CF0895D8193CB010097A1F716F45DE211
:1045700051931082C9010C94E924AEE0B0E0E3EC61
:10458000F2E20C9491250D891E8986E08C831A83B2
:1045900009838FEF9FE79E838D839E01275E3F4FA8
:1045A000CE0101966F89788DA9010E94E1222F81A9
:1045B0003885020F131FF80110822E96E4E00C9448
:1045C000AD25ABE0B0E0E7EEF2E20C9483253C01D0
:1045D0002B015A01FC0117821682838181FD03C0E1
:1045E0006FEF7FEFC6C19AE0892E1E010894211C4F
:1045F000311CF3012381F20123FD859123FF819179
:104600002F01882309F4B2C1853239F423FD859145
:1046100023FF81912F01853229F490E0B3010E949C
:10462000F924E7CF982FFF24EE249924FFE1FF150A
:10463000D0F09B3269F09C3228F4903259F09332DA
:1046400091F40EC09D3249F0903369F441E024C0EA
:1046500052E0F52A84E0F82A28C098E0F92A25C01B
:10466000E0E1FE2A22C0F7FC29C0892F80538A305E
:1046700070F4F6FE05C0989C902C1124980E15C07D
:10468000E89CE02C1124E80EF0E2FF2A0EC09E32D6
:1046900029F4F6FC6BC140E4F42A07C09C3619F4F7
:1046A00050E8F52A02C0983649F4F20123FD9591AD
:1046B00023FF91912F01992309F0B8CF892F8554B9
:1046C000833018F08052833038F444E050E0A40E78
:1046D000B51E5FE359830FC0933631F0933779F0FD
:1046E000933509F056C020C0F5018081898342E0EE
:1046F00050E0A40EB51E610101E010E012C0F5010A
:10470000C080D180F6FC03C06FEF7FEF02C0692D3F
:1047100070E042E050E0A40EB51EC6010E94DE2407
:104720008C015FE7F52214C0F501C080D180F6FC52
:1047300003C06FEF7FEF02C0692D70E042E050E0F0
:10474000A40EB51EC6010E94D3248C0150E8F52AA0
:10475000F3FE07C01AC080E290E0B3010E94F92482
:10476000EA948E2D90E008171907A8F30EC0F60101
:10477000F7FC8591F7FE81916F0190E0B3010E94F3
:10478000F924E110EA94015010400115110579F760
:10479000EAC0943611F0993669F5F7FE08C0F501C4
:1047A000208131814281538184E090E00AC0F5018B
:1047B000808191819C01442737FD4095542F82E0F0
:1047C00090E0A80EB91E9FE6F92257FF09C0509548
:1047D0004095309521953F4F4F4F5F4FE0E8FE2ABF
:1047E000CA01B901A1012AE030E00E942525D82E96
:1047F000D21840C0953729F41F2D1F7E2AE030E0E3
:104800001DC01F2D197F9F3661F0903720F4983519
:1048100009F0ACC00FC0903739F0983709F0A6C046
:1048200004C028E030E00AC0106114FD146020E1EB
:1048300030E004C014FD166020E132E017FF08C02C
:10484000F501608171818281938144E050E008C06C
:10485000F50180819181BC0180E090E042E050E070
:10486000A40EB51EA1010E942525D82ED2188FE7CF
:10487000F82EF122F6FE0BC05EEFF522D91438F4C3
:10488000F4FE07C0F2FC05C08FEEF82202C01D2D19
:1048900001C0192DF4FE0DC0FE01ED0DF11D80814A
:1048A000803319F499EEF92208C01F5FF2FE05C0AB
:1048B00003C08F2D867809F01F5F0F2DF3FC14C005
:1048C000F0FE0FC01E1510F09D2C0BC09D2C9E0CF1
:1048D000911A1E2D06C080E290E0B3010E94F924D7
:1048E0001F5F1E15C0F304C01E1510F4E11A01C0AD
:1048F000EE2404FF0FC080E390E0B3010E94F9248E
:1049000002FF1DC001FD03C088E790E00EC088E5EE
:1049100090E00BC0802F867891F001FF02C08BE2FF
:1049200001C080E2F7FC8DE290E0B3010E94F9241F
:1049300006C080E390E0B3010E94F9249A94D91450
:10494000C0F3DA94F101ED0DF11D808190E0B30127
:104950000E94F924DD20A9F706C080E290E0B301AF
:104960000E94F924EA94EE20C1F743CEF301668158
:104970007781CB012B96E2E10C949F25E199FECF44
:104980009FBB8EBBE09A99278DB30895262FE1999E
:10499000FECF9FBB8EBB2DBB0FB6F894E29AE19A77
:1049A0000FBE01960895FC01059061507040011002
:1049B000D8F7809590958E0F9F1F0895FC01615048
:1049C000704001900110D8F7809590958E0F9F1F31
:1049D0000895DC01FC01672F71917723E1F732978D
:1049E00004C07C916D9370836291AE17BF07C8F3CA
:1049F00008950F931F93CF93DF938C01EB018B816D
:104A000081FF1BC082FF0DC02E813F818C819D8163
:104A10002817390764F4E881F9810193F983E88361
:104A200006C0E885F985802F0995892B31F48E81A0
:104A30009F8101969F838E8302C00FEF1FEFC801F5
:104A4000DF91CF911F910F910895FA01AA27283085
:104A500051F1203181F1E8946F936E7F6E5F7F4F4B
:104A60008F4F9F4FAF4FB1E03ED0B4E03CD0670FC7
:104A7000781F891F9A1FA11D680F791F8A1F911D1A
:104A8000A11D6A0F711D811D911DA11D20D009F46A
:104A900068943F912AE0269F11243019305D3193AC
:104AA000DEF6CF010895462F4770405D4193B3E095
:104AB0000FD0C9F7F6CF462F4F70405D4A3318F03C
:104AC000495D31FD4052419302D0A9F7EACFB4E0ED
:104AD000A6959795879577956795BA95C9F70097A5
:104AE0006105710508959B01AC010A2E0694579546
:104AF000479537952795BA95C9F7620F731F841F9D
:104B0000951FA01D08952F923F924F925F926F9232
:104B10007F928F929F92AF92BF92CF92DF92EF924D
:104B2000FF920F931F93CF93DF93CDB7DEB7CA1BCE
:104B3000DB0B0FB6F894DEBF0FBECDBF09942A88F9
:104B4000398848885F846E847D848C849B84AA84A1
:104B5000B984C884DF80EE80FD800C811B81AA812E
:104B6000B981CE0FD11D0FB6F894DEBF0FBECDBFF9
:084B7000ED010895F894FFCF58
:104B78005AFFFEFEF8F86C6C68686D6D69696B6BBE
:104B880067678E8D8E8D8E8D8E8D8E8D8E8D8E8D92
:104B98008E8D0065FF00080701FF010025630025D1
:104BA80064002C200020286C617965723D00206427
:104BB800656661756C743D00206D617070696E6723
:104BC8003D002900271E1F2021222324252629886D
:104BD80013010002000400080010002000400080BB
:104BE800000001000200040008001000200040003E
:104BF800800A050205000000012D002C003D00FF81
:00000001FF
