:100000000C942A030C9462030C9447030C9447034A
:100010000C94B0070C94BC060C9483070C9429072D
:100020000C9456070C948F060C94FC060C943C061A
:100030000C9447030C9447030C9447030C94470318
:100040000C9447030C9447030C9447030C94470308
:100050000C944703CF16BB16EB16BF16C116C3167A
:10006000C716E916CB16CD16C916D716F116D11636
:10007000F516F9160217FB16FB16FB16FB16FB16F8
:10008000FB16FB16FB16FB16E716E516F316D51640
:10009000F716FD16BD16FB16FB16FB16FB16FB1618
:1000A000FB16FB16FB16FB16FB16FB16FB16FB16C8
:1000B000FB16FB16FB16FB16FB16FB16FB16FB16B8
:1000C000FB16FB16FB16FB16FB16D916E116DD1602
:1000D000C516D316ED16FB16FB16FB16FB16FB1604
:1000E000FB16FB16FB16FB16FB16FB16FB16FB1688
:1000F000FB16FB16FB16FB16FB16FB16FB16FB1678
:10010000FB16FB16FB16FB16FB16DB16E316DF16BB
:10011000EF1600000100080040000001000400008C
:1001200001000800200040008000000100040403DA
:1001300009041C03770069006E006B0065007900FC
:100140006C006500730073002E006B0072001003DA
:1001500070007300320061007600720055001201D9
:10016000100100000008424231E1000101020001DB
:100170000902220001010080FA09040000010301C4
:100180000100092101010001225500070581030832
:10019000000A0000FC001C322123242B3433433B93
:1001A000424B3A31444D152D1B2C3C2A1D22351A49
:1001B000161E26252E363D3E46455A76660D294E9C
:1001C00055545B5D5D4C520E41494A580506040C7E
:1001D000030B830A010978077C7E7C706C7D716952
:1001E0007A746B7275774A7C7B795A69727A6B7311
:1001F000746C757D7071612F001412111F145911E8
:10020000270000373F5E48103A38302820184D1537
:100210003B34233221502B404B1C43221D0000F164
:10022000F2370F08101820283038404850575F6DBB
:100230000051136A64672700000063625F000000DA
:1002400000000000000000008A01210223022402B5
:100250002502260227022A02B500B600B700CD000B
:10026000E200E900EA00830192019401000000002D
:100270000000000000009100900066006700680028
:1002800069006A006B006C006D006E006F0070000A
:100290007100720073008500860087008800890065
:1002A0008A008B008C008D008E008F0092009300DE
:1002B00094009500960097009800464800488E8D5F
:1002C000007172738F006A6B6E6D6546494A4B4CC4
:1002D0004D4E52504F5154587172737475767778F1
:1002E000797A7B7C7D7E7F80818283848586878806
:1002F000898A8F00494C4A4D4B4E6A6E65504F5269
:1003000051540073656C656374206D6F64650031D2
:100310003A4B6579204D617070696E6700323A4DD5
:100320006163726F00333A4578697400343A626FE2
:100330006F74206D617070657200676F6F6420620A
:1003400079657E00626F6F74206D617070657220D8
:10035000737461727421004D6163726F00313A539E
:10036000656C656374204D6163726F20496E6465CE
:100370007800323A4578697400393A436C656172A5
:1003800020416C6C00363A4261636B004B6579200A
:100390004D617070657200313A4368616E67652027
:1003A0004C6179657200323A53656C656374204B19
:1003B0006579202D20696E707574206B6579636F87
:1003C000646500333A5361766520616E6420457838
:1003D000697400343A4578697420776974686F7578
:1003E0007420536176696E6700393A52657365749B
:1003F00020746F2044656661756C742028437572A3
:1004000072656E74204C6179657229007073326177
:100410007672550063686F6F7365206C61796572E1
:100420002028313A206E6F726D616C2C20323A2098
:10043000464E2C20333A20464E3229206375727284
:10044000656E743D200073656C656374206B65791F
:100450002028616E79206B657920796F752077612E
:100460006E74292000696E707574206B6579636FF6
:10047000646520286D7573742033206E756D626518
:10048000727329203A200053617665202620457832
:1004900069742C207468616E6B20796F752E00452D
:1004A00078697420776974686F7574205361766910
:1004B0006E672C2073656520796F75206C6174659B
:1004C000722E00526573657420746F2064656661D6
:1004D000756C742063757272656E74206C617965D9
:1004E0007200496E70757420436F6D6D616E64208B
:1004F0004E756D6265723A20006E6F7468696E6742
:1005000000536176652063757272656E74206C614C
:10051000796572004C6F61642063757272656E74E8
:10052000206C6179657200736176696E672E2E2E7C
:1005300000636F6C2C20726F77203A2000696E7612
:10054000616C6964206B6579636F64652C20696EEA
:1005500070757420616761696E2E00696E707574C4
:10056000204D6163726F20496E64657820283031B8
:100570007E31322C206D7573742032206E756D6261
:1005800065727329203A200045786974206D616393
:10059000726F2C2073656520796F75206C617465AE
:1005A000722E00696E707574206B657920286D61FC
:1005B00078203234206B6579732C2073746F70202F
:1005C0003A207072657373204553432064757269D5
:1005D0006E672031207365632900696E76616C69EE
:1005E0006420496E6465782C20696E707574206192
:1005F0006761696E2E00636C6561722E2E2E000598
:10060000010906A1018501050719E029E715002563
:1006100001750195088102950575010508190129E3
:10062000059102950175039103950675081500263D
:1006300091000507190029A48100C0050C0901A13A
:1006400001850219002A3C021500263C029501751D
:10065000108100C011241FBECFE5D8E0DEBFCDBFA2
:1006600010E0A0E6B0E0E2EFFBE402C005900D92DE
:10067000AC3EB107D9F715E0ACEEB0E001C01D9279
:10068000A139B107E1F70E9463210C94F7250C947E
:100690000000A82FB92F80E090E041E050EA60957B
:1006A00030E009C02D9182279795879510F0842717
:1006B0009527305EC8F36F5FA8F30895EADF8D9346
:1006C0009D930895CF93CFB7CF93C395839BE9F7BD
:1006D000839B09C0839B07C0839B05C0839B03C08A
:1006E000839B01C0A3C0DF93C091CC03DD27CD5213
:1006F000DC4F839B02C0DF91EBCF2F930F931F93AF
:1007000000B32FEF03FB20F94F933F9310B34FEF4C
:10071000012703FB21F93BE031C04E7F012F10B3CD
:10072000216028C0102F4D7F2260000000B329C037
:100730004B7F2460012F000010B32BC010B3477F04
:1007400028602AC04F7E00B320612CC04F7D10B3BB
:1007500020622FC04F7B00B3206432C0422700B319
:1007600049934FEF0000102713FB20F910B31C70C2
:10077000C9F1297F91F2012703FB21F900B3237FFF
:1007800089F2315058F1102713FB22F910B3277E5C
:1007900079F2012703FB23F92F7C81F200B31027A4
:1007A00013FB24F92F7971F200C010B3012703FB6A
:1007B00025F92F7359F200C000B3102713FB26F957
:1007C000223040F200C010B3012703FB27F9243088
:1007D00028F64F77206810B30000F9CF10E41ABF55
:1007E000002719C03B503195C31BD04010E41ABFFD
:1007F0000881033CF9F00B34E9F02091CA03198118
:10080000110F1213EDCF4A81441F093641F10D3209
:1008100011F0013E29F70093D1033F914F911F91B1
:100820000F912F91DF91CAB7C6FD4FCFCF91CFBFA8
:10083000CF9118952091D103222379F31091CF0302
:10084000112369F534306AF13093CF032093CB0341
:100850001091CC033BE0311B3093CC0322C00091BC
:10086000CF030130E4F40AE54F7049F430916000A1
:1008700034FD19C000936000C3EBD3E018C0309181
:10088000BE0334FD10C00093BE03CFEBD3E00FC016
:100890002795A8F45150A9F4220F0000F9CF4AE59A
:1008A00003C042ED01C0432FC4E1D0E032E011B3F8
:1008B0001C60939A11BB02B320E41CE05F930127F4
:1008C00056E002BB279520F4515021F4220FF9CFB6
:1008D000012756E000003B5A02BBD0F2279528F4CE
:1008E000515029F4220F0000F9CF012756E0279537
:1008F00002BB20F4515021F4220FF9CF012756E01A
:100900002991332302BB21F6037F1091D003110FED
:10091000C651D04002BB11F01093CA0310E41ABFB5
:10092000086011B3137F402F437F5F9100C000C068
:1009300002BB11BB42BB71CF089583B7887F826031
:1009400083BF12BE89B7816089BF1092A503109240
:10095000A6031092A7031092A80308958EB5887F6E
:1009600083608EBD1DBC1CBC89B7846089BF08959F
:1009700085B5887F846085BD14BC89B7806489BFD4
:100980001092AD031092AE031092AF031092B00319
:10099000089580E090E0FC01EE0FFF1FE451FF4F4F
:1009A00011821082019688309105A9F70E949D045A
:1009B0000E94AE040E94B8047894089593B7987F7B
:1009C000982B93BF08959EB5987F982B9EBD089550
:1009D00095B5987F982B95BD089583B7E82FF0E0E3
:1009E000E770F070EE0FFF1FEE5EFE4F2591349121
:1009F000C90108958EB5E82FF0E0E770F070EE0FB2
:100A0000FF1FEE5EFE4F25913491C901089585B513
:100A1000E82FF0E0E770F070EE0FFF1FE25EFE4F90
:100A200025913491C9010895883040F4E82FF0E011
:100A3000EE0FFF1FE451FF4F7183608308958830EC
:100A400040F4E82FF0E0EE0FFF1FE451FF4F11825A
:100A500010820895EF92FF920F931F93CF93DF932D
:100A6000EC0112B71092A9031092AA031092AB03E3
:100A70001092AC0383B7E82FF0E0E770F070EE0F50
:100A8000FF1FEE5EFE4F2591349140E050E060E0A4
:100A90007BE187EB90E00E948122B901CA01693BAA
:100AA0002DE8720726E0820720E09207A0F437E2E3
:100AB000C131D30780F49E0140E050E00E942F2214
:100AC00028EE33E040E050E00E948122C901DA01C3
:100AD000BC01CD0121C028EE33E040E050E00E948F
:100AE0008122CA01B9019E0140E050E00E942F22FC
:100AF00013C08091A9039091AA03A091AB03B09178
:100B0000AC0385B78F7885BF85B7806885BF88952A
:100B100085B78F7785BF08C09B01AC01210F311DC0
:100B2000411D511D79018A012091A9033091AA0329
:100B30004091AB035091AC0382B790E0A0E0B0E0ED
:100B4000542F432F322F2227822B932BA42BB52BEC
:100B50008E159F05A007B10760F2DF91CF911F911D
:100B60000F91FF90EF9008951092A5031092A603A5
:100B70001092A7031092A80308952091A503309125
:100B8000A6034091A7035091A803B901CA01089593
:100B90001092AD031092AE031092AF031092B00307
:100BA00008952091AD033091AE034091AF03509171
:100BB000B003B901CA010895893031F48FB582605C
:100BC0008FBD8FB58E7F0AC08A3019F48FB58260D1
:100BD00002C08FB58D7F8FBD8FB581608FBD1BBC6F
:100BE0001ABC19BC18BC08952FB52E7F2FBD2FB588
:100BF00022602FBD2EB528602EBD2EB520612EBDE2
:100C000097BD86BD1BBC1ABC19BC18BC08958FB516
:100C10008D7F8FBD8FB58E7F8FBD8FB58F778FBD49
:100C20008FB58F7B8FBD8FB58F7D8FBD8FB58F7E3D
:100C30008FBD08958FB580688FBD8FB58F7B8FBDB9
:100C400008958FB580628FBD8FB58F7E8FBD08955B
:100C50008FB58F778FBD8FB58F7B8FBD08958FB583
:100C60008F7D8FBD8FB58F7E8FBD08959BBD8ABD53
:100C7000089599BD88BD08951F920F920FB60F92E7
:100C800011242F933F934F935F936F937F938F9391
:100C90009F93AF93BF93EF93FF938091A5039091A0
:100CA000A603A091A703B091A8030196A11DB11DB1
:100CB0008093A5039093A603A093A703B093A803E2
:100CC0008091A9039091AA03A091AB03B091AC03CA
:100CD0000196A11DB11D8093A9039093AA03A0932F
:100CE000AB03B093AC038091EC009091ED00892BA5
:100CF00029F0E091EC00F091ED000995FF91EF9162
:100D0000BF91AF919F918F917F916F915F914F9123
:100D10003F912F910F900FBE0F901F9018951F922B
:100D20000F920FB60F9211242F933F934F935F931F
:100D30006F937F938F939F93AF93BF93EF93FF93A3
:100D40008091EE009091EF00892B29F0E091EE0068
:100D5000F091EF000995FF91EF91BF91AF919F91B5
:100D60008F917F916F915F914F913F912F910F9054
:100D70000FBE0F901F9018951F920F920FB60F92F3
:100D800011242F933F934F935F936F937F938F9390
:100D90009F93AF93BF93EF93FF938091AD03909197
:100DA000AE03A091AF03B091B0030196A11DB11D98
:100DB0008093AD039093AE03A093AF03B093B003C1
:100DC0008091F6009091F700892B29F0E091F600D0
:100DD000F091F7000995FF91EF91BF91AF919F912D
:100DE0008F917F916F915F914F913F912F910F90D4
:100DF0000FBE0F901F9018951F920F920FB60F9273
:100E000011242F933F934F935F936F937F938F930F
:100E10009F93AF93BF93EF93FF938091FA009091CC
:100E2000FB00892B29F0E091FA00F091FB00099575
:100E3000FF91EF91BF91AF919F918F917F916F91B2
:100E40005F914F913F912F910F900FBE0F901F9088
:100E500018951F920F920FB60F9211242F933F9364
:100E60004F935F936F937F938F939F93AF93BF93B2
:100E7000EF93FF938091F0009091F100892B29F07E
:100E8000E091F000F091F1000995FF91EF91BF9191
:100E9000AF919F918F917F916F915F914F913F9112
:100EA0002F910F900FBE0F901F9018951F920F92C9
:100EB0000FB60F9211242F933F934F935F936F932D
:100EC0007F938F939F93AF93BF93EF93FF93809103
:100ED000F2009091F300892B29F0E091F200F0915B
:100EE000F3000995FF91EF91BF91AF919F918F9181
:100EF0007F916F915F914F913F912F910F900FBE16
:100F00000F901F9018951F920F920FB60F921124F9
:100F10002F933F934F935F936F937F938F939F9301
:100F2000AF93BF93EF93FF938091F4009091F500FE
:100F3000892B29F0E091F400F091F5000995FF91DB
:100F4000EF91BF91AF919F918F917F916F915F9141
:100F50004F913F912F910F900FBE0F901F901895BA
:100F60001F920F920FB60F9211242F933F934F931E
:100F70005F936F937F938F939F93AF93BF93EF9301
:100F8000FF938091F8009091F900892B29F0E0916E
:100F9000F800F091F9000995FF91EF91BF91AF91A1
:100FA0009F918F917F916F915F914F913F912F9181
:100FB0000F900FBE0F901F9018958093FD00F8942E
:100FC0008091B2038F7E8093B2038091B2038860D8
:100FD0008093B20378940895F8948091B2038B7F44
:100FE0008093B20378948091FC0008958FEC84BDC7
:100FF0008091B103833000F58B98939A8091B2036E
:1010000080FF23C0829BA3C08091B103813031F067
:10101000813040F0823009F0F6C006C0839902C0EA
:101020008DE096C082E094C08091B20383FFEBC054
:1010300093988B9A84E28CC08091B1038A3108F036
:1010400079C08091B20380FD08C08091B2038160B5
:101050008093B2038A98929A0895829B76C0809179
:10106000B103873140F4803118F58D3061F08F3055
:1010700009F055C00CC08831E1F1883158F189314F
:1010800009F04DC049C08091B2038D7F4DC0809161
:10109000B2038B7F8093B203839B05C080E880936B
:1010A000FC0081E014C01092FF001092FC0037C0D9
:1010B0008091FC0086958093FC00839B30C08091DA
:1010C000FC0080688093FC008091FF008F5F80931C
:1010D000FF0025C0839B05C08091FF008F5F809338
:1010E000FF008091FF0080FD1AC08091B2038260F2
:1010F00010C0839905C08091B20382608093B203CF
:101100008091B20381FD0BC093988B9A8091B203BA
:1011100084608093B20303C08B98939A6CC09298BA
:101120008A9A8091B2038E7F8093B2038091B1033B
:101130008F5F0EC08091B1038F3208F064C0809140
:10114000B20380FF10C0829906C08B98939A81E009
:101150008093B10308958091B2038E7F8093B20390
:1011600092988A9A08958091B20381608093B20325
:101170008A98929A8091B1038C3228F4853280F457
:101180008432E1F507C08D3299F18D32E8F08E326C
:10119000A9F531C08091FD008093FE001092FF0000
:1011A0008091FE0080FF08C08B98939A8091FF0089
:1011B0008F5F8093FF0002C093988B9A8091FE000E
:1011C00086958093FE001AC08091FF0080FF03C0C7
:1011D00093988B9A02C08B98939A8091B203877FE1
:1011E0008093B2038091B20380618093B20306C002
:1011F0008B98939A03C01092B10308958091B10324
:101200008F5F8093B10308951092B10381E18093C1
:10121000B2038A98929A8B98939A0E94B80482E0BB
:101220000E94E80485E066EF77E00E9414058FECE9
:1012300084BD089585B7826085BF8BB780648BBFFE
:101240008BE48093BF038AE58093BE0308951F93C8
:10125000CF93DF936091CF03635067FDCAC0809145
:10126000CC03CCE0D0E0C81BD109CD52DC4F80913B
:10127000CB038D3209F0AAC0683009F0B8C083EC06
:101280008093B3038AE58093600010920001888107
:10129000807641F0CE010E948020282F8F3F09F4F4
:1012A00084C08AC09A811092BC038981882321F46A
:1012B0001092BD0322E072C0853019F49093D003E0
:1012C0006CC0863009F055C08B81813059F489B7E4
:1012D0008B7F89BF8EE591E09093CE038093CD0301
:1012E00022E143C0823041F480E791E09093CE0345
:1012F0008093CD0322E239C08330F9F48A818823B8
:1013000041F48EE291E09093CE038093CD0324E0EC
:101310002CC0813041F482E391E09093CE0380931E
:10132000CD032CE122C08230F9F48EE491E0909359
:10133000CE038093CD0320E118C0813241F482E8CE
:1013400091E09093CE038093CD0329E00EC08232CA
:1013500059F48FEF95E09093CE038093CD0389B736
:10136000846089BF25E501C020E080E4809300010E
:1013700023C0883021F421E082ED93E011C0893050
:1013800019F49093D20309C08A3011F421E006C009
:101390008B3019F48BE48093BF0320E08CEB93E057
:1013A0009093CE038093CD0307C0888187FD2E8163
:1013B00080E88093000106C08F81882319F48E8114
:1013C000821708F0822F8093610011C08091000184
:1013D00087FF0DC0CE010E94C2208F3F21F48EE115
:1013E0008093600004C0882311F010926100109275
:1013F000CF038091600084FF46C0809161008F3FE1
:1014000009F441C0182F893008F018E0811B80933F
:1014100061008091B30398E889278093B303112377
:1014200021F12091CD033091CE038091000186FF00
:101430000AC0912FF901A4EBB3E084918D9331960A
:101440009150D9F708C0912FD901E4EBF3E08D91C9
:1014500081939150E1F7C90101961150810F911DBF
:101460001F5F9093CE038093CD0384EB93E0612FB5
:101470000E945E03612F6C5F6C3019F08FEF8093D8
:1014800061006093600094E180B38C7031F49150FE
:10149000D9F71092D0031092CA03DF91CF911F9118
:1014A00008951F93DC01162F8091BE0384FF07C0AF
:1014B0008091BF0398E889278093BF0303C08AE522
:1014C0008093BE03912FE0ECF3E08D9181939150D6
:1014D0001916DCF380EC93E0612F0E945E031C5F21
:1014E0001093BE031F9108958091040108959C01FB
:1014F000E0910101EE2389F080910401882369F0D5
:101500008E2F865D803120F4F0E0E457F040E081DA
:101510008E2FF9010995109201010895E82F865D3B
:10152000803140F480910401882321F0F0E0E457F9
:10153000F040E0818E2F08951F93982F865D6623DB
:10154000D9F0803188F4809102018F5F809302018D
:1015500080910301882361F49093010181E08093DD
:1015600003011092040129C080910101882329F10F
:1015700081E08093040121C08031F8F48091020160
:10158000815080930201E0910101EE2381F080916E
:101590000401882361F4F0E0E456F0401081812FCB
:1015A0000E942416812F0E9424161092010180911E
:1015B0000201882311F4109203011F910895809372
:1015C0001F01089580911F01089510920901089547
:1015D0008EB5887F8EBD08958EB584608EBD0895CA
:1015E000949A80910701909108019BBD8ABD08954E
:1015F00094980895909308018093070180910701C2
:1016000090910801892B51F4809121019091220140
:10161000892B21F094988EB5887F0EC080910701A8
:1016200090910801892B49F080912101909122012C
:10163000892B19F48EB584608EBD8091070190913D
:101640000801909322018093210108959091130144
:10165000992319F480E090E010C0913049F4109281
:1016600018011092170110921A0110921901089591
:10167000923031F48091870090E00E94FA0A089538
:10168000892F83508230A0F483E080931B01943033
:1016900019F481E080931B0180911B019FEF899FCA
:1016A000C00111246CE070E00E946E2260931C0166
:1016B00008958091130190E0019665E070E00E942A
:1016C0006E228093130181E090E090931201809349
:1016D00011010E94260B0895809187008E31A1F0A0
:1016E0008951809387008E3118F48EE180938700B2
:1016F00080911301823011F40E94260B81E090E06A
:1017000090931201809311010895809187008F3F7B
:10171000A9F090E049968F3F910511F00CF08FEF02
:101720008093870080911301823011F40E94260B70
:1017300081E090E0909312018093110108958091CF
:101740001F0190E080FF02C0909A01C09098AC0108
:101750004270507081FF02C0919A01C0919820910F
:10176000200182FF04C0969A2223C9F404C09698EF
:101770002130A9F409C081E080932001452B11F4A8
:1017800085E007C084E005C010922001452B21F4BC
:1017900083E080930E01089582E080930E01089506
:1017A000809113018330C1F484EF91E090931E0186
:1017B00080931D0180911B018C3038F58F5F8093E1
:1017C0001B019FEF899FC00111246CE070E00E9413
:1017D0006E2260931C0108958430B9F484EF91E087
:1017E00090931E0180931D0180911B01882369F055
:1017F000815080931B019FEF899FC00111246CE0F1
:1018000070E00E946E2260931C0108952091870071
:1018100030E0AC01429FC001439F900D529F900D5C
:1018200011246FEF70E00E946E22CB010895CF93D8
:10183000DF9380911301813009F057C0C0911901E5
:10184000D0911A01209761F48091170190911801AD
:1018500068E070E00E946E22CB010E94060C13C06B
:10186000C230D105A1F4809117019091180168E070
:1018700070E00E946E22CB01909581959F4F815020
:101880009F4F0E94060C90E00E94FA0A0FC0C130E0
:10189000D10519F0C330D10549F480911701909119
:1018A00018010196909318018093170180911701F8
:1018B00090911801885F974074F01092180110926F
:1018C0001701CE01019664E070E00E946E229093B1
:1018D0001A018093190180911701909118010196C6
:1018E000909318018093170187C08330D1F58091C0
:1018F0001D0190911E01009731F0019790931E01F8
:1019000080931D0128C020911C012223F1F08091B9
:101910001701909118010196909318018093170177
:101920000897CCF0109218011092170121502093C3
:101930001C018FEF90E0821B91096BEE7FEF0E94FC
:101940006E22645F60931B0106C010921B0110920F
:1019500018011092170180911C0190E00E94060C62
:101960003DC0843009F03EC080911D0190911E0160
:10197000009731F0019790931E0180931D0129C0BB
:1019800020911C012F3FF1F08091170190911801D7
:10199000019690931801809317010897D4F0109244
:1019A0001801109217012F5F20931C018FEF90E018
:1019B000821B91096BEE7FEF0E946E22645F609341
:1019C0001B0107C08CE080931B011092180110923C
:1019D000170180911C0190E00E94060C90E00E948B
:1019E000FA0A0AC0109218011092170183E090E0E1
:1019F00090931A0180931901DF91CF9108950E946D
:101A0000170C0895909891989698809113018230C0
:101A100011F0843029F4109218011092170108C0B7
:101A2000882311F0833021F481E08093160108951A
:101A30001092160108950E949F0B0E94260B089594
:101A4000CF93DF9380911601813029F1C091170166
:101A5000D0911801CE0168E070E00E946E22CB01A7
:101A6000909581959F4F81509F4F0E94060C90E06A
:101A70000E94FA0A87E0C83FD80744F080E090E06F
:101A80000E94FA0A949881E0809316012196D093DF
:101A90001801C0931701DF91CF9108951F93182F5C
:101AA00080910901882309F4B3C00E94740E882331
:101AB00019F00E94200DACC00E94D920882311F09B
:101AC00042E004C0113009F045C041E080910A01B4
:101AD00090910B01019690930B0180930A01209144
:101AE00084003091850028173907DCF580910C01BE
:101AF00090910D01019690930D0180930C01893C0A
:101B000091057CF180911F019091860080FF09C0B2
:101B1000913021F482B34095482307C082B3482B0B
:101B200009C0913021F482B3482B42BB08C082B374
:101B30004095482342BB10920B0110920A018091FC
:101B4000860091E089278093860010920D01109203
:101B50000C0107C010920D0110920C0181E08093DE
:101B6000860020910E01222311F180910F019091A6
:101B7000100101969093100180930F018536910515
:101B8000D4F0253059F0233049F0243011F02230C0
:101B900011F4919804C080911F0181FD919A1092D7
:101BA000100110920F01215020930E0104C01092D9
:101BB000100110920F0180911101909112011816DD
:101BC000190624F501969093120180931101885E05
:101BD0009340E1F4109212011092110160911301EF
:101BE00080911401681731F0609314018BE090E04C
:101BF0000E9403256091870080911501861731F0BE
:101C00006093150189E090E00E9403250E94170C63
:101C10001F91089580910901882309F064C081E033
:101C20008093090182E068EF7AE00E94140583E066
:101C300060EF7AE00E9414058FB58E7F8FBD8FB55F
:101C40008D7F8FBD8EB588608EBD8EB580618EBD57
:101C5000809182009091830097BD86BD1BBC1ABC09
:101C600086B597B599BD88BD8FB58F778FBD8FB578
:101C70008F7B8FBD8FB58F7D8FBD8FB58F7E8FBDD5
:101C80001DBC1CBC89B7806189BF89B7886089BFCA
:101C90008EB584608EBD89E090E00E94FB24809325
:101CA0008700809315018BE090E00E94FB248093D5
:101CB00013018F3F11F4109213018091130180934F
:101CC00014010E94260B8091EB00882311F08330D1
:101CD00051F480918400909185009595879590931B
:101CE0008500809384000895809123010895809158
:101CF0002301882329F481E0809323010E94020DAF
:101D0000089580912301882311F5809124019091F9
:101D10002501A0912601B09127010196A11DB11DB9
:101D20008093240190932501A0932601B09327016D
:101D3000805E9349A440B04054F010922401109268
:101D4000250110922601109227010E94770E089516
:101D500080912301882321F0109223010E941B0D02
:101D60001092240110922501109226011092270151
:101D7000089580912E01816080932E0108958091B5
:101D80002E018170089580912E0182700895982F00
:101D900080912E0180FD1AC09730A1F4109231017C
:101DA0001092300181E080932F018091EB00882315
:101DB00011F0833059F484EC99E09093BC00809347
:101DC000BB00089510922E0110922F01089580916A
:101DD0003201089581E080933201089510922E011E
:101DE00010923601089590E0895C8C3008F491E0FF
:101DF000892F0895982F895C8C3008F490E0892F02
:101E0000089588E20E94241688E20E94241608950C
:101E100080E3EAE8F4E0DF01982F1D929A95E9F754
:101E20001092BA04EAEEF3E0DF011D928A95E9F719
:101E300010922D0108950F931F93FC0180810E9441
:101E40008F168C01882319F088E60E942416812FB2
:101E50000E942416812F0E942416002319F088E680
:101E60000E9424161F910F910895CF92DF92EF9256
:101E7000FF920F931F93DF93CF930F92CDB7DEB7EF
:101E80008C01009711F52FC000D000D000D0EDB725
:101E9000FEB73196ADB7BEB71296FC92EE9211978F
:101EA000D382C282992787FD9095958384830E946F
:101EB000FA228DB79EB706960FB6F8949EBF0FBE56
:101EC0008DBFC7010E941B0F08C07E010894E11C52
:101ED000F11C88E8C82E80E0D82EF8010F5F1F4F54
:101EE0008491882389F60F90CF91DF911F910F91F4
:101EF000FF90EF90DF90CF90089583EC94E00E94E4
:101F0000350F0E94010F2AE034E080E090E00BC022
:101F10001192E217F307E1F701969F01285F3F4F07
:101F20008131910549F0FC0143E0EE0FFF1F4A9516
:101F3000E1F7EE5FFB4FECCF81E090E090933E0144
:101F400080933D01089586EF95E00E94350F0E9431
:101F5000010F81E080932C018CE080933601109278
:101F60003401089580913D0190913E01892B29F41F
:101F700010922E0110923601089587E295E00E949A
:101F8000350F0E94010F81E080932C018BE080933C
:101F90003601809134018093350110923401089507
:101FA0008CE094E00E94350F0E94010F08950E947A
:101FB000010F87E593E00E94350F0E94010F8DE528
:101FC00093E00E94350F0E94010F82E793E00E9488
:101FD000350F0E94010F85E893E00E94350F0E94A3
:101FE000010F89E793E00E94350F0E94010F87E0FF
:101FF000809334010895AF92BF92CF92DF92FF9207
:102000000F931F93DF93CF930F92CDB7DEB78C0161
:10201000FF246E010894C11CD11C58E8A52E50E085
:10202000B52E25C000D000D000D0EDB7FEB7319658
:10203000ADB7BEB71296DC92CE921197B382A28250
:10204000800F911FDC018C91992787FD90959583D6
:1020500084830E94FA228DB79EB706960FB6F89435
:102060009EBF0FBE8DBFC6010E941B0FF3948F2D24
:1020700090E0F80101900020E9F73197E01BF10BA7
:102080008E179F0778F20F90CF91DF911F910F91DC
:10209000FF90DF90CF90BF90AF90089581E0809344
:1020A0002C0180913401893088F48730E8F5833041
:1020B00079F1843030F48130E1F0823009F05CC095
:1020C00024C0853059F1863060F525C08B30B9F1D8
:1020D0008C3030F4893069F18A3009F04DC02CC061
:1020E0008E3609F447C0883789F1843609F044C038
:1020F00038C084E194E00E94350F80913F018F5FEA
:102100000E9404170E94FB0F1EC086E494E019C0D1
:1021100085E694E00BC087E894E025C08FE994E061
:1021200022C010922C0128C082EE94E00E94350F4C
:1021300023C08BE595E0FACF88E895E014C083EAE8
:1021400095E00E94350F0E94010F16C084E493E0D1
:102150000E94350F0E94010F109234010E94D52079
:102160000BC08AE393E00E94350F0E94010F10928A
:10217000340102C00E94E61088EE93E02CE231E0C8
:10218000F9013197F1F70197D9F708950E94010FEE
:1021900083EC93E00E94350F0E94010F83ED93E0E2
:1021A0000E94350F0E94010F85E893E00E94350FD1
:1021B0000E94010F89EE93E00E94350F0E94010FEB
:1021C00087E0809334010E944E1008950E94010F11
:1021D00083E093E00E94350F0E94010F8FE093E0AF
:1021E0000E94350F0E94010F8DE193E00E94350F90
:1021F0000E94010F85E293E00E94350F0E94010FBB
:102200008CE293E00E94350F0E94010F88E08093DA
:1022100034010E944E100895CF93DF93C5EAD1E0B8
:10222000CE0160E00E940325219683E0C53ED807D9
:10223000B9F787E0809334010E944E10DF91CF916F
:1022400008951F93CF93DF938091E9038C30C8F4F6
:10225000C0E0D0E010E38091E903819FC001112428
:102260008B559E4FFE01E657FB4F8C0F9D1F6081E3
:102270000E9403252196C033D10569F78FEF809323
:10228000E903DF91CF911F9108950F931F93CF938F
:10229000DF93982F8C30C0F480E3989FC001112405
:1022A000EC01CB55DE4F8C010B521E4FCE010E942C
:1022B000FB24982F81508E3F18F4892F0E942416FA
:1022C0002196C017D10791F7DF91CF911F910F9100
:1022D0000895CF92DF92EF92FF920F931F93CF93C7
:1022E000DF9390913F0188E8989F700111248DE061
:1022F00090E0E80EF91ECC24DD2417C0CE018E0D2F
:102300009F1D0E94FB24F80181938F012196C83004
:10231000D105A1F70894C11CD11C88E090E0E80E1B
:10232000F91E91E1C916D10459F0860163E0000F4E
:10233000111F6A95E1F70E5F1B4FC0E0D0E0DECFC2
:1023400010923E0110923D01DF91CF911F910F91AC
:10235000FF90EF90DF90CF900895AF92BF92CF9211
:10236000DF92EF92FF920F931F93DF93CF9300D0F2
:102370000F92CDB7DEB7D82EB62EA42EC22E8091E6
:102380002C01882309F08EC2809134018B3019F022
:10239000222309F087C280EB90E06BE04D2D0E9474
:1023A000C0157C01909134019B3009F06CC0809184
:1023B0002B01882399F010922A0110922B018D2D68
:1023C0000E942416E091BA04F0E0E757FB4F108218
:1023D0000E94211187E08093340155C2CC2071F016
:1023E00080912D01883108F05DC28F5F80932D01AF
:1023F0008AEE93E06D2D0E94181617C00AEE13E0C6
:10240000F80101900020E9F73197E01BF10BC801BA
:102410006E2F4D2D0E94C015BC018FEF6F3F7807C6
:1024200009F440C2C8010E94E6158091BA04E82F61
:10243000F0E0E657FB4FD0828F5F8093BA048D2D7A
:102440000E9424168091BA04803330F087E0809394
:1024500034010E94211117C2CC2081F0A0EBB0E022
:10246000EA0EFB1EF7018081893241F481E08093FE
:102470002A01109229011092280114C210922A01F7
:1024800010922B010FC2892F8750823008F0A3C011
:10249000FAE0EF16F10408F005C2E0913C01F0E02B
:1024A000E75CFE4FE08200D000D000D0EDB7FEB771
:1024B00031968E010F5F1F4FADB7BEB712961C93BA
:1024C0000E9311978BE890E093838283F582E482E8
:1024D0000E94FA22EDB7FEB736960FB6F894FEBF0B
:1024E0000FBEEDBFC8010E94FB0F0E94010F0091BB
:1024F000390180913401883091F50130E1F4009385
:1025000033010E94010F8CE893E00E94350F0E9476
:10251000010F87E993E00E94350F0E94010F86EAC0
:1025200093E00E94350F00932C018AE080933601DE
:102530001092340160C1023029F4009333010E94EB
:10254000D70F59C1033021F40093330184E633C01F
:10255000043009F050C10093330188E72CC00630E5
:1025600019F48EE680933401809133018130C9F4EF
:10257000013011F0023019F4009334013CC10330F2
:1025800031F484E0809334010E94B20F34C10430EE
:1025900011F485E010C0093009F02DC10E947D0FB3
:1025A000C4C0823009F027C1013011F489E021C193
:1025B000023041F48AE08093340110922E0110928F
:1025C000360119C1093009F016C18CE0809334013D
:1025D0000E94A30F10C1923089F1FAE0EF16F104C6
:1025E00008F060C180913C01E82FF0E0E75CFE4F0D
:1025F000E0828F5F80933C0100D000D000D0EDB727
:10260000FEB731968E010F5F1F4FADB7BEB7129662
:102610001C930E9311978BE890E093838283F5824D
:10262000E4820E94FA22EDB7FEB736960FB6F89410
:10263000FEBF0FBEEDBFC8010E94FB0FFAE0EF1610
:10264000F10428F080913401823009F02BC180918F
:102650003401823009F46BC0833020F4813009F0FA
:102660001FC131C0833009F4C9C0893009F018C1D5
:1026700080913C018230E9F4909139018AE0989F81
:102680009001112480913A01280F311DC901019751
:102690000C9750F4822F81508093E9038BE0809354
:1026A00034010E94080FE6C00E94010F8AED95E0F8
:1026B000DFC088EE93E02CE231E0F9013197F1F7C9
:1026C0000197D9F7EFC09091390180913F01833094
:1026D00050F5192F1150811731F1133020F58091E9
:1026E0003D0190913E01181619066CF40E94010FED
:1026F00081E095E00E94350F0E94010F0E94B20F09
:102700001093400178C00E94010F84E195E00E947F
:10271000350F0E94010F87E08093340110933F0131
:102720000E94691168C00E94010F87E062C0B092E8
:102730003701A092380181E395E00E94350F809126
:1027400037018F5F0E9404170E94FB0F8EE890E014
:102750000E94FB0F809138018F5F0E9404170E9436
:10276000FB0F81E990E00E94FB0F80913F018F5F9A
:102770000E9404170E94FB0F8AE990E00E94FB0F61
:10278000E0913F0181E1E89FF0011124809138013F
:10279000E80FF11DB3E0EE0FFF1FBA95E1F780914E
:1027A0003701E80FF11DE050F04BE4918E2F0E94AD
:1027B00004170E94FB0F84EA90E00E94FB0F8091B7
:1027C0003701E0913801F0E0A3E0EE0FFF1FAA957A
:1027D000E1F7E80FF11DEE5FFB4F80810E940417C7
:1027E0000E94FB0F8EEA90E00E94FB0F0E94010FF7
:1027F00083E08093340110923C0152C080913C01EF
:10280000833009F043C09091390184E6989FA0017C
:10281000112480913A012AE0829FC0011124480FBF
:10282000591F80913B01480F511D4F3F5105E4F462
:1028300080913701E0913801F0E073E0EE0FFF1F67
:102840007A95E1F7E80FF11DEE5FFB4F408387E0DB
:102850008093340180913D0190913E0101969093C7
:102860003E0180933D0106C00E94010F8DE395E07B
:102870000E94350F83E0E9E3F1E0DF011D928A95C4
:10288000E9F710923C010E94010F0AC088EE93E024
:102890002CE231E0F9013197F1F70197D9F702C045
:1028A0000E944E100F900F900F90CF91DF911F91CB
:1028B0000F91FF90EF90DF90CF90BF90AF90089571
:1028C000BF92CF92DF92EF92FF920F931F93CF931D
:1028D000DF93EE24FF24CC24DD2498E8B92E1EC01B
:1028E00080913F018B9DC00111240D968C0D9D1D83
:1028F0008C0F9D1FF80161918F010E940325219685
:10290000C830D10569F70894E11CF11C88E090E01B
:10291000C80ED91E91E1E916F10459F0870183E050
:10292000000F111F8A95E1F70E5F1B4FC0E0D0E04A
:10293000D7CF10923E0110923D0180913501843035
:1029400039F48093340110922E011092360113C095
:10295000813089F40E94010F84E195E00E94350FD7
:102960000E94010F87E080933401809140018093A1
:102970003F010E9469110E944E10DF91CF911F917B
:102980000F91FF90EF90DF90CF90BF90089583E07C
:10299000E9E3F1E0DF011D928A95E9F710923C012D
:1029A00010923F01109233010E9469110E94E610BB
:1029B0000895FF920F931F93CF93DF93F82E80918A
:1029C0002E01C62FD0E0042F10E08823A9F488E858
:1029D000F89EC00111240D969E0143E0220F331F83
:1029E0004A95E1F7820F931F800F911F0E94FB24ED
:1029F000982F81508E3F88F081E1F89EC00111240C
:102A0000C80FD91F23E0CC0FDD1F2A95E1F7C00FB7
:102A1000D11FC050D04BFE019491892FDF91CF91EF
:102A20001F910F91FF9008951F93982F80912E0171
:102A300080FD0FC0192F195C1C3058F40E946516D8
:102A4000882339F00E941217812F0E94451181E0DE
:102A500001C080E01F91089580912E0180FF0DC07C
:102A600081FD0BC00E946517882339F080912E01EB
:102A7000826080932E010E94C714089580912E01D8
:102A8000816080932E018091EB008150823018F498
:102A90000E942F1E08C00E94D01A84EC99E09093E7
:102AA000BC008093BB000E94D00F089580912E013E
:102AB0008823C1F480912F018823A1F080913001F7
:102AC00090913101019690933101809330012091D2
:102AD000BB003091BC002817390724F410922F0155
:102AE0000E943E1508950E94561580912E0181FF87
:102AF00036C080912C018823C9F00E947416882367
:102B0000A9F0809136018B3019F40E9460140CC03A
:102B10008A3019F40E94C61007C08C3019F40E9444
:102B20000C1102C010922C011092360180912A01E2
:102B30008823A9F080912801909129010196909312
:102B4000290180932801895E93404CF081E08093B5
:102B50002B0189E26FEF4FEF20E00E94AD11089545
:102B60000E94D920882319F0109232010895809193
:102B70003201813021F40E943E15109232010895F5
:102B8000FC0190E007C08191841719F4292F30E0EF
:102B900005C09F5F9617B8F32FEF3FEFC901089567
:102BA000FC01808140E02FEF3FEF0CC05191252FB9
:102BB00030E090E02817390719F02FEF3FEF04C0FD
:102BC0004F5F852F461790F3C90108959B01FC01C3
:102BD00001900020E9F73197E81BF90B6F5F7F4FF9
:102BE000680F791FE21BF30B820F931FAF010E9446
:102BF000C7220895FF920F931F93F42E9B01DC01CF
:102C00000D900020E9F78C01060F171FA81BB90BC8
:102C1000A61BB70B2F5F3F4F820F931FB801AD016B
:102C20000E94C722F801F0821F910F91FF90089532
:102C3000462FDC010D900020E9F71197A81BB90B76
:102C4000BD010E94FA150895282F80917701909177
:102C50007801019660E071E00E946E22FC01909381
:102C600078018093770180917501909176018E179C
:102C70009F0759F4009719F48FEF90E001C0019776
:102C800090937801809377010895E758FE4F208351
:102C9000089520917501309176018091770190918E
:102CA00078012817390711F480E00895C9010196C9
:102CB00060E071E00E946E22FC01909376018093A7
:102CC0007501E758FE4F8081089540E0209175011D
:102CD000309176018091770190917801281739071A
:102CE00009F441E0842F089580917401882319F438
:102CF00040E050E00FC040E050E02091750130917D
:102D0000760180917701909178012817390711F4A5
:102D100041E050E0842F0895809374010895982F26
:102D200081568A3118F4292F2D5510C0892F8154CE
:102D30008A3120F4292F2D5332E009C0892F815385
:102D4000893010F020E002C0292F235130E0892F74
:102D5000992787FD9095A92FB92FFC01B097EF35E2
:102D6000F10508F048C0E65DFF4FEE0FFF1F05902C
:102D7000F491E02D09942EE141C02FE13FC020E203
:102D80003DC021E23BC022E239C023E237C024E249
:102D900035C025E233C026E231C027E22FC02CE245
:102DA0002EC02DE22CC02DE229C02EE228C02EE23A
:102DB00025C02FE224C02FE221C020E320C020E361
:102DC0001DC021E31CC021E319C023E318C023E385
:102DD00015C024E314C024E311C025E310C025E38B
:102DE0000DC026E30CC026E309C027E308C027E393
:102DF00005C028E304C0222311F428E332E0832F26
:102E0000922F089527E2FBCF0F931F9301E711E064
:102E100090E0B8014AE050E00E94D922C8011F9119
:102E20000F9108952091750130917601809177017D
:102E3000909178012817390739F480E3E1E4F1E053
:102E4000DF011D928A95E9F708951F93CF93DF93D1
:102E50000E944916182FC1E4D1E0882331F480E3A1
:102E6000FE0111928A95E9F712C0FE01019000203F
:102E7000E9F73197E154F140CE016E2F412F0E94C6
:102E8000C015BC0197FD05C0CE010E94E61580E08B
:102E900005C0CE01612F0E94181681E0912FDF91AD
:102EA000CF911F91089580E090E0FC01E554FB4F25
:102EB0001082FC01E453FB4F108201968131910591
:102EC000A1F78AE08093DE00089581E080937B0281
:102ED000ECECF4E08081882319F010927B0205C0AD
:102EE000319684E0ED3DF807A9F780917B020895C3
:102EF0008CEC94E008958F929F92AF92BF92DF92F4
:102F0000EF92FF920F931F93CF93DF93DD24C0E0E6
:102F1000D0E021E0E22EF12C97E1892E912C8FE078
:102F2000A82EB12C87010C2E02C0000F111F0A948D
:102F3000E2F707BB802F809588BB81E090E00E947C
:102F4000F920ECECF4E040E050E0302F3095842F95
:102F5000483048F429B3C701042E02C0880F991FD6
:102F60000A94E2F711C08850883018F423B3C501E1
:102F700002C020B3C401841B950BB70102C0660FC9
:102F8000771F8A95E2F7CB01209528239081802F27
:102F9000892319F0222329F008C0222331F0902B35
:102FA00001C093239083DD24D3944F5F5F4F31960C
:102FB0004131510561F62196C830D10509F0B2CFF3
:102FC000DD2019F01092DD0007C08091DD0084360D
:102FD00018F48F5F8093DD0020E09091DD008091F8
:102FE000DE00981709F421E0822FDF91CF911F9125
:102FF0000F91FF90EF90DF90BF90AF909F908F90D8
:1030000008951F930E942C150E947B17182F0E9471
:1030100073150E94E70E811110E0812F1F91089512
:103020004F925F926F927F929F92AF92BF92CF9298
:10303000DF92EF92FF920F931F93CF93DF93EE24D3
:10304000FF2451E0C52ED12C47E1442E512C3FE006
:10305000632E712C6FC00C2F80917A026C2F492D3A
:103060000E94D914182F865D803128F4E12FF0E0FA
:10307000E457F0401081812F865F823060F01E3F60
:1030800051F0183F41F01B3F09F048C080917A028F
:10309000823009F043C0A7BAB8BA81E090E00E943C
:1030A000F920083048F429B3C6010C2E02C0880F5D
:1030B000991F0A94E2F711C00850083018F423B39E
:1030C000C30102C020B3C2018C1B9D0BA60102C02C
:1030D000440F551F8A95E2F7CA0120952823F1F085
:1030E0001E3F61F0183F09F444C0173F49F4809136
:1030F0007B02882399F081E080937C0291E03DC0BF
:10310000163F41F480917B02882341F082E0809356
:103110007C022FC01B3F11F490E02FC02196C131DB
:10312000D10509F098CF0894E11CF11C58E0E51690
:10313000F10471F09E2CC6010E2C02C0880F991F5D
:103140000A94E2F7A82EB82EB094C0E0D0E083CF66
:103150000E946517882311F010927C0290917C02E6
:10316000992359F480917902813029F482E0809387
:103170007A0292E002C010927A02892FDF91CF91F9
:103180001F910F91FF90EF90DF90CF90BF90AF9085
:103190009F907F906F905F904F9008950F931F9333
:1031A000182F062F8E3F09F443C00E949C0A00236B
:1031B000C1F10E94D00B1C3F49F080917D02882311
:1031C000B9F01A32A9F41092790206C080917902FE
:1031D00091E089278093790280917902882341F5D3
:1031E0000E94E20A80FF02C0909A22C0909820C0FC
:1031F000193221F481E080937D021DC0882311F0F3
:10320000193311F01D3F19F40E94590B11C01A3FD8
:1032100019F40E94850B0CC0193F61F40E946C0BDD
:1032200007C01C3F29F0193229F410927D0202C018
:1032300080E001C081E01F910F910895282F8F3FFA
:1032400031F410927F0281E08093890208958E3FCD
:1032500021F08D3F29F410927F0210928902089587
:1032600080918902882351F080917F02E82FF0E05D
:10327000ED5AFC4F20838F5F80937F0280918702FD
:1032800090918802019668EC70E00E946E22FC0129
:1032900090938802809387028091850290918602A4
:1032A0008E179F0759F4009719F487EC90E001C03E
:1032B000019790938802809387020895E657FD4F07
:1032C00020830895209185023091860280918702A3
:1032D000909188022817390711F480E00895C901F8
:1032E000019668EC70E00E946E22FC0190938602C9
:1032F00080938502E657FD4F8081089540E020913C
:103300008502309186028091870290918802281769
:10331000390709F441E0842F089510928602109233
:103320008502109288021092870210927F021092FA
:10333000800210925D0310925E0310925F03109260
:103340006003EBEBF4E0119284E0EC3CF807D9F772
:103350000895EEEDF4E0119285E0EE38F807D9F724
:103360002AEB32E006C0FC01E252FB4F8081826012
:103370008083F901849190E02F5F3F4F009799F788
:103380002DEB32E006C0FC01E252FB4F80818460ED
:103390008083F901849190E02F5F3F4F009799F768
:1033A00021EC32E006C0FC01E252FB4F80818860D4
:1033B0008083F901849190E02F5F3F4F009799F748
:1033C00026EC32E006C0FC01E252FB4F80818160B6
:1033D0008083F901849190E02F5F3F4F009799F728
:1033E00024EF32E006C0FC01E252FB4F8081806195
:1033F0008083F901849190E02F5F3F4F009799F708
:10340000EBEBF4E0119284E0EC3CF807D9F7089577
:103410000E94651690E0882309F491E0892F0895B1
:1034200081E08093A4030E940A0E0E94B0150895C3
:10343000FF920F931F93CF93DF93F62E0E948E0A75
:10344000182F853D08F0A6C087568830D0F4E12FAC
:10345000F0E090918402FF2039F0EE0FFF1FE15160
:10346000F0408081982B07C0EE0FFF1FE151F04024
:1034700080818095982390938402809184020E9499
:10348000C70E812F90E0FC01EE56FE4F0491FF2005
:1034900009F450C01093520310925D0310925E0322
:1034A00010925F031092600310928F05EC01C252DC
:1034B000DB4F888181FF2EC0163421F0183409F0CB
:1034C00069C00EC08FEF0E941E1980EE0E941E1967
:1034D00082E10E941E1980EE0E941E198CE726C010
:1034E0008DEF0E941E1981EE0E941E1984E10E9438
:1034F0001E1987E70E941E1981EE0E941E1980EF97
:103500000E941E1984E10E941E1980EF0E941E195C
:1035100087E73BC082FD38C08FEF0E941E1988816B
:1035200080FF03C080EE0E941E19802F0E941E198A
:103530008EEF2BC080915203811711F410927F02FD
:10354000E12FF0E0E252FB4F808181FF13C016347F
:1035500009F580EE0E941E1980EF0E941E198CE76B
:103560000E941E1980EE0E941E1980EF0E941E19F3
:1035700082E10BC082FD0EC080FF03C080EE0E947E
:103580001E1980EF0E941E19802F0E941E198CEFB9
:103590000E941E19DF91CF911F910F91FF90089506
:1035A00088E660E00E94181A87E660E00E94181A18
:1035B00089E660E00E94181A0895DF92EF92FF9268
:1035C0000F931F93082F162FE42ED22E0E94CE1891
:1035D000F82E112329F088E19AE161E00E94770A30
:1035E0000E94BF0E882339F0802F6E2D4D2D212F84
:1035F0000E94AD1102C0FF2011F480E005C0802FB1
:10360000612F0E94181A81E01F910F91FF90EF9097
:10361000DF9008954F925F926F927F928F929F9268
:10362000AF92BF92CF92DF92EF92FF920F931F93D0
:10363000CF93DF930E946516882349F081E00E94B2
:103640008C160E940118882309F4CEC014C080E0B3
:103650000E948C160E942517813041F4892F61E069
:103660000E94181A8DEF0E941E19BEC0892F60E0BB
:103670000E94181AB9C00E941018782E0E9478175C
:103680004C0180918302871509F446C0EE24FF2483
:1036900041E0442E512C34C0F401EC0FFD1F008199
:1036A000FE01E554FB4F80818B21F9F0809183026C
:1036B0006C2F4C2D0E94D914D82E872D6C2F4C2D99
:1036C0000E94D914182FD81681F0882371F08D2DFF
:1036D00060E04C2D2C2F0E94DD1A0B2131F0812F40
:1036E00061E04C2D2C2F0E94DD1A2196C131D105AD
:1036F00099F60894E11CF11C88E0E816F10461F0E9
:10370000CE2CC2010E2C02C0880F991F0A94E2F73A
:10371000B82EC0E0D0E0C0CF70928302AA24A39458
:10372000CC24DD2431E0432E512C40C0EC2EFE0190
:10373000E554FB4FF080F401EC0FFD1F00810621E2
:10374000872D6C2F4B2D0E94D914182F002339F090
:10375000882329F00E941415882309F045C0F6201B
:10376000F016C9F00E94D920882339F00023B9F05F
:103770008E2D6B2D0E94DC2012C0112361F00023DE
:1037800019F0812F61E002C0812F60E04B2D2E2DBA
:103790000E94DD1AA8222196C131D10539F608947C
:1037A000C11CD11C88E0C816D10461F0BC2CC20138
:1037B0000C2C02C0880F991F0A94E2F7682EC0E013
:1037C000D0E0B4CF20E030E0F901E554FB4FD40164
:1037D000A20FB31F8C9180832F5F3F4F21313105A2
:1037E00099F72A2D30E002C020E030E0C901DF91D6
:1037F000CF911F910F91FF90EF90DF90CF90BF90EE
:10380000AF909F908F907F906F905F904F900895B2
:103810001F93162F8E3F11F080938E050E94DD07B7
:1038200010938F051F9108958F929F92AF92BF9230
:10383000CF92DF92EF92FF920F931F9388E08093D5
:103840008F050E9404090E94A9190E9453170E9423
:103850008D19789416E9812E99249394B5E0AB2EB6
:10386000B12CC12CD12C8091EB008823F9F48091EC
:10387000A4038823D9F48091A2039091A303019615
:103880009093A3038093A2030197815D974074F006
:1038900081E08093EB001F910F91FF90EF90DF90FC
:1038A000CF90BF90AF909F908F9008958091B2037A
:1038B00082FFC0C080918102909182028C3F91056D
:1038C00061F020918502309186028091870290916B
:1038D00088022817390709F0ADC00E94EC07182F9D
:1038E00060918F05623009F457C0633018F461307D
:1038F00039F44CC0663009F48DC0673009F455C006
:10390000133F71F1143F60F41E3EC9F01F3E18F4DE
:103910001D3EA9F522C0103FE9F0123F81F511C00C
:10392000163F09F1173F30F4143F09F481C0153FE9
:1039300031F57EC01E3F59F01F3F09F505C08EEEE0
:1039400072C18AEF64E06FC18AEF68E06CC1809158
:103950008E0569C18AEF62E066C18AEF66E063C1E5
:103960008AEF67E060C19092DF00A092E000B09221
:10397000E100C092E200D092E3000E948D198AEF2C
:1039800060E00E94081C0E94101A6DCF853F09F468
:103990004FC08AEF61E047C10E948D19112311F0D9
:1039A00060E001C063E08AEF3EC1682F70E0CB01A8
:1039B00080769070A5E095958795AA95E1F780931C
:1039C000DF00AB0148715070F3E055954795FA95CB
:1039D000E1F780E090E021E030E003C0220F331FE8
:1039E000019684179507D4F367707070269FC00105
:1039F000279F900D369F900D1124AA2797FDA09523
:103A0000BA2F8093E0009093E100A093E200B0937E
:103A1000E3000EC00E94101A912F80E010FD84E098
:103A200091FD816092FD82600E94DF0A0E949F0BDF
:103A30008AEFF8C08091B20384FF15CF80918F0583
:103A4000843009F4E7C0853030F4882371F0833086
:103A500009F009CFDDC0883009F4E1C08C3009F4E9
:103A60005FC0853009F0FFCED8C02091850230912B
:103A7000860280918702909188022817390711F4F5
:103A80000E940A1B809179020E944E0D0E946219C9
:103A9000282F30E030938202209381022C3F3105A1
:103AA00009F4E1CE232B21F060E00E94081C60C0E5
:103AB00080917F02882309F4D6CE20915D03309156
:103AC0005E0340915F03509160032F5F3F4F4F4F64
:103AD0005F4F20935D0330935E0340935F035093E9
:103AE00060038091DF00889DC00111248A519F4F9F
:103AF000AA2797FDA095BA2F281739074A075B0711
:103B00000CF4B1CE10925D0310925E0310925F032D
:103B100010926003109280028CE080938F05A3CEF8
:103B200080918002882311F40E940A1B80917902FF
:103B30000E944E0D80917F028823C1F02091850262
:103B40003091860280918702909188022817390768
:103B500069F480915D0390915E03A0915F03B09141
:103B600060030197A105B10561F40FC010928F05A4
:103B700010925D0310925E0310925F031092600337
:103B800072CE809180028823A9F090918002E92F63
:103B9000F0E0ED5AFC4F80819F5F909380026CE0D3
:103BA0000E94081C60917F02809180020E944E2238
:103BB00090938002E0905D03F0905E0300915F03BC
:103BC000109160030894E11CF11C011D111D60910E
:103BD000E0007091E1008091E2009091E3002AE022
:103BE00030E040E050E00E942F229B01AC012D5FAD
:103BF0003F4F4F4F5F4FC801B7010E94A322609310
:103C00005D0370935E0380935F03909360032BCEFC
:103C100082E008C08BEA65E006C083E803C00E942A
:103C20008D198AEA60E00E94081C1DCE8091630312
:103C3000882331F40E94651620E030E0882311F4D7
:103C400021E030E0822F089588E0E6E6F3E0DF012E
:103C50001D928A95E9F781E080936603089580E3D9
:103C6000EFE6F3E0DF011D928A95E9F708950E94DF
:103C70008E0A982F853D08F042C081578A3198F40A
:103C800081E080936103E92FF0E0EE0FFF1FE05A1F
:103C9000FE4F2591349182E0809366032093670361
:103CA000309368032CC0892F8756883068F4E92F39
:103CB000F0E0EE0FFF1FE151F0408081909167032B
:103CC000892B809367031BC09923C9F0209190052D
:103CD0002830A8F4892F8D58823248F4E92FF0E07B
:103CE000EE0FFF1FE45AFE4F85919491982FE22F1B
:103CF000F0E0EA59FC4F90832F5F2093900580E01D
:103D00000895AF92BF92CF92DF92EF92FF921F93EE
:103D1000CF93DF930E946516882309F047C00E9465
:103D2000241E0E942517E1E4F1E0DF010D90002040
:103D3000E9F71197AE1BBF0B82E080939005EF016E
:103D4000EA2EFF246F01CE0CDF1C3FE6A32E33E0EA
:103D5000B32E1AC01881812F8756883080F0F50164
:103D600001900020E9F73197EF56F3408FE693E09A
:103D70006E2F412F0E94C0158F5F9F4F21F4812F1E
:103D800061E00E94371E219641E451E0CC15DD052B
:103D900009F781E0809363032FE633E0F701319662
:103DA000C901BA01AF010E94BE2208C0809163031D
:103DB000882321F00E94241E1092630381E0DF918A
:103DC000CF911F91FF90EF90DF90CF90BF90AF9079
:103DD00008953F924F925F926F927F928F929F923F
:103DE000AF92BF92CF92DF92EF92FF920F931F9309
:103DF000DF93CF9300D00F92CDB7DEB70E940118AA
:103E0000882309F4CCC00E941018382E82E08093D9
:103E100090050E94241E0E9478173C011982992463
:103E2000CC24DD2441E0442E512C76C0BA80EA81B6
:103E3000FB81E554FB4F0081EA81FB81E60DF71D14
:103E4000F080F820832D6B2D4A2D0E94D914182F55
:103E5000FF2039F0882329F00E941415882309F0E7
:103E60009EC0E82CE022EF1409F440C00E94D92043
:103E7000882349F0FF2021F08B2D6A2D0E94DC2041
:103E80000E94A80E42C0112309F49FC0FF2069F0D0
:103E9000812F61E00E94CE18082F0E94A80E87E3B0
:103EA0009EE161E00E94770A07C0812F60E00E94D6
:103EB000CE18082FEE20C1F00E94BF0E8823A1F07B
:103EC000FF2049F0812F6A2D4B2D21E00E94AD117A
:103ED00081E0898312C0812F6A2D4B2D20E00E9442
:103EE000AD1191E0998309C0002339F0FF2029F03A
:103EF000812F61E00E94371E982AEA81FB8131966A
:103F0000FB83EA83719709F091CF0894C11CD11CFF
:103F1000F8E0CF16D10461F0AC2CC2010C2C02C029
:103F2000880F991F0A94E2F7882E1B821A827ECF8F
:103F300080916603813069F49091670380916403F6
:103F4000981739F0892F0E94C70E809167038093DC
:103F5000640380916103882369F080916603823055
:103F600049F082E080936603109267031092680321
:103F70001092610320E030E0F901E554FB4FD301DA
:103F8000A20FB31F8C9180832F5F3F4F21313105EA
:103F900099F78981813019F0892D816001C080E015
:103FA0000F900F900F90CF91DF911F910F91FF9085
:103FB000EF90DF90CF90BF90AF909F908F907F90C9
:103FC0006F905F904F903F90089501E075CFEF9212
:103FD000FF920F931F930E941A098B9A20E048EBDF
:103FE0005BE0CA010197F1F72150D9F78B987894DB
:103FF00000E010E0EE24E3948091EB008130D9F4EE
:104000008091A4038823B9F48091A2039091A30323
:1040100001969093A3038093A2030197815D97403B
:1040200054F01092EB008BB78F7B8BBF1F910F91D9
:10403000FF90EF9008950E942709002399F40E94B1
:10404000E91E082F08B600FE0FC0E8BEF0906E0310
:10405000FF2051F0153010F401E007C05BEFF52EA2
:10406000F10E03C00E94E91EF12E8091BE0384FF71
:104070002EC080916203882361F0109262030E9437
:10408000241E86E693E068E00E94510A0E94B01563
:104090001EC00E94161E882341F00E94811E86E6E3
:1040A00093E068E00E94510A12C0002381F08091E1
:1040B0006603823021F486E693E063E005C0813038
:1040C00029F486E693E068E00E94510A00E00E942D
:1040D000810E809179020E944E0D0E94161E882347
:1040E00011F080E001C081E00E948C161F2D84CF6A
:1040F00081E0809362030E940A0E0E94A80E089538
:10410000CF93DF9321E02093A403EC018091660319
:104110008093CD031092CE0388818076803271F532
:104120008981813011F488E02AC0893041F48E8180
:104130009F81029719F5209365038FEF20C082308D
:1041400019F480916E0314C08A3031F40E947820F3
:104150008B8180936E0312C0833031F48B8188236E
:1041600069F41092E4000BC08B3041F48091E400BC
:104170008093CD031092CE0381E001C080E0DF91F7
:10418000CF910895FC0180916503882351F062303E
:1041900041F48081813029F481810E94DF0A0E94EC
:1041A0009F0B1092650381E0089581E080939F0347
:1041B000089580919F0308950F931F93082F162F42
:1041C00085EE90E00E94FB0F812F0E9404170E9451
:1041D000FB0F87EE90E00E94FB0F802F0E940417D8
:1041E0000E94FB0F89EE90E00E94FB0F1F910F9140
:1041F00008950F931F930091A0031091A1030396BC
:1042000065E070E00E945A2280E090E02CE030E00F
:1042100040E050E00E942F22060F171F1093A103C9
:104220000093A0031F910F9108958D98959A08957A
:104230008D9A959808951F9310E0812F0E941F0575
:104240001F5F1730D1F789B78E7F89BF89B78B7F02
:1042500089BF89B78F7B89BF1F9108959FEF97BB57
:1042600098BB1ABA14BA9BBB95BB91BB91B39F750F
:1042700091BB12BA92B3906A92BB91B3936191BB16
:1042800092B39C7E92BB8E9A9698882379F08BE0AD
:1042900090E00E94F92081B3837F81BB83B7856062
:1042A00083BF0E941B218D98959A08958D9A9598A9
:1042B0000895F8940E94E50A1092A3031092A203B5
:1042C0001092A40308958F929F92AF92BF92CF92C3
:1042D000DF92EF92FF920F931F93CF93DF938FEFB5
:1042E0008093EB0087BB88BB1ABA14BA8BBB85BB23
:1042F00011BA80E882BB81E090E00E94F92010E0D2
:104300000E947B17882319F41F5F1E31C9F70E9492
:1043100078175C01FF2400E010E091E0892E912CD9
:104320002AC0F501EC0FFD1F80818E21B9F0C1304C
:1043300029F4013019F40E94D52010C0F6018491AF
:10434000803119F40E94EA0E09C0883119F4F1E0B5
:10435000FF2A04C0833111F482E0F82A2196E8E0B4
:10436000F0E0CE0EDF1EC131D105D9F60F5F1F4F31
:104370000830110589F0C401002E02C0880F991F72
:104380000A94E2F7E82E80E0C82E80E5D82EC00E11
:10439000D11EC0E0D0E0C5CFFF2019F0F394F09219
:1043A000EB006091EB00643021F48CE090E06FEF63
:1043B00004C0643028F48CE090E00E94032506C01D
:1043C0008CE090E00E94FB248093EB008A98929A04
:1043D0002091EB002430D0F080E090E0829907C07B
:1043E00092FD09C08F5F863060F021E00AC0829B99
:1043F00009C092FD02C080E004C08F5F863008F0E3
:1044000020E090B3223050F72093EB00CCE2D1E0D3
:104410008091EB008150823038F40E94592181E074
:104420000E942E210E94E71F8091EB00882311F04B
:10443000833071F782B3836082BB88EE93E0FE0124
:104440003197F1F70197D9F782B38C7F82BB0E9435
:10445000592180E00E942E210E94141CD9CF629F16
:10446000D001739FF001829FE00DF11D649FE00D6C
:10447000F11D929FF00D839FF00D749FF00D659FCD
:10448000F00D9927729FB00DE11DF91F639FB00DCC
:10449000E11DF91FBD01CF0111240895991B79E099
:1044A00004C0991F961708F0961B881F7A95C9F7C4
:1044B00080950895AA1BBB1B51E107C0AA1FBB1F13
:1044C000A617B70710F0A61BB70B881F991F5A95A0
:1044D000A9F780959095BC01CD01089597FB092E11
:1044E00007260AD077FD04D0E5DF06D000201AF4B5
:1044F000709561957F4F0895F6F7909581959F4F40
:104500000895A1E21A2EAA1BBB1BFD010DC0AA1F14
:10451000BB1FEE1FFF1FA217B307E407F50720F02C
:10452000A21BB30BE40BF50B661F771F881F991FA7
:104530001A9469F760957095809590959B01AC01F0
:10454000BD01CF01089597FB092E05260ED057FD1A
:1045500004D0D7DF0AD0001C38F450954095309530
:1045600021953F4F4F4F5F4F0895F6F790958095F7
:10457000709561957F4F8F4F9F4F0895FB01DC0130
:1045800002C001900D9241505040D8F7089568172D
:10459000790768F4FB01DC01E40FF51FA40FB51FD8
:1045A00002C002900E9241505040D8F708950C94EA
:1045B000BE22FB019F01E8944230C4F04532B4F4BE
:1045C0004A3029F497FB1EF4909581959F4F642FF4
:1045D00077270E945A22805D8A330CF0895D81938F
:1045E000CB010097A1F716F45DE251931082C90147
:1045F0000C942625AEE0B0E0E0E0F3E20C94CE258A
:104600000D891E8986E08C831A8309838FEF9FE7CB
:104610009E838D839E01275E3F4FCE0101966F8959
:10462000788DA9010E941E232F813885020F131F48
:10463000F80110822E96E4E00C94EA25ABE0B0E09D
:10464000E4E2F3E20C94C0253C012B015A01FC0189
:1046500017821682838181FD03C06FEF7FEFC6C191
:104660009AE0892E1E010894211C311CF30123813C
:10467000F20123FD859123FF81912F01882309F405
:10468000B2C1853239F423FD859123FF81912F0139
:10469000853229F490E0B3010E943625E7CF982FA8
:1046A000FF24EE249924FFE1FF15D0F09B3269F03E
:1046B0009C3228F4903259F0933291F40EC09D321E
:1046C00049F0903369F441E024C052E0F52A84E0D7
:1046D000F82A28C098E0F92A25C0E0E1FE2A22C085
:1046E000F7FC29C0892F80538A3070F4F6FE05C08C
:1046F000989C902C1124980E15C0E89CE02C112455
:10470000E80EF0E2FF2A0EC09E3229F4F6FC6BC1DF
:1047100040E4F42A07C09C3619F450E8F52A02C098
:10472000983649F4F20123FD959123FF91912F01D1
:10473000992309F0B8CF892F8554833018F080521F
:10474000833038F444E050E0A40EB51E5FE3598393
:104750000FC0933631F0933779F0933509F056C096
:1047600020C0F5018081898342E050E0A40EB51E8F
:10477000610101E010E012C0F501C080D180F6FCBB
:1047800003C06FEF7FEF02C0692D70E042E050E0A0
:10479000A40EB51EC6010E941B258C015FE7F52201
:1047A00014C0F501C080D180F6FC03C06FEF7FEF2D
:1047B00002C0692D70E042E050E0A40EB51EC601B3
:1047C0000E9410258C0150E8F52AF3FE07C01AC09C
:1047D00080E290E0B3010E943625EA948E2D90E0AD
:1047E00008171907A8F30EC0F601F7FC8591F7FE2C
:1047F00081916F0190E0B3010E943625E110EA94A7
:10480000015010400115110579F7EAC0943611F0F6
:10481000993669F5F7FE08C0F501208131814281A2
:10482000538184E090E00AC0F501808191819C0170
:10483000442737FD4095542F82E090E0A80EB91E22
:104840009FE6F92257FF09C0509540953095219574
:104850003F4F4F4F5F4FE0E8FE2ACA01B901A10167
:104860002AE030E00E946225D82ED21840C0953749
:1048700029F41F2D1F7E2AE030E01DC01F2D197F57
:104880009F3661F0903720F4983509F0ACC00FC026
:10489000903739F0983709F0A6C004C028E030E01E
:1048A0000AC0106114FD146020E130E004C014FD62
:1048B000166020E132E017FF08C0F50160817181C8
:1048C0008281938144E050E008C0F50180819181AC
:1048D000BC0180E090E042E050E0A40EB51EA101D2
:1048E0000E946225D82ED2188FE7F82EF122F6FE0C
:1048F0000BC05EEFF522D91438F4F4FE07C0F2FCC9
:1049000005C08FEEF82202C01D2D01C0192DF4FE46
:104910000DC0FE01ED0DF11D8081803319F499EE7B
:10492000F92208C01F5FF2FE05C003C08F2D8678F4
:1049300009F01F5F0F2DF3FC14C0F0FE0FC01E1511
:1049400010F09D2C0BC09D2C9E0C911A1E2D06C0A4
:1049500080E290E0B3010E9436251F5F1E15C0F370
:1049600004C01E1510F4E11A01C0EE2404FF0FC0AC
:1049700080E390E0B3010E94362502FF1DC001FDD7
:1049800003C088E790E00EC088E590E00BC0802F60
:10499000867891F001FF02C08BE201C080E2F7FC53
:1049A0008DE290E0B3010E94362506C080E390E0DE
:1049B000B3010E9436259A94D914C0F3DA94F10118
:1049C000ED0DF11D808190E0B3010E943625DD20C0
:1049D000A9F706C080E290E0B3010E943625EA9470
:1049E000EE20C1F743CEF30166817781CB012B9690
:1049F000E2E10C94DC25E199FECF9FBB8EBBE09AEF
:104A000099278DB30895262FE199FECF9FBB8EBBCA
:104A10002DBB0FB6F894E29AE19A0FBE0196089565
:104A2000FC010590615070400110D8F78095909579
:104A30008E0F9F1F0895FC0161507040019001107E
:104A4000D8F7809590958E0F9F1F0895DC01FC018B
:104A5000672F71917723E1F7329704C07C916D93B2
:104A600070836291AE17BF07C8F308950F931F9329
:104A7000CF93DF938C01EB018B8181FF1BC082FF01
:104A80000DC02E813F818C819D812817390764F4E8
:104A9000E881F9810193F983E88306C0E885F98507
:104AA000802F0995892B31F48E819F8101969F83F8
:104AB0008E8302C00FEF1FEFC801DF91CF911F91CE
:104AC0000F910895FA01AA27283051F1203181F180
:104AD000E8946F936E7F6E5F7F4F8F4F9F4FAF4F06
:104AE000B1E03ED0B4E03CD0670F781F891F9A1F19
:104AF000A11D680F791F8A1F911DA11D6A0F711DCD
:104B0000811D911DA11D20D009F468943F912AE0D8
:104B1000269F11243019305D3193DEF6CF010895C0
:104B2000462F4770405D4193B3E00FD0C9F7F6CFF1
:104B3000462F4F70405D4A3318F0495D31FD4052B9
:104B4000419302D0A9F7EACFB4E0A695979587954F
:104B500077956795BA95C9F700976105710508952E
:104B60009B01AC010A2E06945795479537952795DA
:104B7000BA95C9F7620F731F841F951FA01D089572
:104B80002F923F924F925F926F927F928F929F925D
:104B9000AF92BF92CF92DF92EF92FF920F931F934B
:104BA000CF93DF93CDB7DEB7CA1BDB0B0FB6F894FC
:104BB000DEBF0FBECDBF09942A88398848885F843C
:104BC0006E847D848C849B84AA84B984C884DF80AD
:104BD000EE80FD800C811B81AA81B981CE0FD11D91
:104BE0000FB6F894DEBF0FBECDBFED010895F89467
:024BF000FFCFF5
:104BF2005AFFFEFEF8F86C6C68686D6D69696B6B44
:104C020067678E8D8E8D8E8D8E8D8E8D8E8D8E8D17
:104C12008E8DFF00080701FF2563002564002C200C
:104C22000020286C617965723D00206465666175BB
:104C32006C743D00206D617070696E673D002900E3
:104C4200271E1F2021222324252629881301000242
:104C52000004000800100020004000800000010055
:104C6200020004000800100020004000800A050233
:0C4C720005000000012D002C003D00FF9B
:10500000480000006B00673E142B04291D00351E6C
:105010001A3916001B003A1F083C073D06003B20CA
:105020001517090A19052221181C0D0B101123242C
:105030000C300E3F36002E2512400F0037FE412661
:10504000132F333432382D2747000069646D004632
:10505000002A314428454243C9535F2C5C514C001F
:10506000CA54605D5A4F4900CB55615E5B004B4EA0
:10507000CC56575258504A4D62686C596300000034
:10508000006A6E0000000000530000006B00673EE5
:10509000142B04291D00351E1AFD16001B003A1F93
:1050A000083C073D06003B201517090A1905222177
:1050B0005C1C590B6211235F5D305A3F6200FA603D
:1050C0005E405B0063FE4161552F56343257F95400
:1050D00047000069646D0046002A31445845424348
:1050E000C9535FFC5C514C00CA54605D5A4F490083
:1050F000CB55615E5B004B4ECC56575258504A4DD3
:1051000062686C5963000000006A6E0000000000D5
:10511000480000006B00673E142B04291D00351E5B
:105120001A3916001B003A1F083C073D06003B20B9
:105130001517090A19052221181C0D0B101123241B
:105140000C300E3F36002E2512400F0037FE412650
:10515000132F333432382D2747000069646D004621
:10516000002A314428454243C9535F2C5C514C000E
:10517000CA54605D5A4F4900CB55615E5B004B4E8F
:10518000CC56575258504A4D62686C596300000023
:08519000006A6E00000000003F
:00000001FF
