:100000000C942A030C9462030C9447030C9447034A
:100010000C94B0070C94BC060C9483070C9429072D
:100020000C9456070C948F060C94FC060C943C061A
:100030000C9447030C9447030C9447030C94470318
:100040000C9447030C9447030C9447030C94470308
:100050000C94470332171E174E1722172417261722
:100060002A174C172E1730172C173A175417341716
:1000700058175C1765175E175E175E175E175E17D9
:100080005E175E175E175E174A1748175617381720
:100090005A17601720175E175E175E175E175E17F8
:1000A0005E175E175E175E175E175E175E175E17A8
:1000B0005E175E175E175E175E175E175E175E1798
:1000C0005E175E175E175E175E173C1744174017E2
:1000D0002817361750175E175E175E175E175E17E4
:1000E0005E175E175E175E175E175E175E175E1768
:1000F0005E175E175E175E175E175E175E175E1758
:100100005E175E175E175E175E173E17461742179B
:100110005217000001000800400000010004000028
:1001200001000800200040008000000100040403DA
:1001300009041C03770069006E006B0065007900FC
:100140006C006500730073002E006B0072001003DA
:1001500070007300320061007600720055001201D9
:10016000100100000008424231E1000101020001DB
:100170000902220001010080FA09040000010301C4
:100180000100092101010001225500070581030832
:10019000000A0000FC001C322123242B3433433B93
:1001A000424B3A31444D152D1B2C3C2A1D22351A49
:1001B000161E26252E363D3E46455A76660D294E9C
:1001C00055545B5D5D4C520E41494A580506040C7E
:1001D000030B830A010978077C7E7C706C7D716952
:1001E0007A746B7275774A7C7B795A69727A6B7311
:1001F000746C757D7071612F001412111F145911E8
:10020000270000373F5E48103A38302820184D1537
:100210003B34233221502B404B1C43221D0000F164
:10022000F2370F08101820283038404850575F6DBB
:100230000051136A64672700000063625F000000DA
:1002400000000000000000008A01210223022402B5
:100250002502260227022A02B500B600B700CD000B
:10026000E200E900EA00830192019401000000002D
:100270000000000000009100900066006700680028
:1002800069006A006B006C006D006E006F0070000A
:100290007100720073008500860087008800890065
:1002A0008A008B008C008D008E008F0092009300DE
:1002B00094009500960097009800464800488E8D5F
:1002C000007172738F006A6B6E6D6546494A4B4CC4
:1002D0004D4E52504F5154587172737475767778F1
:1002E000797A7B7C7D7E7F80818283848586878806
:1002F000898A8F00494C4A4D4B4E6A6E65504F5269
:1003000051540073656C656374206D6F64650031D2
:100310003A4B6579204D617070696E6700323A4DD5
:100320006163726F00333A4578697400343A626FE2
:100330006F74206D617070657200676F6F6420620A
:1003400079657E00626F6F74206D617070657220D8
:10035000737461727421004D6163726F00313A539E
:10036000656C656374204D6163726F20496E6465CE
:100370007800323A4578697400393A436C656172A5
:1003800020416C6C00363A4261636B004B6579200A
:100390004D617070657200313A4368616E67652027
:1003A0004C6179657200323A53656C656374204B19
:1003B0006579202D20696E707574206B6579636F87
:1003C000646500333A5361766520616E6420457838
:1003D000697400343A4578697420776974686F7578
:1003E0007420536176696E6700393A52657365749B
:1003F00020746F2044656661756C742028437572A3
:1004000072656E74204C6179657229007073326177
:100410007672550063686F6F7365206C61796572E1
:100420002028313A206E6F726D616C2C20323A2098
:10043000464E2C20333A20464E3229206375727284
:10044000656E743D200073656C656374206B65791F
:100450002028616E79206B657920796F752077612E
:100460006E74292000696E707574206B6579636FF6
:10047000646520286D7573742033206E756D626518
:10048000727329203A200053617665202620457832
:1004900069742C207468616E6B20796F752E00452D
:1004A00078697420776974686F7574205361766910
:1004B0006E672C2073656520796F75206C6174659B
:1004C000722E00526573657420746F2064656661D6
:1004D000756C742063757272656E74206C617965D9
:1004E0007200496E70757420436F6D6D616E64208B
:1004F0004E756D6265723A20006E6F7468696E6742
:1005000000536176652063757272656E74206C614C
:10051000796572004C6F61642063757272656E74E8
:10052000206C6179657200736176696E672E2E2E7C
:1005300000636F6C2C20726F77203A2000696E7612
:10054000616C6964206B6579636F64652C20696EEA
:1005500070757420616761696E2E00696E707574C4
:10056000204D6163726F20496E64657820283031B8
:100570007E31322C206D7573742032206E756D6261
:1005800065727329203A200045786974206D616393
:10059000726F2C2073656520796F75206C617465AE
:1005A000722E00696E707574206B657920286D61FC
:1005B00078203234206B6579732C2073746F70202F
:1005C0003A207072657373204553432064757269D5
:1005D0006E672031207365632900696E76616C69EE
:1005E0006420496E6465782C20696E707574206192
:1005F0006761696E2E00636C6561722E2E2E000598
:10060000010906A1018501050719E029E715002563
:1006100001750195088102950575010508190129E3
:10062000059102950175039103950675081500263D
:1006300091000507190029A48100C0050C0901A13A
:1006400001850219002A3C021500263C029501751D
:10065000108100C011241FBECFE5D8E0DEBFCDBFA2
:1006600010E0A0E6B0E0E0E3FDE402C005900D92EA
:10067000AE3EB107D9F715E0AEEEB0E001C01D9275
:10068000AF38B107E1F70E9409220C9496260C942A
:100690000000A82FB92F80E090E041E050EA60957B
:1006A00030E009C02D9182279795879510F0842717
:1006B0009527305EC8F36F5FA8F30895EADF8D9346
:1006C0009D930895CF93CFB7CF93C395839BE9F7BD
:1006D000839B09C0839B07C0839B05C0839B03C08A
:1006E000839B01C0A3C0DF93C091CA03DD27CF5213
:1006F000DC4F839B02C0DF91EBCF2F930F931F93AF
:1007000000B32FEF03FB20F94F933F9310B34FEF4C
:10071000012703FB21F93BE031C04E7F012F10B3CD
:10072000216028C0102F4D7F2260000000B329C037
:100730004B7F2460012F000010B32BC010B3477F04
:1007400028602AC04F7E00B320612CC04F7D10B3BB
:1007500020622FC04F7B00B3206432C0422700B319
:1007600049934FEF0000102713FB20F910B31C70C2
:10077000C9F1297F91F2012703FB21F900B3237FFF
:1007800089F2315058F1102713FB22F910B3277E5C
:1007900079F2012703FB23F92F7C81F200B31027A4
:1007A00013FB24F92F7971F200C010B3012703FB6A
:1007B00025F92F7359F200C000B3102713FB26F957
:1007C000223040F200C010B3012703FB27F9243088
:1007D00028F64F77206810B30000F9CF10E41ABF55
:1007E000002719C03B503195C31BD04010E41ABFFD
:1007F0000881033CF9F00B34E9F02091C80319811A
:10080000110F1213EDCF4A81441F093641F10D3209
:1008100011F0013E29F70093CF033F914F911F91B3
:100820000F912F91DF91CAB7C6FD4FCFCF91CFBFA8
:10083000CF9118952091CF03222379F31091CD0306
:10084000112369F534306AF13093CD032093C90345
:100850001091CA033BE0311B3093CA0322C00091C0
:10086000CD030130E4F40AE54F7049F430916000A3
:1008700034FD19C000936000C1EBD3E018C0309183
:10088000BC0334FD10C00093BC03CDEBD3E00FC01C
:100890002795A8F45150A9F4220F0000F9CF4AE59A
:1008A00003C042ED01C0432FC4E1D0E032E011B3F8
:1008B0001C60939A11BB02B320E41CE05F930127F4
:1008C00056E002BB279520F4515021F4220FF9CFB6
:1008D000012756E000003B5A02BBD0F2279528F4CE
:1008E000515029F4220F0000F9CF012756E0279537
:1008F00002BB20F4515021F4220FF9CF012756E01A
:100900002991332302BB21F6037F1091CE03110FEF
:10091000C651D04002BB11F01093C80310E41ABFB7
:10092000086011B3137F402F437F5F9100C000C068
:1009300002BB11BB42BB71CF089583B7887F826031
:1009400083BF12BE89B7816089BF1092A303109242
:10095000A4031092A5031092A60308958EB5887F74
:1009600083608EBD1DBC1CBC89B7846089BF08959F
:1009700085B5887F846085BD14BC89B7806489BFD4
:100980001092AB031092AC031092AD031092AE0321
:10099000089580E090E0FC01EE0FFF1FE251FF4F51
:1009A00011821082019688309105A9F70E949D045A
:1009B0000E94AE040E94B8047894089593B7987F7B
:1009C000982B93BF08959EB5987F982B9EBD089550
:1009D00095B5987F982B95BD089583B7E82FF0E0E3
:1009E000E770F070EE0FFF1FEE5EFE4F2591349121
:1009F000C90108958EB5E82FF0E0E770F070EE0FB2
:100A0000FF1FEE5EFE4F25913491C901089585B513
:100A1000E82FF0E0E770F070EE0FFF1FE25EFE4F90
:100A200025913491C9010895883040F4E82FF0E011
:100A3000EE0FFF1FE251FF4F7183608308958830EE
:100A400040F4E82FF0E0EE0FFF1FE251FF4F11825C
:100A500010820895EF92FF920F931F93CF93DF932D
:100A6000EC0112B71092A7031092A8031092A903E9
:100A70001092AA0383B7E82FF0E0E770F070EE0F52
:100A8000FF1FEE5EFE4F2591349140E050E060E0A4
:100A90007BE187EB90E00E942023B901CA01693B0A
:100AA0002DE8720726E0820720E09207A0F437E2E3
:100AB000C131D30780F49E0140E050E00E94CE2275
:100AC00028EE33E040E050E00E942023C901DA0123
:100AD000BC01CD0121C028EE33E040E050E00E948F
:100AE0002023CA01B9019E0140E050E00E94CE22BD
:100AF00013C08091A7039091A803A091A903B0917E
:100B0000AA0385B78F7885BF85B7806885BF88952C
:100B100085B78F7785BF08C09B01AC01210F311DC0
:100B2000411D511D79018A012091A7033091A8032D
:100B30004091A9035091AA0382B790E0A0E0B0E0F1
:100B4000542F432F322F2227822B932BA42BB52BEC
:100B50008E159F05A007B10760F2DF91CF911F911D
:100B60000F91FF90EF9008951092A3031092A403A9
:100B70001092A5031092A60308952091A30330912B
:100B8000A4034091A5035091A603B901CA01089599
:100B90001092AB031092AC031092AD031092AE030F
:100BA00008952091AB033091AC034091AD03509177
:100BB000AE03B901CA010895893031F48FB582605E
:100BC0008FBD8FB58E7F0AC08A3019F48FB58260D1
:100BD00002C08FB58D7F8FBD8FB581608FBD1BBC6F
:100BE0001ABC19BC18BC08952FB52E7F2FBD2FB588
:100BF00022602FBD2EB528602EBD2EB520612EBDE2
:100C000097BD86BD1BBC1ABC19BC18BC08958FB516
:100C10008D7F8FBD8FB58E7F8FBD8FB58F778FBD49
:100C20008FB58F7B8FBD8FB58F7D8FBD8FB58F7E3D
:100C30008FBD08958FB580688FBD8FB58F7B8FBDB9
:100C400008958FB580628FBD8FB58F7E8FBD08955B
:100C50008FB58F778FBD8FB58F7B8FBD08958FB583
:100C60008F7D8FBD8FB58F7E8FBD08959BBD8ABD53
:100C7000089599BD88BD08951F920F920FB60F92E7
:100C800011242F933F934F935F936F937F938F9391
:100C90009F93AF93BF93EF93FF938091A3039091A2
:100CA000A403A091A503B091A6030196A11DB11DB7
:100CB0008093A3039093A403A093A503B093A603EA
:100CC0008091A7039091A803A091A903B091AA03D2
:100CD0000196A11DB11D8093A7039093A803A09333
:100CE000A903B093AA038091EE009091EF00892BA5
:100CF00029F0E091EE00F091EF000995FF91EF915E
:100D0000BF91AF919F918F917F916F915F914F9123
:100D10003F912F910F900FBE0F901F9018951F922B
:100D20000F920FB60F9211242F933F934F935F931F
:100D30006F937F938F939F93AF93BF93EF93FF93A3
:100D40008091F0009091F100892B29F0E091F00062
:100D5000F091F1000995FF91EF91BF91AF919F91B3
:100D60008F917F916F915F914F913F912F910F9054
:100D70000FBE0F901F9018951F920F920FB60F92F3
:100D800011242F933F934F935F936F937F938F9390
:100D90009F93AF93BF93EF93FF938091AB03909199
:100DA000AC03A091AD03B091AE030196A11DB11D9E
:100DB0008093AB039093AC03A093AD03B093AE03C9
:100DC0008091F8009091F900892B29F0E091F800CA
:100DD000F091F9000995FF91EF91BF91AF919F912B
:100DE0008F917F916F915F914F913F912F910F90D4
:100DF0000FBE0F901F9018951F920F920FB60F9273
:100E000011242F933F934F935F936F937F938F930F
:100E10009F93AF93BF93EF93FF938091FC009091CA
:100E2000FD00892B29F0E091FC00F091FD0009956F
:100E3000FF91EF91BF91AF919F918F917F916F91B2
:100E40005F914F913F912F910F900FBE0F901F9088
:100E500018951F920F920FB60F9211242F933F9364
:100E60004F935F936F937F938F939F93AF93BF93B2
:100E7000EF93FF938091F2009091F300892B29F07A
:100E8000E091F200F091F3000995FF91EF91BF918D
:100E9000AF919F918F917F916F915F914F913F9112
:100EA0002F910F900FBE0F901F9018951F920F92C9
:100EB0000FB60F9211242F933F934F935F936F932D
:100EC0007F938F939F93AF93BF93EF93FF93809103
:100ED000F4009091F500892B29F0E091F400F09155
:100EE000F5000995FF91EF91BF91AF919F918F917F
:100EF0007F916F915F914F913F912F910F900FBE16
:100F00000F901F9018951F920F920FB60F921124F9
:100F10002F933F934F935F936F937F938F939F9301
:100F2000AF93BF93EF93FF938091F6009091F700FA
:100F3000892B29F0E091F600F091F7000995FF91D7
:100F4000EF91BF91AF919F918F917F916F915F9141
:100F50004F913F912F910F900FBE0F901F901895BA
:100F60001F920F920FB60F9211242F933F934F931E
:100F70005F936F937F938F939F93AF93BF93EF9301
:100F8000FF938091FA009091FB00892B29F0E0916A
:100F9000FA00F091FB000995FF91EF91BF91AF919D
:100FA0009F918F917F916F915F914F913F912F9181
:100FB0000F900FBE0F901F9018958093FF00F8942C
:100FC0008091B0038F7E8093B0038091B0038860DE
:100FD0008093B00378940895F8948091B0038B7F48
:100FE0008093B00378948091FE0008958FEC84BDC7
:100FF0008091AF03833000F58B98939A8091B00372
:1010000080FF23C0829BA3C08091AF03813031F069
:10101000813040F0823009F0F6C006C0839902C0EA
:101020008DE096C082E094C08091B00383FFEBC056
:1010300093988B9A84E28CC08091AF038A3108F038
:1010400079C08091B00380FD08C08091B0038160B9
:101050008093B0038A98929A0895829B76C080917B
:10106000AF03873140F4803118F58D3061F08F3057
:1010700009F055C00CC08831E1F1883158F189314F
:1010800009F04DC049C08091B0038D7F4DC0809163
:10109000B0038B7F8093B003839B05C080E880936F
:1010A000FE0081E014C0109201011092FE0037C0D2
:1010B0008091FE0086958093FE00839B30C08091D6
:1010C000FE0080688093FE00809101018F5F809315
:1010D000010125C0839B05C0809101018F5F809332
:1010E00001018091010180FD1AC08091B0038260EE
:1010F00010C0839905C08091B00382608093B003D3
:101100008091B00381FD0BC093988B9A8091B003BE
:1011100084608093B00303C08B98939A6CC09298BC
:101120008A9A8091B0038E7F8093B0038091AF0341
:101130008F5F0EC08091AF038F3208F064C0809142
:10114000B00380FF10C0829906C08B98939A81E00B
:101150008093AF0308958091B0038E7F8093B00396
:1011600092988A9A08958091B00381608093B00329
:101170008A98929A8091AF038C3228F4853280F459
:101180008432E1F507C08D3299F18D32E8F08E326C
:10119000A9F531C08091FF008093000110920101F8
:1011A0008091000180FF08C08B98939A8091010183
:1011B0008F5F8093010102C093988B9A8091000108
:1011C0008695809300011AC08091010180FF03C0C1
:1011D00093988B9A02C08B98939A8091B003877FE3
:1011E0008093B0038091B00380618093B00306C008
:1011F0008B98939A03C01092AF0308958091AF0328
:101200008F5F8093AF0308951092AF0381E18093C5
:10121000B0038A98929A8B98939A0E94B80482E0BD
:101220000E94E80485E066EF77E00E9414058FECE9
:1012300084BD089585B7826085BF8BB780648BBFFE
:101240008BE48093BD038AE58093BC0308951F93CC
:10125000CF93DF930E94360B6091CD03635067FDFF
:10126000CEC08091CA03CCE0D0E0C81BD109CF52D8
:10127000DC4F8091C9038D3209F0AEC0683009F0AF
:10128000BCC083EC8093B1038AE580936000109228
:1012900002018881807641F0CE010E942621282F0C
:1012A0008F3F09F488C08EC09A811092BA03898159
:1012B000882321F41092BB0322E076C0853019F414
:1012C0009093CE0370C0863009F059C08B81813075
:1012D00069F489B78B7F89BF0E94360B8EE591E058
:1012E0009093CC038093CB0322E145C0823041F43C
:1012F00080E791E09093CC038093CB0322E23BC044
:101300008330F9F48A81882341F48EE291E090934E
:10131000CC038093CB0324E02EC0813041F482E3E0
:1013200091E09093CC038093CB032CE124C08230D6
:1013300009F58EE491E09093CC038093CB0320E1F8
:101340001AC0813241F482E891E09093CC038093FB
:10135000CB0329E010C0823269F48FEF95E09093BF
:10136000CC038093CB0389B7846089BF0E943A0B7A
:1013700025E501C020E080E48093020123C088308D
:1013800021F421E080ED93E011C0893019F49093AD
:10139000D00309C08A3011F421E006C08B3019F463
:1013A0008BE48093BD0320E08AEB93E09093CC0321
:1013B0008093CB0307C0888187FD2E8180E88093CE
:1013C000020106C08F81882319F48E81821708F0EC
:1013D000822F8093610011C08091020187FF0DC0B0
:1013E000CE010E9468218F3F21F48EE1809360003E
:1013F00004C0882311F0109261001092CD038091F7
:10140000600084FF46C0809161008F3F09F441C0B5
:10141000182F893008F018E0811B809361008091BB
:10142000B10398E889278093B103112321F120911A
:10143000CB033091CC038091020186FF0AC0912F2B
:10144000F901A2EBB3E084918D9331969150D9F7D5
:1014500008C0912FD901E2EBF3E08D918193915077
:10146000E1F7C90101961150810F911D1F5F909303
:10147000CC038093CB0382EB93E0612F0E945E0349
:10148000612F6C5F6C3019F08FEF80936100609377
:10149000600094E180B38C7031F49150D9F71092D0
:1014A000CE031092C8030E943A0BDF91CF911F9197
:1014B00008951F93CF93DF93EC01162F0E94360BF4
:1014C0008091BC0384FF07C08091BD0398E8892701
:1014D0008093BD0303C08AE58093BC03912FEEEB9C
:1014E000F3E08991819391501916DCF38EEB93E030
:1014F000612F0E945E031C5F1093BC030E943A0B95
:10150000DF91CF911F910895809106010895E82FF2
:10151000865D803140F480910601882321F0F0E05F
:10152000E457F040E0818E2F089591E1899FC0013A
:101530001124860F911D23E0880F991F2A95E1F74A
:10154000840F911DE0918200F0918300E80FF91F54
:10155000E4918E2F08951F93982F865D6623D9F00E
:10156000803188F4809104018F5F80930401809121
:101570000501882361F49093030181E080930501C4
:101580001092060139C0809103018823A9F181E0FE
:101590008093060131C0803178F58091040181503B
:1015A00080930401E0910301EE2301F18091060193
:1015B0008823E1F4F0E0E456F0401081812F0E948E
:1015C0008716812F0E948716109203010E94580FE0
:1015D000882361F0812F60E040E021E00E940C123E
:1015E000812F60E040E020E00E940C128091040115
:1015F000882311F4109205011F9108959C01E09138
:101600000301EE2349F180910601882329F18E2FF1
:10161000865D803120F4F0E0E457F040E0818E2FC9
:10162000F90109950E94580F8823A1F0E091030168
:101630008E2F865D803140F480910601882321F051
:10164000F0E0E457F040E0818E2F60E040E021E0E0
:101650000E940C1210920301089580931F010895B7
:1016600080911F0108951092090108958EB5887F19
:101670008EBD08958091070190910801892B19F082
:101680008EB584608EBD0895949A809107019091E3
:1016900008019BBD8ABD0895949808959093080110
:1016A000809307018091070190910801892B51F4E3
:1016B0008091880090918900892B21F094988EB5B3
:1016C000887F14C08091070190910801892B79F0DF
:1016D0008091880090918900892B49F480910701BD
:1016E00090910801892B19F08EB584608EBD809190
:1016F00007019091080190938900809388000895D4
:1017000090911301992319F480E090E010C091307A
:1017100049F4109218011092170110921A011092B8
:1017200019010895923031F48091870090E00E9471
:101730004E0B0895892F83508230A0F483E080936C
:101740001B01943019F481E080931B0180911B01EF
:101750009FEF899FC00111246CE070E00E940D236F
:1017600060931C0108958091130190E0019665E05B
:1017700070E00E940D238093130181E090E090932C
:101780001201809311010E94800B089580918700BF
:101790008E31A1F08951809387008E3118F48EE14B
:1017A0008093870080911301823011F40E94800B96
:1017B00081E090E09093120180931101089580914F
:1017C00087008F3FA9F090E049968F3F910511F077
:1017D0000CF08FEF8093870080911301823011F419
:1017E0000E94800B81E090E09093120180931101A0
:1017F000089580911F0190E080FF02C0909A01C07F
:101800009098AC014270507081FF02C0919A01C063
:1018100091982091200182FF04C0969A2223C9F456
:1018200004C096982130A9F409C081E0809320017A
:10183000452B11F485E007C084E005C0109220011B
:10184000452B21F483E080930E01089582E080937C
:101850000E010895809113018330C1F484EF91E06B
:1018600090931E0180931D0180911B018C3038F5EF
:101870008F5F80931B019FEF899FC00111246CE053
:1018800070E00E940D2360931C0108958430B9F428
:1018900084EF91E090931E0180931D0180911B01C4
:1018A000882369F0815080931B019FEF899FC001BD
:1018B00011246CE070E00E940D2360931C010895D8
:1018C0002091870030E0AC01429FC001439F900D02
:1018D000529F900D11246FEF70E00E940D23CB01F9
:1018E0000895CF93DF9380911301813009F057C0A1
:1018F000C0911901D0911A01209761F480911701CC
:101900009091180168E070E00E940D23CB010E94C5
:10191000600C13C0C230D105A1F4809117019091E1
:10192000180168E070E00E940D23CB01909581952D
:101930009F4F81509F4F0E94600C90E00E944E0B81
:101940000FC0C130D10519F0C330D10549F48091E1
:101950001701909118010196909318018093170137
:101960008091170190911801885F974074F0109250
:10197000180110921701CE01019664E070E00E94F8
:101980000D2390931A018093190180911701909172
:1019900018010196909318018093170187C0833036
:1019A000D1F580911D0190911E01009731F00197B2
:1019B00090931E0180931D0128C020911C012223B9
:1019C000F1F0809117019091180101969093180100
:1019D000809317010897CCF010921801109217010C
:1019E000215020931C018FEF90E0821B91096BEE38
:1019F0007FEF0E940D23645F60931B0106C010926D
:101A00001B01109218011092170180911C0190E0A7
:101A10000E94600C3DC0843009F03EC080911D01E1
:101A200090911E01009731F0019790931E018093D1
:101A30001D0129C020911C012F3FF1F08091170159
:101A400090911801019690931801809317010897BF
:101A5000D4F010921801109217012F5F20931C01EF
:101A60008FEF90E0821B91096BEE7FEF0E940D23B8
:101A7000645F60931B0107C08CE080931B01109290
:101A800018011092170180911C0190E00E94600CD7
:101A900090E00E944E0B0AC010921801109217019C
:101AA00083E090E090931A0180931901DF91CF9128
:101AB00008950E94710C089590989198969880913D
:101AC0001301823011F0843029F410921801109221
:101AD000170108C0882311F0833021F481E080933E
:101AE000160108951092160108950E94F90B0E94A4
:101AF000800B0895CF93DF9380911601813029F1F7
:101B0000C0911701D0911801CE0168E070E00E94E9
:101B10000D23CB01909581959F4F81509F4F0E943F
:101B2000600C90E00E944E0B87E0C83FD80744F05D
:101B300080E090E00E944E0B949881E08093160123
:101B40002196D0931801C0931701DF91CF9108958A
:101B50001F93182F80910901882309F4B3C00E94B4
:101B6000D20E882319F00E947A0DACC00E947F210A
:101B7000882311F042E004C0113009F045C041E073
:101B800080910A0190910B01019690930B01809333
:101B90000A01209184003091850028173907DCF56F
:101BA00080910C0190910D01019690930D0180930D
:101BB0000C01893C91057CF180911F019091860078
:101BC00080FF09C0913021F482B34095482307C0BB
:101BD00082B3482B09C0913021F482B3482B42BB19
:101BE00008C082B34095482342BB10920B0110926B
:101BF0000A018091860091E08927809386001092E7
:101C00000D0110920C0107C010920D0110920C01F1
:101C100081E08093860020910E01222311F18091B2
:101C20000F019091100101969093100180930F0184
:101C300085369105D4F0253059F0233049F0243011
:101C400011F0223011F4919804C080911F0181FDA0
:101C5000919A1092100110920F01215020930E01C1
:101C600004C01092100110920F0180911101909107
:101C700012011816190624F501969093120180930B
:101C80001101885E9340E1F410921201109211014B
:101C90006091130180911401681731F06093140171
:101CA0008BE090E00E94A225609187008091150151
:101CB000861731F06093150189E090E00E94A2251B
:101CC0000E94710C1F91089580910901882309F0E9
:101CD00068C081E08093090182E06CE47BE00E94AF
:101CE000140583E064E47BE00E9414058FB58E7FC9
:101CF0008FBD8FB58D7F8FBD8EB588608EBD8EB543
:101D000080618EBD8FEF90E097BD86BD1BBC1ABC75
:101D100086B597B599BD88BD8FB58F778FBD8FB5C7
:101D20008F7B8FBD8FB58F7D8FBD8FB58F7E8FBD24
:101D30001DBC1CBC89B7806189BF89B7886089BF19
:101D40008091070190910801892B19F08EB584606C
:101D50008EBD89E090E00E949A2580938700809351
:101D600015018BE090E00E949A25809313018F3F2C
:101D700011F41092130180911301809314010E94B9
:101D8000800B8091ED00882311F0833051F4809115
:101D90008400909185009595879590938500809318
:101DA0008400089580912101089580912101882364
:101DB00029F481E0809321010E945C0D08958091B7
:101DC0002101882311F58091220190912301A09196
:101DD0002401B09125010196A11DB11D809322011E
:101DE00090932301A0932401B0932501805E934931
:101DF000A440B04054F0109222011092230110929E
:101E00002401109225010E94D50E08958091210190
:101E1000882321F0109221010E94750D1092220159
:101E200010922301109224011092250108958091AF
:101E30002C01816080932C01089580912C01817088
:101E4000089580912C0182700895982F80912C0123
:101E500080FD1AC09730A1F410922F0110922E012C
:101E600081E080932D018091ED00882311F0833073
:101E700059F484EC99E09093BE008093BD000895DE
:101E800010922C0110922D01089580913001089537
:101E900081E080933001089510922C01109234015A
:101EA000089590E0895C8C3008F491E0892F0895C2
:101EB00090E0809132018B3009F491E0892F0895F0
:101EC00088E20E94871688E20E948716089580E3C0
:101ED000E8E8F4E0DF01982F1D929A95E9F7109257
:101EE000B804E8EEF3E0DF011D928A95E9F710925D
:101EF0002B0108950F931F93FC0180810E94F2161D
:101F00008C01882319F088E60E948716812F0E9491
:101F10008716812F0E948716002319F088E60E94F9
:101F200087161F910F910895CF92DF92EF92FF9243
:101F30000F931F93DF93CF930F92CDB7DEB78C0132
:101F4000009711F52FC000D000D000D0EDB7FEB73C
:101F50003196ADB7BEB71296FC92EE921197D3822E
:101F6000C282992787FD9095958384830E94992347
:101F70008DB79EB706960FB6F8949EBF0FBE8DBF65
:101F8000C7010E947A0F08C07E010894E11CF11C71
:101F90008AE8C82E80E0D82EF8010F5F1F4F849189
:101FA000882389F60F90CF91DF911F910F91FF90B9
:101FB000EF90DF90CF90089583EC94E00E94940F0F
:101FC0000E94600F28E034E080E090E00BC01192A6
:101FD000E217F307E1F701969F01285F3F4F813138
:101FE000910549F0FC0143E0EE0FFF1F4A95E1F730
:101FF000E050FC4FECCF81E090E090933C01809367
:102000003B01089586EF95E00E94940F0E94600FB7
:1020100081E080932A018CE0809334011092320198
:10202000089580913B0190913C01892B29F41092F5
:102030002C0110923401089587E295E00E94940FDC
:102040000E94600F81E080932A018BE0809334012D
:1020500080913201809333011092320108958CE017
:1020600094E00E94940F0E94600F08950E94600FF8
:1020700087E593E00E94940F0E94600F8DE593E046
:102080000E94940F0E94600F82E793E00E94940FD9
:102090000E94600F85E893E00E94940F0E94600FF9
:1020A00089E793E00E94940F0E94600F87E080937D
:1020B00032010895AF92BF92CF92DF92FF920F93B9
:1020C0001F93DF93CF930F92CDB7DEB78C01FF2420
:1020D0006E010894C11CD11C5AE8A52E50E0B52E03
:1020E00025C000D000D000D0EDB7FEB73196ADB717
:1020F000BEB71296DC92CE921197B382A282800F65
:10210000911FDC018C91992787FD9095958384839D
:102110000E9499238DB79EB706960FB6F8949EBF7E
:102120000FBE8DBFC6010E947A0FF3948F2D90E0F1
:10213000F80101900020E9F73197E01BF10B8E17B1
:102140009F0778F20F90CF91DF911F910F91FF9031
:10215000DF90CF90BF90AF90089581E080932A01E7
:1021600080913201893088F48730E8F5833079F145
:10217000843030F48130E1F0823009F05CC024C05A
:10218000853059F1863060F525C08B30B9F18C303F
:1021900030F4893069F18A3009F04DC02CC08E3698
:1021A00009F447C0883789F1843609F044C038C043
:1021B00084E194E00E94940F80913D018F5F0E9422
:1021C00067170E945A101EC086E494E019C085E685
:1021D00094E00BC087E894E025C08FE994E022C02A
:1021E00010922A0128C082EE94E00E94940F23C02E
:1021F0008BE595E0FACF88E895E014C083EA95E096
:102200000E94940F0E94600F16C084E493E00E9425
:10221000940F0E94600F109232010E947B210BC02C
:102220008AE393E00E94940F0E94600F10923201A3
:1022300002C00E94451188EE93E02CE231E0F901E2
:102240003197F1F70197D9F708950E94600F83EC59
:1022500093E00E94940F0E94600F83ED93E00E9430
:10226000940F0E94600F85E893E00E94940F0E94F3
:10227000600F89EE93E00E94940F0E94600F87E048
:10228000809332010E94AD1008950E94600F83E098
:1022900093E00E94940F0E94600F8FE093E00E94F1
:1022A000940F0E94600F8DE193E00E94940F0E94B2
:1022B000600F85E293E00E94940F0E94600F8CE211
:1022C00093E00E94940F0E94600F88E08093320197
:1022D0000E94AD100895CF93DF93C5EAD1E0CE01FF
:1022E00060E00E94A225219683E0C53ED807B9F799
:1022F00087E0809332010E94AD10DF91CF91089565
:102300001F93CF93DF938091E7038C30C8F4C0E034
:10231000D0E010E38091E703819FC00111248B5529
:102320009E4FFE01E857FB4F8C0F9D1F60810E945E
:10233000A2252196C033D10569F78FEF8093E7037B
:10234000DF91CF911F9108950F931F93CF93DF9348
:10235000982F8C30C0F480E3989FC0011124EC01C9
:10236000CB55DE4F8C010B521E4FCE010E949A2599
:10237000982F81508E3F18F4892F0E94871621963E
:10238000C017D10791F7DF91CF911F910F91089559
:10239000CF92DF92EF92FF920F931F93CF93DF9331
:1023A00090913D0188E8989F700111248DE090E0A4
:1023B000E80EF91ECC24DD2417C0CE018E0D9F1D22
:1023C0000E949A25F80181938F012196C830D1058A
:1023D000A1F70894C11CD11C88E090E0E80EF91E1A
:1023E00091E1C916D10459F0860163E0000F111F75
:1023F0006A95E1F700501C4FC0E0D0E0DECF1092AC
:102400003C0110923B01DF91CF911F910F91FF9002
:10241000EF90DF90CF900895AF92BF92CF92DF926E
:10242000EF92FF920F931F93DF93CF9300D00F9201
:10243000CDB7DEB7B62EA42EC22E0E94870AD82EA4
:1024400084ED8D1508F484C280912A01882309F057
:102450007FC2809132018B3019F0CC2009F078C214
:1024600082EB90E06BE04D2D0E9423167C01909151
:1024700032019B3009F06CC080912901882399F0CA
:1024800010922801109229018D2D0E948716E0914B
:10249000B804F0E0E957FB4F10820E94801187E0FA
:1024A0008093320146C2CC2071F080912B0188319B
:1024B00008F04EC28F5F80932B0188EE93E06D2D64
:1024C0000E947B1617C008EE13E0F801019000206F
:1024D000E9F73197E01BF10BC8016E2F4D2D0E94DB
:1024E0002316BC019FEF6F3F790709F431C2C80181
:1024F0000E9449168091B804E82FF0E0E857FB4F9E
:10250000D0828F5F8093B8048D2D0E9487168091B2
:10251000B804803330F087E0809332010E9480114C
:1025200008C2CC2081F0A2EBB0E0EA0EFB1EF7015E
:102530008081893241F481E0809328011092270143
:102540001092260105C2109228011092290100C2A2
:10255000892F8750823008F0A3C0FAE0EF16F1040B
:1025600008F0F6C1E0913A01F0E0E95CFE4FE0824C
:1025700000D000D000D0EDB7FEB731968E010F5FCE
:102580001F4FADB7BEB712961C930E9311978DE8EF
:1025900090E093838283F582E4820E949923EDB7D1
:1025A000FEB736960FB6F894FEBF0FBEEDBFC8015A
:1025B0000E945A100E94600F0091370180913201F1
:1025C000883091F50130E1F4009331010E94600FF1
:1025D0008CE893E00E94940F0E94600F87E993E0DB
:1025E0000E94940F0E94600F86EA93E00E94940F6D
:1025F00000932A018AE0809334011092320151C184
:10260000023029F4009331010E9436104AC1033090
:1026100021F40093310184E633C0043009F041C154
:102620000093310188E72CC0063019F48EE68093C0
:102630003201809131018130C9F4013011F0023052
:1026400019F4009332012DC1033031F484E08093FA
:1026500032010E94111025C1043011F485E010C030
:10266000093009F01EC10E94DC0FC4C0823009F09D
:1026700018C1013011F489E012C1023041F48AE03E
:102680008093320110922C01109234010AC109305A
:1026900009F007C18CE0809332010E94021001C151
:1026A000923089F1FAE0EF16F10408F051C18091FF
:1026B0003A01E82FF0E0E95CFE4FE0828F5F809303
:1026C0003A0100D000D000D0EDB7FEB731968E01B0
:1026D0000F5F1F4FADB7BEB712961C930E931197A5
:1026E0008DE890E093838283F582E4820E949923AF
:1026F000EDB7FEB736960FB6F894FEBF0FBEEDBF2E
:10270000C8010E945A10FAE0EF16F10428F08091F7
:102710003201823009F01CC180913201823009F40B
:102720006BC0833020F4813009F010C131C0833098
:1027300009F4BAC0893009F009C180913A018230A8
:10274000E9F4909137018AE0989F900111248091DB
:102750003801280F311DC90101970C9750F4822FC1
:1027600081508093E7038BE0809332010E94670FD2
:10277000D7C00E94600F8AED95E0D0C088EE93E04C
:102780002CE231E0F9013197F1F70197D9F7E0C078
:102790009091370180913D01833050F5192F1150F0
:1027A000811731F1133020F580913B0190913C016C
:1027B000181619066CF40E94600F81E095E00E94E3
:1027C000940F0E94600F0E94111010933E0169C087
:1027D0000E94600F84E195E00E94940F0E94600FB8
:1027E00087E08093320110933D010E94C81159C0C7
:1027F0000E94600F87E053C0B0923501A09236016D
:1028000081E395E00E94940F809135018F5F0E94D3
:1028100067170E945A1080E990E00E945A10809138
:1028200036018F5F0E9467170E945A1083E990E07B
:102830000E945A1080913D018F5F0E9467170E948D
:102840005A108CE990E00E945A1080913D016091ED
:102850003601409135010E94950A0E9467170E9437
:102860005A1086EA90E00E945A1080913501E0915A
:102870003601F0E0A3E0EE0FFF1FAA95E1F7E80FA5
:10288000F11DE050FC4F80810E9467170E945A1092
:1028900080EB90E00E945A100E94600F83E08093CA
:1028A000320110923A0152C080913A01833009F00E
:1028B00043C09091370184E6989FA0011124809134
:1028C00038012AE0829FC0011124480F591F8091CE
:1028D0003901480F511D4F3F5105E4F480913501F6
:1028E000E0913601F0E073E0EE0FFF1F7A95E1F71B
:1028F000E80FF11DE050FC4F408387E080933201E8
:1029000080913B0190913C01019690933C01809312
:102910003B0106C00E94600F8DE395E00E94940F7A
:1029200083E0E7E3F1E0DF011D928A95E9F7109279
:102930003A010E94600F0AC088EE93E02CE231E079
:10294000F9013197F1F70197D9F702C00E94AD1054
:102950000F900F900F90CF91DF911F910F91FF90EB
:10296000EF90DF90CF90BF90AF900895BF92CF923D
:10297000DF92EF92FF920F931F93CF93DF93EE249A
:10298000FF24CC24DD2418E8B12E1EC080913D0127
:102990008B9DC00111240D968C0D9D1D8C0F9D1FCC
:1029A000F80161918F010E94A2252196C830D105BE
:1029B00069F70894E11CF11C88E090E0C80ED91E6C
:1029C00091E1E916F10459F08701B3E0000F111FFE
:1029D000BA95E1F700501C4FC0E0D0E0D7CF10927D
:1029E0003C0110923B0180913301843039F4809393
:1029F000320110922C011092340113C0813089F4FD
:102A00000E94600F84E195E00E94940F0E94600F85
:102A100087E08093320180913E0180933D010E94C6
:102A2000C8110E94AD10DF91CF911F910F91FF90BF
:102A3000EF90DF90CF90BF90089583E0E7E3F1E05F
:102A4000DF011D928A95E9F710923A0110923D013B
:102A5000109231010E94C8110E9445110895FF9201
:102A60000F931F93182F062FF42E80912C0188238B
:102A7000E1F0809132018B3079F588E8189FC00130
:102A800011240D96262F30E053E0220F331F5A9564
:102A9000E1F7820F931F840F911D0E949A25982FB2
:102AA000895C8C30A8F490E013C088E8189FC001BE
:102AB00011240D96262F30E043E0220F331F4A9554
:102AC000E1F7820F931F8F0D911D0E949A25982F79
:102AD000892F81508E3F30F0812F602F4F2D0E9423
:102AE000950A982F892F1F910F91FF9008951F939A
:102AF000982F80912C0180FD0FC0192F195C1C307C
:102B000058F40E94C816882339F00E947517812F47
:102B10000E94A41181E001C080E01F91089580917E
:102B20002C0180FF0DC081FD0BC00E94C8178823B7
:102B300039F080912C01826080932C010E941D1538
:102B4000089580912C01816080932C018091ED008B
:102B50008150823018F40E94991E08C00E943A1BCE
:102B600084EC99E09093BE008093BD000E942F10EA
:102B7000089580912C018823C1F480912D01882330
:102B8000A1F080912E0190912F01019690932F0139
:102B900080932E012091BD003091BE002817390787
:102BA00024F410922D010E94A11508950E94B915D8
:102BB00080912C0181FF36C080912A018823C9F0C1
:102BC0000E94D7168823A9F0809134018B3019F424
:102BD0000E94B6140CC08A3019F40E94251107C057
:102BE0008C3019F40E946B1102C010922A011092CD
:102BF0003401809128018823A9F0809126019091C9
:102C0000270101969093270180932601895E9340C6
:102C10004CF081E08093290189E26FEF4FEF20E0D3
:102C20000E940C1208950E947F21882319F01092AF
:102C30003001089580913001813021F40E94A11566
:102C4000109230010895FC0190E007C08191841733
:102C500019F4292F30E005C09F5F9617B8F32FEFC6
:102C60003FEFC9010895FC01808140E02FEF3FEF65
:102C70000CC05191252F30E090E02817390719F04A
:102C80002FEF3FEF04C04F5F852F461790F3C90128
:102C900008959B01FC0101900020E9F73197E81BA2
:102CA000F90B6F5F7F4F680F791FE21BF30B820FE9
:102CB000931FAF010E9466230895FF920F931F9305
:102CC000F42E9B01DC010D900020E9F78C01060F2A
:102CD000171FA81BB90BA61BB70B2F5F3F4F820F07
:102CE000931FB801AD010E946623F801F0821F9185
:102CF0000F91FF900895462FDC010D900020E9F719
:102D00001197A81BB90BBD010E945D160895282FCD
:102D10008091750190917601019660E071E00E94CA
:102D20000D23FC01909376018093750180917301CE
:102D3000909174018E179F0759F4009719F48FEF43
:102D400090E001C0019790937601809375010895FA
:102D5000E958FE4F2083089520917301309174014A
:102D600080917501909176012817390711F480E060
:102D70000895C901019660E071E00E940D23FC01F5
:102D80009093740180937301E958FE4F80810895F8
:102D900040E0209173013091740180917501909110
:102DA00076012817390709F441E0842F08958091AE
:102DB0007201882319F440E050E00FC040E050E079
:102DC0002091730130917401809175019091760189
:102DD0002817390711F441E050E0842F08958093BB
:102DE00072010895982F81568A3118F4292F2D5594
:102DF00010C0892F81548A3120F4292F2D5332E0BD
:102E000009C0892F8153893010F020E002C0292F9A
:102E1000235130E0892F992787FD9095A92FB92F4D
:102E2000FC01B097EF35F10508F048C0E65DFF4FB3
:102E3000EE0FFF1F0590F491E02D09942EE141C0A3
:102E40002FE13FC020E23DC021E23BC022E239C079
:102E500023E237C024E235C025E233C026E231C088
:102E600027E22FC02CE22EC02DE22CC02DE229C07B
:102E70002EE228C02EE225C02FE224C02FE221C07E
:102E800020E320C020E31DC021E31CC021E319C0C2
:102E900023E318C023E315C024E314C024E311C0C6
:102EA00025E310C025E30DC026E30CC026E309C0CE
:102EB00027E308C027E305C028E304C0222311F458
:102EC00028E332E0832F922F089527E2FBCF0F9360
:102ED0001F930FE611E090E0B8014AE050E00E9435
:102EE0007823C8011F910F910895209173013091AB
:102EF000740180917501909176012817390739F492
:102F000080E3EFE3F1E0DF011D928A95E9F7089590
:102F10001F93CF93DF930E94AC16182FCFE3D1E01D
:102F2000882331F480E3FE0111928A95E9F712C0FB
:102F3000FE0101900020E9F73197EF53F140CE01F7
:102F40006E2F412F0E942316BC0197FD05C0CE01B4
:102F50000E94491680E005C0CE01612F0E947B16B9
:102F600081E0912FDF91CF911F91089580E090E053
:102F7000FC01E754FB4F1082FC01E653FB4F10822B
:102F8000019681319105A1F78AE08093E0000895D0
:102F900081E080937902EAECF4E08081882319F0E3
:102FA0001092790205C0319684E0EB3DF807A9F74D
:102FB0008091790208958AEC94E008958F929F920F
:102FC000AF92BF92DF92EF92FF920F931F93CF9336
:102FD000DF93DD24C0E0D0E021E0E22EF12C97E188
:102FE000892E912C8FE0A82EB12C87010C2E02C0C7
:102FF000000F111F0A94E2F707BB802F809588BB52
:1030000081E090E00E949F21EAECF4E040E050E093
:10301000302F3095842F483048F429B3C701042E4F
:1030200002C0880F991F0A94E2F711C088508830B7
:1030300018F423B3C50102C020B3C401841B950B4F
:10304000B70102C0660F771F8A95E2F7CB01209582
:1030500028239081802F892319F0222329F008C08A
:10306000222331F0902B01C093239083DD24D3944D
:103070004F5F5F4F31964131510561F62196C8305F
:10308000D10509F0B2CFDD2019F01092DF0007C0A2
:103090008091DF00843618F48F5F8093DF0020E09A
:1030A0009091DF008091E000981709F421E0822FD1
:1030B000DF91CF911F910F91FF90EF90DF90BF9024
:1030C000AF909F908F9008951F930E948F150E943C
:1030D000DE17182F0E94D6150E94450F811110E0AF
:1030E000812F1F9108954F925F926F927F929F92CE
:1030F000AF92BF92CF92DF92EF92FF920F931F9306
:10310000CF93DF93EE24FF2451E0C52ED12C47E16D
:10311000442E512C3FE0632E712C6FC00C2F8091F8
:1031200078026C2F492D0E942F15182F865D803153
:1031300028F4E12FF0E0E457F0401081812F865F02
:10314000823060F01E3F51F0183F41F01B3F09F004
:1031500048C080917802823009F043C0A7BAB8BA5B
:1031600081E090E00E949F21083048F429B3C60115
:103170000C2E02C0880F991F0A94E2F711C0085064
:10318000083018F423B3C30102C020B3C2018C1B62
:103190009D0BA60102C0440F551F8A95E2F7CA0194
:1031A00020952823F1F01E3F61F0183F09F444C038
:1031B000173F49F480917902882399F081E0809348
:1031C0007A0291E03DC0163F41F480917902882354
:1031D00041F082E080937A022FC01B3F11F490E00F
:1031E0002FC02196C131D10509F098CF0894E11C78
:1031F000F11C58E0E516F10471F09E2CC6010E2C6E
:1032000002C0880F991F0A94E2F7A82EB82EB09436
:10321000C0E0D0E083CF0E94C817882311F010923D
:103220007A0290917A02992359F480917702813041
:1032300029F482E08093780292E002C01092780232
:10324000892FDF91CF911F910F91FF90EF90DF9029
:10325000CF90BF90AF909F907F906F905F904F9076
:1032600008950F931F93182F062F8E3F09F443C024
:103270000E94AB0A0023C1F10E942A0C1C3F49F0B6
:1032800080917B028823B9F01A32A9F41092770258
:1032900006C08091770291E0892780937702809120
:1032A0007702882341F50E94300B80FF02C0909A7C
:1032B00022C0909820C0193221F481E080937B02D3
:1032C0001DC0882311F0193311F01D3F19F40E941D
:1032D000B30B11C01A3F19F40E94DF0B0CC0193F49
:1032E00061F40E94C60B07C01C3F29F0193229F473
:1032F00010927B0202C080E001C081E01F910F911B
:103300000895282F8F3F31F410927D0281E0809341
:10331000870208958E3F21F08D3F29F410927D029F
:1033200010928702089580918702882351F080913E
:103330007D02E82FF0E0EF5AFC4F20838F5F8093EF
:103340007D028091850290918602019668EC70E082
:103350000E940D23FC019093860280938502809148
:103360008302909184028E179F0759F4009719F4F5
:1033700087EC90E001C001979093860280938502CC
:103380000895E857FD4F20830895209183023091DE
:10339000840280918502909186022817390711F4E2
:1033A00080E00895C901019668EC70E00E940D2349
:1033B000FC019093840280938302E857FD4F808143
:1033C000089540E02091830230918402809185022B
:1033D000909186022817390709F441E0842F089557
:1033E000109284021092830210928602109285023B
:1033F00010927D0210927E0210925B0310925C0389
:1034000010925D0310925E03E9EBF4E0119284E008
:10341000EA3CF807D9F70895ECEDF4E0119285E065
:10342000EC38F807D9F72AEB32E006C0FC01E45289
:10343000FB4F808182608083F901849190E02F5F4F
:103440003F4F009799F72DEB32E006C0FC01E452A4
:10345000FB4F808184608083F901849190E02F5F2D
:103460003F4F009799F721EC32E006C0FC01E4528F
:10347000FB4F808188608083F901849190E02F5F09
:103480003F4F009799F726EC32E006C0FC01E4526A
:10349000FB4F808181608083F901849190E02F5FF0
:1034A0003F4F009799F724EF32E006C0FC01E45249
:1034B000FB4F808180618083F901849190E02F5FD0
:1034C0003F4F009799F7E9EBF4E0119284E0EA3C72
:1034D000F807D9F708950E94C81690E0882309F4E8
:1034E00091E0892F089581E08093A2030E94640EE9
:1034F0000E9413160895FF920F931F93CF93DF93AB
:10350000F62E882309F4ADC00E94870A182F853D46
:1035100008F0A7C087568830D0F4E12FF0E09091F2
:103520008202FF2039F0EE0FFF1FEF50F040808144
:10353000982B07C0EE0FFF1FEF50F0408081809561
:10354000982390938202809182020E94250F812FFE
:1035500090E0FC01EE56FE4F0491FF2009F450C0AC
:103560001093500310925B0310925C0310925D0362
:1035700010925E0310928D05EC01C452DB4F8881DE
:1035800081FF2EC0163421F0183409F06CC00EC033
:103590008FEF0E94811980EE0E94811982E10E94C2
:1035A000811980EE0E9481198CE726C08DEF0E9460
:1035B000811981EE0E94811984E10E94811987E7B7
:1035C0000E94811981EE0E94811980EF0E94811969
:1035D00084E10E94811980EF0E94811987E73BC036
:1035E00082FD38C08FEF0E948119888180FF03C05F
:1035F00080EE0E948119802F0E9481198EEF2BC0CE
:1036000080915003811711F410927D02E12FF0E0B8
:10361000E452FB4F808181FF13C0163421F580EE08
:103620000E94811980EF0E9481198CE70E94811904
:1036300080EE0E94811980EF0E94811982E10BC007
:1036400082FD11C080FF03C080EE0E94811980EFCF
:103650000E948119802F0E9481198CEF0E9481198C
:1036600002C080E001C081E0DF91CF911F910F91F6
:10367000FF90089588E660E00E947B1A87E660E08C
:103680000E947B1A89E660E00E947B1A0895DF920F
:10369000EF92FF920F931F93182F062FE42ED22E36
:1036A0000E943119F82E002339F0112329F08BE7FD
:1036B0009AE161E00E94FE0A0E941D0F882339F002
:1036C000812F6E2D4D2D202F0E940C1202C0FF2045
:1036D00011F480E005C0812F602F0E947B1A81E0E9
:1036E0001F910F91FF90EF90DF9008954F925F929E
:1036F0006F927F928F929F92AF92BF92CF92DF9202
:10370000EF92FF920F931F93CF93DF930E94C816FF
:10371000882349F081E00E94EF160E9464188823F4
:1037200009F4CCC014C080E00E94EF160E948817F4
:10373000813041F4892F61E00E947B1A8DEF0E9455
:103740008119BCC0892F60E00E947B1AB7C00E941B
:103750007318782E0E94DB174C0180918102871527
:1037600009F446C0EE24FF2441E0442E512C34C01D
:10377000F401EC0FFD1F0081FE01E754FB4F808137
:103780008B21F9F0809181026C2F4C2D0E942F1516
:10379000D82E872D6C2F4C2D0E942F15182FD81640
:1037A00081F0882371F08D2D60E04C2D2C2F0E942C
:1037B000471B0B2131F0812F61E04C2D2C2F0E94F3
:1037C000471B2196C131D10599F60894E11CF11CE3
:1037D00088E0E816F10461F0CE2CC2010E2C02C084
:1037E000880F991F0A94E2F7B82EC0E0D0E0C0CF4E
:1037F00070928102AA24A394CC24DD2431E0432ECC
:10380000512C3EC0EC2EFE01E754FB4FF080F4013A
:10381000EC0FFD1F10811621872D6C2F4B2D0E9460
:103820002F15082F112339F0882329F00E947715CE
:10383000882309F043C0F620F116B9F00E947F21D9
:10384000882339F01123A9F08E2D6B2D0E9482213F
:1038500010C0112319F0802F61E002C0802F60E0BA
:103860004B2D2E2D0E94471BA8222196C131D10538
:1038700049F60894C11CD11C88E0C816D10461F037
:10388000BC2CC2010C2C02C0880F991F0A94E2F7CD
:10389000682EC0E0D0E0B6CF20E030E0F901E75478
:1038A000FB4FD401A20FB31F8C9180832F5F3F4F3A
:1038B0002131310599F72A2D30E002C020E030E0B7
:1038C000C901DF91CF911F910F91FF90EF90DF9091
:1038D000CF90BF90AF909F908F907F906F905F90B0
:1038E0004F9008951F93162F8E3F11F080938C05F3
:1038F0000E94DD0710938D051F9108958F929F926E
:10390000AF92BF92CF92DF92EF92FF920F931F93ED
:1039100088E080938D050E9404090E940C1A0E9481
:10392000B6170E94F019789416E9812E9924939481
:10393000B5E0AB2EB12CC12CD12C8091ED008823A9
:10394000F9F48091A2038823D9F48091A003909187
:10395000A10301969093A1038093A0030197815D39
:10396000974074F081E08093ED001F910F91FF90DC
:10397000EF90DF90CF90BF90AF909F908F90089581
:103980008091B00382FFC0C080917F02909180023D
:103990008C3F910561F020918302309184028091E7
:1039A0008502909186022817390709F0ADC00E9460
:1039B000EC07182F60918D05623009F457C0633011
:1039C00018F4613039F44CC0663009F48DC06730AA
:1039D00009F455C0133F71F1143F60F41E3EC9F065
:1039E0001F3E18F41D3EA9F522C0103FE9F0123F1A
:1039F00081F511C0163F09F1173F30F4143F09F467
:103A000081C0153F31F57EC01E3F59F01F3F09F5BB
:103A100005C08EEE72C18AEF64E06FC18AEF68E084
:103A20006CC180918C0569C18AEF62E066C18AEF42
:103A300066E063C18AEF67E060C19092E100A09206
:103A4000E200B092E300C092E400D092E5000E9450
:103A5000F0198AEF60E00E94721C0E94731A6DCF09
:103A6000853F09F44FC08AEF61E047C10E94F01919
:103A7000112311F060E001C063E08AEF3EC1682FBE
:103A800070E0CB0180769070A5E095958795AA951A
:103A9000E1F78093E100AB0148715070F3E0559578
:103AA0004795FA95E1F780E090E021E030E003C02F
:103AB000220F331F019684179507D4F36770707037
:103AC000269FC001279F900D369F900D1124AA2795
:103AD00097FDA095BA2F8093E2009093E300A09306
:103AE000E400B093E5000EC00E94731A912F80E0AD
:103AF00010FD84E091FD816092FD82600E942D0B9B
:103B00000E94F90B8AEFF8C08091B00384FF15CFB3
:103B100080918D05843009F4E7C0853030F4882326
:103B200071F0833009F009CFDDC0883009F4E1C0BD
:103B30008C3009F45FC0853009F0FFCED8C02091E9
:103B40008302309184028091850290918602281729
:103B5000390711F40E94761B809177020E94A80D0C
:103B60000E94C519282F30E03093800220937F02F5
:103B70002C3F310509F4E1CE232B21F060E00E94B7
:103B8000721C60C080917D02882309F4D6CE2091FA
:103B90005B0330915C0340915D0350915E032F5FA6
:103BA0003F4F4F4F5F4F20935B0330935C03409335
:103BB0005D0350935E038091E100889DC001112454
:103BC0008A519F4FAA2797FDA095BA2F281739072A
:103BD0004A075B070CF4B1CE10925B0310925C03B2
:103BE00010925D0310925E0310927E028CE080932F
:103BF0008D05A3CE80917E02882311F40E94761B4E
:103C0000809177020E94A80D80917D028823C1F0E7
:103C100020918302309184028091850290918602E6
:103C20002817390769F480915B0390915C03A09198
:103C30005D03B0915E030197A105B10561F40FC06A
:103C400010928D0510925B0310925C0310925D033D
:103C500010925E0372CE80917E028823A9F090912B
:103C60007E02E92FF0E0EF5AFC4F80819F5F909336
:103C70007E026CE00E94721C60917D0280917E0247
:103C80000E94ED2290937E02E0905B03F0905C0333
:103C900000915D0310915E030894E11CF11C011D6D
:103CA000111D6091E2007091E3008091E400909119
:103CB000E5002AE030E040E050E00E94CE229B0187
:103CC000AC012D5F3F4F4F4F5F4FC801B7010E94BE
:103CD000422360935B0370935C0380935D03909336
:103CE0005E032BCE82E008C08BEA65E006C083E865
:103CF00003C00E94F0198AEA60E00E94721C1DCE87
:103D000080916103882331F40E94C81620E030E0DE
:103D1000882311F421E030E0822F089588E0E4E662
:103D2000F3E0DF011D928A95E9F781E08093640357
:103D3000089580E3EDE6F3E0DF011D928A95E9F74F
:103D400008950E94870A982F853D08F042C0815748
:103D50008A3198F481E080935F03E92FF0E0EE0F61
:103D6000FF1FE05AFE4F2591349182E08093640357
:103D700020936503309366032CC0892F87568830C3
:103D800068F4E92FF0E0EE0FFF1FEF50F040808164
:103D900090916503892B809365031BC09923C9F01B
:103DA00020918E052830A8F4892F8D58823248F44E
:103DB000E92FF0E0EE0FFF1FE45AFE4F859194913A
:103DC000982FE22FF0E0EC59FC4F90832F5F209367
:103DD0008E0580E008959F92AF92BF92CF92DF92BE
:103DE000EF92FF920F931F93CF93DF930E948E1E4B
:103DF0000E941D0F8823D9F50E94DB177C010E94C9
:103E00007318982E00E010E051E0A52EB12C23C0CD
:103E1000F701EC0FFD1F80818D21A1F0892D6C2F02
:103E20004C2D0E942F15E82F8756883058F4F0E06B
:103E3000EE0FFF1FEF50F040808190916503892BBA
:103E4000809365032196C131D10511F70F5F1F4F94
:103E50000830110561F0C02EC501002E02C0880F88
:103E6000991F0A94E2F7D82EC0E0D0E0D1CF0E948B
:103E7000C816882309F045C00E948817EFE3F1E0D7
:103E8000DF010D900020E9F71197AE1BBF0B82E018
:103E900080938E05EF01EA2EFF246F01CE0CDF1C0C
:103EA0003DE6A32E33E0B32E1AC01881812F87562A
:103EB000883080F0F50101900020E9F73197ED5648
:103EC000F3408DE693E06E2F412F0E9423168F5F03
:103ED0009F4F21F4812F61E00E94A11E21964FE3A4
:103EE00051E0CC15DD0509F781E0809361032DE6F3
:103EF00033E0F7013196C901BA01AF010E945D2399
:103F000006C080916103882311F01092610381E063
:103F1000DF91CF911F910F91FF90EF90DF90CF90A5
:103F2000BF90AF909F9008952F923F924F925F92D3
:103F30006F927F928F929F92AF92BF92CF92DF92B9
:103F4000EF92FF920F931F93DF93CF930F92CDB712
:103F5000DEB70E946418882309F4C8C00E94731851
:103F6000682E82E080938E050E948E1E0E94DB17D1
:103F70004C011982CC24DD2461E0462E512C73C003
:103F8000B22CF101E754FB4F0081F401E20DF31D67
:103F9000F080F720862D622D4A2D0E942F15182FB4
:103FA000FF2039F0882329F00E947715882309F033
:103FB0009DC0E72CE022EF1409F440C00E947F214D
:103FC000882349F0FF2021F08B2D6A2D0E94822149
:103FD0000E94060F41C0112309F49DC0FF2069F023
:103FE000812F61E00E943119082F0E94060F81EA9B
:103FF0009EE161E00E94FE0A07C0812F60E00E94FE
:104000003119082FEE20C1F00E941D0F8823A1F066
:10401000FF2049F0812F6A2D4B2D21E00E940C12C8
:1040200081E0898311C0812F6A2D4B2D20E00E94F1
:104030000C1291E0998308C0002331F0FF2021F099
:10404000812F61E00E94A11E0894211C311CE1E136
:104050002E16310409F094CF0894C11CD11CF8E04D
:10406000CF16D10461F0AC2CC2010C2C02C0880F19
:10407000991F0A94E2F7782E2224332481CF80916D
:104080006403813069F4909165038091620398170D
:1040900039F0892F0E94250F809165038093620378
:1040A00080915F03882369F080916403823049F036
:1040B00082E080936403109265031092660310926D
:1040C0005F0320E030E0F901E754FB4FD401A20F79
:1040D000B31F8C9180832F5F3F4F2131310599F7BA
:1040E00080E09981913019F081E001C080E00F906B
:1040F000CF91DF911F910F91FF90EF90DF90CF90C4
:10410000BF90AF909F908F907F906F905F904F90F7
:104110003F902F90089501E077CFEF92FF920F9399
:104120001F930E941A098B9A20E048EB5BE0CA01BA
:104130000197F1F72150D9F78B98789400E010E0BF
:10414000EE24E3948091ED008130D9F48091A203B4
:104150008823B9F48091A0039091A10301969093D4
:10416000A1038093A0030197815D974054F01092C2
:10417000ED008BB78F7B8BBF1F910F91FF90EF905E
:1041800008950E942709002399F40E94941F082F84
:1041900008B600FE0FC0E8BEF0906C03FF2051F09F
:1041A000153010F401E007C07BEFF72EF10E03C0CD
:1041B0000E94941FF12E8091BC0384FF2EC0809139
:1041C0006003882361F0109260030E948E1E84E6D3
:1041D00093E068E00E94590A0E9413161EC00E94D4
:1041E000801E882341F00E94EB1E84E693E068E085
:1041F0000E94590A12C0002381F08091640382302A
:1042000021F484E693E063E005C0813029F484E67C
:1042100093E068E00E94590A00E00E94DF0E80915E
:1042200077020E94A80D0E94801E882311F080E072
:1042300001C081E00E94EF161F2D84CF81E08093A2
:1042400060030E94640E0E94060F0895CF93DF93CF
:1042500021E02093A203EC01809164038093CB03BF
:104260001092CC0388818076803271F5898181300B
:1042700011F488E02AC0893041F48E819F81029731
:1042800019F5209363038FEF20C0823019F48091D9
:104290006C0314C08A3031F40E941E218B818093FC
:1042A0006C0312C0833031F48B81882369F410923F
:1042B000E6000BC08B3041F48091E6008093CB0385
:1042C0001092CC0381E001C080E0DF91CF9108958E
:1042D000FC0180916303882351F0623041F48081B6
:1042E000813029F481810E942D0B0E94F90B1092DC
:1042F000630381E0089581E080939D030895809198
:104300009D0308950F931F93082F162F87EE90E0BB
:104310000E945A10812F0E9467170E945A1089EE3E
:1043200090E00E945A10802F0E9467170E945A1036
:104330008BEE90E00E945A101F910F9108950F93F9
:104340001F9300919E0310919F03039665E070E018
:104350000E94F92280E090E02CE030E040E050E064
:104360000E94CE22060F171F10939F0300939E03F7
:104370001F910F9108958D98959A08958D9A95980B
:1043800008951F9310E0812F0E941F051F5F1730B3
:10439000D1F789B78E7F89BF89B78B7F89BF89B7EE
:1043A0008F7B89BF1F9108959FEF97BB98BB1ABA67
:1043B00014BA9BBB95BB91BB91B39F7591BB12BACD
:1043C00092B3906A92BB91B3936191BB92B39C7E7E
:1043D00092BB8E9A9698882379F08BE090E00E94A9
:1043E0009F2181B3837F81BB83B7856083BF0E9498
:1043F000C1218D98959A08958D9A95980895F8946D
:104400000E94330B1092A1031092A0031092A203FA
:1044100008958F929F92BF92CF92DF92EF92FF9278
:104420000F931F93CF93DF938FEF8093ED0087BBA4
:1044300088BB1ABA14BA8BBB85BB11BA80E882BBA1
:1044400081E090E00E949F2110E00E94DE17882307
:1044500019F41F5F1E31C9F70E94DB176C01FF249E
:1044600000E010E081E0882E912C29C06C2FF6012D
:10447000EC0FFD1F80818B21C9F0C13031F481E048
:10448000E81619F40E947B2111C080E04E2D0E9495
:10449000950A803119F40E94480F08C0883111F440
:1044A00081E003C0833111F482E0F82A2196C13102
:1044B000D105E1F60F5F1F4F0830110561F0E02EC6
:1044C000C401002E02C0880F991F0A94E2F7B82E8B
:1044D000C0E0D0E0CBCFFF2019F0F394F092ED00D4
:1044E0006091ED00643021F48CE090E06FEF04C047
:1044F000643028F48CE090E00E94A22506C08CE095
:1045000090E00E949A258093ED008A98929A2091DB
:10451000ED002430D0F080E090E0829907C092FD59
:1045200009C08F5F863060F021E00AC0829B09C01D
:1045300092FD02C080E004C08F5F863008F020E06A
:1045400090B3223050F72093ED00CCE2D1E080917F
:10455000ED008150823038F40E94FF2181E00E94FA
:10456000D4210E948D208091ED00882311F08330AA
:1045700071F782B3836082BB88EE93E0FE013197CE
:10458000F1F70197D9F782B38C7F82BB0E94FF219C
:1045900080E00E94D4210E947E1CD9CF629FD0016E
:1045A000739FF001829FE00DF11D649FE00DF11DEE
:1045B000929FF00D839FF00D749FF00D659FF00D9D
:1045C0009927729FB00DE11DF91F639FB00DE11D8A
:1045D000F91FBD01CF0111240895991B79E004C092
:1045E000991F961708F0961B881F7A95C9F7809532
:1045F0000895AA1BBB1B51E107C0AA1FBB1FA6172A
:10460000B70710F0A61BB70B881F991F5A95A9F77B
:1046100080959095BC01CD01089597FB092E072642
:104620000AD077FD04D0E5DF06D000201AF470959B
:1046300061957F4F0895F6F7909581959F4F089566
:10464000A1E21A2EAA1BBB1BFD010DC0AA1FBB1F96
:10465000EE1FFF1FA217B307E407F50720F0A21B08
:10466000B30BE40BF50B661F771F881F991F1A9475
:1046700069F760957095809590959B01AC01BD019F
:10468000CF01089597FB092E05260ED057FD04D0C3
:10469000D7DF0AD0001C38F450954095309521950D
:1046A0003F4F4F4F5F4F0895F6F790958095709567
:1046B00061957F4F8F4F9F4F0895FB01DC0102C032
:1046C00001900D9241505040D8F70895681779072E
:1046D00068F4FB01DC01E40FF51FA40FB51F02C055
:1046E00002900E9241505040D8F708950C945D23EB
:1046F000FB019F01E8944230C4F04532B4F44A30E3
:1047000029F497FB1EF4909581959F4F642F77278E
:104710000E94F922805D8A330CF0895D8193CB0180
:104720000097A1F716F45DE251931082C9010C9431
:10473000C525AEE0B0E0EFE9F3E20C946D260D89FB
:104740001E8986E08C831A8309838FEF9FE79E83FF
:104750008D839E01275E3F4FCE0101966F89788D34
:10476000A9010E94BD232F813885020F131FF80174
:1047700010822E96E4E00C948926ABE0B0E0E3ECE6
:10478000F3E20C945F263C012B015A01FC011782D5
:104790001682838181FD03C06FEF7FEFC6C19AE06F
:1047A000892E1E010894211C311CF3012381F20182
:1047B00023FD859123FF81912F01882309F4B2C144
:1047C000853239F423FD859123FF81912F018532B4
:1047D00029F490E0B3010E94D525E7CF982FFF245C
:1047E000EE249924FFE1FF15D0F09B3269F09C3252
:1047F00028F4903259F0933291F40EC09D3249F072
:10480000903369F441E024C052E0F52A84E0F82AAC
:1048100028C098E0F92A25C0E0E1FE2A22C0F7FC72
:1048200029C0892F80538A3070F4F6FE05C0989C09
:10483000902C1124980E15C0E89CE02C1124E80E51
:10484000F0E2FF2A0EC09E3229F4F6FC6BC140E470
:10485000F42A07C09C3619F450E8F52A02C09836AD
:1048600049F4F20123FD959123FF91912F019923A2
:1048700009F0B8CF892F8554833018F080528330E7
:1048800038F444E050E0A40EB51E5FE359830FC036
:10489000933631F0933779F0933509F056C020C044
:1048A000F5018081898342E050E0A40EB51E6101CC
:1048B00001E010E012C0F501C080D180F6FC03C019
:1048C0006FEF7FEF02C0692D70E042E050E0A40E70
:1048D000B51EC6010E94BA258C015FE7F52214C0FF
:1048E000F501C080D180F6FC03C06FEF7FEF02C0FE
:1048F000692D70E042E050E0A40EB51EC6010E9492
:10490000AF258C0150E8F52AF3FE07C01AC080E2FB
:1049100090E0B3010E94D525EA948E2D90E008170F
:104920001907A8F30EC0F601F7FC8591F7FE8191F7
:104930006F0190E0B3010E94D525E110EA94015087
:1049400010400115110579F7EAC0943611F0993637
:1049500069F5F7FE08C0F50120813181428153815C
:1049600084E090E00AC0F501808191819C01442798
:1049700037FD4095542F82E090E0A80EB91E9FE6C7
:10498000F92257FF09C050954095309521953F4F2A
:104990004F4F5F4FE0E8FE2ACA01B901A1012AE0AA
:1049A00030E00E940126D82ED21840C0953729F455
:1049B0001F2D1F7E2AE030E01DC01F2D197F9F365E
:1049C00061F0903720F4983509F0ACC00FC09037F3
:1049D00039F0983709F0A6C004C028E030E00AC0DA
:1049E000106114FD146020E130E004C014FD166075
:1049F00020E132E017FF08C0F501608171818281FA
:104A0000938144E050E008C0F50180819181BC01B0
:104A100080E090E042E050E0A40EB51EA1010E94AB
:104A20000126D82ED2188FE7F82EF122F6FE0BC001
:104A30005EEFF522D91438F4F4FE07C0F2FC05C08D
:104A40008FEEF82202C01D2D01C0192DF4FE0DC0FD
:104A5000FE01ED0DF11D8081803319F499EEF922EC
:104A600008C01F5FF2FE05C003C08F2D867809F0D5
:104A70001F5F0F2DF3FC14C0F0FE0FC01E1510F0C9
:104A80009D2C0BC09D2C9E0C911A1E2D06C080E201
:104A900090E0B3010E94D5251F5F1E15C0F304C02E
:104AA0001E1510F4E11A01C0EE2404FF0FC080E3CC
:104AB00090E0B3010E94D52502FF1DC001FD03C097
:104AC00088E790E00EC088E590E00BC0802F8678E4
:104AD00091F001FF02C08BE201C080E2F7FC8DE2A1
:104AE00090E0B3010E94D52506C080E390E0B301B9
:104AF0000E94D5259A94D914C0F3DA94F101ED0DF2
:104B0000F11D808190E0B3010E94D525DD20A9F739
:104B100006C080E290E0B3010E94D525EA94EE2021
:104B2000C1F743CEF30166817781CB012B96E2E199
:104B30000C947B26E199FECF9FBB8EBBE09A992710
:104B40008DB30895262FE199FECF9FBB8EBB2DBB61
:104B50000FB6F894E29AE19A0FBE01960895FC010F
:104B60000590615070400110D8F7809590958E0F98
:104B70009F1F0895FC016150704001900110D8F70B
:104B8000809590958E0F9F1F0895DC01FC01672F83
:104B900071917723E1F7329704C07C916D93708314
:104BA0006291AE17BF07C8F308950F931F93CF9379
:104BB000DF938C01EB018B8181FF1BC082FF0DC055
:104BC0002E813F818C819D812817390764F4E8810B
:104BD000F9810193F983E88306C0E885F985802F80
:104BE0000995892B31F48E819F8101969F838E8355
:104BF00002C00FEF1FEFC801DF91CF911F910F91FE
:104C00000895FA01AA27283051F1203181F1E89462
:104C10006F936E7F6E5F7F4F8F4F9F4FAF4FB1E0AF
:104C20003ED0B4E03CD0670F781F891F9A1FA11DAA
:104C3000680F791F8A1F911DA11D6A0F711D811DAB
:104C4000911DA11D20D009F468943F912AE0269F70
:104C500011243019305D3193DEF6CF010895462FCF
:104C60004770405D4193B3E00FD0C9F7F6CF462FB0
:104C70004F70405D4A3318F0495D31FD4052419319
:104C800002D0A9F7EACFB4E0A695979587957795D6
:104C90006795BA95C9F700976105710508959B015D
:104CA000AC010A2E06945795479537952795BA95E6
:104CB000C9F7620F731F841F951FA01D08952F92BF
:104CC0003F924F925F926F927F928F929F92AF929C
:104CD000BF92CF92DF92EF92FF920F931F93CF93E9
:104CE000DF93CDB7DEB7CA1BDB0B0FB6F894DEBF80
:104CF0000FBECDBF09942A88398848885F846E84A6
:104D00007D848C849B84AA84B984C884DF80EE80EF
:104D1000FD800C811B81AA81B981CE0FD11D0FB6F8
:104D2000F894DEBF0FBECDBFED010895F894FFCF1C
:104D30005AFFFEFEF8F86C6C68686D6D69696B6B04
:104D400067678E8D8E8D8E8D8E8D8E8D8E8D8E8DD8
:104D50008E8D0065080701FF0100256300256400B2
:104D60002C200020286C617965723D002064656606
:104D700061756C743D00206D617070696E673D00F7
:104D80002900271E1F2021222324252629881301DC
:104D90000002000400080010002000400080000015
:104DA0000100020004000800100020004000800AFA
:0E4DB000050205000000012D002C003D00FF53
:00000001FF
