:100000000C94B5030C94ED030C94D2030C94D2031E
:100010000C943B080C9447070C940E080C94B407FE
:100020000C94E1070C941A070C9487070C94C706EC
:100030000C94D2030C94D2030C94D2030C94D203EC
:100040000C94D2030C94D2030C94D2030C94D203DC
:100050000C94D2030916F5152516F915FB15FD1597
:100060000116231605160716031611162B160B1666
:100070002F1633163C163516351635163516351629
:10008000351635163516351621161F162D160F1670
:1000900031163716F7153516351635163516351649
:1000A00035163516351635163516351635163516F8
:1000B00035163516351635163516351635163516E8
:1000C0003516351635163516351613161B16171632
:1000D000FF150D1627163516351635163516351635
:1000E00035163516351635163516351635163516B8
:1000F00035163516351635163516351635163516A8
:100100003516351635163516351615161D161916EB
:100110002916000001000800400000010004000052
:1001200001000800200040008000000100040403DA
:1001300009041C03770069006E006B0065007900FC
:100140006C006500730073002E006B0072001003DA
:1001500070007300320061007600720055001201D9
:10016000100100000008424231E1000101020001DB
:10017000090222000101008032090400000103018C
:100180000100092101010001225500070581030832
:10019000000A73656C656374206D6F646500313AA5
:1001A0004B6579204D617070696E6700323A4D6120
:1001B00063726F00333A4578697400676F6F64202B
:1001C0006279657E004D6163726F00313A53656CF0
:1001D000656374204D6163726F20496E64657800B9
:1001E000323A4578697400393A436C65617220414E
:1001F0006C6C00363A4261636B004B6579204D614F
:100200007070657200313A4368616E6765204C61B9
:1002100079657200323A53656C656374204B657979
:10022000202D20696E707574206B6579636F64652D
:1002300000333A5361766520616E642045786974B5
:1002400000343A4578697420776974686F75742052
:10025000536176696E6700393A526573657420742C
:100260006F2044656661756C7420284375727265F1
:100270006E74204C617965722900707332617672F8
:10028000550063686F6F7365206C61796572202813
:10029000313A206E6F726D616C2C20323A20464EDE
:1002A0002C20333A20464E32292063757272656ED7
:1002B000743D200073656C656374206B657920283C
:1002C000616E79206B657920796F752077616E7426
:1002D000292000696E707574206B6579636F6465A1
:1002E00020286D7573742033206E756D626572738E
:1002F00029203A20005361766520262045786974CC
:100300002C207468616E6B20796F752E00457869BA
:100310007420776974686F757420536176696E67AD
:100320002C2073656520796F75206C617465722E61
:1003300000526573657420746F2064656661756C26
:10034000742063757272656E74206C6179657200D9
:10035000496E70757420436F6D6D616E64204E75CB
:100360006D6265723A20006E6F7468696E67005343
:100370006176652063757272656E74206C61796553
:1003800072004C6F61642063757272656E74206CCC
:100390006179657200736176696E672E2E2E006337
:1003A0006F6C2C20726F77203A2000696E76616C3A
:1003B0006964206B6579636F64652C20696E707564
:1003C0007420616761696E2E00696E707574204DCE
:1003D0006163726F20496E646578202830317E3108
:1003E000322C206D7573742032206E756D626572CB
:1003F0007329203A200045786974206D6163726F1B
:100400002C2073656520796F75206C617465722E80
:1004100000696E707574206B657920286D61782095
:100420003136206B6579732C2073746F70203A20FD
:1004300070726573732045534320647572696E67EB
:100440002031207365632900696E76616C696420D0
:10045000496E6465782C20696E70757420616761DF
:10046000696E2E00636C6561722E2E2E000000FCFA
:10047000001C322123242B3433433B424B3A31447A
:100480004D152D1B2C3C2A1D22351A161E26252EF5
:10049000363D3E46455A76660D294E55545B5D5DA8
:1004A0004C520E41494A580506040C030B830A01BD
:1004B0000978077C7E7C706C7D71697A746B7275CB
:1004C000774A7C7B795A69727A6B73746C757D702C
:1004D00071612F001412111F145911270000373FAA
:1004E0005E48103A38302820184D153B342332210D
:1004F000502B404B1C43221D0000F1F20000000075
:100500000000008A0121022302240225022602277C
:10051000022A02B500B600B700CD00E200E900EA09
:10052000008301920194010000000000000000001F
:100530000091009000464800488E8D007172730053
:100540006A6B6E6D6546494A4B4C4D4E52504F5149
:1005500054587172737475767778797A7B7C7D7E66
:100560007F808182838485868788898A00494C4A76
:100570004D4B4E6A6E65504F52515400480000007A
:100580006B00673E142B04291D00351E1A39160016
:100590001B003A1F083C073D06003B201517090ABF
:1005A00019052221181C0D0B101123240C300E3FAD
:1005B00036002E2512400F0037FE4126132F33340C
:1005C00000382D2747000069006D0046002A31449D
:1005D000284542430000002C00514A000000000062
:1005E000004F49000000000000004B4E0000005288
:1005F00000504C4D00686C0000000000006A6E0066
:1006000000000000530000006B00673E142B04291B
:100610001D00351E1AFD16001B003A1F083C073D41
:1006200006003B201517090A190522215C1C590BED
:100630006211235F5D305A3F6200FA605E405B00EA
:1006400063FE4161552F56340057F9544700006945
:10065000006D0046002A3144584542430000002CFA
:1006600000514A0000000000004F49000000000057
:1006700000004B4E0000005200504C4D00686C00D2
:1006800000000000006A6E0000000000480000004A
:100690006B00673E142B04291D00351E1A39160005
:1006A0001B003A1F083C073D06003B201517090AAE
:1006B00019052221181C0D0B101123240C300E3F9C
:1006C00036002E2512400F0037FE4126132F3334FB
:1006D00000382D2747000069006D0046002A31448C
:1006E000284542430000002C00514A000000000051
:1006F000004F49000000000000004B4E0000005277
:1007000000504C4D00686C0000000000006A6E0054
:100710000000000005010906A1018501050719E097
:1007200029E71500250175019508810295057501D8
:100730000508190129059102950175039103950694
:10074000750815002691000507190029A48100C02D
:10075000050C0901A101850219002A3C0215002699
:100760003C02950175108100C00011241FBECFE529
:10077000D8E0DEBFCDBF10E0A0E6B0E0EAEFF7E4DE
:1007800002C005900D92A03CB107D9F714E0A0EC8F
:10079000B0E001C01D92AD3FB107E1F70E94741FA8
:1007A0000C94FB230C940000A82FB92F80E090E05C
:1007B00041E050EA609530E009C02D91822797957D
:1007C000879510F084279527305EC8F36F5FA8F3F4
:1007D0000895EADF8D939D930895CF93CFB7CF937C
:1007E000C395839BE9F7839B09C0839B07C0839BC9
:1007F00005C0839B03C0839B01C0A3C0DF93C0914E
:10080000F803DD27C150DC4F839B02C0DF91EBCFA3
:100810002F930F931F9300B32FEF03FB20F94F93F8
:100820003F9310B34FEF012703FB21F93BE031C0A9
:100830004E7F012F10B3216028C0102F4D7F226002
:10084000000000B329C04B7F2460012F000010B3CB
:100850002BC010B3477F28602AC04F7E00B32061B1
:100860002CC04F7D10B320622FC04F7B00B320649B
:1008700032C0422700B349934FEF0000102713FB0B
:1008800020F910B31C70C9F1297F91F2012703FBF5
:1008900021F900B3237F89F2315058F1102713FB5F
:1008A00022F910B3277E79F2012703FB23F92F7C6D
:1008B00081F200B3102713FB24F92F7971F200C0E5
:1008C00010B3012703FB25F92F7359F200C000B3C1
:1008D000102713FB26F9223040F200C010B3012785
:1008E00003FB27F9243028F64F77206810B3000067
:1008F000F9CF10E41ABF002719C03B503195C31B34
:10090000D04010E41ABF0881033CF9F00B34E9F041
:100910002091F6031981110F1213EDCF4A81441F64
:10092000093641F10D3211F0013E29F70093FD0324
:100930003F914F911F910F912F91DF91CAB7C6FD43
:100940004FCFCF91CFBFCF9118952091FD03222398
:1009500079F31091FB03112369F534306AF1309378
:10096000FB032093F7031091F8033BE0311B309316
:10097000F80322C00091FB030130E4F40AE54F7054
:1009800049F43091600034FD19C000936000CFED50
:10099000D3E018C03091EA0334FD10C00093EA039D
:1009A000CBEED3E00FC02795A8F45150A9F4220F45
:1009B0000000F9CF4AE503C042ED01C0432FC4E176
:1009C000D0E032E011B31C60939A11BB02B320E473
:1009D0001CE05F93012756E002BB279520F451509D
:1009E00021F4220FF9CF012756E000003B5A02BB49
:1009F000D0F2279528F4515029F4220F0000F9CFA6
:100A0000012756E0279502BB20F4515021F4220F14
:100A1000F9CF012756E02991332302BB21F6037F4A
:100A20001091FC03110FC651D04002BB11F010937E
:100A3000F60310E41ABF086011B3137F402F437F01
:100A40005F9100C000C002BB11BB42BB71CF0895D3
:100A500083B7887F826083BF12BE89B7816089BFF8
:100A60001092D1031092D2031092D3031092D403A8
:100A700008958EB5887F83608EBD1DBC1CBC89B770
:100A8000846089BF089585B5887F846085BD14BC66
:100A900089B7806489BF1092D9031092DA0310924B
:100AA000DB031092DC03089580E090E0FC01EE0F80
:100AB000FF1FE054FF4F118210820196883091058C
:100AC000A9F70E9428050E9439050E9443057894E1
:100AD000089593B7987F982B93BF08959EB5987FFC
:100AE000982B9EBD089595B5987F982B95BD089538
:100AF00083B7E82FF0E0E770F070EE0FFF1FEE5EB7
:100B0000FE4F25913491C90108958EB5E82FF0E08C
:100B1000E770F070EE0FFF1FEE5EFE4F25913491EF
:100B2000C901089585B5E82FF0E0E770F070EE0F89
:100B3000FF1FE25EFE4F25913491C9010895883070
:100B400040F4E82FF0E0EE0FFF1FE054FF4F7183F9
:100B500060830895883040F4E82FF0E0EE0FFF1F27
:100B6000E054FF4F118210820895EF92FF920F938D
:100B70001F93CF93DF93EC0112B71092D50310921D
:100B8000D6031092D7031092D80383B7E82FF0E072
:100B9000E770F070EE0FFF1FEE5EFE4F259134916F
:100BA00040E050E060E07BE187EB90E00E94852030
:100BB000B901CA01693B2DE8720726E0820720E0EF
:100BC0009207A0F437E2C131D30780F49E0140E0E0
:100BD00050E00E94332028EE33E040E050E00E94D5
:100BE0008520C901DA01BC01CD0121C028EE33E026
:100BF00040E050E00E948520CA01B9019E0140E01A
:100C000050E00E94332013C08091D5039091D60309
:100C1000A091D703B091D80385B78F7885BF85B7EA
:100C2000806885BF889585B78F7785BF08C09B0191
:100C3000AC01210F311D411D511D79018A01209107
:100C4000D5033091D6034091D7035091D80382B792
:100C500090E0A0E0B0E0542F432F322F2227822BC8
:100C6000932BA42BB52B8E159F05A007B10760F21F
:100C7000DF91CF911F910F91FF90EF900895109207
:100C8000D1031092D2031092D3031092D40308958B
:100C90002091D1033091D2034091D3035091D403DA
:100CA000B901CA0108951092D9031092DA03109283
:100CB000DB031092DC0308952091D9033091DA030D
:100CC0004091DB035091DC03B901CA0108958930DA
:100CD00031F48FB582608FBD8FB58E7F0AC08A30A8
:100CE00019F48FB5826002C08FB58D7F8FBD8FB52F
:100CF00081608FBD1BBC1ABC19BC18BC08952FB5F0
:100D00002E7F2FBD2FB522602FBD2EB528602EBDA2
:100D10002EB520612EBD97BD86BD1BBC1ABC19BC6B
:100D200018BC08958FB58D7F8FBD8FB58E7F8FBD19
:100D30008FB58F778FBD8FB58F7B8FBD8FB58F7D33
:100D40008FBD8FB58F7E8FBD08958FB580688FBDA5
:100D50008FB58F7B8FBD08958FB580628FBD8FB5A6
:100D60008F7E8FBD08958FB58F778FBD8FB58F7BA9
:100D70008FBD08958FB58F7D8FBD8FB58F7E8FBD51
:100D800008959BBD8ABD089599BD88BD08951F92A1
:100D90000F920FB60F9211242F933F934F935F93AF
:100DA0006F937F938F939F93AF93BF93EF93FF9333
:100DB0008091D1039091D203A091D303B091D40339
:100DC0000196A11DB11D8093D1039093D203A093EE
:100DD000D303B093D4038091D5039091D603A0910F
:100DE000D703B091D8030196A11DB11D8093D503FF
:100DF0009093D603A093D703B093D8038091C000FB
:100E00009091C100892B29F0E091C000F091C100C0
:100E10000995FF91EF91BF91AF919F918F917F9134
:100E20006F915F914F913F912F910F900FBE0F9057
:100E30001F9018951F920F920FB60F9211242F93A7
:100E40003F934F935F936F937F938F939F93AF9352
:100E5000BF93EF93FF938091C2009091C300892BC1
:100E600029F0E091C200F091C3000995FF91EF9144
:100E7000BF91AF919F918F917F916F915F914F91B2
:100E80003F912F910F900FBE0F901F9018951F92BA
:100E90000F920FB60F9211242F933F934F935F93AE
:100EA0006F937F938F939F93AF93BF93EF93FF9332
:100EB0008091D9039091DA03A091DB03B091DC0318
:100EC0000196A11DB11D8093D9039093DA03A093DD
:100ED000DB03B093DC038091CA009091CB00892B97
:100EE00029F0E091CA00F091CB000995FF91EF91B4
:100EF000BF91AF919F918F917F916F915F914F9132
:100F00003F912F910F900FBE0F901F9018951F9239
:100F10000F920FB60F9211242F933F934F935F932D
:100F20006F937F938F939F93AF93BF93EF93FF93B1
:100F30008091CE009091CF00892B29F0E091CE00D6
:100F4000F091CF000995FF91EF91BF91AF919F91E3
:100F50008F917F916F915F914F913F912F910F9062
:100F60000FBE0F901F9018951F920F920FB60F9201
:100F700011242F933F934F935F936F937F938F939E
:100F80009F93AF93BF93EF93FF938091C400909191
:100F9000C500892B29F0E091C400F091C5000995A6
:100FA000FF91EF91BF91AF919F918F917F916F9141
:100FB0005F914F913F912F910F900FBE0F901F9017
:100FC00018951F920F920FB60F9211242F933F93F3
:100FD0004F935F936F937F938F939F93AF93BF9341
:100FE000EF93FF938091C6009091C700892B29F061
:100FF000E091C600F091C7000995FF91EF91BF9174
:10100000AF919F918F917F916F915F914F913F91A0
:101010002F910F900FBE0F901F9018951F920F9257
:101020000FB60F9211242F933F934F935F936F93BB
:101030007F938F939F93AF93BF93EF93FF93809191
:10104000C8009091C900892B29F0E091C800F09167
:10105000C9000995FF91EF91BF91AF919F918F9139
:101060007F916F915F914F913F912F910F900FBEA4
:101070000F901F9018951F920F920FB60F92112488
:101080002F933F934F935F936F937F938F939F9390
:10109000AF93BF93EF93FF938091CC009091CD00DD
:1010A000892B29F0E091CC00F091CD000995FF91BA
:1010B000EF91BF91AF919F918F917F916F915F91D0
:1010C0004F913F912F910F900FBE0F901F90189549
:1010D0008093D100F8948091DE038F7E8093DE03AD
:1010E0008091DE0388608093DE0378940895F894FD
:1010F0008091DE038B7F8093DE0378948091D00013
:1011000008958FEC84BD8091DD03833000F58B98CA
:10111000939A8091DE0380FF23C0829BA3C08091BD
:10112000DD03813031F0813040F0823009F0F6C0CB
:1011300006C0839902C08DE096C082E094C0809181
:10114000DE0383FFEBC093988B9A84E28CC080917E
:10115000DD038A3108F079C08091DE0380FD08C08C
:101160008091DE0381608093DE038A98929A0895CD
:10117000829B76C08091DD03873140F4803118F581
:101180008D3061F08F3009F055C00CC08831E1F12D
:10119000883158F1893109F04DC049C08091DE0392
:1011A0008D7F4DC08091DE038B7F8093DE03839B18
:1011B00005C080E88093D00081E014C01092D30075
:1011C0001092D00037C08091D00086958093D000D7
:1011D000839B30C08091D00080688093D000809144
:1011E000D3008F5F8093D30025C0839B05C080917F
:1011F000D3008F5F8093D3008091D30080FD1AC00D
:101200008091DE03826010C0839905C08091DE0367
:1012100082608093DE038091DE0381FD0BC0939892
:101220008B9A8091DE0384608093DE0303C08B98E9
:10123000939A6CC092988A9A8091DE038E7F8093F5
:10124000DE038091DD038F5F0EC08091DD038F325E
:1012500008F064C08091DE0380FF10C0829906C050
:101260008B98939A81E08093DD0308958091DE034B
:101270008E7F8093DE0392988A9A08958091DE0390
:1012800081608093DE038A98929A8091DD038C328C
:1012900028F4853280F48432E1F507C08D3299F16B
:1012A0008D32E8F08E32A9F531C08091D100809363
:1012B000D2001092D3008091D20080FF08C08B989A
:1012C000939A8091D3008F5F8093D30002C093984C
:1012D0008B9A8091D20086958093D2001AC080911B
:1012E000D30080FF03C093988B9A02C08B98939A87
:1012F0008091DE03877F8093DE038091DE0380612F
:101300008093DE0306C08B98939A03C01092DD038E
:1013100008958091DD038F5F8093DD03089510921F
:10132000DD0381E18093DE038A98929A8B98939AE9
:101330000E94430582E00E94730585E061E878E041
:101340000E949F058FEC84BD089585B7826085BF9C
:101350008BB780648BBF8BE48093EB038AE580932B
:10136000EA0308951F93CF93DF936091FB036350CB
:1013700067FDCAC08091F803CCE0D0E0C81BD1095A
:10138000C150DC4F8091F7038D3209F0AAC068305C
:1013900009F0B8C083EC8093DF038AE58093600096
:1013A0001092D4008881807641F0CE010E94BA1E4E
:1013B000282F8F3F09F484C08AC09A811092E803D5
:1013C0008981882321F41092E90322E072C08530DC
:1013D00019F49093FC036CC0863009F055C08B81E2
:1013E000813059F489B78B7F89BF8EE591E0909366
:1013F000FA038093F90322E143C0823041F480E78D
:1014000091E09093FA038093F90322E239C083308C
:10141000F9F48A81882341F48EE291E09093FA03F3
:101420008093F90324E02CC0813041F482E391E001
:101430009093FA038093F9032CE122C08230F9F4EF
:101440008EE491E09093FA038093F90320E118C0B1
:10145000813241F482E891E09093FA038093F9039A
:1014600029E00EC0823259F484E197E09093FA03A8
:101470008093F90389B7846089BF25E501C020E026
:1014800080E48093D40023C0883021F421E08EEFE3
:1014900093E011C0893019F49093FE0309C08A309B
:1014A00011F421E006C08B3019F48BE48093EB0338
:1014B00020E088EE93E09093FA038093F90307C04D
:1014C000888187FD2E8180E88093D40006C08F81BB
:1014D000882319F48E81821708F0822F809361008F
:1014E00011C08091D40087FF0DC0CE010E94FC1E68
:1014F0008F3F21F48EE18093600004C0882311F0B7
:10150000109261001092FB038091600084FF46C03E
:10151000809161008F3F09F441C0182F893008F095
:1015200018E0811B809361008091DF0398E8892790
:101530008093DF03112321F12091F9033091FA0305
:101540008091D40086FF0AC0912FF901A0EEB3E08C
:1015500084918D9331969150D9F708C0912FD9017C
:10156000E0EEF3E08D9181939150E1F7C90101968E
:101570001150810F911D1F5F9093FA038093F9031F
:1015800080EE93E0612F0E94E903612F6C5F6C3065
:1015900019F08FEF809361006093600094E180B355
:1015A0008C7031F49150D9F71092FC031092F6032D
:1015B000DF91CF911F9108951F93DC01162F809129
:1015C000EA0384FF07C08091EB0398E889278093A2
:1015D000EB0303C08AE58093EA03912FECEEF3E07E
:1015E0008D91819391501916DCF38CEE93E0612F6D
:1015F0000E94E9031C5F1093EA031F9108958093F2
:10160000EB0008958091EB0008951092D5000895A5
:101610008091EB0090E080FF02C0909A01C090980A
:10162000AC014270507081FF02C0919A01C0919844
:101630002091EC0082FF04C0969A2223C9F404C0D2
:1016400096982130A9F409C081E08093EC00452BE5
:1016500011F485E007C084E005C01092EC00452B32
:1016600021F483E08093DA00089582E08093DA0029
:1016700008958091DF008330C1F48FEF91E0909363
:10168000E7008093E6008091E9008C3038F58F5FA9
:101690008093E9009FEF899FC00111246CE070E006
:1016A0000E9472206093E80008958430B9F48FEFAF
:1016B00091E09093E7008093E6008091E900882311
:1016C00069F081508093E9009FEF899FC001112448
:1016D0006CE070E00E9472206093E8000895209111
:1016E000630030E0AC01429FC001439F900D529FC8
:1016F000900D11246FEF70E00E947220CB010895CD
:10170000909891988091DF00823011F0843029F414
:101710001092E5001092E40008C0882311F0833095
:1017200021F481E08093EA0008951092EA00089580
:101730008091EA00813051F18091E4009091E500C0
:1017400068E070E00E947220CB01909581959F4FD8
:1017500081509F4F0E946F0B0E94C4068091E4004D
:101760009091E500885F974044F080E090E00E940F
:10177000C406949881E08093EA008091E4009091FF
:10178000E50001969093E5008093E40008951F938F
:10179000182F8091D500882309F479C10E94E90DA2
:1017A000882319F00E94980B72C11130C1F5809105
:1017B000D6009091D70001969093D7008093D600E1
:1017C000855893409CF18091D8009091D900019662
:1017D0009093D9008093D800893C91053CF1809189
:1017E000EB009091620080FF06C0913011F4909858
:1017F0000BC0909A05C0913011F4909A05C0909852
:101800001092D7001092D6008091620091E0892753
:10181000809362001092D9001092D80007C01092F5
:10182000D9001092D80081E0809362002091DA0004
:10183000222311F18091DB009091DC0001969093BE
:10184000DC008093DB0085369105D4F0253059F01B
:10185000233049F0243011F0223011F4919804C063
:101860008091EB0081FD919A1092DC001092DB00D8
:1018700021502093DA0004C01092DC001092DB00AB
:101880008091DD009091DE0001969093DE008093C0
:10189000DD00019789589341C4F06091DF00809189
:1018A000E000681731F06093E0008BE090E00E9468
:1018B0000723609163008091E100861731F0609307
:1018C000E10089E090E00E9407238091DF008130F1
:1018D00009F058C08091E2009091E300009761F414
:1018E0008091E4009091E50068E070E00E94722031
:1018F000CB010E946F0B13C08230910599F4809147
:10190000E4009091E50068E070E00E947220CB0155
:10191000909581959F4F81509F4F0E946F0B0E9421
:10192000C4060EC08130910511F0039749F48091EF
:10193000E4009091E50001969093E5008093E40027
:101940008091E4009091E500885F97408CF01092C0
:10195000E5001092E4008091E2009091E30001968E
:1019600064E070E00E9472209093E3008093E200B4
:101970008091E4009091E50001969093E5008093BA
:10198000E40085C08330D1F58091E6009091E700B6
:10199000009731F001979093E7008093E60028C00C
:1019A0002091E8002223F1F08091E4009091E5007D
:1019B00001969093E5008093E4000897CCF0109294
:1019C000E5001092E40021502093E8008FEF90E0B2
:1019D000821B91096BEE7FEF0E947220645F60931F
:1019E000E90006C01092E9001092E5001092E400B0
:1019F0008091E80090E00E946F0B3CC08430E9F5D4
:101A00008091E6009091E700009731F00197909364
:101A1000E7008093E60029C02091E8002F3FF1F015
:101A20008091E4009091E50001969093E500809309
:101A3000E4000897D4F01092E5001092E4002F5FC4
:101A40002093E8008FEF90E0821B91096BEE7FEF0F
:101A50000E947220645F6093E90007C08CE080936D
:101A6000E9001092E5001092E4008091E80090E017
:101A70000E946F0B0E94C4060AC01092E5001092EB
:101A8000E40083E090E09093E3008093E2001F91F4
:101A900008959091DF00992319F480E090E010C040
:101AA000913049F41092E5001092E4001092E300A6
:101AB0001092E2000895923031F48091630090E03A
:101AC0000E94C4060895892F83508230A0F483E0D9
:101AD0008093E900943019F481E08093E9008091CB
:101AE000E9009FEF899FC00111246CE070E00E9423
:101AF00072206093E80008950E94080B0E94490D2F
:101B000008958091DF0090E0019665E070E00E940A
:101B100072208093DF001092DE001092DD000E94A0
:101B2000490D0895809163008E3191F08951809321
:101B300063008E3118F48EE1809363008091DF00A2
:101B4000823011F40E94490D1092DE001092DD00E7
:101B50000895809163008F3F99F090E049968F3F00
:101B6000910511F00CF08FEF809363008091DF00FE
:101B7000823011F40E94490D1092DE001092DD00B7
:101B800008958091D500882319F581E08093D500D0
:101B90000E94390588E090E00E9467060E94AC062A
:101BA00089E090E00E94FF22809363008093E1002F
:101BB0008BE090E00E94FF228093DF008F3F11F4C2
:101BC0001092DF008091DF008093E0000E94490DB9
:101BD00008958091ED0008958091ED00882329F407
:101BE00081E08093ED000E94800B08958091ED00CC
:101BF000882311F58091EE009091EF00A091F00004
:101C0000B091F1000196A11DB11D8093EE0090935B
:101C1000EF00A093F000B093F10080539547A040EF
:101C2000B04054F01092EE001092EF001092F000CD
:101C30001092F1000E94EC0D08958091ED00882330
:101C400021F01092ED000E947C0D1092EE00109297
:101C5000EF001092F0001092F10008958091800141
:101C60008160809380010895809180018170089542
:101C70008091800182700895982F8091800180FD6D
:101C80000EC0973041F4109283011092820181E0DE
:101C9000809381010895109280011092810108952E
:101CA00080918401089581E08093840108951092C9
:101CB000800110928801089590E0895C8C3008F4CE
:101CC00091E0892F0895982F895C8C3008F490E07A
:101CD000892F089588E20E945E1588E20E945E15B1
:101CE000089580E2E6E2F4E0DF01982F1D929A95D4
:101CF000E9F710924604E6E1F4E0DF011D928A95CF
:101D0000E9F710927F0108950F931F93FC018081E2
:101D10000E94C9158C01882319F088E60E945E157F
:101D2000812F0E945E15812F0E945E15002319F0FD
:101D300088E60E945E151F910F910895AF92BF92A1
:101D4000CF92DF92FF920F931F93DF93CF930F9267
:101D5000CDB7DEB78C01FF246E010894C11CD11CE5
:101D600084E6A82E80E0B82E25C000D000D000D098
:101D7000EDB7FEB73196ADB7BEB71296DC92CE92F4
:101D80001197B382A282800F911FDC018C91992759
:101D900087FD9095958384830E94FE208DB79EB722
:101DA00006960FB6F8949EBF0FBE8DBFC6010E9467
:101DB000840EF3948F2D90E0F80101900020E9F754
:101DC0003197E01BF10B8E179F0778F20F90CF91A0
:101DD000DF911F910F91FF90DF90CF90BF90AF9058
:101DE0000895CF92DF92EF92FF920F931F93DF93AC
:101DF000CF930F92CDB7DEB78C01009711F52FC0AE
:101E000000D000D000D0EDB7FEB73196ADB7BEB769
:101E10001296FC92EE921197D382C282992787FD87
:101E20009095958384830E94FE208DB79EB7069679
:101E30000FB6F8949EBF0FBE8DBFC7010E94840EDF
:101E400008C07E010894E11CF11C94E6C92E90E0C4
:101E5000D92EF8010F5F1F4F8491882389F60F90C8
:101E6000CF91DF911F910F91FF90EF90DF90CF9076
:101E7000089581E393E00E94F10E0E946A0E2EEF16
:101E800030E080E090E00BC01192E217F307E1F739
:101E900001969F01285F3F4F8131910549F0FC0178
:101EA00043E0EE0FFF1F4A95E1F7EA50FF4FECCFFA
:101EB00081E090E09093900180938F01089584E6F3
:101EC00094E00E94F10E0E946A0E81E080937E01F0
:101ED0008CE08093880110928601089580918F0193
:101EE00090919001892B29F4109280011092880121
:101EF000089585E993E00E94F10E0E946A0E81E048
:101F000080937E018BE0809388018091860180938D
:101F100087011092860108958AE792E00E94F10EEF
:101F20000E946A0E08950E946A0E85EC91E00E945C
:101F3000F10E0E946A0E8BEC91E00E94F10E0E945D
:101F40006A0E80EE91E00E94F10E0E946A0E83EF0D
:101F500091E00E94F10E0E946A0E87EE91E00E94CD
:101F6000F10E0E946A0E87E080938601089581E059
:101F700080937E0180918601893088F48730C0F596
:101F8000833051F1843030F48130B9F0823009F07F
:101F90004CC01FC0853031F1863038F520C08B3001
:101FA00091F18C3028F4893041F18A30F1F528C064
:101FB000843681F18E36C9F536C082E892E00E94FF
:101FC000F10E809191018F5F0E943E160E949E0E3D
:101FD0001EC084EB92E019C083ED92E00BC085EF48
:101FE00092E01AC08DE093E017C010927E011DC0F0
:101FF00080E593E00E94F10E18C089EC93E0FACFDF
:1020000086EF93E009C081E194E00E94F10E0E9406
:102010006A0E0BC08BEB91E00E94F10E0E946A0EDB
:102020001092860102C00E941F1088EE93E02CE2FD
:1020300031E0F9013197F1F70197D9F708950E943E
:102040006A0E82E991E00E94F10E0E946A0E8EE90A
:1020500091E00E94F10E0E946A0E8CEA91E00E94CB
:10206000F10E0E946A0E84EB91E00E94F10E0E9434
:102070006A0E88E0809386010E94B70F08950E943F
:102080006A0E81E392E00E94F10E0E946A0E81E4E2
:1020900092E00E94F10E0E946A0E83EF91E00E948E
:1020A000F10E0E946A0E87E592E00E94F10E0E94F6
:1020B0006A0E87E0809386010E94B70F0895CF9340
:1020C000DF93C5EAD1E0CE0160E00E9407232196AC
:1020D00083E0C532D807B9F787E0809386010E9474
:1020E000B70FDF91CF910895CF93DF9380911504BF
:1020F0008C30D8F4C0E0D0E08091150490E055E039
:10210000880F991F5A95E1F78B559E4FFE01EA5DA6
:10211000FB4F8C0F9D1F60810E9407232196C032C8
:10212000D10551F78FEF80931504DF91CF9108957A
:102130000F931F93CF93DF938C30D0F490E065E042
:10214000880F991F6A95E1F7EC01CB55DE4F8C01A2
:102150000B531E4FCE010E94FF22982F81508E3FBD
:1021600018F4892F0E945E152196C017D10791F7A8
:10217000DF91CF911F910F910895CF92DF92EF924F
:10218000FF920F931F93CF93DF939091910188E873
:10219000989F700111248DE090E0E80EF91ECC2488
:1021A000DD2417C0CE018E0D9F1D0E94FF22F80175
:1021B00081938F012196C830D105A1F70894C11CE5
:1021C000D11C88E090E0E80EF91E91E1C916D10417
:1021D00059F0860173E0000F111F7A95E1F70A505C
:1021E0001F4FC0E0D0E0DECF1092900110928F011F
:1021F000DF91CF911F910F91FF90EF90DF90CF90E3
:102200000895AF92BF92CF92DF92EF92FF920F9319
:102210001F93DF93CF9300D00F92CDB7DEB7D82EA8
:10222000B62EA42EC22E80917E01882309F088C28A
:10223000809186018B3019F0222309F081C28CE84D
:1022400090E06BE04D2D0E94FE147C019091860180
:102250009B3009F06CC08091F500882399F01092B2
:10226000F4001092F5008D2D0E945E15E091460459
:10227000F0E0EB5DFB4F10820E94741087E08093CA
:1022800086014FC2CC2071F080917F01803108F02F
:1022900057C28F5F80937F0186E194E06D2D0E948D
:1022A000521517C006E114E0F80101900020E9F78B
:1022B0003197E01BF10BC8016E2F4D2D0E94FE14CB
:1022C000BC018FEF6F3F780709F43AC2C8010E9442
:1022D000201580914604E82FF0E0EA5DFB4FD082A4
:1022E0008F5F809346048D2D0E945E158091460479
:1022F000803230F087E0809386010E94741011C212
:10230000CC2081F0ACE8B0E0EA0EFB1EF701808142
:10231000893241F481E08093F4001092F30010922E
:10232000F2000EC21092F4001092F50009C2892F3B
:102330008750823008F09DC0FAE0EF16F10408F0F3
:10234000FFC1E0918E01F0E0E557FE4FE08200D042
:1023500000D000D0EDB7FEB731968E010F5F1F4F52
:10236000ADB7BEB712961C930E93119787E690E017
:1023700093838283F582E4820E94FE20EDB7FEB74C
:1023800036960FB6F894FEBF0FBEEDBFC8010E948F
:102390009E0E0E946A0E00918B018091860188300A
:1023A00061F50130E1F4009385010E946A0E8AEF25
:1023B00091E00E94F10E0E946A0E85E092E00E9478
:1023C000F10E0E946A0E84E192E00E94F10E0093E9
:1023D0007E018AE080938801109286015AC1023002
:1023E00029F4009385010E94930F53C1033009F033
:1023F00050C10093850184E62CC0063019F48EE6A6
:1024000080938601809185018130C9F4013011F0FB
:10241000023019F4009386013CC1033031F484E0AA
:10242000809386010E946E0F34C1043011F485E060
:1024300010C0093009F02DC10E94390FC4C082308C
:1024400009F027C1013011F489E021C1023041F4C3
:102450008AE080938601109280011092880119C150
:10246000093009F016C18CE0809386010E945F0F4D
:1024700010C1923089F1FAE0EF16F10408F060C162
:1024800080918E01E82FF0E0E557FE4FE0828F5FEC
:1024900080938E0100D000D000D0EDB7FEB731960A
:1024A0008E010F5F1F4FADB7BEB712961C930E93F0
:1024B000119787E690E093838283F582E4820E94FD
:1024C000FE20EDB7FEB736960FB6F894FEBF0FBEEE
:1024D000EDBFC8010E949E0EFAE0EF16F10428F04D
:1024E00080918601823009F02BC180918601823073
:1024F00009F46BC0833020F4813009F01FC131C072
:10250000833009F4C9C0893009F018C180918E0167
:102510008230E9F490918B018AE0989F9001112418
:1025200080918C01280F311DC90101970C9750F43F
:10253000822F8150809315048BE0809386010E9446
:10254000710EE6C00E946A0E88E494E0DFC088EE57
:1025500093E02CE231E0F9013197F1F70197D9F7D7
:10256000EFC090918B0180919101833050F5192F2C
:102570001150811731F1133020F580918F01909126
:102580009001181619066CF40E946A0E8FE693E00B
:102590000E94F10E0E946A0E0E946E0F109392012B
:1025A00078C00E946A0E82E893E00E94F10E0E94B9
:1025B0006A0E87E080938601109391010E94BD10FE
:1025C00068C00E946A0E87E062C0B0928901A09242
:1025D0008A018FE993E00E94F10E809189018F5F5B
:1025E0000E943E160E949E0E8AE690E00E949E0E79
:1025F00080918A018F5F0E943E160E949E0E8DE69A
:1026000090E00E949E0E809191018F5F0E943E1685
:102610000E949E0E86E790E00E949E0EE09191013E
:1026200081E1E89FF001112480918A01E80FF11DFA
:1026300013E0EE0FFF1F1A95E1F780918901E80F73
:10264000F11DE458FA4FE4918E2F0E943E160E942D
:102650009E0E80E890E00E949E0E80918901E0919C
:102660008A01F0E0B3E0EE0FFF1FBA95E1F7E80F43
:10267000F11DEA50FF4F80810E943E160E949E0E7F
:102680008AE890E00E949E0E0E946A0E83E080938A
:10269000860110928E0152C080918E01833009F024
:1026A00043C090918B0184E6989FA00111248091F2
:1026B0008C012AE0829FC0011124480F591F80918C
:1026C0008D01480F511D4F3F5105E4F48091890160
:1026D000E0918A01F0E0A3E0EE0FFF1FAA95E1F779
:1026E000E80FF11DEA50FF4F408387E08093860199
:1026F00080918F0190919001019690939001809329
:102700008F0106C00E946A0E8BEA93E00E94F10ED0
:1027100083E0EBE8F1E0DF011D928A95E9F7109282
:102720008E010E946A0E0AC088EE93E02CE231E02E
:10273000F9013197F1F70197D9F702C00E94B70F5D
:102740000F900F900F90CF91DF911F910F91FF90FD
:10275000EF90DF90CF90BF90AF900895BF92CF924F
:10276000DF92EF92FF920F931F93CF93DF93EE24AC
:10277000FF24CC24DD2498E8B92E1EC0809191015D
:102780008B9DC00111240D968C0D9D1D8C0F9D1FDE
:10279000F80161918F010E9407232196C830D1056D
:1027A00069F70894E11CF11C88E090E0C80ED91E7E
:1027B00091E1E916F10459F0870183E0000F111F40
:1027C0008A95E1F70A501F4FC0E0D0E0D7CF1092B2
:1027D000900110928F0180918701843039F48093A9
:1027E0008601109280011092880113C0813089F413
:1027F0000E946A0E82E893E00E94F10E0E946A0E27
:1028000087E08093860180919201809391010E94DC
:10281000BD100E94B70FDF91CF911F910F91FF90D4
:10282000EF90DF90CF90BF90089583E0EBE8F1E068
:10283000DF011D928A95E9F710928E0110929101A5
:10284000109285010E94BD100E941F100895FF92F2
:102850000F931F93CF93DF93F82E80918001C62FA3
:10286000D0E0042F10E08823A9F488E8F89EC00186
:1028700011240D969E0143E0220F331F4A95E1F784
:10288000820F931F800F911F0E94FF22982F81506B
:102890008E3F88F081E1F89EC0011124C80FD91F36
:1028A00023E0CC0FDD1F2A95E1F7C00FD11FC458DC
:1028B000DA4FFE019491892FDF91CF911F910F91F3
:1028C000FF9008951F93982F8091800180FD10C084
:1028D000192F195C1C3060F40E949F15882341F069
:1028E0000E944C16812F90E00E94981081E001C058
:1028F00080E01F9108958091800180FF0DC081FDCF
:102900000BC00E949F16882339F08091800182605D
:10291000809380010E941514089580918001816048
:10292000809380018091BF008150823018F40E9412
:10293000A11C02C00E9493190E948C0F08958091DF
:1029400080018823A1F480918101882381F0809106
:10295000820190918301019690938301809382017B
:102960008958934124F0109281010E948D1408959A
:102970000E949F148091800181FF36C080917E016A
:102980008823C9F00E94AE158823A9F080918801A0
:102990008B3019F40E94AE130CC08A3019F40E94D7
:1029A0003F1007C08C3019F40E945F1002C01092D3
:1029B0007E01109288018091F4008823A9F0809113
:1029C000F2009091F30001969093F3008093F2004F
:1029D000895E93404CF081E08093F50089E26FEFCF
:1029E0004FEF20E00E940111089580918401813011
:1029F00021F40E948D14109284010895FC0190E04E
:102A000007C08191841719F4292F30E005C09F5F1A
:102A10009617B8F32FEF3FEFC9010895FC0120810D
:102A200090E008C08191821719F02FEF3FEF06C0A8
:102A30009F5F282F9617B0F3282F30E0C901089523
:102A40009B01FC0101900020E9F73197E81BF90B8D
:102A50006F5F7F4F680F791FE21BF30B820F931F8D
:102A6000AF010E94CB200895FF920F931F93F42E85
:102A70009B01DC010D900020E9F78C01060F171F68
:102A8000A81BB90BA61BB70B2F5F3F4F820F931FDD
:102A9000B801AD010E94CB20F801F0821F910F9187
:102AA000FF900895462FDC010D900020E9F7119763
:102AB000A81BB90BBD010E9434150895282F8091E1
:102AC000B9019091BA01019660E071E00E94722014
:102AD000FC019093BA018093B9018091B701909164
:102AE000B8018E179F0759F4009719F48FEF90E003
:102AF00001C001979093BA018093B9010895E554FC
:102B0000FE4F208308952091B7013091B801809144
:102B1000B9019091BA012817390711F480E008959E
:102B2000C901019660E071E00E947220FC0190935F
:102B3000B8018093B701E554FE4F8081089540E0CD
:102B40002091B7013091B8018091B9019091BA01FB
:102B50002817390709F441E0842F08958091B601C0
:102B6000882319F440E050E00FC040E050E020918D
:102B7000B7013091B8018091B9019091BA0128173D
:102B8000390711F441E050E0842F08958093B60195
:102B90000895982F81568A3118F4292F2D5510C089
:102BA000892F81548A3120F4292F2D5332E009C016
:102BB000892F8153893010F020E002C0292F235142
:102BC00030E0892F992787FD9095A92FB92FFC0117
:102BD000B097EF35F10508F048C0E65DFF4FEE0F06
:102BE000FF1F0590F491E02D09942EE141C02FE1E3
:102BF0003FC020E23DC021E23BC022E239C023E2D7
:102C000037C024E235C025E233C026E231C027E2D6
:102C10002FC02CE22EC02DE22CC02DE229C02EE2C6
:102C200028C02EE225C02FE224C02FE221C020E3DD
:102C300020C020E31DC021E31CC021E319C023E311
:102C400018C023E315C024E314C024E311C025E316
:102C500010C025E30DC026E30CC026E309C027E31E
:102C600008C027E305C028E304C0222311F428E3A9
:102C700032E0832F922F089527E2FBCF0F931F930B
:102C800003EB11E090E0B8014AE050E00E94DD2043
:102C9000C8011F910F9108952091B7013091B8019B
:102CA0008091B9019091BA012817390739F480E26F
:102CB000E3E9F1E0DF011D928A95E9F708951F939A
:102CC000CF93DF930E948315182FC3E9D1E08823A7
:102CD00031F480E2FE0111928A95E9F712C0FE01FB
:102CE00001900020E9F73197E359F140CE016E2FB2
:102CF000412F0E94FE14BC0197FD05C0CE010E9429
:102D0000201580E005C0CE01612F0E94521581E0A0
:102D1000912FDF91CF911F91089580E090E0FC0109
:102D2000E95BFB4F1082FC01E85AFB4F10820196D1
:102D300081319105A1F78AE08093B8000895E8E514
:102D4000F4E08081882311F080E00895319684E0DA
:102D5000E936F807B1F781E008958F929F92AF921C
:102D6000BF92DF92EF92FF920F931F93CF93DF9367
:102D7000DD24C0E0D0E021E0E22EF12C97E1892EA5
:102D8000912C8FE0A82EB12C87010C2E02C0000FD1
:102D9000111F0A94E2F707BB802F809588BB81E062
:102DA00090E00E940F1FE8E5F4E040E050E0302F93
:102DB0003095842F483048F429B3C701042E02C04F
:102DC000880F991F0A94E2F711C08850883018F4D0
:102DD00023B3C50102C020B3C401841B950BB70106
:102DE00002C0660F771F8A95E2F7CB012095282352
:102DF0009081802F892319F0222329F008C02223F3
:102E000031F0902B01C093239083DD24D3944F5F46
:102E10005F4F31964131510561F62196C830D10599
:102E200009F0B2CFDD2019F01092B70007C08091F1
:102E3000B700843618F48F5F8093B70020E090913C
:102E4000B7008091B800981709F421E0822FDF9134
:102E5000CF911F910F91FF90EF90DF90BF90AF90B7
:102E60009F908F9008951F930E947B140E94AD162F
:102E7000182F0E94B8140E94500E811110E0812F6B
:102E80001F9108954F925F926F927F929F92AF929F
:102E9000BF92CF92DF92EF92FF920F931F93CF9347
:102EA000DF93EE24FF2451E0C52ED12C47E1442EC0
:102EB000512C3FE0632E712C47C01C2F8091BC0227
:102EC0006C2F492D0E942714082F8E3F31F08B3F25
:102ED00079F58091BC02823059F5A7BAB8BA81E081
:102EE00090E00E940F1F183048F429B3C6010C2E41
:102EF00002C0880F991F0A94E2F711C018501830C9
:102F000018F423B3C30102C020B3C2018C1B9D0B74
:102F1000A60102C0440F551F8A95E2F7CA01209509
:102F2000282331F00E3F11F481E027C00B3F21F13F
:102F30002196C131D10509F0C0CF0894E11CF11CE4
:102F400058E0E516F10471F09E2CC6010E2C02C06B
:102F5000880F991F0A94E2F7A82EB82EB094C0E00B
:102F6000D0E0ABCF8091BB02813021F482E080932E
:102F7000BC0203C01092BC0280E0DF91CF911F9190
:102F80000F91FF90EF90DF90CF90BF90AF909F9008
:102F90007F906F905F904F9008951F93182F8E3FF2
:102FA00009F441C06623C1F10E94390B1C3F49F06E
:102FB0008091BD028823B9F01A32A9F41092BB02A5
:102FC00006C08091BB0291E089278093BB0280916B
:102FD000BB02882341F50E94020B80FF02C0909A39
:102FE00022C0909820C0193221F481E08093BD0264
:102FF0001DC0882311F0193311F01D3F19F40E94F0
:10300000810D11C01A3F19F40E94A90D0EC0193F7D
:1030100061F40E94920D09C08C3F29F0893229F495
:103020001092BD0202C080E001C081E01F910895AE
:10303000282F8F3F31F41092BF0281E08093C702A6
:1030400008958E3F21F08D3F29F41092BF02109217
:10305000C70208958091C702882351F08091BF0272
:10306000E82FF0E0EF56FC4F20838F5F8093BF0284
:103070008091C5029091C602019668EC70E00E94B2
:103080007220FC019093C6028093C5028091C30216
:103090009091C4028E179F0759F4009719F487EC9A
:1030A00090E001C001979093C6028093C5020895F5
:1030B000E853FD4F208308952091C3023091C4024C
:1030C0008091C5029091C6022817390711F480E05B
:1030D0000895C901019668EC70E00E947220FC011D
:1030E0009093C4028093C302E853FD4F80810895FA
:1030F00040E02091C3023091C4028091C5029091BA
:10310000C6022817390709F441E0842F0895109268
:10311000C4021092C3021092C6021092C50210920D
:10312000BF021092C00210929B0310929C03109257
:103130009D0310929E03E7E4F4E0119284E0E835E9
:10314000F807D9F70895EAE6F4E0119284E0EA3F3F
:10315000F807D9F725E335E006C0FC01E659FB4F37
:10316000808182608083F901849190E02F5F3F4FDE
:10317000009799F728E335E006C0FC01E659FB4FBC
:10318000808184608083F901849190E02F5F3F4FBC
:10319000009799F72CE335E006C0FC01E659FB4F98
:1031A000808188608083F901849190E02F5F3F4F98
:1031B000009799F720E435E006C0FC01E659FB4F83
:1031C000808181608083F901849190E02F5F3F4F7F
:1031D000009799F72DE635E006C0FC01E659FB4F54
:1031E000808180618083F901849190E02F5F3F4F5F
:1031F000009799F7E7E4F4E0119284E0E835F807E6
:10320000D9F708951F93CF93DF93982F282F30E09D
:10321000F901E359FB4F1491662309F450C08093E0
:10322000900310929B0310929C0310929D031092A6
:103230009E031092FB04E901C659DB4F888181FF90
:103240002EC0963421F0983409F069C00EC08FEF7B
:103250000E94181880EE0E94181882E10E94181827
:1032600080EE0E9418188CE726C08DEF0E94181877
:1032700081EE0E94181884E10E94181887E70E94C6
:10328000181881EE0E94181880EF0E94181884E127
:103290000E94181880EF0E94181887E73BC082FD33
:1032A00038C08FEF0E941818888180FF03C080EE1D
:1032B0000E941818812F0E9418188EEF2BC0809141
:1032C0009003891711F41092BF02E92FF0E0E6593C
:1032D000FB4F808181FF13C0963409F580EE0E9478
:1032E000181880EF0E9418188CE70E94181880EEBA
:1032F0000E94181880EF0E94181882E10BC082FD0E
:103300000EC080FF03C080EE0E94181880EF0E945C
:103310001818812F0E9418188CEF0E941818DF913E
:10332000CF911F91089588E660E00E94021987E618
:1033300060E00E94021989E660E00E940219089587
:103340000E949F1590E0882309F491E0892F089549
:1033500081E08093D0030E94C10D0E94F51408956E
:10336000DF92EF92FF920F931F93182F062FE42EF8
:10337000D22E0E94CD17F82E0E94340E882339F0E9
:10338000812F6E2D4D2D202F0E94011106C0FF2090
:1033900021F0812F602F0E9402191F910F91FF9041
:1033A000EF90DF9008956F927F928F929F92AF92ED
:1033B000BF92CF92DF92EF92FF920F931F93CF9322
:1033C000DF930E949F15882349F081E00E94C61573
:1033D0000E943317882309F47DC014C080E00E9446
:1033E000C6150E945F16813041F4892F61E00E946A
:1033F00002198DEF0E9418186DC0892F60E00E949D
:10340000021968C00E944217882EBB24EE24FF24B4
:1034100091E0692E712C40C0AC2EFE01E95BFB4FA0
:10342000D080FE01E85AFB4F00810921882D6C2FC6
:103430004C2D0E942714182F002399F0882389F01F
:103440000E946214882309F457C044C0E12FF0E0C1
:10345000EE0FFF1FE753F0408081B82A8B2D0E94AA
:103460003C0ED920D01669F0112359F0002319F031
:10347000812F61E002C0812F60E04C2D2A2D0E9437
:10348000B0192196C131D10539F60894E11CF11C1F
:1034900088E0E816F10461F0CE2CC3010E2C02C0C6
:1034A000880F991F0A94E2F7982EC0E0D0E0B4CFBD
:1034B00020E030E0F901E95BFB4FD901A85ABB4F8E
:1034C0008C9180832F5F3F4F2131310599F721E0A7
:1034D00030E002C020E030E0C901DF91CF911F91C0
:1034E0000F91FF90EF90DF90CF90BF90AF909F90A3
:1034F0008F907F906F900895173608F0A7CFB1CFC7
:103500001F93162F8E3F11F08093FA040E946808D3
:103510001093FB041F9108958F929F92AF92BF92D8
:10352000CF92DF92EF92FF920F931F9388E08093E8
:10353000FB040E948F090E94A3180E948D160E940E
:103540008718789416E9812E99249394B5E0AB2ED0
:10355000B12CC12CD12C8091BF008823F9F480912B
:10356000D0038823D9F48091CE039091CF030196A4
:103570009093CF038093CE030197815D974074F0C1
:1035800081E08093BF001F910F91FF90EF90DF903B
:10359000CF90BF90AF909F908F9008958091DE0361
:1035A0008091DE0382FFB8C08091C1029091C20277
:1035B0008C3F910561F02091C3023091C40280914B
:1035C000C5029091C6022817390709F0A5C00E94CC
:1035D0007708182F6091FB04623009F44FC0633004
:1035E00018F4613039F444C0663009F485C067309E
:1035F00009F44DC0133F61F1143F70F41E3EB9F061
:103600001F3E20F41D3E09F085C01FC0103FD1F0C1
:10361000123F09F07FC00DC0163FE9F0173F08F4D4
:1036200079C01E3F61F01F3F09F074C005C08EEEE7
:103630006CC18AEF64E069C18AEF68E066C180917D
:10364000FA0463C18AEF62E060C18AEF66E05DC19F
:103650008AEF67E05AC19092B900A092BA00B09286
:10366000BB00C092BC00D092BD000E94871852C01F
:10367000853F09F44FC08AEF61E047C10E94871877
:10368000112311F060E001C063E08AEF3EC1682FB2
:1036900070E0CB0180769070A5E095958795AA950E
:1036A000E1F78093B900AB0148715070F3E0559594
:1036B0004795FA95E1F780E090E021E030E003C023
:1036C000220F331F019684179507D4F3677070702B
:1036D000269FC001279F900D369F900D1124AA2789
:1036E00097FDA095BA2F8093BA009093BB00A0934A
:1036F000BC00B093BD000EC00E94A819912F80E0BD
:1037000010FD84E091FD816092FD82600E94FF0ABD
:103710000E94080B8AEFF8C08091DE0384FF1BCF64
:103720008091FB04843009F4E7C0853030F48823AD
:1037300071F0833009F00FCFDDC0883009F4E1C0AB
:103740008C3009F45FC0853009F005CFD8C02091D6
:10375000C3023091C4028091C5029091C60228171D
:10376000390711F40E94D3198091BB020E94C70B44
:103770000E945C18282F30E03093C2022093C102CF
:103780002C3F310509F4E7CE232B21F060E00E94A5
:10379000801A60C08091BF02882309F4DCCE20919A
:1037A0009B0330919C0340919D0350919E032F5F9A
:1037B0003F4F4F4F5F4F20939B0330939C034093A9
:1037C0009D0350939E038091B900889DC0011124F0
:1037D0008A519F4FAA2797FDA095BA2F281739071E
:1037E0004A075B070CF4B7CE10929B0310929C0320
:1037F00010929D0310929E031092C0028CE0809361
:10380000FB04A9CE8091C002882311F40E94D31931
:103810008091BB020E94C70B8091BF028823C1F038
:103820002091C3023091C4028091C5029091C602DA
:103830002817390769F480919B0390919C03A0910C
:103840009D03B0919E030197A105B10561F40FC0DE
:103850001092FB0410929B0310929C0310929D0304
:1038600010929E0378CE8091C0028823A9F0909197
:10387000C002E92FF0E0EF56FC4F80819F5F9093EC
:10388000C0026CE00E94801A6091BF028091C00269
:103890000E9452209093C002E0909B03F0909C0302
:1038A00000919D0310919E030894E11CF11C011DE1
:1038B000111D6091BA007091BB008091BC00909185
:1038C000BD002AE030E040E050E00E9433209B0140
:1038D000AC012D5F3F4F4F4F5F4FC801B7010E94B2
:1038E000A72060939B0370939C0380939D03909308
:1038F0009E0331CE82E008C08BEA65E006C083E813
:1039000003C00E9487188AEA60E00E94801A23CED2
:103910008091A103882331F40E949F1520E030E0BC
:10392000882311F421E030E0822F089588E0E3EA53
:10393000F3E0DF011D928A95E9F781E08093A3030C
:10394000089580E2ECEAF3E0DF011D928A95E9F741
:103950000895982F893F08F044C081578A3198F420
:1039600081E080939F03E92FF0E0EE0FFF1FE55EFB
:10397000FB4F2591349182E08093A3032093A4030D
:103980003093A5032EC0892F8756883078F4E92F0D
:10399000F0E0EE0FFF1FE753F04080819091A40309
:1039A000892B8093A4030E943C0E1BC09923C9F06D
:1039B0002091FC042830A8F4892F8D58823048F4D7
:1039C000E92FF0E0EE0FFF1FE95EFB4F8591949128
:1039D000982FE22FF0E0ED55FC4F90832F5F20935E
:1039E000FC0480E00895AF92BF92CF92DF92EF92F5
:1039F000FF921F93CF93DF930E949F15882309F0B6
:103A000046C00E94961C0E945F16E3E9F1E0DF01C8
:103A10000D900020E9F71197AE1BBF0B82E0809359
:103A2000FC04EF01EA2EFF246F01CE0CDF1C3CEA00
:103A3000A32E33E0B32E19C01881812F875688300A
:103A400080F0F50101900020E9F73197EC5AF3403E
:103A50008CEA93E06E2F412F0E94FE148F5F9F4FE0
:103A600019F4812F0E94A91C219643E951E0CC153D
:103A7000DD0511F781E08093A1032CEA33E0F70123
:103A80003196C901BA01AF010E94C22008C08091DD
:103A9000A103882321F00E94961C1092A10381E0CB
:103AA000DF91CF911F91FF90EF90DF90CF90BF906B
:103AB000AF9008952F923F925F926F927F928F9274
:103AC0009F92AF92BF92CF92DF92EF92FF920F93AD
:103AD0001F93DF93CF930F92CDB7DEB70E943317BA
:103AE000882309F4A2C00E944217582E82E08093D6
:103AF000FC040E94961C88241982CC24DD2441E019
:103B0000642E712C60C0A22CF101E95BFB4F108187
:103B1000F101E85AFB4FF080F920852D622D4B2DE5
:103B20000E942714082FFF2039F0882329F00E94D3
:103B30006214882309F079C0E92CE122EF1471F1B5
:103B4000002309F486C0FF2041F0802F61E00E942D
:103B5000CD17182F0E941D0E07C0802F60E00E9415
:103B6000CD17182FEE20C1F00E94340E8823A1F04B
:103B7000FF2049F0802F6B2D4A2D21E00E9401117A
:103B800081E0898311C0802F6B2D4A2D20E00E9497
:103B90000111E1E0E98308C0112331F0FF2021F099
:103BA000802F0E94A91C882E0894211C311CF1E151
:103BB0002F16310409F0A7CF0894C11CD11C88E04E
:103BC000C816D10461F0BC2CC3010C2C02C0880FB4
:103BD000991F0A94E2F7982E2224332494CF8091DF
:103BE0009F03882369F08091A303823049F082E02B
:103BF0008093A3031092A4031092A50310929F0335
:103C000020E030E0F901E95BFB4FD901A85ABB4F36
:103C10008C9180832F5F3F4F2131310599F7E981E6
:103C2000E13019F0882D816001C080E00F90CF91C4
:103C3000DF911F910F91FF90EF90DF90CF90BF9099
:103C4000AF909F908F907F906F905F903F902F905C
:103C5000089511E089CFEF92FF920F931F930E9476
:103C6000A509789400E010E0EE24E3948091BF0071
:103C70008130D9F48091D0038823B9F48091CE03A8
:103C80009091CF0301969093CF038093CE03019739
:103C9000815D974054F01092BF008BB78F7B8BBF34
:103CA0001F910F91FF90EF9008950E94B209002399
:103CB00099F40E945A1D082F08B600FE0FC0E8BEF6
:103CC000F090AB03FF2051F0153010F401E007C075
:103CD0005BEFF52EF10E03C00E945A1DF12E80916C
:103CE000EA0384FF2EC08091A003882361F0109224
:103CF000A0030E94961C83EA93E068E00E94DC0A1D
:103D00000E94F5141EC00E94881C882341F00E9466
:103D1000F31C83EA93E068E00E94DC0A12C00023EF
:103D200081F08091A303823021F483EA93E063E081
:103D300005C0813029F483EA93E068E00E94DC0A40
:103D400000E00E94F60D8091BB020E94C70B0E940A
:103D5000881C882311F080E001C081E00E94C61514
:103D60001F2D84CF81E08093A0030E94C10D0E948B
:103D70001D0E0895CF93DF9321E02093D003EC0133
:103D800083EA93E09093FA038093F9038881807625
:103D9000803271F58981813011F488E02AC0893040
:103DA00041F48E819F81029719F52093A2038FEF32
:103DB00020C0823019F48BEA93E014C08A3031F4C9
:103DC0000E94B21E8B818093AB0312C0833031F40A
:103DD0008B81882369F41092BE000BC08B3041F4B4
:103DE0008EEB90E09093FA038093F90381E001C099
:103DF00080E0DF91CF910895FC018091A203882398
:103E000051F0623041F48081813029F481810E9437
:103E1000FF0A0E94080B1092A20381E008950F93FD
:103E20001F930091CC031091CD03039665E070E0E1
:103E30000E945E2080E090E02CE030E040E050E026
:103E40000E943320060F171F1093CD030093CC035D
:103E50001F910F9108958D98959A08958D9A959830
:103E6000089521E030E002C0220F331F6A95E2F787
:103E7000822308951F9310E0812F0E94AA051F5FDF
:103E80001730D1F789B78E7F89BF89B78B7F89BFFC
:103E900089B78F7B89BF1F9108959FEF97BB98BB10
:103EA0001ABA14BA9BBB95BB9FE191BB90EE92BB33
:103EB000882369F08BE090E00E940F1F83E181BBB3
:103EC00085E083BF0E943A1F8D98959A08958D9A38
:103ED00095980895F8940E94050B1092CF031092C4
:103EE000CE031092D0030895AF92BF92CF92DF928B
:103EF000EF92FF920F931F93CF93DF938FEF8093F7
:103F0000BF0087BB88BB1ABA14BA8BBB85BB11BA7A
:103F100080E882BB81E090E00E940F1F10E00E94C9
:103F2000AD16882331F51F5F1E31C9F722C0888185
:103F30008C2181F0F7018491803119F40E94530E95
:103F400009C0883119F4F1E0DF2A04C0833111F48B
:103F500082E0D82A2196E8E0F0E0EE0EFF1EF4E0C1
:103F6000C936DF0721F70F5F1F4F0830110539F4FD
:103F700017C0DD2400E010E091E0A92EB12CC501AE
:103F8000002E02C0880F991F0A94E2F7C82EC8E5D8
:103F9000D4E08CE7E82E85E0F82EE00EF11EC7CFC6
:103FA000DD2019F0D394D092BF006091BF0064303F
:103FB00021F48CE090E06FEF04C0643028F48CE0D2
:103FC00090E00E94072306C08CE090E00E94FF2250
:103FD0008093BF008A98929A2091BF002430D0F03D
:103FE00080E090E0829907C092FD09C08F5F863023
:103FF00060F021E00AC0829B09C092FD02C080E00F
:1040000004C08F5F863008F020E090B3223050F774
:104010002093BF00CCE2D1E08091BF00815082307C
:1040200038F40E946A1F81E00E944D1F0E942B1EDF
:104030008091BF00882311F0833071F782B38360D1
:1040400082BB88EE93E0FE013197F1F70197D9F733
:1040500082B38C7F82BB0E946A1F80E00E944D1F4A
:104060000E948C1AD9CF629FD001739FF001829F6A
:10407000E00DF11D649FE00DF11D929FF00D839FF7
:10408000F00D749FF00D659FF00D9927729FB00D94
:10409000E11DF91F639FB00DE11DF91FBD01CF01A7
:1040A00011240895991B79E004C0991F961708F010
:1040B000961B881F7A95C9F780950895AA1BBB1B8C
:1040C00051E107C0AA1FBB1FA617B70710F0A61B18
:1040D000B70B881F991F5A95A9F780959095BC0139
:1040E000CD01089597FB092E07260AD077FD04D04D
:1040F000E5DF06D000201AF4709561957F4F089592
:10410000F6F7909581959F4F0895A1E21A2EAA1B6C
:10411000BB1BFD010DC0AA1FBB1FEE1FFF1FA21777
:10412000B307E407F50720F0A21BB30BE40BF50B74
:10413000661F771F881F991F1A9469F760957095FD
:10414000809590959B01AC01BD01CF01089597FB2F
:10415000092E05260ED057FD04D0D7DF0AD0001C4B
:1041600038F450954095309521953F4F4F4F5F4F14
:104170000895F6F790958095709561957F4F8F4FD4
:104180009F4F0895FB01DC0102C001900D92415048
:104190005040D8F708956817790768F4FB01DC01EF
:1041A000E40FF51FA40FB51F02C002900E924150FC
:1041B0005040D8F708950C94C220FB019F01E89469
:1041C0004230C4F04532B4F44A3029F497FB1EF46F
:1041D000909581959F4F642F77270E945E20805D88
:1041E0008A330CF0895D8193CB010097A1F716F417
:1041F0005DE251931082C9010C942A23AEE0B0E035
:10420000E4E0F1E20C94D2230D891E8986E08C83D0
:104210001A8309838FEF9FE79E838D839E01275E1C
:104220003F4FCE0101966F89788DA9010E9422210E
:104230002F813885020F131FF80110822E96E4E0BB
:104240000C94EE23ABE0B0E0E8E2F1E20C94C4237E
:104250003C012B015A01FC0117821682838181FDEA
:1042600003C06FEF7FEFC6C19AE0892E1E0108944C
:10427000211C311CF3012381F20123FD859123FFD1
:1042800081912F01882309F4B2C1853239F423FDCD
:10429000859123FF81912F01853229F490E0B301AC
:1042A0000E943A23E7CF982FFF24EE249924FFE1C0
:1042B000FF15D0F09B3269F09C3228F4903259F00F
:1042C000933291F40EC09D3249F0903369F441E08D
:1042D00024C052E0F52A84E0F82A28C098E0F92AA0
:1042E00025C0E0E1FE2A22C0F7FC29C0892F8053B7
:1042F0008A3070F4F6FE05C0989C902C1124980E1C
:1043000015C0E89CE02C1124E80EF0E2FF2A0EC054
:104310009E3229F4F6FC6BC140E4F42A07C09C36B7
:1043200019F450E8F52A02C0983649F4F20123FD49
:10433000959123FF91912F01992309F0B8CF892FEF
:104340008554833018F08052833038F444E050E0D4
:10435000A40EB51E5FE359830FC0933631F0933737
:1043600079F0933509F056C020C0F501808189832A
:1043700042E050E0A40EB51E610101E010E012C061
:10438000F501C080D180F6FC03C06FEF7FEF02C063
:10439000692D70E042E050E0A40EB51EC6010E94F7
:1043A0001F238C015FE7F52214C0F501C080D18086
:1043B000F6FC03C06FEF7FEF02C0692D70E042E0B2
:1043C00050E0A40EB51EC6010E9414238C0150E8D3
:1043D000F52AF3FE07C01AC080E290E0B3010E9404
:1043E0003A23EA948E2D90E008171907A8F30EC01F
:1043F000F601F7FC8591F7FE81916F0190E0B30122
:104400000E943A23E110EA94015010400115110571
:1044100079F7EAC0943611F0993669F5F7FE08C0CD
:10442000F501208131814281538184E090E00AC00E
:10443000F501808191819C01442737FD4095542FDF
:1044400082E090E0A80EB91E9FE6F92257FF09C04E
:1044500050954095309521953F4F4F4F5F4FE0E885
:10446000FE2ACA01B901A1012AE030E00E946623B8
:10447000D82ED21840C0953729F41F2D1F7E2AE070
:1044800030E01DC01F2D197F9F3661F0903720F45A
:10449000983509F0ACC00FC0903739F0983709F063
:1044A000A6C004C028E030E00AC0106114FD14600A
:1044B00020E130E004C014FD166020E132E017FF77
:1044C00008C0F501608171818281938144E050E0F0
:1044D00008C0F50180819181BC0180E090E042E05C
:1044E00050E0A40EB51EA1010E946623D82ED2185A
:1044F0008FE7F82EF122F6FE0BC05EEFF522D914FD
:1045000038F4F4FE07C0F2FC05C08FEEF82202C0BA
:104510001D2D01C0192DF4FE0DC0FE01ED0DF11D84
:104520008081803319F499EEF92208C01F5FF2FEF2
:1045300005C003C08F2D867809F01F5F0F2DF3FC97
:1045400014C0F0FE0FC01E1510F09D2C0BC09D2C4A
:104550009E0C911A1E2D06C080E290E0B3010E94CD
:104560003A231F5F1E15C0F304C01E1510F4E11A94
:1045700001C0EE2404FF0FC080E390E0B3010E946D
:104580003A2302FF1DC001FD03C088E790E00EC082
:1045900088E590E00BC0802F867891F001FF02C083
:1045A0008BE201C080E2F7FC8DE290E0B3010E9453
:1045B0003A2306C080E390E0B3010E943A239A9424
:1045C000D914C0F3DA94F101ED0DF11D808190E072
:1045D000B3010E943A23DD20A9F706C080E290E0F3
:1045E000B3010E943A23EA94EE20C1F743CEF301CF
:1045F00066817781CB012B96E2E10C94E023E1996F
:10460000FECF9FBB8EBBE09A99278DB30895262FCE
:10461000E199FECF9FBB8EBB2DBB0FB6F894E29AFB
:10462000E19A0FBE01960895FC010590615070401B
:104630000110D8F7809590958E0F9F1F0895FC016B
:104640006150704001900110D8F7809590958E0FC1
:104650009F1F0895DC01FC01672F71917723E1F71B
:10466000329704C07C916D9370836291AE17BF073F
:10467000C8F308950F931F93CF93DF938C01EB0141
:104680008B8181FF1BC082FF0DC02E813F818C81F9
:104690009D812817390764F4E881F9810193F98332
:1046A000E88306C0E885F985802F0995892B31F4C8
:1046B0008E819F8101969F838E8302C00FEF1FEF33
:1046C000C801DF91CF911F910F910895FA01AA2798
:1046D000283051F1203181F1E8946F936E7F6E5F45
:1046E0007F4F8F4F9F4FAF4FB1E03ED0B4E03CD0F3
:1046F000670F781F891F9A1FA11D680F791F8A1FD6
:10470000911DA11D6A0F711D811D911DA11D20D03C
:1047100009F468943F912AE0269F11243019305DF6
:104720003193DEF6CF010895462F4770405D4193E7
:10473000B3E00FD0C9F7F6CF462F4F70405D4A3334
:1047400018F0495D31FD4052419302D0A9F7EACFFC
:10475000B4E0A6959795879577956795BA95C9F72B
:1047600000976105710508959B01AC010A2E06941E
:104770005795479537952795BA95C9F7620F731FD7
:10478000841F951FA01D08952F923F924F925F9214
:104790006F927F928F929F92AF92BF92CF92DF9251
:1047A000EF92FF920F931F93CF93DF93CDB7DEB7B6
:1047B000CA1BDB0B0FB6F894DEBF0FBECDBF09944A
:1047C0002A88398848885F846E847D848C849B84A1
:1047D000AA84B984C884DF80EE80FD800C811B81AF
:1047E000AA81B981CE0FD11D0FB6F894DEBF0FBEDE
:0A47F000CDBFED010895F894FFCF4E
:1047FA005AFF01FF2563002564002C200020286C45
:10480A00617965723D002064656661756C743D006E
:10481A00206D617070696E673D002900271E1F2098
:10482A002122232425262901000200040008001061
:10483A00002000400080000001000200040008007F
:10484A00100020004000800A05020500000001FF58
:00000001FF
