:100000000C94C5030C94FD030C94E2030C94E203DE
:100010000C944B080C9457070C941E080C94C407BE
:100020000C94F1070C942A070C9497070C94D706AC
:100030000C94E2030C94E2030C94E2030C94E203AC
:100040000C94E2030C94E2030C94E2030C94E2039C
:100050000C94E203EF16DB160B17DF16E116E3161E
:10006000E7160917EB16ED16E916F7161117F11634
:100070001517191722171B171B171B171B171B17F1
:100080001B171B171B171B17071705171317F51639
:1000900017171D17DD161B171B171B171B171B1711
:1000A0001B171B171B171B171B171B171B171B17C0
:1000B0001B171B171B171B171B171B171B171B17B0
:1000C0001B171B171B171B171B17F9160117FD16FC
:1000D000E516F3160D171B171B171B171B171B17FE
:1000E0001B171B171B171B171B171B171B171B1780
:1000F0001B171B171B171B171B171B171B171B1770
:100100001B171B171B171B171B17FB160317FF16B5
:100110000F1700000100080040000001000400006B
:1001200001000800200040008000000100040403DA
:1001300009041C03770069006E006B0065007900FC
:100140006C006500730073002E006B0072001003DA
:1001500070007300320061007600720055001201D9
:10016000100100000008424231E1000101020001DB
:10017000090222000101008032090400000103018C
:100180000100092101010001225500070581030832
:10019000000A0000FC001C322123242B3433433B93
:1001A000424B3A31444D152D1B2C3C2A1D22351A49
:1001B000161E26252E363D3E46455A76660D294E9C
:1001C00055545B5D5D4C520E41494A580506040C7E
:1001D000030B830A010978077C7E7C706C7D716952
:1001E0007A746B7275774A7C7B795A69727A6B7311
:1001F000746C757D7071612F001412111F145911E8
:10020000270000373F5E48103A38302820184D1537
:100210003B34233221502B404B1C43221D0000F164
:10022000F2000000000000008A01210223022402E3
:100230002502260227022A02B500B600B700CD002B
:10024000E200E900EA00830192019401000000004D
:1002500000000000000091009000464800488E8D8C
:1002600000717273006A6B6E6D6546494A4B4C4D66
:100270004E52504F51545871727374757677787925
:100280007A7B7C7D7E7F8081828384858687888956
:100290008A00494C4A4D4B4E6A6E65504F5251543C
:1002A000000000000000000000000000000000004E
:1002B000000000000000000000000000000000003E
:1002C000000000000000000000000000000000002E
:1002D000000000000000000000000000000000001E
:1002E000000000000000000000000000000000000E
:1002F00000000000000000000000000000000000FE
:1003000000000000000000000000000000000000ED
:1003100000000000000000000000000000000000DD
:1003200000000000000000000000000000000000CD
:1003300000000000000000000000000000000000BD
:1003400000000000000000000000000000000000AD
:10035000000000000000000000000000000000009D
:10036000000000000000000000000000000000008D
:10037000000000000000000000000000000000007D
:10038000000000000000000000000000000000006D
:10039000000000000000000000000000000000005D
:1003A000000000000000000000000000000000004D
:1003B000000000000000000000000000000000003D
:1003C000000000000000000000000000000000002D
:1003D000000000000000000000000000000000001D
:1003E000000000000000000000000000000000000D
:1003F00000000000000000000000000000000000FD
:1004000000000000000000000000000000000000EC
:1004100000000000000000000000000000000000DC
:1004200000000000000000000000000000000000CC
:1004300000000000000000000073656C656374201C
:100440006D6F646500313A4B6579204D617070695C
:100450006E6700323A4D6163726F00333A457869D6
:100460007400343A626F6F74206D61707065720051
:10047000676F6F64206279657E00626F6F74206DB4
:10048000617070657220737461727421004D6163D4
:10049000726F00313A53656C656374204D6163720D
:1004A0006F20496E64657800323A45786974003986
:1004B0003A436C65617220416C6C00363A4261636C
:1004C0006B004B6579204D617070657200313A4365
:1004D00068616E6765204C6179657200323A5365D8
:1004E0006C656374204B6579202D20696E7075747E
:1004F000206B6579636F646500333A5361766520DC
:10050000616E64204578697400343A4578697420D6
:10051000776974686F757420536176696E67003906
:100520003A526573657420746F2044656661756C1A
:1005300074202843757272656E74204C61796572FF
:100540002900707332617672550063686F6F73654E
:10055000206C617965722028313A206E6F726D616E
:100560006C2C20323A20464E2C20333A20464E3214
:10057000292063757272656E743D200073656C6529
:100580006374206B65792028616E79206B65792012
:10059000796F752077616E74292000696E707574AB
:1005A000206B6579636F646520286D7573742033E3
:1005B000206E756D6265727329203A200053617652
:1005C00065202620457869742C207468616E6B2044
:1005D000796F752E004578697420776974686F7536
:1005E0007420536176696E672C2073656520796F7E
:1005F00075206C617465722E005265736574207489
:100600006F2064656661756C742063757272656EC7
:1006100074206C6179657200496E70757420436F47
:100620006D6D616E64204E756D6265723A20006E6C
:100630006F7468696E6700536176652063757272C6
:10064000656E74206C61796572004C6F6164206323
:10065000757272656E74206C617965720073617673
:10066000696E672E2E2E00636F6C2C20726F7720C0
:100670003A2000696E76616C6964206B6579636FFE
:1006800064652C20696E70757420616761696E2ED7
:1006900000696E707574204D6163726F20496E64DD
:1006A0006578202830317E31322C206D75737420AE
:1006B00032206E756D6265727329203A200045788C
:1006C0006974206D6163726F2C2073656520796F8A
:1006D00075206C617465722E00696E707574206B84
:1006E000657920286D6178203234206B6579732C10
:1006F0002073746F70203A207072657373204553B5
:100700004320647572696E67203120736563290028
:10071000696E76616C696420496E6465782C206925
:100720006E70757420616761696E2E00636C65611F
:10073000722E2E2E0005010906A10185010507195B
:10074000E029E715002501750195088102950575D9
:100750000105081901290591029501750391039579
:1007600006750815002691000507190029A48100C7
:10077000C0050C0901A101850219002A3C021500DF
:10078000263C02950175108100C011241FBECFE5E3
:10079000D8E0DEBFCDBF10E0A0E6B0E0E2E6FCE4CA
:1007A00002C005900D92AA3EB107D9F715E0AAEE56
:1007B000B0E001C01D92AA37B107E1F70E949B216A
:1007C0000C942F260C940000A82FB92F80E090E005
:1007D00041E050EA609530E009C02D91822797955D
:1007E000879510F084279527305EC8F36F5FA8F3D4
:1007F0000895EADF8D939D930895CF93CFB7CF935C
:10080000C395839BE9F7839B09C0839B07C0839BA8
:1008100005C0839B03C0839B01C0A3C0DF93C0912D
:10082000C403DD27C553DC4F839B02C0DF91EBCFB0
:100830002F930F931F9300B32FEF03FB20F94F93D8
:100840003F9310B34FEF012703FB21F93BE031C089
:100850004E7F012F10B3216028C0102F4D7F2260E2
:10086000000000B329C04B7F2460012F000010B3AB
:100870002BC010B3477F28602AC04F7E00B3206191
:100880002CC04F7D10B320622FC04F7B00B320647B
:1008900032C0422700B349934FEF0000102713FBEB
:1008A00020F910B31C70C9F1297F91F2012703FBD5
:1008B00021F900B3237F89F2315058F1102713FB3F
:1008C00022F910B3277E79F2012703FB23F92F7C4D
:1008D00081F200B3102713FB24F92F7971F200C0C5
:1008E00010B3012703FB25F92F7359F200C000B3A1
:1008F000102713FB26F9223040F200C010B3012765
:1009000003FB27F9243028F64F77206810B3000046
:10091000F9CF10E41ABF002719C03B503195C31B13
:10092000D04010E41ABF0881033CF9F00B34E9F021
:100930002091C2031981110F1213EDCF4A81441F78
:10094000093641F10D3211F0013E29F70093C90338
:100950003F914F911F910F912F91DF91CAB7C6FD23
:100960004FCFCF91CFBFCF9118952091C9032223AC
:1009700079F31091C703112369F534306AF130938C
:10098000C7032093C3031091C4033BE0311B309392
:10099000C40322C00091C7030130E4F40AE54F709C
:1009A00049F43091600034FD19C000936000CBEA37
:1009B000D3E018C03091B60334FD10C00093B603E5
:1009C000C7EBD3E00FC02795A8F45150A9F4220F2C
:1009D0000000F9CF4AE503C042ED01C0432FC4E156
:1009E000D0E032E011B31C60939A11BB02B320E453
:1009F0001CE05F93012756E002BB279520F451507D
:100A000021F4220FF9CF012756E000003B5A02BB28
:100A1000D0F2279528F4515029F4220F0000F9CF85
:100A2000012756E0279502BB20F4515021F4220FF4
:100A3000F9CF012756E02991332302BB21F6037F2A
:100A40001091C803110FC651D04002BB11F0109392
:100A5000C20310E41ABF086011B3137F402F437F15
:100A60005F9100C000C002BB11BB42BB71CF0895B3
:100A700083B7887F826083BF12BE89B7816089BFD8
:100A800010929D0310929E0310929F031092A00358
:100A900008958EB5887F83608EBD1DBC1CBC89B750
:100AA000846089BF089585B5887F846085BD14BC46
:100AB00089B7806489BF1092A5031092A603109293
:100AC000A7031092A803089580E090E0FC01EE0FC8
:100AD000FF1FE651FF4F1182108201968830910569
:100AE000A9F70E9438050E9449050E945305789491
:100AF000089593B7987F982B93BF08959EB5987FDC
:100B0000982B9EBD089595B5987F982B95BD089517
:100B100083B7E82FF0E0E770F070EE0FFF1FEE5E96
:100B2000FE4F25913491C90108958EB5E82FF0E06C
:100B3000E770F070EE0FFF1FEE5EFE4F25913491CF
:100B4000C901089585B5E82FF0E0E770F070EE0F69
:100B5000FF1FE25EFE4F25913491C9010895883050
:100B600040F4E82FF0E0EE0FFF1FE651FF4F7183D6
:100B700060830895883040F4E82FF0E0EE0FFF1F07
:100B8000E651FF4F118210820895EF92FF920F936A
:100B90001F93CF93DF93EC0112B71092A103109231
:100BA000A2031092A3031092A40383B7E82FF0E0EE
:100BB000E770F070EE0FFF1FEE5EFE4F259134914F
:100BC00040E050E060E07BE187EB90E00E94B922DA
:100BD000B901CA01693B2DE8720726E0820720E0CF
:100BE0009207A0F437E2C131D30780F49E0140E0C0
:100BF00050E00E94672228EE33E040E050E00E947F
:100C0000B922C901DA01BC01CD0121C028EE33E0CF
:100C100040E050E00E94B922CA01B9019E0140E0C3
:100C200050E00E94672213C08091A1039091A2031B
:100C3000A091A303B091A40385B78F7885BF85B732
:100C4000806885BF889585B78F7785BF08C09B0171
:100C5000AC01210F311D411D511D79018A012091E7
:100C6000A1033091A2034091A3035091A40382B742
:100C700090E0A0E0B0E0542F432F322F2227822BA8
:100C8000932BA42BB52B8E159F05A007B10760F2FF
:100C9000DF91CF911F910F91FF90EF9008951092E7
:100CA0009D0310929E0310929F031092A00308953B
:100CB00020919D0330919E0340919F035091A0038A
:100CC000B901CA0108951092A5031092A6031092CB
:100CD000A7031092A80308952091A5033091A603BD
:100CE0004091A7035091A803B901CA010895893022
:100CF00031F48FB582608FBD8FB58E7F0AC08A3088
:100D000019F48FB5826002C08FB58D7F8FBD8FB50E
:100D100081608FBD1BBC1ABC19BC18BC08952FB5CF
:100D20002E7F2FBD2FB522602FBD2EB528602EBD82
:100D30002EB520612EBD97BD86BD1BBC1ABC19BC4B
:100D400018BC08958FB58D7F8FBD8FB58E7F8FBDF9
:100D50008FB58F778FBD8FB58F7B8FBD8FB58F7D13
:100D60008FBD8FB58F7E8FBD08958FB580688FBD85
:100D70008FB58F7B8FBD08958FB580628FBD8FB586
:100D80008F7E8FBD08958FB58F778FBD8FB58F7B89
:100D90008FBD08958FB58F7D8FBD8FB58F7E8FBD31
:100DA00008959BBD8ABD089599BD88BD08951F9281
:100DB0000F920FB60F9211242F933F934F935F938F
:100DC0006F937F938F939F93AF93BF93EF93FF9313
:100DD00080919D0390919E03A0919F03B091A003E9
:100DE0000196A11DB11D80939D0390939E03A09336
:100DF0009F03B093A0038091A1039091A203A091BF
:100E0000A303B091A4030196A11DB11D8093A1037A
:100E10009093A203A093A303B093A4038091EA004C
:100E20009091EB00892B29F0E091EA00F091EB0022
:100E30000995FF91EF91BF91AF919F918F917F9114
:100E40006F915F914F913F912F910F900FBE0F9037
:100E50001F9018951F920F920FB60F9211242F9387
:100E60003F934F935F936F937F938F939F93AF9332
:100E7000BF93EF93FF938091EC009091ED00892B4D
:100E800029F0E091EC00F091ED000995FF91EF91D0
:100E9000BF91AF919F918F917F916F915F914F9192
:100EA0003F912F910F900FBE0F901F9018951F929A
:100EB0000F920FB60F9211242F933F934F935F938E
:100EC0006F937F938F939F93AF93BF93EF93FF9312
:100ED0008091A5039091A603A091A703B091A803C8
:100EE0000196A11DB11D8093A5039093A603A09325
:100EF000A703B093A8038091F4009091F500892B8B
:100F000029F0E091F400F091F5000995FF91EF913F
:100F1000BF91AF919F918F917F916F915F914F9111
:100F20003F912F910F900FBE0F901F9018951F9219
:100F30000F920FB60F9211242F933F934F935F930D
:100F40006F937F938F939F93AF93BF93EF93FF9391
:100F50008091F8009091F900892B29F0E091F80038
:100F6000F091F9000995FF91EF91BF91AF919F9199
:100F70008F917F916F915F914F913F912F910F9042
:100F80000FBE0F901F9018951F920F920FB60F92E1
:100F900011242F933F934F935F936F937F938F937E
:100FA0009F93AF93BF93EF93FF938091EE00909147
:100FB000EF00892B29F0E091EE00F091EF00099508
:100FC000FF91EF91BF91AF919F918F917F916F9121
:100FD0005F914F913F912F910F900FBE0F901F90F7
:100FE00018951F920F920FB60F9211242F933F93D3
:100FF0004F935F936F937F938F939F93AF93BF9321
:10100000EF93FF938091F0009091F100892B29F0EC
:10101000E091F000F091F1000995FF91EF91BF91FF
:10102000AF919F918F917F916F915F914F913F9180
:101030002F910F900FBE0F901F9018951F920F9237
:101040000FB60F9211242F933F934F935F936F939B
:101050007F938F939F93AF93BF93EF93FF93809171
:10106000F2009091F300892B29F0E091F200F091C9
:10107000F3000995FF91EF91BF91AF919F918F91EF
:101080007F916F915F914F913F912F910F900FBE84
:101090000F901F9018951F920F920FB60F92112468
:1010A0002F933F934F935F936F937F938F939F9370
:1010B000AF93BF93EF93FF938091F6009091F70069
:1010C000892B29F0E091F600F091F7000995FF9146
:1010D000EF91BF91AF919F918F917F916F915F91B0
:1010E0004F913F912F910F900FBE0F901F90189529
:1010F0008093FB00F8948091AA038F7E8093AA03CB
:101100008091AA0388608093AA0378940895F89444
:101110008091AA038B7F8093AA0378948091FA0030
:1011200008958FEC84BD8091A903833000F58B98DE
:10113000939A8091AA0380FF23C0829BA3C08091D1
:10114000A903813031F0813040F0823009F0F6C0DF
:1011500006C0839902C08DE096C082E094C0809161
:10116000AA0383FFEBC093988B9A84E28CC0809192
:10117000A9038A3108F079C08091AA0380FD08C0D4
:101180008091AA0381608093AA038A98929A089515
:10119000829B76C08091A903873140F4803118F595
:1011A0008D3061F08F3009F055C00CC08831E1F10D
:1011B000883158F1893109F04DC049C08091AA03A6
:1011C0008D7F4DC08091AA038B7F8093AA03839B60
:1011D00005C080E88093FA0081E014C01092FD0001
:1011E0001092FA0037C08091FA0086958093FA0039
:1011F000839B30C08091FA0080688093FA008091D0
:10120000FD008F5F8093FD0025C0839B05C080910A
:10121000FD008F5F8093FD008091FD0080FD1AC06E
:101220008091AA03826010C0839905C08091AA03AF
:1012300082608093AA038091AA0381FD0BC09398DA
:101240008B9A8091AA0384608093AA0303C08B9831
:10125000939A6CC092988A9A8091AA038E7F809309
:10126000AA038091A9038F5F0EC08091A9038F32DA
:1012700008F064C08091AA0380FF10C0829906C064
:101280008B98939A81E08093A90308958091AA0393
:101290008E7F8093AA0392988A9A08958091AA03D8
:1012A00081608093AA038A98929A8091A9038C32D4
:1012B00028F4853280F48432E1F507C08D3299F14B
:1012C0008D32E8F08E32A9F531C08091FB00809319
:1012D000FC001092FD008091FC0080FF08C08B98FC
:1012E000939A8091FD008F5F8093FD0002C09398D8
:1012F0008B9A8091FC0086958093FC001AC08091A7
:10130000FD0080FF03C093988B9A02C08B98939A3C
:101310008091AA03877F8093AA038091AA038061AA
:101320008093AA0306C08B98939A03C01092A903D6
:1013300008958091A9038F5F8093A9030895109267
:10134000A90381E18093AA038A98929A8B98939A31
:101350000E94530582E00E94830585E061E978E000
:101360000E94AF058FEC84BD089585B7826085BF6C
:101370008BB780648BBF8BE48093B7038AE580933F
:10138000B60308951F93CF93DF936091C703635013
:1013900067FDCAC08091C403CCE0D0E0C81BD1096E
:1013A000C553DC4F8091C3038D3209F0AAC0683069
:1013B00009F0B8C083EC8093AB038AE580936000AA
:1013C0001092FE008881807641F0CE010E94BF20FD
:1013D000282F8F3F09F484C08AC09A811092B403E9
:1013E0008981882321F41092B50322E072C08530F0
:1013F00019F49093C8036CC0863009F055C08B81F6
:10140000813059F489B78B7F89BF8EE591E0909345
:10141000C6038093C50322E143C0823041F480E7D4
:1014200091E09093C6038093C50322E239C08330D4
:10143000F9F48A81882341F48EE291E09093C60307
:101440008093C50324E02CC0813041F482E391E015
:101450009093C6038093C5032CE122C08230F9F437
:101460008EE491E09093C6038093C50320E118C0F9
:10147000813241F482E891E09093C6038093C503E2
:1014800029E00EC0823259F485E397E09093C603B9
:101490008093C50389B7846089BF25E501C020E03A
:1014A00080E48093FE0023C0883021F421E08AECA0
:1014B00093E011C0893019F49093CA0309C08A30AF
:1014C00011F421E006C08B3019F48BE48093B7034C
:1014D00020E084EB93E09093C6038093C50307C09C
:1014E000888187FD2E8180E88093FE0006C08F8171
:1014F000882319F48E81821708F0822F809361006F
:1015000011C08091FE0087FF0DC0CE010E94012115
:101510008F3F21F48EE18093600004C0882311F096
:10152000109261001092C7038091600084FF46C052
:10153000809161008F3F09F441C0182F893008F075
:1015400018E0811B809361008091AB0398E88927A4
:101550008093AB03112321F12091C5033091C60381
:101560008091FE0086FF0AC0912FF901ACEAB3E03A
:1015700084918D9331969150D9F708C0912FD9015C
:10158000ECEAF3E08D9181939150E1F7C901019666
:101590001150810F911D1F5F9093C6038093C50367
:1015A0008CEA93E0612F0E94F903612F6C5F6C302D
:1015B00019F08FEF809361006093600094E180B335
:1015C0008C7031F49150D9F71092C8031092C20375
:1015D000DF91CF911F9108951F93DC01162F809109
:1015E000B60384FF07C08091B70398E889278093EA
:1015F000B70303C08AE58093B603912FE8EBF3E0CD
:101600008D91819391501916DCF388EB93E0612F53
:101610000E94F9031C5F1093B6031F9108958091F7
:10162000020108959C01E091FF00EE2389F0809172
:101630000201882369F08E2F865D803120F4F0E06E
:10164000E457F040E0818E2FF90109951092FF00D8
:101650000895E82F865D803140F48091020188234F
:1016600021F0F0E0E457F040E0818E2F08951F93C1
:10167000982F865D6623D9F0803188F4809100012F
:101680008F5F8093000180910101882361F4909322
:10169000FF0081E0809301011092020129C0809136
:1016A000FF00882329F181E08093020121C080316D
:1016B000F8F480910001815080930001E091FF00D7
:1016C000EE2381F080910201882361F4F0E0E4567A
:1016D000F0401081812F0E944416812F0E944416F1
:1016E0001092FF0080910001882311F410920101F3
:1016F0001F9108958093190108958091190108950B
:101700001092030108958091190190E080FF02C0BA
:10171000909A01C09098AC014270507081FF02C055
:10172000919A01C0919820911A0182FF04C0969A63
:101730002223C9F404C096982130A9F409C081E09D
:1017400080931A01452B11F485E007C084E005C0A1
:1017500010921A01452B21F483E08093080108952B
:1017600082E080930801089580910D018330C1F4D7
:101770008FEF91E0909315018093140180911701F0
:101780008C3038F58F5F809317019FEF899FC001E0
:1017900011246CE070E00E94A62260931601089567
:1017A0008430B9F48FEF91E0909315018093140188
:1017B00080911701882369F08150809317019FEF72
:1017C000899FC00111246CE070E00E94A622609302
:1017D000160108952091850030E0AC01429FC001C0
:1017E000439F900D529F900D11246FEF70E00E9467
:1017F000A622CB01089590989198969880910D011A
:10180000823011F0843029F41092130110921201E9
:1018100008C0882311F0833021F481E080931801FF
:10182000089510921801089580911801813051F1A6
:10183000809112019091130168E070E00E94A6224D
:10184000CB01909581959F4F81509F4F0E94EA0B4D
:101850000E94D4068091120190911301885F9740F5
:1018600044F080E090E00E94D406949881E0809358
:101870001801809112019091130101969093130128
:101880008093120108951F93182F809103018823DC
:1018900009F493C10E94940E882319F00E94140C3D
:1018A0008CC10E941821882311F042E004C011303D
:1018B00009F045C041E08091040190910501019635
:1018C0009093050180930401209182003091830060
:1018D00028173907DCF580910601909107010196E0
:1018E0009093070180930601893C91057CF18091DA
:1018F00019019091840080FF09C0913021F482B3D6
:101900004095482307C082B3482B09C0913021F489
:1019100082B3482B42BB08C082B34095482342BBE8
:1019200010920501109204018091840091E08927B2
:1019300080938400109207011092060107C0109254
:1019400007011092060181E0809384002091080134
:10195000222311F18091090190910A01019690933F
:101960000A018093090185369105D4F0253059F09C
:10197000233049F0243011F0223011F4919804C042
:101980008091190181FD919A10920A01109209012A
:1019900021502093080104C010920A0110920901FD
:1019A00080910B0190910C011816190624F50196EF
:1019B00090930C0180930B01885E9340E1F41092A8
:1019C0000C0110920B0160910D0180910E016817BE
:1019D00031F060930E018BE090E00E943B25609116
:1019E000850080910F01861731F060930F0189E027
:1019F00090E00E943B2580910D01813009F058C094
:101A00008091100190911101009761F48091120171
:101A10009091130168E070E00E94A622CB010E9421
:101A2000EA0B13C08230910599F4809112019091D4
:101A3000130168E070E00E94A622CB019095819589
:101A40009F4F81509F4F0E94EA0B0E94D4060EC008
:101A50008130910511F0039749F480911201909122
:101A6000130101969093130180931201809112014A
:101A700090911301885F97408CF01092130110929F
:101A800012018091100190911101019664E070E0C3
:101A90000E94A6229093110180931001809112015F
:101AA000909113010196909313018093120185C0C8
:101AB0008330D1F58091140190911501009731F098
:101AC0000197909315018093140128C0209116016D
:101AD0002223F1F0809112019091130101969093CD
:101AE0001301809312010897CCF010921301109209
:101AF00012012150209316018FEF90E0821B910973
:101B00006BEE7FEF0E94A622645F6093170106C010
:101B10001092170110921301109212018091160178
:101B200090E00E94EA0B3CC08430E9F580911401FA
:101B300090911501009731F00197909315018093D2
:101B4000140129C0209116012F3FF1F0809112015C
:101B500090911301019690931301809312010897BD
:101B6000D4F010921301109212012F5F20931601EE
:101B70008FEF90E0821B91096BEE7FEF0E94A6220F
:101B8000645F6093170107C08CE080931701109287
:101B90001301109212018091160190E00E94EA0B4D
:101BA0000E94D4060AC0109213011092120183E021
:101BB00090E090931101809310011F9108959091EE
:101BC0000D01992319F480E090E010C0913049F4A0
:101BD0001092130110921201109211011092100133
:101BE0000895923031F48091850090E00E94D406EF
:101BF0000895892F83508230A0F483E080931701E9
:101C0000943019F481E080931701809117019FEFC0
:101C1000899FC00111246CE070E00E94A6226093AD
:101C2000160108950E94830B0E94DF0D0895809194
:101C30000D0190E0019665E070E00E94A62280937D
:101C40000D0181E090E090930C0180930B010E94C4
:101C5000DF0D0895809185008E31A1F08951809328
:101C600085008E3118F48EE18093850080910D01FE
:101C7000823011F40E94DF0D81E090E090930C011E
:101C800080930B010895809185008F3FA9F090E02B
:101C900049968F3F910511F00CF08FEF80938500EE
:101CA00080910D01823011F40E94DF0D81E090E0FF
:101CB00090930C0180930B01089580910301882378
:101CC00091F581E0809303010E94490588E00E941C
:101CD00077060E94BC0689E090E00E94332580933D
:101CE000850080930F018BE090E00E943325809364
:101CF0000D018F3F11F410920D0180910D01809321
:101D00000E010E94DF0D8091E900882311F08330DD
:101D100051F48091820090918300959587959093DE
:101D2000830080938200089580911B010895809123
:101D30001B01882329F481E080931B010E94FB0B87
:101D4000089580911B01882311F580911C019091C9
:101D50001D01A0911E01B0911F010196A11DB11D91
:101D600080931C0190931D01A0931E01B0931F014D
:101D7000805E9349A440B04054F010921C01109230
:101D80001D0110921E0110921F010E94970E0895CE
:101D900080911B01882321F010921B010E94120EDA
:101DA00010921C0110921D0110921E0110921F0131
:101DB0000895809126018160809326010895809185
:101DC0002601817008958091260182700895982FD0
:101DD0008091260180FD1AC09730A1F4109229014C
:101DE0001092280181E0809327018091E9008823E7
:101DF00011F0833059F484EC99E09093BA00809309
:101E0000B90008951092260110922701089580913B
:101E10002A01089581E080932A01089510922601F5
:101E200010922E01089590E0895C8C3008F491E0C6
:101E3000892F0895982F895C8C3008F490E0892FC1
:101E4000089588E20E94441688E20E94441608958C
:101E500080E3E2E8F4E0DF01982F1D929A95E9F71C
:101E60001092B204E2EEF3E0DF011D928A95E9F7E9
:101E70001092250108950F931F93FC0180810E9409
:101E8000AF168C01882319F088E60E944416812F32
:101E90000E944416812F0E944416002319F088E600
:101EA0000E9444161F910F910895CF92DF92EF92F6
:101EB000FF920F931F93DF93CF930F92CDB7DEB7AF
:101EC0008C01009711F52FC000D000D000D0EDB7E5
:101ED000FEB73196ADB7BEB71296FC92EE9211974F
:101EE000D382C282992787FD9095958384830E942F
:101EF00032238DB79EB706960FB6F8949EBF0FBEDD
:101F00008DBFC7010E943B0F08C07E010894E11CF1
:101F1000F11C86E8C82E80E0D82EF8010F5F1F4F15
:101F20008491882389F60F90CF91DF911F910F91B3
:101F3000FF90EF90DF90CF90089589EF95E00E9499
:101F4000550F0E94210F22E034E080E090E00BC0AA
:101F50001192E217F307E1F701969F01285F3F4FC7
:101F60008131910549F0FC0143E0EE0FFF1F4A95D6
:101F7000E1F7E650FC4FECCF81E090E09093360122
:101F80008093350108958CE297E00E94550F0E94DE
:101F9000210F81E0809324018CE080932E01109228
:101FA0002C0108958091350190913601892B29F4F7
:101FB0001092260110922E0108958DE596E00E9460
:101FC000550F0E94210F81E0809324018BE08093C4
:101FD0002E0180912C0180932D0110922C010895E7
:101FE00082E495E00E94550F0E94210F08950E94FF
:101FF000210F8DE894E00E94550F0E94210F83E984
:1020000094E00E94550F0E94210F88EA94E00E94FC
:10201000550F0E94210F8BEB94E00E94550F0E94F8
:10202000210F8FEA94E00E94550F0E94210F87E054
:1020300080932C010895AF92BF92CF92DF92FF92CE
:102040000F931F93DF93CF930F92CDB7DEB78C0121
:10205000FF246E010894C11CD11C56E8A52E50E047
:10206000B52E25C000D000D000D0EDB7FEB7319618
:10207000ADB7BEB71296DC92CE921197B382A28210
:10208000800F911FDC018C91992787FD9095958396
:1020900084830E9432238DB79EB706960FB6F894BC
:1020A0009EBF0FBE8DBFC6010E943B0FF3948F2DC4
:1020B00090E0F80101900020E9F73197E01BF10B67
:1020C0008E179F0778F20F90CF91DF911F910F919C
:1020D000FF90DF90CF90BF90AF90089581E0809304
:1020E000240180912C01893088F48730E8F5833011
:1020F00079F1843030F48130E1F0823009F05CC055
:1021000024C0853059F1863060F525C08B30B9F197
:102110008C3030F4893069F18A3009F04DC02CC020
:102120008E3609F447C0883789F1843609F044C0F7
:1021300038C08AE495E00E94550F809137018F5F87
:102140000E9424170E941B101EC08CE795E019C046
:102150008BE995E00BC08DEB95E025C085ED95E012
:1021600022C01092240128C088E196E00E94550FF9
:1021700023C081E996E0FACF8EEB96E014C089ED9A
:1021800096E00E94550F0E94210F16C08AE794E046
:102190000E94550F0E94210F10922C010E941421C1
:1021A0000BC080E794E00E94550F0E94210F10920F
:1021B0002C0102C00E94061188EE93E02CE231E06F
:1021C000F9013197F1F70197D9F708950E94210F8E
:1021D00089EF94E00E94550F0E94210F89E095E05D
:1021E0000E94550F0E94210F8BEB94E00E94550F27
:1021F0000E94210F8FE195E00E94550F0E94210F50
:1022000087E080932C010E946E1008950E94210F98
:1022100089E394E00E94550F0E94210F85E494E029
:102220000E94550F0E94210F83E594E00E94550FF4
:102230000E94210F8BE594E00E94550F0E94210F10
:1022400082E694E00E94550F0E94210F88E080935F
:102250002C010E946E100895CF93DF93C5EAD1E060
:10226000CE0160E00E943B25219683E0C53ED80761
:10227000B9F787E080932C010E946E10DF91CF9117
:1022800008951F93CF93DF938091E1038C30C8F4BE
:10229000C0E0D0E010E38091E103819FC0011124F0
:1022A0008B559E4FFE01EE57FB4F8C0F9D1F60819B
:1022B0000E943B252196C033D10569F78FEF8093AB
:1022C000E103DF91CF911F9108950F931F93CF9357
:1022D000DF93982F8C30C0F480E3989FC0011124C5
:1022E000EC01CB55DE4F8C010B521E4FCE010E94EC
:1022F0003325982F81508E3F18F4892F0E94441661
:102300002196C017D10791F7DF91CF911F910F91BF
:102310000895CF92DF92EF92FF920F931F93CF9386
:10232000DF939091370188E8989F700111248DE028
:1023300090E0E80EF91ECC24DD2417C0CE018E0DEE
:102340009F1D0E943325F80181938F012196C8308B
:10235000D105A1F70894C11CD11C88E090E0E80EDB
:10236000F91E91E1C916D10459F0860163E0000F0E
:10237000111F6A95E1F706501C4FC0E0D0E0DECF98
:102380001092360110923501DF91CF911F910F917C
:10239000FF90EF90DF90CF900895AF92BF92CF92D1
:1023A000DF92EF92FF920F931F93DF93CF9300D0B2
:1023B0000F92CDB7DEB7D82EB62EA42EC22E8091A6
:1023C0002401882309F08EC280912C018B3019F0F2
:1023D000222309F087C28EEA90E06BE04D2D0E9427
:1023E000E0157C0190912C019B3009F06CC080912C
:1023F0002301882399F010922201109223018D2D40
:102400000E944416E091B204F0E0EF57FB4F1082B7
:102410000E94411187E080932C0155C2CC2071F0BD
:1024200080912501883108F05DC28F5F809325017E
:1024300082EE93E06D2D0E94381617C002EE13E075
:10244000F80101900020E9F73197E01BF10BC8017A
:102450006E2F4D2D0E94E015BC018FEF6F3F780766
:1024600009F440C2C8010E9406168091B204E82F08
:10247000F0E0EE57FB4FD0828F5F8093B2048D2D3A
:102480000E9444168091B204803330F087E080933C
:102490002C010E94411117C2CC2081F0AEEAB0E0BD
:1024A000EA0EFB1EF7018081893241F481E08093BE
:1024B0002201109221011092200114C210922201D7
:1024C000109223010FC2892F8750823008F0A3C0D9
:1024D000FAE0EF16F10408F005C2E0913401F0E0F3
:1024E000EF5CFE4FE08200D000D000D0EDB7FEB729
:1024F00031968E010F5F1F4FADB7BEB712961C937A
:102500000E93119789E890E093838283F582E482A9
:102510000E943223EDB7FEB736960FB6F894FEBF91
:102520000FBEEDBFC8010E941B100E94210F009139
:10253000310180912C01883091F50130E1F4009354
:102540002B010E94210F82EC94E00E94550F0E9403
:10255000210F8DEC94E00E94550F0E94210F8CED0D
:1025600094E00E94550F009324018AE080932E018D
:1025700010922C0160C1023029F400932B010E94BB
:10258000F70F59C1033021F400932B0184E633C0C7
:10259000043009F050C100932B0188E72CC00630AD
:1025A00019F48EE680932C0180912B018130C9F4BF
:1025B000013011F0023019F400932C013CC10330BA
:1025C00031F484E080932C010E94D20F34C1043096
:1025D00011F485E010C0093009F02DC10E949D0F53
:1025E000C4C0823009F027C1013011F489E021C153
:1025F000023041F48AE080932C011092260110925F
:102600002E0119C1093009F016C18CE080932C010C
:102610000E94C30F10C1923089F1FAE0EF16F10465
:1026200008F060C180913401E82FF0E0EF5CFE4FCC
:10263000E0828F5F8093340100D000D000D0EDB7EE
:10264000FEB731968E010F5F1F4FADB7BEB7129622
:102650001C930E93119789E890E093838283F5820F
:10266000E4820E943223EDB7FEB736960FB6F89497
:10267000FEBF0FBEEDBFC8010E941B10FAE0EF16AF
:10268000F10428F080912C01823009F02BC1809157
:102690002C01823009F46BC0833020F4813009F0C2
:1026A0001FC131C0833009F4C9C0893009F018C195
:1026B000809134018230E9F4909131018AE0989F51
:1026C0009001112480913201280F311DC901019719
:1026D0000C9750F4822F81508093E1038BE080931C
:1026E0002C010E94280FE6C00E94210F80E197E094
:1026F000DFC088EE93E02CE231E0F9013197F1F789
:102700000197D9F7EFC09091310180913701833063
:1027100050F5192F1150811731F1133020F58091A8
:10272000350190913601181619066CF40E94210F9C
:1027300087E396E00E94550F0E94210F0E94D20F5E
:102740001093380178C00E94210F8AE496E00E941D
:10275000550F0E94210F87E080932C0110933701C1
:102760000E94891168C00E94210F87E062C0B09268
:102770002F01A092300187E696E00E94550F8091CC
:102780002F018F5F0E9424170E941B108CE890E09D
:102790000E941B10809130018F5F0E9424170E94BD
:1027A0001B108FE890E00E941B10809137018F5F13
:1027B0000E9424170E941B1088E990E00E941B10C1
:1027C000E091370181E1E89FF0011124809130010F
:1027D000E80FF11DB3E0EE0FFF1FBA95E1F780910E
:1027E0002F01E80FF11DEF55FD4FE4918E2F0E9450
:1027F00024170E941B1082EA90E00E941B10809117
:102800002F01E0913001F0E0A3E0EE0FFF1FAA9549
:10281000E1F7E80FF11DE650FC4F80810E9424177C
:102820000E941B108CEA90E00E941B100E94210F56
:1028300083E080932C011092340152C080913401C6
:10284000833009F043C09091310184E6989FA00144
:102850001124809132012AE0829FC0011124480F87
:10286000591F80913301480F511D4F3F5105E4F42A
:1028700080912F01E0913001F0E073E0EE0FFF1F37
:102880007A95E1F7E80FF11DE650FC4F408387E0B1
:1028900080932C018091350190913601019690939F
:1028A00036018093350106C00E94210F83E796E030
:1028B0000E94550F83E0E1E3F1E0DF011D928A956C
:1028C000E9F7109234010E94210F0AC088EE93E0CC
:1028D0002CE231E0F9013197F1F70197D9F702C005
:1028E0000E946E100F900F900F90CF91DF911F916B
:1028F0000F91FF90EF90DF90CF90BF90AF90089531
:10290000BF92CF92DF92EF92FF920F931F93CF93DC
:10291000DF93EE24FF24CC24DD2498E8B92E1EC0DA
:10292000809137018B9DC00111240D968C0D9D1D4A
:102930008C0F9D1FF80161918F010E943B2521960C
:10294000C830D10569F70894E11CF11C88E090E0DB
:10295000C80ED91E91E1E916F10459F0870183E010
:10296000000F111F8A95E1F706501C4FC0E0D0E020
:10297000D7CF109236011092350180912D0184300D
:1029800039F480932C011092260110922E0113C06D
:10299000813089F40E94210F8AE496E00E94550F4D
:1029A0000E94210F87E080932C0180913801809351
:1029B00037010E9489110E946E10DF91CF911F9103
:1029C0000F91FF90EF90DF90CF90BF90089583E03C
:1029D000E1E3F1E0DF011D928A95E9F710923401FD
:1029E0001092370110922B010E9489110E9406114A
:1029F0000895FF920F931F93CF93DF93F82E80914A
:102A00002601C62FD0E0042F10E08823A9F488E81F
:102A1000F89EC00111240D969E0143E0220F331F42
:102A20004A95E1F7820F931F800F911F0E94332573
:102A3000982F81508E3F88F081E1F89EC0011124CB
:102A4000C80FD91F23E0CC0FDD1F2A95E1F7C00F77
:102A5000D11FCF55DD4FFE019491892FDF91CF918A
:102A60001F910F91FF9008951F93982F8091260139
:102A700080FD0FC0192F195C1C3058F40E94851678
:102A8000882339F00E943217812F0E94651181E05E
:102A900001C080E01F9108958091260180FF0DC044
:102AA00081FD0BC00E948517882339F08091260193
:102AB0008260809326010E94E71408958091260188
:102AC0008160809326018091E9008150823018F462
:102AD0000E94781E08C00E94191B84EC99E0909314
:102AE000BA008093B9000E94F00F089580912601EA
:102AF0008823C1F4809127018823A1F080912801C7
:102B000090912901019690932901809328012091A9
:102B1000B9003091BA002817390724F41092270120
:102B20000E945E1508950E9476158091260181FF0E
:102B300036C0809124018823C9F00E94941688230E
:102B4000A9F080912E018B3019F40E9480140CC0E2
:102B50008A3019F40E94E61007C08C3019F40E94E4
:102B60002C1102C01092240110922E01809122019A
:102B70008823A9F0809120019091210101969093E2
:102B8000210180932001895E93404CF081E0809385
:102B9000230189E26FEF4FEF20E00E94CD110895ED
:102BA0000E941821882319F010922A01089580911B
:102BB0002A01813021F40E945E1510922A010895A5
:102BC000FC0190E007C08191841719F4292F30E0AF
:102BD00005C09F5F9617B8F32FEF3FEFC901089527
:102BE000FC01808140E02FEF3FEF0CC05191252F79
:102BF00030E090E02817390719F02FEF3FEF04C0BD
:102C00004F5F852F461790F3C90108959B01FC0182
:102C100001900020E9F73197E81BF90B6F5F7F4FB8
:102C2000680F791FE21BF30B820F931FAF010E9405
:102C3000FF220895FF920F931F93F42E9B01DC0156
:102C40000D900020E9F78C01060F171FA81BB90B88
:102C5000A61BB70B2F5F3F4F820F931FB801AD012B
:102C60000E94FF22F801F0821F910F91FF900895BA
:102C7000462FDC010D900020E9F71197A81BB90B36
:102C8000BD010E941A160895282F80916F0190911E
:102C90007001019660E071E00E94A622FC01909311
:102CA000700180936F0180916D0190916E018E177C
:102CB0009F0759F4009719F48FEF90E001C0019736
:102CC0009093700180936F010895EF58FE4F208319
:102CD000089520916D0130916E0180916F01909166
:102CE00070012817390711F480E00895C901019691
:102CF00060E071E00E94A622FC0190936E01809337
:102D00006D01EF58FE4F8081089540E020916D01E4
:102D100030916E0180916F019091700128173907F1
:102D200009F441E0842F089580916C01882319F4FF
:102D300040E050E00FC040E050E020916D01309144
:102D40006E0180916F01909170012817390711F47D
:102D500041E050E0842F089580936C010895982FEE
:102D600081568A3118F4292F2D5510C0892F81548E
:102D70008A3120F4292F2D5332E009C0892F815345
:102D8000893010F020E002C0292F235130E0892F34
:102D9000992787FD9095A92FB92FFC01B097EF35A2
:102DA000F10508F048C0E65DFF4FEE0FFF1F0590EC
:102DB000F491E02D09942EE141C02FE13FC020E2C3
:102DC0003DC021E23BC022E239C023E237C024E209
:102DD00035C025E233C026E231C027E22FC02CE205
:102DE0002EC02DE22CC02DE229C02EE228C02EE2FA
:102DF00025C02FE224C02FE221C020E320C020E321
:102E00001DC021E31CC021E319C023E318C023E344
:102E100015C024E314C024E311C025E310C025E34A
:102E20000DC026E30CC026E309C027E308C027E352
:102E300005C028E304C0222311F428E332E0832FE5
:102E4000922F089527E2FBCF0F931F9309E611E01D
:102E500090E0B8014AE050E00E941123C8011F91A0
:102E60000F91089520916D0130916E0180916F0155
:102E7000909170012817390739F480E3E9E3F1E014
:102E8000DF011D928A95E9F708951F93CF93DF9391
:102E90000E946916182FC9E3D1E0882331F480E33A
:102EA000FE0111928A95E9F712C0FE0101900020FF
:102EB000E9F73197E953F140CE016E2F412F0E947F
:102EC000E015BC0197FD05C0CE010E94061680E00A
:102ED00005C0CE01612F0E94381681E0912FDF914D
:102EE000CF911F91089580E090E0FC01ED54FB4FDD
:102EF0001082FC01EB52FB4F10820196813191054B
:102F0000A1F78AE08093DC00089581E0809373024A
:102F1000E5EDF4E08081882319F01092730205C07A
:102F2000319684E0E63EF807A9F780917302089590
:102F300084EC94E008958F929F92AF92BF92DF92BB
:102F4000EF92FF920F931F93CF93DF93DD24C0E0A6
:102F5000D0E021E0E22EF12C97E1892E912C8FE038
:102F6000A82EB12C87010C2E02C0000F111F0A944D
:102F7000E2F707BB802F809588BB81E090E00E943C
:102F80003821A5EDB4E0FD0140E050E0302F309550
:102F9000842F483048F429B3C701042E02C0880F9B
:102FA000991F0A94E2F711C08850883018F423B3AF
:102FB000C50102C020B3C401841B950BB70102C038
:102FC000660F771F8A95E2F7CB0120952823908121
:102FD000802F892319F0222329F008C0222331F001
:102FE000902B01C093239083DD24D3944F5F5F4FD8
:102FF00031964131510561F62196C830D10509F06D
:10300000B1CFDD2019F01092DB0007C08091DB000A
:10301000843618F48F5F8093DB009091DB00809101
:10302000DC00981711F080E029C0E4ECF4E050E0F7
:1030300040E09C91423028F095278081892380834D
:1030400001C090838081582B40E020E030E0652F64
:1030500070E0CB01022E02C0959587950A94E2F7A5
:1030600080FD4F5F2F5F3F4F2830310591F731963C
:10307000119674E0E53DF707E1F681E0DF91CF912D
:103080001F910F91FF90EF90DF90BF90AF909F90B6
:103090008F9008951F930E944C150E949B17182F24
:1030A0000E9493150E94070F811110E0812F1F913C
:1030B00008954F925F926F927F929F92AF92BF92CC
:1030C000CF92DF92EF92FF920F931F93CF93DF93F4
:1030D000EE24FF2451E0C52ED12C47E1442E512C83
:1030E0003FE0632E712C6FC00C2F809172026C2F09
:1030F000492D0E94F914182F865D803128F4E12FA4
:10310000F0E0E457F0401081812F865F823060F05C
:103110001E3F51F0183F41F01B3F09F048C080911D
:103120007202823009F043C0A7BAB8BA81E090E0D9
:103130000E943821083048F429B3C6010C2E02C081
:10314000880F991F0A94E2F711C00850083018F44C
:1031500023B3C30102C020B3C2018C1B9D0BA60187
:1031600002C0440F551F8A95E2F7CA012095282313
:10317000F1F01E3F61F0183F09F444C0173F49F4D5
:1031800080917302882399F081E08093740291E02A
:103190003DC0163F41F480917302882341F082E0E4
:1031A000809374022FC01B3F11F490E02FC0219632
:1031B000C131D10509F098CF0894E11CF11C58E009
:1031C000E516F10471F09E2CC6010E2C02C0880F8A
:1031D000991F0A94E2F7A82EB82EB094C0E0D0E070
:1031E00083CF0E948517882311F01092740290916A
:1031F0007402992359F480917102813029F482E09C
:103200008093720292E002C010927202892FDF91C5
:10321000CF911F910F91FF90EF90DF90CF90BF90D3
:10322000AF909F907F906F905F904F9008950F9315
:103230001F93182F062F8E3F09F443C00E94370BAF
:103240000023C1F10E94B40B1C3F49F0809175022C
:103250008823B9F01A32A9F41092710206C0809145
:10326000710291E089278093710280917102882315
:1032700041F50E947D0B80FF02C0909A22C0909879
:1032800020C0193221F481E0809375021DC088238B
:1032900011F0193311F01D3F19F40E94170E11C0DF
:1032A0001A3F19F40E94430E0CC0193F61F40E94AA
:1032B0002A0E07C01C3F29F0193229F4109275021A
:1032C00002C080E001C081E01F910F910895282F76
:1032D0008F3F31F41092770281E08093810208954C
:1032E0008E3F21F08D3F29F41092770210928102D7
:1032F000089580918102882351F080917702E82F10
:10330000F0E0E55BFC4F20838F5F80937702809134
:103310007F0290918002019668EC70E00E94A622E4
:10332000FC019093800280937F0280917D029091B6
:103330007E028E179F0759F4009719F487EC90E0EE
:1033400001C001979093800280937F020895EE5709
:10335000FD4F2083089520917D0230917E0280915F
:103360007F02909180022817390711F480E00895B8
:10337000C901019668EC70E00E94A622FC019093BE
:103380007E0280937D02EE57FD4F8081089540E0DC
:1033900020917D0230917E0280917F029091800287
:1033A0002817390709F441E0842F089510927E020E
:1033B00010927D021092800210927F02109277028A
:1033C00010927802109255031092560310925703F0
:1033D00010925803E3EBF4E0119284E0E43CF80728
:1033E000D9F70895E7EEF4E0119285E0E737F807A2
:1033F000D9F72AE532E006C0FC01E951FB4F808194
:1034000082608083F901849190E02F5F3F4F0097A5
:1034100099F72DE532E006C0FC01E951FB4F8081B0
:1034200084608083F901849190E02F5F3F4F009783
:1034300099F721E632E006C0FC01E951FB4F80819B
:1034400088608083F901849190E02F5F3F4F00975F
:1034500099F725E632E006C0FC01E951FB4F808177
:1034600081608083F901849190E02F5F3F4F009746
:1034700099F722E932E006C0FC01E951FB4F808157
:1034800080618083F901849190E02F5F3F4F009726
:1034900099F7E3EBF4E0119284E0E43CF807D9F704
:1034A00008950E94851690E0882309F491E0892F01
:1034B000089581E080939C030E945D0E0E94D015C8
:1034C0000895FF920F931F93CF93DF93F62E0E94E0
:1034D000290B182F853D08F0A6C087568830D0F4F8
:1034E000E12FF0E090917C02FF2039F0EE0FFF1FFA
:1034F000E351F0408081982B07C0EE0FFF1FE3518E
:10350000F04080818095982390937C0280917C028A
:103510000E94E70E812F90E0FC01EE56FE4F0491D1
:10352000FF2009F450C010934A03109255031092E3
:103530005603109257031092580310927805EC012D
:10354000C951DB4F888181FF2EC0163421F0183419
:1035500009F069C00EC08FEF0E94671980EE0E94CB
:10356000671982E10E94671980EE0E9467198CE753
:1035700026C08DEF0E94671981EE0E94671984E1D1
:103580000E94671987E70E94671981EE0E946719F8
:1035900080EF0E94671984E10E94671980EF0E9402
:1035A000671987E73BC082FD38C08FEF0E9467191B
:1035B000888180FF03C080EE0E946719802F0E94DF
:1035C00067198EEF2BC080914A03811711F4109276
:1035D0007702E12FF0E0E951FB4F808181FF13C0BA
:1035E000163409F580EE0E94671980EF0E94671972
:1035F0008CE70E94671980EE0E94671980EF0E9495
:10360000671982E10BC082FD0EC080FF03C080EE0F
:103610000E94671980EF0E946719802F0E94671926
:103620008CEF0E946719DF91CF911F910F91FF904E
:10363000089588E660E00E94611A87E660E00E94D3
:10364000611A89E660E00E94611A0895DF92EF92A4
:10365000FF920F931F93082F162FE42ED22E0E9455
:103660001719F82E112329F081E69AE161E00E94F2
:10367000120B0E94DF0E882339F0802F6E2D4D2D06
:10368000212F0E94CD1102C0FF2011F480E005C05F
:10369000802F612F0E94611A81E01F910F91FF908E
:1036A000EF90DF9008954F925F926F927F928F928A
:1036B0009F92AF92BF92CF92DF92EF92FF920F93C1
:1036C0001F93CF93DF930E948516882349F081E0F2
:1036D0000E94AC160E944A18882309F4CEC014C078
:1036E00080E00E94AC160E944517813041F4892F7A
:1036F00061E00E94611A8DEF0E946719BEC0892F98
:1037000060E00E94611AB9C00E945918782E0E9488
:1037100098174C0180917B02871509F446C0EE246E
:10372000FF2441E0442E512C34C0F401EC0FFD1F66
:103730000081FE01ED54FB4F80818B21F9F08091D7
:103740007B026C2F4C2D0E94F914D82E872D6C2FE4
:103750004C2D0E94F914182FD81681F0882371F08F
:103760008D2D60E04C2D2C2F0E94261B0B2131F05B
:10377000812F61E04C2D2C2F0E94261B2196C131F8
:10378000D10599F60894E11CF11C88E0E816F104D3
:1037900061F0CE2CC2010E2C02C0880F991F0A9432
:1037A000E2F7B82EC0E0D0E0C0CF70927B02AA242E
:1037B000A394CC24DD2431E0432E512C40C0EC2EC8
:1037C000FE01ED54FB4FF080F401EC0FFD1F008172
:1037D0000621872D6C2F4B2D0E94F914182F0023E2
:1037E00039F0882329F00E943415882309F045C058
:1037F000F620F016C9F00E941821882339F0002322
:10380000B9F08E2D6B2D0E941B2112C0112361F087
:10381000002319F0812F61E002C0812F60E04B2D61
:103820002E2D0E94261BA8222196C131D10539F6E2
:103830000894C11CD11C88E0C816D10461F0BC2CCE
:10384000C2010C2C02C0880F991F0A94E2F7682E5F
:10385000C0E0D0E0B4CF20E030E0F901ED54FB4F00
:10386000D401A20FB31F8C9180832F5F3F4F213172
:10387000310599F72A2D30E002C020E030E0C9017F
:10388000DF91CF911F910F91FF90EF90DF90CF903C
:10389000BF90AF909F908F907F906F905F904F9070
:1038A00008951F93162F8E3F11F0809377050E9485
:1038B0007808109378051F9108958F929F92AF9288
:1038C000BF92CF92DF92EF92FF920F931F9388E007
:1038D000809378050E949F090E94F2190E94731735
:1038E0000E94D619789416E9812E99249394B5E014
:1038F000AB2EB12CC12CD12C8091E9008823F9F496
:1039000080919C038823D9F480919A0390919B0322
:10391000019690939B0380939A030197815D974052
:1039200074F081E08093E9001F910F91FF90EF9078
:10393000DF90CF90BF90AF909F908F90089580912F
:10394000AA0382FFC0C08091790290917A028C3FD5
:10395000910561F020917D0230917E0280917F027D
:10396000909180022817390709F0ADC00E9487089E
:10397000182F60917805623009F457C0633018F44D
:10398000613039F44CC0663009F48DC0673009F4F9
:1039900055C0133F71F1143F60F41E3EC9F01F3E45
:1039A00018F41D3EA9F522C0103FE9F0123F81F541
:1039B00011C0163F09F1173F30F4143F09F481C0DC
:1039C000153F31F57EC01E3F59F01F3F09F505C078
:1039D0008EEE72C18AEF64E06FC18AEF68E06CC15D
:1039E0008091770569C18AEF62E066C18AEF66E07F
:1039F00063C18AEF67E060C19092DD00A092DE00B3
:103A0000B092DF00C092E000D092E1000E94D6198F
:103A10008AEF60E00E94511C0E94591A6DCF853FC9
:103A200009F44FC08AEF61E047C10E94D619112303
:103A300011F060E001C063E08AEF3EC1682F70E0E2
:103A4000CB0180769070A5E095958795AA95E1F7D2
:103A50008093DD00AB0148715070F3E055954795B8
:103A6000FA95E1F780E090E021E030E003C0220F1A
:103A7000331F019684179507D4F367707070269FE3
:103A8000C001279F900D369F900D1124AA2797FD06
:103A9000A095BA2F8093DE009093DF00A093E00002
:103AA000B093E1000EC00E94591A912F80E010FDE2
:103AB00084E091FD816092FD82600E947A0B0E94F9
:103AC000830B8AEFF8C08091AA0384FF15CF809101
:103AD0007805843009F4E7C0853030F4882371F02C
:103AE000833009F009CFDDC0883009F4E1C08C30A3
:103AF00009F45FC0853009F0FFCED8C020917D0267
:103B000030917E0280917F029091800228173907C0
:103B100011F40E94531B809171020E94430C0E9479
:103B2000AB19282F30E030937A02209379022C3F92
:103B3000310509F4E1CE232B21F060E00E94511CF5
:103B400060C080917702882309F4D6CE2091550376
:103B50003091560340915703509158032F5F3F4FC8
:103B60004F4F5F4F209355033093560340935703B5
:103B7000509358038091DD00889DC00111248A5123
:103B80009F4FAA2797FDA095BA2F281739074A07F4
:103B90005B070CF4B1CE10925503109256031092AD
:103BA000570310925803109278028CE080937805A6
:103BB000A3CE80917802882311F40E94531B809138
:103BC00071020E94430C809177028823C1F02091FA
:103BD0007D0230917E0280917F02909180022817B1
:103BE000390769F48091550390915603A0915703CA
:103BF000B09158030197A105B10561F40FC010926F
:103C000078051092550310925603109257031092A4
:103C1000580372CE809178028823A9F0909178029F
:103C2000E92FF0E0E55BFC4F80819F5F9093780285
:103C30006CE00E94511C60917702809178020E9492
:103C4000862290937802E0905503F09056030091FD
:103C50005703109158030894E11CF11C011D111D1C
:103C60006091DE007091DF008091E0009091E100B2
:103C70002AE030E040E050E00E9467229B01AC0166
:103C80002D5F3F4F4F4F5F4FC801B7010E94DB22AE
:103C90006093550370935603809357039093580392
:103CA0002BCE82E008C08BEA65E006C083E803C043
:103CB0000E94D6198AEA60E00E94511C1DCE8091B4
:103CC0005B03882331F40E94851620E030E08823CE
:103CD00011F421E030E0822F089588E0EEE5F3E072
:103CE000DF011D928A95E9F781E080935E030895D4
:103CF00080E3E7E6F3E0DF011D928A95E9F7089596
:103D00000E94290B982F853D08F042C081578A31C7
:103D100098F481E080935903E92FF0E0EE0FFF1F44
:103D2000E05CFE4F2591349182E080935E03209306
:103D30005F03309360032CC0892F8756883068F466
:103D4000E92FF0E0EE0FFF1FE351F04080819091EA
:103D50005F03892B80935F031BC09923C9F02091D7
:103D600079052830A8F4892F8D58823048F4E92F3E
:103D7000F0E0EE0FFF1FE45CFE4F85919491982FC9
:103D8000E22FF0E0E25AFC4F90832F5F20937905F9
:103D900080E00895AF92BF92CF92DF92EF92FF92B0
:103DA0001F93CF93DF930E948516882309F047C0A5
:103DB0000E946D1E0E944517E9E3F1E0DF010D90BE
:103DC0000020E9F71197AE1BBF0B82E080937905C5
:103DD000EF01EA2EFF246F01CE0CDF1C37E6A32E85
:103DE00033E0B32E1AC01881812F8756883080F0B7
:103DF000F50101900020E9F73197E756F34087E697
:103E000093E06E2F412F0E94E0158F5F9F4F21F4AA
:103E1000812F61E00E94801E219649E351E0CC157C
:103E2000DD0509F781E080935B0327E633E0F701C6
:103E30003196C901BA01AF010E94F62208C08091F3
:103E40005B03882321F00E946D1E10925B0381E0CA
:103E5000DF91CF911F91FF90EF90DF90CF90BF90B7
:103E6000AF9008953F924F925F926F927F928F92A0
:103E70009F92AF92BF92CF92DF92EF92FF920F93F9
:103E80001F93DF93CF9300D00F92CDB7DEB70E9480
:103E90004A18882309F4CCC00E945918382E82E0B1
:103EA000809379050E946D1E0E9498173C01992409
:103EB0001982CC24DD2441E0442E512C76C0BA80F6
:103EC000EA81FB81ED54FB4F0081EA81FB81E60D25
:103ED000F71DF080F820832D6B2D4A2D0E94F914D8
:103EE000182FFF2039F0882329F00E9434158823E9
:103EF00009F09EC0E82CE022EF1409F440C00E94B3
:103F00001821882349F0FF2021F08B2D6A2D0E9473
:103F10001B210E94C80E42C0112309F49FC0FF203C
:103F200069F0812F61E00E941719082F0E94C80EC6
:103F300080E89EE161E00E94120B07C0812F60E0E3
:103F40000E941719082FEE20C1F00E94DF0E88236F
:103F5000A1F0FF2049F0812F6A2D4B2D21E00E9416
:103F6000CD1181E0898312C0812F6A2D4B2D20E075
:103F70000E94CD1191E0998309C0002339F0FF2000
:103F800029F0812F61E00E94801E982AEA81FB813E
:103F90003196FB83EA83719709F091CF0894C11C95
:103FA000D11CF8E0CF16D10461F0AC2CC2010C2C6E
:103FB00002C0880F991F0A94E2F7882E1B821A828A
:103FC0007ECF80915E03813069F490915F03809190
:103FD0005C03981739F0892F0E94E70E80915F03E8
:103FE00080935C0380915903882369F080915E037C
:103FF000823049F082E080935E0310925F0310925A
:1040000060031092590320E030E0F901ED54FB4FBA
:10401000D301A20FB31F8C9180832F5F3F4F2131BB
:10402000310599F78981813019F0892D816001C0AE
:1040300080E00F900F900F90CF91DF911F910F9123
:10404000FF90EF90DF90CF90BF90AF909F908F90B8
:104050007F906F905F904F903F90089501E075CFF3
:10406000EF92FF920F931F930E94B509789400E09E
:1040700010E0EE24E3948091E9008130D9F480913E
:104080009C038823B9F480919A0390919B03019635
:1040900090939B0380939A030197815D974054F01E
:1040A0001092E9008BB78F7B8BBF1F910F91FF9010
:1040B000EF9008950E94C209002399F40E94321FD4
:1040C000082F08B600FE0FC0E8BEF0906603FF2080
:1040D00051F0153010F401E007C05BEFF52EF10E42
:1040E00003C00E94321FF12E8091B60384FF2EC0C0
:1040F00080915A03882361F010925A030E946D1E2A
:104100008EE593E068E00E94EC0A0E94D0151EC084
:104110000E945F1E882341F00E94CA1E8EE593E034
:1041200068E00E94EC0A12C0002381F080915E03D7
:10413000823021F48EE593E063E005C0813029F4FC
:104140008EE593E068E00E94EC0A00E00E94A10E78
:10415000809171020E94430C0E945F1E882311F01F
:1041600080E001C081E00E94AC161F2D84CF81E069
:1041700080935A030E945D0E0E94C80E0895CF934B
:10418000DF9321E020939C03EC0180915E038093F8
:10419000C5031092C60388818076803271F58981CB
:1041A000813011F488E02AC0893041F48E819F81EA
:1041B000029719F520935D038FEF20C0823019F428
:1041C0008091660314C08A3031F40E94B7208B813D
:1041D0008093660312C0833031F48B81882369F4A5
:1041E0001092E2000BC08B3041F48091E20080938A
:1041F000C5031092C60381E001C080E0DF91CF913A
:104200000895FC0180915D03882351F0623041F4F0
:104210008081813029F481810E947A0B0E94830B76
:1042200010925D0381E0089581E0809397030895E3
:104230008091970308950F931F93082F162F83EEF5
:1042400090E00E941B10812F0E9424170E941B10D7
:1042500085EE90E00E941B10802F0E9424170E9480
:104260001B1087EE90E00E941B101F910F91089584
:104270000F931F930091980310919903039665E0A3
:1042800070E00E94922280E090E02CE030E040E07C
:1042900050E00E946722060F171F109399030093A6
:1042A00098031F910F9108958D98959A08958D9A6E
:1042B000959808951F9310E0812F0E94BA051F5F03
:1042C0001730D1F789B78E7F89BF89B78B7F89BFB8
:1042D00089B78F7B89BF1F9108959FEF97BB98BBCC
:1042E0001ABA14BA9BBB95BB9FE591BB90EA92BBEF
:1042F00091B3936591BB92B39C7A92BB882371F082
:104300008BE090E00E94382181B3837F81BB85E000
:1043100083BF0E945A218D98959A08958D9A9598F9
:104320000895F8940E94800B10929B0310929A03B8
:1043300010929C0308958F929F92AF92BF92CF925A
:10434000DF92EF92FF920F931F93CF93DF938FEF44
:104350008093E90087BB88BB1ABA14BA8BBB85BBB4
:1043600011BA80E882BB81E090E00E94382110E021
:104370000E949B17882319F41F5F1E31C9F70E9402
:1043800098175C01FF2400E010E091E0892E912C49
:104390002AC0F501EC0FFD1F80818E21B9F0C130DC
:1043A00029F4013019F40E94142110C0F6018491FF
:1043B000803119F40E940A0F09C0883119F4F1E024
:1043C000FF2A04C0833111F482E0F82A2196E8E044
:1043D000F0E0CE0EDF1EC131D105D9F60F5F1F4FC1
:1043E0000830110589F0C401002E02C0880F991F02
:1043F0000A94E2F7E82E81EAC82E82E0D82EC00E99
:10440000D11EC0E0D0E0C5CFFF2019F0F394F092A8
:10441000E9006091E900643021F48CE090E06FEFF6
:1044200004C0643028F48CE090E00E943B2506C074
:104430008CE090E00E9433258093E9008A98929A5C
:104440002091E9002430D0F080E090E0829907C00C
:1044500092FD09C08F5F863060F021E00AC0829B28
:1044600009C092FD02C080E004C08F5F863008F072
:1044700020E090B3223050F72093E900CCE2D1E065
:104480008091E9008150823038F40E94912181E0CE
:104490000E946D210E9430208091E900882311F054
:1044A000833071F782B3836082BB88EE93E0FE01B4
:1044B0003197F1F70197D9F782B38C7F82BB0E94C5
:1044C000912180E00E946D210E945D1CD9CF629FE6
:1044D000D001739FF001829FE00DF11D649FE00DFC
:1044E000F11D929FF00D839FF00D749FF00D659F5D
:1044F000F00D9927729FB00DE11DF91F639FB00D5C
:10450000E11DF91FBD01CF0111240895991B79E028
:1045100004C0991F961708F0961B881F7A95C9F753
:1045200080950895AA1BBB1B51E107C0AA1FBB1FA2
:10453000A617B70710F0A61BB70B881F991F5A952F
:10454000A9F780959095BC01CD01089597FB092EA0
:1045500007260AD077FD04D0E5DF06D000201AF444
:10456000709561957F4F0895F6F7909581959F4FCF
:104570000895A1E21A2EAA1BBB1BFD010DC0AA1FA4
:10458000BB1FEE1FFF1FA217B307E407F50720F0BC
:10459000A21BB30BE40BF50B661F771F881F991F37
:1045A0001A9469F760957095809590959B01AC0180
:1045B000BD01CF01089597FB092E05260ED057FDAA
:1045C00004D0D7DF0AD0001C38F4509540953095C0
:1045D00021953F4F4F4F5F4F0895F6F79095809587
:1045E000709561957F4F8F4F9F4F0895FB01DC01C0
:1045F00002C001900D9241505040D8F708956817BD
:10460000790768F4FB01DC01E40FF51FA40FB51F67
:1046100002C002900E9241505040D8F708950C9479
:10462000F622FB019F01E8944230C4F04532B4F415
:104630004A3029F497FB1EF4909581959F4F642F83
:1046400077270E949222805D8A330CF0895D8193E6
:10465000CB010097A1F716F45DE251931082C901D6
:104660000C945E25AEE0B0E0E8E3F3E20C9406269D
:104670000D891E8986E08C831A8309838FEF9FE75B
:104680009E838D839E01275E3F4FCE0101966F89E9
:10469000788DA9010E9456232F813885020F131FA0
:1046A000F80110822E96E4E00C942226ABE0B0E0F4
:1046B000ECE5F3E20C94F8253C012B015A01FC01D6
:1046C00017821682838181FD03C06FEF7FEFC6C121
:1046D0009AE0892E1E010894211C311CF3012381CC
:1046E000F20123FD859123FF81912F01882309F495
:1046F000B2C1853239F423FD859123FF81912F01C9
:10470000853229F490E0B3010E946E25E7CF982FFF
:10471000FF24EE249924FFE1FF15D0F09B3269F0CD
:104720009C3228F4903259F0933291F40EC09D32AD
:1047300049F0903369F441E024C052E0F52A84E066
:10474000F82A28C098E0F92A25C0E0E1FE2A22C014
:10475000F7FC29C0892F80538A3070F4F6FE05C01B
:10476000989C902C1124980E15C0E89CE02C1124E4
:10477000E80EF0E2FF2A0EC09E3229F4F6FC6BC16F
:1047800040E4F42A07C09C3619F450E8F52A02C028
:10479000983649F4F20123FD959123FF91912F0161
:1047A000992309F0B8CF892F8554833018F08052AF
:1047B000833038F444E050E0A40EB51E5FE3598323
:1047C0000FC0933631F0933779F0933509F056C026
:1047D00020C0F5018081898342E050E0A40EB51E1F
:1047E000610101E010E012C0F501C080D180F6FC4B
:1047F00003C06FEF7FEF02C0692D70E042E050E030
:10480000A40EB51EC6010E9453258C015FE7F52258
:1048100014C0F501C080D180F6FC03C06FEF7FEFBC
:1048200002C0692D70E042E050E0A40EB51EC60142
:104830000E9448258C0150E8F52AF3FE07C01AC0F3
:1048400080E290E0B3010E946E25EA948E2D90E004
:1048500008171907A8F30EC0F601F7FC8591F7FEBB
:1048600081916F0190E0B3010E946E25E110EA94FE
:10487000015010400115110579F7EAC0943611F086
:10488000993669F5F7FE08C0F50120813181428132
:10489000538184E090E00AC0F501808191819C0100
:1048A000442737FD4095542F82E090E0A80EB91EB2
:1048B0009FE6F92257FF09C0509540953095219504
:1048C0003F4F4F4F5F4FE0E8FE2ACA01B901A101F7
:1048D0002AE030E00E949A25D82ED21840C09537A1
:1048E00029F41F2D1F7E2AE030E01DC01F2D197FE7
:1048F0009F3661F0903720F4983509F0ACC00FC0B6
:10490000903739F0983709F0A6C004C028E030E0AD
:104910000AC0106114FD146020E130E004C014FDF1
:10492000166020E132E017FF08C0F5016081718157
:104930008281938144E050E008C0F501808191813B
:10494000BC0180E090E042E050E0A40EB51EA10161
:104950000E949A25D82ED2188FE7F82EF122F6FE63
:104960000BC05EEFF522D91438F4F4FE07C0F2FC58
:1049700005C08FEEF82202C01D2D01C0192DF4FED6
:104980000DC0FE01ED0DF11D8081803319F499EE0B
:10499000F92208C01F5FF2FE05C003C08F2D867884
:1049A00009F01F5F0F2DF3FC14C0F0FE0FC01E15A1
:1049B00010F09D2C0BC09D2C9E0C911A1E2D06C034
:1049C00080E290E0B3010E946E251F5F1E15C0F3C8
:1049D00004C01E1510F4E11A01C0EE2404FF0FC03C
:1049E00080E390E0B3010E946E2502FF1DC001FD2F
:1049F00003C088E790E00EC088E590E00BC0802FF0
:104A0000867891F001FF02C08BE201C080E2F7FCE2
:104A10008DE290E0B3010E946E2506C080E390E035
:104A2000B3010E946E259A94D914C0F3DA94F1016F
:104A3000ED0DF11D808190E0B3010E946E25DD2017
:104A4000A9F706C080E290E0B3010E946E25EA94C7
:104A5000EE20C1F743CEF30166817781CB012B961F
:104A6000E2E10C941426E199FECF9FBB8EBBE09A45
:104A700099278DB30895262FE199FECF9FBB8EBB5A
:104A80002DBB0FB6F894E29AE19A0FBE01960895F5
:104A9000FC010590615070400110D8F78095909509
:104AA0008E0F9F1F0895FC0161507040019001100E
:104AB000D8F7809590958E0F9F1F0895DC01FC011B
:104AC000672F71917723E1F7329704C07C916D9342
:104AD00070836291AE17BF07C8F308950F931F93B9
:104AE000CF93DF938C01EB018B8181FF1BC082FF91
:104AF0000DC02E813F818C819D812817390764F478
:104B0000E881F9810193F983E88306C0E885F98596
:104B1000802F0995892B31F48E819F8101969F8387
:104B20008E8302C00FEF1FEFC801DF91CF911F915D
:104B30000F910895FA01AA27283051F1203181F10F
:104B4000E8946F936E7F6E5F7F4F8F4F9F4FAF4F95
:104B5000B1E03ED0B4E03CD0670F781F891F9A1FA8
:104B6000A11D680F791F8A1F911DA11D6A0F711D5C
:104B7000811D911DA11D20D009F468943F912AE068
:104B8000269F11243019305D3193DEF6CF01089550
:104B9000462F4770405D4193B3E00FD0C9F7F6CF81
:104BA000462F4F70405D4A3318F0495D31FD405249
:104BB000419302D0A9F7EACFB4E0A69597958795DF
:104BC00077956795BA95C9F70097610571050895BE
:104BD0009B01AC010A2E069457954795379527956A
:104BE000BA95C9F7620F731F841F951FA01D089502
:104BF0002F923F924F925F926F927F928F929F92ED
:104C0000AF92BF92CF92DF92EF92FF920F931F93DA
:104C1000CF93DF93CDB7DEB7CA1BDB0B0FB6F8948B
:104C2000DEBF0FBECDBF09942A88398848885F84CB
:104C30006E847D848C849B84AA84B984C884DF803C
:104C4000EE80FD800C811B81AA81B981CE0FD11D20
:104C50000FB6F894DEBF0FBECDBFED010895F894F6
:024C6000FFCF84
:104C62005AFFFEFEF8F86C6C68686D6D69696B6BD3
:104C720067678E8D8E8D8E8D8E8D8E8D8E8D8E8DA7
:104C82008E8D080701FF2563002564002C2000207B
:104C9200286C617965723D002064656661756C748B
:104CA2003D00206D617070696E673D002900271E0E
:104CB2001F20212223242526298813010002000413
:104CC20000080010002000400080000001000200E7
:104CD20004000800100020004000800A05020500C0
:0A4CE2000000012D002C003D00FF32
:00000001FF
