:100000000C942A030C9462030C9447030C9447034A
:100010000C94B0070C94BC060C9483070C9429072D
:100020000C9456070C948F060C94FC060C943C061A
:100030000C9447030C9447030C9447030C94470318
:100040000C9447030C9447030C9447030C94470308
:100050000C9447030817F4162417F816FA16FC1622
:100060000017221704170617021710172A170A1766
:100070002E1732173B173417341734173417341729
:10008000341734173417341720171E172C170E1770
:1000900030173617F6163417341734173417341749
:1000A00034173417341734173417341734173417F8
:1000B00034173417341734173417341734173417E8
:1000C0003417341734173417341712171A17161732
:1000D000FE160C1726173417341734173417341735
:1000E00034173417341734173417341734173417B8
:1000F00034173417341734173417341734173417A8
:100100003417341734173417341714171C171817EB
:100110002817000001000800400000010004000052
:1001200001000800200040008000000100040403DA
:1001300009041C03770069006E006B0065007900FC
:100140006C006500730073002E006B0072001003DA
:1001500070007300320061007600720055001201D9
:10016000100100000008424231E1000101020001DB
:100170000902220001010080FA09040000010301C4
:100180000100092101010001225500070581030832
:10019000000A0000FC001C322123242B3433433B93
:1001A000424B3A31444D152D1B2C3C2A1D22351A49
:1001B000161E26252E363D3E46455A76660D294E9C
:1001C00055545B5D5D4C520E41494A580506040C7E
:1001D000030B830A010978077C7E7C706C7D716952
:1001E0007A746B7275774A7C7B795A69727A6B7311
:1001F000746C757D7071612F001412111F145911E8
:10020000270000373F5E48103A38302820184D1537
:100210003B34233221502B404B1C43221D0000F164
:10022000F2370F08101820283038404850575F6DBB
:100230000051136A64672700000063625F000000DA
:1002400000000000000000008A01210223022402B5
:100250002502260227022A02B500B600B700CD000B
:10026000E200E900EA00830192019401000000002D
:100270000000000000009100900066006700680028
:1002800069006A006B006C006D006E006F0070000A
:100290007100720073008500860087008800890065
:1002A0008A008B008C008D008E008F0092009300DE
:1002B00094009500960097009800464800488E8D5F
:1002C000007172738F006A6B6E6D6546494A4B4CC4
:1002D0004D4E52504F5154587172737475767778F1
:1002E000797A7B7C7D7E7F80818283848586878806
:1002F000898A8F00494C4A4D4B4E6A6E65504F5269
:1003000051540073656C656374206D6F64650031D2
:100310003A4B6579204D617070696E6700323A4DD5
:100320006163726F00333A4578697400343A626FE2
:100330006F74206D617070657200676F6F6420620A
:1003400079657E00626F6F74206D617070657220D8
:10035000737461727421004D6163726F00313A539E
:10036000656C656374204D6163726F20496E6465CE
:100370007800323A4578697400393A436C656172A5
:1003800020416C6C00363A4261636B004B6579200A
:100390004D617070657200313A4368616E67652027
:1003A0004C6179657200323A53656C656374204B19
:1003B0006579202D20696E707574206B6579636F87
:1003C000646500333A5361766520616E6420457838
:1003D000697400343A4578697420776974686F7578
:1003E0007420536176696E6700393A52657365749B
:1003F00020746F2044656661756C742028437572A3
:1004000072656E74204C6179657229007073326177
:100410007672550063686F6F7365206C61796572E1
:100420002028313A206E6F726D616C2C20323A2098
:10043000464E2C20333A20464E3229206375727284
:10044000656E743D200073656C656374206B65791F
:100450002028616E79206B657920796F752077612E
:100460006E74292000696E707574206B6579636FF6
:10047000646520286D7573742033206E756D626518
:10048000727329203A200053617665202620457832
:1004900069742C207468616E6B20796F752E00452D
:1004A00078697420776974686F7574205361766910
:1004B0006E672C2073656520796F75206C6174659B
:1004C000722E00526573657420746F2064656661D6
:1004D000756C742063757272656E74206C617965D9
:1004E0007200496E70757420436F6D6D616E64208B
:1004F0004E756D6265723A20006E6F7468696E6742
:1005000000536176652063757272656E74206C614C
:10051000796572004C6F61642063757272656E74E8
:10052000206C6179657200736176696E672E2E2E7C
:1005300000636F6C2C20726F77203A2000696E7612
:10054000616C6964206B6579636F64652C20696EEA
:1005500070757420616761696E2E00696E707574C4
:10056000204D6163726F20496E64657820283031B8
:100570007E31322C206D7573742032206E756D6261
:1005800065727329203A200045786974206D616393
:10059000726F2C2073656520796F75206C617465AE
:1005A000722E00696E707574206B657920286D61FC
:1005B00078203234206B6579732C2073746F70202F
:1005C0003A207072657373204553432064757269D5
:1005D0006E672031207365632900696E76616C69EE
:1005E0006420496E6465782C20696E707574206192
:1005F0006761696E2E00636C6561722E2E2E000598
:10060000010906A1018501050719E029E715002563
:1006100001750195088102950575010508190129E3
:10062000059102950175039103950675081500263D
:1006300091000507190029A48100C0050C0901A13A
:1006400001850219002A3C021500263C029501751D
:10065000108100C011241FBECFE5D8E0DEBFCDBFA2
:1006600010E0A0E6B0E0ECEDFCE402C005900D92D5
:10067000AE3EB107D9F715E0AEEEB0E001C01D9275
:10068000AD38B107E1F70E94DF210C946C260C9481
:100690000000A82FB92F80E090E041E050EA60957B
:1006A00030E009C02D9182279795879510F0842717
:1006B0009527305EC8F36F5FA8F30895EADF8D9346
:1006C0009D930895CF93CFB7CF93C395839BE9F7BD
:1006D000839B09C0839B07C0839B05C0839B03C08A
:1006E000839B01C0A3C0DF93C091C803DD27C15322
:1006F000DC4F839B02C0DF91EBCF2F930F931F93AF
:1007000000B32FEF03FB20F94F933F9310B34FEF4C
:10071000012703FB21F93BE031C04E7F012F10B3CD
:10072000216028C0102F4D7F2260000000B329C037
:100730004B7F2460012F000010B32BC010B3477F04
:1007400028602AC04F7E00B320612CC04F7D10B3BB
:1007500020622FC04F7B00B3206432C0422700B319
:1007600049934FEF0000102713FB20F910B31C70C2
:10077000C9F1297F91F2012703FB21F900B3237FFF
:1007800089F2315058F1102713FB22F910B3277E5C
:1007900079F2012703FB23F92F7C81F200B31027A4
:1007A00013FB24F92F7971F200C010B3012703FB6A
:1007B00025F92F7359F200C000B3102713FB26F957
:1007C000223040F200C010B3012703FB27F9243088
:1007D00028F64F77206810B30000F9CF10E41ABF55
:1007E000002719C03B503195C31BD04010E41ABFFD
:1007F0000881033CF9F00B34E9F02091C60319811C
:10080000110F1213EDCF4A81441F093641F10D3209
:1008100011F0013E29F70093CD033F914F911F91B5
:100820000F912F91DF91CAB7C6FD4FCFCF91CFBFA8
:10083000CF9118952091CD03222379F31091CB030A
:10084000112369F534306AF13093CB032093C70349
:100850001091C8033BE0311B3093C80322C00091C4
:10086000CB030130E4F40AE54F7049F430916000A5
:1008700034FD19C000936000CFEAD3E018C0309176
:10088000BA0334FD10C00093BA03CBEBD3E00FC022
:100890002795A8F45150A9F4220F0000F9CF4AE59A
:1008A00003C042ED01C0432FC4E1D0E032E011B3F8
:1008B0001C60939A11BB02B320E41CE05F930127F4
:1008C00056E002BB279520F4515021F4220FF9CFB6
:1008D000012756E000003B5A02BBD0F2279528F4CE
:1008E000515029F4220F0000F9CF012756E0279537
:1008F00002BB20F4515021F4220FF9CF012756E01A
:100900002991332302BB21F6037F1091CC03110FF1
:10091000C651D04002BB11F01093C60310E41ABFB9
:10092000086011B3137F402F437F5F9100C000C068
:1009300002BB11BB42BB71CF089583B7887F826031
:1009400083BF12BE89B7816089BF1092A103109244
:10095000A2031092A3031092A40308958EB5887F7A
:1009600083608EBD1DBC1CBC89B7846089BF08959F
:1009700085B5887F846085BD14BC89B7806489BFD4
:100980001092A9031092AA031092AB031092AC0329
:10099000089580E090E0FC01EE0FFF1FE251FF4F51
:1009A00011821082019688309105A9F70E949D045A
:1009B0000E94AE040E94B8047894089593B7987F7B
:1009C000982B93BF08959EB5987F982B9EBD089550
:1009D00095B5987F982B95BD089583B7E82FF0E0E3
:1009E000E770F070EE0FFF1FEE5EFE4F2591349121
:1009F000C90108958EB5E82FF0E0E770F070EE0FB2
:100A0000FF1FEE5EFE4F25913491C901089585B513
:100A1000E82FF0E0E770F070EE0FFF1FE25EFE4F90
:100A200025913491C9010895883040F4E82FF0E011
:100A3000EE0FFF1FE251FF4F7183608308958830EE
:100A400040F4E82FF0E0EE0FFF1FE251FF4F11825C
:100A500010820895EF92FF920F931F93CF93DF932D
:100A6000EC0112B71092A5031092A6031092A703EF
:100A70001092A80383B7E82FF0E0E770F070EE0F54
:100A8000FF1FEE5EFE4F2591349140E050E060E0A4
:100A90007BE187EB90E00E94F622B901CA01693B35
:100AA0002DE8720726E0820720E09207A0F437E2E3
:100AB000C131D30780F49E0140E050E00E94A4229F
:100AC00028EE33E040E050E00E94F622C901DA014E
:100AD000BC01CD0121C028EE33E040E050E00E948F
:100AE000F622CA01B9019E0140E050E00E94A42212
:100AF00013C08091A5039091A603A091A703B09184
:100B0000A80385B78F7885BF85B7806885BF88952E
:100B100085B78F7785BF08C09B01AC01210F311DC0
:100B2000411D511D79018A012091A5033091A60331
:100B30004091A7035091A80382B790E0A0E0B0E0F5
:100B4000542F432F322F2227822B932BA42BB52BEC
:100B50008E159F05A007B10760F2DF91CF911F911D
:100B60000F91FF90EF9008951092A1031092A203AD
:100B70001092A3031092A40308952091A103309131
:100B8000A2034091A3035091A403B901CA0108959F
:100B90001092A9031092AA031092AB031092AC0317
:100BA00008952091A9033091AA034091AB0350917D
:100BB000AC03B901CA010895893031F48FB5826060
:100BC0008FBD8FB58E7F0AC08A3019F48FB58260D1
:100BD00002C08FB58D7F8FBD8FB581608FBD1BBC6F
:100BE0001ABC19BC18BC08952FB52E7F2FBD2FB588
:100BF00022602FBD2EB528602EBD2EB520612EBDE2
:100C000097BD86BD1BBC1ABC19BC18BC08958FB516
:100C10008D7F8FBD8FB58E7F8FBD8FB58F778FBD49
:100C20008FB58F7B8FBD8FB58F7D8FBD8FB58F7E3D
:100C30008FBD08958FB580688FBD8FB58F7B8FBDB9
:100C400008958FB580628FBD8FB58F7E8FBD08955B
:100C50008FB58F778FBD8FB58F7B8FBD08958FB583
:100C60008F7D8FBD8FB58F7E8FBD08959BBD8ABD53
:100C7000089599BD88BD08951F920F920FB60F92E7
:100C800011242F933F934F935F936F937F938F9391
:100C90009F93AF93BF93EF93FF938091A1039091A4
:100CA000A203A091A303B091A4030196A11DB11DBD
:100CB0008093A1039093A203A093A303B093A403F2
:100CC0008091A5039091A603A091A703B091A803DA
:100CD0000196A11DB11D8093A5039093A603A09337
:100CE000A703B093A8038091EE009091EF00892BA9
:100CF00029F0E091EE00F091EF000995FF91EF915E
:100D0000BF91AF919F918F917F916F915F914F9123
:100D10003F912F910F900FBE0F901F9018951F922B
:100D20000F920FB60F9211242F933F934F935F931F
:100D30006F937F938F939F93AF93BF93EF93FF93A3
:100D40008091F0009091F100892B29F0E091F00062
:100D5000F091F1000995FF91EF91BF91AF919F91B3
:100D60008F917F916F915F914F913F912F910F9054
:100D70000FBE0F901F9018951F920F920FB60F92F3
:100D800011242F933F934F935F936F937F938F9390
:100D90009F93AF93BF93EF93FF938091A90390919B
:100DA000AA03A091AB03B091AC030196A11DB11DA4
:100DB0008093A9039093AA03A093AB03B093AC03D1
:100DC0008091F8009091F900892B29F0E091F800CA
:100DD000F091F9000995FF91EF91BF91AF919F912B
:100DE0008F917F916F915F914F913F912F910F90D4
:100DF0000FBE0F901F9018951F920F920FB60F9273
:100E000011242F933F934F935F936F937F938F930F
:100E10009F93AF93BF93EF93FF938091FC009091CA
:100E2000FD00892B29F0E091FC00F091FD0009956F
:100E3000FF91EF91BF91AF919F918F917F916F91B2
:100E40005F914F913F912F910F900FBE0F901F9088
:100E500018951F920F920FB60F9211242F933F9364
:100E60004F935F936F937F938F939F93AF93BF93B2
:100E7000EF93FF938091F2009091F300892B29F07A
:100E8000E091F200F091F3000995FF91EF91BF918D
:100E9000AF919F918F917F916F915F914F913F9112
:100EA0002F910F900FBE0F901F9018951F920F92C9
:100EB0000FB60F9211242F933F934F935F936F932D
:100EC0007F938F939F93AF93BF93EF93FF93809103
:100ED000F4009091F500892B29F0E091F400F09155
:100EE000F5000995FF91EF91BF91AF919F918F917F
:100EF0007F916F915F914F913F912F910F900FBE16
:100F00000F901F9018951F920F920FB60F921124F9
:100F10002F933F934F935F936F937F938F939F9301
:100F2000AF93BF93EF93FF938091F6009091F700FA
:100F3000892B29F0E091F600F091F7000995FF91D7
:100F4000EF91BF91AF919F918F917F916F915F9141
:100F50004F913F912F910F900FBE0F901F901895BA
:100F60001F920F920FB60F9211242F933F934F931E
:100F70005F936F937F938F939F93AF93BF93EF9301
:100F8000FF938091FA009091FB00892B29F0E0916A
:100F9000FA00F091FB000995FF91EF91BF91AF919D
:100FA0009F918F917F916F915F914F913F912F9181
:100FB0000F900FBE0F901F9018958093FF00F8942C
:100FC0008091AE038F7E8093AE038091AE038860E4
:100FD0008093AE0378940895F8948091AE038B7F4C
:100FE0008093AE0378948091FE0008958FEC84BDC9
:100FF0008091AD03833000F58B98939A8091AE0376
:1010000080FF23C0829BA3C08091AD03813031F06B
:10101000813040F0823009F0F6C006C0839902C0EA
:101020008DE096C082E094C08091AE0383FFEBC058
:1010300093988B9A84E28CC08091AD038A3108F03A
:1010400079C08091AE0380FD08C08091AE038160BD
:101050008093AE038A98929A0895829B76C080917D
:10106000AD03873140F4803118F58D3061F08F3059
:1010700009F055C00CC08831E1F1883158F189314F
:1010800009F04DC049C08091AE038D7F4DC0809165
:10109000AE038B7F8093AE03839B05C080E8809373
:1010A000FE0081E014C0109201011092FE0037C0D2
:1010B0008091FE0086958093FE00839B30C08091D6
:1010C000FE0080688093FE00809101018F5F809315
:1010D000010125C0839B05C0809101018F5F809332
:1010E00001018091010180FD1AC08091AE038260F0
:1010F00010C0839905C08091AE0382608093AE03D7
:101100008091AE0381FD0BC093988B9A8091AE03C2
:1011100084608093AE0303C08B98939A6CC09298BE
:101120008A9A8091AE038E7F8093AE038091AD0347
:101130008F5F0EC08091AD038F3208F064C0809144
:10114000AE0380FF10C0829906C08B98939A81E00D
:101150008093AD0308958091AE038E7F8093AE039C
:1011600092988A9A08958091AE0381608093AE032D
:101170008A98929A8091AD038C3228F4853280F45B
:101180008432E1F507C08D3299F18D32E8F08E326C
:10119000A9F531C08091FF008093000110920101F8
:1011A0008091000180FF08C08B98939A8091010183
:1011B0008F5F8093010102C093988B9A8091000108
:1011C0008695809300011AC08091010180FF03C0C1
:1011D00093988B9A02C08B98939A8091AE03877FE5
:1011E0008093AE038091AE0380618093AE0306C00E
:1011F0008B98939A03C01092AD0308958091AD032C
:101200008F5F8093AD0308951092AD0381E18093C9
:10121000AE038A98929A8B98939A0E94B80482E0BF
:101220000E94E80485E066EF77E00E9414058FECE9
:1012300084BD089585B7826085BF8BB780648BBFFE
:101240008BE48093BB038AE58093BA0308951F93D0
:10125000CF93DF930E94360B6091CB03635067FD01
:10126000CEC08091C803CCE0D0E0C81BD109C153E7
:10127000DC4F8091C7038D3209F0AEC0683009F0B1
:10128000BCC083EC8093AF038AE58093600010922A
:1012900002018881807641F0CE010E94FC20282F37
:1012A0008F3F09F488C08EC09A811092B80389815B
:1012B000882321F41092B90322E076C0853019F416
:1012C0009093CC0370C0863009F059C08B81813077
:1012D00069F489B78B7F89BF0E94360B8EE591E058
:1012E0009093CA038093C90322E145C0823041F440
:1012F00080E791E09093CA038093C90322E23BC048
:101300008330F9F48A81882341F48EE291E090934E
:10131000CA038093C90324E02EC0813041F482E3E4
:1013200091E09093CA038093C9032CE124C08230DA
:1013300009F58EE491E09093CA038093C90320E1FC
:101340001AC0813241F482E891E09093CA038093FD
:10135000C90329E010C0823269F48FEF95E09093C1
:10136000CA038093C90389B7846089BF0E943A0B7E
:1013700025E501C020E080E48093020123C088308D
:1013800021F421E08EEC93E011C0893019F49093A0
:10139000CE0309C08A3011F421E006C08B3019F465
:1013A0008BE48093BB0320E088EB93E09093CA0327
:1013B0008093C90307C0888187FD2E8180E88093D0
:1013C000020106C08F81882319F48E81821708F0EC
:1013D000822F8093610011C08091020187FF0DC0B0
:1013E000CE010E943E218F3F21F48EE18093600068
:1013F00004C0882311F0109261001092CB038091F9
:10140000600084FF46C0809161008F3F09F441C0B5
:10141000182F893008F018E0811B809361008091BB
:10142000AF0398E889278093AF03112321F120911E
:10143000C9033091CA038091020186FF0AC0912F2F
:10144000F901A0EBB3E084918D9331969150D9F7D7
:1014500008C0912FD901E0EBF3E08D918193915079
:10146000E1F7C90101961150810F911D1F5F909303
:10147000CA038093C90380EB93E0612F0E945E034F
:10148000612F6C5F6C3019F08FEF80936100609377
:10149000600094E180B38C7031F49150D9F71092D0
:1014A000CC031092C6030E943A0BDF91CF911F919B
:1014B00008951F93CF93DF93EC01162F0E94360BF4
:1014C0008091BA0384FF07C08091BB0398E8892705
:1014D0008093BB0303C08AE58093BA03912FECEBA2
:1014E000F3E08991819391501916DCF38CEB93E032
:1014F000612F0E945E031C5F1093BA030E943A0B97
:10150000DF91CF911F910895809106010895E82FF2
:10151000865D803140F480910601882321F0F0E05F
:10152000E457F040E0818E2F089591E1899FC0013A
:101530001124860F911D23E0880F991F2A95E1F74A
:10154000840F911DE0918200F0918300E80FF91F54
:10155000E4918E2F08951F93982F865D6623D9F00E
:10156000803188F4809104018F5F80930401809121
:101570000501882361F49093030181E080930501C4
:101580001092060139C0809103018823A9F181E0FE
:101590008093060131C0803178F58091040181503B
:1015A00080930401E0910301EE2301F18091060193
:1015B0008823E1F4F0E0E456F0401081812F0E948E
:1015C0005D16812F0E945D16109203010E942E0F5E
:1015D000882361F0812F60E040E021E00E94E21169
:1015E000812F60E040E020E00E94E2118091040140
:1015F000882311F4109205011F9108959C01E09138
:101600000301EE2349F180910601882329F18E2FF1
:10161000865D803120F4F0E0E457F040E0818E2FC9
:10162000F90109950E942E0F8823A1F0E091030192
:101630008E2F865D803140F480910601882321F051
:10164000F0E0E457F040E0818E2F60E040E021E0E0
:101650000E94E21110920301089580931C010895E5
:1016600080911C0108951092090108958EB5887F1C
:101670008EBD08958091070190910801892B19F082
:101680008EB584608EBD0895949A809107019091E3
:1016900008019BBD8ABD0895949808959093080110
:1016A000809307018091070190910801892B51F4E3
:1016B0008091880090918900892B21F094988EB5B3
:1016C000887F14C08091070190910801892B79F0DF
:1016D0008091880090918900892B49F480910701BD
:1016E00090910801892B19F08EB584608EBD809190
:1016F00007019091080190938900809388000895D4
:1017000090911001992319F480E090E010C091307D
:1017100049F41092150110921401109217011092C1
:1017200016010895923031F48091870090E00E9474
:101730004E0B0895892F83508230A0F483E080936C
:101740001801943019F481E08093180180911801F8
:101750009FEF899FC00111246CE070E00E94E3229A
:101760006093190108958091100190E0019665E061
:1017700070E00E94E3228093100181E090E090935A
:101780000F0180930E010E94800B089580918700C5
:101790008E31A1F08951809387008E3118F48EE14B
:1017A0008093870080911001823011F40E94800B99
:1017B00081E090E090930F0180930E010895809155
:1017C00087008F3FA9F090E049968F3F910511F077
:1017D0000CF08FEF8093870080911001823011F41C
:1017E0000E94800B81E090E090930F0180930E01A6
:1017F000089580911C0190E080FF02C0909A01C082
:101800009098AC014270507081FF02C0919A01C063
:10181000919820911E0182FF04C0969A2223C9F458
:1018200004C096982130A9F409C081E080931E017C
:10183000452B11F485E007C084E005C010921E011D
:10184000452B21F483E080931D01089582E080936D
:101850001D010895809110018330C1F484EF91E05F
:1018600090931B0180931A01809118018C3038F5F8
:101870008F5F809318019FEF899FC00111246CE056
:1018800070E00E94E3226093190108958430B9F456
:1018900084EF91E090931B0180931A0180911801CD
:1018A000882369F08150809318019FEF899FC001C0
:1018B00011246CE070E00E94E32260931901089506
:1018C0002091870030E0AC01429FC001439F900D02
:1018D000529F900D11246FEF70E00E94E322CB0124
:1018E0000895CF93DF9380911001813009F057C0A4
:1018F000C0911601D0911701209761F480911401D5
:101900009091150168E070E00E94E322CB010E94F3
:10191000600C13C0C230D105A1F4809114019091E4
:10192000150168E070E00E94E322CB01909581955B
:101930009F4F81509F4F0E94600C90E00E944E0B81
:101940000FC0C130D10519F0C330D10549F48091E1
:101950001401909115010196909315018093140143
:101960008091140190911501885F974074F0109256
:10197000150110921401CE01019664E070E00E94FE
:10198000E3229093170180931601809114019091A6
:1019900015010196909315018093140187C083303F
:1019A000D1F580911A0190911B01009731F00197B8
:1019B00090931B0180931A0128C0209119012223C2
:1019C000F1F0809114019091150101969093150109
:1019D000809314010897CCF0109215011092140115
:1019E0002150209319018FEF90E0821B91096BEE3B
:1019F0007FEF0E94E322645F6093180106C010929B
:101A0000180110921501109214018091190190E0B3
:101A10000E94600C3DC0843009F03EC080911A01E4
:101A200090911B01009731F0019790931B018093D7
:101A30001A0129C0209119012F3FF1F08091140162
:101A400090911501019690931501809314010897C8
:101A5000D4F010921501109214012F5F20931901F8
:101A60008FEF90E0821B91096BEE7FEF0E94E322E3
:101A7000645F6093180107C08CE080931801109296
:101A80001501109214018091190190E00E94600CE0
:101A900090E00E944E0B0AC01092150110921401A2
:101AA00083E090E09093170180931601DF91CF912E
:101AB00008950E94710C089590989198969880913D
:101AC0001001823011F0843029F410921501109227
:101AD000140108C0882311F0833021F481E0809341
:101AE000130108951092130108950E94F90B0E94AA
:101AF000800B0895CF93DF9380911301813029F1FA
:101B0000C0911401D0911501CE0168E070E00E94EF
:101B1000E322CB01909581959F4F81509F4F0E946A
:101B2000600C90E00E944E0B87E0C83FD80744F05D
:101B300080E090E00E944E0B949881E08093130126
:101B40002196D0931501C0931401DF91CF91089590
:101B50001F93182F80910901882309F489C00E94DE
:101B6000A80E882319F00E947A0D82C00E94552188
:101B7000882311F042E004C0113009F045C041E073
:101B800080910A0190910B01019690930B01809333
:101B90000A01209184003091850028173907DCF56F
:101BA00080910C0190910D01019690930D0180930D
:101BB0000C01893C91057CF180911C01909186007B
:101BC00080FF09C0913021F482B34095482307C0BB
:101BD00082B3482B09C0913021F482B3482B42BB19
:101BE00008C082B34095482342BB10920B0110926B
:101BF0000A018091860091E08927809386001092E7
:101C00000D0110920C0107C010920D0110920C01F1
:101C100081E08093860080910E0190910F0118164B
:101C2000190624F5019690930F0180930E01885EAA
:101C30009340E1F410920F0110920E016091100197
:101C400080911101681731F0609311018BE090E0F1
:101C50000E9478256091870080911201861731F0EB
:101C60006093120189E090E00E9478250E94710C37
:101C70001F91089580910901882309F068C081E0CF
:101C80008093090182E06CE47BE00E94140583E00C
:101C900064E47BE00E9414058FB58E7F8FBD8FB505
:101CA0008D7F8FBD8EB588608EBD8EB580618EBDF7
:101CB0008FEF90E097BD86BD1BBC1ABC86B597B56B
:101CC00099BD88BD8FB58F778FBD8FB58F7B8FBD49
:101CD0008FB58F7D8FBD8FB58F7E8FBD1DBC1CBC1A
:101CE00089B7806189BF89B7886089BF8091070102
:101CF00090910801892B19F08EB584608EBD89E022
:101D000090E00E94702580938700809312018BE001
:101D100090E00E947025809310018F3F11F4109283
:101D2000100180911001809311010E94800B80911D
:101D3000ED00882311F0833051F48091840090915C
:101D400085009595879590938500809384000895EC
:101D500080911F01089580911F01882329F481E05B
:101D600080931F010E945C0D089580911F018823BC
:101D700011F58091200190912101A0912201B09153
:101D800023010196A11DB11D809320019093210193
:101D9000A0932201B0932301805E9349A440B040F8
:101DA00054F0109220011092210110922201109201
:101DB00023010E94AB0E089580911F01882321F01A
:101DC00010921F010E94750D1092200110922101A6
:101DD0001092220110922301089580912A018160BE
:101DE00080932A01089580912A018170089580913D
:101DF0002A0182700895982F80912A0180FD1AC0CF
:101E00009730A1F410922D0110922C0181E0809363
:101E10002B018091ED00882311F0833059F484EC7C
:101E200099E09093BE008093BD00089510922A011E
:101E300010922B01089580912E01089581E08093E6
:101E40002E01089510922A0110923201089590E017
:101E5000895C8C3008F491E0892F089590E080919E
:101E600030018B3009F491E0892F089588E20E94B7
:101E70005D1688E20E945D16089580E3E6E8F4E0CE
:101E8000DF01982F1D929A95E9F71092B604E6EEBD
:101E9000F3E0DF011D928A95E9F710922901089578
:101EA0000F931F93FC0180810E94C8168C01882328
:101EB00019F088E60E945D16812F0E945D16812F21
:101EC0000E945D16002319F088E60E945D161F919E
:101ED0000F910895CF92DF92EF92FF920F931F938D
:101EE000DF93CF930F92CDB7DEB78C01009711F53A
:101EF0002FC000D000D000D0EDB7FEB73196ADB7FF
:101F0000BEB71296FC92EE921197D382C2829927A5
:101F100087FD9095958384830E946F238DB79EB72C
:101F200006960FB6F8949EBF0FBE8DBFC7010E94E4
:101F3000500F08C07E010894E11CF11C8AE8C82EED
:101F400080E0D82EF8010F5F1F4F8491882389F617
:101F50000F90CF91DF911F910F91FF90EF90DF9045
:101F6000CF90089583EC94E00E946A0F0E94360F90
:101F700026E034E080E090E00BC01192E217F30716
:101F8000E1F701969F01285F3F4F8131910549F0AC
:101F9000FC0143E0EE0FFF1F4A95E1F7E250FC4FD2
:101FA000ECCF81E090E090933A018093390108955D
:101FB00086EF95E00E946A0F0E94360F81E08093C1
:101FC00028018CE0809332011092300108958091B5
:101FD000390190913A01892B29F410922A0110922B
:101FE0003201089587E295E00E946A0F0E94360F41
:101FF00081E0809328018BE0809332018091300151
:10200000809331011092300108958CE094E00E9499
:102010006A0F0E94360F08950E94360F87E593E0FD
:102020000E946A0F0E94360F8DE593E00E946A0FAE
:102030000E94360F82E793E00E946A0F0E94360FDB
:1020400085E893E00E946A0F0E94360F89E793E0CB
:102050000E946A0F0E94360F87E080933001089536
:10206000AF92BF92CF92DF92FF920F931F93DF93B5
:10207000CF930F92CDB7DEB78C01FF246E01089489
:10208000C11CD11C5AE8A52E50E0B52E25C000D0A9
:1020900000D000D0EDB7FEB73196ADB7BEB71296FF
:1020A000DC92CE921197B382A282800F911FDC0145
:1020B0008C91992787FD9095958384830E946F2347
:1020C0008DB79EB706960FB6F8949EBF0FBE8DBF14
:1020D000C6010E94500FF3948F2D90E0F8010190FB
:1020E0000020E9F73197E01BF10B8E179F0778F27C
:1020F0000F90CF91DF911F910F91FF90DF90CF90C4
:10210000BF90AF90089581E08093280180913001C5
:10211000893088F48730E8F5833079F1843030F401
:102120008130E1F0823009F05CC024C0853059F183
:10213000863060F525C08B30B9F18C3030F48930B1
:1021400069F18A3009F04DC02CC08E3609F447C0C1
:10215000883789F1843609F044C038C084E194E0BE
:102160000E946A0F80913B018F5F0E943D170E9481
:1021700030101EC086E494E019C085E694E00BC0E0
:1021800087E894E025C08FE994E022C010922801EE
:1021900028C082EE94E00E946A0F23C08BE595E090
:1021A000FACF88E895E014C083EA95E00E946A0FB0
:1021B0000E94360F16C084E493E00E946A0F0E94CA
:1021C000360F109230010E9451210BC08AE393E038
:1021D0000E946A0F0E94360F1092300102C00E94C6
:1021E0001B1188EE93E02CE231E0F9013197F1F711
:1021F0000197D9F708950E94360F83EC93E00E946F
:102200006A0F0E94360F83ED93E00E946A0F0E94CE
:10221000360F85E893E00E946A0F0E94360F89EE20
:1022200093E00E946A0F0E94360F87E0809330018E
:102230000E94831008950E94360F83E093E00E946D
:102240006A0F0E94360F8FE093E00E946A0F0E948F
:10225000360F8DE193E00E946A0F0E94360F85E2EF
:1022600093E00E946A0F0E94360F8CE293E00E9476
:102270006A0F0E94360F88E0809330010E9483101D
:102280000895CF93DF93C5EAD1E0CE0160E00E94CC
:102290007825219683E0C53ED807B9F787E080937B
:1022A00030010E948310DF91CF9108951F93CF9347
:1022B000DF938091E5038C30C8F4C0E0D0E010E3F8
:1022C0008091E503819FC00111248B559E4FFE0133
:1022D000EA57FB4F8C0F9D1F60810E947825219645
:1022E000C033D10569F78FEF8093E503DF91CF917C
:1022F0001F9108950F931F93CF93DF93982F8C30E6
:10230000C0F480E3989FC0011124EC01CB55DE4F4F
:102310008C010B521E4FCE010E947025982F8150C8
:102320008E3F18F4892F0E945D162196C017D107A1
:1023300091F7DF91CF911F910F910895CF92DF9286
:10234000EF92FF920F931F93CF93DF9390913B01F6
:1023500088E8989F700111248DE090E0E80EF91E46
:10236000CC24DD2417C0CE018E0D9F1D0E94702548
:10237000F80181938F012196C830D105A1F7089407
:10238000C11CD11C88E090E0E80EF91E91E1C9164D
:10239000D10459F0860163E0000F111F6A95E1F73F
:1023A00002501C4FC0E0D0E0DECF10923A011092F4
:1023B0003901DF91CF911F910F91FF90EF90DF9046
:1023C000CF900895AF92BF92CF92DF92EF92FF929B
:1023D0000F931F93DF93CF9300D00F92CDB7DEB74B
:1023E000B62EA42EC22E0E94870AD82E84ED8D15FB
:1023F00008F484C280912801882309F07FC280916B
:1024000030018B3019F0CC2009F078C282EB90E0DB
:102410006BE04D2D0E94F9157C01909130019B30AD
:1024200009F06CC080912701882399F01092260151
:10243000109227018D2D0E945D16E091B604F0E008
:10244000EB57FB4F10820E94561187E080933001BA
:1024500046C2CC2071F080912901883108F04EC22B
:102460008F5F8093290186EE93E06D2D0E945116B7
:1024700017C006EE13E0F80101900020E9F731974C
:10248000E01BF10BC8016E2F4D2D0E94F915BC0108
:102490009FEF6F3F790709F431C2C8010E941F16F0
:1024A0008091B604E82FF0E0EA57FB4FD0828F5FAF
:1024B0008093B6048D2D0E945D168091B604803302
:1024C00030F087E0809330010E94561108C2CC2082
:1024D00081F0A2EBB0E0EA0EFB1EF70180818932A9
:1024E00041F481E08093260110922501109224018D
:1024F00005C2109226011092270100C2892F875031
:10250000823008F0A3C0FAE0EF16F10408F0F6C13B
:10251000E0913801F0E0EB5CFE4FE08200D000D0AB
:1025200000D0EDB7FEB731968E010F5F1F4FADB7EC
:10253000BEB712961C930E9311978DE890E093838B
:102540008283F582E4820E946F23EDB7FEB7369650
:102550000FB6F894FEBF0FBEEDBFC8010E94301049
:102560000E94360F0091350180913001883091F53D
:102570000130E1F400932F010E94360F8CE893E0C4
:102580000E946A0F0E94360F87E993E00E946A0F4B
:102590000E94360F86EA93E00E946A0F009328019A
:1025A0008AE0809332011092300151C1023029F447
:1025B00000932F010E940C104AC1033021F40093B4
:1025C0002F0184E633C0043009F041C100932F018C
:1025D00088E72CC0063019F48EE680933001809194
:1025E0002F018130C9F4013011F0023019F4009349
:1025F00030012DC1033031F484E0809330010E941A
:10260000E70F25C1043011F485E010C0093009F04E
:102610001EC10E94B20FC4C0823009F018C101303F
:1026200011F489E012C1023041F48AE08093300154
:1026300010922A01109232010AC1093009F007C133
:102640008CE0809330010E94D80F01C1923089F153
:10265000FAE0EF16F10408F051C180913801E82F3B
:10266000F0E0EB5CFE4FE0828F5F8093380100D09A
:1026700000D000D0EDB7FEB731968E010F5F1F4F2F
:10268000ADB7BEB712961C930E9311978DE890E0EC
:1026900093838283F582E4820E946F23EDB7FEB7B5
:1026A00036960FB6F894FEBF0FBEEDBFC8010E946C
:1026B0003010FAE0EF16F10428F0809130018230FA
:1026C00009F01CC180913001823009F46BC0833065
:1026D00020F4813009F010C131C0833009F4BAC050
:1026E000893009F009C1809138018230E9F4909174
:1026F00035018AE0989F9001112480913601280FBE
:10270000311DC90101970C9750F4822F815080939D
:10271000E5038BE0809330010E943D0FD7C00E94FB
:10272000360F8AED95E0D0C088EE93E02CE231E0E0
:10273000F9013197F1F70197D9F7E0C09091350190
:1027400080913B01833050F5192F1150811731F1E1
:10275000133020F58091390190913A01181619062D
:102760006CF40E94360F81E095E00E946A0F0E948F
:10277000360F0E94E70F10933C0169C00E94360F8C
:1027800084E195E00E946A0F0E94360F87E08093F3
:10279000300110933B010E949E1159C00E94360FD8
:1027A00087E053C0B0923301A092340181E395E0F9
:1027B0000E946A0F809133018F5F0E943D170E9433
:1027C000301080E990E00E943010809134018F5FDA
:1027D0000E943D170E94301083E990E00E94301063
:1027E00080913B018F5F0E943D170E9430108CE961
:1027F00090E00E94301080913B0160913401409143
:1028000033010E94950A0E943D170E94301086EA0B
:1028100090E00E94301080913301E0913401F0E0AB
:10282000A3E0EE0FFF1FAA95E1F7E80FF11DE250BC
:10283000FC4F80810E943D170E94301080EB90E099
:102840000E9430100E94360F83E080933001109276
:10285000380152C080913801833009F043C0909113
:10286000350184E6989FA0011124809136012AE069
:10287000829FC0011124480F591F80913701480FD2
:10288000511D4F3F5105E4F480913301E091340133
:10289000F0E073E0EE0FFF1F7A95E1F7E80FF11D0E
:1028A000E250FC4F408387E08093300180913901F2
:1028B00090913A01019690933A018093390106C0B4
:1028C0000E94360F8DE395E00E946A0F83E0E5E3F6
:1028D000F1E0DF011D928A95E9F7109238010E941C
:1028E000360F0AC088EE93E02CE231E0F90131970F
:1028F000F1F70197D9F702C00E9483100F900F9053
:102900000F90CF91DF911F910F91FF90EF90DF908B
:10291000CF90BF90AF900895BF92CF92DF92EF9289
:10292000FF920F931F93CF93DF93EE24FF24CC24C9
:10293000DD2418E8B12E1EC080913B018B9DC001A3
:1029400011240D968C0D9D1D8C0F9D1FF80161911A
:102950008F010E9478252196C830D10569F7089427
:10296000E11CF11C88E090E0C80ED91E91E1E91647
:10297000F10459F08701B3E0000F111FBA95E1F798
:1029800002501C4FC0E0D0E0D7CF10923A01109215
:10299000390180913101843039F4809330011092F3
:1029A0002A011092320113C0813089F40E94360F3F
:1029B00084E195E00E946A0F0E94360F87E08093C1
:1029C000300180913C0180933B010E949E110E9446
:1029D0008310DF91CF911F910F91FF90EF90DF90C7
:1029E000CF90BF90089583E0E5E3F1E0DF011D9211
:1029F0008A95E9F71092380110923B0110922F014D
:102A00000E949E110E941B110895FF920F931F9325
:102A1000182F062FF42E80912A018823E1F080914F
:102A200030018B3079F588E8189FC00111240D968C
:102A3000262F30E053E0220F331F5A95E1F7820F23
:102A4000931F840F911D0E947025982F895C8C30F4
:102A5000A8F490E013C088E8189FC00111240D96D7
:102A6000262F30E043E0220F331F4A95E1F7820F13
:102A7000931F8F0D911D0E947025982F892F8150D3
:102A80008E3F30F0812F602F4F2D0E94950A982F96
:102A9000892F1F910F91FF9008951F93982F809178
:102AA0002A0180FD0FC0192F195C1C3058F40E94B8
:102AB0009E16882339F00E944B17812F0E947A11AD
:102AC00081E001C080E01F91089580912A0180FF7C
:102AD0000DC081FD0BC00E949E17882339F08091A4
:102AE0002A01826080932A010E94F3140895809144
:102AF0002A01816080932A018091ED00815082300B
:102B000018F40E946F1E08C00E94101B84EC99E00C
:102B10009093BE008093BD000E940510089580919F
:102B20002A018823C1F480912B018823A1F0809190
:102B30002C0190912D01019690932D0180932C01F1
:102B40002091BD003091BE002817390724F410925F
:102B50002B010E94771508950E948F1580912A01FC
:102B600081FF36C0809128018823C9F00E94AD16EC
:102B70008823A9F0809132018B3019F40E948C14C3
:102B80000CC08A3019F40E94FB1007C08C3019F475
:102B90000E94411102C010922801109232018091CE
:102BA00026018823A9F080912401909125010196A6
:102BB0009093250180932401895E93404CF081E03D
:102BC0008093270189E26FEF4FEF20E00E94E2112E
:102BD00008950E945521882319F010922E0108951E
:102BE00080912E01813021F40E94771510922E01E0
:102BF0000895FC0190E007C08191841719F4292FF2
:102C000030E005C09F5F9617B8F32FEF3FEFC90183
:102C10000895FC01808140E02FEF3FEF0CC05191FF
:102C2000252F30E090E02817390719F02FEF3FEFFC
:102C300004C04F5F852F461790F3C90108959B018B
:102C4000FC0101900020E9F73197E81BF90B6F5F59
:102C50007F4F680F791FE21BF30B820F931FAF01A9
:102C60000E943C230895FF920F931F93F42E9B0123
:102C7000DC010D900020E9F78C01060F171FA81B3F
:102C8000B90BA61BB70B2F5F3F4F820F931FB801E5
:102C9000AD010E943C23F801F0821F910F91FF903B
:102CA0000895462FDC010D900020E9F71197A81B2D
:102CB000B90BBD010E9433160895282F809173012E
:102CC00090917401019660E071E00E94E322FC01A2
:102CD00090937401809373018091710190917201BE
:102CE0008E179F0759F4009719F48FEF90E001C0F9
:102CF000019790937401809373010895EB58FE4FF0
:102D000020830895209171013091720180917301A7
:102D1000909174012817390711F480E00895C901D2
:102D2000019660E071E00E94E322FC019093720141
:102D300080937101EB58FE4F8081089540E020910F
:102D40007101309172018091730190917401281783
:102D5000390709F441E0842F089580917001882398
:102D600019F440E050E00FC040E050E020917101C4
:102D70003091720180917301909174012817390785
:102D800011F441E050E0842F08958093700108957C
:102D9000982F81568A3118F4292F2D5510C0892F6C
:102DA00081548A3120F4292F2D5332E009C0892F14
:102DB0008153893010F020E002C0292F235130E0E8
:102DC000892F992787FD9095A92FB92FFC01B097DE
:102DD000EF35F10508F048C0E65DFF4FEE0FFF1F2D
:102DE0000590F491E02D09942EE141C02FE13FC000
:102DF00020E23DC021E23BC022E239C023E237C0DD
:102E000024E235C025E233C026E231C027E22FC0DC
:102E10002CE22EC02DE22CC02DE229C02EE228C0CB
:102E20002EE225C02FE224C02FE221C020E320C0E3
:102E300020E31DC021E31CC021E319C023E318C017
:102E400023E315C024E314C024E311C025E310C01C
:102E500025E30DC026E30CC026E309C027E308C024
:102E600027E305C028E304C0222311F428E332E05D
:102E7000832F922F089527E2FBCF0F931F930DE628
:102E800011E090E0B8014AE050E00E944E23C801F2
:102E90001F910F91089520917101309172018091DD
:102EA0007301909174012817390739F480E3EDE339
:102EB000F1E0DF011D928A95E9F708951F93CF9302
:102EC000DF930E948216182FCDE3D1E0882331F4DE
:102ED00080E3FE0111928A95E9F712C0FE0101908C
:102EE0000020E9F73197ED53F140CE016E2F412FCD
:102EF0000E94F915BC0197FD05C0CE010E941F1666
:102F000080E005C0CE01612F0E94511681E0912F13
:102F1000DF91CF911F91089580E090E0FC01E9548A
:102F2000FB4F1082FC01E853FB4F10820196813168
:102F30009105A1F78AE08093E000089581E08093F5
:102F40007702E8ECF4E08081882319F01092770290
:102F500005C0319684E0E93DF807A9F78091770232
:102F6000089588EC94E008958F929F92AF92BF925B
:102F7000DF92EF92FF920F931F93CF93DF93DD24A5
:102F8000C0E0D0E021E0E22EF12C97E1892E912CD7
:102F90008FE0A82EB12C87010C2E02C0000F111F4C
:102FA0000A94E2F707BB802F809588BB81E090E010
:102FB0000E947521E8ECF4E040E050E0302F3095BD
:102FC000842F483048F429B3C701042E02C0880F6B
:102FD000991F0A94E2F711C08850883018F423B37F
:102FE000C50102C020B3C401841B950BB70102C008
:102FF000660F771F8A95E2F7CB01209528239081F1
:10300000802F892319F0222329F008C0222331F0D0
:10301000902B01C093239083DD24D3944F5F5F4FA7
:1030200031964131510561F62196C830D10509F03C
:10303000B2CFDD2019F01092DF0007C08091DF00D1
:10304000843618F48F5F8093DF0020E09091DF00DA
:103050008091E000981709F421E0822FDF91CF9151
:103060001F910F91FF90EF90DF90BF90AF909F90D6
:103070008F9008951F930E9465150E94B417182F12
:103080000E94AC150E941B0F811110E0812F1F912F
:1030900008954F925F926F927F929F92AF92BF92EC
:1030A000CF92DF92EF92FF920F931F93CF93DF9314
:1030B000EE24FF2451E0C52ED12C47E1442E512CA3
:1030C0003FE0632E712C6FC00C2F809176026C2F25
:1030D000492D0E940515182F865D803128F4E12FB7
:1030E000F0E0E457F0401081812F865F823060F07D
:1030F0001E3F51F0183F41F01B3F09F048C080913E
:103100007602823009F043C0A7BAB8BA81E090E0F5
:103110000E947521083048F429B3C6010C2E02C064
:10312000880F991F0A94E2F711C00850083018F46C
:1031300023B3C30102C020B3C2018C1B9D0BA601A7
:1031400002C0440F551F8A95E2F7CA012095282333
:10315000F1F01E3F61F0183F09F444C0173F49F4F5
:1031600080917702882399F081E08093780291E042
:103170003DC0163F41F480917702882341F082E000
:10318000809378022FC01B3F11F490E02FC021964E
:10319000C131D10509F098CF0894E11CF11C58E029
:1031A000E516F10471F09E2CC6010E2C02C0880FAA
:1031B000991F0A94E2F7A82EB82EB094C0E0D0E090
:1031C00083CF0E949E17882311F01092780290916D
:1031D0007802992359F480917502813029F482E0B4
:1031E0008093760292E002C010927602892FDF91DE
:1031F000CF911F910F91FF90EF90DF90CF90BF90F4
:10320000AF909F907F906F905F904F9008950F9335
:103210001F93182F062F8E3F09F443C00E94AB0A5C
:103220000023C1F10E942A0C1C3F49F080917902D1
:103230008823B9F01A32A9F41092750206C0809161
:10324000750291E089278093750280917502882329
:1032500041F50E94300B80FF02C0909A22C09098E6
:1032600020C0193221F481E0809379021DC08823A7
:1032700011F0193311F01D3F19F40E94B30B11C066
:103280001A3F19F40E94DF0B0CC0193F61F40E9431
:10329000C60B07C01C3F29F0193229F4109279029D
:1032A00002C080E001C081E01F910F910895282F96
:1032B0008F3F31F410927B0281E080938502089564
:1032C0008E3F21F08D3F29F410927B0210928502EF
:1032D000089580918502882351F080917B02E82F28
:1032E000F0E0E15BFC4F20838F5F80937B02809155
:1032F000830290918402019668EC70E00E94E322C0
:10330000FC019093840280938302809181029091CA
:1033100082028E179F0759F4009719F487EC90E00A
:1033200001C0019790938402809383020895EA5725
:10333000FD4F208308952091810230918202809177
:103340008302909184022817390711F480E00895D0
:10335000C901019668EC70E00E94E322FC019093A1
:10336000820280938102EA57FD4F8081089540E0F8
:103370002091810230918202809183029091840297
:103380002817390709F441E0842F0895109282022A
:1033900010928102109284021092830210927B029A
:1033A00010927C021092590310925A0310925B0300
:1033B00010925C03E7EBF4E0119284E0E83CF8073C
:1033C000D9F70895EAEDF4E0119285E0EA38F807BC
:1033D000D9F72AEB32E006C0FC01E652FB4F8081B0
:1033E00082608083F901849190E02F5F3F4F0097C6
:1033F00099F72DEB32E006C0FC01E652FB4F8081CD
:1034000084608083F901849190E02F5F3F4F0097A3
:1034100099F721EC32E006C0FC01E652FB4F8081B7
:1034200088608083F901849190E02F5F3F4F00977F
:1034300099F726EC32E006C0FC01E652FB4F808192
:1034400081608083F901849190E02F5F3F4F009766
:1034500099F724EF32E006C0FC01E652FB4F808171
:1034600080618083F901849190E02F5F3F4F009746
:1034700099F7E7EBF4E0119284E0E83CF807D9F71C
:1034800008950E949E1690E0882309F491E0892F08
:10349000089581E08093A0030E943A0E0E94E915EE
:1034A0000895FF920F931F93CF93DF93F62E8823F7
:1034B00009F4ADC00E94870A182F853D08F0A7C007
:1034C00087568830D0F4E12FF0E090918002FF2001
:1034D00039F0EE0FFF1FEF50F0408081982B07C0AE
:1034E000EE0FFF1FEF50F04080818095982390935E
:1034F0008002809180020E94FB0E812F90E0FC01EF
:10350000EE56FE4F0491FF2009F450C010934E0375
:103510001092590310925A0310925B0310925C03AD
:1035200010928B05EC01C652DB4F888181FF2EC0C3
:10353000163421F0183409F06CC00EC08FEF0E94D1
:10354000571980EE0E94571982E10E94571980EEA8
:103550000E9457198CE726C08DEF0E94571981EE03
:103560000E94571984E10E94571987E70E94571952
:1035700081EE0E94571980EF0E94571984E10E9442
:10358000571980EF0E94571987E73BC082FD38C06A
:103590008FEF0E945719888180FF03C080EE0E9440
:1035A0005719802F0E9457198EEF2BC080914E0320
:1035B000811711F410927B02E12FF0E0E652FB4FED
:1035C000808181FF13C0163421F580EE0E945719C7
:1035D00080EF0E9457198CE70E94571980EE0E94D5
:1035E000571980EF0E94571982E10BC082FD11C06C
:1035F00080FF03C080EE0E94571980EF0E94571988
:10360000802F0E9457198CEF0E94571902C080E04A
:1036100001C081E0DF91CF911F910F91FF9008953C
:1036200088E660E00E94511A87E660E00E94511A25
:1036300089E660E00E94511A0895DF92EF92FF92AE
:103640000F931F93182F062FE42ED22E0E940719D6
:10365000F82E002339F0112329F081E59AE161E089
:103660000E94FE0A0E94F30E882339F0812F6E2DEE
:103670004D2D202F0E94E21102C0FF2011F480E0A6
:1036800005C0812F602F0E94511A81E01F910F9178
:10369000FF90EF90DF9008954F925F926F927F922C
:1036A0008F929F92AF92BF92CF92DF92EF92FF9252
:1036B0000F931F93CF93DF930E949E16882349F0A8
:1036C00081E00E94C5160E943A18882309F4CCC0F4
:1036D00014C080E00E94C5160E945E17813041F43C
:1036E000892F61E00E94511A8DEF0E945719BCC0CA
:1036F000892F60E00E94511AB7C00E944918782EA5
:103700000E94B1174C0180917F02871509F446C0D1
:10371000EE24FF2441E0442E512C34C0F401EC0F80
:10372000FD1F0081FE01E954FB4F80818B21F9F0E0
:1037300080917F026C2F4C2D0E940515D82E872D6D
:103740006C2F4C2D0E940515182FD81681F0882358
:1037500071F08D2D60E04C2D2C2F0E941D1B0B2134
:1037600031F0812F61E04C2D2C2F0E941D1B2196E2
:10377000C131D10599F60894E11CF11C88E0E816E6
:10378000F10461F0CE2CC2010E2C02C0880F991FEB
:103790000A94E2F7B82EC0E0D0E0C0CF70927F026A
:1037A000AA24A394CC24DD2431E0432E512C3EC026
:1037B000EC2EFE01E954FB4FF080F401EC0FFD1FED
:1037C00010811621872D6C2F4B2D0E940515082F77
:1037D000112339F0882329F00E944D15882309F020
:1037E00043C0F620F116B9F00E945521882339F024
:1037F0001123A9F08E2D6B2D0E94582110C011238A
:1038000019F0802F61E002C0802F60E04B2D2E2D3B
:103810000E941D1BA8222196C131D10549F60894AA
:10382000C11CD11C88E0C816D10461F0BC2CC201B7
:103830000C2C02C0880F991F0A94E2F7682EC0E092
:10384000D0E0B6CF20E030E0F901E954FB4FD401DD
:10385000A20FB31F8C9180832F5F3F4F2131310521
:1038600099F72A2D30E002C020E030E0C901DF9155
:10387000CF911F910F91FF90EF90DF90CF90BF906D
:10388000AF909F908F907F906F905F904F90089532
:103890001F93162F8E3F11F080938A050E94DD073B
:1038A00010938B051F9108958F929F92AF92BF92B4
:1038B000CF92DF92EF92FF920F931F9388E0809355
:1038C0008B050E9404090E94E2190E948C170E9435
:1038D000C619789416E9812E99249394B5E0AB2EFD
:1038E000B12CC12CD12C8091ED008823F9F480916A
:1038F000A0038823D9F480919E0390919F030196A1
:1039000090939F0380939E030197815D974074F08D
:1039100081E08093ED001F910F91FF90EF90DF9079
:10392000CF90BF90AF909F908F9008958091AE03FD
:1039300082FFC0C080917D0290917E028C3F9105F4
:1039400061F02091810230918202809183029091F6
:1039500084022817390709F0ADC00E94EC07182F20
:1039600060918B05623009F457C0633018F4613000
:1039700039F44CC0663009F48DC0673009F455C085
:10398000133F71F1143F60F41E3EC9F01F3E18F45E
:103990001D3EA9F522C0103FE9F0123F81F511C08C
:1039A000163F09F1173F30F4143F09F481C0153F69
:1039B00031F57EC01E3F59F01F3F09F505C08EEE60
:1039C00072C18AEF64E06FC18AEF68E06CC18091D8
:1039D0008A0569C18AEF62E066C18AEF66E063C169
:1039E0008AEF67E060C19092E100A092E200B0929D
:1039F000E300C092E400D092E5000E94C6198AEF6D
:103A000060E00E94481C0E94491A6DCF853F09F46E
:103A10004FC08AEF61E047C10E94C619112311F01F
:103A200060E001C063E08AEF3EC1682F70E0CB0127
:103A300080769070A5E095958795AA95E1F780939B
:103A4000E100AB0148715070F3E055954795FA9548
:103A5000E1F780E090E021E030E003C0220F331F67
:103A6000019684179507D4F367707070269FC00184
:103A7000279F900D369F900D1124AA2797FDA095A2
:103A8000BA2F8093E2009093E300A093E400B093F8
:103A9000E5000EC00E94491A912F80E010FD84E0DD
:103AA00091FD816092FD82600E942D0B0E94F90BB6
:103AB0008AEFF8C08091AE0384FF15CF80918B050B
:103AC000843009F4E7C0853030F4882371F0833006
:103AD00009F009CFDDC0883009F4E1C08C3009F469
:103AE0005FC0853009F0FFCED8C0209181023091AF
:103AF000820280918302909184022817390711F481
:103B00000E944C1B809175020E94A80D0E949B1977
:103B1000282F30E030937E0220937D022C3F310528
:103B200009F4E1CE232B21F060E00E94481C60C024
:103B300080917B02882309F4D6CE209159033091DD
:103B40005A0340915B0350915C032F5F3F4F4F4FEF
:103B50005F4F2093590330935A0340935B03509374
:103B60005C038091E100889DC00111248A519F4F20
:103B7000AA2797FDA095BA2F281739074A075B0790
:103B80000CF4B1CE1092590310925A0310925B03B9
:103B900010925C0310927C028CE080938B05A3CE84
:103BA00080917C02882311F40E944C1B8091750245
:103BB0000E94A80D80917B028823C1F02091810290
:103BC00030918202809183029091840228173907F4
:103BD00069F48091590390915A03A0915B03B091CD
:103BE0005C030197A105B10561F40FC010928B052C
:103BF0001092590310925A0310925B0310925C03C7
:103C000072CE80917C028823A9F090917C02E92FEA
:103C1000F0E0E15BFC4F80819F5F90937C026CE061
:103C20000E94481C60917B0280917C020E94C3220A
:103C300090937C02E0905903F0905A0300915B034B
:103C400010915C030894E11CF11C011D111D609191
:103C5000E2007091E3008091E4009091E5002AE099
:103C600030E040E050E00E94A4229B01AC012D5FB7
:103C70003F4F4F4F5F4FC801B7010E941823609319
:103C8000590370935A0380935B0390935C032BCE8C
:103C900082E008C08BEA65E006C083E803C00E94AA
:103CA000C6198AEA60E00E94481C1DCE80915F031D
:103CB000882331F40E949E1620E030E0882311F41E
:103CC00021E030E0822F089588E0E2E6F3E0DF01B2
:103CD0001D928A95E9F781E080936203089580E35D
:103CE000EBE6F3E0DF011D928A95E9F708950E9463
:103CF000870A982F853D08F042C081578A3198F491
:103D000081E080935D03E92FF0E0EE0FFF1FE05AA2
:103D1000FE4F2591349182E08093620320936303E8
:103D2000309364032CC0892F8756883068F4E92FBC
:103D3000F0E0EE0FFF1FEF50F040808190916303A1
:103D4000892B809363031BC09923C9F020918C05B4
:103D50002830A8F4892F8D58823248F4E92FF0E0FA
:103D6000EE0FFF1FE45AFE4F85919491982FE22F9A
:103D7000F0E0EE59FC4F90832F5F20938C0580E09C
:103D800008959F92AF92BF92CF92DF92EF92FF92EF
:103D90000F931F93CF93DF930E94641E0E94F30E34
:103DA0008823D9F50E94B1177C010E944918982EEA
:103DB00000E010E051E0A52EB12C23C0F701EC0F7C
:103DC000FD1F80818D21A1F0892D6C2F4C2D0E942B
:103DD0000515E82F8756883058F4F0E0EE0FFF1FE6
:103DE000EF50F040808190916303892B80936303AF
:103DF0002196C131D10511F70F5F1F4F0830110512
:103E000061F0C02EC501002E02C0880F991F0A94D0
:103E1000E2F7D82EC0E0D0E0D1CF0E949E168823D2
:103E200009F045C00E945E17EDE3F1E0DF010D905F
:103E30000020E9F71197AE1BBF0B82E080938C0541
:103E4000EF01EA2EFF246F01CE0CDF1C3BE6A32E10
:103E500033E0B32E1AC01881812F8756883080F046
:103E6000F50101900020E9F73197EB56F3408BE61E
:103E700093E06E2F412F0E94F9158F5F9F4F21F421
:103E8000812F61E00E94771E21964DE351E0CC1511
:103E9000DD0509F781E080935F032BE633E0F7014E
:103EA0003196C901BA01AF010E94332306C0809147
:103EB0005F03882311F010925F0381E0DF91CF91BF
:103EC0001F910F91FF90EF90DF90CF90BF90AF9038
:103ED0009F9008952F923F924F925F926F927F92A0
:103EE0008F929F92AF92BF92CF92DF92EF92FF920A
:103EF0000F931F93DF93CF930F92CDB7DEB70E943E
:103F00003A18882309F4C8C00E944918682E82E034
:103F100080938C050E94641E0E94B1174C01198287
:103F2000CC24DD2461E0462E512C73C0B22CF1016B
:103F3000E954FB4F0081F401E20DF31DF080F720FE
:103F4000862D622D4A2D0E940515182FFF2039F06D
:103F5000882329F00E944D15882309F09DC0E72C85
:103F6000E022EF1409F440C00E945521882349F053
:103F7000FF2021F08B2D6A2D0E9458210E94DC0E1B
:103F800041C0112309F49DC0FF2069F0812F61E039
:103F90000E940719082F0E94DC0E87E79EE161E06E
:103FA0000E94FE0A07C0812F60E00E940719082FB7
:103FB000EE20C1F00E94F30E8823A1F0FF2049F00B
:103FC000812F6A2D4B2D21E00E94E21181E089832F
:103FD00011C0812F6A2D4B2D20E00E94E21191E04B
:103FE000998308C0002331F0FF2021F0812F61E088
:103FF0000E94771E0894211C311CE1E12E16310429
:1040000009F094CF0894C11CD11CF8E0CF16D1045C
:1040100061F0AC2CC2010C2C02C0880F991F0A94CD
:10402000E2F7782E2224332481CF809162038130FD
:1040300069F49091630380916003981739F0892F98
:104040000E94FB0E809163038093600380915D0367
:10405000882369F080916203823049F082E0809386
:104060006203109263031092640310925D0320E0D8
:1040700030E0F901E954FB4FD401A20FB31F8C913A
:1040800080832F5F3F4F2131310599F780E099817F
:10409000913019F081E001C080E00F90CF91DF9165
:1040A0001F910F91FF90EF90DF90CF90BF90AF9056
:1040B0009F908F907F906F905F904F903F902F9048
:1040C000089501E077CFEF92FF920F931F930E9424
:1040D0001A098B9A20E048EB5BE0CA010197F1F7DF
:1040E0002150D9F78B98789400E010E0EE24E39407
:1040F0008091ED008130D9F48091A0038823B9F438
:1041000080919E0390919F03019690939F038093CB
:104110009E030197815D974054F01092ED008BB79C
:104120008F7B8BBF1F910F91FF90EF9008950E949E
:104130002709002399F40E946A1F082F08B600FE81
:104140000FC0E8BEF0906A03FF2051F0153010F464
:1041500001E007C07BEFF72EF10E03C00E946A1F3B
:10416000F12E8091BA0384FF2EC080915E038823D4
:1041700061F010925E030E94641E82E693E068E0A4
:104180000E94590A0E94E9151EC00E94561E8823EB
:1041900041F00E94C11E82E693E068E00E94590A45
:1041A00012C0002381F080916203823021F482E604
:1041B00093E063E005C0813029F482E693E068E093
:1041C0000E94590A00E00E94B50E809175020E947B
:1041D000A80D0E94561E882311F080E001C081E0E6
:1041E0000E94C5161F2D84CF81E080935E030E943C
:1041F0003A0E0E94DC0E0895CF93DF9321E02093C6
:10420000A003EC01809162038093C9031092CA035A
:1042100088818076803271F58981813011F488E05F
:104220002AC0893041F48E819F81029719F520932D
:1042300061038FEF20C0823019F480916A0314C0AB
:104240008A3031F40E94F4208B8180936A0312C07B
:10425000833031F48B81882369F41092E6000BC01F
:104260008B3041F48091E6008093C9031092CA0319
:1042700081E001C080E0DF91CF910895FC01809141
:104280006103882351F0623041F48081813029F448
:1042900081810E942D0B0E94F90B1092610381E035
:1042A000089581E080939B03089580919B03089576
:1042B0000F931F93082F162F87EE90E00E94301067
:1042C000812F0E943D170E94301089EE90E00E94DD
:1042D0003010802F0E943D170E9430108BEE90E02E
:1042E0000E9430101F910F9108950F931F9300911A
:1042F0009C0310919D03039665E070E00E94CF221D
:1043000080E090E02CE030E040E050E00E94A42209
:10431000060F171F10939D0300939C031F910F918D
:1043200008958D98959A08958D9A959808951F935C
:1043300010E0812F0E941F051F5F1730D1F789B74A
:104340008E7F89BF89B78B7F89BF89B78F7B89BFF4
:104350001F9108959FEF97BB98BB1ABA14BA9BBBE5
:1043600095BB91BB91B39F7591BB12BA92B3906A02
:1043700092BB91B3936191BB92B39C7E92BB8E9A98
:104380009698882379F08BE090E00E94752181B3A4
:10439000837F81BB83B7856083BF0E9497218D98FF
:1043A000959A08958D9A95980895F8940E94330BE4
:1043B00010929F0310929E031092A00308958F9273
:1043C0009F92BF92CF92DF92EF92FF920F931F9333
:1043D000CF93DF938FEF8093ED0087BB88BB1ABA32
:1043E00014BA8BBB85BB11BA80E882BB81E090E038
:1043F0000E94752110E00E94B417882319F41F5FF2
:104400001E31C9F70E94B1176C01FF2400E010E0D3
:1044100081E0882E912C29C06C2FF601EC0FFD1F36
:1044200080818B21C9F0C13031F481E0E81619F4A4
:104430000E94512111C080E04E2D0E94950A8031CA
:1044400019F40E941E0F08C0883111F481E003C0E6
:10445000833111F482E0F82A2196C131D105E1F6C9
:104460000F5F1F4F0830110561F0E02EC401002ED0
:1044700002C0880F991F0A94E2F7B82EC0E0D0E07E
:10448000CBCFFF2019F0F394F092ED006091ED0096
:10449000643021F48CE090E06FEF04C0643028F4C5
:1044A0008CE090E00E94782506C08CE090E00E94AD
:1044B00070258093ED008A98929A2091ED00243027
:1044C000D0F080E090E0829907C092FD09C08F5F34
:1044D000863060F021E00AC0829B09C092FD02C0D4
:1044E00080E004C08F5F863008F020E090B3223077
:1044F00050F72093ED00CCE2D1E08091ED008150A7
:10450000823038F40E94D52181E00E94AA210E94C5
:1045100063208091ED00882311F0833071F782B31E
:10452000836082BB88EE93E0FE013197F1F701973B
:10453000D9F782B38C7F82BB0E94D52180E00E9494
:10454000AA210E94541CD9CF629FD001739FF00111
:10455000829FE00DF11D649FE00DF11D929FF00D13
:10456000839FF00D749FF00D659FF00D9927729F4A
:10457000B00DE11DF91F639FB00DE11DF91FBD01D5
:10458000CF0111240895991B79E004C0991F961753
:1045900008F0961B881F7A95C9F780950895AA1B85
:1045A000BB1B51E107C0AA1FBB1FA617B70710F01E
:1045B000A61BB70B881F991F5A95A9F78095909550
:1045C000BC01CD01089597FB092E07260AD077FD7F
:1045D00004D0E5DF06D000201AF4709561957F4F76
:1045E0000895F6F7909581959F4F0895A1E21A2EB0
:1045F000AA1BBB1BFD010DC0AA1FBB1FEE1FFF1F87
:10460000A217B307E407F50720F0A21BB30BE40BD6
:10461000F50B661F771F881F991F1A9469F760951D
:104620007095809590959B01AC01BD01CF010895D7
:1046300097FB092E05260ED057FD04D0D7DF0AD0F0
:10464000001C38F450954095309521953F4F4F4FC1
:104650005F4F0895F6F790958095709561957F4F1F
:104660008F4F9F4F0895FB01DC0102C001900D9216
:1046700041505040D8F708956817790768F4FB0156
:10468000DC01E40FF51FA40FB51F02C002900E92CB
:1046900041505040D8F708950C943323FB019F01FB
:1046A000E8944230C4F04532B4F44A3029F497FB20
:1046B0001EF4909581959F4F642F77270E94CF22FB
:1046C000805D8A330CF0895D8193CB010097A1F75F
:1046D00016F45DE251931082C9010C949B25AEE063
:1046E000B0E0E5E7F3E20C9443260D891E8986E0ED
:1046F0008C831A8309838FEF9FE79E838D839E01AE
:10470000275E3F4FCE0101966F89788DA9010E94E7
:1047100093232F813885020F131FF80110822E96E4
:10472000E4E00C945F26ABE0B0E0E9E9F3E20C943E
:1047300035263C012B015A01FC0117821682838128
:1047400081FD03C06FEF7FEFC6C19AE0892E1E0185
:104750000894211C311CF3012381F20123FD859172
:1047600023FF81912F01882309F4B2C1853239F4E6
:1047700023FD859123FF81912F01853229F490E05B
:10478000B3010E94AB25E7CF982FFF24EE24992494
:10479000FFE1FF15D0F09B3269F09C3228F4903293
:1047A00059F0933291F40EC09D3249F0903369F480
:1047B00041E024C052E0F52A84E0F82A28C098E0BD
:1047C000F92A25C0E0E1FE2A22C0F7FC29C0892F82
:1047D00080538A3070F4F6FE05C0989C902C11240A
:1047E000980E15C0E89CE02C1124E80EF0E2FF2A98
:1047F0000EC09E3229F4F6FC6BC140E4F42A07C0D7
:104800009C3619F450E8F52A02C0983649F4F201B2
:1048100023FD959123FF91912F01992309F0B8CFA2
:10482000892F8554833018F08052833038F444E067
:1048300050E0A40EB51E5FE359830FC0933631F0EC
:10484000933779F0933509F056C020C0F501808187
:10485000898342E050E0A40EB51E610101E010E042
:1048600012C0F501C080D180F6FC03C06FEF7FEF6E
:1048700002C0692D70E042E050E0A40EB51EC601F2
:104880000E9490258C015FE7F52214C0F501C080DD
:10489000D180F6FC03C06FEF7FEF02C0692D70E09E
:1048A00042E050E0A40EB51EC6010E9485258C0191
:1048B00050E8F52AF3FE07C01AC080E290E0B30189
:1048C0000E94AB25EA948E2D90E008171907A8F3F3
:1048D0000EC0F601F7FC8591F7FE81916F0190E023
:1048E000B3010E94AB25E110EA940150104001157C
:1048F000110579F7EAC0943611F0993669F5F7FE9B
:1049000008C0F501208131814281538184E090E02B
:104910000AC0F501808191819C01442737FD4095B3
:10492000542F82E090E0A80EB91E9FE6F92257FFAF
:1049300009C050954095309521953F4F4F4F5F4F9F
:10494000E0E8FE2ACA01B901A1012AE030E00E9494
:10495000D725D82ED21840C0953729F41F2D1F7E99
:104960002AE030E01DC01F2D197F9F3661F090377F
:1049700020F4983509F0ACC00FC0903739F0983763
:1049800009F0A6C004C028E030E00AC0106114FDA0
:10499000146020E130E004C014FD166020E132E034
:1049A00017FF08C0F501608171818281938144E025
:1049B00050E008C0F50180819181BC0180E090E069
:1049C00042E050E0A40EB51EA1010E94D725D82ECA
:1049D000D2188FE7F82EF122F6FE0BC05EEFF5221B
:1049E000D91438F4F4FE07C0F2FC05C08FEEF822AB
:1049F00002C01D2D01C0192DF4FE0DC0FE01ED0DEC
:104A0000F11D8081803319F499EEF92208C01F5FEF
:104A1000F2FE05C003C08F2D867809F01F5F0F2DB1
:104A2000F3FC14C0F0FE0FC01E1510F09D2C0BC03F
:104A30009D2C9E0C911A1E2D06C080E290E0B301C1
:104A40000E94AB251F5F1E15C0F304C01E1510F495
:104A5000E11A01C0EE2404FF0FC080E390E0B3012F
:104A60000E94AB2502FF1DC001FD03C088E790E056
:104A70000EC088E590E00BC0802F867891F001FF92
:104A800002C08BE201C080E2F7FC8DE290E0B3014E
:104A90000E94AB2506C080E390E0B3010E94AB25E5
:104AA0009A94D914C0F3DA94F101ED0DF11D8081CF
:104AB00090E0B3010E94AB25DD20A9F706C080E29B
:104AC00090E0B3010E94AB25EA94EE20C1F743CEFB
:104AD000F30166817781CB012B96E2E10C9451269C
:104AE000E199FECF9FBB8EBBE09A99278DB30895C5
:104AF000262FE199FECF9FBB8EBB2DBB0FB6F8943E
:104B0000E29AE19A0FBE01960895FC01059061506A
:104B100070400110D8F7809590958E0F9F1F0895D3
:104B2000FC016150704001900110D8F7809590957C
:104B30008E0F9F1F0895DC01FC01672F7191772371
:104B4000E1F7329704C07C916D9370836291AE1748
:104B5000BF07C8F308950F931F93CF93DF938C0182
:104B6000EB018B8181FF1BC082FF0DC02E813F8135
:104B70008C819D812817390764F4E881F9810193BC
:104B8000F983E88306C0E885F985802F0995892B8C
:104B900031F48E819F8101969F838E8302C00FEF37
:104BA0001FEFC801DF91CF911F910F910895FA0176
:104BB000AA27283051F1203181F1E8946F936E7F5C
:104BC0006E5F7F4F8F4F9F4FAF4FB1E03ED0B4E04D
:104BD0003CD0670F781F891F9A1FA11D680F791F8E
:104BE0008A1F911DA11D6A0F711D811D911DA11D9F
:104BF00020D009F468943F912AE0269F11243019AF
:104C0000305D3193DEF6CF010895462F4770405D49
:104C10004193B3E00FD0C9F7F6CF462F4F70405DF8
:104C20004A3318F0495D31FD4052419302D0A9F753
:104C3000EACFB4E0A6959795879577956795BA954D
:104C4000C9F700976105710508959B01AC010A2E13
:104C500006945795479537952795BA95C9F7620FEA
:104C6000731F841F951FA01D08952F923F924F928E
:104C70005F926F927F928F929F92AF92BF92CF92EC
:104C8000DF92EF92FF920F931F93CF93DF93CDB7F5
:104C9000DEB7CA1BDB0B0FB6F894DEBF0FBECDBF6D
:104CA00009942A88398848885F846E847D848C843E
:104CB0009B84AA84B984C884DF80EE80FD800C8147
:104CC0001B81AA81B981CE0FD11D0FB6F894DEBF2A
:0C4CD0000FBECDBFED010895F894FFCF9A
:104CDC005AFFFEFEF8F86C6C68686D6D69696B6B59
:104CEC0067678E8D8E8D8E8D8E8D8E8D8E8D8E8D2D
:104CFC008E8D0065080701FF010025630025640007
:104D0C002C200020286C617965723D00206465665A
:104D1C0061756C743D00206D617070696E673D004B
:104D2C002900271E1F202122232425262988130130
:104D3C000002000400080010002000400080000069
:104D4C000100020004000800100020004000800A4E
:0E4D5C00050205000000012D002C003D00FFA7
:00000001FF
